:020000040800F2
:1000000028040020F9030008F5010008F7010008A2
:1000100000000000000000000000000000000000E0
:10002000000000000000000000000000FB010008CC
:100030000000000000000000FD010008FF010008B2
:100040000B0400080B0400080B0400080B04000854
:100050000B0400080B0400080B0400080B04000844
:100060000B0400080B0400080B0400080B04000834
:100070000B0400080B0400080B0400080B04000824
:100080000B0400080B040008000000000B0400082B
:100090000B0400080B0400080B0400080B04000804
:1000A0000B0400080B0400080B0400080B040008F4
:1000B0000B040008000000000B0400080000000012
:1000C0000348854601F0F6FD00480047D5000008CA
:1000D000280400200EB5002600F026FF00F09AF953
:1000E00000F035FA3848A02380220021009008460D
:1000F00000F02AFB0121C9030920C00601F03FF8E6
:1001000061E000201821304A1F23DB020092019198
:1001100002902EA2014600F05CFD002010212A4A28
:100120001F23DB020092019102902BA21E211820B6
:1001300000F000FE102024491F22D2020323009267
:100140000191029080221E21482000F01CFE002018
:1001500010211D4A1F23DB0200920191029020A270
:100160003221182000F0E6FD102017491F22D2028C
:100170000323009201910290A0223221482000F036
:1001800002FE102010491F22D20204230092019186
:10019000029032465021142000F044FE304601F017
:1001A00095FC0446104A114B01F0CAFB01910090E6
:1001B00001F0A0FC06460E4828231A465021009064
:1001C000412000F080FE9CE7FFFF0000D6D0BEB0CB
:1001D000D4B0B5E7D7D300004C43445F573A000092
:1001E0004C43445F483A0000295C8FC2F528BC3F6D
:1001F000461D0008704700BFFEE770477047704714
:100200000CB500200190009073480068012109049A
:1002100008437149086000BF6F4800680121490424
:10022000084000900198401C01900098002804D1DB
:100230000521090201988842EED167480068012132
:1002400049040840002802D00120009001E000206D
:1002500000900098012839D11120604908605E485B
:1002600040685D4948600846406848600846406804
:100270003F210904884358494860084640681121D5
:1002800009040843544948600846006801210906EA
:1002900008435149086000BF4F48006801214906E2
:1002A00008400028F8D04C484068800880004A493F
:1002B000486008464068022108434749486000BF3B
:1002C000454840680C2108400828F9D10CBD10B5FC
:1002D00041480068012108433F49086008464068DA
:1002E0003F4908403C494860084600683D4908408D
:1002F0003949086008460068012189048843364965
:100300000860084640683F21090488433249486034
:100310000846C06A00090001C8620846006BFF2158
:10032000543188432C4908630846406B400840001C
:10033000486300208860FFF763FF10BDF8B5002513
:10034000002400260027244840680C210840054668
:10035000002D04D0042D06D0082D2AD107E0224814
:100360002249086029E020482049086025E01A4811
:1003700040680F218904084004461748406801215D
:10038000090408400646A00C841C002E04D118481D
:100390006043164908600BE00F48C06A0007000F71
:1003A000471C3946104801F077FA60430F4908604E
:1003B00003E00D480D49086000BF00BF06484068D3
:1003C000F021084000090B490D5C08480068E8402E
:1003D00006490860F8BD00000010024000200240FD
:1003E0000CB8FFF8FFFFF6FE00127A0000000020B4
:1003F00000093D00040000200448804704480047ED
:10040000FEE7FEE7FEE7FEE7FEE7FEE7CF020008B5
:10041000C10000081CB50121480401F064F9012065
:10042000C003009003216846417101210171002140
:10043000817169460920C00600F022FE0121C9032E
:100440000920C00600F099FE1CBD1CB5012148041E
:1004500001F049F93F2000900321684641710121D4
:1004600001710021817169460920C00600F008FE73
:100470003F210920C00600F080FE1CBD70B5044677
:1004800010210920C00600F07AFE00251CE00121A1
:100490000920C00600F073FE80202040002805D00F
:1004A00002210920C00600F068FE04E002210920B4
:1004B000C00600F064FE01210920C00600F05DFEC8
:1004C0006006040E681CC5B2082DE0DB102109206F
:1004D000C00600F052FE70BD10B504462046FFF77E
:1004E000CDFF10BD10B504462104080EFFF7C6FF6E
:1004F000E0B2FFF7C3FF10BD10B504460821092084
:10050000C00600F03CFE2046FFF7B8FF0821092096
:10051000C00600F032FE10BDF8B504460D46164682
:100520001F462A20FFF7E8FFA01CFFF7DBFFB01CE7
:10053000FFF7D8FF2B20FFF7DFFF681CFFF7D2FF84
:10054000781CFFF7CFFF2C20FFF7D6FFF8BD10B5C2
:10055000FFF77BFF04210920C00600F010FE642095
:1005600000F01DFD04210920C00600F006FE6420F5
:1005700000F015FD20210920C00600F0FEFD6420DA
:1005800000F00DFD1120FFF7B7FF782000F007FD08
:10059000B120FFF7B1FF0520FFF79EFF3C20FFF7DA
:1005A0009BFF3C20FFF798FFB220FFF7A5FF052037
:1005B000FFF792FF3C20FFF78FFF3C20FFF78CFFF7
:1005C000B320FFF799FF0520FFF786FF3C20FFF7D8
:1005D00083FF3C20FFF780FF0520FFF77DFF3C20D5
:1005E000FFF77AFF3C20FFF777FFB420FFF784FF87
:1005F0000320FFF771FFC020FFF77EFF2820FFF7E1
:100600006BFF0820FFF768FF0420FFF765FFC1209C
:10061000FFF772FFC020FFF75FFFC220FFF76CFFFC
:100620000D20FFF759FF0020FFF756FFC320FFF70B
:1006300063FF8D20FFF750FF2A20FFF74DFFC420F6
:10064000FFF75AFF8D20FFF747FFEE20FFF744FF2B
:10065000C520FFF751FF1A20FFF73EFF3620FFF7B6
:100660004BFFC020FFF738FFE020FFF745FF0420D5
:10067000FFF732FF2220FFF72FFF0720FFF72CFFA5
:100680000A20FFF729FF2E20FFF726FF3020FFF773
:1006900023FF2520FFF720FF2A20FFF71DFF28203A
:1006A000FFF71AFF2620FFF717FF2E20FFF714FF92
:1006B0003A20FFF711FF0020FFF70EFF0120FFF7A0
:1006C0000BFF0320FFF708FF1320FFF705FFE120D2
:1006D000FFF712FF0420FFF7FFFE1620FFF7FCFED6
:1006E0000620FFF7F9FE0D20FFF7F6FE2D20FFF79D
:1006F000F3FE2620FFF7F0FE2320FFF7EDFE272074
:10070000FFF7EAFE2720FFF7E7FE2520FFF7E4FECC
:100710002D20FFF7E1FE3B20FFF7DEFE0020FFF774
:10072000DBFE0120FFF7D8FE0420FFF7D5FE1320E3
:10073000FFF7D2FE3A20FFF7DFFE0520FFF7CCFEE1
:100740002920FFF7D9FE10BDFEB506460F46144618
:100750001D466B1E621E39463046FFF7DDFE0197CF
:100760000DE0009605E00898FFF7BCFE0098401CDD
:1007700000900098A042F6D30198401C0190019887
:10078000A842EED3FEBD70B504460D4616462B4674
:10079000224629462046FFF7BFFE3046FFF7A2FE5D
:1007A00070BDFFB587B000200590049007990998A7
:1007B000441A08990A98461A0798029008980190D6
:1007C000002C01DD012706E0002C01D1002702E00A
:1007D0000027FF436442002E02DD0120039008E061
:1007E000002E02D10020039003E00020C0430390BC
:1007F0006642B44201DD254600E035460020069001
:1008000020E0109A01990298FFF7BDFF05980019A2
:1008100005900498801904900598A84205DD059874
:10082000401B05900298C01902900498A84206DD6A
:100830000498401B04900399019840180190069871
:10084000401C0690691C06988842DAD30BB0F0BDB4
:10085000FFB581B005460E4617460A9C33463A4618
:10086000314628460094FFF79CFF00942A46314603
:100870002846049BFFF795FF00943A46049B1946CF
:100880002846FFF78EFF00943A4631463846049BCF
:10089000FFF787FF05B0F0BDFFB581B006460F46F4
:1008A0000024039D32E0391B701B049AFFF76BFF95
:1008B000391B7019049AFFF766FF7919301B049AE7
:1008C000FFF761FF791B301B049AFFF75CFF3919B2
:1008D0007019049AFFF757FF791B3019049AFFF734
:1008E00052FF79193019049AFFF74DFF3919701B1F
:1008F000049AFFF748FF641C204660432946694379
:10090000411803984043814200DD6D1EAC42CADDB0
:1009100005B0F0BDFFB585B006460F9C0196204698
:10092000E117490F0918C91061430291052003908E
:1009300000255FE082206843F949095C0798007848
:10094000814255D182206843F54940184178079883
:10095000407881424CD106980019431E3019421E3E
:1009600030460699FFF7D8FD002004903CE00027B0
:1009700033E01098002813D182206843E8494018DA
:10098000801C0499405C0121B9400840002803D034
:100990000898FFF7A7FD1EE00E98FFF7A3FD1AE0E9
:1009A00082206843DE494018801C0499405C012184
:1009B000B9400840002804D03046089A0699FFF74D
:1009C000E2FE761C0198301AA04204D1019E0698DE
:1009D000401C069003E0781CC7B2082FC9DB00BF9B
:1009E0000498401CC0B20490029904988842BED377
:1009F00000BF6D1C039885429CD309B0F0BDFFB5C4
:100A000085B006460F9C01962046E117490F09184C
:100A1000C910614302910520039000255FE04A2040
:100A20006843C049095C07980078814255D14A2043
:100A30006843BC49401841780798407881424CD1BE
:100A400006980019431E3019421E30460699FFF7DA
:100A500063FD002004903CE0002733E0109800285C
:100A600013D14A206843AF494018801C0499405C68
:100A70000121B9400840002803D00898FFF732FD53
:100A80001EE00E98FFF72EFD1AE04A206843A549A4
:100A90004018801C0499405C0121B940084000289E
:100AA00004D03046089A0699FFF76DFE761C01982F
:100AB000301AA04204D1019E0698401C069003E023
:100AC000781CC7B2082FC9DB00BF0498401CC0B215
:100AD0000490029904988842BED300BF6D1C03980D
:100AE00085429CD309B0F0BDFFB585B006460F9C8A
:100AF00001962046E117490F0918C9106143029178
:100B00000520039000255FE0222068438649095CA8
:100B100007980078814255D12220684382494018C5
:100B200041780798407881424CD106980019431EBD
:100B30003019421E30460699FFF7EEFC0020049063
:100B40003CE0002733E01098002813D122206843AE
:100B500075494018801C0499405C0121B940084047
:100B6000002803D00898FFF7BDFC1EE00E98FFF7A1
:100B7000B9FC1AE0222068436B494018801C049994
:100B8000405C0121B9400840002804D03046089A52
:100B90000699FFF7F8FD761C0198301AA04204D19F
:100BA000019E0698401C069003E0781CC7B2082FEF
:100BB000C9DB00BF0498401CC0B20490029904989D
:100BC0008842BED300BF6D1C039885429CD309B0F8
:100BD000F0BDFFB583B015460E9F0C9E0D9C29E01D
:100BE000102C09D10297009601942A46069B04997D
:100BF0000398FFF779FF19E0182C09D102970096A6
:100C000001942A46069B04990398FFF7F8FE0DE02D
:100C1000202C09D10297009601942A46069B04993C
:100C20000398FFF777FE01E007B0F0BDAD1C039815
:100C30000019039028780028D2D100BFF4E7FFB54F
:100C400085B0054617460F9C00952046E10F091810
:100C5000C9050E0E3046F117490F0918C910614336
:100C6000019138462038C7B206980019431EA819CA
:100C7000421E28460699FFF74FFC0020029049E0EB
:100C8000102C06D13801294941180298085C0490BB
:100C90000AE0202C06D1B801254941180298085CC9
:100CA000049001E009B0F0BD002003902BE0109803
:100CB00000280ED10120039988400499084000289B
:100CC00003D00898FFF70EFC19E00E98FFF70AFC16
:100CD00015E001200399884004990840002804D0B9
:100CE0002846089A0699FFF74EFD6D1C0098281AB1
:100CF000B04204D1009D0698401C069006E003987F
:100D0000401CC0B2039003980828D0DB00BF0298B3
:100D1000401C0290019902988842B1D300BFC1E7FC
:100D2000924900082048000876470008C6290008B4
:100D3000B62F0008FFB583B0064614460C9F0D9DE4
:100D40000FE00E9800970195029022783046069B9E
:100D50000499FFF774FF2846E90F091849108E1906
:100D6000641C20780028ECD107B0F0BD10B5024615
:100D7000012002E00346534318460B464C1EE1B2E5
:100D8000002BF7D110BDFFB587B01E46129D002085
:100D900006902846E90F0918C905090E0591002497
:100DA0003CE0301B401EC1B20A20FFF7DFFF0146C6
:100DB0000390099800F070FD0A21049000F06CFD8A
:100DC0000F460698002815D1701EA04212DD002F94
:100DD0000ED11198019502910090059860430799F2
:100DE000401804902022109B0899FFF728FF13E079
:100DF000012006900021119801950291009038463B
:100E00003030C2B205986043079940180490109B97
:100E10000899FFF714FF00BF601CC4B2B442C0DBE6
:100E20000BB0F0BDFFB587B007461C46129E30469A
:100E3000F10F0918C905090E05913A49099800F002
:100E400041FD039000F02EFE0490002537E0601B6A
:100E5000401EC1B20A20FFF789FF014602900498A4
:100E600000F01AFD0A21039000F016FD0691A01E65
:100E7000A84212D100211198019602910090A01E63
:100E800005994843C01903902E22109B0899FFF73B
:100E9000D6FE681CC5B2601CC4B200211198019630
:100EA0000291009006983030C2B205986843C0198C
:100EB0000390109B0899FFF7C2FE681CC5B2A542BB
:100EC000C5DB0BB0F0BDFFB583B0074614461D4629
:100ED000002604984019431E3819421E38460499CA
:100EE000FFF71AFB0020029017E0002001900EE0AF
:100EF00072000C99885CFFF7EFFA7100491C0C9A9C
:100F0000505CFFF7E9FA761C0198401C01900198AB
:100F1000A842EDD30298401C02900298A042E4D36C
:100F200007B0F0BD0000C84210B50420C04300F077
:100F30009CFC2D492D48006800F0AEFC40B22C49C5
:100F40000870002008567D21C900484300B2294995
:100F5000088010BD0146264A0023D3560A465A434C
:100F6000254B5A6100229A611A46126901231A43DD
:100F7000214B1A6100BF204A1069C207D20F002A14
:100F800004D0012212040240002AF4D01A4A126945
:100F900052085200184B1A6100229A6170470146AC
:100FA000144A0023D35E0A465A43134B5A61002267
:100FB0009A611A46126901231A430F4B1A6100BF46
:100FC0000D4A1069C207D20F002A04D00122120470
:100FD0000240002AF4D0084A126952085200064B17
:100FE0001A6100229A61704700127A000000002006
:100FF000140000201600002000E000E010B50446B8
:101000000920C006844209D10121480400F095FB63
:1010100000210120400400F090FB30E06E48844243
:1010200008D10121000200F088FB0021200200F01D
:1010300084FB24E06948844208D10121000200F0C9
:101040007CFB0021200200F078FB18E06448844219
:1010500009D10121080500F070FB002101200005E5
:1010600000F06BFB0BE05F48844208D1012188054A
:1010700000F063FB00210120800500F05EFB10BD45
:10108000F0B50A4600210023002400BF3DE0012501
:101090008D402B4615681D402C469C4234D1157955
:1010A000012D02D01579022D16D185684F00032637
:1010B000BE40B543856055794E00B54086683543DE
:1010C0008560858801268E40B54385808588967920
:1010D0008E40B6B23543858005684F000326BE407A
:1010E000B543056015794E00B54006683543056087
:1010F000C5684F000326BE40B543C560D5794E0094
:10110000B540C6683543C560491C1029BFD3F0BD42
:101110003549016000210171022141710021817175
:10112000C171704708B5012212040092009A0A4367
:101130000092009AC261C161009AC261C2690092C4
:10114000C269009208BD02460020138A0B40002BA2
:1011500001D0012000E0002070470146088A704756
:1011600002460020938A0B40002B01D0012000E0B2
:10117000002070470146888A704781617047018569
:101180007047002A01D0816100E0018570478182AB
:101190007047F0B5002300244D07EE0E1546B5400C
:1011A0002B46CD10AE0005462035AD594E07F70E43
:1011B0000F26BE40B543CE10B60007462037BD51BE
:1011C000CD10AE003D46AD591D432C46CD10AD00AF
:1011D0003E467451F0BD000000040048000800487D
:1011E000000C004800140048FFFF0000FD480068A4
:1011F00001210843FB49086008464068FA49084055
:10120000F849486008460068F8490840F549086010
:1012100008460068012189048843F24908600846AD
:1012200040683F2109048843EE4948600846C06A87
:1012300000090001C8620846006BFF215431884351
:10124000E84908630846406B4008400048630020B6
:10125000886070470021E34A91701146887070479A
:1012600010B502460021002300205111002902D1AF
:10127000DC4C23680BE0012902D1DA4C236A06E03A
:10128000022902D1D74C636A01E0D64C636BD106C8
:10129000C90E01248C401C40002C01D0012000E02C
:1012A000002010BD38B5002000900024002500BFAC
:1012B0001120FFF7D5FF05460098401C009005213E
:1012C00009020098884201D0002DF1D01120FFF7CB
:1012D000C7FF002801D0012400E00024204638BDCB
:1012E00001460020BF4A1068F82302469A43104680
:1012F000CA001043BB4A10607047002806D0B949A5
:10130000096801221143B74A116005E0B54909682F
:1013100049084900B34A1160704701460020B14AAC
:10132000506BF82302469A431046CA001043AD4A58
:1013300050637047002806D0AA49496B0122114327
:10134000A84A516305E0A749496B49084900A54AE5
:1013500051637047002806D0A249496B042291438B
:10136000A04A516305E09F49496B042211439D4AFD
:10137000516370479B49096A49084900994A1162BB
:101380001146096A04229143964A11621146096A7C
:101390000143116270479349096A18229143914AA7
:1013A00011621146096A014311627047002806D094
:1013B0008C49496A012211438A4A516205E08949F0
:1013C000496A49084900874A51627047854A52680C
:1013D0003D231B049A43834B5A601A4652680346C6
:1013E0000B431A437F4B5A607047002807D07D4952
:1013F00009680122120611437A4A116006E0794910
:101400000968012212069143764A1160704701462D
:101410000020744AD06A0009000102460A431046BF
:10142000704AD0627047002807D06E4909680122CF
:10143000D20411436B4A116006E06A49096801222F
:10144000D2049143674A116070476649C87170477A
:1014500001460020634A50688008800002460A4323
:101460001046604A506070475E4840680C21084052
:101470007047014600205B4A5068F02302469A43B9
:10148000104602460A431046564A506070470146CD
:101490000020544A506807231B0202469A43104614
:1014A00002460A4310464F4A506070474D4949680A
:1014B0000122920391434B4A51601146496882B21E
:1014C0001143484A51601146096B92159143454AB0
:1014D00011631146096B020C1143424A11637047B4
:1014E0004049096B402291433E4A11631146096B02
:1014F0000143116370473B49096B10229143394AFC
:1015000011631146096B0143116370473549096B3B
:1015100089088900334A11631146096B014311633D
:101520007047FEB50446002500260020019000907B
:1015300000272C4840680C2108400546002D04D0A7
:10154000042D05D0082D28D105E02948206027E08A
:101550002748206024E0234840680F218904084080
:101560000646204840680121090408400190B00C5B
:10157000861C0198002803D11E48704320600BE0B0
:101580001848C06A0007000F401C009018480099D6
:1015900000F082F97043206002E01548206000BF2F
:1015A00000BF10484068F021084005462D09124848
:1015B000475D2068F84060600A48406807210902DA
:1015C000084005462D0A0C48475D6068F840A06059
:1015D0000448006BFF2101310840884210D00748C1
:1015E000E0601BE0001002400CB8FFF8FFFFF6FEC1
:1015F00000127A0000093D0018000020809FD500ED
:1016000075484068012189030840884203D0A068DA
:101610004008E06002E0A0688008E0606E48006B6F
:1016200040210840402802D06C48206102E001209F
:10163000C00320616848006B10210840102802D0C8
:101640006748606101E0206860616348006B800763
:10165000800F002802D1A068A06119E05E48006BED
:101660008007800F012802D12068A06110E05A484D
:10167000006B8007800F022802D18003A06107E081
:101680005548006B8007800F032801D15448A061A2
:10169000FEBD5149096A01434F4A11627047002853
:1016A00007D04D49096A0122D20311434A4A116207
:1016B00006E04949096A0122D2039143464A116270
:1016C0007047002807D04449096A012212041143D7
:1016D000414A116206E04049096A0122120491431D
:1016E0003D4A11627047002905D03B4A52690243C6
:1016F000394B5A6104E0384A52698243364B5A6189
:101700007047002905D0344A92690243324B9A61EE
:1017100004E0314A926982432F4B9A617047002955
:1017200005D02D4AD26902432B4BDA6104E02A4AE4
:10173000D2698243284BDA617047002905D0264AD6
:10174000926A0243244B9A6204E0234A926A8243DB
:10175000214B9A627047002905D01F4AD268024384
:101760001D4BDA6004E01C4AD26882431A4BDA60EF
:101770007047002905D0184A12690243164B1A61B6
:1017800004E0154A12698243134B1A61704700291D
:1017900005D0114A527A02430F4B5A7204E00E4AA6
:1017A000527A82430C4B5A7270470B48406A0121AF
:1017B0000906084308494862704701460020064A66
:1017C00092680A40002A01D0012000E00020704702
:1017D000014988727047000000100240128000002A
:1017E00000127A0000218278002A27D0274A03239A
:1017F0001B02D21803789B109B00D15802789207E5
:10180000D30EFF229A400B46934319464278920723
:10181000120E03789B07DB0E9A4011431B4A0323E9
:101820001B02D21803789B109B00D1500278D3067C
:10183000DB0E01229A40154B1A6007E00278D306AE
:10184000DB0E01229A40114B80331A607047002949
:1018500005D00F4A126902430D4B1A6104E00C4A8D
:10186000126982430A4B1A617047042806D109495C
:10187000096904221143074A116105E00549096914
:1018800004229143034A11617047000000E100E027
:1018900000ED00E000E000E030B50B46014600201E
:1018A0002022012409E00D46D5409D4205D31D4666
:1018B0009540491B2546954040191546521E002D5E
:1018C000F1DC30BD024670B54A40D30FDB07400063
:1018D0002DD04A002AD0010E140E0002120209195E
:1018E000400A520A8418E50104465443000A120AC9
:1018F0002E045043A4194219200CC543AA18120CF7
:101900000125AD03521C521912047F39240400D062
:10191000521C104301D44000491EC2B20C06C0093B
:101920002018401C4008802A02D003E0002070BD2F
:1019300040084000002900DA0020184370BD000074
:10194000F0B507460846584087B0C00F04904800DD
:101950000E46590040084908BC1A884105D238464D
:1019600031461E4617460B460246580040081043B3
:101970004CD0300D039040055900400D490D0590A5
:10198000401A0290402872DA18030121000B090561
:101990000843019004980092002805D00199524212
:1019A0000020884100920190029840210A1A019972
:1019B000009800F0BBF805460C466B4607CB00F0DC
:1019C000C5F8C0197141039A0E0D0023D717564070
:1019D0001A467A40164344D0049A002A2DD0029A1F
:1019E000012A039A15DC1205C01A91410126360519
:1019F000001C7141D20F059ED207009301920296FE
:101A00002A46234600F003F907B0F0BD38463146B8
:101A1000FAE71605224A0F46B218C01AB74101214B
:101A20000905001C4F4100187F41114618187941E3
:101A3000E20F10436D19644113E0E2076D0815438E
:101A40006408C2071443039A01261205C01A914183
:101A50003605001C7141CE07400830434908C018C4
:101A600051412A46234600F0C5F8CDE7FFE7049828
:101A700001224000C117121A00238B4104983146FD
:101A8000C417381AA141EEE730B40124E4076340DB
:101A900030BC55E730B40124E407614030BC4FE767
:101AA0000000E0FF410040020122400AD205090E79
:101AB00080187F2901DA00207047962903DC9622DE
:101AC000511AC8407047963988407047C20FD207F4
:101AD000400040080BD0C10D0723DB01C9184002AC
:101AE0000905400A1143C20840071143704700200E
:101AF00001467047CB0FDB07490010B54908024685
:101B00000A4307D00A0D07240903E401090B121B3D
:101B1000002A01DC002010BDC900440F0C43C100A5
:101B2000E018D205801800F024F810BD10B5202A66
:101B300004DB0146203A9140002010BD9140202353
:101B40009C1A0346E3401943904010BD10B5202A6B
:101B500006DBCB170846203A1041C1170B4306E0BD
:101B60000B461341D0402024A21A91400843194645
:101B700010BD002904DA401C490001D14008400092
:101B8000704770B40024050C05D11024000402D164
:101B9000002921D01124050E01D100020834050FBF
:101BA00001D10001241D850F01D18000A41C002853
:101BB00001DB4000641C002908D020252E1B0D46A7
:101BC000F540A14000D001212943084301061B1B19
:101BD000000ADB1D02D5002070BC7047DB05181819
:101BE00080180029F8DA401C4900F5D170BC400883
:101BF0004000704710B5002B08DA0024401C6141FA
:101C000092185B411A4301D14008400010BDF0B565
:101C10001FB482B005460C0003D0084600F06DF8F2
:101C200002E000F06AF82030024600902146284683
:101C3000FFF77CFF049B059A04460F4618431143A7
:101C4000084314D0184610431BD0009840210A1AAC
:101C50001846059900F040F805460E46009A059989
:101C60000498FFF763FF084305D0012004E02046F5
:101C7000394607B0F0BD0020C11705430E432C4381
:101C8000374300990E986305401A7905E40A00224B
:101C90000C43FD0A0A3002D500200146E9E70105A0
:101CA000101969410C9C0D9D00196941FFF7A2FFB5
:101CB000DFE70000064C0125064E05E0E36807CC8F
:101CC0002B430C3C98471034B442F7D3FEF7FCF991
:101CD0001C4C00083C4C000810B5202A04DB0846C8
:101CE000203AD040002110BD0B46D340D0402024E4
:101CF000A21A91400843194610BD2021020C01D0C0
:101D000010211046020A01D010460839020901D0FC
:101D10001046091F820801D01046891E420801D0D2
:101D2000881E7047081A704702E008C8121F08C1D1
:101D3000002AFAD170477047002001E001C1121F4C
:101D4000002AFBD17047FFFFFFFFFFFFFFFFFFFFF0
:101D5000FFFFFFFFFFFFFFFFFFFFFFFFFFFFFFFF93
:101D6000FFFFFFFFF7BEFFFFFFDEC6388C926B8ED2
:101D70006B6E7C10AD96E73CFFFFFFFFFFFFFFFFA0
:101D8000FFFFFFFFFFFFFFFFFFFFFFFFFFFFFFFF63
:101D9000FFFFFFFFFFFFFFFFFFFFFFFFFFFFFFFF53
:101DA000FFFFFFFFFFFFFFFFFFFFFFFFFFFFFFFF43
:101DB000FFFFFFFFEF5D9D15634F426C320A2988DC
:101DC00019461925214531E86B8EC638FFFFFFFF04
:101DD000FFFFFFFFFFFFFFFFFFFFFFFFFFFFFFFF13
:101DE000FFFFFFFFFFFFFFFFFFFFFFFFFFFFFFFF03
:101DF000FFFFFFFFFFFFFFFFFFFFFFFFFFFFFFFFF3
:101E0000FFFFA53653104B1053514B0F3A6C31E97D
:101E10002167192510E408A30062088352CBD69AE3
:101E2000FFFFFFFFFFFFFFFFFFFFFFFFFFFFFFFFC2
:101E3000FFFFFFFFFFFFFFFFFFFFFFFFFFFFFFFFB2
:101E4000FFFFFFFFFFFFFFFFFFFFFFFFFFFFE73C7D
:101E5000637063B37CB863F54311324D29EA21887E
:101E60001926190519051104110410E4008308A3AB
:101E70008C72FFFFFFFFFFFFFFFFFFFFFFFFFFFF72
:101E8000FFFFFFFFFFFFFFFFFFFFFFFFFFFFFFFF62
:101E9000FFFFFFFFFFFFFFFFFFFFFFFFDEDB3A4B10
:101EA00042F06C354B5432B12A2E21EB21A919672F
:101EB000190511041104110411041104190510E489
:101EC000004273AFFFFFFFFFFFFFFFFFFFFFFFFFBA
:101ED000FFFFFFFFFFFFFFFFFFFFFFFFFFFFFFFF12
:101EE000FFFFFFFFFFFFFFFFFFFFEF5D3209324CF7
:101EF0004B10328F2A4F2A2E19CC19892189194764
:101F000019051104110410C410C4110411041104A2
:101F100010E400428431FFFFFFFFFFFFFFFFFFFFE0
:101F2000FFFFFFFFFFFFFFFFFFFFFFFFFFFFFFFFC1
:101F3000FFFFFFFFFFFFFFFFFFFF52EC1947324C8F
:101F40002A0B21EC21EC220C5B914AEE110619269A
:101F5000190410E410E429A7216608A31905110447
:101F6000110410E40082BDF7FFFFFFFFFFFFFFFF3A
:101F7000FFFFFFFFFFFFFFFFFFFFFFFFFFFFFFFF71
:101F8000FFFFFFFFFFFFFFFFA535088321882188A2
:101F9000218921AA218A426B8C71FFFF8C720883F0
:101FA000110408C44229DEFBEF5D5AEC08831104DA
:101FB00011041104088331E8FFDFFFFFFFFFFFFF7B
:101FC000FFFFFFFFFFFFFFFFFFFFFFFFFFFFFFFF21
:101FD000FFFFFFFFFFFFF7BE31C710C41925192609
:101FE0001947194729A8528A4A28AD55FFFF31E8F9
:101FF00008A319056B4D6B4DFFFFEF7D214510C404
:102000001104110411040062AD76FFFFFFFFFFFF12
:10201000FFFFFFFFFFFFFFFFFFFFFFFFFFFFFFFFD0
:10202000FFFFFFFFFFFFB5960062110419041105C1
:10203000190508C44A8BB5B6EF5DBDF7FFFF6B8E7F
:10204000006242295AAA4208FFFFFFFF52CC0883D0
:1020500011041104110408A352ADFFFFFFFFFFFF9D
:10206000FFFFFFFFFFFFFFFFFFFFFFFFE71CFFFF7B
:10207000FFFFFFFFFFFF634E006211041104110414
:1020800010E40062638EFFFFFFFFFFFFFFFF73CFCF
:1020900000019CF3632CB596FFFFFFFF5B2D0083CF
:1020A00011041104110410E42167EF3DFFFFFFFF4D
:1020B000FFFFFFFFFFFFBDF8B5B7EF9E52CB94B314
:1020C000FFFFFFFFFFDF31E808A311041104110433
:1020D000110408A34249F7FFF7FFFFFFFFFF4A6A19
:1020E00000018472FFFFFFFFF7FFEFDF3A0908A34B
:1020F00011041104110411041105BE18FFFFFFFFA4
:10210000FFFFFFFFFFFF7BF0006231E831C70041B6
:10211000A535FFFFEF5D214610C411041104110421
:10212000110410E408A39D76F7FFFFFFADB708A3E5
:1021300008A331C7E79EF7FFF7FFA57608A310E4D1
:1021400011041104110411051105A535FFFFFFFF4E
:10215000FFFFFFFFFFFFDEDB29A7008310C410C4D1
:1021600010C4E71CEF9E110510E4110411041104C2
:102170001104190408C410E56BD16BD108C50064C3
:1021800008A50043322B9D7784B3192510C4110490
:10219000110411041104192509269D35FFFFFFFFC5
:1021A000FFFFFFFFFFFFFFFF73AF00621904190578
:1021B00000825B0D9B8E106211051104110419043D
:1021C00010E40085110539C45A817B409C22AC4340
:1021D000A4039B837282498218C200A400C510E444
:1021E000190411041905194711675AECFFBEFFFFC6
:1021F000FFFFFFFFFFFFFFDFDEDB10C410E4110471
:10220000110518A4C001888300E41905190408C544
:1022100021448343D523FE42FEE4FF27FF07FEA4AB
:10222000FE64FE03FDA3FCE2EC42B383622410E5EE
:1022300008C41904192619A821879000BCD3FFFFF0
:10224000FFFFFFFFFFFFFFDFFFFF7C1000421905CC
:1022500011052883D001F84448A300E408C55A4476
:10226000ED02FDE2FE02FE66FF74FFB8FF73F6E7C3
:10227000F6A6F645F5A4FCC3FC62FCC2FCC2CBE3A7
:1022800049C411061988018790A4F8019AECFFFF50
:10229000FFFFFFFFFFFFFFFFFFFFF7BE31E80083F7
:1022A00009054082C001F823F08548A300A45A44E0
:1022B000FD02CC23DCC2FE04FE28F648F646F624D6
:1022C000F5E4FD64FCE3FC62FCC2E402DC02FCE237
:1022D0007AA40148016778C4F824F802B084E77D45
:1022E000FFFFFFFFFFFFFFFFFFFFFFFFDEDB192503
:1022F00000A338C4E002D822F844F8A678A400630A
:102300002143728339839B82F521FD61FD22FCE22A
:10231000FCA2FC42FC42FC42AB22418392C3520429
:102320000126192598A4F844F823F802D0A4EF9EBA
:10233000FFFFFFFFFFFFFFFFFFFFFFFFFFFFD69A3B
:10234000298700A5B843F822E023F865F8E8C90713
:102350004883004200A3008429637AA2B362CBA21F
:10236000D362BB028A82398300A400E500E508E558
:1023700060C4D864F844F824F823F8028883C6DBE4
:10238000FFFFFFFFFFFFFFFFFFFFFFFFFFFFFFFF5D
:10239000E73D5B503108E823F843F044F865F9095C
:1023A000F9ABD189890648A31842000200420061B6
:1023B000008200620062008320A350C488A5D885F3
:1023C000F865F844F844F823F823D003108229C7AD
:1023D000EF5DFFFFFFFFFFFFFFFFFFFFFFFFFFFFBF
:1023E000FFFFFFFF326C38A5D802F823F865F866C6
:1023F000F8A7F94AFA0CFA4DEA4CD20BB9A9B16820
:10240000A947B127B907D107E8E7F8C7F8A7F865E2
:10241000F865F844F823F803D00228A3090508C496
:102420005AECFFFFFFFFFFFFFFFFFFFFFFFFFFFF74
:10243000FFFFDEFB190500C441A7C0E6F803F886DC
:10244000F8A7F887F886F8C7F929F98AF9ABF9AB44
:10245000F98BF96AF929F908F8C7F8A6F886F8653A
:10246000F864F823F002B106292500E410E41925E8
:1024700019259D14FFFFFFFFFFFFFFFFFFFFFFFF79
:10248000FFFFAD96006208829535CEBAA28BD0448C
:10249000F825F887F8A7F8C7F8A7F887F886F88628
:1024A000F886F887F8A7F8A7F8A6F885F865F8641D
:1024B000F024B864930DB6BB63CF0883110410E415
:1024C00021663A49EF5DFFFFFFFFFFFFFFFFFFFFC0
:1024D000FFFF94D3004210E4CEBBFFFFE7BEB5760A
:1024E000AACCC107E045F845F846F866F886F886B4
:1024F000F886F886F865F845F865E865D044A8439D
:1025000088019082D73CEFFF955508831104110490
:102510001905194694B3FFFFFFFFFFFFFFFFFFFF01
:10252000FFFF94B300412186DF5DFFFFFFFFFFFF48
:10253000E7DFC67AB4D3B34EC22AD168E0E6E8A694
:10254000E8A5E8A5D8E6C988A906A822A802A0009F
:10255000C800D800E5F7E7FFADF810C410E4110497
:1025600010E411054A8BFFFFFFFFFFFFFFFFFFFF96
:10257000FFFFA555004129A7DF5DF7FFFFFFFFFF24
:10258000FFFFFFFFFFFFEFFFDF7DCEDBCE59CDF872
:10259000CDD7C5F7CE79BEFBA2ABF003F845D0424C
:1025A000E843F000D472DFFFAE3910E410E4110408
:1025B00010E411052987FFFFFFFFFFFFFFFFFFFF6B
:1025C000FFFFCE5908832146D71CF7FFFFFFFFFF0F
:1025D000FFFFFFFFFFFFFFFFFFFFFFFFFFFFFFFF0B
:1025E000FFFFFFFFFFFFEFFFBA8BF804F845E06243
:1025F000F044F800DB8EDFFFA5F810C410E410E40F
:10260000110410E41925FFFFFFFFFFFFFFFFFFFF8D
:10261000FFFFF7BE29870883B639F7FFF7DFFFFF13
:10262000FFFFFFFFFFFFFFFFFFFFFFFFFFFFFFFFBA
:10263000FFFFFFFFFFFFE7BEBA4AF803F845F86463
:10264000F844F800E36ED7FF8CF40883110410E41B
:1026500010E410E41905FFFFFFFFFFFFFFFFFFFF7E
:10266000FFFFFFFF73EF00008472EFFFEFBEFFDF9D
:10267000FFFFFFFFFFFFFFFFFFFFFFFFFFFFFFFF6A
:10268000FFFFFFFFFFFFE7DFBA8BF803F845F845D0
:10269000F823F800D4D3D7FF5B4E00213A29A55583
:1026A000088310C41925FFFFFFFFFFFFFFFFFFFF97
:1026B000FFFFFFFFDEFB08A331E8DF9EE79EEFBFD1
:1026C000FFFFFFFFFFFFFFFFFFFFFFFFFFFFFFFF1A
:1026D000FFFFFFFFFFFFF7FFBC51E002F803F0032D
:1026E000E043C2ECCF7EBEFC2146002194D3FFFF25
:1026F000845100002987FFFFFFFFFFFFFFFFFFFF5F
:10270000FFFFFFFFFFFF845100008CF4EFFFE79E07
:10271000EFBFFFDFFFFFFFFFFFFFFFFFFFFFFFFF39
:10272000FFFFFFFFFFFFFFFFDF3DBD55BC52BC7247
:10273000B5B7C75DDFFF6BF000003A09F7BFFFFFD9
:10274000FFFF9D14A555FFFFFFFFFFFFFFFFFFFFEA
:10275000FFFFFFFFFFFFFFFF4AAC08A4BEBBE7DFA0
:10276000E77EEFBEF7DFFFDFFFFFFFFFFFFFFFFFAB
:10277000FFFFFFFFFFFFFFDFF7DFEFFFDFDFD7BF69
:10278000D79EDFDFA5D808831126D6DBFFFFFFFF2A
:10279000FFFFFFFFFFFFFFFFFFFFFFFFFFFFFFFF49
:1027A000FFFFFFFFFFFFEE79DC8B312121A9CF3D39
:1027B000DFBFDF7EE79EEFBEEFBFF7DFF7DFF7DFBC
:1027C000F7DFF7DFEFBFEFBEE79EDF7ED75ED75EB6
:1027D000DFDFB69A19260842A3EDFFBFFFFFFFFF18
:1027E000FFFFFFFFFFFFFFFFFFFFFFFFFFFFFFFFF9
:1027F000FFFFFFFFDD74DBC0FE00EE4242022189D5
:10280000B67BDFDFD77EDF7EDF7EE79EE79EE79E3B
:10281000E79EE79EDF7EDF7ED75DD75DDF9EE7FF29
:10282000A5F8110718E3C502FD60D3E6EEDBFFFF54
:10283000FFFFFFFFFFFFFFFFFFFFFFFFFFFFFFFFA8
:10284000FFFFF79EBA84FCC1FE42FE82FEA2838196
:1028500021457474C75EDFDFD77ED75ED75DD75E54
:10286000D75ED75DD75DD75EDF9EE7FFC73D63F1DB
:1028700008845242E626FF29FE86F3E0C36AFFFF82
:10288000FFFFFFFFFFFFFFFFFFFFFFFFFFFFFFFF58
:10289000FFFFDE18D2C1FDA2FE22FE42FE42FE6212
:1028A000D4E26A4142497453A63BC73ED7BFD7BF63
:1028B000D7BFDFBFD7BFC73EA61A63F229A74182A1
:1028C000B422FE62FE83FEAAFF0FFD67BA63EF3CEF
:1028D000FFFFFFFFFFFFFFFFFFFFFFFFFFFFFFFF08
:1028E000FFFFE69AD280FD21FDC2F5E2F5C2F58236
:1028F000FD82FD62DC619B216A846AE9632C63AF1F
:102900007411636E632C5A8952047A81CBC2FCE243
:10291000FD62FD82FDC2FDC2FDE4FD24CA62E71C2A
:10292000FFFFFFFFFFFFFFFFFFFFFFFFFFFFFFFFB7
:10293000FFFFFFFFCCB1D281F3C0FCC1FD02FD025D
:10294000FCE2FCC2FCC2FC81FB80C9C081A4AD35A5
:10295000CE599C718121DA00FBA1FC82FCA2FC8291
:10296000FCA2FD02FD22FCE2FC00DA60CC90FFFF3D
:10297000FFFFFFFFFFFFFFFFFFFFFFFFFFFFFFFF67
:10298000FFFFFFFFFFFFDE59C40DCB06D2E4DB03E0
:10299000DB03DAE3D2C3C2A4B309BCD2F79EFFFFC4
:1029A000FFFFFFFFE6FBB40EBAA6D283E2E3EB0221
:1029B000EB22E322DB03D2E4C36AD5B6FFFFFFFFBD
:1029C000FFFFFFFFFFFF000000000000000000000D
:1029D00000000000000000000008080808080808BF
:1029E00000001818000000486C24120000000000CD
:1029F0000000000000000000002424247F121212B6
:102A00007F12121200000000081C2A2A0A0C182843
:102A1000282A2A1C080800000022251515152A5806
:102A20005454542200000000000C1212120A7625A1
:102A30002911916E0000000606040300000000004A
:102A400000000000000000402010100808080808DE
:102A50000810102040000002040808101010101088
:102A60001008080402000000000008086B1C1C6B22
:102A700008080000000000000000080808087F089F
:102A8000080808000000000000000000000000002E
:102A90000000060604030000000000000000FE0025
:102AA0000000000000000000000000000000000026
:102AB00000000606000000008040402020101008A2
:102AC000080404020200000000182442424242426C
:102AD000424224180000000000080E0808080808F8
:102AE0000808083E00000000003C4242422020103E
:102AF0000804427E00000000003C424220182040B2
:102B00004042221C00000000002030282424222201
:102B10007E20207800000000007E0202021A26407B
:102B20004042221C0000000000382402021A264203
:102B30004242241800000000007E222210100808E3
:102B40000808080800000000003C42424224182403
:102B50004242423C000000000018244242426458B5
:102B60004040241C00000000000000001818000075
:102B7000000018180000000000000000000800001D
:102B800000000008080400000040201008040204AF
:102B90000810204000000000000000007F0000003E
:102BA0007F00000000000000000204081020402008
:102BB0001008040200000000003C42424640201081
:102BC0001000181800000000001C225A55555555D9
:102BD0002D42221C00000000000808181414243C98
:102BE000224242E700000000001F2222221E224251
:102BF0004242221F00000000007C4242010101010C
:102C00000142221C00000000001F224242424242B8
:102C10004242221F00000000003F4212121E121208
:102C20000242423F00000000003F4212121E1212F8
:102C30000202020700000000003C22220101017193
:102C40002122221C0000000000E7424242427E4254
:102C5000424242E700000000003E08080808080859
:102C60000808083E00000000007C10101010101032
:102C700010101010110F0000007722120A0E0A1215
:102C80001222227700000000000702020202020264
:102C90000202427F000000000077363636362A2ACC
:102CA0002A2A2A6B0000000000E346464A4A525294
:102CB0005262624700000000001C22414141414134
:102CC0004141221C00000000003F424242423E02BD
:102CD0000202020700000000001C22414141414164
:102CE0004D53321C60000000003F4242423E12122F
:102CF000222242C700000000007C42420204182049
:102D00004042423E00000000007F490808080808D1
:102D10000808081C0000000000E74242424242420C
:102D20004242423C0000000000E7424222242414B8
:102D30001418080800000000006B4949494955551E
:102D4000362222220000000000E74224241818182E
:102D5000242442E70000000000772222141408080F
:102D60000808081C00000000007E21201010080444
:102D70000442423F000000780808080808080808D4
:102D80000808080878000000020204040808081077
:102D9000102020204040001E1010101010101010A5
:102DA000101010101E000038440000000000000049
:102DB0000000000000000000000000000000000013
:102DC0000000000000FF00060800000000000000F6
:102DD000000000000000000000000000003C4278FD
:102DE000444242FC0000000000030202021A264294
:102DF0004242261A00000000000000000038440291
:102E00000202443800000000006040404078444224
:102E1000424264D80000000000000000003C427EF6
:102E20000202423C0000000000F08808087E08080A
:102E30000808083E0000000000000000007C22227C
:102E40001C023C42423C000000030202023A46429D
:102E5000424242E700000000000C0C00000E08088F
:102E60000808083E00000000003030000038202034
:102E700020202020221E0000000302020272120AFB
:102E80001612227700000000000E08080808080843
:102E90000808083E0000000000000000007F929239
:102EA000929292B70000000000000000003B4642F2
:102EB000424242E70000000000000000003C4242A5
:102EC0004242423C0000000000000000001B26427D
:102ED0004242221E02070000000000000078444227
:102EE0004242447840E000000000000000774C04BB
:102EF0000404041F0000000000000000007C4202E7
:102F00003C40423E0000000000000008083E080867
:102F10000808083000000000000000000063424282
:102F2000424262DC000000000000000000E7422492
:102F300024140808000000000000000000EB4949CC
:102F400055552222000000000000000000762418E1
:102F50001818246E000000000000000000E7422462
:102F6000241418080807000000000000007E22104A
:102F70000808447E000000C02020202020102020CF
:102F800020202020C0001010101010101010101061
:102F90001010101010100006080808080810080883
:102FA0000808080806000C32C200000000000000FB
:102FB0000000000000000000000000000000000011
:102FC0000000000000000000000000000000000001
:102FD00000000000000000000000000000000000F1
:102FE00000000000000000000000000000000000E1
:102FF00000000000000000000000000000000000D1
:10300000C001C001C001C001C001C001C0018000F9
:1030100080008000800080008000800000000000B0
:10302000000000008001C003C00380010000000018
:10303000000000000000000000000000E01CE01C98
:10304000F01E700E3807180308018400000000000D
:103050000000000000000000000000000000000070
:103060000000000000000000000000000000000060
:103070000000000000000000000000000000000050
:10308000000020102010201020102010FE7FFE7F56
:103090001008100810081008100810081008FE7F0B
:1030A000FE7F080408040804080408040000000067
:1030B000000000000000000000000000000000010F
:1030C0000001C0076019103118311839183938015A
:1030D0007001E001C0038007000F001D00390031BE
:1030E0001C311C310C310C11180DE00700010001DE
:1030F00000010000000000000000000000000000CF
:1031000000001C1036186308630C63046304630238
:1031100063026301361D9C378022806340634063F5
:1031200020632063306310221836081C0000000062
:10313000000000000000000000000000000000008F
:103140000000F00098018C018C018C018C018C0036
:10315000CC007800183E1C0836083208630463046B
:10316000C304C303834306438E26781C000000007B
:103170000000000000000000000000001C003C00F7
:103180003C003000300010000C0006000000000081
:10319000000000000000000000000000000000002F
:1031A000000000000000000000000000000000001F
:1031B00000000000000000000000000000400020AF
:1031C00000100008000C00040006000300030003C8
:1031D00080018001800180018001800180018001E7
:1031E00000030003000300060006000C00080010A6
:1031F0000020004000000000000000000200040069
:1032000008001000300020006000C000C000C000B6
:1032100080018001800180018001800180018001A6
:10322000C000C000C0006000600030001000080056
:103230000400020000000000000000000000000088
:1032400000000000000000018003800300011C71E9
:103250003C79783DC0070001C007783D3C791C717E
:1032600000018003800380010000000000000000D6
:10327000000000000000000000000000000000004E
:10328000000000000000000000010001000100013A
:10329000000100010001FC7F0001000100010001AC
:1032A000000100010001000000000000000000001B
:1032B000000000000000000000000000000000000E
:1032C00000000000000000000000000000000000FE
:1032D00000000000000000000000000000000000EE
:1032E0000000000000001C003C003C0030003000EA
:1032F00010000C00060000000000000000000000AC
:1033000000000000000000000000000000000000BD
:10331000000000000000FE7F000000000000000030
:10332000000000000000000000000000000000009D
:10333000000000000000000000000000000000008D
:10334000000000000000000000000000000000007D
:10335000000000000000000000000000000000006D
:103360000000000018003C003C00180000000000B5
:1033700000000000000000000000000000400060AD
:1033800000200030001000180008000C00040006A7
:1033900000020003000180018000C00040006000C6
:1033A000200030001000180008000C000400060087
:1033B000020000000000000000000000000000000B
:1033C0000000C007600C30181830183018200C604E
:1033D0000C600C600C600C600C600C600C600C608D
:1033E0001820183018303018600CC007000000009A
:1033F00000000000000000000000000000000000CD
:10340000000000018001F80180018001800180013D
:1034100080018001800180018001800180018001A4
:103420008001800180018001C003F81F00000000BE
:10343000000000000000000000000000000000008C
:103440000000E007101C0818043004300C300C3069
:103450000030001800080004000200018000400055
:103460002020102008200430FC1FFC1F000000005A
:10347000000000000000000000000000000000004C
:103480000000E003180E0C0C0C180C180C18001897
:10349000000C0006C003000E0018001000300030C1
:1034A0000C300C300C100C18180CE003000000005D
:1034B000000000000000000000000000000000000C
:1034C0000000000C000E000E000F800E800E400E5B
:1034D000600E200E100E100E080E040E040EFE7F5D
:1034E000000E000E000E000E000E000EC07F000049
:1034F00000000000000000000000000000000000CC
:103500000000F03FF03F100010001000080008001D
:10351000C807280C181808100030003000300030A0
:103520000C300C3004180418080CF00300000000E4
:10353000000000000000000000000000000000008B
:103540000000800FC0102030103018001800080054
:103550000C008C0F6C183C301C600C600C600C6014
:103560000C601860182030306018C00700000000A0
:10357000000000000000000000000000000000004B
:103580000000F83FF83F1C100C0804080404000475
:1035900000020002000100010001800080008000A4
:1035A000C000C000C000C000C000C000000000009B
:1035B000000000000000000000000000000000000B
:1035C0000000E007300C18180C300C300C301C30A8
:1035D00038187008E007B007180E0C1C06380630C3
:1035E0000630063006300C18180CE003000000000E
:1035F00000000000000000000000000000000000CB
:103600000000E00318040C080C1806100630063001
:103610000630063006380C3C1836F0310030001801
:10362000001800180C0C0C060C03F0010000000040
:10363000000000000000000000000000000000008A
:10364000000000000000000000000000000000007A
:103650008001C003C00380010000000000000000E2
:10366000000000008001C003C003800100000000D2
:10367000000000000000000000000000000000004A
:10368000000000000000000000000000000000003A
:10369000C000C000000000000000000000000000AA
:1036A0000000000000000000C000C000800080009A
:1036B000400040000000000000000000000000008A
:1036C0000020001000080004000600038001C00074
:1036D0006000300018000C00180030006000C000CE
:1036E0008001000300060004000800100020000014
:1036F00000000000000000000000000000000000CA
:1037000000000000000000000000000000000000B9
:10371000FE7F00000000000000000000FE7F0000AF
:103720000000000000000000000000000000000099
:103730000000000000000000000000000000000089
:1037400004000800100020006000C0008001000399
:103750000006000C001800300018000C00060003E2
:103760008001C0006000200010000800040000007C
:103770000000000000000000000000000000000049
:10378000C0073018083008600C601C601C601C60AA
:103790000030001C000600018000800080008000D6
:1037A000000000008001C003C00380010000000091
:1037B0000000000000000000000000000000000009
:1037C0000000C0076018103018200C2F8C4D864C5C
:1037D000C64CC64C664C664466446626662666152C
:1037E000CC1C0C40082018303018C0070000000026
:1037F00000000000000000000000000000000000C9
:103800000001C001C001C00140016003200320038A
:1038100020033006100610061006F80F080C080CDE
:10382000080C0C0C0418041806181F7C000000007B
:103830000000000000000000000000000000000088
:103840000000FE07181C18381830183018301830CF
:103850001818180CF8071818183018201860186075
:1038600018601860186018301818FE0F000000006B
:103870000000000000000000000000000000000048
:103880000000C0276038103018200C400C400400A5
:1038900006000600060006000600060006000600F8
:1038A0000C400C400C2018303018C00700000000FD
:1038B0000000000000000000000000000000000008
:1038C0000000FE03180E1818183018301830186051
:1038D0001860186018601860186018601860186028
:1038E0001830183018101818180EFE0300000000C9
:1038F00000000000000000000000000000000000C8
:103900000000FE3F183018201860184018001808F2
:103910001808180CF80F180C1808180818001800C8
:1039200018001840184018201830FE3F0000000012
:103930000000000000000000000000000000000087
:103940000000FE7F1870184018C01880180018106A
:1039500018101818F81F1818181018101800180048
:10396000180018001800180018007E000000000061
:103970000000000000000000000000000000000047
:103980000000C013701C101018100C200C20040034
:103990000600060006000600060006FC063006309B
:1039A0000C300C30183018303008C0070000000010
:1039B0000000000000000000000000000000000007
:1039C00000003F7E0C180C180C180C180C180C1862
:1039D0000C180C180C18FC1F0C180C180C180C18D0
:1039E0000C180C180C180C180C183F7E0000000066
:1039F00000000000000000000000000000000000C7
:103A00000000F81F80018001800180018001800199
:103A1000800180018001800180018001800180019E
:103A200080018001800180018001F81F00000000FA
:103A30000000000000000000000000000000000086
:103A40000000E07F000600060006000600060006F3
:103A50000006000600060006000600060006000636
:103A600000060006000600060006000600060E0618
:103A70000E038E01FC0000000000000000000000AA
:103A800000007E7C1818180818041806180218017F
:103A900098019801D801B803380318071806180EC2
:103AA000180C181C1818183018307EFC0000000084
:103AB0000000000000000000000000000000000006
:103AC00000007E00180018001800180018001800E8
:103AD0001800180018001800180018001800180026
:103AE00018001840184018201830FE3F0000000051
:103AF00000000000000000000000000000000000C6
:103B000000001FF81C381C381C381C3C343434347A
:103B10003434343674326432643264326431C431E1
:103B2000C431C431C430C43084309FFC0000000074
:103B30000000000000000000000000000000000085
:103B400000001F7C1C103C103410341074106410E2
:103B5000E410C410C4118411841304130417041650
:103B6000041E041C041C041C04181F180000000080
:103B70000000000000000000000000000000000045
:103B80000000C003300C181808100C300C30066010
:103B900006600660066006600660066006600660F5
:103BA0000C200C3008101818300CC0030000000066
:103BB0000000000000000000000000000000000005
:103BC0000000FE0F18181830186018601860186090
:103BD000186018301818F80F18001800180018008E
:103BE000180018001800180018007E0000000000DF
:103BF00000000000000000000000000000000000C5
:103C00000000C003300C18180C100C300C2006609B
:103C10000660066006600660066006600660066074
:103C2000E4612C331C321816300EC007004C007CA7
:103C3000003800000000000000000000000000004C
:103C40000000FE07181C18381830183018301830CB
:103C50001818180CF8079803180318071806180600
:103C6000180E180C180C181C18187E78000000008C
:103C70000000000000000000000000000000000044
:103C80000000E027303818300C200C200C000C000D
:103C900018007800E003800F001E003800700060FC
:103CA00004600460086018303818C80F0000000075
:103CB0000000000000000000000000000000000004
:103CC0000000FC3F8C21846182418241800180019F
:103CD00080018001800180018001800180018001DC
:103CE00080018001800180018001E0070000000068
:103CF00000000000000000000000000000000000C4
:103D000000003F7C0C100C100C100C100C100C1050
:103D10000C100C100C100C100C100C100C100C10C3
:103D20000C100C100C1008083804E0030000000010
:103D30000000000000000000000000000000000083
:103D400000003EF8182018201820301030103010D5
:103D50003010600860086008E00CC004C004C004B3
:103D60008003800380038003000100010000000045
:103D70000000000000000000000000000000000043
:103D80000000DFF38661862186218C210C218C23A3
:103D90008C138C138C134C1358125816580E380E63
:103DA000380E380E300C100410041004000000000F
:103DB0000000000000000000000000000000000003
:103DC00000007E3E1808380830043004700260029B
:103DD000E001C001C00180018003400340072006CC
:103DE0002006100C100C081808183E7C000000007B
:103DF00000000000000000000000000000000000C3
:103E000000007E7C1C10181018083008300C70045C
:103E100060046002C002C002C00180018001800114
:103E200080018001800180018001E0070000000026
:103E30000000000000000000000000000000000082
:103E40000000F83F18180818040C040E00060007BC
:103E5000000380038001C001C000E000600070002A
:103E60003000382018201C100C18FE1F0000000025
:103E7000000000000000000000000000C03F400003
:103E80004000400040004000400040004000400032
:103E90004000400040004000400040004000400022
:103EA0004000400040004000400040004000400012
:103EB000C03F000000000000000000000000000003
:103EC000080018001800100030002000600060009A
:103ED0004000C0008000800180010001000300025A
:103EE000000600060004000C00080018001800106E
:103EF000003000200000000000000000FC03000271
:103F000000020002000200020002000200020002A1
:103F10000002000200020002000200020002000291
:103F20000002000200020002000200020002000281
:103F3000FC03000000000000000000008007C00635
:103F40002008101000000000000000000000000029
:103F50000000000000000000000000000000000061
:103F60000000000000000000000000000000000051
:103F70000000000000000000000000000000000041
:103F80000000000000000000000000000000000031
:103F90000000000000000000000000000000000021
:103FA0000000000000000000000000000000000011
:103FB00000000000FFFF0000000000007800C000CB
:103FC00000010000000000000000000000000000F0
:103FD00000000000000000000000000000000000E1
:103FE00000000000000000000000000000000000D1
:103FF00000000000000000000000000000000000C1
:1040000000000000000000000000000000000000B0
:10401000F00318060C0C0C0C000C800F700C1C0C20
:104020000C0C060C060C064C0C4FF8380000000077
:104030000000000000000000000000000000000080
:1040400010001E00180018001800180018001800B2
:10405000180FD81838303860186018601860186069
:1040600018601860182038307818C8070000000061
:104070000000000000000000000000000000000040
:104080000000000000000000000000000000000030
:10409000C007700C181818180C180C000C000C0035
:1040A0000C000C20182018103008C0070000000079
:1040B0000000000000000000000000000000000000
:1040C0000010001E00180018001800180018001832
:1040D000E01B301C181818180C180C180C180C18A9
:1040E0000C180C180818181C307AE00900000000A1
:1040F00000000000000000000000000000000000C0
:1041000000000000000000000000000000000000AF
:10411000C007300C181808100C300C30FC3F0C0095
:104120000C000C00182018107018C00700000000C8
:10413000000000000000000000000000000000007F
:104140000000003E80C380C0C0C0C000C000C000EE
:10415000FC1FC000C000C000C000C000C000C00004
:10416000C000C000C000C000C000F80F0000000088
:10417000000000000000000000000000000000003F
:10418000000000000000000000000000000000002F
:10419000C077306C10181818181818181018300C30
:1041A000F00718001800F00FF03F08700C600C606A
:1041B0000C603838E00F0000000000000000000034
:1041C00010001E0018001800180018001800180031
:1041D000980FD81838301830183018301830183078
:1041E000183018301830183018307EFC00000000ED
:1041F00000000000000000000000000000000000BF
:104200000000800380038003000000000000000124
:10421000F80180018001800180018001800180011E
:1042200080018001800180018001F81F00000000F2
:10423000000000000000000000000000000000007E
:1042400000000038003800380000000000000010B6
:10425000801F001800180018001800180018001817
:10426000001800180018001800180018001800188E
:10427000180C1806F0030000000000000000000009
:1042800010001E0018001800180018001800180070
:10429000183E180C1806180318019801D8013803A5
:1042A00018071806180C181C18187E7C000000004F
:1042B00000000000000000000000000000000000FE
:1042C0000001F801800180018001800180018001EE
:1042D00080018001800180018001800180018001D6
:1042E00080018001800180018001F81F0000000032
:1042F00000000000000000000000000000000000BE
:1043000000000000000000000000000000000800A5
:10431000EE1C9C338C318C318C318C318C318C3156
:104320008C318C318C318C318C31DE7B0000000083
:10433000000000000000000000000000000000007D
:10434000000000000000000000000000000010005D
:104350001E0FD81838301830183018301830183070
:10436000183018301830183018307EFC000000006B
:10437000000000000000000000000000000000003D
:10438000000000000000000000000000000000002D
:10439000C007701C103018300C600C600C600C6092
:1043A0000C600C60183018303018C0070000000096
:1043B00000000000000000000000000000000000FD
:1043C00000000000000000000000000000001000DD
:1043D0009E0F581838301820186018601860186040
:1043E00018601860183038307818980718001800CE
:1043F000180018007E00000000000000000000000F
:1044000000000000000000000000000000000000AC
:10441000C023303C183818300C300C300C300C30C5
:104420000C300C3008301838303CE03300300030AD
:104430000030003000FC0000000000000000000020
:10444000000000000000000000000000000060000C
:104450007E3C60666061E000E0006000600060003B
:1044600060006000600060006000FE070000000067
:10447000000000000000000000000000000000003C
:10448000000000000000000000000000000000002C
:10449000E02730381830182018007000E003800F33
:1044A000001C043004300C301C18EC0F000000001D
:1044B00000000000000000000000000000000000FC
:1044C000000000000000800080008000C000E000CC
:1044D000FC1FC000C000C000C000C000C000C00081
:1044E000C000C000C020C0208011000F00000000EC
:1044F00000000000000000000000000000000000BC
:10450000000000000000000000000000000010207B
:104510001E3C183018301830183018301830183049
:10452000183018301830183830F4E013000000004C
:10453000000000000000000000000000000000007B
:10454000000000000000000000000000000000006B
:104550007E3C1818180838083004300470026002D5
:104560006002E001C001C001C00080000000000046
:10457000000000000000000000000000000000003B
:10458000000000000000000000000000000000002B
:10459000DFF78E630C238C238C2398139813581603
:1045A0005816700E700E700E2004200400000000DB
:1045B00000000000000000000000000000000000FB
:1045C00000000000000000000000000000000000EB
:1045D000FC3E70087004E004C002C0018003800348
:1045E00040076006200C100C18183E7E00000000EA
:1045F00000000000000000000000000000000000BB
:1046000000000000000000000000000000000000AA
:104610007E7C1818180830083008300460046004E4
:10462000C002C002C00280018001800180008000C1
:1046300080004C003C000000000000000000000072
:10464000000000000000000000000000000000006A
:10465000FC1F0C0C040E0406000380038001C00044
:10466000E0007020302038301C18FC1F00000000D3
:104670000000000000000000000000000030000802
:10468000000400040004000400040004000400040A
:104690000004000400028001000200040004000481
:1046A00000040004000400040004000400040004EA
:1046B00000080030000000010001000100010001BD
:1046C00000010001000100010001000100010001E2
:1046D00000010001000100010001000100010001D2
:1046E00000010001000100010001000100010001C2
:1046F0000001000100010000000000000C0010009B
:1047000020002000200020002000200020002000A9
:1047100020002000400080014000200020002000F8
:104720002000200020002000200020002000200089
:1047300010000C00000000003800C4008640026138
:104740000022001C0000000000000000000000002B
:104750000000000000000000000000000000000059
:104760000000000000000000000000000000000049
:10477000000000000000D6D0800080008000800093
:10478000FC1F84108410841084108410FC1F84107B
:104790008000800080008000BEB0F80F0808F80F8D
:1047A0000808F80F8000FF7F0000F80F08080808CD
:1047B000F80F80008410A2204000D4B00000FE3F1B
:1047C0000220F22702200220FA2F22212221222178
:1047D000122912290A2E0220FE3F0220B5E780008E
:1047E00080008000FC1F841084108410FC1F841043
:1047F00084108410FC1F845080408040007FD7D3F9
:104800000000FE1F00080004000280018000FF7FFE
:10481000800080008000800080008000A0004000B8
:10482000D6D00000000000000018000008000008BA
:1048300000000800080818F8FF1F180818180818C2
:10484000180818180818180818180818F8FF1F086A
:104850000808000800000800000800000800001810
:1048600000001800001800000000BEB000000000AA
:104870000000400006C0FF07400006C0FF074000E0
:1048800006C0FF07400802003000FEFF3F000000A6
:10489000C0FF07C00002C00002C00002C0FF0380CA
:1048A000100080110160100E3010180C1E30001C1A
:1048B00000000000D4B0000000000000080030F844
:1048C000FF1F08001008C010083F10080010080063
:1048D00010080013C8FF1008221008221008221028
:1048E00008221008211208211488601648C01328D5
:1048F0000010080010F8FF1F080010000000B5E7C6
:10490000000000000000001800000800000800007F
:104910000800F0FF0F100804100804100804100825
:1049200004F0FF071008041008041008041008041D
:10493000F0FF071008000008100008100008200011
:10494000183000F01F000000D7D300000000000066
:10495000000004F0FF0F00000600000100C000008E
:104960002800001800001800001830FEFF7F001813
:1049700000001800001800001800001800001800BF
:10498000001800001800001800001F00000C0000B4
:104990000000D6D0000000000000000000800000F1
:1049A0000080010000800100008001000080010003
:1049B000008001001080010CF0FFFF0F3080010427
:1049C0003080010430800104308001043080010413
:1049D000308001043080010430800104F0FFFF07C3
:1049E000308001043080010400800100008001005B
:1049F00000800100008001000080010000800100B3
:104A000000800100008001000080010000800000A3
:104A100000000000BEB00000000000000000000028
:104A200000000001800100FFFF010003800100037E
:104A3000800100FFFF01000380010003800100FFEF
:104A4000FF0100818100000003000000031CFCFF47
:104A5000FF3F000040000003C00100FFFF01000312
:104A6000C0000003C0000003C00000FFFF00000101
:104A7000410000040100000E710000078101800167
:104A800001076000010E1898011C04E0011800C025
:104A9000000000000000D4B0000000000000000092
:104AA00000000008F0FFFF1F3000000C3000000C79
:104AB0003000100C30FE3F0C3004000C3000000CB5
:104AC0003000000C3000000C3000C00CF0FFFF0D77
:104AD0003030060E3030060C3010060C3010060C4C
:104AE0003010060C3018860C3018860C3008060D75
:104AF000300C860D3006EE0F3002FC0D3001000C3C
:104B0000F000000C3000000CF0FFFF0F3000000C34
:104B10001000000400000000B5E7000000000000E5
:104B2000000000C0000000C0010000C0000000C084
:104B3000000000C0000000C00000E0FFFF0360C0F4
:104B4000000360C0000360C0000360C0000360C0D9
:104B5000000360C00003E0FFFF0360C0000360C00B
:104B6000000360C0000360C0000360C00003E0FFFA
:104B7000FF0360C0000160C0000000C0000800C06A
:104B8000001000C0001000C0001800C001380080F4
:104B9000FF1F0000000000000000D7D3000000004D
:104BA000000000000000000000000003C0FFFF073D
:104BB000000080070000C000000060000000180036
:104BC00000000C0000800300008003000080010052
:104BD000008001080080011CFCFFFF3F00800100F5
:104BE00000800100008001000080010000800100C1
:104BF00000800100008001000080010000800100B1
:104C000000800100008001000080010000FC010024
:104C100000E0000000400000000000003C4C0008E4
:104C20000000002028000000281D0008644C000837
:104C30002800002000040000381D0008006CDC0281
:104C4000000000000000000001020304060708093C
:104C50000000000000000000010203040102030440
:044C60000607080932
:04000005080003F9F3
:00000001FF
