Component: Arm Compiler for Embedded 6.19 Tool: armlink [5e73cb00]

==============================================================================

Section Cross References

    gd32e23x_it.o(.ARM.exidx.text.NMI_Handler) refers to gd32e23x_it.o(.text.NMI_Handler) for [Anonymous Symbol]
    gd32e23x_it.o(.ARM.exidx.text.HardFault_Handler) refers to gd32e23x_it.o(.text.HardFault_Handler) for [Anonymous Symbol]
    gd32e23x_it.o(.ARM.exidx.text.SVC_Handler) refers to gd32e23x_it.o(.text.SVC_Handler) for [Anonymous Symbol]
    gd32e23x_it.o(.ARM.exidx.text.PendSV_Handler) refers to gd32e23x_it.o(.text.PendSV_Handler) for [Anonymous Symbol]
    gd32e23x_it.o(.ARM.exidx.text.SysTick_Handler) refers to gd32e23x_it.o(.text.SysTick_Handler) for [Anonymous Symbol]
    main.o(.text.main) refers to systick.o(.text.systick_config) for systick_config
    main.o(.text.main) refers to led.o(.text.Init_LED_GPIO) for Init_LED_GPIO
    main.o(.text.main) refers to key.o(.text.Init_Key_GPIO) for Init_Key_GPIO
    main.o(.text.main) refers to usart.o(.text.Init_USART) for Init_USART
    main.o(.text.main) refers to usart.o(.text.Init_USART0RecDMA) for Init_USART0RecDMA
    main.o(.text.main) refers to ec11.o(.text.Init_EC11_GPIO) for Init_EC11_GPIO
    main.o(.text.main) refers to ec11.o(.text.Init_EC11_EXITGPIO) for Init_EC11_EXITGPIO
    main.o(.text.main) refers to adc.o(.text.ADC_Config) for ADC_Config
    main.o(.text.main) refers to adc.o(.text.Get_ADC_Value) for Get_ADC_Value
    main.o(.text.main) refers to fflti.o(.text) for __aeabi_i2f
    main.o(.text.main) refers to fmul.o(.text) for __aeabi_fmul
    main.o(.text.main) refers to fdiv.o(.text) for __aeabi_fdiv
    main.o(.text.main) refers to systick.o(.text.delay_1us) for delay_1us
==============================================================================

Removing Unused input sections from the image.

    Removing gd32e23x_it.o(.text), (0 bytes).
    Removing gd32e23x_it.o(.ARM.exidx.text.NMI_Handler), (8 bytes).
    Removing gd32e23x_it.o(.ARM.exidx.text.HardFault_Handler), (8 bytes).
    Removing gd32e23x_it.o(.ARM.exidx.text.SVC_Handler), (8 bytes).
    Removing gd32e23x_it.o(.ARM.exidx.text.PendSV_Handler), (8 bytes).
    Removing gd32e23x_it.o(.ARM.exidx.text.SysTick_Handler), (8 bytes).
    Removing main.o(.text), (0 bytes).
    Removing main.o(.ARM.exidx.text.main), (8 bytes).
    Removing main.o(.ARM.use_no_argv), (4 bytes).
    Removing systick.o(.text), (0 bytes).
    Removing systick.o(.ARM.exidx.text.systick_config), (8 bytes).
    Removing systick.o(.ARM.exidx.text.delay_1us), (8 bytes).
    Removing systick.o(.text.delay_us), (128 bytes).
    Removing systick.o(.ARM.exidx.text.delay_us), (8 bytes).
    Removing systick.o(.ARM.exidx.text.delay_1ms), (8 bytes).
    Removing systick.o(.text.delay_ms), (128 bytes).
    Removing systick.o(.ARM.exidx.text.delay_ms), (8 bytes).
    Removing gd32e23x_adc.o(.text), (0 bytes).
==============================================================================

Image Symbol Table

    Local Symbols

    Symbol Name                              Value     Ov Type        Size  Object(Section)

    ../Firmware/CMSIS/GD/GD32E23x/Source/ARM/startup_gd32e23x.s 0x00000000   Number         0  startup_gd32e23x.o ABSOLUTE
    ../clib/division.s                       0x00000000   Number         0  aeabi_sdiv.o ABSOLUTE
    ../clib/division.s                       0x00000000   Number         0  aeabi_sdiv_div0.o ABSOLUTE
    ../clib/microlib/division.c              0x00000000   Number         0  uidiv.o ABSOLUTE
    ../clib/microlib/division.c              0x00000000   Number         0  uldiv.o ABSOLUTE
    ../clib/microlib/division.c              0x00000000   Number         0  uidiv_div0.o ABSOLUTE
    ../clib/microlib/division.c              0x00000000   Number         0  idiv_div0.o ABSOLUTE
    ../clib/microlib/division.c              0x00000000   Number         0  idiv0.o ABSOLUTE
    ../clib/microlib/init/entry.s            0x00000000   Number         0  entry.o ABSOLUTE
    ../clib/microlib/init/entry.s            0x00000000   Number         0  entry2.o ABSOLUTE
    ../clib/microlib/init/entry.s            0x00000000   Number         0  entry5.o ABSOLUTE
    ../clib/microlib/init/entry.s            0x00000000   Number         0  entry7a.o ABSOLUTE
    ../clib/microlib/init/entry.s            0x00000000   Number         0  entry7b.o ABSOLUTE
    ../clib/microlib/init/entry.s            0x00000000   Number         0  entry8a.o ABSOLUTE
    ../clib/microlib/init/entry.s            0x00000000   Number         0  entry8b.o ABSOLUTE
    ../clib/microlib/init/entry.s            0x00000000   Number         0  entry9a.o ABSOLUTE
    ../clib/microlib/init/entry.s            0x00000000   Number         0  entry9b.o ABSOLUTE
    ../clib/microlib/init/entry.s            0x00000000   Number         0  entry10a.o ABSOLUTE
    ../clib/microlib/init/entry.s            0x00000000   Number         0  entry10b.o ABSOLUTE
    ../clib/microlib/init/entry.s            0x00000000   Number         0  entry11a.o ABSOLUTE
    ../clib/microlib/init/entry.s            0x00000000   Number         0  entry11b.o ABSOLUTE
    ../clib/microlib/longlong.c              0x00000000   Number         0  llshl.o ABSOLUTE
    ../clib/microlib/longlong.c              0x00000000   Number         0  llushr.o ABSOLUTE
    ../clib/microlib/longlong.c              0x00000000   Number         0  llsshr.o ABSOLUTE
    ../clib/microlib/printf/printf.c         0x00000000   Number         0  printfa.o ABSOLUTE
    ../clib/microlib/stdio/streams.c         0x00000000   Number         0  stdout.o ABSOLUTE
    ../clib/microlib/string/memset.c         0x00000000   Number         0  memseta.o ABSOLUTE
    ../clib/microlib/stubs.s                 0x00000000   Number         0  iusefp.o ABSOLUTE
    ../fplib/microlib/f2d.c                  0x00000000   Number         0  f2d.o ABSOLUTE
    ../fplib/microlib/fpadd.c                0x00000000   Number         0  dadd.o ABSOLUTE
    ../fplib/microlib/fpdiv.c                0x00000000   Number         0  fdiv.o ABSOLUTE
    ../fplib/microlib/fpdiv.c                0x00000000   Number         0  ddiv.o ABSOLUTE
    ../fplib/microlib/fpepilogue.c           0x00000000   Number         0  fepilogue.o ABSOLUTE
    ../fplib/microlib/fpepilogue.c           0x00000000   Number         0  depilogue.o ABSOLUTE
    ../fplib/microlib/fpfix.c                0x00000000   Number         0  ffixi.o ABSOLUTE
    ../fplib/microlib/fpfix.c                0x00000000   Number         0  ffixui.o ABSOLUTE
    ../fplib/microlib/fpfix.c                0x00000000   Number         0  dfixul.o ABSOLUTE
    ../fplib/microlib/fpflt.c                0x00000000   Number         0  fflti.o ABSOLUTE
    ../fplib/microlib/fpflt.c                0x00000000   Number         0  ffltui.o ABSOLUTE
    ../fplib/microlib/fpmul.c                0x00000000   Number         0  fmul.o ABSOLUTE
    ../fplib/microlib/fpmul.c                0x00000000   Number         0  dmul.o ABSOLUTE
    adc.c                                    0x00000000   Number         0  adc.o ABSOLUTE
    cdrcmple.s                               0x00000000   Number         0  cdrcmple.o ABSOLUTE
    dc.s                                     0x00000000   Number         0  dc.o ABSOLUTE
    ec11.c                                   0x00000000   Number         0  ec11.o ABSOLUTE
    gd32e23x_adc.c                           0x00000000   Number         0  gd32e23x_adc.o ABSOLUTE
    gd32e23x_cmp.c                           0x00000000   Number         0  gd32e23x_cmp.o ABSOLUTE
    gd32e23x_crc.c                           0x00000000   Number         0  gd32e23x_crc.o ABSOLUTE
    gd32e23x_dbg.c                           0x00000000   Number         0  gd32e23x_dbg.o ABSOLUTE
    gd32e23x_dma.c                           0x00000000   Number         0  gd32e23x_dma.o ABSOLUTE
    gd32e23x_exti.c                          0x00000000   Number         0  gd32e23x_exti.o ABSOLUTE
    gd32e23x_fmc.c                           0x00000000   Number         0  gd32e23x_fmc.o ABSOLUTE
    gd32e23x_fwdgt.c                         0x00000000   Number         0  gd32e23x_fwdgt.o ABSOLUTE
    gd32e23x_gpio.c                          0x00000000   Number         0  gd32e23x_gpio.o ABSOLUTE
    gd32e23x_i2c.c                           0x00000000   Number         0  gd32e23x_i2c.o ABSOLUTE
    gd32e23x_it.c                            0x00000000   Number         0  gd32e23x_it.o ABSOLUTE
    gd32e23x_misc.c                          0x00000000   Number         0  gd32e23x_misc.o ABSOLUTE
    gd32e23x_pmu.c                           0x00000000   Number         0  gd32e23x_pmu.o ABSOLUTE
    gd32e23x_rcu.c                           0x00000000   Number         0  gd32e23x_rcu.o ABSOLUTE
    gd32e23x_rtc.c                           0x00000000   Number         0  gd32e23x_rtc.o ABSOLUTE
    gd32e23x_spi.c                           0x00000000   Number         0  gd32e23x_spi.o ABSOLUTE
    gd32e23x_syscfg.c                        0x00000000   Number         0  gd32e23x_syscfg.o ABSOLUTE
    gd32e23x_timer.c                         0x00000000   Number         0  gd32e23x_timer.o ABSOLUTE
    gd32e23x_usart.c                         0x00000000   Number         0  gd32e23x_usart.o ABSOLUTE
    gd32e23x_wwdgt.c                         0x00000000   Number         0  gd32e23x_wwdgt.o ABSOLUTE
    handlers.s                               0x00000000   Number         0  handlers.o ABSOLUTE
    init.s                                   0x00000000   Number         0  init.o ABSOLUTE
    key.c                                    0x00000000   Number         0  key.o ABSOLUTE
    led.c                                    0x00000000   Number         0  led.o ABSOLUTE
    main.c                                   0x00000000   Number         0  main.o ABSOLUTE
    system_gd32e23x.c                        0x00000000   Number         0  system_gd32e23x.o ABSOLUTE
    systick.c                                0x00000000   Number         0  systick.o ABSOLUTE
    usart.c                                  0x00000000   Number         0  usart.o ABSOLUTE
    RESET                                    0x08000000   Section      204  startup_gd32e23x.o(RESET)
    .ARM.Collect$$$$00000000                 0x080000cc   Section        0  entry.o(.ARM.Collect$$$$00000000)
    .ARM.Collect$$$$00000001                 0x080000cc   Section        4  entry2.o(.ARM.Collect$$$$00000001)
    .ARM.Collect$$$$00000004                 0x080000d0   Section        4  entry5.o(.ARM.Collect$$$$00000004)
    .ARM.Collect$$$$00000008                 0x080000d4   Section        0  entry7b.o(.ARM.Collect$$$$00000008)
    .ARM.Collect$$$$0000000A                 0x080000d4   Section        0  entry8b.o(.ARM.Collect$$$$0000000A)
    .ARM.Collect$$$$0000000B                 0x080000d4   Section        8  entry9a.o(.ARM.Collect$$$$0000000B)
    __lit__00000000                          0x080000dc   Data           4  entry2.o(.ARM.Collect$$$$00002712)
    .ARM.Collect$$$$0000000D                 0x080000dc   Section        0  entry10a.o(.ARM.Collect$$$$0000000D)
    .ARM.Collect$$$$0000000F                 0x080000dc   Section        0  entry11a.o(.ARM.Collect$$$$0000000F)
    .ARM.Collect$$$$00002712                 0x080000dc   Section        4  entry2.o(.ARM.Collect$$$$00002712)
    .text                                    0x080000e0   Section       28  startup_gd32e23x.o(.text)
    .text                                    0x080000fc   Section        0  fmul.o(.text)
    .text                                    0x08000176   Section        0  fdiv.o(.text)
    .text                                    0x080001f2   Section        0  fflti.o(.text)
    .text                                    0x08000208   Section        0  ffltui.o(.text)
    .text                                    0x08000216   Section        0  ffixi.o(.text)
    .text                                    0x08000248   Section        0  ffixui.o(.text)
    .text                                    0x08000270   Section        0  f2d.o(.text)
    .text                                    0x08000298   Section        0  uldiv.o(.text)
    .text                                    0x080002f8   Section        0  iusefp.o(.text)
    .text                                    0x080002f8   Section        0  fepilogue.o(.text)
    .text                                    0x0800037c   Section        0  dadd.o(.text)
    .text                                    0x080004e0   Section        0  dmul.o(.text)
    .text                                    0x080005b0   Section        0  ddiv.o(.text)
    .text                                    0x080006a0   Section        0  dfixul.o(.text)
    .text                                    0x080006e0   Section       40  cdrcmple.o(.text)
    .text                                    0x08000708   Section       36  init.o(.text)
    .text                                    0x0800072c   Section        0  uidiv_div0.o(.text)
    .text                                    0x0800076a   Section        0  llshl.o(.text)
    .text                                    0x0800078a   Section        0  llushr.o(.text)
    .text                                    0x080007ac   Section        0  llsshr.o(.text)
    .text                                    0x080007d2   Section        0  depilogue.o(.text)
    [Anonymous Symbol]                       0x08000890   Section        0  adc.o(.text.ADC_Config)
    __arm_cp.0_1                             0x080008ec   Number         4  adc.o(.text.ADC_Config)
    [Anonymous Symbol]                       0x080008f0   Section        0  led.o(.text.CLose_LED)
    [Anonymous Symbol]                       0x0800092c   Section        0  ec11.o(.text.EXTI4_15_IRQHandler)
    __arm_cp.2_1                             0x080009d4   Number         4  ec11.o(.text.EXTI4_15_IRQHandler)
    __arm_cp.2_2                             0x080009d8   Number         4  ec11.o(.text.EXTI4_15_IRQHandler)
    [Anonymous Symbol]                       0x080009dc   Section        0  adc.o(.text.Get_ADC_Value)
    [Anonymous Symbol]                       0x08000a1a   Section        0  gd32e23x_it.o(.text.HardFault_Handler)
    [Anonymous Symbol]                       0x08000a20   Section        0  ec11.o(.text.Init_EC11_EXITGPIO)
    [Anonymous Symbol]                       0x08000a68   Section        0  ec11.o(.text.Init_EC11_GPIO)
    [Anonymous Symbol]                       0x08000a80   Section        0  key.o(.text.Init_Key_GPIO)
    __arm_cp.0_0                             0x08000a98   Number         4  key.o(.text.Init_Key_GPIO)
    __arm_cp.0_1                             0x08000a9c   Number         4  key.o(.text.Init_Key_GPIO)
    [Anonymous Symbol]                       0x08000aa0   Section        0  led.o(.text.Init_LED_GPIO)
    __arm_cp.0_0                             0x08000afc   Number         4  led.o(.text.Init_LED_GPIO)
    [Anonymous Symbol]                       0x08000b00   Section        0  usart.o(.text.Init_USART)
    __arm_cp.0_0                             0x08000bd4   Number         4  usart.o(.text.Init_USART)
    __arm_cp.0_1                             0x08000bd8   Number         4  usart.o(.text.Init_USART)
    __arm_cp.0_3                             0x08000bdc   Number         4  usart.o(.text.Init_USART)
    [Anonymous Symbol]                       0x08000be0   Section        0  usart.o(.text.Init_USART0RecDMA)
    __arm_cp.1_0                             0x08000c38   Number         4  usart.o(.text.Init_USART0RecDMA)
    __arm_cp.1_1                             0x08000c3c   Number         4  usart.o(.text.Init_USART0RecDMA)
    [Anonymous Symbol]                       0x08000c40   Section        0  gd32e23x_it.o(.text.NMI_Handler)
    [Anonymous Symbol]                       0x08000c44   Section        0  led.o(.text.Open_LED)
    __arm_cp.2_0                             0x08000c80   Number         4  led.o(.text.Open_LED)
    [Anonymous Symbol]                       0x08000c84   Section        0  gd32e23x_it.o(.text.PendSV_Handler)
    [Anonymous Symbol]                       0x08000c86   Section        0  gd32e23x_it.o(.text.SVC_Handler)
    [Anonymous Symbol]                       0x08000c88   Section        0  gd32e23x_it.o(.text.SysTick_Handler)
    [Anonymous Symbol]                       0x08000c8c   Section        0  system_gd32e23x.o(.text.SystemInit)
    __arm_cp.0_0                             0x08000d64   Number         4  system_gd32e23x.o(.text.SystemInit)
    __arm_cp.0_1                             0x08000d68   Number         4  system_gd32e23x.o(.text.SystemInit)
    __arm_cp.0_2                             0x08000d6c   Number         4  system_gd32e23x.o(.text.SystemInit)
    __arm_cp.0_3                             0x08000d70   Number         4  system_gd32e23x.o(.text.SystemInit)
    __arm_cp.0_4                             0x08000d74   Number         4  system_gd32e23x.o(.text.SystemInit)
    __arm_cp.0_5                             0x08000d78   Number         4  system_gd32e23x.o(.text.SystemInit)
    __arm_cp.0_6                             0x08000d7c   Number         4  system_gd32e23x.o(.text.SystemInit)
    __arm_cp.0_7                             0x08000d80   Number         4  system_gd32e23x.o(.text.SystemInit)
    __arm_cp.0_8                             0x08000d84   Number         4  system_gd32e23x.o(.text.SystemInit)
    [Anonymous Symbol]                       0x08000d88   Section        0  usart.o(.text.USART0_IRQHandler)
    __arm_cp.4_0                             0x08000dd8   Number         4  usart.o(.text.USART0_IRQHandler)
    __arm_cp.4_1                             0x08000ddc   Number         4  usart.o(.text.USART0_IRQHandler)
    __arm_cp.4_2                             0x08000de0   Number         4  usart.o(.text.USART0_IRQHandler)
    __arm_cp.4_3                             0x08000de4   Number         4  usart.o(.text.USART0_IRQHandler)
    __NVIC_EnableIRQ                         0x08000de9   Thumb Code    48  gd32e23x_misc.o(.text.__NVIC_EnableIRQ)
    [Anonymous Symbol]                       0x08000de8   Section        0  gd32e23x_misc.o(.text.__NVIC_EnableIRQ)
    __arm_cp.2_0                             0x08000e18   Number         4  gd32e23x_misc.o(.text.__NVIC_EnableIRQ)
    __NVIC_SetPriority                       0x08000e1d   Thumb Code   124  gd32e23x_misc.o(.text.__NVIC_SetPriority)
    [Anonymous Symbol]                       0x08000e1c   Section        0  gd32e23x_misc.o(.text.__NVIC_SetPriority)
    __arm_cp.1_0                             0x08000e98   Number         4  gd32e23x_misc.o(.text.__NVIC_SetPriority)
    __arm_cp.1_1                             0x08000e9c   Number         4  gd32e23x_misc.o(.text.__NVIC_SetPriority)
    [Anonymous Symbol]                       0x08000ea0   Section        0  gd32e23x_adc.o(.text.adc_calibration_enable)
    [Anonymous Symbol]                       0x08000ed8   Section        0  gd32e23x_adc.o(.text.adc_channel_length_config)
    __arm_cp.11_0                            0x08000f38   Number         4  gd32e23x_adc.o(.text.adc_channel_length_config)
    __arm_cp.11_1                            0x08000f3c   Number         4  gd32e23x_adc.o(.text.adc_channel_length_config)
    [Anonymous Symbol]                       0x08000f40   Section        0  gd32e23x_adc.o(.text.adc_data_alignment_config)
    [Anonymous Symbol]                       0x08000f6c   Section        0  gd32e23x_adc.o(.text.adc_enable)
    [Anonymous Symbol]                       0x08000f84   Section        0  gd32e23x_adc.o(.text.adc_external_trigger_config)
    [Anonymous Symbol]                       0x08001000   Section        0  gd32e23x_adc.o(.text.adc_external_trigger_source_config)
    [Anonymous Symbol]                       0x08001050   Section        0  gd32e23x_adc.o(.text.adc_flag_get)
    __arm_cp.20_0                            0x08001078   Number         4  gd32e23x_adc.o(.text.adc_flag_get)
    [Anonymous Symbol]                       0x0800107c   Section        0  gd32e23x_adc.o(.text.adc_regular_channel_config)
    __arm_cp.12_0                            0x080011c4   Number         4  gd32e23x_adc.o(.text.adc_regular_channel_config)
    __arm_cp.12_1                            0x080011c8   Number         4  gd32e23x_adc.o(.text.adc_regular_channel_config)
    __arm_cp.12_2                            0x080011cc   Number         4  gd32e23x_adc.o(.text.adc_regular_channel_config)
    __arm_cp.12_3                            0x080011d0   Number         4  gd32e23x_adc.o(.text.adc_regular_channel_config)
    __arm_cp.12_4                            0x080011d4   Number         4  gd32e23x_adc.o(.text.adc_regular_channel_config)
    [Anonymous Symbol]                       0x080011d8   Section        0  gd32e23x_adc.o(.text.adc_regular_data_read)
    __arm_cp.18_0                            0x080011e0   Number         4  gd32e23x_adc.o(.text.adc_regular_data_read)
    [Anonymous Symbol]                       0x080011e4   Section        0  gd32e23x_adc.o(.text.adc_software_trigger_enable)
    __arm_cp.17_0                            0x08001220   Number         4  gd32e23x_adc.o(.text.adc_software_trigger_enable)
    [Anonymous Symbol]                       0x08001224   Section        0  systick.o(.text.delay_1ms)
    __arm_cp.3_0                             0x08001294   Number         4  systick.o(.text.delay_1ms)
    [Anonymous Symbol]                       0x08001298   Section        0  systick.o(.text.delay_1us)
    __arm_cp.1_0                             0x08001308   Number         4  systick.o(.text.delay_1us)
    __arm_cp.1_1                             0x0800130c   Number         4  systick.o(.text.delay_1us)
    __arm_cp.1_2                             0x08001310   Number         4  systick.o(.text.delay_1us)
    __arm_cp.1_3                             0x08001314   Number         4  systick.o(.text.delay_1us)
    [Anonymous Symbol]                       0x08001318   Section        0  gd32e23x_dma.o(.text.dma_channel_disable)
    [Anonymous Symbol]                       0x08001334   Section        0  gd32e23x_dma.o(.text.dma_channel_enable)
    [Anonymous Symbol]                       0x08001350   Section        0  gd32e23x_dma.o(.text.dma_circulation_disable)
    [Anonymous Symbol]                       0x0800136c   Section        0  gd32e23x_dma.o(.text.dma_deinit)
    __arm_cp.0_4                             0x080013c4   Number         4  gd32e23x_dma.o(.text.dma_deinit)
    [Anonymous Symbol]                       0x080013c8   Section        0  gd32e23x_dma.o(.text.dma_init)
    __arm_cp.2_0                             0x080014d4   Number         4  gd32e23x_dma.o(.text.dma_init)
    __arm_cp.2_1                             0x080014d8   Number         4  gd32e23x_dma.o(.text.dma_init)
    __arm_cp.2_3                             0x080014dc   Number         4  gd32e23x_dma.o(.text.dma_init)
    [Anonymous Symbol]                       0x080014e0   Section        0  gd32e23x_dma.o(.text.dma_transfer_number_config)
    [Anonymous Symbol]                       0x08001500   Section        0  gd32e23x_dma.o(.text.dma_transfer_number_get)
    __arm_cp.12_0                            0x08001518   Number         4  gd32e23x_dma.o(.text.dma_transfer_number_get)
    [Anonymous Symbol]                       0x0800151c   Section        0  gd32e23x_exti.o(.text.exti_init)
    __arm_cp.1_0                             0x080015ec   Number         4  gd32e23x_exti.o(.text.exti_init)
    __arm_cp.1_1                             0x080015f0   Number         4  gd32e23x_exti.o(.text.exti_init)
    __arm_cp.1_2                             0x080015f4   Number         4  gd32e23x_exti.o(.text.exti_init)
    __arm_cp.1_3                             0x080015f8   Number         4  gd32e23x_exti.o(.text.exti_init)
    [Anonymous Symbol]                       0x080015fc   Section        0  gd32e23x_exti.o(.text.exti_interrupt_flag_clear)
    [Anonymous Symbol]                       0x0800160c   Section        0  gd32e23x_exti.o(.text.exti_interrupt_flag_get)
    __arm_cp.10_0                            0x08001634   Number         4  gd32e23x_exti.o(.text.exti_interrupt_flag_get)
    [Anonymous Symbol]                       0x08001638   Section        0  usart.o(.text.fputc)
    __arm_cp.3_0                             0x08001660   Number         4  usart.o(.text.fputc)
    __arm_cp.3_1                             0x08001664   Number         4  usart.o(.text.fputc)
    [Anonymous Symbol]                       0x08001668   Section        0  gd32e23x_gpio.o(.text.gpio_af_set)
    [Anonymous Symbol]                       0x08001728   Section        0  gd32e23x_gpio.o(.text.gpio_bit_reset)
    [Anonymous Symbol]                       0x08001738   Section        0  gd32e23x_gpio.o(.text.gpio_bit_set)
    [Anonymous Symbol]                       0x08001748   Section        0  gd32e23x_gpio.o(.text.gpio_input_bit_get)
    [Anonymous Symbol]                       0x08001772   Section        0  gd32e23x_gpio.o(.text.gpio_mode_set)
    [Anonymous Symbol]                       0x08001800   Section        0  gd32e23x_gpio.o(.text.gpio_output_options_set)
    [Anonymous Symbol]                       0x0800188c   Section        0  main.o(.text.main)
    __arm_cp.0_0                             0x0800193c   Number         4  main.o(.text.main)
    __arm_cp.0_1                             0x08001940   Number         4  main.o(.text.main)
    __arm_cp.0_2                             0x08001944   Number         4  main.o(.text.main)
    __arm_cp.0_3                             0x08001948   Number         4  main.o(.text.main)
    [Anonymous Symbol]                       0x0800194c   Section        0  gd32e23x_misc.o(.text.nvic_irq_enable)
    [Anonymous Symbol]                       0x08001978   Section        0  gd32e23x_misc.o(.text.nvic_vector_table_set)
    __arm_cp.7_0                             0x08001994   Number         4  gd32e23x_misc.o(.text.nvic_vector_table_set)
    __arm_cp.7_1                             0x08001998   Number         4  gd32e23x_misc.o(.text.nvic_vector_table_set)
    [Anonymous Symbol]                       0x0800199c   Section        0  gd32e23x_rcu.o(.text.rcu_adc_clock_config)
    __arm_cp.14_0                            0x08001b1c   Number         4  gd32e23x_rcu.o(.text.rcu_adc_clock_config)
    __arm_cp.14_1                            0x08001b20   Number         4  gd32e23x_rcu.o(.text.rcu_adc_clock_config)
    __arm_cp.14_2                            0x08001b24   Number         4  gd32e23x_rcu.o(.text.rcu_adc_clock_config)
    [Anonymous Symbol]                       0x08001b28   Section        0  gd32e23x_rcu.o(.text.rcu_clock_freq_get)
    __arm_cp.33_0                            0x08001dfc   Number         4  gd32e23x_rcu.o(.text.rcu_clock_freq_get)
    __arm_cp.33_1                            0x08001e00   Number         4  gd32e23x_rcu.o(.text.rcu_clock_freq_get)
    __arm_cp.33_2                            0x08001e04   Number         4  gd32e23x_rcu.o(.text.rcu_clock_freq_get)
    __arm_cp.33_3                            0x08001e08   Number         4  gd32e23x_rcu.o(.text.rcu_clock_freq_get)
    __arm_cp.33_4                            0x08001e0c   Number         4  gd32e23x_rcu.o(.text.rcu_clock_freq_get)
    __arm_cp.33_5                            0x08001e10   Number         4  gd32e23x_rcu.o(.text.rcu_clock_freq_get)
    __arm_cp.33_6                            0x08001e14   Number         4  gd32e23x_rcu.o(.text.rcu_clock_freq_get)
    __arm_cp.33_7                            0x08001e18   Number         4  gd32e23x_rcu.o(.text.rcu_clock_freq_get)
    __arm_cp.33_8                            0x08001e1c   Number         4  gd32e23x_rcu.o(.text.rcu_clock_freq_get)
    [Anonymous Symbol]                       0x08001e20   Section        0  gd32e23x_rcu.o(.text.rcu_periph_clock_enable)
    [Anonymous Symbol]                       0x08001e44   Section        0  gd32e23x_rcu.o(.text.rcu_periph_reset_disable)
    [Anonymous Symbol]                       0x08001e68   Section        0  gd32e23x_rcu.o(.text.rcu_periph_reset_enable)
    [Anonymous Symbol]                       0x08001e8c   Section        0  gd32e23x_syscfg.o(.text.syscfg_exti_line_config)
    __arm_cp.5_0                             0x08001f30   Number         4  gd32e23x_syscfg.o(.text.syscfg_exti_line_config)
    __arm_cp.5_1                             0x08001f34   Number         4  gd32e23x_syscfg.o(.text.syscfg_exti_line_config)
    __arm_cp.5_2                             0x08001f38   Number         4  gd32e23x_syscfg.o(.text.syscfg_exti_line_config)
    __arm_cp.5_3                             0x08001f3c   Number         4  gd32e23x_syscfg.o(.text.syscfg_exti_line_config)
    system_clock_72m_hxtal                   0x08001f41   Thumb Code   208  system_gd32e23x.o(.text.system_clock_72m_hxtal)
    [Anonymous Symbol]                       0x08001f40   Section        0  system_gd32e23x.o(.text.system_clock_72m_hxtal)
    __arm_cp.3_0                             0x08002010   Number         4  system_gd32e23x.o(.text.system_clock_72m_hxtal)
    __arm_cp.3_1                             0x08002014   Number         4  system_gd32e23x.o(.text.system_clock_72m_hxtal)
    __arm_cp.3_2                             0x08002018   Number         4  system_gd32e23x.o(.text.system_clock_72m_hxtal)
    __arm_cp.3_3                             0x0800201c   Number         4  system_gd32e23x.o(.text.system_clock_72m_hxtal)
    __arm_cp.3_4                             0x08002020   Number         4  system_gd32e23x.o(.text.system_clock_72m_hxtal)
    system_clock_config                      0x08002025   Thumb Code     8  system_gd32e23x.o(.text.system_clock_config)
    [Anonymous Symbol]                       0x08002024   Section        0  system_gd32e23x.o(.text.system_clock_config)
    [Anonymous Symbol]                       0x0800202c   Section        0  gd32e23x_misc.o(.text.systick_clksource_set)
    __arm_cp.10_0                            0x08002054   Number         4  gd32e23x_misc.o(.text.systick_clksource_set)
    [Anonymous Symbol]                       0x08002058   Section        0  systick.o(.text.systick_config)
    __arm_cp.0_0                             0x08002084   Number         4  systick.o(.text.systick_config)
    __arm_cp.0_1                             0x08002088   Number         4  systick.o(.text.systick_config)
    __arm_cp.0_2                             0x0800208c   Number         4  systick.o(.text.systick_config)
    __arm_cp.0_3                             0x08002090   Number         4  systick.o(.text.systick_config)
    __arm_cp.0_4                             0x08002094   Number         4  systick.o(.text.systick_config)
    [Anonymous Symbol]                       0x08002098   Section        0  gd32e23x_usart.o(.text.usart_baudrate_set)
    __arm_cp.1_2                             0x08002144   Number         4  gd32e23x_usart.o(.text.usart_baudrate_set)
    [Anonymous Symbol]                       0x08002148   Section        0  gd32e23x_usart.o(.text.usart_data_transmit)
    __arm_cp.18_0                            0x0800215c   Number         4  gd32e23x_usart.o(.text.usart_data_transmit)
    [Anonymous Symbol]                       0x08002160   Section        0  gd32e23x_usart.o(.text.usart_deinit)
    __arm_cp.0_0                             0x080021a4   Number         4  gd32e23x_usart.o(.text.usart_deinit)
    __arm_cp.0_1                             0x080021a8   Number         4  gd32e23x_usart.o(.text.usart_deinit)
    __arm_cp.0_2                             0x080021ac   Number         4  gd32e23x_usart.o(.text.usart_deinit)
    __arm_cp.0_3                             0x080021b0   Number         4  gd32e23x_usart.o(.text.usart_deinit)
    [Anonymous Symbol]                       0x080021b4   Section        0  gd32e23x_usart.o(.text.usart_dma_receive_config)
    [Anonymous Symbol]                       0x080021d2   Section        0  gd32e23x_usart.o(.text.usart_enable)
    [Anonymous Symbol]                       0x080021e4   Section        0  gd32e23x_usart.o(.text.usart_flag_clear)
    [Anonymous Symbol]                       0x08002202   Section        0  gd32e23x_usart.o(.text.usart_flag_get)
    [Anonymous Symbol]                       0x0800223e   Section        0  gd32e23x_usart.o(.text.usart_interrupt_enable)
    [Anonymous Symbol]                       0x08002260   Section        0  gd32e23x_usart.o(.text.usart_interrupt_flag_clear)
    __arm_cp.70_0                            0x0800229c   Number         4  gd32e23x_usart.o(.text.usart_interrupt_flag_clear)
    [Anonymous Symbol]                       0x080022a0   Section        0  gd32e23x_usart.o(.text.usart_interrupt_flag_get)
    [Anonymous Symbol]                       0x08002302   Section        0  gd32e23x_usart.o(.text.usart_parity_config)
    [Anonymous Symbol]                       0x0800232c   Section        0  gd32e23x_usart.o(.text.usart_receive_config)
    [Anonymous Symbol]                       0x0800234a   Section        0  gd32e23x_usart.o(.text.usart_stop_bit_set)
    [Anonymous Symbol]                       0x08002374   Section        0  gd32e23x_usart.o(.text.usart_transmit_config)
    [Anonymous Symbol]                       0x08002392   Section        0  gd32e23x_usart.o(.text.usart_word_length_set)
    i.__0printf                              0x080023bc   Section        0  printfa.o(i.__0printf)
    i.__ARM_clz                              0x080023dc   Section        0  depilogue.o(i.__ARM_clz)
    i.__scatterload_copy                     0x0800240a   Section       14  handlers.o(i.__scatterload_copy)
    i.__scatterload_null                     0x08002418   Section        2  handlers.o(i.__scatterload_null)
    i.__scatterload_zeroinit                 0x0800241a   Section       14  handlers.o(i.__scatterload_zeroinit)
    _fp_digits                               0x08002429   Thumb Code   344  printfa.o(i._fp_digits)
    i._fp_digits                             0x08002428   Section        0  printfa.o(i._fp_digits)
    _printf_core                             0x0800259d   Thumb Code  1754  printfa.o(i._printf_core)
    i._printf_core                           0x0800259c   Section        0  printfa.o(i._printf_core)
    _printf_post_padding                     0x08002c89   Thumb Code    32  printfa.o(i._printf_post_padding)
    i._printf_post_padding                   0x08002c88   Section        0  printfa.o(i._printf_post_padding)
    _printf_pre_padding                      0x08002ca9   Thumb Code    44  printfa.o(i._printf_pre_padding)
    i._printf_pre_padding                    0x08002ca8   Section        0  printfa.o(i._printf_pre_padding)
    [Anonymous Symbol]                       0x08002cd4   Section        0  main.o(.rodata.str1.1)
    .data                                    0x20000000   Section        4  stdout.o(.data)
    EXTI4_15_IRQHandler.anticlockwiseNum     0x20000008   Data           1  ec11.o(.bss.EXTI4_15_IRQHandler.anticlockwiseNum)
    [Anonymous Symbol]                       0x20000008   Section        0  ec11.o(.bss.EXTI4_15_IRQHandler.anticlockwiseNum)
    EXTI4_15_IRQHandler.clockwiseNum         0x20000009   Data           1  ec11.o(.bss.EXTI4_15_IRQHandler.clockwiseNum)
    [Anonymous Symbol]                       0x20000009   Section        0  ec11.o(.bss.EXTI4_15_IRQHandler.clockwiseNum)
    count_1ms                                0x2000019c   Data           4  systick.o(.bss.count_1ms)
    [Anonymous Symbol]                       0x2000019c   Section        0  systick.o(.bss.count_1ms)
    count_1us                                0x200001a0   Data           4  systick.o(.bss.count_1us)
    [Anonymous Symbol]                       0x200001a0   Section        0  systick.o(.bss.count_1us)
    receive_flag                             0x200001a4   Data           1  usart.o(.bss.receive_flag)
    [Anonymous Symbol]                       0x200001a4   Section        0  usart.o(.bss.receive_flag)
    rx_count                                 0x200001a5   Data           1  usart.o(.bss.rx_count)
    [Anonymous Symbol]                       0x200001a5   Section        0  usart.o(.bss.rx_count)
    rxbuffer                                 0x200001a6   Data         256  usart.o(.bss.rxbuffer)
    [Anonymous Symbol]                       0x200001a6   Section        0  usart.o(.bss.rxbuffer)
    STACK                                    0x200002a8   Section     1024  startup_gd32e23x.o(STACK)

    Global Symbols

    Symbol Name                              Value     Ov Type        Size  Object(Section)

    BuildAttributes$$THM_ISAv3M$S$8M$PE$A:L22$X:L11$S22$IEEE1$IW$~IW$USESV6$~STKCKD$USESV7$~SHL$OTIME$ROPI$EBA8$MICROLIB$REQ8$PRES8$EABIv2 0x00000000   Number         0  anon$$obj.o ABSOLUTE
    __cpp_initialize__aeabi_                  - Undefined Weak Reference
    __cxa_finalize                            - Undefined Weak Reference
    __decompress                              - Undefined Weak Reference
    _clock_init                               - Undefined Weak Reference
    _microlib_exit                            - Undefined Weak Reference
    __Vectors_Size                           0x000000cc   Number         0  startup_gd32e23x.o ABSOLUTE
    __Vectors                                0x08000000   Data           4  startup_gd32e23x.o(RESET)
    __Vectors_End                            0x080000cc   Data           0  startup_gd32e23x.o(RESET)
    __main                                   0x080000cd   Thumb Code     0  entry.o(.ARM.Collect$$$$00000000)
    _main_stk                                0x080000cd   Thumb Code     0  entry2.o(.ARM.Collect$$$$00000001)
    _main_scatterload                        0x080000d1   Thumb Code     0  entry5.o(.ARM.Collect$$$$00000004)
    __main_after_scatterload                 0x080000d5   Thumb Code     0  entry5.o(.ARM.Collect$$$$00000004)
    _main_clock                              0x080000d5   Thumb Code     0  entry7b.o(.ARM.Collect$$$$00000008)
    _main_cpp_init                           0x080000d5   Thumb Code     0  entry8b.o(.ARM.Collect$$$$0000000A)
    _main_init                               0x080000d5   Thumb Code     0  entry9a.o(.ARM.Collect$$$$0000000B)
    __rt_final_cpp                           0x080000dd   Thumb Code     0  entry10a.o(.ARM.Collect$$$$0000000D)
    __rt_final_exit                          0x080000dd   Thumb Code     0  entry11a.o(.ARM.Collect$$$$0000000F)
    Reset_Handler                            0x080000e1   Thumb Code     8  startup_gd32e23x.o(.text)
    ADC_CMP_IRQHandler                       0x080000f3   Thumb Code     0  startup_gd32e23x.o(.text)
    DMA_Channel0_IRQHandler                  0x080000f3   Thumb Code     0  startup_gd32e23x.o(.text)
    DMA_Channel1_2_IRQHandler                0x080000f3   Thumb Code     0  startup_gd32e23x.o(.text)
    DMA_Channel3_4_IRQHandler                0x080000f3   Thumb Code     0  startup_gd32e23x.o(.text)
    EXTI0_1_IRQHandler                       0x080000f3   Thumb Code     0  startup_gd32e23x.o(.text)
    EXTI2_3_IRQHandler                       0x080000f3   Thumb Code     0  startup_gd32e23x.o(.text)
    FMC_IRQHandler                           0x080000f3   Thumb Code     0  startup_gd32e23x.o(.text)
    I2C0_ER_IRQHandler                       0x080000f3   Thumb Code     0  startup_gd32e23x.o(.text)
    I2C0_EV_IRQHandler                       0x080000f3   Thumb Code     0  startup_gd32e23x.o(.text)
    I2C1_ER_IRQHandler                       0x080000f3   Thumb Code     0  startup_gd32e23x.o(.text)
    I2C1_EV_IRQHandler                       0x080000f3   Thumb Code     0  startup_gd32e23x.o(.text)
    LVD_IRQHandler                           0x080000f3   Thumb Code     0  startup_gd32e23x.o(.text)
    RCU_IRQHandler                           0x080000f3   Thumb Code     0  startup_gd32e23x.o(.text)
    RTC_IRQHandler                           0x080000f3   Thumb Code     0  startup_gd32e23x.o(.text)
    SPI0_IRQHandler                          0x080000f3   Thumb Code     0  startup_gd32e23x.o(.text)
    SPI1_IRQHandler                          0x080000f3   Thumb Code     0  startup_gd32e23x.o(.text)
    TIMER0_BRK_UP_TRG_COM_IRQHandler         0x080000f3   Thumb Code     0  startup_gd32e23x.o(.text)
    TIMER0_Channel_IRQHandler                0x080000f3   Thumb Code     0  startup_gd32e23x.o(.text)
    TIMER13_IRQHandler                       0x080000f3   Thumb Code     0  startup_gd32e23x.o(.text)
    TIMER14_IRQHandler                       0x080000f3   Thumb Code     0  startup_gd32e23x.o(.text)
    TIMER15_IRQHandler                       0x080000f3   Thumb Code     0  startup_gd32e23x.o(.text)
    TIMER16_IRQHandler                       0x080000f3   Thumb Code     0  startup_gd32e23x.o(.text)
    TIMER2_IRQHandler                        0x080000f3   Thumb Code     0  startup_gd32e23x.o(.text)
    TIMER5_IRQHandler                        0x080000f3   Thumb Code     0  startup_gd32e23x.o(.text)
    USART1_IRQHandler                        0x080000f3   Thumb Code     0  startup_gd32e23x.o(.text)
    WWDGT_IRQHandler                         0x080000f3   Thumb Code     0  startup_gd32e23x.o(.text)
    __aeabi_fmul                             0x080000fd   Thumb Code   122  fmul.o(.text)
    __aeabi_fdiv                             0x08000177   Thumb Code   124  fdiv.o(.text)
    __aeabi_i2f                              0x080001f3   Thumb Code    22  fflti.o(.text)
    __aeabi_ui2f                             0x08000209   Thumb Code    14  ffltui.o(.text)
    __aeabi_f2iz                             0x08000217   Thumb Code    50  ffixi.o(.text)
    __aeabi_f2uiz                            0x08000249   Thumb Code    40  ffixui.o(.text)
    __aeabi_f2d                              0x08000271   Thumb Code    40  f2d.o(.text)
    __aeabi_uldivmod                         0x08000299   Thumb Code    96  uldiv.o(.text)
    __I$use$fp                               0x080002f9   Thumb Code     0  iusefp.o(.text)
    _float_round                             0x080002f9   Thumb Code    16  fepilogue.o(.text)
    _float_epilogue                          0x08000309   Thumb Code   114  fepilogue.o(.text)
    __aeabi_dadd                             0x0800037d   Thumb Code   328  dadd.o(.text)
    __aeabi_dsub                             0x080004c5   Thumb Code    12  dadd.o(.text)
    __aeabi_drsub                            0x080004d1   Thumb Code    12  dadd.o(.text)
    __aeabi_dmul                             0x080004e1   Thumb Code   202  dmul.o(.text)
    __aeabi_ddiv                             0x080005b1   Thumb Code   234  ddiv.o(.text)
    __aeabi_d2ulz                            0x080006a1   Thumb Code    54  dfixul.o(.text)
    __aeabi_cdrcmple                         0x080006e1   Thumb Code    38  cdrcmple.o(.text)
    __scatterload                            0x08000709   Thumb Code    28  init.o(.text)
    __scatterload_rt2                        0x08000709   Thumb Code     0  init.o(.text)
    __aeabi_uidiv$div0                       0x0800072d   Thumb Code     0  uidiv_div0.o(.text)
    __aeabi_uidivmod                         0x0800072d   Thumb Code    62  uidiv_div0.o(.text)
    __aeabi_llsl                             0x0800076b   Thumb Code    32  llshl.o(.text)
    _ll_shift_l                              0x0800076b   Thumb Code     0  llshl.o(.text)
    __aeabi_llsr                             0x0800078b   Thumb Code    34  llushr.o(.text)
    _ll_ushift_r                             0x0800078b   Thumb Code     0  llushr.o(.text)
    __aeabi_lasr                             0x080007ad   Thumb Code    38  llsshr.o(.text)
    _ll_sshift_r                             0x080007ad   Thumb Code     0  llsshr.o(.text)
    _double_round                            0x080007d3   Thumb Code    26  depilogue.o(.text)
    _double_epilogue                         0x080007ed   Thumb Code   164  depilogue.o(.text)
    ADC_Config                               0x08000891   Thumb Code    92  adc.o(.text.ADC_Config)
    CLose_LED                                0x080008f1   Thumb Code    60  led.o(.text.CLose_LED)
    EXTI4_15_IRQHandler                      0x0800092d   Thumb Code   168  ec11.o(.text.EXTI4_15_IRQHandler)
    Get_ADC_Value                            0x080009dd   Thumb Code    62  adc.o(.text.Get_ADC_Value)
    HardFault_Handler                        0x08000a1b   Thumb Code     4  gd32e23x_it.o(.text.HardFault_Handler)
    Init_EC11_EXITGPIO                       0x08000a21   Thumb Code    72  ec11.o(.text.Init_EC11_EXITGPIO)
    Init_EC11_GPIO                           0x08000a69   Thumb Code    24  ec11.o(.text.Init_EC11_GPIO)
    Init_Key_GPIO                            0x08000a81   Thumb Code    24  key.o(.text.Init_Key_GPIO)
    Init_LED_GPIO                            0x08000aa1   Thumb Code    92  led.o(.text.Init_LED_GPIO)
    Init_USART                               0x08000b01   Thumb Code   212  usart.o(.text.Init_USART)
    Init_USART0RecDMA                        0x08000be1   Thumb Code    88  usart.o(.text.Init_USART0RecDMA)
    NMI_Handler                              0x08000c41   Thumb Code     2  gd32e23x_it.o(.text.NMI_Handler)
    Open_LED                                 0x08000c45   Thumb Code    60  led.o(.text.Open_LED)
    PendSV_Handler                           0x08000c85   Thumb Code     2  gd32e23x_it.o(.text.PendSV_Handler)
    SVC_Handler                              0x08000c87   Thumb Code     2  gd32e23x_it.o(.text.SVC_Handler)
    SysTick_Handler                          0x08000c89   Thumb Code     2  gd32e23x_it.o(.text.SysTick_Handler)
    SystemInit                               0x08000c8d   Thumb Code   216  system_gd32e23x.o(.text.SystemInit)
    USART0_IRQHandler                        0x08000d89   Thumb Code    80  usart.o(.text.USART0_IRQHandler)
    adc_calibration_enable                   0x08000ea1   Thumb Code    56  gd32e23x_adc.o(.text.adc_calibration_enable)
    adc_channel_length_config                0x08000ed9   Thumb Code    96  gd32e23x_adc.o(.text.adc_channel_length_config)
    adc_data_alignment_config                0x08000f41   Thumb Code    44  gd32e23x_adc.o(.text.adc_data_alignment_config)
    adc_enable                               0x08000f6d   Thumb Code    24  gd32e23x_adc.o(.text.adc_enable)
    adc_external_trigger_config              0x08000f85   Thumb Code   124  gd32e23x_adc.o(.text.adc_external_trigger_config)
    adc_external_trigger_source_config       0x08001001   Thumb Code    80  gd32e23x_adc.o(.text.adc_external_trigger_source_config)
    adc_flag_get                             0x08001051   Thumb Code    40  gd32e23x_adc.o(.text.adc_flag_get)
    adc_regular_channel_config               0x0800107d   Thumb Code   328  gd32e23x_adc.o(.text.adc_regular_channel_config)
    adc_regular_data_read                    0x080011d9   Thumb Code     8  gd32e23x_adc.o(.text.adc_regular_data_read)
    adc_software_trigger_enable              0x080011e5   Thumb Code    60  gd32e23x_adc.o(.text.adc_software_trigger_enable)
    delay_1ms                                0x08001225   Thumb Code   112  systick.o(.text.delay_1ms)
    delay_1us                                0x08001299   Thumb Code   112  systick.o(.text.delay_1us)
    dma_channel_disable                      0x08001319   Thumb Code    28  gd32e23x_dma.o(.text.dma_channel_disable)
    dma_channel_enable                       0x08001335   Thumb Code    28  gd32e23x_dma.o(.text.dma_channel_enable)
    dma_circulation_disable                  0x08001351   Thumb Code    28  gd32e23x_dma.o(.text.dma_circulation_disable)
    dma_deinit                               0x0800136d   Thumb Code    88  gd32e23x_dma.o(.text.dma_deinit)
    dma_init                                 0x080013c9   Thumb Code   268  gd32e23x_dma.o(.text.dma_init)
    dma_transfer_number_config               0x080014e1   Thumb Code    32  gd32e23x_dma.o(.text.dma_transfer_number_config)
    dma_transfer_number_get                  0x08001501   Thumb Code    24  gd32e23x_dma.o(.text.dma_transfer_number_get)
    exti_init                                0x0800151d   Thumb Code   208  gd32e23x_exti.o(.text.exti_init)
    exti_interrupt_flag_clear                0x080015fd   Thumb Code    16  gd32e23x_exti.o(.text.exti_interrupt_flag_clear)
    exti_interrupt_flag_get                  0x0800160d   Thumb Code    40  gd32e23x_exti.o(.text.exti_interrupt_flag_get)
    fputc                                    0x08001639   Thumb Code    40  usart.o(.text.fputc)
    gpio_af_set                              0x08001669   Thumb Code   192  gd32e23x_gpio.o(.text.gpio_af_set)
    gpio_bit_reset                           0x08001729   Thumb Code    16  gd32e23x_gpio.o(.text.gpio_bit_reset)
    gpio_bit_set                             0x08001739   Thumb Code    16  gd32e23x_gpio.o(.text.gpio_bit_set)
    gpio_input_bit_get                       0x08001749   Thumb Code    42  gd32e23x_gpio.o(.text.gpio_input_bit_get)
    gpio_mode_set                            0x08001773   Thumb Code   142  gd32e23x_gpio.o(.text.gpio_mode_set)
    gpio_output_options_set                  0x08001801   Thumb Code   138  gd32e23x_gpio.o(.text.gpio_output_options_set)
    main                                     0x0800188d   Thumb Code   176  main.o(.text.main)
    nvic_irq_enable                          0x0800194d   Thumb Code    44  gd32e23x_misc.o(.text.nvic_irq_enable)
    nvic_vector_table_set                    0x08001979   Thumb Code    28  gd32e23x_misc.o(.text.nvic_vector_table_set)
    rcu_adc_clock_config                     0x0800199d   Thumb Code   384  gd32e23x_rcu.o(.text.rcu_adc_clock_config)
    rcu_clock_freq_get                       0x08001b29   Thumb Code   724  gd32e23x_rcu.o(.text.rcu_clock_freq_get)
    rcu_periph_clock_enable                  0x08001e21   Thumb Code    36  gd32e23x_rcu.o(.text.rcu_periph_clock_enable)
    rcu_periph_reset_disable                 0x08001e45   Thumb Code    36  gd32e23x_rcu.o(.text.rcu_periph_reset_disable)
    rcu_periph_reset_enable                  0x08001e69   Thumb Code    36  gd32e23x_rcu.o(.text.rcu_periph_reset_enable)
    syscfg_exti_line_config                  0x08001e8d   Thumb Code   164  gd32e23x_syscfg.o(.text.syscfg_exti_line_config)
    systick_clksource_set                    0x0800202d   Thumb Code    40  gd32e23x_misc.o(.text.systick_clksource_set)
    systick_config                           0x08002059   Thumb Code    44  systick.o(.text.systick_config)
    usart_baudrate_set                       0x08002099   Thumb Code   172  gd32e23x_usart.o(.text.usart_baudrate_set)
    usart_data_transmit                      0x08002149   Thumb Code    20  gd32e23x_usart.o(.text.usart_data_transmit)
    usart_deinit                             0x08002161   Thumb Code    68  gd32e23x_usart.o(.text.usart_deinit)
    usart_dma_receive_config                 0x080021b5   Thumb Code    30  gd32e23x_usart.o(.text.usart_dma_receive_config)
    usart_enable                             0x080021d3   Thumb Code    18  gd32e23x_usart.o(.text.usart_enable)
    usart_flag_clear                         0x080021e5   Thumb Code    30  gd32e23x_usart.o(.text.usart_flag_clear)
    usart_flag_get                           0x08002203   Thumb Code    60  gd32e23x_usart.o(.text.usart_flag_get)
    usart_interrupt_enable                   0x0800223f   Thumb Code    34  gd32e23x_usart.o(.text.usart_interrupt_enable)
    usart_interrupt_flag_clear               0x08002261   Thumb Code    60  gd32e23x_usart.o(.text.usart_interrupt_flag_clear)
    usart_interrupt_flag_get                 0x080022a1   Thumb Code    98  gd32e23x_usart.o(.text.usart_interrupt_flag_get)
    usart_parity_config                      0x08002303   Thumb Code    42  gd32e23x_usart.o(.text.usart_parity_config)
    usart_receive_config                     0x0800232d   Thumb Code    30  gd32e23x_usart.o(.text.usart_receive_config)
    usart_stop_bit_set                       0x0800234b   Thumb Code    42  gd32e23x_usart.o(.text.usart_stop_bit_set)
    usart_transmit_config                    0x08002375   Thumb Code    30  gd32e23x_usart.o(.text.usart_transmit_config)
    usart_word_length_set                    0x08002393   Thumb Code    42  gd32e23x_usart.o(.text.usart_word_length_set)
    __0printf                                0x080023bd   Thumb Code    24  printfa.o(i.__0printf)
    __1printf                                0x080023bd   Thumb Code     0  printfa.o(i.__0printf)
    __2printf                                0x080023bd   Thumb Code     0  printfa.o(i.__0printf)
    __c89printf                              0x080023bd   Thumb Code     0  printfa.o(i.__0printf)
    printf                                   0x080023bd   Thumb Code     0  printfa.o(i.__0printf)
    __ARM_clz                                0x080023dd   Thumb Code    46  depilogue.o(i.__ARM_clz)
    __scatterload_copy                       0x0800240b   Thumb Code    14  handlers.o(i.__scatterload_copy)
    __scatterload_null                       0x08002419   Thumb Code     2  handlers.o(i.__scatterload_null)
    __scatterload_zeroinit                   0x0800241b   Thumb Code    14  handlers.o(i.__scatterload_zeroinit)
    Region$$Table$$Base                      0x08002ce0   Number         0  anon$$obj.o(Region$$Table)
    Region$$Table$$Limit                     0x08002d00   Number         0  anon$$obj.o(Region$$Table)
    __stdout                                 0x20000000   Data           4  stdout.o(.data)
    SystemCoreClock                          0x20000004   Data           4  system_gd32e23x.o(.data.SystemCoreClock)
    adcData                                  0x2000000c   Data         400  main.o(.bss.adcData)
    __initial_sp                             0x200006a8   Data           0  startup_gd32e23x.o(STACK)



==============================================================================

Memory Map of the image

  Image Entry point : 0x080000cd

  Load Region LR_IROM1 (Base: 0x08000000, Size: 0x00002d08, Max: 0x00010000, ABSOLUTE)

    Execution Region ER_IROM1 (Exec base: 0x08000000, Load base: 0x08000000, Size: 0x00002d00, Max: 0x00010000, ABSOLUTE)

    Exec Addr    Load Addr    Size         Type   Attr      Idx    E Section Name        Object

    0x08000000   0x08000000   0x000000cc   Data   RO         1182    RESET               startup_gd32e23x.o
    0x080000cc   0x080000cc   0x00000000   Code   RO         1264  * .ARM.Collect$$$$00000000  mc_p.l(entry.o)
    0x080000cc   0x080000cc   0x00000004   Code   RO         1311    .ARM.Collect$$$$00000001  mc_p.l(entry2.o)
    0x080000d0   0x080000d0   0x00000004   Code   RO         1314    .ARM.Collect$$$$00000004  mc_p.l(entry5.o)
    0x080000d4   0x080000d4   0x00000000   Code   RO         1316    .ARM.Collect$$$$00000008  mc_p.l(entry7b.o)
    0x080000d4   0x080000d4   0x00000000   Code   RO         1318    .ARM.Collect$$$$0000000A  mc_p.l(entry8b.o)
    0x080000d4   0x080000d4   0x00000008   Code   RO         1319    .ARM.Collect$$$$0000000B  mc_p.l(entry9a.o)
    0x080000dc   0x080000dc   0x00000000   Code   RO         1321    .ARM.Collect$$$$0000000D  mc_p.l(entry10a.o)
    0x080000dc   0x080000dc   0x00000000   Code   RO         1323    .ARM.Collect$$$$0000000F  mc_p.l(entry11a.o)
    0x080000dc   0x080000dc   0x00000004   Code   RO         1312    .ARM.Collect$$$$00002712  mc_p.l(entry2.o)
    0x080000e0   0x080000e0   0x0000001c   Code   RO         1183    .text               startup_gd32e23x.o
    0x080000fc   0x080000fc   0x0000007a   Code   RO         1297    .text               mf_p.l(fmul.o)
    0x08000176   0x08000176   0x0000007c   Code   RO         1299    .text               mf_p.l(fdiv.o)
    0x080001f2   0x080001f2   0x00000016   Code   RO         1301    .text               mf_p.l(fflti.o)
    0x08000208   0x08000208   0x0000000e   Code   RO         1303    .text               mf_p.l(ffltui.o)
    0x08000216   0x08000216   0x00000032   Code   RO         1305    .text               mf_p.l(ffixi.o)
    0x08000248   0x08000248   0x00000028   Code   RO         1307    .text               mf_p.l(ffixui.o)
    0x08000270   0x08000270   0x00000028   Code   RO         1309    .text               mf_p.l(f2d.o)
    0x08000298   0x08000298   0x00000060   Code   RO         1330    .text               mc_p.l(uldiv.o)
    0x080002f8   0x080002f8   0x00000000   Code   RO         1332    .text               mc_p.l(iusefp.o)
    0x080002f8   0x080002f8   0x00000082   Code   RO         1333    .text               mf_p.l(fepilogue.o)
    0x0800037a   0x0800037a   0x00000002   PAD
    0x0800037c   0x0800037c   0x00000164   Code   RO         1335    .text               mf_p.l(dadd.o)
    0x080004e0   0x080004e0   0x000000d0   Code   RO         1337    .text               mf_p.l(dmul.o)
    0x080005b0   0x080005b0   0x000000f0   Code   RO         1339    .text               mf_p.l(ddiv.o)
    0x080006a0   0x080006a0   0x00000040   Code   RO         1341    .text               mf_p.l(dfixul.o)
    0x080006e0   0x080006e0   0x00000028   Code   RO         1343    .text               mf_p.l(cdrcmple.o)
    0x08000708   0x08000708   0x00000024   Code   RO         1345    .text               mc_p.l(init.o)
    0x0800072c   0x0800072c   0x0000003e   Code   RO         1349    .text               mc_p.l(uidiv_div0.o)
    0x0800076a   0x0800076a   0x00000020   Code   RO         1355    .text               mc_p.l(llshl.o)
    0x0800078a   0x0800078a   0x00000022   Code   RO         1357    .text               mc_p.l(llushr.o)
    0x080007ac   0x080007ac   0x00000026   Code   RO         1359    .text               mc_p.l(llsshr.o)
    0x080007d2   0x080007d2   0x000000be   Code   RO         1361    .text               mf_p.l(depilogue.o)
    0x08000890   0x08000890   0x00000060   Code   RO         1254    .text.ADC_Config    adc.o
    0x080008f0   0x080008f0   0x0000003c   Code   RO         1192    .text.CLose_LED     led.o
    0x0800092c   0x0800092c   0x000000b0   Code   RO         1243    .text.EXTI4_15_IRQHandler  ec11.o
    0x080009dc   0x080009dc   0x0000003e   Code   RO         1256    .text.Get_ADC_Value  adc.o
    0x08000a1a   0x08000a1a   0x00000004   Code   RO            4    .text.HardFault_Handler  gd32e23x_it.o
    0x08000a1e   0x08000a1e   0x00000002   PAD
    0x08000a20   0x08000a20   0x00000048   Code   RO         1241    .text.Init_EC11_EXITGPIO  ec11.o
    0x08000a68   0x08000a68   0x00000018   Code   RO         1239    .text.Init_EC11_GPIO  ec11.o
    0x08000a80   0x08000a80   0x00000020   Code   RO         1203    .text.Init_Key_GPIO  key.o
    0x08000aa0   0x08000aa0   0x00000060   Code   RO         1190    .text.Init_LED_GPIO  led.o
    0x08000b00   0x08000b00   0x000000e0   Code   RO         1216    .text.Init_USART    usart.o
    0x08000be0   0x08000be0   0x00000060   Code   RO         1218    .text.Init_USART0RecDMA  usart.o
    0x08000c40   0x08000c40   0x00000002   Code   RO            2    .text.NMI_Handler   gd32e23x_it.o
    0x08000c42   0x08000c42   0x00000002   PAD
    0x08000c44   0x08000c44   0x00000040   Code   RO         1194    .text.Open_LED      led.o
    0x08000c84   0x08000c84   0x00000002   Code   RO            8    .text.PendSV_Handler  gd32e23x_it.o
    0x08000c86   0x08000c86   0x00000002   Code   RO            6    .text.SVC_Handler   gd32e23x_it.o
    0x08000c88   0x08000c88   0x00000002   Code   RO           10    .text.SysTick_Handler  gd32e23x_it.o
    0x08000c8a   0x08000c8a   0x00000002   PAD
    0x08000c8c   0x08000c8c   0x000000fc   Code   RO         1164    .text.SystemInit    system_gd32e23x.o
    0x08000d88   0x08000d88   0x00000060   Code   RO         1224    .text.USART0_IRQHandler  usart.o
    0x08000de8   0x08000de8   0x00000034   Code   RO          503    .text.__NVIC_EnableIRQ  gd32e23x_misc.o
    0x08000e1c   0x08000e1c   0x00000084   Code   RO          501    .text.__NVIC_SetPriority  gd32e23x_misc.o
    0x08000ea0   0x08000ea0   0x00000038   Code   RO           55    .text.adc_calibration_enable  gd32e23x_adc.o
    0x08000ed8   0x08000ed8   0x00000068   Code   RO           71    .text.adc_channel_length_config  gd32e23x_adc.o
    0x08000f40   0x08000f40   0x0000002c   Code   RO           69    .text.adc_data_alignment_config  gd32e23x_adc.o
    0x08000f6c   0x08000f6c   0x00000018   Code   RO           51    .text.adc_enable    gd32e23x_adc.o
    0x08000f84   0x08000f84   0x0000007c   Code   RO           79    .text.adc_external_trigger_config  gd32e23x_adc.o
    0x08001000   0x08001000   0x00000050   Code   RO           81    .text.adc_external_trigger_source_config  gd32e23x_adc.o
    0x08001050   0x08001050   0x0000002c   Code   RO           89    .text.adc_flag_get  gd32e23x_adc.o
    0x0800107c   0x0800107c   0x0000015c   Code   RO           73    .text.adc_regular_channel_config  gd32e23x_adc.o
    0x080011d8   0x080011d8   0x0000000c   Code   RO           85    .text.adc_regular_data_read  gd32e23x_adc.o
    0x080011e4   0x080011e4   0x00000040   Code   RO           83    .text.adc_software_trigger_enable  gd32e23x_adc.o
    0x08001224   0x08001224   0x00000074   Code   RO           36    .text.delay_1ms     systick.o
    0x08001298   0x08001298   0x00000080   Code   RO           32    .text.delay_1us     systick.o
    0x08001318   0x08001318   0x0000001c   Code   RO          207    .text.dma_channel_disable  gd32e23x_dma.o
    0x08001334   0x08001334   0x0000001c   Code   RO          217    .text.dma_channel_enable  gd32e23x_dma.o
    0x08001350   0x08001350   0x0000001c   Code   RO          211    .text.dma_circulation_disable  gd32e23x_dma.o
    0x0800136c   0x0800136c   0x0000005c   Code   RO          201    .text.dma_deinit    gd32e23x_dma.o
    0x080013c8   0x080013c8   0x00000118   Code   RO          205    .text.dma_init      gd32e23x_dma.o
    0x080014e0   0x080014e0   0x00000020   Code   RO          223    .text.dma_transfer_number_config  gd32e23x_dma.o
    0x08001500   0x08001500   0x0000001c   Code   RO          225    .text.dma_transfer_number_get  gd32e23x_dma.o
    0x0800151c   0x0800151c   0x000000e0   Code   RO          264    .text.exti_init     gd32e23x_exti.o
    0x080015fc   0x080015fc   0x00000010   Code   RO          284    .text.exti_interrupt_flag_clear  gd32e23x_exti.o
    0x0800160c   0x0800160c   0x0000002c   Code   RO          282    .text.exti_interrupt_flag_get  gd32e23x_exti.o
    0x08001638   0x08001638   0x00000030   Code   RO         1222    .text.fputc         usart.o
    0x08001668   0x08001668   0x000000c0   Code   RO          407    .text.gpio_af_set   gd32e23x_gpio.o
    0x08001728   0x08001728   0x00000010   Code   RO          393    .text.gpio_bit_reset  gd32e23x_gpio.o
    0x08001738   0x08001738   0x00000010   Code   RO          391    .text.gpio_bit_set  gd32e23x_gpio.o
    0x08001748   0x08001748   0x0000002a   Code   RO          399    .text.gpio_input_bit_get  gd32e23x_gpio.o
    0x08001772   0x08001772   0x0000008e   Code   RO          387    .text.gpio_mode_set  gd32e23x_gpio.o
    0x08001800   0x08001800   0x0000008a   Code   RO          389    .text.gpio_output_options_set  gd32e23x_gpio.o
    0x0800188a   0x0800188a   0x00000002   PAD
    0x0800188c   0x0800188c   0x000000c0   Code   RO           19    .text.main          main.o
    0x0800194c   0x0800194c   0x0000002c   Code   RO          499    .text.nvic_irq_enable  gd32e23x_misc.o
    0x08001978   0x08001978   0x00000024   Code   RO          513    .text.nvic_vector_table_set  gd32e23x_misc.o
    0x0800199c   0x0800199c   0x0000018c   Code   RO          589    .text.rcu_adc_clock_config  gd32e23x_rcu.o
    0x08001b28   0x08001b28   0x000002f8   Code   RO          627    .text.rcu_clock_freq_get  gd32e23x_rcu.o
    0x08001e20   0x08001e20   0x00000024   Code   RO          563    .text.rcu_periph_clock_enable  gd32e23x_rcu.o
    0x08001e44   0x08001e44   0x00000024   Code   RO          573    .text.rcu_periph_reset_disable  gd32e23x_rcu.o
    0x08001e68   0x08001e68   0x00000024   Code   RO          571    .text.rcu_periph_reset_enable  gd32e23x_rcu.o
    0x08001e8c   0x08001e8c   0x000000b4   Code   RO          824    .text.syscfg_exti_line_config  gd32e23x_syscfg.o
    0x08001f40   0x08001f40   0x000000e4   Code   RO         1170    .text.system_clock_72m_hxtal  system_gd32e23x.o
    0x08002024   0x08002024   0x00000008   Code   RO         1166    .text.system_clock_config  system_gd32e23x.o
    0x0800202c   0x0800202c   0x0000002c   Code   RO          519    .text.systick_clksource_set  gd32e23x_misc.o
    0x08002058   0x08002058   0x00000040   Code   RO           30    .text.systick_config  systick.o
    0x08002098   0x08002098   0x000000b0   Code   RO          996    .text.usart_baudrate_set  gd32e23x_usart.o
    0x08002148   0x08002148   0x00000018   Code   RO         1030    .text.usart_data_transmit  gd32e23x_usart.o
    0x08002160   0x08002160   0x00000054   Code   RO          994    .text.usart_deinit  gd32e23x_usart.o
    0x080021b4   0x080021b4   0x0000001e   Code   RO         1102    .text.usart_dma_receive_config  gd32e23x_usart.o
    0x080021d2   0x080021d2   0x00000012   Code   RO         1004    .text.usart_enable  gd32e23x_usart.o
    0x080021e4   0x080021e4   0x0000001e   Code   RO         1124    .text.usart_flag_clear  gd32e23x_usart.o
    0x08002202   0x08002202   0x0000003c   Code   RO         1122    .text.usart_flag_get  gd32e23x_usart.o
    0x0800223e   0x0800223e   0x00000022   Code   RO         1126    .text.usart_interrupt_enable  gd32e23x_usart.o
    0x08002260   0x08002260   0x00000040   Code   RO         1134    .text.usart_interrupt_flag_clear  gd32e23x_usart.o
    0x080022a0   0x080022a0   0x00000062   Code   RO         1132    .text.usart_interrupt_flag_get  gd32e23x_usart.o
    0x08002302   0x08002302   0x0000002a   Code   RO          998    .text.usart_parity_config  gd32e23x_usart.o
    0x0800232c   0x0800232c   0x0000001e   Code   RO         1010    .text.usart_receive_config  gd32e23x_usart.o
    0x0800234a   0x0800234a   0x0000002a   Code   RO         1002    .text.usart_stop_bit_set  gd32e23x_usart.o
    0x08002374   0x08002374   0x0000001e   Code   RO         1008    .text.usart_transmit_config  gd32e23x_usart.o
    0x08002392   0x08002392   0x0000002a   Code   RO         1000    .text.usart_word_length_set  gd32e23x_usart.o
    0x080023bc   0x080023bc   0x00000020   Code   RO         1270    i.__0printf         mc_p.l(printfa.o)
    0x080023dc   0x080023dc   0x0000002e   Code   RO         1363    i.__ARM_clz         mf_p.l(depilogue.o)
    0x0800240a   0x0800240a   0x0000000e   Code   RO         1367    i.__scatterload_copy  mc_p.l(handlers.o)
    0x08002418   0x08002418   0x00000002   Code   RO         1368    i.__scatterload_null  mc_p.l(handlers.o)
    0x0800241a   0x0800241a   0x0000000e   Code   RO         1369    i.__scatterload_zeroinit  mc_p.l(handlers.o)
    0x08002428   0x08002428   0x00000174   Code   RO         1277    i._fp_digits        mc_p.l(printfa.o)
    0x0800259c   0x0800259c   0x000006ec   Code   RO         1278    i._printf_core      mc_p.l(printfa.o)
    0x08002c88   0x08002c88   0x00000020   Code   RO         1279    i._printf_post_padding  mc_p.l(printfa.o)
    0x08002ca8   0x08002ca8   0x0000002c   Code   RO         1280    i._printf_pre_padding  mc_p.l(printfa.o)
    0x08002cd4   0x08002cd4   0x00000009   Data   RO           22    .rodata.str1.1      main.o
    0x08002cdd   0x08002cdd   0x00000003   PAD
    0x08002ce0   0x08002ce0   0x00000020   Data   RO         1366    Region$$Table       anon$$obj.o


    Execution Region RW_IRAM1 (Exec base: 0x20000000, Load base: 0x08002d00, Size: 0x000006a8, Max: 0x00002000, ABSOLUTE)

    Exec Addr    Load Addr    Size         Type   Attr      Idx    E Section Name        Object

    0x20000000   0x08002d00   0x00000004   Data   RW         1325    .data               mc_p.l(stdout.o)
    0x20000004   0x08002d04   0x00000004   Data   RW         1172    .data.SystemCoreClock  system_gd32e23x.o
    0x20000008        -       0x00000001   Zero   RW         1246    .bss.EXTI4_15_IRQHandler.anticlockwiseNum  ec11.o
    0x20000009        -       0x00000001   Zero   RW         1245    .bss.EXTI4_15_IRQHandler.clockwiseNum  ec11.o
    0x2000000a   0x08002d08   0x00000002   PAD
    0x2000000c        -       0x00000190   Zero   RW           21    .bss.adcData        main.o
    0x2000019c        -       0x00000004   Zero   RW           41    .bss.count_1ms      systick.o
    0x200001a0        -       0x00000004   Zero   RW           40    .bss.count_1us      systick.o
    0x200001a4        -       0x00000001   Zero   RW         1230    .bss.receive_flag   usart.o
    0x200001a5        -       0x00000001   Zero   RW         1229    .bss.rx_count       usart.o
    0x200001a6        -       0x00000100   Zero   RW         1228    .bss.rxbuffer       usart.o
    0x200002a6   0x08002d08   0x00000002   PAD
    0x200002a8        -       0x00000400   Zero   RW         1180    STACK               startup_gd32e23x.o


==============================================================================

Image component sizes


      Code (inc. data)   RO Data    RW Data    ZI Data      Debug   Object Name

       158          4          0          0          0       1791   adc.o
       272          8          0          0          2       2970   ec11.o
       900         40          0          0          0       7614   gd32e23x_adc.o
       516         20          0          0          0       5493   gd32e23x_dma.o
       284         20          0          0          0       3067   gd32e23x_exti.o
       546          0          0          0          0       4208   gd32e23x_gpio.o
        12          0          0          0          0        681   gd32e23x_it.o
       308         24          0          0          0       3866   gd32e23x_misc.o
      1264         48          0          0          0      11233   gd32e23x_rcu.o
       180         16          0          0          0       2721   gd32e23x_syscfg.o
       804         28          0          0          0      13614   gd32e23x_usart.o
        32          8          0          0          0       1754   key.o
       220          8          0          0          0       1439   led.o
       192         16          9          0        400        861   main.o
        28          8        204          0       1024        688   startup_gd32e23x.o
       488         56          0          4          0       1894   system_gd32e23x.o
       308         40          0          0          8       1733   systick.o
       464         44          0          0        258       4900   usart.o

    ----------------------------------------------------------------------
      6984        388        248          4       1696      70527   Object Totals
         0          0         32          0          0          0   (incl. Generated)
         8          0          3          0          4          0   (incl. Padding)

    ----------------------------------------------------------------------

      Code (inc. data)   RO Data    RW Data    ZI Data      Debug   Library Member Name

         0          0          0          0          0          0   entry.o
         0          0          0          0          0          0   entry10a.o
         0          0          0          0          0          0   entry11a.o
         8          4          0          0          0          0   entry2.o
         4          0          0          0          0          0   entry5.o
         0          0          0          0          0          0   entry7b.o
         0          0          0          0          0          0   entry8b.o
         8          4          0          0          0          0   entry9a.o
        30          0          0          0          0          0   handlers.o
        36          8          0          0          0         68   init.o
         0          0          0          0          0          0   iusefp.o
        32          0          0          0          0         68   llshl.o
        38          0          0          0          0         68   llsshr.o
        34          0          0          0          0         68   llushr.o
      2252         98          0          0          0        412   printfa.o
         0          0          0          4          0          0   stdout.o
        62          0          0          0          0         72   uidiv_div0.o
        96          0          0          0          0         84   uldiv.o
        40          2          0          0          0         68   cdrcmple.o
       356          4          0          0          0        140   dadd.o
       240          6          0          0          0         84   ddiv.o
       236          0          0          0          0        216   depilogue.o
        64         10          0          0          0         68   dfixul.o
       208          6          0          0          0         88   dmul.o
        40          0          0          0          0         60   f2d.o
       124          0          0          0          0         72   fdiv.o
       130          0          0          0          0        144   fepilogue.o
        50          0          0          0          0         60   ffixi.o
        40          0          0          0          0         60   ffixui.o
        22          0          0          0          0         68   fflti.o
        14          0          0          0          0         68   ffltui.o
       122          0          0          0          0         72   fmul.o

    ----------------------------------------------------------------------
      4288        142          0          4          0       2108   Library Totals
         2          0          0          0          0          0   (incl. Padding)

    ----------------------------------------------------------------------

      Code (inc. data)   RO Data    RW Data    ZI Data      Debug   Library Name

      2600        114          0          4          0        840   mc_p.l
      1686         28          0          0          0       1268   mf_p.l

    ----------------------------------------------------------------------
      4288        142          0          4          0       2108   Library Totals

    ----------------------------------------------------------------------

==============================================================================


      Code (inc. data)   RO Data    RW Data    ZI Data      Debug   

     11272        530        248          8       1696      71447   Grand Totals
     11272        530        248          8       1696      71447   ELF Image Totals
     11272        530        248          8          0          0   ROM Totals

==============================================================================

    Total RO  Size (Code + RO Data)                11520 (  11.25kB)
    Total RW  Size (RW Data + ZI Data)              1704 (   1.66kB)
    Total ROM Size (Code + RO Data + RW Data)      11528 (  11.26kB)

==============================================================================

