Component: Arm Compiler for Embedded 6.19 Tool: armlink [5e73cb00]

==============================================================================

Section Cross References

    gd32e23x_it.o(.ARM.exidx.text.NMI_Handler) refers to gd32e23x_it.o(.text.NMI_Handler) for [Anonymous Symbol]
    gd32e23x_it.o(.ARM.exidx.text.HardFault_Handler) refers to gd32e23x_it.o(.text.HardFault_Handler) for [Anonymous Symbol]
    gd32e23x_it.o(.ARM.exidx.text.SVC_Handler) refers to gd32e23x_it.o(.text.SVC_Handler) for [Anonymous Symbol]
    gd32e23x_it.o(.ARM.exidx.text.PendSV_Handler) refers to gd32e23x_it.o(.text.PendSV_Handler) for [Anonymous Symbol]
    gd32e23x_it.o(.ARM.exidx.text.SysTick_Handler) refers to gd32e23x_it.o(.text.SysTick_Handler) for [Anonymous Symbol]
    main.o(.text.main) refers to systick.o(.text.systick_config) for systick_config
    main.o(.text.main) refers to led.o(.text.Init_LED_GPIO) for Init_LED_GPIO
    main.o(.text.main) refers to key.o(.text.Init_Key_GPIO) for Init_Key_GPIO
    main.o(.text.main) refers to usart.o(.text.Init_USART) for Init_USART
    main.o(.text.main) refers to freq.o(.text.Init_FreqTimer) for Init_FreqTimer
    main.o(.ARM.exidx.text.main) refers to main.o(.text.main) for [Anonymous Symbol]
    systick.o(.text.systick_config) refers to gd32e23x_misc.o(.text.systick_clksource_set) for systick_clksource_set
    systick.o(.text.systick_config) refers to ffltui.o(.text) for __aeabi_ui2f
    systick.o(.text.systick_config) refers to fdiv.o(.text) for __aeabi_fdiv
    systick.o(.text.systick_config) refers to fmul.o(.text) for __aeabi_fmul
    systick.o(.text.systick_config) refers to system_gd32e23x.o(.data.SystemCoreClock) for SystemCoreClock
    systick.o(.text.systick_config) refers to systick.o(.bss.count_1us) for [Anonymous Symbol]
    systick.o(.text.systick_config) refers to systick.o(.bss.count_1ms) for [Anonymous Symbol]
==============================================================================

Removing Unused input sections from the image.

    Removing gd32e23x_it.o(.text), (0 bytes).
    Removing gd32e23x_it.o(.ARM.exidx.text.NMI_Handler), (8 bytes).
    Removing gd32e23x_it.o(.ARM.exidx.text.HardFault_Handler), (8 bytes).
    Removing gd32e23x_it.o(.ARM.exidx.text.SVC_Handler), (8 bytes).
    Removing gd32e23x_it.o(.ARM.exidx.text.PendSV_Handler), (8 bytes).
    Removing gd32e23x_it.o(.ARM.exidx.text.SysTick_Handler), (8 bytes).
    Removing main.o(.text), (0 bytes).
    Removing main.o(.ARM.exidx.text.main), (8 bytes).
    Removing main.o(.ARM.use_no_argv), (4 bytes).
    Removing systick.o(.text), (0 bytes).
    Removing systick.o(.ARM.exidx.text.systick_config), (8 bytes).
    Removing systick.o(.text.delay_1us), (128 bytes).
    Removing systick.o(.ARM.exidx.text.delay_1us), (8 bytes).
    Removing systick.o(.text.delay_us), (128 bytes).
    Removing systick.o(.ARM.exidx.text.delay_us), (8 bytes).
    Removing systick.o(.text.delay_1ms), (128 bytes).
    Removing systick.o(.ARM.exidx.text.delay_1ms), (8 bytes).
    Removing systick.o(.text.delay_ms), (128 bytes).
==============================================================================

Image Symbol Table

    Local Symbols

    Symbol Name                              Value     Ov Type        Size  Object(Section)

    ../Firmware/CMSIS/GD/GD32E23x/Source/ARM/startup_gd32e23x.s 0x00000000   Number         0  startup_gd32e23x.o ABSOLUTE
    ../clib/division.s                       0x00000000   Number         0  aeabi_sdiv.o ABSOLUTE
    ../clib/division.s                       0x00000000   Number         0  aeabi_sdiv_div0.o ABSOLUTE
    ../clib/microlib/division.c              0x00000000   Number         0  uidiv.o ABSOLUTE
    ../clib/microlib/division.c              0x00000000   Number         0  uldiv.o ABSOLUTE
    ../clib/microlib/division.c              0x00000000   Number         0  uidiv_div0.o ABSOLUTE
    ../clib/microlib/division.c              0x00000000   Number         0  idiv_div0.o ABSOLUTE
    ../clib/microlib/division.c              0x00000000   Number         0  idiv0.o ABSOLUTE
    ../clib/microlib/init/entry.s            0x00000000   Number         0  entry.o ABSOLUTE
    ../clib/microlib/init/entry.s            0x00000000   Number         0  entry2.o ABSOLUTE
    ../clib/microlib/init/entry.s            0x00000000   Number         0  entry5.o ABSOLUTE
    ../clib/microlib/init/entry.s            0x00000000   Number         0  entry7a.o ABSOLUTE
    ../clib/microlib/init/entry.s            0x00000000   Number         0  entry7b.o ABSOLUTE
    ../clib/microlib/init/entry.s            0x00000000   Number         0  entry8a.o ABSOLUTE
    ../clib/microlib/init/entry.s            0x00000000   Number         0  entry8b.o ABSOLUTE
    ../clib/microlib/init/entry.s            0x00000000   Number         0  entry9a.o ABSOLUTE
    ../clib/microlib/init/entry.s            0x00000000   Number         0  entry9b.o ABSOLUTE
    ../clib/microlib/init/entry.s            0x00000000   Number         0  entry10a.o ABSOLUTE
    ../clib/microlib/init/entry.s            0x00000000   Number         0  entry10b.o ABSOLUTE
    ../clib/microlib/init/entry.s            0x00000000   Number         0  entry11a.o ABSOLUTE
    ../clib/microlib/init/entry.s            0x00000000   Number         0  entry11b.o ABSOLUTE
    ../clib/microlib/longlong.c              0x00000000   Number         0  llshl.o ABSOLUTE
    ../clib/microlib/longlong.c              0x00000000   Number         0  llushr.o ABSOLUTE
    ../clib/microlib/longlong.c              0x00000000   Number         0  llsshr.o ABSOLUTE
    ../clib/microlib/printf/printf.c         0x00000000   Number         0  printfa.o ABSOLUTE
    ../clib/microlib/stdio/streams.c         0x00000000   Number         0  stdout.o ABSOLUTE
    ../clib/microlib/string/memset.c         0x00000000   Number         0  memseta.o ABSOLUTE
    ../clib/microlib/stubs.s                 0x00000000   Number         0  iusefp.o ABSOLUTE
    ../fplib/microlib/f2d.c                  0x00000000   Number         0  f2d.o ABSOLUTE
    ../fplib/microlib/fpadd.c                0x00000000   Number         0  dadd.o ABSOLUTE
    ../fplib/microlib/fpdiv.c                0x00000000   Number         0  fdiv.o ABSOLUTE
    ../fplib/microlib/fpdiv.c                0x00000000   Number         0  ddiv.o ABSOLUTE
    ../fplib/microlib/fpepilogue.c           0x00000000   Number         0  fepilogue.o ABSOLUTE
    ../fplib/microlib/fpepilogue.c           0x00000000   Number         0  depilogue.o ABSOLUTE
    ../fplib/microlib/fpfix.c                0x00000000   Number         0  ffixui.o ABSOLUTE
    ../fplib/microlib/fpfix.c                0x00000000   Number         0  dfixul.o ABSOLUTE
    ../fplib/microlib/fpflt.c                0x00000000   Number         0  ffltui.o ABSOLUTE
    ../fplib/microlib/fpmul.c                0x00000000   Number         0  fmul.o ABSOLUTE
    ../fplib/microlib/fpmul.c                0x00000000   Number         0  dmul.o ABSOLUTE
    cdrcmple.s                               0x00000000   Number         0  cdrcmple.o ABSOLUTE
    dc.s                                     0x00000000   Number         0  dc.o ABSOLUTE
    freq.c                                   0x00000000   Number         0  freq.o ABSOLUTE
    gd32e23x_adc.c                           0x00000000   Number         0  gd32e23x_adc.o ABSOLUTE
    gd32e23x_cmp.c                           0x00000000   Number         0  gd32e23x_cmp.o ABSOLUTE
    gd32e23x_crc.c                           0x00000000   Number         0  gd32e23x_crc.o ABSOLUTE
    gd32e23x_dbg.c                           0x00000000   Number         0  gd32e23x_dbg.o ABSOLUTE
    gd32e23x_dma.c                           0x00000000   Number         0  gd32e23x_dma.o ABSOLUTE
    gd32e23x_exti.c                          0x00000000   Number         0  gd32e23x_exti.o ABSOLUTE
    gd32e23x_fmc.c                           0x00000000   Number         0  gd32e23x_fmc.o ABSOLUTE
    gd32e23x_fwdgt.c                         0x00000000   Number         0  gd32e23x_fwdgt.o ABSOLUTE
    gd32e23x_gpio.c                          0x00000000   Number         0  gd32e23x_gpio.o ABSOLUTE
    gd32e23x_i2c.c                           0x00000000   Number         0  gd32e23x_i2c.o ABSOLUTE
    gd32e23x_it.c                            0x00000000   Number         0  gd32e23x_it.o ABSOLUTE
    gd32e23x_misc.c                          0x00000000   Number         0  gd32e23x_misc.o ABSOLUTE
    gd32e23x_pmu.c                           0x00000000   Number         0  gd32e23x_pmu.o ABSOLUTE
    gd32e23x_rcu.c                           0x00000000   Number         0  gd32e23x_rcu.o ABSOLUTE
    gd32e23x_rtc.c                           0x00000000   Number         0  gd32e23x_rtc.o ABSOLUTE
    gd32e23x_spi.c                           0x00000000   Number         0  gd32e23x_spi.o ABSOLUTE
    gd32e23x_syscfg.c                        0x00000000   Number         0  gd32e23x_syscfg.o ABSOLUTE
    gd32e23x_timer.c                         0x00000000   Number         0  gd32e23x_timer.o ABSOLUTE
    gd32e23x_usart.c                         0x00000000   Number         0  gd32e23x_usart.o ABSOLUTE
    gd32e23x_wwdgt.c                         0x00000000   Number         0  gd32e23x_wwdgt.o ABSOLUTE
    handlers.s                               0x00000000   Number         0  handlers.o ABSOLUTE
    init.s                                   0x00000000   Number         0  init.o ABSOLUTE
    key.c                                    0x00000000   Number         0  key.o ABSOLUTE
    led.c                                    0x00000000   Number         0  led.o ABSOLUTE
    main.c                                   0x00000000   Number         0  main.o ABSOLUTE
    system_gd32e23x.c                        0x00000000   Number         0  system_gd32e23x.o ABSOLUTE
    systick.c                                0x00000000   Number         0  systick.o ABSOLUTE
    timer.c                                  0x00000000   Number         0  timer.o ABSOLUTE
    usart.c                                  0x00000000   Number         0  usart.o ABSOLUTE
    RESET                                    0x08000000   Section      204  startup_gd32e23x.o(RESET)
    .ARM.Collect$$$$00000000                 0x080000cc   Section        0  entry.o(.ARM.Collect$$$$00000000)
    .ARM.Collect$$$$00000001                 0x080000cc   Section        4  entry2.o(.ARM.Collect$$$$00000001)
    .ARM.Collect$$$$00000004                 0x080000d0   Section        4  entry5.o(.ARM.Collect$$$$00000004)
    .ARM.Collect$$$$00000008                 0x080000d4   Section        0  entry7b.o(.ARM.Collect$$$$00000008)
    .ARM.Collect$$$$0000000A                 0x080000d4   Section        0  entry8b.o(.ARM.Collect$$$$0000000A)
    .ARM.Collect$$$$0000000B                 0x080000d4   Section        8  entry9a.o(.ARM.Collect$$$$0000000B)
    __lit__00000000                          0x080000dc   Data           4  entry2.o(.ARM.Collect$$$$00002712)
    .ARM.Collect$$$$0000000D                 0x080000dc   Section        0  entry10a.o(.ARM.Collect$$$$0000000D)
    .ARM.Collect$$$$0000000F                 0x080000dc   Section        0  entry11a.o(.ARM.Collect$$$$0000000F)
    .ARM.Collect$$$$00002712                 0x080000dc   Section        4  entry2.o(.ARM.Collect$$$$00002712)
    .text                                    0x080000e0   Section       28  startup_gd32e23x.o(.text)
    .text                                    0x080000fc   Section        0  fmul.o(.text)
    .text                                    0x08000176   Section        0  fdiv.o(.text)
    .text                                    0x080001f2   Section        0  ffltui.o(.text)
    .text                                    0x08000200   Section        0  f2d.o(.text)
    .text                                    0x08000228   Section        0  uldiv.o(.text)
    .text                                    0x08000288   Section        0  iusefp.o(.text)
    .text                                    0x08000288   Section        0  fepilogue.o(.text)
    .text                                    0x0800030c   Section        0  dadd.o(.text)
    .text                                    0x08000470   Section        0  dmul.o(.text)
    .text                                    0x08000540   Section        0  ddiv.o(.text)
    .text                                    0x08000630   Section        0  dfixul.o(.text)
    .text                                    0x08000670   Section       40  cdrcmple.o(.text)
    .text                                    0x08000698   Section       36  init.o(.text)
    .text                                    0x080006bc   Section        0  uidiv_div0.o(.text)
    .text                                    0x080006fa   Section        0  llshl.o(.text)
    .text                                    0x0800071a   Section        0  llushr.o(.text)
    .text                                    0x0800073c   Section        0  llsshr.o(.text)
    .text                                    0x08000762   Section        0  depilogue.o(.text)
    [Anonymous Symbol]                       0x08000820   Section        0  led.o(.text.CLose_LED)
    [Anonymous Symbol]                       0x0800085c   Section        0  gd32e23x_it.o(.text.HardFault_Handler)
    [Anonymous Symbol]                       0x08000860   Section        0  freq.o(.text.Init_FreqTimer)
    __arm_cp.0_1                             0x0800090c   Number         4  freq.o(.text.Init_FreqTimer)
    [Anonymous Symbol]                       0x08000910   Section        0  key.o(.text.Init_Key_GPIO)
    __arm_cp.0_0                             0x08000928   Number         4  key.o(.text.Init_Key_GPIO)
    __arm_cp.0_1                             0x0800092c   Number         4  key.o(.text.Init_Key_GPIO)
    [Anonymous Symbol]                       0x08000930   Section        0  led.o(.text.Init_LED_GPIO)
    __arm_cp.0_0                             0x0800098c   Number         4  led.o(.text.Init_LED_GPIO)
    __arm_cp.0_1                             0x08000990   Number         4  led.o(.text.Init_LED_GPIO)
    [Anonymous Symbol]                       0x08000994   Section        0  usart.o(.text.Init_USART)
    __arm_cp.0_0                             0x08000a68   Number         4  usart.o(.text.Init_USART)
    __arm_cp.0_1                             0x08000a6c   Number         4  usart.o(.text.Init_USART)
    __arm_cp.0_3                             0x08000a70   Number         4  usart.o(.text.Init_USART)
    [Anonymous Symbol]                       0x08000a74   Section        0  gd32e23x_it.o(.text.NMI_Handler)
    [Anonymous Symbol]                       0x08000a76   Section        0  gd32e23x_it.o(.text.PendSV_Handler)
    [Anonymous Symbol]                       0x08000a78   Section        0  gd32e23x_it.o(.text.SVC_Handler)
    [Anonymous Symbol]                       0x08000a7a   Section        0  gd32e23x_it.o(.text.SysTick_Handler)
    [Anonymous Symbol]                       0x08000a7c   Section        0  system_gd32e23x.o(.text.SystemInit)
    __arm_cp.0_0                             0x08000b54   Number         4  system_gd32e23x.o(.text.SystemInit)
    __arm_cp.0_1                             0x08000b58   Number         4  system_gd32e23x.o(.text.SystemInit)
    __arm_cp.0_2                             0x08000b5c   Number         4  system_gd32e23x.o(.text.SystemInit)
    __arm_cp.0_3                             0x08000b60   Number         4  system_gd32e23x.o(.text.SystemInit)
    __arm_cp.0_4                             0x08000b64   Number         4  system_gd32e23x.o(.text.SystemInit)
    __arm_cp.0_5                             0x08000b68   Number         4  system_gd32e23x.o(.text.SystemInit)
    __arm_cp.0_6                             0x08000b6c   Number         4  system_gd32e23x.o(.text.SystemInit)
    __arm_cp.0_7                             0x08000b70   Number         4  system_gd32e23x.o(.text.SystemInit)
    __arm_cp.0_8                             0x08000b74   Number         4  system_gd32e23x.o(.text.SystemInit)
    [Anonymous Symbol]                       0x08000b78   Section        0  freq.o(.text.TIMER2_IRQHandler)
    __arm_cp.1_0                             0x08000c40   Number         4  freq.o(.text.TIMER2_IRQHandler)
    __arm_cp.1_1                             0x08000c44   Number         4  freq.o(.text.TIMER2_IRQHandler)
    __arm_cp.1_2                             0x08000c48   Number         4  freq.o(.text.TIMER2_IRQHandler)
    __arm_cp.1_3                             0x08000c4c   Number         4  freq.o(.text.TIMER2_IRQHandler)
    __arm_cp.1_4                             0x08000c50   Number         4  freq.o(.text.TIMER2_IRQHandler)
    __arm_cp.1_5                             0x08000c54   Number         4  freq.o(.text.TIMER2_IRQHandler)
    __arm_cp.1_6                             0x08000c58   Number         4  freq.o(.text.TIMER2_IRQHandler)
    __arm_cp.1_7                             0x08000c5c   Number         4  freq.o(.text.TIMER2_IRQHandler)
    __arm_cp.1_8                             0x08000c60   Number         4  freq.o(.text.TIMER2_IRQHandler)
    [Anonymous Symbol]                       0x08000c64   Section        0  usart.o(.text.USART0_IRQHandler)
    __arm_cp.4_0                             0x08000cb4   Number         4  usart.o(.text.USART0_IRQHandler)
    __arm_cp.4_1                             0x08000cb8   Number         4  usart.o(.text.USART0_IRQHandler)
    __arm_cp.4_2                             0x08000cbc   Number         4  usart.o(.text.USART0_IRQHandler)
    __arm_cp.4_3                             0x08000cc0   Number         4  usart.o(.text.USART0_IRQHandler)
    __NVIC_EnableIRQ                         0x08000cc5   Thumb Code    48  gd32e23x_misc.o(.text.__NVIC_EnableIRQ)
    [Anonymous Symbol]                       0x08000cc4   Section        0  gd32e23x_misc.o(.text.__NVIC_EnableIRQ)
    __arm_cp.2_0                             0x08000cf4   Number         4  gd32e23x_misc.o(.text.__NVIC_EnableIRQ)
    __NVIC_SetPriority                       0x08000cf9   Thumb Code   124  gd32e23x_misc.o(.text.__NVIC_SetPriority)
    [Anonymous Symbol]                       0x08000cf8   Section        0  gd32e23x_misc.o(.text.__NVIC_SetPriority)
    __arm_cp.1_0                             0x08000d74   Number         4  gd32e23x_misc.o(.text.__NVIC_SetPriority)
    __arm_cp.1_1                             0x08000d78   Number         4  gd32e23x_misc.o(.text.__NVIC_SetPriority)
    [Anonymous Symbol]                       0x08000d7c   Section        0  gd32e23x_dma.o(.text.dma_channel_disable)
    [Anonymous Symbol]                       0x08000d98   Section        0  gd32e23x_dma.o(.text.dma_channel_enable)
    __arm_cp.8_0                             0x08000db4   Number         4  gd32e23x_dma.o(.text.dma_channel_enable)
    [Anonymous Symbol]                       0x08000db8   Section        0  gd32e23x_dma.o(.text.dma_transfer_number_config)
    [Anonymous Symbol]                       0x08000dd8   Section        0  gd32e23x_dma.o(.text.dma_transfer_number_get)
    __arm_cp.12_0                            0x08000df0   Number         4  gd32e23x_dma.o(.text.dma_transfer_number_get)
    [Anonymous Symbol]                       0x08000df4   Section        0  usart.o(.text.fputc)
    __arm_cp.3_0                             0x08000e1c   Number         4  usart.o(.text.fputc)
    __arm_cp.3_1                             0x08000e20   Number         4  usart.o(.text.fputc)
    [Anonymous Symbol]                       0x08000e24   Section        0  gd32e23x_gpio.o(.text.gpio_af_set)
    [Anonymous Symbol]                       0x08000ee4   Section        0  gd32e23x_gpio.o(.text.gpio_bit_set)
    [Anonymous Symbol]                       0x08000ef4   Section        0  gd32e23x_gpio.o(.text.gpio_mode_set)
    [Anonymous Symbol]                       0x08000f82   Section        0  gd32e23x_gpio.o(.text.gpio_output_options_set)
    [Anonymous Symbol]                       0x0800100c   Section        0  main.o(.text.main)
    [Anonymous Symbol]                       0x08001034   Section        0  gd32e23x_misc.o(.text.nvic_irq_enable)
    [Anonymous Symbol]                       0x08001060   Section        0  gd32e23x_misc.o(.text.nvic_vector_table_set)
    __arm_cp.7_0                             0x0800107c   Number         4  gd32e23x_misc.o(.text.nvic_vector_table_set)
    __arm_cp.7_1                             0x08001080   Number         4  gd32e23x_misc.o(.text.nvic_vector_table_set)
    [Anonymous Symbol]                       0x08001084   Section        0  gd32e23x_rcu.o(.text.rcu_clock_freq_get)
    __arm_cp.33_0                            0x08001358   Number         4  gd32e23x_rcu.o(.text.rcu_clock_freq_get)
    __arm_cp.33_1                            0x0800135c   Number         4  gd32e23x_rcu.o(.text.rcu_clock_freq_get)
    __arm_cp.33_2                            0x08001360   Number         4  gd32e23x_rcu.o(.text.rcu_clock_freq_get)
    __arm_cp.33_3                            0x08001364   Number         4  gd32e23x_rcu.o(.text.rcu_clock_freq_get)
    __arm_cp.33_4                            0x08001368   Number         4  gd32e23x_rcu.o(.text.rcu_clock_freq_get)
    __arm_cp.33_5                            0x0800136c   Number         4  gd32e23x_rcu.o(.text.rcu_clock_freq_get)
    __arm_cp.33_6                            0x08001370   Number         4  gd32e23x_rcu.o(.text.rcu_clock_freq_get)
    __arm_cp.33_7                            0x08001374   Number         4  gd32e23x_rcu.o(.text.rcu_clock_freq_get)
    __arm_cp.33_8                            0x08001378   Number         4  gd32e23x_rcu.o(.text.rcu_clock_freq_get)
    [Anonymous Symbol]                       0x0800137c   Section        0  gd32e23x_rcu.o(.text.rcu_periph_clock_enable)
    [Anonymous Symbol]                       0x080013a0   Section        0  gd32e23x_rcu.o(.text.rcu_periph_reset_disable)
    [Anonymous Symbol]                       0x080013c4   Section        0  gd32e23x_rcu.o(.text.rcu_periph_reset_enable)
    system_clock_72m_hxtal                   0x080013e9   Thumb Code   208  system_gd32e23x.o(.text.system_clock_72m_hxtal)
    [Anonymous Symbol]                       0x080013e8   Section        0  system_gd32e23x.o(.text.system_clock_72m_hxtal)
    __arm_cp.3_0                             0x080014b8   Number         4  system_gd32e23x.o(.text.system_clock_72m_hxtal)
    __arm_cp.3_1                             0x080014bc   Number         4  system_gd32e23x.o(.text.system_clock_72m_hxtal)
    __arm_cp.3_2                             0x080014c0   Number         4  system_gd32e23x.o(.text.system_clock_72m_hxtal)
    __arm_cp.3_3                             0x080014c4   Number         4  system_gd32e23x.o(.text.system_clock_72m_hxtal)
    __arm_cp.3_4                             0x080014c8   Number         4  system_gd32e23x.o(.text.system_clock_72m_hxtal)
    system_clock_config                      0x080014cd   Thumb Code     8  system_gd32e23x.o(.text.system_clock_config)
    [Anonymous Symbol]                       0x080014cc   Section        0  system_gd32e23x.o(.text.system_clock_config)
    [Anonymous Symbol]                       0x080014d4   Section        0  gd32e23x_misc.o(.text.systick_clksource_set)
    __arm_cp.10_0                            0x080014fc   Number         4  gd32e23x_misc.o(.text.systick_clksource_set)
    [Anonymous Symbol]                       0x08001500   Section        0  systick.o(.text.systick_config)
    __arm_cp.0_0                             0x0800152c   Number         4  systick.o(.text.systick_config)
    __arm_cp.0_1                             0x08001530   Number         4  systick.o(.text.systick_config)
    __arm_cp.0_2                             0x08001534   Number         4  systick.o(.text.systick_config)
    __arm_cp.0_3                             0x08001538   Number         4  systick.o(.text.systick_config)
    __arm_cp.0_4                             0x0800153c   Number         4  systick.o(.text.systick_config)
    [Anonymous Symbol]                       0x08001540   Section        0  gd32e23x_timer.o(.text.timer_auto_reload_shadow_enable)
    [Anonymous Symbol]                       0x08001554   Section        0  gd32e23x_timer.o(.text.timer_channel_capture_value_register_read)
    [Anonymous Symbol]                       0x080015ac   Section        0  gd32e23x_timer.o(.text.timer_channel_input_capture_prescaler_config)
    [Anonymous Symbol]                       0x0800164a   Section        0  gd32e23x_timer.o(.text.timer_channel_input_struct_para_init)
    [Anonymous Symbol]                       0x08001668   Section        0  gd32e23x_timer.o(.text.timer_deinit)
    __arm_cp.0_1                             0x08001730   Number         4  gd32e23x_timer.o(.text.timer_deinit)
    __arm_cp.0_7                             0x08001734   Number         4  gd32e23x_timer.o(.text.timer_deinit)
    __arm_cp.0_8                             0x08001738   Number         4  gd32e23x_timer.o(.text.timer_deinit)
    __arm_cp.0_9                             0x0800173c   Number         4  gd32e23x_timer.o(.text.timer_deinit)
    __arm_cp.0_10                            0x08001740   Number         4  gd32e23x_timer.o(.text.timer_deinit)
    __arm_cp.0_11                            0x08001744   Number         4  gd32e23x_timer.o(.text.timer_deinit)
    [Anonymous Symbol]                       0x08001748   Section        0  gd32e23x_timer.o(.text.timer_enable)
    [Anonymous Symbol]                       0x0800175c   Section        0  gd32e23x_timer.o(.text.timer_init)
    __arm_cp.2_0                             0x08001840   Number         4  gd32e23x_timer.o(.text.timer_init)
    __arm_cp.2_1                             0x08001844   Number         4  gd32e23x_timer.o(.text.timer_init)
    __arm_cp.2_2                             0x08001848   Number         4  gd32e23x_timer.o(.text.timer_init)
    __arm_cp.2_3                             0x0800184c   Number         4  gd32e23x_timer.o(.text.timer_init)
    __arm_cp.2_4                             0x08001850   Number         4  gd32e23x_timer.o(.text.timer_init)
    __arm_cp.2_5                             0x08001854   Number         4  gd32e23x_timer.o(.text.timer_init)
    [Anonymous Symbol]                       0x08001858   Section        0  gd32e23x_timer.o(.text.timer_input_capture_config)
    [Anonymous Symbol]                       0x08001a16   Section        0  gd32e23x_timer.o(.text.timer_interrupt_enable)
    [Anonymous Symbol]                       0x08001a2a   Section        0  gd32e23x_timer.o(.text.timer_interrupt_flag_clear)
    [Anonymous Symbol]                       0x08001a3c   Section        0  gd32e23x_timer.o(.text.timer_interrupt_flag_get)
    [Anonymous Symbol]                       0x08001a78   Section        0  gd32e23x_timer.o(.text.timer_struct_para_init)
    __arm_cp.1_0                             0x08001a9c   Number         4  gd32e23x_timer.o(.text.timer_struct_para_init)
    [Anonymous Symbol]                       0x08001aa0   Section        0  gd32e23x_usart.o(.text.usart_baudrate_set)
    __arm_cp.1_2                             0x08001b4c   Number         4  gd32e23x_usart.o(.text.usart_baudrate_set)
    [Anonymous Symbol]                       0x08001b50   Section        0  gd32e23x_usart.o(.text.usart_data_transmit)
    __arm_cp.18_0                            0x08001b64   Number         4  gd32e23x_usart.o(.text.usart_data_transmit)
    [Anonymous Symbol]                       0x08001b68   Section        0  gd32e23x_usart.o(.text.usart_deinit)
    __arm_cp.0_0                             0x08001bac   Number         4  gd32e23x_usart.o(.text.usart_deinit)
    __arm_cp.0_1                             0x08001bb0   Number         4  gd32e23x_usart.o(.text.usart_deinit)
    __arm_cp.0_2                             0x08001bb4   Number         4  gd32e23x_usart.o(.text.usart_deinit)
    __arm_cp.0_3                             0x08001bb8   Number         4  gd32e23x_usart.o(.text.usart_deinit)
    [Anonymous Symbol]                       0x08001bbc   Section        0  gd32e23x_usart.o(.text.usart_dma_receive_config)
    [Anonymous Symbol]                       0x08001bda   Section        0  gd32e23x_usart.o(.text.usart_enable)
    [Anonymous Symbol]                       0x08001bec   Section        0  gd32e23x_usart.o(.text.usart_flag_clear)
    [Anonymous Symbol]                       0x08001c0a   Section        0  gd32e23x_usart.o(.text.usart_flag_get)
    [Anonymous Symbol]                       0x08001c46   Section        0  gd32e23x_usart.o(.text.usart_interrupt_enable)
    [Anonymous Symbol]                       0x08001c68   Section        0  gd32e23x_usart.o(.text.usart_interrupt_flag_clear)
    __arm_cp.70_0                            0x08001ca4   Number         4  gd32e23x_usart.o(.text.usart_interrupt_flag_clear)
    [Anonymous Symbol]                       0x08001ca8   Section        0  gd32e23x_usart.o(.text.usart_interrupt_flag_get)
    [Anonymous Symbol]                       0x08001d0a   Section        0  gd32e23x_usart.o(.text.usart_parity_config)
    [Anonymous Symbol]                       0x08001d34   Section        0  gd32e23x_usart.o(.text.usart_receive_config)
    [Anonymous Symbol]                       0x08001d52   Section        0  gd32e23x_usart.o(.text.usart_stop_bit_set)
    [Anonymous Symbol]                       0x08001d7c   Section        0  gd32e23x_usart.o(.text.usart_transmit_config)
    [Anonymous Symbol]                       0x08001d9a   Section        0  gd32e23x_usart.o(.text.usart_word_length_set)
    i.__0printf                              0x08001dc4   Section        0  printfa.o(i.__0printf)
    i.__ARM_clz                              0x08001de4   Section        0  depilogue.o(i.__ARM_clz)
    i.__scatterload_copy                     0x08001e12   Section       14  handlers.o(i.__scatterload_copy)
    i.__scatterload_null                     0x08001e20   Section        2  handlers.o(i.__scatterload_null)
    i.__scatterload_zeroinit                 0x08001e22   Section       14  handlers.o(i.__scatterload_zeroinit)
    _fp_digits                               0x08001e31   Thumb Code   344  printfa.o(i._fp_digits)
    i._fp_digits                             0x08001e30   Section        0  printfa.o(i._fp_digits)
    _printf_core                             0x08001fa5   Thumb Code  1754  printfa.o(i._printf_core)
    i._printf_core                           0x08001fa4   Section        0  printfa.o(i._printf_core)
    _printf_post_padding                     0x08002691   Thumb Code    32  printfa.o(i._printf_post_padding)
    i._printf_post_padding                   0x08002690   Section        0  printfa.o(i._printf_post_padding)
    _printf_pre_padding                      0x080026b1   Thumb Code    44  printfa.o(i._printf_pre_padding)
    i._printf_pre_padding                    0x080026b0   Section        0  printfa.o(i._printf_pre_padding)
    [Anonymous Symbol]                       0x080026dc   Section        0  freq.o(.rodata.str1.1)
    .data                                    0x20000000   Section        4  stdout.o(.data)
    ccnumber                                 0x20000008   Data           2  freq.o(.bss.ccnumber)
    [Anonymous Symbol]                       0x20000008   Section        0  freq.o(.bss.ccnumber)
    count                                    0x2000000c   Data           4  freq.o(.bss.count)
    [Anonymous Symbol]                       0x2000000c   Section        0  freq.o(.bss.count)
    count_1ms                                0x20000010   Data           4  systick.o(.bss.count_1ms)
    [Anonymous Symbol]                       0x20000010   Section        0  systick.o(.bss.count_1ms)
    count_1us                                0x20000014   Data           4  systick.o(.bss.count_1us)
    [Anonymous Symbol]                       0x20000014   Section        0  systick.o(.bss.count_1us)
    freq                                     0x20000018   Data           4  freq.o(.bss.freq)
    [Anonymous Symbol]                       0x20000018   Section        0  freq.o(.bss.freq)
    readvalue1                               0x2000001c   Data           2  freq.o(.bss.readvalue1)
    [Anonymous Symbol]                       0x2000001c   Section        0  freq.o(.bss.readvalue1)
    readvalue2                               0x2000001e   Data           2  freq.o(.bss.readvalue2)
    [Anonymous Symbol]                       0x2000001e   Section        0  freq.o(.bss.readvalue2)
    receive_flag                             0x20000020   Data           1  usart.o(.bss.receive_flag)
    [Anonymous Symbol]                       0x20000020   Section        0  usart.o(.bss.receive_flag)
    rx_count                                 0x20000021   Data           1  usart.o(.bss.rx_count)
    [Anonymous Symbol]                       0x20000021   Section        0  usart.o(.bss.rx_count)
    STACK                                    0x20000028   Section     1024  startup_gd32e23x.o(STACK)

    Global Symbols

    Symbol Name                              Value     Ov Type        Size  Object(Section)

    BuildAttributes$$THM_ISAv3M$S$8M$PE$A:L22$X:L11$S22$IEEE1$IW$~IW$USESV6$~STKCKD$USESV7$~SHL$OTIME$ROPI$EBA8$MICROLIB$REQ8$PRES8$EABIv2 0x00000000   Number         0  anon$$obj.o ABSOLUTE
    __cpp_initialize__aeabi_                  - Undefined Weak Reference
    __cxa_finalize                            - Undefined Weak Reference
    __decompress                              - Undefined Weak Reference
    _clock_init                               - Undefined Weak Reference
    _microlib_exit                            - Undefined Weak Reference
    __Vectors_Size                           0x000000cc   Number         0  startup_gd32e23x.o ABSOLUTE
    __Vectors                                0x08000000   Data           4  startup_gd32e23x.o(RESET)
    __Vectors_End                            0x080000cc   Data           0  startup_gd32e23x.o(RESET)
    __main                                   0x080000cd   Thumb Code     0  entry.o(.ARM.Collect$$$$00000000)
    _main_stk                                0x080000cd   Thumb Code     0  entry2.o(.ARM.Collect$$$$00000001)
    _main_scatterload                        0x080000d1   Thumb Code     0  entry5.o(.ARM.Collect$$$$00000004)
    __main_after_scatterload                 0x080000d5   Thumb Code     0  entry5.o(.ARM.Collect$$$$00000004)
    _main_clock                              0x080000d5   Thumb Code     0  entry7b.o(.ARM.Collect$$$$00000008)
    _main_cpp_init                           0x080000d5   Thumb Code     0  entry8b.o(.ARM.Collect$$$$0000000A)
    _main_init                               0x080000d5   Thumb Code     0  entry9a.o(.ARM.Collect$$$$0000000B)
    __rt_final_cpp                           0x080000dd   Thumb Code     0  entry10a.o(.ARM.Collect$$$$0000000D)
    __rt_final_exit                          0x080000dd   Thumb Code     0  entry11a.o(.ARM.Collect$$$$0000000F)
    Reset_Handler                            0x080000e1   Thumb Code     8  startup_gd32e23x.o(.text)
    ADC_CMP_IRQHandler                       0x080000f3   Thumb Code     0  startup_gd32e23x.o(.text)
    DMA_Channel0_IRQHandler                  0x080000f3   Thumb Code     0  startup_gd32e23x.o(.text)
    DMA_Channel1_2_IRQHandler                0x080000f3   Thumb Code     0  startup_gd32e23x.o(.text)
    DMA_Channel3_4_IRQHandler                0x080000f3   Thumb Code     0  startup_gd32e23x.o(.text)
    EXTI0_1_IRQHandler                       0x080000f3   Thumb Code     0  startup_gd32e23x.o(.text)
    EXTI2_3_IRQHandler                       0x080000f3   Thumb Code     0  startup_gd32e23x.o(.text)
    EXTI4_15_IRQHandler                      0x080000f3   Thumb Code     0  startup_gd32e23x.o(.text)
    FMC_IRQHandler                           0x080000f3   Thumb Code     0  startup_gd32e23x.o(.text)
    I2C0_ER_IRQHandler                       0x080000f3   Thumb Code     0  startup_gd32e23x.o(.text)
    I2C0_EV_IRQHandler                       0x080000f3   Thumb Code     0  startup_gd32e23x.o(.text)
    I2C1_ER_IRQHandler                       0x080000f3   Thumb Code     0  startup_gd32e23x.o(.text)
    I2C1_EV_IRQHandler                       0x080000f3   Thumb Code     0  startup_gd32e23x.o(.text)
    LVD_IRQHandler                           0x080000f3   Thumb Code     0  startup_gd32e23x.o(.text)
    RCU_IRQHandler                           0x080000f3   Thumb Code     0  startup_gd32e23x.o(.text)
    RTC_IRQHandler                           0x080000f3   Thumb Code     0  startup_gd32e23x.o(.text)
    SPI0_IRQHandler                          0x080000f3   Thumb Code     0  startup_gd32e23x.o(.text)
    SPI1_IRQHandler                          0x080000f3   Thumb Code     0  startup_gd32e23x.o(.text)
    TIMER0_BRK_UP_TRG_COM_IRQHandler         0x080000f3   Thumb Code     0  startup_gd32e23x.o(.text)
    TIMER0_Channel_IRQHandler                0x080000f3   Thumb Code     0  startup_gd32e23x.o(.text)
    TIMER13_IRQHandler                       0x080000f3   Thumb Code     0  startup_gd32e23x.o(.text)
    TIMER14_IRQHandler                       0x080000f3   Thumb Code     0  startup_gd32e23x.o(.text)
    TIMER15_IRQHandler                       0x080000f3   Thumb Code     0  startup_gd32e23x.o(.text)
    TIMER16_IRQHandler                       0x080000f3   Thumb Code     0  startup_gd32e23x.o(.text)
    TIMER5_IRQHandler                        0x080000f3   Thumb Code     0  startup_gd32e23x.o(.text)
    USART1_IRQHandler                        0x080000f3   Thumb Code     0  startup_gd32e23x.o(.text)
    WWDGT_IRQHandler                         0x080000f3   Thumb Code     0  startup_gd32e23x.o(.text)
    __aeabi_fmul                             0x080000fd   Thumb Code   122  fmul.o(.text)
    __aeabi_fdiv                             0x08000177   Thumb Code   124  fdiv.o(.text)
    __aeabi_ui2f                             0x080001f3   Thumb Code    14  ffltui.o(.text)
    __aeabi_f2d                              0x08000201   Thumb Code    40  f2d.o(.text)
    __aeabi_uldivmod                         0x08000229   Thumb Code    96  uldiv.o(.text)
    __I$use$fp                               0x08000289   Thumb Code     0  iusefp.o(.text)
    _float_round                             0x08000289   Thumb Code    16  fepilogue.o(.text)
    _float_epilogue                          0x08000299   Thumb Code   114  fepilogue.o(.text)
    __aeabi_dadd                             0x0800030d   Thumb Code   328  dadd.o(.text)
    __aeabi_dsub                             0x08000455   Thumb Code    12  dadd.o(.text)
    __aeabi_drsub                            0x08000461   Thumb Code    12  dadd.o(.text)
    __aeabi_dmul                             0x08000471   Thumb Code   202  dmul.o(.text)
    __aeabi_ddiv                             0x08000541   Thumb Code   234  ddiv.o(.text)
    __aeabi_d2ulz                            0x08000631   Thumb Code    54  dfixul.o(.text)
    __aeabi_cdrcmple                         0x08000671   Thumb Code    38  cdrcmple.o(.text)
    __scatterload                            0x08000699   Thumb Code    28  init.o(.text)
    __scatterload_rt2                        0x08000699   Thumb Code     0  init.o(.text)
    __aeabi_uidiv$div0                       0x080006bd   Thumb Code     0  uidiv_div0.o(.text)
    __aeabi_uidivmod                         0x080006bd   Thumb Code    62  uidiv_div0.o(.text)
    __aeabi_llsl                             0x080006fb   Thumb Code    32  llshl.o(.text)
    _ll_shift_l                              0x080006fb   Thumb Code     0  llshl.o(.text)
    __aeabi_llsr                             0x0800071b   Thumb Code    34  llushr.o(.text)
    _ll_ushift_r                             0x0800071b   Thumb Code     0  llushr.o(.text)
    __aeabi_lasr                             0x0800073d   Thumb Code    38  llsshr.o(.text)
    _ll_sshift_r                             0x0800073d   Thumb Code     0  llsshr.o(.text)
    _double_round                            0x08000763   Thumb Code    26  depilogue.o(.text)
    _double_epilogue                         0x0800077d   Thumb Code   164  depilogue.o(.text)
    CLose_LED                                0x08000821   Thumb Code    60  led.o(.text.CLose_LED)
    HardFault_Handler                        0x0800085d   Thumb Code     4  gd32e23x_it.o(.text.HardFault_Handler)
    Init_FreqTimer                           0x08000861   Thumb Code   172  freq.o(.text.Init_FreqTimer)
    Init_Key_GPIO                            0x08000911   Thumb Code    24  key.o(.text.Init_Key_GPIO)
    Init_LED_GPIO                            0x08000931   Thumb Code    92  led.o(.text.Init_LED_GPIO)
    Init_USART                               0x08000995   Thumb Code   212  usart.o(.text.Init_USART)
    NMI_Handler                              0x08000a75   Thumb Code     2  gd32e23x_it.o(.text.NMI_Handler)
    PendSV_Handler                           0x08000a77   Thumb Code     2  gd32e23x_it.o(.text.PendSV_Handler)
    SVC_Handler                              0x08000a79   Thumb Code     2  gd32e23x_it.o(.text.SVC_Handler)
    SysTick_Handler                          0x08000a7b   Thumb Code     2  gd32e23x_it.o(.text.SysTick_Handler)
    SystemInit                               0x08000a7d   Thumb Code   216  system_gd32e23x.o(.text.SystemInit)
    TIMER2_IRQHandler                        0x08000b79   Thumb Code   200  freq.o(.text.TIMER2_IRQHandler)
    USART0_IRQHandler                        0x08000c65   Thumb Code    80  usart.o(.text.USART0_IRQHandler)
    dma_channel_disable                      0x08000d7d   Thumb Code    28  gd32e23x_dma.o(.text.dma_channel_disable)
    dma_channel_enable                       0x08000d99   Thumb Code    28  gd32e23x_dma.o(.text.dma_channel_enable)
    dma_transfer_number_config               0x08000db9   Thumb Code    32  gd32e23x_dma.o(.text.dma_transfer_number_config)
    dma_transfer_number_get                  0x08000dd9   Thumb Code    24  gd32e23x_dma.o(.text.dma_transfer_number_get)
    fputc                                    0x08000df5   Thumb Code    40  usart.o(.text.fputc)
    gpio_af_set                              0x08000e25   Thumb Code   192  gd32e23x_gpio.o(.text.gpio_af_set)
    gpio_bit_set                             0x08000ee5   Thumb Code    16  gd32e23x_gpio.o(.text.gpio_bit_set)
    gpio_mode_set                            0x08000ef5   Thumb Code   142  gd32e23x_gpio.o(.text.gpio_mode_set)
    gpio_output_options_set                  0x08000f83   Thumb Code   138  gd32e23x_gpio.o(.text.gpio_output_options_set)
    main                                     0x0800100d   Thumb Code    40  main.o(.text.main)
    nvic_irq_enable                          0x08001035   Thumb Code    44  gd32e23x_misc.o(.text.nvic_irq_enable)
    nvic_vector_table_set                    0x08001061   Thumb Code    28  gd32e23x_misc.o(.text.nvic_vector_table_set)
    rcu_clock_freq_get                       0x08001085   Thumb Code   724  gd32e23x_rcu.o(.text.rcu_clock_freq_get)
    rcu_periph_clock_enable                  0x0800137d   Thumb Code    36  gd32e23x_rcu.o(.text.rcu_periph_clock_enable)
    rcu_periph_reset_disable                 0x080013a1   Thumb Code    36  gd32e23x_rcu.o(.text.rcu_periph_reset_disable)
    rcu_periph_reset_enable                  0x080013c5   Thumb Code    36  gd32e23x_rcu.o(.text.rcu_periph_reset_enable)
    systick_clksource_set                    0x080014d5   Thumb Code    40  gd32e23x_misc.o(.text.systick_clksource_set)
    systick_config                           0x08001501   Thumb Code    44  systick.o(.text.systick_config)
    timer_auto_reload_shadow_enable          0x08001541   Thumb Code    18  gd32e23x_timer.o(.text.timer_auto_reload_shadow_enable)
    timer_channel_capture_value_register_read 0x08001555   Thumb Code    88  gd32e23x_timer.o(.text.timer_channel_capture_value_register_read)
    timer_channel_input_capture_prescaler_config 0x080015ad   Thumb Code   158  gd32e23x_timer.o(.text.timer_channel_input_capture_prescaler_config)
    timer_channel_input_struct_para_init     0x0800164b   Thumb Code    28  gd32e23x_timer.o(.text.timer_channel_input_struct_para_init)
    timer_deinit                             0x08001669   Thumb Code   200  gd32e23x_timer.o(.text.timer_deinit)
    timer_enable                             0x08001749   Thumb Code    18  gd32e23x_timer.o(.text.timer_enable)
    timer_init                               0x0800175d   Thumb Code   228  gd32e23x_timer.o(.text.timer_init)
    timer_input_capture_config               0x08001859   Thumb Code   446  gd32e23x_timer.o(.text.timer_input_capture_config)
    timer_interrupt_enable                   0x08001a17   Thumb Code    20  gd32e23x_timer.o(.text.timer_interrupt_enable)
    timer_interrupt_flag_clear               0x08001a2b   Thumb Code    18  gd32e23x_timer.o(.text.timer_interrupt_flag_clear)
    timer_interrupt_flag_get                 0x08001a3d   Thumb Code    58  gd32e23x_timer.o(.text.timer_interrupt_flag_get)
    timer_struct_para_init                   0x08001a79   Thumb Code    36  gd32e23x_timer.o(.text.timer_struct_para_init)
    usart_baudrate_set                       0x08001aa1   Thumb Code   172  gd32e23x_usart.o(.text.usart_baudrate_set)
    usart_data_transmit                      0x08001b51   Thumb Code    20  gd32e23x_usart.o(.text.usart_data_transmit)
    usart_deinit                             0x08001b69   Thumb Code    68  gd32e23x_usart.o(.text.usart_deinit)
    usart_dma_receive_config                 0x08001bbd   Thumb Code    30  gd32e23x_usart.o(.text.usart_dma_receive_config)
    usart_enable                             0x08001bdb   Thumb Code    18  gd32e23x_usart.o(.text.usart_enable)
    usart_flag_clear                         0x08001bed   Thumb Code    30  gd32e23x_usart.o(.text.usart_flag_clear)
    usart_flag_get                           0x08001c0b   Thumb Code    60  gd32e23x_usart.o(.text.usart_flag_get)
    usart_interrupt_enable                   0x08001c47   Thumb Code    34  gd32e23x_usart.o(.text.usart_interrupt_enable)
    usart_interrupt_flag_clear               0x08001c69   Thumb Code    60  gd32e23x_usart.o(.text.usart_interrupt_flag_clear)
    usart_interrupt_flag_get                 0x08001ca9   Thumb Code    98  gd32e23x_usart.o(.text.usart_interrupt_flag_get)
    usart_parity_config                      0x08001d0b   Thumb Code    42  gd32e23x_usart.o(.text.usart_parity_config)
    usart_receive_config                     0x08001d35   Thumb Code    30  gd32e23x_usart.o(.text.usart_receive_config)
    usart_stop_bit_set                       0x08001d53   Thumb Code    42  gd32e23x_usart.o(.text.usart_stop_bit_set)
    usart_transmit_config                    0x08001d7d   Thumb Code    30  gd32e23x_usart.o(.text.usart_transmit_config)
    usart_word_length_set                    0x08001d9b   Thumb Code    42  gd32e23x_usart.o(.text.usart_word_length_set)
    __0printf                                0x08001dc5   Thumb Code    24  printfa.o(i.__0printf)
    __1printf                                0x08001dc5   Thumb Code     0  printfa.o(i.__0printf)
    __2printf                                0x08001dc5   Thumb Code     0  printfa.o(i.__0printf)
    __c89printf                              0x08001dc5   Thumb Code     0  printfa.o(i.__0printf)
    printf                                   0x08001dc5   Thumb Code     0  printfa.o(i.__0printf)
    __ARM_clz                                0x08001de5   Thumb Code    46  depilogue.o(i.__ARM_clz)
    __scatterload_copy                       0x08001e13   Thumb Code    14  handlers.o(i.__scatterload_copy)
    __scatterload_null                       0x08001e21   Thumb Code     2  handlers.o(i.__scatterload_null)
    __scatterload_zeroinit                   0x08001e23   Thumb Code    14  handlers.o(i.__scatterload_zeroinit)
    Region$$Table$$Base                      0x080026e8   Number         0  anon$$obj.o(Region$$Table)
    Region$$Table$$Limit                     0x08002708   Number         0  anon$$obj.o(Region$$Table)
    __stdout                                 0x20000000   Data           4  stdout.o(.data)
    SystemCoreClock                          0x20000004   Data           4  system_gd32e23x.o(.data.SystemCoreClock)
    __initial_sp                             0x20000428   Data           0  startup_gd32e23x.o(STACK)



==============================================================================

Memory Map of the image

  Image Entry point : 0x080000cd

  Load Region LR_IROM1 (Base: 0x08000000, Size: 0x00002710, Max: 0x00010000, ABSOLUTE)

    Execution Region ER_IROM1 (Exec base: 0x08000000, Load base: 0x08000000, Size: 0x00002708, Max: 0x00010000, ABSOLUTE)

    Exec Addr    Load Addr    Size         Type   Attr      Idx    E Section Name        Object

    0x08000000   0x08000000   0x000000cc   Data   RO         1180    RESET               startup_gd32e23x.o
    0x080000cc   0x080000cc   0x00000000   Code   RO         1266  * .ARM.Collect$$$$00000000  mc_p.l(entry.o)
    0x080000cc   0x080000cc   0x00000004   Code   RO         1309    .ARM.Collect$$$$00000001  mc_p.l(entry2.o)
    0x080000d0   0x080000d0   0x00000004   Code   RO         1312    .ARM.Collect$$$$00000004  mc_p.l(entry5.o)
    0x080000d4   0x080000d4   0x00000000   Code   RO         1314    .ARM.Collect$$$$00000008  mc_p.l(entry7b.o)
    0x080000d4   0x080000d4   0x00000000   Code   RO         1316    .ARM.Collect$$$$0000000A  mc_p.l(entry8b.o)
    0x080000d4   0x080000d4   0x00000008   Code   RO         1317    .ARM.Collect$$$$0000000B  mc_p.l(entry9a.o)
    0x080000dc   0x080000dc   0x00000000   Code   RO         1319    .ARM.Collect$$$$0000000D  mc_p.l(entry10a.o)
    0x080000dc   0x080000dc   0x00000000   Code   RO         1321    .ARM.Collect$$$$0000000F  mc_p.l(entry11a.o)
    0x080000dc   0x080000dc   0x00000004   Code   RO         1310    .ARM.Collect$$$$00002712  mc_p.l(entry2.o)
    0x080000e0   0x080000e0   0x0000001c   Code   RO         1181    .text               startup_gd32e23x.o
    0x080000fc   0x080000fc   0x0000007a   Code   RO         1299    .text               mf_p.l(fmul.o)
    0x08000176   0x08000176   0x0000007c   Code   RO         1301    .text               mf_p.l(fdiv.o)
    0x080001f2   0x080001f2   0x0000000e   Code   RO         1303    .text               mf_p.l(ffltui.o)
    0x08000200   0x08000200   0x00000028   Code   RO         1307    .text               mf_p.l(f2d.o)
    0x08000228   0x08000228   0x00000060   Code   RO         1328    .text               mc_p.l(uldiv.o)
    0x08000288   0x08000288   0x00000000   Code   RO         1330    .text               mc_p.l(iusefp.o)
    0x08000288   0x08000288   0x00000082   Code   RO         1331    .text               mf_p.l(fepilogue.o)
    0x0800030a   0x0800030a   0x00000002   PAD
    0x0800030c   0x0800030c   0x00000164   Code   RO         1333    .text               mf_p.l(dadd.o)
    0x08000470   0x08000470   0x000000d0   Code   RO         1335    .text               mf_p.l(dmul.o)
    0x08000540   0x08000540   0x000000f0   Code   RO         1337    .text               mf_p.l(ddiv.o)
    0x08000630   0x08000630   0x00000040   Code   RO         1339    .text               mf_p.l(dfixul.o)
    0x08000670   0x08000670   0x00000028   Code   RO         1341    .text               mf_p.l(cdrcmple.o)
    0x08000698   0x08000698   0x00000024   Code   RO         1343    .text               mc_p.l(init.o)
    0x080006bc   0x080006bc   0x0000003e   Code   RO         1347    .text               mc_p.l(uidiv_div0.o)
    0x080006fa   0x080006fa   0x00000020   Code   RO         1353    .text               mc_p.l(llshl.o)
    0x0800071a   0x0800071a   0x00000022   Code   RO         1355    .text               mc_p.l(llushr.o)
    0x0800073c   0x0800073c   0x00000026   Code   RO         1357    .text               mc_p.l(llsshr.o)
    0x08000762   0x08000762   0x000000be   Code   RO         1359    .text               mf_p.l(depilogue.o)
    0x08000820   0x08000820   0x0000003c   Code   RO         1190    .text.CLose_LED     led.o
    0x0800085c   0x0800085c   0x00000004   Code   RO            4    .text.HardFault_Handler  gd32e23x_it.o
    0x08000860   0x08000860   0x000000b0   Code   RO         1227    .text.Init_FreqTimer  freq.o
    0x08000910   0x08000910   0x00000020   Code   RO         1201    .text.Init_Key_GPIO  key.o
    0x08000930   0x08000930   0x00000064   Code   RO         1188    .text.Init_LED_GPIO  led.o
    0x08000994   0x08000994   0x000000e0   Code   RO         1244    .text.Init_USART    usart.o
    0x08000a74   0x08000a74   0x00000002   Code   RO            2    .text.NMI_Handler   gd32e23x_it.o
    0x08000a76   0x08000a76   0x00000002   Code   RO            8    .text.PendSV_Handler  gd32e23x_it.o
    0x08000a78   0x08000a78   0x00000002   Code   RO            6    .text.SVC_Handler   gd32e23x_it.o
    0x08000a7a   0x08000a7a   0x00000002   Code   RO           10    .text.SysTick_Handler  gd32e23x_it.o
    0x08000a7c   0x08000a7c   0x000000fc   Code   RO         1162    .text.SystemInit    system_gd32e23x.o
    0x08000b78   0x08000b78   0x000000ec   Code   RO         1229    .text.TIMER2_IRQHandler  freq.o
    0x08000c64   0x08000c64   0x00000060   Code   RO         1252    .text.USART0_IRQHandler  usart.o
    0x08000cc4   0x08000cc4   0x00000034   Code   RO          501    .text.__NVIC_EnableIRQ  gd32e23x_misc.o
    0x08000cf8   0x08000cf8   0x00000084   Code   RO          499    .text.__NVIC_SetPriority  gd32e23x_misc.o
    0x08000d7c   0x08000d7c   0x0000001c   Code   RO          205    .text.dma_channel_disable  gd32e23x_dma.o
    0x08000d98   0x08000d98   0x00000020   Code   RO          215    .text.dma_channel_enable  gd32e23x_dma.o
    0x08000db8   0x08000db8   0x00000020   Code   RO          221    .text.dma_transfer_number_config  gd32e23x_dma.o
    0x08000dd8   0x08000dd8   0x0000001c   Code   RO          223    .text.dma_transfer_number_get  gd32e23x_dma.o
    0x08000df4   0x08000df4   0x00000030   Code   RO         1250    .text.fputc         usart.o
    0x08000e24   0x08000e24   0x000000c0   Code   RO          405    .text.gpio_af_set   gd32e23x_gpio.o
    0x08000ee4   0x08000ee4   0x00000010   Code   RO          389    .text.gpio_bit_set  gd32e23x_gpio.o
    0x08000ef4   0x08000ef4   0x0000008e   Code   RO          385    .text.gpio_mode_set  gd32e23x_gpio.o
    0x08000f82   0x08000f82   0x0000008a   Code   RO          387    .text.gpio_output_options_set  gd32e23x_gpio.o
    0x0800100c   0x0800100c   0x00000028   Code   RO           19    .text.main          main.o
    0x08001034   0x08001034   0x0000002c   Code   RO          497    .text.nvic_irq_enable  gd32e23x_misc.o
    0x08001060   0x08001060   0x00000024   Code   RO          511    .text.nvic_vector_table_set  gd32e23x_misc.o
    0x08001084   0x08001084   0x000002f8   Code   RO          625    .text.rcu_clock_freq_get  gd32e23x_rcu.o
    0x0800137c   0x0800137c   0x00000024   Code   RO          561    .text.rcu_periph_clock_enable  gd32e23x_rcu.o
    0x080013a0   0x080013a0   0x00000024   Code   RO          571    .text.rcu_periph_reset_disable  gd32e23x_rcu.o
    0x080013c4   0x080013c4   0x00000024   Code   RO          569    .text.rcu_periph_reset_enable  gd32e23x_rcu.o
    0x080013e8   0x080013e8   0x000000e4   Code   RO         1168    .text.system_clock_72m_hxtal  system_gd32e23x.o
    0x080014cc   0x080014cc   0x00000008   Code   RO         1164    .text.system_clock_config  system_gd32e23x.o
    0x080014d4   0x080014d4   0x0000002c   Code   RO          517    .text.systick_clksource_set  gd32e23x_misc.o
    0x08001500   0x08001500   0x00000040   Code   RO           28    .text.systick_config  systick.o
    0x08001540   0x08001540   0x00000012   Code   RO          849    .text.timer_auto_reload_shadow_enable  gd32e23x_timer.o
    0x08001552   0x08001552   0x00000002   PAD
    0x08001554   0x08001554   0x00000058   Code   RO          949    .text.timer_channel_capture_value_register_read  gd32e23x_timer.o
    0x080015ac   0x080015ac   0x0000009e   Code   RO          947    .text.timer_channel_input_capture_prescaler_config  gd32e23x_timer.o
    0x0800164a   0x0800164a   0x0000001c   Code   RO          943    .text.timer_channel_input_struct_para_init  gd32e23x_timer.o
    0x08001666   0x08001666   0x00000002   PAD
    0x08001668   0x08001668   0x000000e0   Code   RO          839    .text.timer_deinit  gd32e23x_timer.o
    0x08001748   0x08001748   0x00000012   Code   RO          845    .text.timer_enable  gd32e23x_timer.o
    0x0800175a   0x0800175a   0x00000002   PAD
    0x0800175c   0x0800175c   0x000000fc   Code   RO          843    .text.timer_init    gd32e23x_timer.o
    0x08001858   0x08001858   0x000001be   Code   RO          945    .text.timer_input_capture_config  gd32e23x_timer.o
    0x08001a16   0x08001a16   0x00000014   Code   RO          881    .text.timer_interrupt_enable  gd32e23x_timer.o
    0x08001a2a   0x08001a2a   0x00000012   Code   RO          887    .text.timer_interrupt_flag_clear  gd32e23x_timer.o
    0x08001a3c   0x08001a3c   0x0000003a   Code   RO          885    .text.timer_interrupt_flag_get  gd32e23x_timer.o
    0x08001a76   0x08001a76   0x00000002   PAD
    0x08001a78   0x08001a78   0x00000028   Code   RO          841    .text.timer_struct_para_init  gd32e23x_timer.o
    0x08001aa0   0x08001aa0   0x000000b0   Code   RO          994    .text.usart_baudrate_set  gd32e23x_usart.o
    0x08001b50   0x08001b50   0x00000018   Code   RO         1028    .text.usart_data_transmit  gd32e23x_usart.o
    0x08001b68   0x08001b68   0x00000054   Code   RO          992    .text.usart_deinit  gd32e23x_usart.o
    0x08001bbc   0x08001bbc   0x0000001e   Code   RO         1100    .text.usart_dma_receive_config  gd32e23x_usart.o
    0x08001bda   0x08001bda   0x00000012   Code   RO         1002    .text.usart_enable  gd32e23x_usart.o
    0x08001bec   0x08001bec   0x0000001e   Code   RO         1122    .text.usart_flag_clear  gd32e23x_usart.o
    0x08001c0a   0x08001c0a   0x0000003c   Code   RO         1120    .text.usart_flag_get  gd32e23x_usart.o
    0x08001c46   0x08001c46   0x00000022   Code   RO         1124    .text.usart_interrupt_enable  gd32e23x_usart.o
    0x08001c68   0x08001c68   0x00000040   Code   RO         1132    .text.usart_interrupt_flag_clear  gd32e23x_usart.o
    0x08001ca8   0x08001ca8   0x00000062   Code   RO         1130    .text.usart_interrupt_flag_get  gd32e23x_usart.o
    0x08001d0a   0x08001d0a   0x0000002a   Code   RO          996    .text.usart_parity_config  gd32e23x_usart.o
    0x08001d34   0x08001d34   0x0000001e   Code   RO         1008    .text.usart_receive_config  gd32e23x_usart.o
    0x08001d52   0x08001d52   0x0000002a   Code   RO         1000    .text.usart_stop_bit_set  gd32e23x_usart.o
    0x08001d7c   0x08001d7c   0x0000001e   Code   RO         1006    .text.usart_transmit_config  gd32e23x_usart.o
    0x08001d9a   0x08001d9a   0x0000002a   Code   RO          998    .text.usart_word_length_set  gd32e23x_usart.o
    0x08001dc4   0x08001dc4   0x00000020   Code   RO         1272    i.__0printf         mc_p.l(printfa.o)
    0x08001de4   0x08001de4   0x0000002e   Code   RO         1361    i.__ARM_clz         mf_p.l(depilogue.o)
    0x08001e12   0x08001e12   0x0000000e   Code   RO         1365    i.__scatterload_copy  mc_p.l(handlers.o)
    0x08001e20   0x08001e20   0x00000002   Code   RO         1366    i.__scatterload_null  mc_p.l(handlers.o)
    0x08001e22   0x08001e22   0x0000000e   Code   RO         1367    i.__scatterload_zeroinit  mc_p.l(handlers.o)
    0x08001e30   0x08001e30   0x00000174   Code   RO         1279    i._fp_digits        mc_p.l(printfa.o)
    0x08001fa4   0x08001fa4   0x000006ec   Code   RO         1280    i._printf_core      mc_p.l(printfa.o)
    0x08002690   0x08002690   0x00000020   Code   RO         1281    i._printf_post_padding  mc_p.l(printfa.o)
    0x080026b0   0x080026b0   0x0000002c   Code   RO         1282    i._printf_pre_padding  mc_p.l(printfa.o)
    0x080026dc   0x080026dc   0x0000000c   Data   RO         1236    .rodata.str1.1      freq.o
    0x080026e8   0x080026e8   0x00000020   Data   RO         1364    Region$$Table       anon$$obj.o


    Execution Region RW_IRAM1 (Exec base: 0x20000000, Load base: 0x08002708, Size: 0x00000428, Max: 0x00002000, ABSOLUTE)

    Exec Addr    Load Addr    Size         Type   Attr      Idx    E Section Name        Object

    0x20000000   0x08002708   0x00000004   Data   RW         1323    .data               mc_p.l(stdout.o)
    0x20000004   0x0800270c   0x00000004   Data   RW         1170    .data.SystemCoreClock  system_gd32e23x.o
    0x20000008        -       0x00000002   Zero   RW         1231    .bss.ccnumber       freq.o
    0x2000000a   0x08002710   0x00000002   PAD
    0x2000000c        -       0x00000004   Zero   RW         1234    .bss.count          freq.o
    0x20000010        -       0x00000004   Zero   RW           39    .bss.count_1ms      systick.o
    0x20000014        -       0x00000004   Zero   RW           38    .bss.count_1us      systick.o
    0x20000018        -       0x00000004   Zero   RW         1235    .bss.freq           freq.o
    0x2000001c        -       0x00000002   Zero   RW         1232    .bss.readvalue1     freq.o
    0x2000001e        -       0x00000002   Zero   RW         1233    .bss.readvalue2     freq.o
    0x20000020        -       0x00000001   Zero   RW         1258    .bss.receive_flag   usart.o
    0x20000021        -       0x00000001   Zero   RW         1257    .bss.rx_count       usart.o
    0x20000022   0x08002710   0x00000006   PAD
    0x20000028        -       0x00000400   Zero   RW         1178    STACK               startup_gd32e23x.o


==============================================================================

Image component sizes


      Code (inc. data)   RO Data    RW Data    ZI Data      Debug   Object Name

       412         40         12          0         14       2992   freq.o
       120          8          0          0          0       5498   gd32e23x_dma.o
       488          0          0          0          0       4213   gd32e23x_gpio.o
        12          0          0          0          0        683   gd32e23x_it.o
       308         24          0          0          0       3874   gd32e23x_misc.o
       868         36          0          0          0      11238   gd32e23x_rcu.o
      1368         52          0          0          0      16868   gd32e23x_timer.o
       804         28          0          0          0      13619   gd32e23x_usart.o
        32          8          0          0          0       1759   key.o
       160          8          0          0          0       1444   led.o
        40          0          0          0          0        538   main.o
        28          8        204          0       1024        708   startup_gd32e23x.o
       488         56          0          4          0       1899   system_gd32e23x.o
        64         20          0          0          8       1741   systick.o
       368         36          0          0          2       4905   usart.o

    ----------------------------------------------------------------------
      5568        324        248          4       1056      71979   Object Totals
         0          0         32          0          0          0   (incl. Generated)
         8          0          0          0          8          0   (incl. Padding)

    ----------------------------------------------------------------------

      Code (inc. data)   RO Data    RW Data    ZI Data      Debug   Library Member Name

         0          0          0          0          0          0   entry.o
         0          0          0          0          0          0   entry10a.o
         0          0          0          0          0          0   entry11a.o
         8          4          0          0          0          0   entry2.o
         4          0          0          0          0          0   entry5.o
         0          0          0          0          0          0   entry7b.o
         0          0          0          0          0          0   entry8b.o
         8          4          0          0          0          0   entry9a.o
        30          0          0          0          0          0   handlers.o
        36          8          0          0          0         68   init.o
         0          0          0          0          0          0   iusefp.o
        32          0          0          0          0         68   llshl.o
        38          0          0          0          0         68   llsshr.o
        34          0          0          0          0         68   llushr.o
      2252         98          0          0          0        412   printfa.o
         0          0          0          4          0          0   stdout.o
        62          0          0          0          0         72   uidiv_div0.o
        96          0          0          0          0         84   uldiv.o
        40          2          0          0          0         68   cdrcmple.o
       356          4          0          0          0        140   dadd.o
       240          6          0          0          0         84   ddiv.o
       236          0          0          0          0        216   depilogue.o
        64         10          0          0          0         68   dfixul.o
       208          6          0          0          0         88   dmul.o
        40          0          0          0          0         60   f2d.o
       124          0          0          0          0         72   fdiv.o
       130          0          0          0          0        144   fepilogue.o
        14          0          0          0          0         68   ffltui.o
       122          0          0          0          0         72   fmul.o

    ----------------------------------------------------------------------
      4176        142          0          4          0       1920   Library Totals
         2          0          0          0          0          0   (incl. Padding)

    ----------------------------------------------------------------------

      Code (inc. data)   RO Data    RW Data    ZI Data      Debug   Library Name

      2600        114          0          4          0        840   mc_p.l
      1574         28          0          0          0       1080   mf_p.l

    ----------------------------------------------------------------------
      4176        142          0          4          0       1920   Library Totals

    ----------------------------------------------------------------------

==============================================================================


      Code (inc. data)   RO Data    RW Data    ZI Data      Debug   

      9744        466        248          8       1056      72859   Grand Totals
      9744        466        248          8       1056      72859   ELF Image Totals
      9744        466        248          8          0          0   ROM Totals

==============================================================================

    Total RO  Size (Code + RO Data)                 9992 (   9.76kB)
    Total RW  Size (RW Data + ZI Data)              1064 (   1.04kB)
    Total ROM Size (Code + RO Data + RW Data)      10000 (   9.77kB)

==============================================================================

