Component: Arm Compiler for Embedded 6.19 Tool: armlink [5e73cb00]

==============================================================================

Section Cross References

    gd32e23x_it.o(.ARM.exidx.text.NMI_Handler) refers to gd32e23x_it.o(.text.NMI_Handler) for [Anonymous Symbol]
    gd32e23x_it.o(.ARM.exidx.text.HardFault_Handler) refers to gd32e23x_it.o(.text.HardFault_Handler) for [Anonymous Symbol]
    gd32e23x_it.o(.ARM.exidx.text.SVC_Handler) refers to gd32e23x_it.o(.text.SVC_Handler) for [Anonymous Symbol]
    gd32e23x_it.o(.ARM.exidx.text.PendSV_Handler) refers to gd32e23x_it.o(.text.PendSV_Handler) for [Anonymous Symbol]
    gd32e23x_it.o(.ARM.exidx.text.SysTick_Handler) refers to gd32e23x_it.o(.text.SysTick_Handler) for [Anonymous Symbol]
    main.o(.text.main) refers to systick.o(.text.systick_config) for systick_config
    main.o(.text.main) refers to led.o(.text.Init_LED_GPIO) for Init_LED_GPIO
    main.o(.text.main) refers to key.o(.text.Init_Key_GPIO) for Init_Key_GPIO
    main.o(.text.main) refers to usart.o(.text.Init_USART) for Init_USART
    main.o(.text.main) refers to usart.o(.text.Init_USART0RecDMA) for Init_USART0RecDMA
    main.o(.text.main) refers to ec11.o(.text.Init_EC11_GPIO) for Init_EC11_GPIO
    main.o(.text.main) refers to ec11.o(.text.Init_EC11_EXITGPIO) for Init_EC11_EXITGPIO
    main.o(.ARM.exidx.text.main) refers to main.o(.text.main) for [Anonymous Symbol]
    systick.o(.text.systick_config) refers to gd32e23x_misc.o(.text.systick_clksource_set) for systick_clksource_set
    systick.o(.text.systick_config) refers to ffltui.o(.text) for __aeabi_ui2f
    systick.o(.text.systick_config) refers to fdiv.o(.text) for __aeabi_fdiv
    systick.o(.text.systick_config) refers to fmul.o(.text) for __aeabi_fmul
    systick.o(.text.systick_config) refers to system_gd32e23x.o(.data.SystemCoreClock) for SystemCoreClock
==============================================================================

Removing Unused input sections from the image.

    Removing gd32e23x_it.o(.text), (0 bytes).
    Removing gd32e23x_it.o(.ARM.exidx.text.NMI_Handler), (8 bytes).
    Removing gd32e23x_it.o(.ARM.exidx.text.HardFault_Handler), (8 bytes).
    Removing gd32e23x_it.o(.ARM.exidx.text.SVC_Handler), (8 bytes).
    Removing gd32e23x_it.o(.ARM.exidx.text.PendSV_Handler), (8 bytes).
    Removing gd32e23x_it.o(.ARM.exidx.text.SysTick_Handler), (8 bytes).
    Removing main.o(.text), (0 bytes).
    Removing main.o(.ARM.exidx.text.main), (8 bytes).
    Removing main.o(.ARM.use_no_argv), (4 bytes).
    Removing systick.o(.text), (0 bytes).
    Removing systick.o(.ARM.exidx.text.systick_config), (8 bytes).
    Removing systick.o(.text.delay_1us), (128 bytes).
    Removing systick.o(.ARM.exidx.text.delay_1us), (8 bytes).
    Removing systick.o(.text.delay_us), (128 bytes).
    Removing systick.o(.ARM.exidx.text.delay_us), (8 bytes).
    Removing systick.o(.text.delay_1ms), (128 bytes).
    Removing systick.o(.ARM.exidx.text.delay_1ms), (8 bytes).
    Removing systick.o(.text.delay_ms), (128 bytes).
==============================================================================

Image Symbol Table

    Local Symbols

    Symbol Name                              Value     Ov Type        Size  Object(Section)

    ../Firmware/CMSIS/GD/GD32E23x/Source/ARM/startup_gd32e23x.s 0x00000000   Number         0  startup_gd32e23x.o ABSOLUTE
    ../clib/division.s                       0x00000000   Number         0  aeabi_sdiv.o ABSOLUTE
    ../clib/division.s                       0x00000000   Number         0  aeabi_sdiv_div0.o ABSOLUTE
    ../clib/microlib/division.c              0x00000000   Number         0  uidiv.o ABSOLUTE
    ../clib/microlib/division.c              0x00000000   Number         0  uldiv.o ABSOLUTE
    ../clib/microlib/division.c              0x00000000   Number         0  uidiv_div0.o ABSOLUTE
    ../clib/microlib/division.c              0x00000000   Number         0  idiv_div0.o ABSOLUTE
    ../clib/microlib/division.c              0x00000000   Number         0  idiv0.o ABSOLUTE
    ../clib/microlib/init/entry.s            0x00000000   Number         0  entry.o ABSOLUTE
    ../clib/microlib/init/entry.s            0x00000000   Number         0  entry2.o ABSOLUTE
    ../clib/microlib/init/entry.s            0x00000000   Number         0  entry5.o ABSOLUTE
    ../clib/microlib/init/entry.s            0x00000000   Number         0  entry7a.o ABSOLUTE
    ../clib/microlib/init/entry.s            0x00000000   Number         0  entry7b.o ABSOLUTE
    ../clib/microlib/init/entry.s            0x00000000   Number         0  entry8a.o ABSOLUTE
    ../clib/microlib/init/entry.s            0x00000000   Number         0  entry8b.o ABSOLUTE
    ../clib/microlib/init/entry.s            0x00000000   Number         0  entry9a.o ABSOLUTE
    ../clib/microlib/init/entry.s            0x00000000   Number         0  entry9b.o ABSOLUTE
    ../clib/microlib/init/entry.s            0x00000000   Number         0  entry10a.o ABSOLUTE
    ../clib/microlib/init/entry.s            0x00000000   Number         0  entry10b.o ABSOLUTE
    ../clib/microlib/init/entry.s            0x00000000   Number         0  entry11a.o ABSOLUTE
    ../clib/microlib/init/entry.s            0x00000000   Number         0  entry11b.o ABSOLUTE
    ../clib/microlib/longlong.c              0x00000000   Number         0  llshl.o ABSOLUTE
    ../clib/microlib/longlong.c              0x00000000   Number         0  llushr.o ABSOLUTE
    ../clib/microlib/longlong.c              0x00000000   Number         0  llsshr.o ABSOLUTE
    ../clib/microlib/printf/printf.c         0x00000000   Number         0  printfa.o ABSOLUTE
    ../clib/microlib/stdio/streams.c         0x00000000   Number         0  stdout.o ABSOLUTE
    ../clib/microlib/string/memset.c         0x00000000   Number         0  memseta.o ABSOLUTE
    ../clib/microlib/stubs.s                 0x00000000   Number         0  iusefp.o ABSOLUTE
    ../fplib/microlib/fpadd.c                0x00000000   Number         0  dadd.o ABSOLUTE
    ../fplib/microlib/fpdiv.c                0x00000000   Number         0  fdiv.o ABSOLUTE
    ../fplib/microlib/fpdiv.c                0x00000000   Number         0  ddiv.o ABSOLUTE
    ../fplib/microlib/fpepilogue.c           0x00000000   Number         0  fepilogue.o ABSOLUTE
    ../fplib/microlib/fpepilogue.c           0x00000000   Number         0  depilogue.o ABSOLUTE
    ../fplib/microlib/fpfix.c                0x00000000   Number         0  ffixui.o ABSOLUTE
    ../fplib/microlib/fpfix.c                0x00000000   Number         0  dfixul.o ABSOLUTE
    ../fplib/microlib/fpflt.c                0x00000000   Number         0  ffltui.o ABSOLUTE
    ../fplib/microlib/fpmul.c                0x00000000   Number         0  fmul.o ABSOLUTE
    ../fplib/microlib/fpmul.c                0x00000000   Number         0  dmul.o ABSOLUTE
    cdrcmple.s                               0x00000000   Number         0  cdrcmple.o ABSOLUTE
    dc.s                                     0x00000000   Number         0  dc.o ABSOLUTE
    ec11.c                                   0x00000000   Number         0  ec11.o ABSOLUTE
    gd32e23x_adc.c                           0x00000000   Number         0  gd32e23x_adc.o ABSOLUTE
    gd32e23x_cmp.c                           0x00000000   Number         0  gd32e23x_cmp.o ABSOLUTE
    gd32e23x_crc.c                           0x00000000   Number         0  gd32e23x_crc.o ABSOLUTE
    gd32e23x_dbg.c                           0x00000000   Number         0  gd32e23x_dbg.o ABSOLUTE
    gd32e23x_dma.c                           0x00000000   Number         0  gd32e23x_dma.o ABSOLUTE
    gd32e23x_exti.c                          0x00000000   Number         0  gd32e23x_exti.o ABSOLUTE
    gd32e23x_fmc.c                           0x00000000   Number         0  gd32e23x_fmc.o ABSOLUTE
    gd32e23x_fwdgt.c                         0x00000000   Number         0  gd32e23x_fwdgt.o ABSOLUTE
    gd32e23x_gpio.c                          0x00000000   Number         0  gd32e23x_gpio.o ABSOLUTE
    gd32e23x_i2c.c                           0x00000000   Number         0  gd32e23x_i2c.o ABSOLUTE
    gd32e23x_it.c                            0x00000000   Number         0  gd32e23x_it.o ABSOLUTE
    gd32e23x_misc.c                          0x00000000   Number         0  gd32e23x_misc.o ABSOLUTE
    gd32e23x_pmu.c                           0x00000000   Number         0  gd32e23x_pmu.o ABSOLUTE
    gd32e23x_rcu.c                           0x00000000   Number         0  gd32e23x_rcu.o ABSOLUTE
    gd32e23x_rtc.c                           0x00000000   Number         0  gd32e23x_rtc.o ABSOLUTE
    gd32e23x_spi.c                           0x00000000   Number         0  gd32e23x_spi.o ABSOLUTE
    gd32e23x_syscfg.c                        0x00000000   Number         0  gd32e23x_syscfg.o ABSOLUTE
    gd32e23x_timer.c                         0x00000000   Number         0  gd32e23x_timer.o ABSOLUTE
    gd32e23x_usart.c                         0x00000000   Number         0  gd32e23x_usart.o ABSOLUTE
    gd32e23x_wwdgt.c                         0x00000000   Number         0  gd32e23x_wwdgt.o ABSOLUTE
    handlers.s                               0x00000000   Number         0  handlers.o ABSOLUTE
    init.s                                   0x00000000   Number         0  init.o ABSOLUTE
    key.c                                    0x00000000   Number         0  key.o ABSOLUTE
    led.c                                    0x00000000   Number         0  led.o ABSOLUTE
    main.c                                   0x00000000   Number         0  main.o ABSOLUTE
    system_gd32e23x.c                        0x00000000   Number         0  system_gd32e23x.o ABSOLUTE
    systick.c                                0x00000000   Number         0  systick.o ABSOLUTE
    usart.c                                  0x00000000   Number         0  usart.o ABSOLUTE
    RESET                                    0x08000000   Section      204  startup_gd32e23x.o(RESET)
    .ARM.Collect$$$$00000000                 0x080000cc   Section        0  entry.o(.ARM.Collect$$$$00000000)
    .ARM.Collect$$$$00000001                 0x080000cc   Section        4  entry2.o(.ARM.Collect$$$$00000001)
    .ARM.Collect$$$$00000004                 0x080000d0   Section        4  entry5.o(.ARM.Collect$$$$00000004)
    .ARM.Collect$$$$00000008                 0x080000d4   Section        0  entry7b.o(.ARM.Collect$$$$00000008)
    .ARM.Collect$$$$0000000A                 0x080000d4   Section        0  entry8b.o(.ARM.Collect$$$$0000000A)
    .ARM.Collect$$$$0000000B                 0x080000d4   Section        8  entry9a.o(.ARM.Collect$$$$0000000B)
    __lit__00000000                          0x080000dc   Data           4  entry2.o(.ARM.Collect$$$$00002712)
    .ARM.Collect$$$$0000000D                 0x080000dc   Section        0  entry10a.o(.ARM.Collect$$$$0000000D)
    .ARM.Collect$$$$0000000F                 0x080000dc   Section        0  entry11a.o(.ARM.Collect$$$$0000000F)
    .ARM.Collect$$$$00002712                 0x080000dc   Section        4  entry2.o(.ARM.Collect$$$$00002712)
    .text                                    0x080000e0   Section       28  startup_gd32e23x.o(.text)
    .text                                    0x080000fc   Section        0  fmul.o(.text)
    .text                                    0x08000176   Section        0  fdiv.o(.text)
    .text                                    0x080001f2   Section        0  ffltui.o(.text)
    .text                                    0x08000200   Section        0  iusefp.o(.text)
    .text                                    0x08000200   Section        0  fepilogue.o(.text)
    .text                                    0x08000284   Section       36  init.o(.text)
    [Anonymous Symbol]                       0x080002a8   Section        0  led.o(.text.CLose_LED)
    [Anonymous Symbol]                       0x080002e4   Section        0  ec11.o(.text.EXTI4_15_IRQHandler)
    __arm_cp.2_1                             0x080003a0   Number         4  ec11.o(.text.EXTI4_15_IRQHandler)
    __arm_cp.2_2                             0x080003a4   Number         4  ec11.o(.text.EXTI4_15_IRQHandler)
    [Anonymous Symbol]                       0x080003a8   Section        0  gd32e23x_it.o(.text.HardFault_Handler)
    [Anonymous Symbol]                       0x080003ac   Section        0  ec11.o(.text.Init_EC11_EXITGPIO)
    [Anonymous Symbol]                       0x080003fc   Section        0  ec11.o(.text.Init_EC11_GPIO)
    [Anonymous Symbol]                       0x08000414   Section        0  key.o(.text.Init_Key_GPIO)
    __arm_cp.0_0                             0x0800042c   Number         4  key.o(.text.Init_Key_GPIO)
    __arm_cp.0_1                             0x08000430   Number         4  key.o(.text.Init_Key_GPIO)
    [Anonymous Symbol]                       0x08000434   Section        0  led.o(.text.Init_LED_GPIO)
    __arm_cp.0_0                             0x08000490   Number         4  led.o(.text.Init_LED_GPIO)
    [Anonymous Symbol]                       0x08000494   Section        0  usart.o(.text.Init_USART)
    __arm_cp.0_0                             0x08000568   Number         4  usart.o(.text.Init_USART)
    __arm_cp.0_1                             0x0800056c   Number         4  usart.o(.text.Init_USART)
    __arm_cp.0_3                             0x08000570   Number         4  usart.o(.text.Init_USART)
    [Anonymous Symbol]                       0x08000574   Section        0  usart.o(.text.Init_USART0RecDMA)
    __arm_cp.1_0                             0x080005cc   Number         4  usart.o(.text.Init_USART0RecDMA)
    __arm_cp.1_1                             0x080005d0   Number         4  usart.o(.text.Init_USART0RecDMA)
    [Anonymous Symbol]                       0x080005d4   Section        0  gd32e23x_it.o(.text.NMI_Handler)
    [Anonymous Symbol]                       0x080005d8   Section        0  led.o(.text.Open_LED)
    __arm_cp.2_0                             0x08000614   Number         4  led.o(.text.Open_LED)
    [Anonymous Symbol]                       0x08000618   Section        0  gd32e23x_it.o(.text.PendSV_Handler)
    [Anonymous Symbol]                       0x0800061a   Section        0  gd32e23x_it.o(.text.SVC_Handler)
    [Anonymous Symbol]                       0x0800061c   Section        0  gd32e23x_it.o(.text.SysTick_Handler)
    [Anonymous Symbol]                       0x08000620   Section        0  system_gd32e23x.o(.text.SystemInit)
    __arm_cp.0_0                             0x080006f8   Number         4  system_gd32e23x.o(.text.SystemInit)
    __arm_cp.0_1                             0x080006fc   Number         4  system_gd32e23x.o(.text.SystemInit)
    __arm_cp.0_2                             0x08000700   Number         4  system_gd32e23x.o(.text.SystemInit)
    __arm_cp.0_3                             0x08000704   Number         4  system_gd32e23x.o(.text.SystemInit)
    __arm_cp.0_4                             0x08000708   Number         4  system_gd32e23x.o(.text.SystemInit)
    __arm_cp.0_5                             0x0800070c   Number         4  system_gd32e23x.o(.text.SystemInit)
    __arm_cp.0_6                             0x08000710   Number         4  system_gd32e23x.o(.text.SystemInit)
    __arm_cp.0_7                             0x08000714   Number         4  system_gd32e23x.o(.text.SystemInit)
    __arm_cp.0_8                             0x08000718   Number         4  system_gd32e23x.o(.text.SystemInit)
    [Anonymous Symbol]                       0x0800071c   Section        0  usart.o(.text.USART0_IRQHandler)
    __arm_cp.4_0                             0x0800076c   Number         4  usart.o(.text.USART0_IRQHandler)
    __arm_cp.4_1                             0x08000770   Number         4  usart.o(.text.USART0_IRQHandler)
    __arm_cp.4_2                             0x08000774   Number         4  usart.o(.text.USART0_IRQHandler)
    __arm_cp.4_3                             0x08000778   Number         4  usart.o(.text.USART0_IRQHandler)
    __NVIC_EnableIRQ                         0x0800077d   Thumb Code    48  gd32e23x_misc.o(.text.__NVIC_EnableIRQ)
    [Anonymous Symbol]                       0x0800077c   Section        0  gd32e23x_misc.o(.text.__NVIC_EnableIRQ)
    __arm_cp.2_0                             0x080007ac   Number         4  gd32e23x_misc.o(.text.__NVIC_EnableIRQ)
    __NVIC_SetPriority                       0x080007b1   Thumb Code   124  gd32e23x_misc.o(.text.__NVIC_SetPriority)
    [Anonymous Symbol]                       0x080007b0   Section        0  gd32e23x_misc.o(.text.__NVIC_SetPriority)
    __arm_cp.1_0                             0x0800082c   Number         4  gd32e23x_misc.o(.text.__NVIC_SetPriority)
    __arm_cp.1_1                             0x08000830   Number         4  gd32e23x_misc.o(.text.__NVIC_SetPriority)
    [Anonymous Symbol]                       0x08000834   Section        0  gd32e23x_dma.o(.text.dma_channel_disable)
    [Anonymous Symbol]                       0x08000850   Section        0  gd32e23x_dma.o(.text.dma_channel_enable)
    [Anonymous Symbol]                       0x0800086c   Section        0  gd32e23x_dma.o(.text.dma_circulation_disable)
    [Anonymous Symbol]                       0x08000888   Section        0  gd32e23x_dma.o(.text.dma_deinit)
    __arm_cp.0_4                             0x080008e0   Number         4  gd32e23x_dma.o(.text.dma_deinit)
    [Anonymous Symbol]                       0x080008e4   Section        0  gd32e23x_dma.o(.text.dma_init)
    __arm_cp.2_0                             0x080009f0   Number         4  gd32e23x_dma.o(.text.dma_init)
    __arm_cp.2_1                             0x080009f4   Number         4  gd32e23x_dma.o(.text.dma_init)
    __arm_cp.2_3                             0x080009f8   Number         4  gd32e23x_dma.o(.text.dma_init)
    [Anonymous Symbol]                       0x080009fc   Section        0  gd32e23x_dma.o(.text.dma_transfer_number_config)
    [Anonymous Symbol]                       0x08000a1c   Section        0  gd32e23x_dma.o(.text.dma_transfer_number_get)
    __arm_cp.12_0                            0x08000a34   Number         4  gd32e23x_dma.o(.text.dma_transfer_number_get)
    [Anonymous Symbol]                       0x08000a38   Section        0  gd32e23x_exti.o(.text.exti_init)
    __arm_cp.1_1                             0x08000b08   Number         4  gd32e23x_exti.o(.text.exti_init)
    __arm_cp.1_2                             0x08000b0c   Number         4  gd32e23x_exti.o(.text.exti_init)
    __arm_cp.1_3                             0x08000b10   Number         4  gd32e23x_exti.o(.text.exti_init)
    [Anonymous Symbol]                       0x08000b14   Section        0  gd32e23x_exti.o(.text.exti_interrupt_enable)
    __arm_cp.2_0                             0x08000b28   Number         4  gd32e23x_exti.o(.text.exti_interrupt_enable)
    [Anonymous Symbol]                       0x08000b2c   Section        0  gd32e23x_exti.o(.text.exti_interrupt_flag_clear)
    [Anonymous Symbol]                       0x08000b3c   Section        0  gd32e23x_exti.o(.text.exti_interrupt_flag_get)
    __arm_cp.10_0                            0x08000b64   Number         4  gd32e23x_exti.o(.text.exti_interrupt_flag_get)
    [Anonymous Symbol]                       0x08000b68   Section        0  gd32e23x_gpio.o(.text.gpio_af_set)
    [Anonymous Symbol]                       0x08000c28   Section        0  gd32e23x_gpio.o(.text.gpio_bit_reset)
    [Anonymous Symbol]                       0x08000c38   Section        0  gd32e23x_gpio.o(.text.gpio_bit_set)
    [Anonymous Symbol]                       0x08000c48   Section        0  gd32e23x_gpio.o(.text.gpio_input_bit_get)
    [Anonymous Symbol]                       0x08000c72   Section        0  gd32e23x_gpio.o(.text.gpio_mode_set)
    [Anonymous Symbol]                       0x08000d00   Section        0  gd32e23x_gpio.o(.text.gpio_output_options_set)
    [Anonymous Symbol]                       0x08000d8a   Section        0  main.o(.text.main)
    [Anonymous Symbol]                       0x08000dba   Section        0  gd32e23x_misc.o(.text.nvic_irq_enable)
    [Anonymous Symbol]                       0x08000de8   Section        0  gd32e23x_misc.o(.text.nvic_vector_table_set)
    __arm_cp.7_0                             0x08000e04   Number         4  gd32e23x_misc.o(.text.nvic_vector_table_set)
    __arm_cp.7_1                             0x08000e08   Number         4  gd32e23x_misc.o(.text.nvic_vector_table_set)
    [Anonymous Symbol]                       0x08000e0c   Section        0  gd32e23x_rcu.o(.text.rcu_clock_freq_get)
    __arm_cp.33_0                            0x080010e0   Number         4  gd32e23x_rcu.o(.text.rcu_clock_freq_get)
    __arm_cp.33_1                            0x080010e4   Number         4  gd32e23x_rcu.o(.text.rcu_clock_freq_get)
    __arm_cp.33_2                            0x080010e8   Number         4  gd32e23x_rcu.o(.text.rcu_clock_freq_get)
    __arm_cp.33_3                            0x080010ec   Number         4  gd32e23x_rcu.o(.text.rcu_clock_freq_get)
    __arm_cp.33_4                            0x080010f0   Number         4  gd32e23x_rcu.o(.text.rcu_clock_freq_get)
    __arm_cp.33_5                            0x080010f4   Number         4  gd32e23x_rcu.o(.text.rcu_clock_freq_get)
    __arm_cp.33_6                            0x080010f8   Number         4  gd32e23x_rcu.o(.text.rcu_clock_freq_get)
    __arm_cp.33_7                            0x080010fc   Number         4  gd32e23x_rcu.o(.text.rcu_clock_freq_get)
    __arm_cp.33_8                            0x08001100   Number         4  gd32e23x_rcu.o(.text.rcu_clock_freq_get)
    [Anonymous Symbol]                       0x08001104   Section        0  gd32e23x_rcu.o(.text.rcu_periph_clock_enable)
    [Anonymous Symbol]                       0x08001128   Section        0  gd32e23x_rcu.o(.text.rcu_periph_reset_disable)
    [Anonymous Symbol]                       0x0800114c   Section        0  gd32e23x_rcu.o(.text.rcu_periph_reset_enable)
    [Anonymous Symbol]                       0x08001170   Section        0  gd32e23x_syscfg.o(.text.syscfg_exti_line_config)
    __arm_cp.5_0                             0x08001214   Number         4  gd32e23x_syscfg.o(.text.syscfg_exti_line_config)
    __arm_cp.5_1                             0x08001218   Number         4  gd32e23x_syscfg.o(.text.syscfg_exti_line_config)
    __arm_cp.5_2                             0x0800121c   Number         4  gd32e23x_syscfg.o(.text.syscfg_exti_line_config)
    __arm_cp.5_3                             0x08001220   Number         4  gd32e23x_syscfg.o(.text.syscfg_exti_line_config)
    system_clock_72m_hxtal                   0x08001225   Thumb Code   208  system_gd32e23x.o(.text.system_clock_72m_hxtal)
    [Anonymous Symbol]                       0x08001224   Section        0  system_gd32e23x.o(.text.system_clock_72m_hxtal)
    __arm_cp.3_0                             0x080012f4   Number         4  system_gd32e23x.o(.text.system_clock_72m_hxtal)
    __arm_cp.3_1                             0x080012f8   Number         4  system_gd32e23x.o(.text.system_clock_72m_hxtal)
    __arm_cp.3_2                             0x080012fc   Number         4  system_gd32e23x.o(.text.system_clock_72m_hxtal)
    __arm_cp.3_3                             0x08001300   Number         4  system_gd32e23x.o(.text.system_clock_72m_hxtal)
    __arm_cp.3_4                             0x08001304   Number         4  system_gd32e23x.o(.text.system_clock_72m_hxtal)
    system_clock_config                      0x08001309   Thumb Code     8  system_gd32e23x.o(.text.system_clock_config)
    [Anonymous Symbol]                       0x08001308   Section        0  system_gd32e23x.o(.text.system_clock_config)
    [Anonymous Symbol]                       0x08001310   Section        0  gd32e23x_misc.o(.text.systick_clksource_set)
    __arm_cp.10_0                            0x08001338   Number         4  gd32e23x_misc.o(.text.systick_clksource_set)
    [Anonymous Symbol]                       0x0800133c   Section        0  systick.o(.text.systick_config)
    __arm_cp.0_0                             0x08001368   Number         4  systick.o(.text.systick_config)
    __arm_cp.0_1                             0x0800136c   Number         4  systick.o(.text.systick_config)
    __arm_cp.0_2                             0x08001370   Number         4  systick.o(.text.systick_config)
    __arm_cp.0_3                             0x08001374   Number         4  systick.o(.text.systick_config)
    __arm_cp.0_4                             0x08001378   Number         4  systick.o(.text.systick_config)
    [Anonymous Symbol]                       0x0800137c   Section        0  gd32e23x_usart.o(.text.usart_baudrate_set)
    __arm_cp.1_2                             0x08001428   Number         4  gd32e23x_usart.o(.text.usart_baudrate_set)
    [Anonymous Symbol]                       0x0800142c   Section        0  gd32e23x_usart.o(.text.usart_deinit)
    __arm_cp.0_0                             0x08001470   Number         4  gd32e23x_usart.o(.text.usart_deinit)
    __arm_cp.0_1                             0x08001474   Number         4  gd32e23x_usart.o(.text.usart_deinit)
    __arm_cp.0_2                             0x08001478   Number         4  gd32e23x_usart.o(.text.usart_deinit)
    __arm_cp.0_3                             0x0800147c   Number         4  gd32e23x_usart.o(.text.usart_deinit)
    [Anonymous Symbol]                       0x08001480   Section        0  gd32e23x_usart.o(.text.usart_dma_receive_config)
    [Anonymous Symbol]                       0x0800149e   Section        0  gd32e23x_usart.o(.text.usart_enable)
    [Anonymous Symbol]                       0x080014b0   Section        0  gd32e23x_usart.o(.text.usart_flag_clear)
    [Anonymous Symbol]                       0x080014ce   Section        0  gd32e23x_usart.o(.text.usart_flag_get)
    [Anonymous Symbol]                       0x0800150a   Section        0  gd32e23x_usart.o(.text.usart_interrupt_enable)
    [Anonymous Symbol]                       0x0800152c   Section        0  gd32e23x_usart.o(.text.usart_interrupt_flag_clear)
    __arm_cp.70_0                            0x08001568   Number         4  gd32e23x_usart.o(.text.usart_interrupt_flag_clear)
    [Anonymous Symbol]                       0x0800156c   Section        0  gd32e23x_usart.o(.text.usart_interrupt_flag_get)
    [Anonymous Symbol]                       0x080015ce   Section        0  gd32e23x_usart.o(.text.usart_parity_config)
    [Anonymous Symbol]                       0x080015f8   Section        0  gd32e23x_usart.o(.text.usart_receive_config)
    [Anonymous Symbol]                       0x08001616   Section        0  gd32e23x_usart.o(.text.usart_stop_bit_set)
    [Anonymous Symbol]                       0x08001640   Section        0  gd32e23x_usart.o(.text.usart_transmit_config)
    [Anonymous Symbol]                       0x0800165e   Section        0  gd32e23x_usart.o(.text.usart_word_length_set)
    i.__scatterload_copy                     0x08001688   Section       14  handlers.o(i.__scatterload_copy)
    i.__scatterload_null                     0x08001696   Section        2  handlers.o(i.__scatterload_null)
    i.__scatterload_zeroinit                 0x08001698   Section       14  handlers.o(i.__scatterload_zeroinit)
    count_1ms                                0x2000000c   Data           4  systick.o(.bss.count_1ms)
    [Anonymous Symbol]                       0x2000000c   Section        0  systick.o(.bss.count_1ms)
    count_1us                                0x20000010   Data           4  systick.o(.bss.count_1us)
    [Anonymous Symbol]                       0x20000010   Section        0  systick.o(.bss.count_1us)
    receive_flag                             0x20000014   Data           1  usart.o(.bss.receive_flag)
    [Anonymous Symbol]                       0x20000014   Section        0  usart.o(.bss.receive_flag)
    rx_count                                 0x20000015   Data           1  usart.o(.bss.rx_count)
    [Anonymous Symbol]                       0x20000015   Section        0  usart.o(.bss.rx_count)
    rxbuffer                                 0x20000016   Data         256  usart.o(.bss.rxbuffer)
    [Anonymous Symbol]                       0x20000016   Section        0  usart.o(.bss.rxbuffer)
    STACK                                    0x20000118   Section     1024  startup_gd32e23x.o(STACK)

    Global Symbols

    Symbol Name                              Value     Ov Type        Size  Object(Section)

    BuildAttributes$$THM_ISAv3M$S$8M$PE$A:L22$X:L11$S22$IEEE1$IW$~IW$USESV6$~STKCKD$USESV7$~SHL$OTIME$ROPI$EBA8$MICROLIB$REQ8$PRES8$EABIv2 0x00000000   Number         0  anon$$obj.o ABSOLUTE
    __cpp_initialize__aeabi_                  - Undefined Weak Reference
    __cxa_finalize                            - Undefined Weak Reference
    __decompress                              - Undefined Weak Reference
    _clock_init                               - Undefined Weak Reference
    _microlib_exit                            - Undefined Weak Reference
    __Vectors_Size                           0x000000cc   Number         0  startup_gd32e23x.o ABSOLUTE
    __Vectors                                0x08000000   Data           4  startup_gd32e23x.o(RESET)
    __Vectors_End                            0x080000cc   Data           0  startup_gd32e23x.o(RESET)
    __main                                   0x080000cd   Thumb Code     0  entry.o(.ARM.Collect$$$$00000000)
    _main_stk                                0x080000cd   Thumb Code     0  entry2.o(.ARM.Collect$$$$00000001)
    _main_scatterload                        0x080000d1   Thumb Code     0  entry5.o(.ARM.Collect$$$$00000004)
    __main_after_scatterload                 0x080000d5   Thumb Code     0  entry5.o(.ARM.Collect$$$$00000004)
    _main_clock                              0x080000d5   Thumb Code     0  entry7b.o(.ARM.Collect$$$$00000008)
    _main_cpp_init                           0x080000d5   Thumb Code     0  entry8b.o(.ARM.Collect$$$$0000000A)
    _main_init                               0x080000d5   Thumb Code     0  entry9a.o(.ARM.Collect$$$$0000000B)
    __rt_final_cpp                           0x080000dd   Thumb Code     0  entry10a.o(.ARM.Collect$$$$0000000D)
    __rt_final_exit                          0x080000dd   Thumb Code     0  entry11a.o(.ARM.Collect$$$$0000000F)
    Reset_Handler                            0x080000e1   Thumb Code     8  startup_gd32e23x.o(.text)
    ADC_CMP_IRQHandler                       0x080000f3   Thumb Code     0  startup_gd32e23x.o(.text)
    DMA_Channel0_IRQHandler                  0x080000f3   Thumb Code     0  startup_gd32e23x.o(.text)
    DMA_Channel1_2_IRQHandler                0x080000f3   Thumb Code     0  startup_gd32e23x.o(.text)
    DMA_Channel3_4_IRQHandler                0x080000f3   Thumb Code     0  startup_gd32e23x.o(.text)
    EXTI0_1_IRQHandler                       0x080000f3   Thumb Code     0  startup_gd32e23x.o(.text)
    EXTI2_3_IRQHandler                       0x080000f3   Thumb Code     0  startup_gd32e23x.o(.text)
    FMC_IRQHandler                           0x080000f3   Thumb Code     0  startup_gd32e23x.o(.text)
    I2C0_ER_IRQHandler                       0x080000f3   Thumb Code     0  startup_gd32e23x.o(.text)
    I2C0_EV_IRQHandler                       0x080000f3   Thumb Code     0  startup_gd32e23x.o(.text)
    I2C1_ER_IRQHandler                       0x080000f3   Thumb Code     0  startup_gd32e23x.o(.text)
    I2C1_EV_IRQHandler                       0x080000f3   Thumb Code     0  startup_gd32e23x.o(.text)
    LVD_IRQHandler                           0x080000f3   Thumb Code     0  startup_gd32e23x.o(.text)
    RCU_IRQHandler                           0x080000f3   Thumb Code     0  startup_gd32e23x.o(.text)
    RTC_IRQHandler                           0x080000f3   Thumb Code     0  startup_gd32e23x.o(.text)
    SPI0_IRQHandler                          0x080000f3   Thumb Code     0  startup_gd32e23x.o(.text)
    SPI1_IRQHandler                          0x080000f3   Thumb Code     0  startup_gd32e23x.o(.text)
    TIMER0_BRK_UP_TRG_COM_IRQHandler         0x080000f3   Thumb Code     0  startup_gd32e23x.o(.text)
    TIMER0_Channel_IRQHandler                0x080000f3   Thumb Code     0  startup_gd32e23x.o(.text)
    TIMER13_IRQHandler                       0x080000f3   Thumb Code     0  startup_gd32e23x.o(.text)
    TIMER14_IRQHandler                       0x080000f3   Thumb Code     0  startup_gd32e23x.o(.text)
    TIMER15_IRQHandler                       0x080000f3   Thumb Code     0  startup_gd32e23x.o(.text)
    TIMER16_IRQHandler                       0x080000f3   Thumb Code     0  startup_gd32e23x.o(.text)
    TIMER2_IRQHandler                        0x080000f3   Thumb Code     0  startup_gd32e23x.o(.text)
    TIMER5_IRQHandler                        0x080000f3   Thumb Code     0  startup_gd32e23x.o(.text)
    USART1_IRQHandler                        0x080000f3   Thumb Code     0  startup_gd32e23x.o(.text)
    WWDGT_IRQHandler                         0x080000f3   Thumb Code     0  startup_gd32e23x.o(.text)
    __aeabi_fmul                             0x080000fd   Thumb Code   122  fmul.o(.text)
    __aeabi_fdiv                             0x08000177   Thumb Code   124  fdiv.o(.text)
    __aeabi_ui2f                             0x080001f3   Thumb Code    14  ffltui.o(.text)
    __I$use$fp                               0x08000201   Thumb Code     0  iusefp.o(.text)
    _float_round                             0x08000201   Thumb Code    16  fepilogue.o(.text)
    _float_epilogue                          0x08000211   Thumb Code   114  fepilogue.o(.text)
    __scatterload                            0x08000285   Thumb Code    28  init.o(.text)
    __scatterload_rt2                        0x08000285   Thumb Code     0  init.o(.text)
    CLose_LED                                0x080002a9   Thumb Code    60  led.o(.text.CLose_LED)
    EXTI4_15_IRQHandler                      0x080002e5   Thumb Code   188  ec11.o(.text.EXTI4_15_IRQHandler)
    HardFault_Handler                        0x080003a9   Thumb Code     4  gd32e23x_it.o(.text.HardFault_Handler)
    Init_EC11_EXITGPIO                       0x080003ad   Thumb Code    80  ec11.o(.text.Init_EC11_EXITGPIO)
    Init_EC11_GPIO                           0x080003fd   Thumb Code    24  ec11.o(.text.Init_EC11_GPIO)
    Init_Key_GPIO                            0x08000415   Thumb Code    24  key.o(.text.Init_Key_GPIO)
    Init_LED_GPIO                            0x08000435   Thumb Code    92  led.o(.text.Init_LED_GPIO)
    Init_USART                               0x08000495   Thumb Code   212  usart.o(.text.Init_USART)
    Init_USART0RecDMA                        0x08000575   Thumb Code    88  usart.o(.text.Init_USART0RecDMA)
    NMI_Handler                              0x080005d5   Thumb Code     2  gd32e23x_it.o(.text.NMI_Handler)
    Open_LED                                 0x080005d9   Thumb Code    60  led.o(.text.Open_LED)
    PendSV_Handler                           0x08000619   Thumb Code     2  gd32e23x_it.o(.text.PendSV_Handler)
    SVC_Handler                              0x0800061b   Thumb Code     2  gd32e23x_it.o(.text.SVC_Handler)
    SysTick_Handler                          0x0800061d   Thumb Code     2  gd32e23x_it.o(.text.SysTick_Handler)
    SystemInit                               0x08000621   Thumb Code   216  system_gd32e23x.o(.text.SystemInit)
    USART0_IRQHandler                        0x0800071d   Thumb Code    80  usart.o(.text.USART0_IRQHandler)
    dma_channel_disable                      0x08000835   Thumb Code    28  gd32e23x_dma.o(.text.dma_channel_disable)
    dma_channel_enable                       0x08000851   Thumb Code    28  gd32e23x_dma.o(.text.dma_channel_enable)
    dma_circulation_disable                  0x0800086d   Thumb Code    28  gd32e23x_dma.o(.text.dma_circulation_disable)
    dma_deinit                               0x08000889   Thumb Code    88  gd32e23x_dma.o(.text.dma_deinit)
    dma_init                                 0x080008e5   Thumb Code   268  gd32e23x_dma.o(.text.dma_init)
    dma_transfer_number_config               0x080009fd   Thumb Code    32  gd32e23x_dma.o(.text.dma_transfer_number_config)
    dma_transfer_number_get                  0x08000a1d   Thumb Code    24  gd32e23x_dma.o(.text.dma_transfer_number_get)
    exti_init                                0x08000a39   Thumb Code   208  gd32e23x_exti.o(.text.exti_init)
    exti_interrupt_enable                    0x08000b15   Thumb Code    20  gd32e23x_exti.o(.text.exti_interrupt_enable)
    exti_interrupt_flag_clear                0x08000b2d   Thumb Code    16  gd32e23x_exti.o(.text.exti_interrupt_flag_clear)
    exti_interrupt_flag_get                  0x08000b3d   Thumb Code    40  gd32e23x_exti.o(.text.exti_interrupt_flag_get)
    gpio_af_set                              0x08000b69   Thumb Code   192  gd32e23x_gpio.o(.text.gpio_af_set)
    gpio_bit_reset                           0x08000c29   Thumb Code    16  gd32e23x_gpio.o(.text.gpio_bit_reset)
    gpio_bit_set                             0x08000c39   Thumb Code    16  gd32e23x_gpio.o(.text.gpio_bit_set)
    gpio_input_bit_get                       0x08000c49   Thumb Code    42  gd32e23x_gpio.o(.text.gpio_input_bit_get)
    gpio_mode_set                            0x08000c73   Thumb Code   142  gd32e23x_gpio.o(.text.gpio_mode_set)
    gpio_output_options_set                  0x08000d01   Thumb Code   138  gd32e23x_gpio.o(.text.gpio_output_options_set)
    main                                     0x08000d8b   Thumb Code    48  main.o(.text.main)
    nvic_irq_enable                          0x08000dbb   Thumb Code    44  gd32e23x_misc.o(.text.nvic_irq_enable)
    nvic_vector_table_set                    0x08000de9   Thumb Code    28  gd32e23x_misc.o(.text.nvic_vector_table_set)
    rcu_clock_freq_get                       0x08000e0d   Thumb Code   724  gd32e23x_rcu.o(.text.rcu_clock_freq_get)
    rcu_periph_clock_enable                  0x08001105   Thumb Code    36  gd32e23x_rcu.o(.text.rcu_periph_clock_enable)
    rcu_periph_reset_disable                 0x08001129   Thumb Code    36  gd32e23x_rcu.o(.text.rcu_periph_reset_disable)
    rcu_periph_reset_enable                  0x0800114d   Thumb Code    36  gd32e23x_rcu.o(.text.rcu_periph_reset_enable)
    syscfg_exti_line_config                  0x08001171   Thumb Code   164  gd32e23x_syscfg.o(.text.syscfg_exti_line_config)
    systick_clksource_set                    0x08001311   Thumb Code    40  gd32e23x_misc.o(.text.systick_clksource_set)
    systick_config                           0x0800133d   Thumb Code    44  systick.o(.text.systick_config)
    usart_baudrate_set                       0x0800137d   Thumb Code   172  gd32e23x_usart.o(.text.usart_baudrate_set)
    usart_deinit                             0x0800142d   Thumb Code    68  gd32e23x_usart.o(.text.usart_deinit)
    usart_dma_receive_config                 0x08001481   Thumb Code    30  gd32e23x_usart.o(.text.usart_dma_receive_config)
    usart_enable                             0x0800149f   Thumb Code    18  gd32e23x_usart.o(.text.usart_enable)
    usart_flag_clear                         0x080014b1   Thumb Code    30  gd32e23x_usart.o(.text.usart_flag_clear)
    usart_flag_get                           0x080014cf   Thumb Code    60  gd32e23x_usart.o(.text.usart_flag_get)
    usart_interrupt_enable                   0x0800150b   Thumb Code    34  gd32e23x_usart.o(.text.usart_interrupt_enable)
    usart_interrupt_flag_clear               0x0800152d   Thumb Code    60  gd32e23x_usart.o(.text.usart_interrupt_flag_clear)
    usart_interrupt_flag_get                 0x0800156d   Thumb Code    98  gd32e23x_usart.o(.text.usart_interrupt_flag_get)
    usart_parity_config                      0x080015cf   Thumb Code    42  gd32e23x_usart.o(.text.usart_parity_config)
    usart_receive_config                     0x080015f9   Thumb Code    30  gd32e23x_usart.o(.text.usart_receive_config)
    usart_stop_bit_set                       0x08001617   Thumb Code    42  gd32e23x_usart.o(.text.usart_stop_bit_set)
    usart_transmit_config                    0x08001641   Thumb Code    30  gd32e23x_usart.o(.text.usart_transmit_config)
    usart_word_length_set                    0x0800165f   Thumb Code    42  gd32e23x_usart.o(.text.usart_word_length_set)
    __scatterload_copy                       0x08001689   Thumb Code    14  handlers.o(i.__scatterload_copy)
    __scatterload_null                       0x08001697   Thumb Code     2  handlers.o(i.__scatterload_null)
    __scatterload_zeroinit                   0x08001699   Thumb Code    14  handlers.o(i.__scatterload_zeroinit)
    Region$$Table$$Base                      0x080016a8   Number         0  anon$$obj.o(Region$$Table)
    Region$$Table$$Limit                     0x080016c8   Number         0  anon$$obj.o(Region$$Table)
    SystemCoreClock                          0x20000000   Data           4  system_gd32e23x.o(.data.SystemCoreClock)
    A_cnt                                    0x20000008   Data           1  ec11.o(.bss.A_cnt)
    B_value                                  0x20000009   Data           1  ec11.o(.bss.B_value)
    __initial_sp                             0x20000518   Data           0  startup_gd32e23x.o(STACK)



==============================================================================

Memory Map of the image

  Image Entry point : 0x080000cd

  Load Region LR_IROM1 (Base: 0x08000000, Size: 0x000016d0, Max: 0x00010000, ABSOLUTE)

    Execution Region ER_IROM1 (Exec base: 0x08000000, Load base: 0x08000000, Size: 0x000016c8, Max: 0x00010000, ABSOLUTE)

    Exec Addr    Load Addr    Size         Type   Attr      Idx    E Section Name        Object

    0x08000000   0x08000000   0x000000cc   Data   RO         1180    RESET               startup_gd32e23x.o
    0x080000cc   0x080000cc   0x00000000   Code   RO         1251  * .ARM.Collect$$$$00000000  mc_p.l(entry.o)
    0x080000cc   0x080000cc   0x00000004   Code   RO         1292    .ARM.Collect$$$$00000001  mc_p.l(entry2.o)
    0x080000d0   0x080000d0   0x00000004   Code   RO         1295    .ARM.Collect$$$$00000004  mc_p.l(entry5.o)
    0x080000d4   0x080000d4   0x00000000   Code   RO         1297    .ARM.Collect$$$$00000008  mc_p.l(entry7b.o)
    0x080000d4   0x080000d4   0x00000000   Code   RO         1299    .ARM.Collect$$$$0000000A  mc_p.l(entry8b.o)
    0x080000d4   0x080000d4   0x00000008   Code   RO         1300    .ARM.Collect$$$$0000000B  mc_p.l(entry9a.o)
    0x080000dc   0x080000dc   0x00000000   Code   RO         1302    .ARM.Collect$$$$0000000D  mc_p.l(entry10a.o)
    0x080000dc   0x080000dc   0x00000000   Code   RO         1304    .ARM.Collect$$$$0000000F  mc_p.l(entry11a.o)
    0x080000dc   0x080000dc   0x00000004   Code   RO         1293    .ARM.Collect$$$$00002712  mc_p.l(entry2.o)
    0x080000e0   0x080000e0   0x0000001c   Code   RO         1181    .text               startup_gd32e23x.o
    0x080000fc   0x080000fc   0x0000007a   Code   RO         1284    .text               mf_p.l(fmul.o)
    0x08000176   0x08000176   0x0000007c   Code   RO         1286    .text               mf_p.l(fdiv.o)
    0x080001f2   0x080001f2   0x0000000e   Code   RO         1288    .text               mf_p.l(ffltui.o)
    0x08000200   0x08000200   0x00000000   Code   RO         1313    .text               mc_p.l(iusefp.o)
    0x08000200   0x08000200   0x00000082   Code   RO         1314    .text               mf_p.l(fepilogue.o)
    0x08000282   0x08000282   0x00000002   PAD
    0x08000284   0x08000284   0x00000024   Code   RO         1326    .text               mc_p.l(init.o)
    0x080002a8   0x080002a8   0x0000003c   Code   RO         1190    .text.CLose_LED     led.o
    0x080002e4   0x080002e4   0x000000c4   Code   RO         1241    .text.EXTI4_15_IRQHandler  ec11.o
    0x080003a8   0x080003a8   0x00000004   Code   RO            4    .text.HardFault_Handler  gd32e23x_it.o
    0x080003ac   0x080003ac   0x00000050   Code   RO         1239    .text.Init_EC11_EXITGPIO  ec11.o
    0x080003fc   0x080003fc   0x00000018   Code   RO         1237    .text.Init_EC11_GPIO  ec11.o
    0x08000414   0x08000414   0x00000020   Code   RO         1201    .text.Init_Key_GPIO  key.o
    0x08000434   0x08000434   0x00000060   Code   RO         1188    .text.Init_LED_GPIO  led.o
    0x08000494   0x08000494   0x000000e0   Code   RO         1214    .text.Init_USART    usart.o
    0x08000574   0x08000574   0x00000060   Code   RO         1216    .text.Init_USART0RecDMA  usart.o
    0x080005d4   0x080005d4   0x00000002   Code   RO            2    .text.NMI_Handler   gd32e23x_it.o
    0x080005d6   0x080005d6   0x00000002   PAD
    0x080005d8   0x080005d8   0x00000040   Code   RO         1192    .text.Open_LED      led.o
    0x08000618   0x08000618   0x00000002   Code   RO            8    .text.PendSV_Handler  gd32e23x_it.o
    0x0800061a   0x0800061a   0x00000002   Code   RO            6    .text.SVC_Handler   gd32e23x_it.o
    0x0800061c   0x0800061c   0x00000002   Code   RO           10    .text.SysTick_Handler  gd32e23x_it.o
    0x0800061e   0x0800061e   0x00000002   PAD
    0x08000620   0x08000620   0x000000fc   Code   RO         1162    .text.SystemInit    system_gd32e23x.o
    0x0800071c   0x0800071c   0x00000060   Code   RO         1222    .text.USART0_IRQHandler  usart.o
    0x0800077c   0x0800077c   0x00000034   Code   RO          501    .text.__NVIC_EnableIRQ  gd32e23x_misc.o
    0x080007b0   0x080007b0   0x00000084   Code   RO          499    .text.__NVIC_SetPriority  gd32e23x_misc.o
    0x08000834   0x08000834   0x0000001c   Code   RO          205    .text.dma_channel_disable  gd32e23x_dma.o
    0x08000850   0x08000850   0x0000001c   Code   RO          215    .text.dma_channel_enable  gd32e23x_dma.o
    0x0800086c   0x0800086c   0x0000001c   Code   RO          209    .text.dma_circulation_disable  gd32e23x_dma.o
    0x08000888   0x08000888   0x0000005c   Code   RO          199    .text.dma_deinit    gd32e23x_dma.o
    0x080008e4   0x080008e4   0x00000118   Code   RO          203    .text.dma_init      gd32e23x_dma.o
    0x080009fc   0x080009fc   0x00000020   Code   RO          221    .text.dma_transfer_number_config  gd32e23x_dma.o
    0x08000a1c   0x08000a1c   0x0000001c   Code   RO          223    .text.dma_transfer_number_get  gd32e23x_dma.o
    0x08000a38   0x08000a38   0x000000dc   Code   RO          262    .text.exti_init     gd32e23x_exti.o
    0x08000b14   0x08000b14   0x00000018   Code   RO          264    .text.exti_interrupt_enable  gd32e23x_exti.o
    0x08000b2c   0x08000b2c   0x00000010   Code   RO          282    .text.exti_interrupt_flag_clear  gd32e23x_exti.o
    0x08000b3c   0x08000b3c   0x0000002c   Code   RO          280    .text.exti_interrupt_flag_get  gd32e23x_exti.o
    0x08000b68   0x08000b68   0x000000c0   Code   RO          405    .text.gpio_af_set   gd32e23x_gpio.o
    0x08000c28   0x08000c28   0x00000010   Code   RO          391    .text.gpio_bit_reset  gd32e23x_gpio.o
    0x08000c38   0x08000c38   0x00000010   Code   RO          389    .text.gpio_bit_set  gd32e23x_gpio.o
    0x08000c48   0x08000c48   0x0000002a   Code   RO          397    .text.gpio_input_bit_get  gd32e23x_gpio.o
    0x08000c72   0x08000c72   0x0000008e   Code   RO          385    .text.gpio_mode_set  gd32e23x_gpio.o
    0x08000d00   0x08000d00   0x0000008a   Code   RO          387    .text.gpio_output_options_set  gd32e23x_gpio.o
    0x08000d8a   0x08000d8a   0x00000030   Code   RO           19    .text.main          main.o
    0x08000dba   0x08000dba   0x0000002c   Code   RO          497    .text.nvic_irq_enable  gd32e23x_misc.o
    0x08000de6   0x08000de6   0x00000002   PAD
    0x08000de8   0x08000de8   0x00000024   Code   RO          511    .text.nvic_vector_table_set  gd32e23x_misc.o
    0x08000e0c   0x08000e0c   0x000002f8   Code   RO          625    .text.rcu_clock_freq_get  gd32e23x_rcu.o
    0x08001104   0x08001104   0x00000024   Code   RO          561    .text.rcu_periph_clock_enable  gd32e23x_rcu.o
    0x08001128   0x08001128   0x00000024   Code   RO          571    .text.rcu_periph_reset_disable  gd32e23x_rcu.o
    0x0800114c   0x0800114c   0x00000024   Code   RO          569    .text.rcu_periph_reset_enable  gd32e23x_rcu.o
    0x08001170   0x08001170   0x000000b4   Code   RO          822    .text.syscfg_exti_line_config  gd32e23x_syscfg.o
    0x08001224   0x08001224   0x000000e4   Code   RO         1168    .text.system_clock_72m_hxtal  system_gd32e23x.o
    0x08001308   0x08001308   0x00000008   Code   RO         1164    .text.system_clock_config  system_gd32e23x.o
    0x08001310   0x08001310   0x0000002c   Code   RO          517    .text.systick_clksource_set  gd32e23x_misc.o
    0x0800133c   0x0800133c   0x00000040   Code   RO           28    .text.systick_config  systick.o
    0x0800137c   0x0800137c   0x000000b0   Code   RO          994    .text.usart_baudrate_set  gd32e23x_usart.o
    0x0800142c   0x0800142c   0x00000054   Code   RO          992    .text.usart_deinit  gd32e23x_usart.o
    0x08001480   0x08001480   0x0000001e   Code   RO         1100    .text.usart_dma_receive_config  gd32e23x_usart.o
    0x0800149e   0x0800149e   0x00000012   Code   RO         1002    .text.usart_enable  gd32e23x_usart.o
    0x080014b0   0x080014b0   0x0000001e   Code   RO         1122    .text.usart_flag_clear  gd32e23x_usart.o
    0x080014ce   0x080014ce   0x0000003c   Code   RO         1120    .text.usart_flag_get  gd32e23x_usart.o
    0x0800150a   0x0800150a   0x00000022   Code   RO         1124    .text.usart_interrupt_enable  gd32e23x_usart.o
    0x0800152c   0x0800152c   0x00000040   Code   RO         1132    .text.usart_interrupt_flag_clear  gd32e23x_usart.o
    0x0800156c   0x0800156c   0x00000062   Code   RO         1130    .text.usart_interrupt_flag_get  gd32e23x_usart.o
    0x080015ce   0x080015ce   0x0000002a   Code   RO          996    .text.usart_parity_config  gd32e23x_usart.o
    0x080015f8   0x080015f8   0x0000001e   Code   RO         1008    .text.usart_receive_config  gd32e23x_usart.o
    0x08001616   0x08001616   0x0000002a   Code   RO         1000    .text.usart_stop_bit_set  gd32e23x_usart.o
    0x08001640   0x08001640   0x0000001e   Code   RO         1006    .text.usart_transmit_config  gd32e23x_usart.o
    0x0800165e   0x0800165e   0x0000002a   Code   RO          998    .text.usart_word_length_set  gd32e23x_usart.o
    0x08001688   0x08001688   0x0000000e   Code   RO         1348    i.__scatterload_copy  mc_p.l(handlers.o)
    0x08001696   0x08001696   0x00000002   Code   RO         1349    i.__scatterload_null  mc_p.l(handlers.o)
    0x08001698   0x08001698   0x0000000e   Code   RO         1350    i.__scatterload_zeroinit  mc_p.l(handlers.o)
    0x080016a6   0x080016a6   0x00000002   PAD
    0x080016a8   0x080016a8   0x00000020   Data   RO         1347    Region$$Table       anon$$obj.o


    Execution Region RW_IRAM1 (Exec base: 0x20000000, Load base: 0x080016c8, Size: 0x00000518, Max: 0x00002000, ABSOLUTE)

    Exec Addr    Load Addr    Size         Type   Attr      Idx    E Section Name        Object

    0x20000000   0x080016c8   0x00000004   Data   RW         1170    .data.SystemCoreClock  system_gd32e23x.o
    0x20000004   0x080016cc   0x00000004   PAD
    0x20000008        -       0x00000001   Zero   RW         1243    .bss.A_cnt          ec11.o
    0x20000009        -       0x00000001   Zero   RW         1244    .bss.B_value        ec11.o
    0x2000000a   0x080016cc   0x00000002   PAD
    0x2000000c        -       0x00000004   Zero   RW           39    .bss.count_1ms      systick.o
    0x20000010        -       0x00000004   Zero   RW           38    .bss.count_1us      systick.o
    0x20000014        -       0x00000001   Zero   RW         1228    .bss.receive_flag   usart.o
    0x20000015        -       0x00000001   Zero   RW         1227    .bss.rx_count       usart.o
    0x20000016        -       0x00000100   Zero   RW         1226    .bss.rxbuffer       usart.o
    0x20000116   0x080016cc   0x00000002   PAD
    0x20000118        -       0x00000400   Zero   RW         1178    STACK               startup_gd32e23x.o


==============================================================================

Image component sizes


      Code (inc. data)   RO Data    RW Data    ZI Data      Debug   Object Name

       300          8          0          0          2       2938   ec11.o
       516         20          0          0          0       5509   gd32e23x_dma.o
       304         20          0          0          0       3083   gd32e23x_exti.o
       546          0          0          0          0       4224   gd32e23x_gpio.o
        12          0          0          0          0        694   gd32e23x_it.o
       308         24          0          0          0       3885   gd32e23x_misc.o
       868         36          0          0          0      11249   gd32e23x_rcu.o
       180         16          0          0          0       2737   gd32e23x_syscfg.o
       780         24          0          0          0      13630   gd32e23x_usart.o
        32          8          0          0          0       1770   key.o
       220          8          0          0          0       1455   led.o
        48          0          0          0          0        547   main.o
        28          8        204          0       1024        700   startup_gd32e23x.o
       488         56          0          4          0       1910   system_gd32e23x.o
        64         20          0          0          8       1752   systick.o
       416         36          0          0        258       4916   usart.o

    ----------------------------------------------------------------------
      5116        284        236          4       1300      60999   Object Totals
         0          0         32          0          0          0   (incl. Generated)
         6          0          0          0          8          0   (incl. Padding)

    ----------------------------------------------------------------------

      Code (inc. data)   RO Data    RW Data    ZI Data      Debug   Library Member Name

         0          0          0          0          0          0   entry.o
         0          0          0          0          0          0   entry10a.o
         0          0          0          0          0          0   entry11a.o
         8          4          0          0          0          0   entry2.o
         4          0          0          0          0          0   entry5.o
         0          0          0          0          0          0   entry7b.o
         0          0          0          0          0          0   entry8b.o
         8          4          0          0          0          0   entry9a.o
        30          0          0          0          0          0   handlers.o
        36          8          0          0          0         68   init.o
         0          0          0          0          0          0   iusefp.o
       124          0          0          0          0         72   fdiv.o
       130          0          0          0          0        144   fepilogue.o
        14          0          0          0          0         68   ffltui.o
       122          0          0          0          0         72   fmul.o

    ----------------------------------------------------------------------
       480         16          0          0          0        424   Library Totals
         4          0          0          0          0          0   (incl. Padding)

    ----------------------------------------------------------------------

      Code (inc. data)   RO Data    RW Data    ZI Data      Debug   Library Name

        86         16          0          0          0         68   mc_p.l
       390          0          0          0          0        356   mf_p.l

    ----------------------------------------------------------------------
       480         16          0          0          0        424   Library Totals

    ----------------------------------------------------------------------

==============================================================================


      Code (inc. data)   RO Data    RW Data    ZI Data      Debug   

      5596        300        236          4       1300      61207   Grand Totals
      5596        300        236          4       1300      61207   ELF Image Totals
      5596        300        236          4          0          0   ROM Totals

==============================================================================

    Total RO  Size (Code + RO Data)                 5832 (   5.70kB)
    Total RW  Size (RW Data + ZI Data)              1304 (   1.27kB)
    Total ROM Size (Code + RO Data + RW Data)       5836 (   5.70kB)

==============================================================================

