Component: Arm Compiler for Embedded 6.19 Tool: armlink [5e73cb00]

==============================================================================

Section Cross References

    gd32e23x_it.o(.ARM.exidx.text.NMI_Handler) refers to gd32e23x_it.o(.text.NMI_Handler) for [Anonymous Symbol]
    gd32e23x_it.o(.ARM.exidx.text.HardFault_Handler) refers to gd32e23x_it.o(.text.HardFault_Handler) for [Anonymous Symbol]
    gd32e23x_it.o(.ARM.exidx.text.SVC_Handler) refers to gd32e23x_it.o(.text.SVC_Handler) for [Anonymous Symbol]
    gd32e23x_it.o(.ARM.exidx.text.PendSV_Handler) refers to gd32e23x_it.o(.text.PendSV_Handler) for [Anonymous Symbol]
    gd32e23x_it.o(.ARM.exidx.text.SysTick_Handler) refers to gd32e23x_it.o(.text.SysTick_Handler) for [Anonymous Symbol]
    main.o(.text.main) refers to systick.o(.text.systick_config) for systick_config
    main.o(.text.main) refers to led.o(.text.Init_LED_GPIO) for Init_LED_GPIO
    main.o(.text.main) refers to key.o(.text.Init_Key_GPIO) for Init_Key_GPIO
    main.o(.text.main) refers to timer.o(.text.Init_GeneralTimer) for Init_GeneralTimer
    main.o(.ARM.exidx.text.main) refers to main.o(.text.main) for [Anonymous Symbol]
    systick.o(.text.systick_config) refers to gd32e23x_misc.o(.text.systick_clksource_set) for systick_clksource_set
    systick.o(.text.systick_config) refers to ffltui.o(.text) for __aeabi_ui2f
    systick.o(.text.systick_config) refers to fdiv.o(.text) for __aeabi_fdiv
    systick.o(.text.systick_config) refers to fmul.o(.text) for __aeabi_fmul
    systick.o(.text.systick_config) refers to system_gd32e23x.o(.data.SystemCoreClock) for SystemCoreClock
    systick.o(.text.systick_config) refers to systick.o(.bss.count_1us) for [Anonymous Symbol]
    systick.o(.text.systick_config) refers to systick.o(.bss.count_1ms) for [Anonymous Symbol]
    systick.o(.ARM.exidx.text.systick_config) refers to systick.o(.text.systick_config) for [Anonymous Symbol]
==============================================================================

Removing Unused input sections from the image.

    Removing gd32e23x_it.o(.text), (0 bytes).
    Removing gd32e23x_it.o(.ARM.exidx.text.NMI_Handler), (8 bytes).
    Removing gd32e23x_it.o(.ARM.exidx.text.HardFault_Handler), (8 bytes).
    Removing gd32e23x_it.o(.ARM.exidx.text.SVC_Handler), (8 bytes).
    Removing gd32e23x_it.o(.ARM.exidx.text.PendSV_Handler), (8 bytes).
    Removing gd32e23x_it.o(.ARM.exidx.text.SysTick_Handler), (8 bytes).
    Removing main.o(.text), (0 bytes).
    Removing main.o(.ARM.exidx.text.main), (8 bytes).
    Removing main.o(.ARM.use_no_argv), (4 bytes).
    Removing systick.o(.text), (0 bytes).
    Removing systick.o(.ARM.exidx.text.systick_config), (8 bytes).
    Removing systick.o(.text.delay_1us), (128 bytes).
    Removing systick.o(.ARM.exidx.text.delay_1us), (8 bytes).
    Removing systick.o(.text.delay_us), (128 bytes).
    Removing systick.o(.ARM.exidx.text.delay_us), (8 bytes).
    Removing systick.o(.text.delay_1ms), (128 bytes).
    Removing systick.o(.ARM.exidx.text.delay_1ms), (8 bytes).
    Removing systick.o(.text.delay_ms), (128 bytes).
==============================================================================

Image Symbol Table

    Local Symbols

    Symbol Name                              Value     Ov Type        Size  Object(Section)

    ../Firmware/CMSIS/GD/GD32E23x/Source/ARM/startup_gd32e23x.s 0x00000000   Number         0  startup_gd32e23x.o ABSOLUTE
    ../clib/microlib/init/entry.s            0x00000000   Number         0  entry.o ABSOLUTE
    ../clib/microlib/init/entry.s            0x00000000   Number         0  entry2.o ABSOLUTE
    ../clib/microlib/init/entry.s            0x00000000   Number         0  entry5.o ABSOLUTE
    ../clib/microlib/init/entry.s            0x00000000   Number         0  entry7a.o ABSOLUTE
    ../clib/microlib/init/entry.s            0x00000000   Number         0  entry7b.o ABSOLUTE
    ../clib/microlib/init/entry.s            0x00000000   Number         0  entry8a.o ABSOLUTE
    ../clib/microlib/init/entry.s            0x00000000   Number         0  entry8b.o ABSOLUTE
    ../clib/microlib/init/entry.s            0x00000000   Number         0  entry9a.o ABSOLUTE
    ../clib/microlib/init/entry.s            0x00000000   Number         0  entry9b.o ABSOLUTE
    ../clib/microlib/init/entry.s            0x00000000   Number         0  entry10a.o ABSOLUTE
    ../clib/microlib/init/entry.s            0x00000000   Number         0  entry10b.o ABSOLUTE
    ../clib/microlib/init/entry.s            0x00000000   Number         0  entry11a.o ABSOLUTE
    ../clib/microlib/init/entry.s            0x00000000   Number         0  entry11b.o ABSOLUTE
    ../clib/microlib/stubs.s                 0x00000000   Number         0  iusefp.o ABSOLUTE
    ../fplib/microlib/fpdiv.c                0x00000000   Number         0  fdiv.o ABSOLUTE
    ../fplib/microlib/fpepilogue.c           0x00000000   Number         0  fepilogue.o ABSOLUTE
    ../fplib/microlib/fpfix.c                0x00000000   Number         0  ffixui.o ABSOLUTE
    ../fplib/microlib/fpflt.c                0x00000000   Number         0  ffltui.o ABSOLUTE
    ../fplib/microlib/fpmul.c                0x00000000   Number         0  fmul.o ABSOLUTE
    dc.s                                     0x00000000   Number         0  dc.o ABSOLUTE
    gd32e23x_adc.c                           0x00000000   Number         0  gd32e23x_adc.o ABSOLUTE
    gd32e23x_cmp.c                           0x00000000   Number         0  gd32e23x_cmp.o ABSOLUTE
    gd32e23x_crc.c                           0x00000000   Number         0  gd32e23x_crc.o ABSOLUTE
    gd32e23x_dbg.c                           0x00000000   Number         0  gd32e23x_dbg.o ABSOLUTE
    gd32e23x_dma.c                           0x00000000   Number         0  gd32e23x_dma.o ABSOLUTE
    gd32e23x_exti.c                          0x00000000   Number         0  gd32e23x_exti.o ABSOLUTE
    gd32e23x_fmc.c                           0x00000000   Number         0  gd32e23x_fmc.o ABSOLUTE
    gd32e23x_fwdgt.c                         0x00000000   Number         0  gd32e23x_fwdgt.o ABSOLUTE
    gd32e23x_gpio.c                          0x00000000   Number         0  gd32e23x_gpio.o ABSOLUTE
    gd32e23x_i2c.c                           0x00000000   Number         0  gd32e23x_i2c.o ABSOLUTE
    gd32e23x_it.c                            0x00000000   Number         0  gd32e23x_it.o ABSOLUTE
    gd32e23x_misc.c                          0x00000000   Number         0  gd32e23x_misc.o ABSOLUTE
    gd32e23x_pmu.c                           0x00000000   Number         0  gd32e23x_pmu.o ABSOLUTE
    gd32e23x_rcu.c                           0x00000000   Number         0  gd32e23x_rcu.o ABSOLUTE
    gd32e23x_rtc.c                           0x00000000   Number         0  gd32e23x_rtc.o ABSOLUTE
    gd32e23x_spi.c                           0x00000000   Number         0  gd32e23x_spi.o ABSOLUTE
    gd32e23x_syscfg.c                        0x00000000   Number         0  gd32e23x_syscfg.o ABSOLUTE
    gd32e23x_timer.c                         0x00000000   Number         0  gd32e23x_timer.o ABSOLUTE
    gd32e23x_usart.c                         0x00000000   Number         0  gd32e23x_usart.o ABSOLUTE
    gd32e23x_wwdgt.c                         0x00000000   Number         0  gd32e23x_wwdgt.o ABSOLUTE
    handlers.s                               0x00000000   Number         0  handlers.o ABSOLUTE
    init.s                                   0x00000000   Number         0  init.o ABSOLUTE
    key.c                                    0x00000000   Number         0  key.o ABSOLUTE
    led.c                                    0x00000000   Number         0  led.o ABSOLUTE
    main.c                                   0x00000000   Number         0  main.o ABSOLUTE
    system_gd32e23x.c                        0x00000000   Number         0  system_gd32e23x.o ABSOLUTE
    systick.c                                0x00000000   Number         0  systick.o ABSOLUTE
    timer.c                                  0x00000000   Number         0  timer.o ABSOLUTE
    RESET                                    0x08000000   Section      204  startup_gd32e23x.o(RESET)
    .ARM.Collect$$$$00000000                 0x080000cc   Section        0  entry.o(.ARM.Collect$$$$00000000)
    .ARM.Collect$$$$00000001                 0x080000cc   Section        4  entry2.o(.ARM.Collect$$$$00000001)
    .ARM.Collect$$$$00000004                 0x080000d0   Section        4  entry5.o(.ARM.Collect$$$$00000004)
    .ARM.Collect$$$$00000008                 0x080000d4   Section        0  entry7b.o(.ARM.Collect$$$$00000008)
    .ARM.Collect$$$$0000000A                 0x080000d4   Section        0  entry8b.o(.ARM.Collect$$$$0000000A)
    .ARM.Collect$$$$0000000B                 0x080000d4   Section        8  entry9a.o(.ARM.Collect$$$$0000000B)
    __lit__00000000                          0x080000dc   Data           4  entry2.o(.ARM.Collect$$$$00002712)
    .ARM.Collect$$$$0000000D                 0x080000dc   Section        0  entry10a.o(.ARM.Collect$$$$0000000D)
    .ARM.Collect$$$$0000000F                 0x080000dc   Section        0  entry11a.o(.ARM.Collect$$$$0000000F)
    .ARM.Collect$$$$00002712                 0x080000dc   Section        4  entry2.o(.ARM.Collect$$$$00002712)
    .text                                    0x080000e0   Section       28  startup_gd32e23x.o(.text)
    .text                                    0x080000fc   Section        0  fmul.o(.text)
    .text                                    0x08000176   Section        0  fdiv.o(.text)
    .text                                    0x080001f2   Section        0  ffltui.o(.text)
    .text                                    0x08000200   Section        0  iusefp.o(.text)
    .text                                    0x08000200   Section        0  fepilogue.o(.text)
    .text                                    0x08000284   Section       36  init.o(.text)
    [Anonymous Symbol]                       0x080002a8   Section        0  led.o(.text.CLose_LED)
    [Anonymous Symbol]                       0x080002e4   Section        0  gd32e23x_it.o(.text.HardFault_Handler)
    [Anonymous Symbol]                       0x080002e8   Section        0  timer.o(.text.Init_GeneralTimer)
    __arm_cp.0_0                             0x08000350   Number         4  timer.o(.text.Init_GeneralTimer)
    __arm_cp.0_2                             0x08000354   Number         4  timer.o(.text.Init_GeneralTimer)
    [Anonymous Symbol]                       0x08000358   Section        0  key.o(.text.Init_Key_GPIO)
    __arm_cp.0_0                             0x08000370   Number         4  key.o(.text.Init_Key_GPIO)
    __arm_cp.0_1                             0x08000374   Number         4  key.o(.text.Init_Key_GPIO)
    [Anonymous Symbol]                       0x08000378   Section        0  led.o(.text.Init_LED_GPIO)
    __arm_cp.0_0                             0x080003d4   Number         4  led.o(.text.Init_LED_GPIO)
    [Anonymous Symbol]                       0x080003d8   Section        0  gd32e23x_it.o(.text.NMI_Handler)
    [Anonymous Symbol]                       0x080003dc   Section        0  led.o(.text.Open_LED)
    __arm_cp.2_0                             0x08000418   Number         4  led.o(.text.Open_LED)
    [Anonymous Symbol]                       0x0800041c   Section        0  gd32e23x_it.o(.text.PendSV_Handler)
    [Anonymous Symbol]                       0x0800041e   Section        0  gd32e23x_it.o(.text.SVC_Handler)
    [Anonymous Symbol]                       0x08000420   Section        0  gd32e23x_it.o(.text.SysTick_Handler)
    [Anonymous Symbol]                       0x08000424   Section        0  system_gd32e23x.o(.text.SystemInit)
    __arm_cp.0_1                             0x080004fc   Number         4  system_gd32e23x.o(.text.SystemInit)
    __arm_cp.0_2                             0x08000500   Number         4  system_gd32e23x.o(.text.SystemInit)
    __arm_cp.0_3                             0x08000504   Number         4  system_gd32e23x.o(.text.SystemInit)
    __arm_cp.0_4                             0x08000508   Number         4  system_gd32e23x.o(.text.SystemInit)
    __arm_cp.0_5                             0x0800050c   Number         4  system_gd32e23x.o(.text.SystemInit)
    __arm_cp.0_6                             0x08000510   Number         4  system_gd32e23x.o(.text.SystemInit)
    __arm_cp.0_7                             0x08000514   Number         4  system_gd32e23x.o(.text.SystemInit)
    __arm_cp.0_8                             0x08000518   Number         4  system_gd32e23x.o(.text.SystemInit)
    [Anonymous Symbol]                       0x0800051c   Section        0  timer.o(.text.TIMER15_IRQHandler)
    __arm_cp.1_0                             0x0800056c   Number         4  timer.o(.text.TIMER15_IRQHandler)
    __arm_cp.1_1                             0x08000570   Number         4  timer.o(.text.TIMER15_IRQHandler)
    __NVIC_EnableIRQ                         0x08000575   Thumb Code    48  gd32e23x_misc.o(.text.__NVIC_EnableIRQ)
    [Anonymous Symbol]                       0x08000574   Section        0  gd32e23x_misc.o(.text.__NVIC_EnableIRQ)
    __arm_cp.2_0                             0x080005a4   Number         4  gd32e23x_misc.o(.text.__NVIC_EnableIRQ)
    __NVIC_SetPriority                       0x080005a9   Thumb Code   124  gd32e23x_misc.o(.text.__NVIC_SetPriority)
    [Anonymous Symbol]                       0x080005a8   Section        0  gd32e23x_misc.o(.text.__NVIC_SetPriority)
    __arm_cp.1_0                             0x08000624   Number         4  gd32e23x_misc.o(.text.__NVIC_SetPriority)
    __arm_cp.1_1                             0x08000628   Number         4  gd32e23x_misc.o(.text.__NVIC_SetPriority)
    [Anonymous Symbol]                       0x0800062c   Section        0  gd32e23x_gpio.o(.text.gpio_bit_reset)
    [Anonymous Symbol]                       0x0800063c   Section        0  gd32e23x_gpio.o(.text.gpio_bit_set)
    [Anonymous Symbol]                       0x0800064c   Section        0  gd32e23x_gpio.o(.text.gpio_mode_set)
    [Anonymous Symbol]                       0x080006da   Section        0  gd32e23x_gpio.o(.text.gpio_output_options_set)
    [Anonymous Symbol]                       0x08000764   Section        0  main.o(.text.main)
    __arm_cp.0_0                             0x08000788   Number         4  main.o(.text.main)
    [Anonymous Symbol]                       0x0800078c   Section        0  gd32e23x_misc.o(.text.nvic_irq_enable)
    [Anonymous Symbol]                       0x080007b8   Section        0  gd32e23x_misc.o(.text.nvic_vector_table_set)
    __arm_cp.7_0                             0x080007d4   Number         4  gd32e23x_misc.o(.text.nvic_vector_table_set)
    __arm_cp.7_1                             0x080007d8   Number         4  gd32e23x_misc.o(.text.nvic_vector_table_set)
    [Anonymous Symbol]                       0x080007dc   Section        0  gd32e23x_rcu.o(.text.rcu_periph_clock_enable)
    __arm_cp.1_0                             0x08000800   Number         4  gd32e23x_rcu.o(.text.rcu_periph_clock_enable)
    [Anonymous Symbol]                       0x08000804   Section        0  gd32e23x_rcu.o(.text.rcu_periph_reset_disable)
    __arm_cp.6_0                             0x08000828   Number         4  gd32e23x_rcu.o(.text.rcu_periph_reset_disable)
    [Anonymous Symbol]                       0x0800082c   Section        0  gd32e23x_rcu.o(.text.rcu_periph_reset_enable)
    __arm_cp.5_0                             0x08000850   Number         4  gd32e23x_rcu.o(.text.rcu_periph_reset_enable)
    system_clock_72m_hxtal                   0x08000855   Thumb Code   208  system_gd32e23x.o(.text.system_clock_72m_hxtal)
    [Anonymous Symbol]                       0x08000854   Section        0  system_gd32e23x.o(.text.system_clock_72m_hxtal)
    __arm_cp.3_0                             0x08000924   Number         4  system_gd32e23x.o(.text.system_clock_72m_hxtal)
    __arm_cp.3_2                             0x08000928   Number         4  system_gd32e23x.o(.text.system_clock_72m_hxtal)
    __arm_cp.3_3                             0x0800092c   Number         4  system_gd32e23x.o(.text.system_clock_72m_hxtal)
    __arm_cp.3_4                             0x08000930   Number         4  system_gd32e23x.o(.text.system_clock_72m_hxtal)
    system_clock_config                      0x08000935   Thumb Code     8  system_gd32e23x.o(.text.system_clock_config)
    [Anonymous Symbol]                       0x08000934   Section        0  system_gd32e23x.o(.text.system_clock_config)
    [Anonymous Symbol]                       0x0800093c   Section        0  gd32e23x_misc.o(.text.systick_clksource_set)
    __arm_cp.10_0                            0x08000964   Number         4  gd32e23x_misc.o(.text.systick_clksource_set)
    [Anonymous Symbol]                       0x08000968   Section        0  systick.o(.text.systick_config)
    __arm_cp.0_0                             0x08000994   Number         4  systick.o(.text.systick_config)
    __arm_cp.0_1                             0x08000998   Number         4  systick.o(.text.systick_config)
    __arm_cp.0_2                             0x0800099c   Number         4  systick.o(.text.systick_config)
    __arm_cp.0_3                             0x080009a0   Number         4  systick.o(.text.systick_config)
    __arm_cp.0_4                             0x080009a4   Number         4  systick.o(.text.systick_config)
    [Anonymous Symbol]                       0x080009a8   Section        0  gd32e23x_timer.o(.text.timer_deinit)
    __arm_cp.0_1                             0x08000a70   Number         4  gd32e23x_timer.o(.text.timer_deinit)
    __arm_cp.0_7                             0x08000a74   Number         4  gd32e23x_timer.o(.text.timer_deinit)
    __arm_cp.0_8                             0x08000a78   Number         4  gd32e23x_timer.o(.text.timer_deinit)
    __arm_cp.0_9                             0x08000a7c   Number         4  gd32e23x_timer.o(.text.timer_deinit)
    __arm_cp.0_10                            0x08000a80   Number         4  gd32e23x_timer.o(.text.timer_deinit)
    __arm_cp.0_11                            0x08000a84   Number         4  gd32e23x_timer.o(.text.timer_deinit)
    [Anonymous Symbol]                       0x08000a88   Section        0  gd32e23x_timer.o(.text.timer_enable)
    [Anonymous Symbol]                       0x08000a9c   Section        0  gd32e23x_timer.o(.text.timer_init)
    __arm_cp.2_0                             0x08000b80   Number         4  gd32e23x_timer.o(.text.timer_init)
    __arm_cp.2_1                             0x08000b84   Number         4  gd32e23x_timer.o(.text.timer_init)
    __arm_cp.2_2                             0x08000b88   Number         4  gd32e23x_timer.o(.text.timer_init)
    __arm_cp.2_3                             0x08000b8c   Number         4  gd32e23x_timer.o(.text.timer_init)
    __arm_cp.2_4                             0x08000b90   Number         4  gd32e23x_timer.o(.text.timer_init)
    __arm_cp.2_5                             0x08000b94   Number         4  gd32e23x_timer.o(.text.timer_init)
    [Anonymous Symbol]                       0x08000b98   Section        0  gd32e23x_timer.o(.text.timer_interrupt_enable)
    [Anonymous Symbol]                       0x08000bac   Section        0  gd32e23x_timer.o(.text.timer_interrupt_flag_clear)
    [Anonymous Symbol]                       0x08000bbe   Section        0  gd32e23x_timer.o(.text.timer_interrupt_flag_get)
    [Anonymous Symbol]                       0x08000bf8   Section        0  gd32e23x_timer.o(.text.timer_prescaler_config)
    [Anonymous Symbol]                       0x08000c28   Section        0  gd32e23x_timer.o(.text.timer_struct_para_init)
    __arm_cp.1_0                             0x08000c4c   Number         4  gd32e23x_timer.o(.text.timer_struct_para_init)
    i.__scatterload_copy                     0x08000c50   Section       14  handlers.o(i.__scatterload_copy)
    i.__scatterload_null                     0x08000c5e   Section        2  handlers.o(i.__scatterload_null)
    i.__scatterload_zeroinit                 0x08000c60   Section       14  handlers.o(i.__scatterload_zeroinit)
    TIMER15_IRQHandler.num                   0x20000008   Data           1  timer.o(.bss.TIMER15_IRQHandler.num)
    [Anonymous Symbol]                       0x20000008   Section        0  timer.o(.bss.TIMER15_IRQHandler.num)
    count_1ms                                0x2000000c   Data           4  systick.o(.bss.count_1ms)
    [Anonymous Symbol]                       0x2000000c   Section        0  systick.o(.bss.count_1ms)
    count_1us                                0x20000010   Data           4  systick.o(.bss.count_1us)
    [Anonymous Symbol]                       0x20000010   Section        0  systick.o(.bss.count_1us)
    STACK                                    0x20000018   Section     1024  startup_gd32e23x.o(STACK)

    Global Symbols

    Symbol Name                              Value     Ov Type        Size  Object(Section)

    BuildAttributes$$THM_ISAv3M$S$8M$PE$A:L22$X:L11$S22$IEEE1$IW$~IW$USESV6$~STKCKD$USESV7$~SHL$OTIME$ROPI$EBA8$MICROLIB$REQ8$PRES8$EABIv2 0x00000000   Number         0  anon$$obj.o ABSOLUTE
    __cpp_initialize__aeabi_                  - Undefined Weak Reference
    __cxa_finalize                            - Undefined Weak Reference
    __decompress                              - Undefined Weak Reference
    _clock_init                               - Undefined Weak Reference
    _microlib_exit                            - Undefined Weak Reference
    __Vectors_Size                           0x000000cc   Number         0  startup_gd32e23x.o ABSOLUTE
    __Vectors                                0x08000000   Data           4  startup_gd32e23x.o(RESET)
    __Vectors_End                            0x080000cc   Data           0  startup_gd32e23x.o(RESET)
    __main                                   0x080000cd   Thumb Code     0  entry.o(.ARM.Collect$$$$00000000)
    _main_stk                                0x080000cd   Thumb Code     0  entry2.o(.ARM.Collect$$$$00000001)
    _main_scatterload                        0x080000d1   Thumb Code     0  entry5.o(.ARM.Collect$$$$00000004)
    __main_after_scatterload                 0x080000d5   Thumb Code     0  entry5.o(.ARM.Collect$$$$00000004)
    _main_clock                              0x080000d5   Thumb Code     0  entry7b.o(.ARM.Collect$$$$00000008)
    _main_cpp_init                           0x080000d5   Thumb Code     0  entry8b.o(.ARM.Collect$$$$0000000A)
    _main_init                               0x080000d5   Thumb Code     0  entry9a.o(.ARM.Collect$$$$0000000B)
    __rt_final_cpp                           0x080000dd   Thumb Code     0  entry10a.o(.ARM.Collect$$$$0000000D)
    __rt_final_exit                          0x080000dd   Thumb Code     0  entry11a.o(.ARM.Collect$$$$0000000F)
    Reset_Handler                            0x080000e1   Thumb Code     8  startup_gd32e23x.o(.text)
    ADC_CMP_IRQHandler                       0x080000f3   Thumb Code     0  startup_gd32e23x.o(.text)
    DMA_Channel0_IRQHandler                  0x080000f3   Thumb Code     0  startup_gd32e23x.o(.text)
    DMA_Channel1_2_IRQHandler                0x080000f3   Thumb Code     0  startup_gd32e23x.o(.text)
    DMA_Channel3_4_IRQHandler                0x080000f3   Thumb Code     0  startup_gd32e23x.o(.text)
    EXTI0_1_IRQHandler                       0x080000f3   Thumb Code     0  startup_gd32e23x.o(.text)
    EXTI2_3_IRQHandler                       0x080000f3   Thumb Code     0  startup_gd32e23x.o(.text)
    EXTI4_15_IRQHandler                      0x080000f3   Thumb Code     0  startup_gd32e23x.o(.text)
    FMC_IRQHandler                           0x080000f3   Thumb Code     0  startup_gd32e23x.o(.text)
    I2C0_ER_IRQHandler                       0x080000f3   Thumb Code     0  startup_gd32e23x.o(.text)
    I2C0_EV_IRQHandler                       0x080000f3   Thumb Code     0  startup_gd32e23x.o(.text)
    I2C1_ER_IRQHandler                       0x080000f3   Thumb Code     0  startup_gd32e23x.o(.text)
    I2C1_EV_IRQHandler                       0x080000f3   Thumb Code     0  startup_gd32e23x.o(.text)
    LVD_IRQHandler                           0x080000f3   Thumb Code     0  startup_gd32e23x.o(.text)
    RCU_IRQHandler                           0x080000f3   Thumb Code     0  startup_gd32e23x.o(.text)
    RTC_IRQHandler                           0x080000f3   Thumb Code     0  startup_gd32e23x.o(.text)
    SPI0_IRQHandler                          0x080000f3   Thumb Code     0  startup_gd32e23x.o(.text)
    SPI1_IRQHandler                          0x080000f3   Thumb Code     0  startup_gd32e23x.o(.text)
    TIMER0_BRK_UP_TRG_COM_IRQHandler         0x080000f3   Thumb Code     0  startup_gd32e23x.o(.text)
    TIMER0_Channel_IRQHandler                0x080000f3   Thumb Code     0  startup_gd32e23x.o(.text)
    TIMER13_IRQHandler                       0x080000f3   Thumb Code     0  startup_gd32e23x.o(.text)
    TIMER14_IRQHandler                       0x080000f3   Thumb Code     0  startup_gd32e23x.o(.text)
    TIMER16_IRQHandler                       0x080000f3   Thumb Code     0  startup_gd32e23x.o(.text)
    TIMER2_IRQHandler                        0x080000f3   Thumb Code     0  startup_gd32e23x.o(.text)
    TIMER5_IRQHandler                        0x080000f3   Thumb Code     0  startup_gd32e23x.o(.text)
    USART0_IRQHandler                        0x080000f3   Thumb Code     0  startup_gd32e23x.o(.text)
    USART1_IRQHandler                        0x080000f3   Thumb Code     0  startup_gd32e23x.o(.text)
    WWDGT_IRQHandler                         0x080000f3   Thumb Code     0  startup_gd32e23x.o(.text)
    __aeabi_fmul                             0x080000fd   Thumb Code   122  fmul.o(.text)
    __aeabi_fdiv                             0x08000177   Thumb Code   124  fdiv.o(.text)
    __aeabi_ui2f                             0x080001f3   Thumb Code    14  ffltui.o(.text)
    __I$use$fp                               0x08000201   Thumb Code     0  iusefp.o(.text)
    _float_round                             0x08000201   Thumb Code    16  fepilogue.o(.text)
    _float_epilogue                          0x08000211   Thumb Code   114  fepilogue.o(.text)
    __scatterload                            0x08000285   Thumb Code    28  init.o(.text)
    __scatterload_rt2                        0x08000285   Thumb Code     0  init.o(.text)
    CLose_LED                                0x080002a9   Thumb Code    60  led.o(.text.CLose_LED)
    HardFault_Handler                        0x080002e5   Thumb Code     4  gd32e23x_it.o(.text.HardFault_Handler)
    Init_GeneralTimer                        0x080002e9   Thumb Code   104  timer.o(.text.Init_GeneralTimer)
    Init_Key_GPIO                            0x08000359   Thumb Code    24  key.o(.text.Init_Key_GPIO)
    Init_LED_GPIO                            0x08000379   Thumb Code    92  led.o(.text.Init_LED_GPIO)
    NMI_Handler                              0x080003d9   Thumb Code     2  gd32e23x_it.o(.text.NMI_Handler)
    Open_LED                                 0x080003dd   Thumb Code    60  led.o(.text.Open_LED)
    PendSV_Handler                           0x0800041d   Thumb Code     2  gd32e23x_it.o(.text.PendSV_Handler)
    SVC_Handler                              0x0800041f   Thumb Code     2  gd32e23x_it.o(.text.SVC_Handler)
    SysTick_Handler                          0x08000421   Thumb Code     2  gd32e23x_it.o(.text.SysTick_Handler)
    SystemInit                               0x08000425   Thumb Code   216  system_gd32e23x.o(.text.SystemInit)
    TIMER15_IRQHandler                       0x0800051d   Thumb Code    80  timer.o(.text.TIMER15_IRQHandler)
    gpio_bit_reset                           0x0800062d   Thumb Code    16  gd32e23x_gpio.o(.text.gpio_bit_reset)
    gpio_bit_set                             0x0800063d   Thumb Code    16  gd32e23x_gpio.o(.text.gpio_bit_set)
    gpio_mode_set                            0x0800064d   Thumb Code   142  gd32e23x_gpio.o(.text.gpio_mode_set)
    gpio_output_options_set                  0x080006db   Thumb Code   138  gd32e23x_gpio.o(.text.gpio_output_options_set)
    main                                     0x08000765   Thumb Code    36  main.o(.text.main)
    nvic_irq_enable                          0x0800078d   Thumb Code    44  gd32e23x_misc.o(.text.nvic_irq_enable)
    nvic_vector_table_set                    0x080007b9   Thumb Code    28  gd32e23x_misc.o(.text.nvic_vector_table_set)
    rcu_periph_clock_enable                  0x080007dd   Thumb Code    36  gd32e23x_rcu.o(.text.rcu_periph_clock_enable)
    rcu_periph_reset_disable                 0x08000805   Thumb Code    36  gd32e23x_rcu.o(.text.rcu_periph_reset_disable)
    rcu_periph_reset_enable                  0x0800082d   Thumb Code    36  gd32e23x_rcu.o(.text.rcu_periph_reset_enable)
    systick_clksource_set                    0x0800093d   Thumb Code    40  gd32e23x_misc.o(.text.systick_clksource_set)
    systick_config                           0x08000969   Thumb Code    44  systick.o(.text.systick_config)
    timer_deinit                             0x080009a9   Thumb Code   200  gd32e23x_timer.o(.text.timer_deinit)
    timer_enable                             0x08000a89   Thumb Code    18  gd32e23x_timer.o(.text.timer_enable)
    timer_init                               0x08000a9d   Thumb Code   228  gd32e23x_timer.o(.text.timer_init)
    timer_interrupt_enable                   0x08000b99   Thumb Code    20  gd32e23x_timer.o(.text.timer_interrupt_enable)
    timer_interrupt_flag_clear               0x08000bad   Thumb Code    18  gd32e23x_timer.o(.text.timer_interrupt_flag_clear)
    timer_interrupt_flag_get                 0x08000bbf   Thumb Code    58  gd32e23x_timer.o(.text.timer_interrupt_flag_get)
    timer_prescaler_config                   0x08000bf9   Thumb Code    48  gd32e23x_timer.o(.text.timer_prescaler_config)
    timer_struct_para_init                   0x08000c29   Thumb Code    36  gd32e23x_timer.o(.text.timer_struct_para_init)
    __scatterload_copy                       0x08000c51   Thumb Code    14  handlers.o(i.__scatterload_copy)
    __scatterload_null                       0x08000c5f   Thumb Code     2  handlers.o(i.__scatterload_null)
    __scatterload_zeroinit                   0x08000c61   Thumb Code    14  handlers.o(i.__scatterload_zeroinit)
    Region$$Table$$Base                      0x08000c70   Number         0  anon$$obj.o(Region$$Table)
    Region$$Table$$Limit                     0x08000c90   Number         0  anon$$obj.o(Region$$Table)
    SystemCoreClock                          0x20000000   Data           4  system_gd32e23x.o(.data.SystemCoreClock)
    __initial_sp                             0x20000418   Data           0  startup_gd32e23x.o(STACK)



==============================================================================

Memory Map of the image

  Image Entry point : 0x080000cd

  Load Region LR_IROM1 (Base: 0x08000000, Size: 0x00000c98, Max: 0x00010000, ABSOLUTE)

    Execution Region ER_IROM1 (Exec base: 0x08000000, Load base: 0x08000000, Size: 0x00000c90, Max: 0x00010000, ABSOLUTE)

    Exec Addr    Load Addr    Size         Type   Attr      Idx    E Section Name        Object

    0x08000000   0x08000000   0x000000cc   Data   RO         1180    RESET               startup_gd32e23x.o
    0x080000cc   0x080000cc   0x00000000   Code   RO         1225  * .ARM.Collect$$$$00000000  mc_p.l(entry.o)
    0x080000cc   0x080000cc   0x00000004   Code   RO         1236    .ARM.Collect$$$$00000001  mc_p.l(entry2.o)
    0x080000d0   0x080000d0   0x00000004   Code   RO         1239    .ARM.Collect$$$$00000004  mc_p.l(entry5.o)
    0x080000d4   0x080000d4   0x00000000   Code   RO         1241    .ARM.Collect$$$$00000008  mc_p.l(entry7b.o)
    0x080000d4   0x080000d4   0x00000000   Code   RO         1243    .ARM.Collect$$$$0000000A  mc_p.l(entry8b.o)
    0x080000d4   0x080000d4   0x00000008   Code   RO         1244    .ARM.Collect$$$$0000000B  mc_p.l(entry9a.o)
    0x080000dc   0x080000dc   0x00000000   Code   RO         1246    .ARM.Collect$$$$0000000D  mc_p.l(entry10a.o)
    0x080000dc   0x080000dc   0x00000000   Code   RO         1248    .ARM.Collect$$$$0000000F  mc_p.l(entry11a.o)
    0x080000dc   0x080000dc   0x00000004   Code   RO         1237    .ARM.Collect$$$$00002712  mc_p.l(entry2.o)
    0x080000e0   0x080000e0   0x0000001c   Code   RO         1181    .text               startup_gd32e23x.o
    0x080000fc   0x080000fc   0x0000007a   Code   RO         1228    .text               mf_p.l(fmul.o)
    0x08000176   0x08000176   0x0000007c   Code   RO         1230    .text               mf_p.l(fdiv.o)
    0x080001f2   0x080001f2   0x0000000e   Code   RO         1232    .text               mf_p.l(ffltui.o)
    0x08000200   0x08000200   0x00000000   Code   RO         1250    .text               mc_p.l(iusefp.o)
    0x08000200   0x08000200   0x00000082   Code   RO         1251    .text               mf_p.l(fepilogue.o)
    0x08000282   0x08000282   0x00000002   PAD
    0x08000284   0x08000284   0x00000024   Code   RO         1253    .text               mc_p.l(init.o)
    0x080002a8   0x080002a8   0x0000003c   Code   RO         1190    .text.CLose_LED     led.o
    0x080002e4   0x080002e4   0x00000004   Code   RO            4    .text.HardFault_Handler  gd32e23x_it.o
    0x080002e8   0x080002e8   0x00000070   Code   RO         1214    .text.Init_GeneralTimer  timer.o
    0x08000358   0x08000358   0x00000020   Code   RO         1201    .text.Init_Key_GPIO  key.o
    0x08000378   0x08000378   0x00000060   Code   RO         1188    .text.Init_LED_GPIO  led.o
    0x080003d8   0x080003d8   0x00000002   Code   RO            2    .text.NMI_Handler   gd32e23x_it.o
    0x080003da   0x080003da   0x00000002   PAD
    0x080003dc   0x080003dc   0x00000040   Code   RO         1192    .text.Open_LED      led.o
    0x0800041c   0x0800041c   0x00000002   Code   RO            8    .text.PendSV_Handler  gd32e23x_it.o
    0x0800041e   0x0800041e   0x00000002   Code   RO            6    .text.SVC_Handler   gd32e23x_it.o
    0x08000420   0x08000420   0x00000002   Code   RO           10    .text.SysTick_Handler  gd32e23x_it.o
    0x08000422   0x08000422   0x00000002   PAD
    0x08000424   0x08000424   0x000000f8   Code   RO         1162    .text.SystemInit    system_gd32e23x.o
    0x0800051c   0x0800051c   0x00000058   Code   RO         1216    .text.TIMER15_IRQHandler  timer.o
    0x08000574   0x08000574   0x00000034   Code   RO          501    .text.__NVIC_EnableIRQ  gd32e23x_misc.o
    0x080005a8   0x080005a8   0x00000084   Code   RO          499    .text.__NVIC_SetPriority  gd32e23x_misc.o
    0x0800062c   0x0800062c   0x00000010   Code   RO          391    .text.gpio_bit_reset  gd32e23x_gpio.o
    0x0800063c   0x0800063c   0x00000010   Code   RO          389    .text.gpio_bit_set  gd32e23x_gpio.o
    0x0800064c   0x0800064c   0x0000008e   Code   RO          385    .text.gpio_mode_set  gd32e23x_gpio.o
    0x080006da   0x080006da   0x0000008a   Code   RO          387    .text.gpio_output_options_set  gd32e23x_gpio.o
    0x08000764   0x08000764   0x00000028   Code   RO           19    .text.main          main.o
    0x0800078c   0x0800078c   0x0000002c   Code   RO          497    .text.nvic_irq_enable  gd32e23x_misc.o
    0x080007b8   0x080007b8   0x00000024   Code   RO          511    .text.nvic_vector_table_set  gd32e23x_misc.o
    0x080007dc   0x080007dc   0x00000028   Code   RO          561    .text.rcu_periph_clock_enable  gd32e23x_rcu.o
    0x08000804   0x08000804   0x00000028   Code   RO          571    .text.rcu_periph_reset_disable  gd32e23x_rcu.o
    0x0800082c   0x0800082c   0x00000028   Code   RO          569    .text.rcu_periph_reset_enable  gd32e23x_rcu.o
    0x08000854   0x08000854   0x000000e0   Code   RO         1168    .text.system_clock_72m_hxtal  system_gd32e23x.o
    0x08000934   0x08000934   0x00000008   Code   RO         1164    .text.system_clock_config  system_gd32e23x.o
    0x0800093c   0x0800093c   0x0000002c   Code   RO          517    .text.systick_clksource_set  gd32e23x_misc.o
    0x08000968   0x08000968   0x00000040   Code   RO           28    .text.systick_config  systick.o
    0x080009a8   0x080009a8   0x000000e0   Code   RO          839    .text.timer_deinit  gd32e23x_timer.o
    0x08000a88   0x08000a88   0x00000012   Code   RO          845    .text.timer_enable  gd32e23x_timer.o
    0x08000a9a   0x08000a9a   0x00000002   PAD
    0x08000a9c   0x08000a9c   0x000000fc   Code   RO          843    .text.timer_init    gd32e23x_timer.o
    0x08000b98   0x08000b98   0x00000014   Code   RO          881    .text.timer_interrupt_enable  gd32e23x_timer.o
    0x08000bac   0x08000bac   0x00000012   Code   RO          887    .text.timer_interrupt_flag_clear  gd32e23x_timer.o
    0x08000bbe   0x08000bbe   0x0000003a   Code   RO          885    .text.timer_interrupt_flag_get  gd32e23x_timer.o
    0x08000bf8   0x08000bf8   0x00000030   Code   RO          863    .text.timer_prescaler_config  gd32e23x_timer.o
    0x08000c28   0x08000c28   0x00000028   Code   RO          841    .text.timer_struct_para_init  gd32e23x_timer.o
    0x08000c50   0x08000c50   0x0000000e   Code   RO         1257    i.__scatterload_copy  mc_p.l(handlers.o)
    0x08000c5e   0x08000c5e   0x00000002   Code   RO         1258    i.__scatterload_null  mc_p.l(handlers.o)
    0x08000c60   0x08000c60   0x0000000e   Code   RO         1259    i.__scatterload_zeroinit  mc_p.l(handlers.o)
    0x08000c6e   0x08000c6e   0x00000002   PAD
    0x08000c70   0x08000c70   0x00000020   Data   RO         1256    Region$$Table       anon$$obj.o


    Execution Region RW_IRAM1 (Exec base: 0x20000000, Load base: 0x08000c90, Size: 0x00000418, Max: 0x00002000, ABSOLUTE)

    Exec Addr    Load Addr    Size         Type   Attr      Idx    E Section Name        Object

    0x20000000   0x08000c90   0x00000004   Data   RW         1170    .data.SystemCoreClock  system_gd32e23x.o
    0x20000004   0x08000c94   0x00000004   PAD
    0x20000008        -       0x00000001   Zero   RW         1218    .bss.TIMER15_IRQHandler.num  timer.o
    0x20000009   0x08000c94   0x00000003   PAD
    0x2000000c        -       0x00000004   Zero   RW           39    .bss.count_1ms      systick.o
    0x20000010        -       0x00000004   Zero   RW           38    .bss.count_1us      systick.o
    0x20000014   0x08000c94   0x00000004   PAD
    0x20000018        -       0x00000400   Zero   RW         1178    STACK               startup_gd32e23x.o


==============================================================================

Image component sizes


      Code (inc. data)   RO Data    RW Data    ZI Data      Debug   Object Name

       312          0          0          0          0       4233   gd32e23x_gpio.o
        12          0          0          0          0        706   gd32e23x_it.o
       308         24          0          0          0       3891   gd32e23x_misc.o
       120         12          0          0          0      11258   gd32e23x_rcu.o
       678         52          0          0          0      16888   gd32e23x_timer.o
        32          8          0          0          0       1779   key.o
       220          8          0          0          0       1464   led.o
        40          4          0          0          0        559   main.o
        28          8        204          0       1024        708   startup_gd32e23x.o
       480         48          0          4          0       1919   system_gd32e23x.o
        64         20          0          0          8       1758   systick.o
       200         16          0          0          1       2555   timer.o

    ----------------------------------------------------------------------
      2500        200        236          4       1044      47718   Object Totals
         0          0         32          0          0          0   (incl. Generated)
         6          0          0          0         11          0   (incl. Padding)

    ----------------------------------------------------------------------

      Code (inc. data)   RO Data    RW Data    ZI Data      Debug   Library Member Name

         0          0          0          0          0          0   entry.o
         0          0          0          0          0          0   entry10a.o
         0          0          0          0          0          0   entry11a.o
         8          4          0          0          0          0   entry2.o
         4          0          0          0          0          0   entry5.o
         0          0          0          0          0          0   entry7b.o
         0          0          0          0          0          0   entry8b.o
         8          4          0          0          0          0   entry9a.o
        30          0          0          0          0          0   handlers.o
        36          8          0          0          0         68   init.o
         0          0          0          0          0          0   iusefp.o
       124          0          0          0          0         72   fdiv.o
       130          0          0          0          0        144   fepilogue.o
        14          0          0          0          0         68   ffltui.o
       122          0          0          0          0         72   fmul.o

    ----------------------------------------------------------------------
       480         16          0          0          0        424   Library Totals
         4          0          0          0          0          0   (incl. Padding)

    ----------------------------------------------------------------------

      Code (inc. data)   RO Data    RW Data    ZI Data      Debug   Library Name

        86         16          0          0          0         68   mc_p.l
       390          0          0          0          0        356   mf_p.l

    ----------------------------------------------------------------------
       480         16          0          0          0        424   Library Totals

    ----------------------------------------------------------------------

==============================================================================


      Code (inc. data)   RO Data    RW Data    ZI Data      Debug   

      2980        216        236          4       1044      48006   Grand Totals
      2980        216        236          4       1044      48006   ELF Image Totals
      2980        216        236          4          0          0   ROM Totals

==============================================================================

    Total RO  Size (Code + RO Data)                 3216 (   3.14kB)
    Total RW  Size (RW Data + ZI Data)              1048 (   1.02kB)
    Total ROM Size (Code + RO Data + RW Data)       3220 (   3.14kB)

==============================================================================

