:020000040800F2
:1000000018050020E10000081D0A00085908000832
:1000100000000000000000000000000000000000E0
:10002000000000000000000000000000210A00089D
:1000300000000000000000001F0A0008230A00085A
:10004000F3000008F3000008F3000008F3000008C4
:10005000F3000008F3000008F3000008F3000008B4
:1000600000000000F3000008F3000008F30000089F
:10007000F3000008F3000008F3000008000000008F
:10008000F3000008F300000800000000F30000087F
:10009000F3000008F3000008F3000008F300000874
:1000A000F3000008F3000008F3000008210B00082B
:1000B000F300000800000000000000000000000045
:1000C000F300000800000000F30000080348854624
:1000D00000F0E0FA00480047DD1000081805002095
:1000E0000448804704480047FEE7FEE7FEE7FEE7D6
:1000F000FEE7FEE7250A0008CD000008D2B201E0C5
:100100000270401C491EFBD270470022F6E710B572
:1001100013460A4604461946FFF7F0FF204610BD75
:10012000024670B54A40D30FDB0740002DD04A008D
:100130002AD0010E140E000212020919400A520AB6
:100140008418E50104465443000A120A2E04504361
:10015000A4194219200CC543AA18120C0125AD039D
:10016000521C521912047F39240400D0521C10432F
:1001700001D44000491EC2B20C06C0092018401C20
:100180004008802A02D003E0002070BD40084000F3
:10019000002900DA0020184370BD70B502464A40BD
:1001A000D50F40004A00ED0740085208002814D03F
:1001B000002A12D0C40DD30D41020120C005520205
:1001C000490A520AE41A091812187D34914201D3DF
:1001D000641C00E04900002C01DA002070BD0023FF
:1001E000914201D3891A0343400849000028F7D1FE
:1001F00000290AD0914202D10121C90705E09142AC
:1002000001D2012101E00121C943E005C0184019D4
:1002100000F038F870BD10B500229623114600F0AA
:1002200039F810BDF0B51FB40646002082B005466F
:100230004024019100901BE0019922460F46304670
:1002400000F069FA049A059B801A994110D3104670
:100250001946224600F04FFA361A8F41019722467E
:1002600001200021009F00F046FA38184D4100900F
:100270002046641E0028DFDC019B00982946324698
:1002800007B0F0BD002904DA401C490001D1400844
:100290004000704770B40024050C05D11024000400
:1002A00002D1002921D01124050E01D10002083409
:1002B000050F01D10001241D850F01D18000A41C70
:1002C000002801DB4000641C002908D020252E1BDB
:1002D0000D46F540A14000D0012129430843010605
:1002E0001B1B000ADB1D02D5002070BC7047DB051C
:1002F000181880180029F8DA401C4900F5D170BCA4
:100300004008400070470000F0B5074608465840D6
:1003100087B0C00F049048000E46590040084908B5
:10032000BC1A884105D2384631461E4617460B4650
:1003300002465800400810434CD0300D0390400551
:100340005900400D490D0590401A0290402872DA7C
:1003500018030121000B090508430190049800923D
:10036000002805D001995242002088410092019056
:10037000029840210A1A0199009800F0BCF905463C
:100380000C466B4607CB00F0D7F9C0197141039AB0
:100390000E0D0023D71756401A467A40164344D014
:1003A000049A002A2DD0029A012A039A15DC12051C
:1003B000C01A914101263605001C7141D20F059EDD
:1003C000D2070093019202962A46234600F0D4F900
:1003D00007B0F0BD38463146FAE71605224A0F4607
:1003E000B218C01AB74101210905001C4F4100187D
:1003F0007F41114618187941E20F10436D1964418D
:1004000013E0E2076D0815436408C2071443039A1A
:1004100001261205C01A91413605001C7141CE0714
:10042000400830434908C01851412A46234600F08D
:1004300096F9CDE7FFE7049801224000C117121A90
:1004400000238B4104983146C417381AA141EEE7C6
:1004500030B40124E407634030BC55E730B40124D4
:10046000E407614030BC4FE70000E0FFF0B51FB487
:1004700088B00B990998002448400999C00F490099
:1004800049080991C0070B990090490049080B9150
:1004900009990898A64608431CD00B990A98084366
:1004A00018D0099801244000420D4800410D0998D8
:1004B00024050003000B204309900B980003000B58
:1004C00020430B9050181C494018002201901446FC
:1004D000104605E0002001460DB0F0BD032801DA0A
:1004E000034600E003239C46C11A0AAE0AE05F00FF
:1004F00008ADED5B4F00F75B7D430027AA187C41F8
:10050000491C5B1E6145F2DD410004AB5A522104D7
:10051000120C0A43240C401C0828DFDB01980290CF
:100520000099704601910090059B049A07990698DE
:1005300000F022F9D0E700000DFCFFFFF0B50C46FB
:100540005C4085B0E40FE40703944C000026640887
:1005500059009446490802460296224321D0624639
:100560000A431ED06200570D4A000E032303550DA7
:10057000012402462C492405781B1B0B360B40181E
:1005800023432643614600901C46501AB44103D3CE
:100590000098401C009002E0921800985B410028EF
:1005A00003DA0020014605B0F0BD00200121090555
:1005B0000746864611E064461D46141BB54106D326
:1005C0006546521BB341744607430C43A646CD070C
:1005D00040084908284392185B4105460D43EAD17B
:1005E0001046184313D060461946504071400843E6
:1005F00006D06046101AB34106D20122002306E05D
:1006000000220123DB0702E00122D24353100098AD
:1006100074460105381C6141029C039D0019694123
:1006200000F09DF8BFE70000FD0300004A00090349
:100630000123090B1B0519430A4B10B5520D9A42B1
:1006400002DA0020014610BD064B34339A4203DC27
:100650009A1A00F060F810BD034BD21800F04BF866
:1006600010BD0000FF030000CDFBFFFF10B5002907
:1006700004DB0124E40740428C412146002B04DBCB
:100680001C460123DB075242A341994200D190420C
:1006900010BD0000064C0125064E05E0E36807CCBE
:1006A0002B430C3C98471034B442F7D3FFF712FDAC
:1006B000702200089022000870B50446002903D07B
:1006C00000202022012310E0002801D00020C04398
:1006D000C046C0460DE02546D5408D4205D30D46A7
:1006E0009540641B1D46954040191546521E002D2D
:1006F000F1DC214670BD10B5202A04DB0146203A0A
:100700009140002010BD914020239C1A0346E340F5
:100710001943904010BD10B5202A04DB0846203A4A
:10072000D040002110BD0B46D340D0402024A21A57
:1007300091400843194610BD10B5202A06DBCB179F
:100740000846203A1041C1170B4306E00B461341FF
:10075000D0402024A21A91400843194610BD10B57C
:10076000002B08DA0024401C614192185B411A43B7
:1007700001D14008400010BDF0B51FB482B005465D
:100780000C0003D0084601F0EDF802E001F0EAF8B1
:1007900020300246009021462846FFF7ACFF049B1C
:1007A000059A04460F4618431143084314D01846CF
:1007B00010431BD0009840210A1A18460599FFF7EC
:1007C000AAFF05460E46009A05990498FFF793FF85
:1007D000084305D0012004E02046394607B0F0BDAB
:1007E0000020C11705430E432C43374300990E9850
:1007F0006305401A7905E40A00220C43FD0A0A3019
:1008000002D500200146E9E70105101969410C9C59
:100810000D9D00196941FFF7A2FFDFE780B582B0A7
:10082000014601A8017000780090012804D0FFE77C
:100830000098022806D00BE0284844F2000100F09E
:10084000B9FB06E0254848F2000100F0B3FB00E0E8
:10085000FFE702B080BDC046FFE7FEE780B5054870
:1008600000F0FCFD0448002101224EF2000300F0DC
:10087000A9FB80BD120500000004004880B586B0C9
:10088000154800F0EBFD154801900121059100226B
:10089000029244F20003009300F094FB0198029A44
:1008A000059948F20003049300F08CFB009B01982B
:1008B00002990322039200F0CCFB01980299039A5B
:1008C000049B00F0C6FB0598FFF7A8FF0220FFF786
:1008D000A5FF06B080BDC046130500000008004813
:1008E00080B58AB00990334800F0B8FD324800F076
:1008F000B5FD0920C00604900121059140F20022B7
:10090000029200F0F7FA0498059940F2004206922C
:1009100000F0F0FA029B0498059A0221039100F07E
:1009200051FB029B0498059A0021079100F091FB6E
:1009300003990498059A069B00F044FB0498059AD5
:10094000069B079900F085FBAD48089000F0CCFEAF
:100950000799089800F0E1FF0799089800F0B9FF9F
:100960000799089800F091FF0898099900F058FE3F
:100970000898042100F09EFF0898082100F0BEFFAF
:100980000898402100F0DAFE089800F0E6FEFFE744
:100990009B480A4900F0F9FE08B9FFE7F8E79848D4
:1009A0000190064900F0E2FE0198042100F00BFFDF
:1009B0000AB080BD110500000E060000040700000B
:1009C00080B58AB01B200021019100F0A3FB40F20A
:1009D000005000F043FD0220029000F09BF9019AC4
:1009E000029803A98A76724B059301234B760692EF
:1009F00040F200130793084B03930A76049243F2E4
:100A00000002089200F0B4F9029800F075F902981B
:100A100000F064F90AB080BD243801407047704787
:100A20007047704780B584B034490868012210438C
:100A30000860FFE7314800688007002801D4FFE71D
:100A4000F8E7FFE72E49086880221043086000207D
:100A50000390FFE703987F2805D8FFE7FFE7039897
:100A6000401C0390F6E7264908689022104308606E
:100A700000200390FFE703987F2805D8FFE7FFE7F2
:100A80000398401C0390F6E7FFE71D49086803221E
:100A900090430860194A10681A4B184010600868A3
:100AA000194A104008600868184A10400860184940
:100AB00008680F22904308601649086840F2031244
:100AC000904308600868012201921304984308606B
:100AD0000868D307984308600F4908689043086086
:100AE0000E4900200290086000F060FD0198029914
:100AF000C00600F025FB04B080BDC04600100240D7
:100B000004100240FFFFF2FE0C00FF08FFFFC27757
:100B10002C100240301002403410024008100240F5
:100B200080B582B0F148124900F07EFEE8B1FFE7DF
:100B3000EE480F4900F058FE0220019000F0B4F991
:100B40000246019840F200110091891A194A117069
:100B5000154A0121117000F0B3F80099019800F0D6
:100B600093F9019800F0BAF8FFE702B080BDC046E3
:100B70000400040780B582B00B480078012810D12A
:100B8000FFE70A480A49019100F0DCFE019840F2B3
:100B90000011FFF7BAFA04490020087005490870EF
:100BA000FFE702B080BDC046100000206A220008A6
:100BB000120000201100002080B582B00190CB48C7
:100BC000104900F0D3FDFFE701980078A8B1FFE7D6
:100BD00001980178C54800F07BFDFFE7C348C44990
:100BE00000F0D3FD08B9FFE7F8E7C048054900F079
:100BF000BDFD0198401C0190E6E702B080BDC046F3
:100C0000003801400607000081B0014668460170C7
:100C10000021405600280DD4FFE7002168464156C8
:100C20001F200A4602400120904049098900024ADB
:100C30008850FFE701B0704700E100E070B582B076
:100C4000024601A80270009100214056002816D4E7
:100C5000FFE7002401A908570322D3431840174A8D
:100C6000805809578C07E50EFF24AC40A043009C38
:100C7000A401E4B2AC402043194088501AE001A915
:100C800008780F24204008380322D34318400A4A2A
:100C90008058002549578D07EE0EFF25B540A84323
:100CA000009DAD01EDB2B5402843214008391940FF
:100CB0008850FFE702B070BD1CED00E000E400E0EA
:100CC00081B00146684601700078142141436D4AA5
:100CD000885801239843885001B0704781B001467D
:100CE00068460170007814214143664A8858012300
:100CF0001843885001B0704781B0014668460170C2
:100D00000078142141435F4A885820239843885033
:100D100001B07047B0B581B00146684601700178F6
:100D2000142213464B43574C19590125A943195115
:100D3000017813464B43002119510478134663434D
:100D40005F4C19510478134663434C4C1951037896
:100D50005A434B4BD150007880000F228240034908
:100D600008681043086001B0B0BDC04604000240EE
:100D7000B0B584B0024603A80090027002910078DA
:100D8000FFF79EFF009B029800681C7814210A461A
:100D900062433A4C1051029880681C780A466243BC
:100DA000374C10510298008A1C780A466243444C22
:100DB00010511A7808465043324A805801900198E1
:100DC00043F60074A043019002984468C5682C4320
:100DD0004069044301982043019001981B785943CE
:100DE00088500298007E01280AD1FFE703A8007806
:100DF00014214143234A885840231843885009E06E
:100E000003A80078142141431E4A88584023984380
:100E10008850FFE70298407E01280AD1FFE703A827
:100E2000007814214143174A88588023184388507A
:100E300009E003A8007814214143124A885880230E
:100E400098438850FFE70298807E50B9FFE703A8D7
:100E50000078142141430B4A885810239843885046
:100E600009E003A8007814214143064A885810235A
:100E700018438850FFE704B0B0BDC04610000240E0
:100E8000140002400800024083B00091024600981E
:100E900002A90A70019001A800880A781421514320
:100EA000074A885003B0704781B001466846017018
:100EB0000178142048430249405801B07047C046A9
:100EC0000C00024080B582B00190009101A8017829
:100ED000064800F0FDFBFFE70448054900F055FC1B
:100EE00008B9FFE7F8E7019802B080BD003801407B
:100EF0000707000086B00590049103920598006AE8
:100F000001900598406A009002A900200880FFE740
:100F100002A8008807281DD8FFE702A801880398C7
:100F2000C840C00780B1FFE702A8018889000F22EE
:100F30008A40019991430191049900888000814081
:100F4000019808430190FFE7FFE70298401C02A9BF
:100F50000880DDE702A908200880FFE702A80088D2
:100F60000F281FD8FFE702A801880398C840C007D0
:100F700090B1FFE702A80188890020390F228A403A
:100F800000999143009104990088800020388140A5
:100F9000009808430090FFE7FFE70298401C02A971
:100FA0000880DBE701980599086200980599486276
:100FB00006B0704782B00190009100980199886155
:100FC00002B0704787B0069005910492039306988B
:100FD000006801900698C068009002A9002008806F
:100FE000FFE702A800880F282BD8FFE702A8018896
:100FF0000398C840C007F0B1FFE702A80188490084
:10100000032213468B40019999430191059B018866
:1010100049008B40019919430191018849008A4098
:101020000099914300910499008840008140009804
:1010300008430090FFE7FFE70298401C02A90880E0
:10104000CFE701980699086000980699C86007B034
:10105000704710B586B0059004A801700392029302
:101060000078012806D1FFE7029A059948681043E5
:10107000486005E0029A0599486890434860FFE798
:1010800005988068009001A900200880FFE701A86A
:1010900000880F281DD8FFE701A801880298C840E2
:1010A000C00780B1FFE701A80188490003228A40F8
:1010B0000099914300910399008840008140009875
:1010C00008430090FFE7FFE70198401C01A9088052
:1010D000DDE700980599886006B010BD80B582B044
:1010E000002001906946087000F07AFAFFF7C6FB0D
:1010F000FFF7B4FBE1204002FFF7F2FBFFF760FCD3
:101100000348FFF759FDFFE7FFF734FDFCE7C04652
:101110005C22000880B584B00A46014603A801900D
:10112000017002A90A700022009280560978FFF728
:1011300085FD009901984056FFF766FD04B080BD1B
:1011400082B00190009101980099044A114008432F
:1011500003490860BFF34F8F02B0704780FFFF1F45
:1011600008ED00E09DB01CA90870002002901B90C3
:101170001A9019901890179016901590149013903B
:101180001290119010900F900E900D900C90AA4913
:101190000B91AA490A910990089007910690059130
:1011A0000490A74800680C21084080081B901B98F9
:1011B000039040B1FFE70398012807D0FFE70398A9
:1011C000022806D044E0A148179044E09F481790B9
:1011D00041E0F44801680F2292041140890C1191FA
:1011E00000680121C9060840C00E1090109801281F
:1011F00004D1FFE71198113011900BE011980F28DE
:1012000003D1FFE71020119003E01198801C11908A
:10121000FFE7FFE7E3480068012109040840000CEC
:101220000F900F9870B1FFE7874800680F210840C2
:10123000401C0E900E998548B0FBF1F1119848437F
:10124000179004E011997F4848431790FFE702E0A8
:101250007E481790FFE7D3480168C9B209090D918C
:101260000D9A08A9895C0C9117990C9AD140169196
:10127000016840F200721140090A0D910D9A06A909
:10128000895C0C9116990C9AD1401591006843F62F
:1012900000010840C00A0D900D9904A8405C0C9014
:1012A00016980C99C84014901CA800780190052845
:1012B00000D9BCE001998A0001A080188746C04689
:1012C00000F00AB800F00BB800F00CB800F00DB850
:1012D00000F00EB800F07DB817981890A8E01698A6
:1012E0001890A5E015981890A2E0149818909FE027
:1012F0005748006840F20011084088420FD0FFE7CD
:1013000053480068012109040840884203D0FFE7E0
:101310005148139002E04F481390FFE756E0A14870
:10132000006880B2800B1A9049480068C00F19907D
:101330001A980090032847D800998A0001A08018C5
:101340008746C04600F006B800F012B800F01EB89C
:1013500000F02CB8199820B9FFE7149840081390B2
:1013600005E016980321B0FBF1F01390FFE72CE0A5
:10137000199820B9FFE714988008139005E0169893
:101380000521B0FBF1F01390FFE71EE0199830B98A
:10139000FFE714980621B0FBF1F0139005E01698D2
:1013A0000721B0FBF1F01390FFE70EE0199820B988
:1013B000FFE71498C008139005E016980921B0FBC8
:1013C000F1F01390FFE700E0FFE7FFE713981890B4
:1013D0002EE01F480068800718B9FFE714981290A4
:1013E00022E01B48006803210840012803D1FFE7E1
:1013F0001798129017E01648006803210840022849
:1014000004D1FFE748F2000012900BE0104800689A
:1014100003210840032803D1FFE70C48129000E0A5
:10142000FFE7FFE7FFE7FFE71298189000E0FFE70C
:1014300018981DB07047C04606070809010203044A
:101440000410024000093D002C10024000127A00F6
:1014500030100240003FAB01809FD50081B00146B3
:101460006846018000881F220146114001238B40FD
:101470008109494A88581843885001B07047C046CE
:1014800081B001466846018000881F220146114054
:1014900001238B408109404A88589843885001B005
:1014A0007047C04681B001466846018000881F220F
:1014B0000146114001238B408109374A885818435F
:1014C000885001B07047C04684B00020039002905D
:1014D000314908680122120410430860FFE70398AD
:1014E000401C03902C4800680121490408400290E8
:1014F000FFE702990020019039B9FFE703982749D7
:10150000401A411E88410190FFE70198C00700285A
:10151000E5D1FFE7204800688003002802D4FFE7F8
:10152000FFE7FEE71E4908680222104305229043A8
:1015300008601C490091086808600868086008682D
:1015400008600868184A1040086008681D221204E4
:101550001043086010490868012212061043086011
:10156000FFE70D4800688001002801D4FFE7F8E795
:101570000C4908680322904308600868022210435F
:101580000860FFE7074800680C210840082801D0E0
:10159000FFE7F7E704B0704700100240FFFF0000CC
:1015A0000020024004100240FFFFC27780B5FFF721
:1015B0008BFF80BD81B000900098042806D1FFE722
:1015C0000649086804221043086005E003490868DA
:1015D000042290430860FFE701B0704710E000E08C
:1015E00080B50420C043FFF7E5FF08480068FEF718
:1015F00012FE0749FEF7D1FD01460648016000686A
:101600000549FEF78DFD0549086080BD04000020F6
:101610000024F44A0C00002000007A440800002056
:1016200080B588B007900691002005900490039043
:101630000290079801903D4988420AD0FFE701983F
:101640003B4988420AD1FFE70520FFF78BFD059053
:1016500005E00220FFF786FD059000E0FFE7079810
:1016600000680004002818D5FFE705984000069997
:101670004A088018B0FBF1F0029002981349084024
:10168000049002980007400F039004A8008803A963
:10169000098808430799C86016E0059806994A0822
:1016A0008018B0FBF1F002900298084908400490BD
:1016B00002980F210840039004A8008803A9098814
:1016C00008430799C860FFE708B080BDF0FF00003D
:1016D00082B0019000910098024908400199886207
:1016E00002B07047FF01000080B584B003900398FA
:1016F00002900E4988420DD0FFE702980C498842BB
:1017000010D1FFE70C480190FFF7CCFE0198FFF7DE
:10171000B7FE08E007480090FFF7C4FE0098FFF707
:10172000AFFE00E0FFE704B080BDC04600440040CB
:1017300000380140110400000E03000082B0019047
:10174000009101998868402290438860009A01992D
:1017500088681043886002B0704781B0009000999B
:10176000086801221043086001B0704782B0019000
:101770006846018000881F210840012282400199AB
:10178000086A1043086202B0704784B000910146B5
:101790000098029101A9088002980A88920980584D
:1017A00009881F221140C840C00720B1FFE703A9E4
:1017B0000120087003E003A900200870FFE703A8D8
:1017C000007804B0704782B00190684601800088BC
:1017D0001F220146114001238B400199820988583C
:1017E0001843885002B0704782B001900091009871
:1017F0000C49884208D1FFE70199D022885848F265
:101800000003984388500BE000981F21090408400A
:10181000000C012282400199086A10430862FFE728
:1018200002B0704709340F3410B585B003900291AF
:10183000002001900090039802A909888909405866
:10184000029C1F231C4001210A46A2401040019027
:101850000398029A920D8058029A1B041A40120CA7
:10186000914008400090009838B1FFE7019820B1FE
:10187000FFE704A90120087003E004A90020087014
:10188000FFE704A8007805B010BD82B00190009178
:10189000019908680122904308600199086840F2A4
:1018A000006290430860009A01990868104308603C
:1018B00002B0704782B0019000910199086804223B
:1018C00090430860009A019908681043086002B0CC
:1018D000704782B0019000910199086801229043FD
:1018E00008600199486843F2000290434860009AFA
:1018F000019948681043486002B0704782B0019077
:10190000009101990868082290430860009A0199A3
:1019100008681043086002B0704782B001900091DF
:10192000019908680122904308600199086841F212
:10193000000290430860009A01990868104308600B
:1019400002B070470FB410B503A9044B044A0298C3
:1019500000F0E8F810BC08BC04B01847C50E000839
:10196000000000202021020C01D010211046020AA4
:1019700001D010460839020901D01046091F82081B
:1019800001D01046891E420801D0881E7047081AEF
:10199000704702E008C8121F08C1002AFAD1704738
:1019A0007047002001E001C1121F002AFBD17047DF
:1019B000F0B51FB486B00998089A030D00210243C0
:1019C00014D05148514A1818504305141198012851
:1019D00010981AD0281A401C00264D4F4D490096E9
:1019E00001910490002812DA444211E01198012478
:1019F00049A3012801D11098C1430698119A846027
:101A00000360C26041600BB0F0BD4042E4E70446B1
:101A1000210500203F4A001C51410391029012E031
:101A2000E00707D032463B4601990098FEF71EFDBD
:101A30000191009032463B4610461946FEF716FDCE
:101A400006460F466410002CEAD10498039B002838
:101A5000029A0999089806DAFEF708FD019B009A98
:101A6000FEF704FD05E0FEF769FD019B009AFEF715
:101A700065FD04460E460022284BFEF7F7FD03D80D
:101A80000020C043014607E00022254B2046314696
:101A9000FEF73AFCFEF7CAFD102409E0002C0ADB31
:101AA0000A220023FEF7BEFB079B30321A55641E44
:101AB00002460A43F2D11122641C079B121B1C1917
:101AC000119B012B03D0012308430ED10AE00843E8
:101AD00004D0112010900020119077E71098151A6B
:101AE0006D1E0BE01098824202DD00236D1C03E0A6
:101AF000824201DA00236D1E002BEED00698119968
:101B00008260C16030C07EE701FCFFFF104D000025
:101B1000000014400000F03F300000000000F043DF
:101B20000000E03FFFB597B00646002518E22528E3
:101B300077D100242746FD49049400E00443761C35
:101B400032780120203A90400842F7D130782A2894
:101B50000ED00222307801463039092916D804996E
:101B60000A235943303940181443761C0490F1E796
:101B7000189802C804911890002904DA0120400343
:101B800004434842049002200443761C30782E28F7
:101B900014D1042004437078761C2A2809D118989F
:101BA000761C80C8189009E00A214F43303FC719BE
:101BB000761C3078014630390929F5D930786C28FF
:101BC00010D006DC4C281AD068280ED06A2817D10D
:101BD00004E0742813D07A2812D110E001204005C7
:101BE00004430CE00121090501E0032109050C4330
:101BF0007178814203D1012000052418761C761CDF
:101C00003078119066280BD013DC58287DD009DC81
:101C100000287BD04528F6D04628F4D047281AD192
:101C2000A5E118E0632835D0642870D0652812D16A
:101C30009DE170286CD008DC6728F1D069287BD042
:101C40006E280DD06F2806D1BAE073282ED07528E3
:101C500071D0782859D01A9A199990476D1C7EE155
:101C60006002400F022809D003280DD004281898DC
:101C700001680DD00D60001D189070E11898EA17EA
:101C800001680D604A60F6E7189801680D80F2E778
:101C90000D70F0E718986A4601781172001D1890CF
:101CA0000020507202A80090012005E0189802C898
:101CB000189000200091C04361070DD5002101E07C
:101CC0000199491C0191B94212DA8142F8DB009A6C
:101CD000515C0029F4D10BE0002101E00199491C7D
:101CE00001918142FADB019A0099895C0029F5D1C2
:101CF000019904981A9B471A21463846199A00F010
:101D000097FA0199401945180BE04FE02CE113E0D8
:101D10004EE0009800990078491C00911A9A199990
:101D200090470198401E0190401CF2D12146384650
:101D30001A9B199A10E137E00A20002100900191C6
:101D40006002410F022907D0189A01CA1892C217DF
:101D50009446032908D00AE01898C01DC108C9009C
:101D600005C91891944607E000B2C21794460429A9
:101D700002D140B2C1178C4600226146944506DA72
:101D80000A460021404291418C462D2102E0210566
:101D900004D52B216A461173012103E0E10701D02C
:101DA0002021F7E7029155E00A200AE0102008E020
:101DB000102000900021042004430191082703E033
:101DC00008200021019100906002410F022907D0F4
:101DD000189A01CA189200229446032908D008E0F4
:101DE0001898C01DC108C90005C91891944603E0A0
:101DF00080B2042900D1C0B200210291210729D567
:101E00001199702906D0009A1021019B4A401A436B
:101E100005D00EE040216A461173012108E06146B9
:101E2000014306D030216A46117311995173022182
:101E30000291009A0821019B4A401A430AD1614647
:101E4000014301D1610705D530216A461173012193
:101E50007F1E02911199582904D035A10E910DA928
:101E60000D910DE037A1F9E76146019B009AFEF75D
:101E7000D9F90E9B8C469B5C0D9A521E0D921370E5
:101E800061460143F0D10D9805A9081A2030019050
:101E9000600703D501200004844300E00127019876
:101EA000874201DD381A00E00020019900904118B6
:101EB000029809180498401A0490E00306D42146B9
:101EC0001A9B199A049800F0B3F94519002706E007
:101ED00003A81A9AC05D199990476D1C7F1C02983F
:101EE0008742F5DBE0030CD521461A9B199A04982A
:101EF00000F09EF9451904E01A9A3020199990478C
:101F00006D1C0099481E00900029F5DC08E00D9832
:101F10000D990078491C0D911A9A199990476D1CDA
:101F20000199481E01900029F1DC63E109280100B4
:101F3000303132333435363738396162636465663F
:101F40000000000030313233343536373839414201
:101F5000434445460000000000F05AF94519761C3C
:101F60003078002800D0E2E528461BB0F0BD6007BD
:101F700000D406271898C01DC108C90048680A681F
:101F80000831C30FDB071891190001D09CA108E0AC
:101F9000210501D59BA104E0E10701D09AA100E051
:101FA0009AA1430011985B08109165280CD006DCBB
:101FB000452809D046281DD0472841D141E0662850
:101FC00018D067283CD13CE00021112F01DB112003
:101FD00000E0781C0191009008A911A8FFF7E8FC27
:101FE000139905910021119A15927F1C129801975F
:101FF000009150E00120C00703900120019008A942
:10200000009711A8FFF7D4FC139A149905920022A7
:10201000119B009212981593059A0192002901D004
:10202000104602E0791C40180190381A01D5019839
:1020300004E04042401E0090781C0190C01B0290BA
:1020400043E0012F00DA01270021112F01DD1120CB
:1020500000E038460191009008A911A8FFF7A8FCFC
:1020600013990591119A00211298159200910197E8
:1020700021070CD40599B94201DB019900E00191D7
:10208000012904DD159A491E515C302906D0B84259
:1020900001DA011D05DA0121029115E00199491EBD
:1020A000EDE7002805DC0099411800910199091A13
:1020B00003E0019A411C914200DD01910099401A10
:1020C000401C02900120C0070390200706D402990B
:1020D0000198814202DB0020C04302900020694643
:1020E000C87707AF012103980337C907884224D076
:1020F000022011902B201290039800280CDA404205
:1021000003902D20129007E00A210398FEF7D4FADD
:1021100030317F1E039039701199481E11900029AB
:10212000F2DC03980028EFD1791E129808703078FD
:10213000202108404530BF1E387006A8C01BC01DB6
:10214000039010980078002800D0012001994118D0
:102150000298C0170918039809180498401A401EDD
:102160000490E00306D421461A9B199A049800F0C3
:102170005FF8451910980078002803D01A9A199929
:1021800090476D1CE00324D521461A9B199A0498A8
:1021900000F04EF845191CE00098002807DB009974
:1021A0000598884203DD1598405C199901E019995A
:1021B00030201A9A904700986D1C401C009002989D
:1021C000401E0290002804D11A9A2E201999904797
:1021D0006D1C0199481E01900029DDDC05E038786E
:1021E0001A9A7F1C199990476D1C0399481E0390F9
:1021F0000029F4DC21461A9B199A0498ACE60000E9
:102200002D0000002B000000200000000000000056
:10221000F8B5044600251E461746880404D405E098
:1022200039462020B0476D1C641EF9D52846F8BDFC
:10223000FFB50446002581B01E46C80301D53027EE
:1022400000E02027880404D505E038460399B0470C
:102250006D1C641EF9D5284605B0F0BD48656C6C50
:102260006F20576F726C640D0A0025730D0A000011
:1022700090220008000000200800000092190008C9
:10228000982200080800002010050000A21900088C
:082290000000000000A24A0456
:04000005080000CD22
:00000001FF
