:020000040800F2
:1000000010040020E1000008710300080D0300083F
:1000100000000000000000000000000000000000E0
:10002000000000000000000000000000B70300080E
:100030000000000000000000B5030008B90300083C
:10004000F3000008F3000008F3000008F3000008C4
:10005000F3000008F3000008F3000008F3000008B4
:1000600000000000F3000008F3000008F30000089F
:10007000F3000008F3000008F3000008000000008F
:10008000F3000008F300000800000000F30000087F
:10009000F3000008F3000008F3000008F300000874
:1000A000F3000008F3000008F3000008F300000864
:1000B000F300000800000000000000000000000045
:1000C000F300000800000000F30000080348854624
:1000D00000F0ECF8004800475D060008100400201E
:1000E0000448804704480047FEE7FEE7FEE7FEE7D6
:1000F000FEE7FEE7BD030008CD000008024670B52C
:100100004A40D30FDB0740002DD04A002AD0010E11
:10011000140E000212020919400A520A8418E5015D
:1001200004465443000A120A2E045043A4194219EB
:10013000200CC543AA18120C0125AD03521C5219FC
:1001400012047F39240400D0521C104301D4400013
:10015000491EC2B20C06C0092018401C4008802A63
:1001600002D003E0002070BD40084000002900DA02
:100170000020184370BD70B502464A40D50F4000BC
:100180004A00ED0740085208002814D0002A12D077
:10019000C40DD30D41020120C0055202490A520A82
:1001A000E41A091812187D34914201D3641C00E04E
:1001B0004900002C01DA002070BD0023914201D3D8
:1001C000891A0343400849000028F7D100290AD0C2
:1001D000914202D10121C90705E0914201D20121DA
:1001E00001E00121C943E005C018401900F01CF8E6
:1001F00070BD10B500229623114600F01DF810BD09
:10020000410040020122400AD205090E80187F29D0
:1002100001DA00207047962903DC9622511AC84063
:100220007047963988407047002904DA401C49001D
:1002300001D140084000704770B40024050C05D17E
:100240001024000402D1002921D01124050E01D16F
:1002500000020834050F01D10001241D850F01D1D2
:100260008000A41C002801DB4000641C002908D089
:1002700020252E1B0D46F540A14000D00121294329
:10028000084301061B1B000ADB1D02D5002070BCC1
:100290007047DB05181880180029F8DA401C49005F
:1002A000F5D170BC4008400070470000064C0125A5
:1002B000064E05E0E36807CC2B430C3C984710340E
:1002C000B442F7D3FFF706FF600800088008000873
:1002D00080B582B0014601A8017000780090012825
:1002E00004D0FFE70098022806D00BE0304844F223
:1002F000000100F01FF906E02D4848F2000100F06F
:1003000019F900E0FFE702B080BDC046FFE7FEE755
:1003100080B586B0154800F0D3F925480190012139
:1003200005910022029244F20003009300F00AF9C2
:100330000198029A059948F20003049300F002F92B
:10034000009B019802990322039200F042F9019860
:100350000299039A049B00F03CF90598FFF7B8FF57
:100360000220FFF7B5FF06B080BDC04613050000B0
:100370007047000080B582B0014601A80170007886
:100380000090012804D0FFE70098022806D00BE077
:10039000074844F2000100F0C5F806E0044848F2BE
:1003A000000100F0BFF800E0FFE702B080BDC046EA
:1003B00000080048704770477047000080B584B05F
:1003C000C8490868012210430860FFE7C548006873
:1003D0008007002801D4FFE7F8E7FFE7F94908683C
:1003E00080221043086000200390FFE703987F28D5
:1003F00005D8FFE7FFE70398401C0390F6E7F149B3
:10040000086890221043086000200390FFE70398DB
:100410007F2805D8FFE7FFE70398401C0390F6E725
:10042000FFE7E8490868032290430860E24A106841
:10043000184B184010600868174A10400860086898
:10044000E14A10400860154908680F22904308608F
:100450001349086840F203129043086008680122BB
:1004600001921304984308600868D3079843086012
:100470000C490868904308600B490020029008600E
:1004800000F0A4F901980299C00600F007F904B041
:1004900080BDC046FFFFF2FE0C00FF082C1002409A
:1004A00030100240341002400810024080B584B081
:1004B00003900398FFF79DFEE0490968FFF71EFED1
:1004C000FFF79EFE15490860154900200860CB49DA
:1004D00001200860FFE7C94800680290FFE700209C
:1004E00002A90978C907019041B1FFE702A8807805
:1004F00001210840414248410190FFE70198C007AF
:100500000028E8D1FFE7BD49086801229043086050
:1005100003490020086004B080BDC04614E000E03C
:1005200018E000E082B00190009100980199886283
:1005300002B0704782B001900091009801998861E3
:1005400002B0704787B00690059104920393069815
:10055000006801900698C068009002A900200880F9
:10056000FFE702A800880F282BD8FFE702A8018820
:100570000398C840C007F0B1FFE702A8018849000E
:10058000032213468B40019999430191059B0188F1
:1005900049008B40019919430191018849008A4023
:1005A000009991430091049900884000814000988F
:1005B00008430090FFE7FFE70298401C02A908806B
:1005C000CFE701980699086000980699C86007B0BF
:1005D000704710B586B0059004A80170039202938D
:1005E0000078012806D1FFE7029A05994868104370
:1005F000486005E0029A0599486890434860FFE723
:1006000005988068009001A900200880FFE701A8F4
:1006100000880F281DD8FFE701A801880298C8406C
:10062000C00780B1FFE701A80188490003228A4082
:1006300000999143009103990088400081400098FF
:1006400008430090FFE7FFE70198401C01A90880DC
:10065000DDE700980599886006B010BD80B584B0CC
:100660000020039000F0CCF8FFF752FEFFE70120D6
:100670000090FFF77FFE02200190FFF77BFE40F223
:10068000F4100290FFF712FF0098FFF721FE019887
:10069000FFF71EFE0298FFF709FFE8E782B001901E
:1006A000009101980099044A1140084303490860E9
:1006B000BFF34F8F02B0704780FFFF1F08ED00E0CF
:1006C00081B001466846018000881F220146114022
:1006D00001238B408109384A88581843885001B05B
:1006E0007047C0460010024084B000200390029082
:1006F000314908680122120410430860FFE703989B
:10070000401C03902C4800680121490408400290D5
:10071000FFE702990020019039B9FFE703982749C4
:10072000401A411E88410190FFE70198C007002848
:10073000E5D1FFE7204800688003002802D4FFE7E6
:10074000FFE7FEE71E490868022210430522904396
:1007500008601C490091086808600868086008681B
:1007600008600868184A1040086008681D221204D2
:1007700010430860104908680122120610430860FF
:10078000FFE70D4800688001002801D4FFE7F8E783
:100790000C4908680322904308600868022210434D
:1007A0000860FFE7074800680C210840082801D0CE
:1007B000FFE7F7E704B0704700100240FFFF0000BA
:1007C0000020024004100240FFFFC27780B5FFF70F
:1007D0008BFF80BD81B000900098042806D1FFE710
:1007E0000649086804221043086005E003490868C8
:1007F000042290430860FFE701B0704710E000E07A
:1008000080B50420C043FFF7E5FF08480068FFF704
:10081000F0FC0749FFF7AFFC01460648016000689D
:100820000549FFF76BFC0549086080BD000000200A
:100830000024F44A0C00002000007A440800002044
:1008400002E008C8121F08C1002AFAD17047704799
:10085000002001E001C1121F002AFBD170470000F7
:100860008008000800000020080000004008000880
:10087000880800080800002008040000500800084C
:0808800000A24A040000000080
:04000005080000CD22
:00000001FF
