Component: Arm Compiler for Embedded 6.19 Tool: armlink [5e73cb00]

==============================================================================

Section Cross References

    gd32e23x_it.o(.ARM.exidx.text.NMI_Handler) refers to gd32e23x_it.o(.text.NMI_Handler) for [Anonymous Symbol]
    gd32e23x_it.o(.ARM.exidx.text.HardFault_Handler) refers to gd32e23x_it.o(.text.HardFault_Handler) for [Anonymous Symbol]
    gd32e23x_it.o(.ARM.exidx.text.SVC_Handler) refers to gd32e23x_it.o(.text.SVC_Handler) for [Anonymous Symbol]
    gd32e23x_it.o(.ARM.exidx.text.PendSV_Handler) refers to gd32e23x_it.o(.text.PendSV_Handler) for [Anonymous Symbol]
    gd32e23x_it.o(.ARM.exidx.text.SysTick_Handler) refers to gd32e23x_it.o(.text.SysTick_Handler) for [Anonymous Symbol]
    main.o(.text.main) refers to systick.o(.text.systick_config) for systick_config
    main.o(.text.main) refers to led.o(.text.Init_LED_GPIO) for Init_LED_GPIO
    main.o(.text.main) refers to key.o(.text.Init_Key_GPIO) for Init_Key_GPIO
    main.o(.text.main) refers to timer.o(.text.Init_PWM_Output) for Init_PWM_Output
    main.o(.ARM.exidx.text.main) refers to main.o(.text.main) for [Anonymous Symbol]
    systick.o(.text.systick_config) refers to gd32e23x_misc.o(.text.systick_clksource_set) for systick_clksource_set
    systick.o(.text.systick_config) refers to ffltui.o(.text) for __aeabi_ui2f
    systick.o(.text.systick_config) refers to fdiv.o(.text) for __aeabi_fdiv
    systick.o(.text.systick_config) refers to fmul.o(.text) for __aeabi_fmul
    systick.o(.text.systick_config) refers to system_gd32e23x.o(.data.SystemCoreClock) for SystemCoreClock
    systick.o(.text.systick_config) refers to systick.o(.bss.count_1us) for [Anonymous Symbol]
    systick.o(.text.systick_config) refers to systick.o(.bss.count_1ms) for [Anonymous Symbol]
    systick.o(.ARM.exidx.text.systick_config) refers to systick.o(.text.systick_config) for [Anonymous Symbol]
==============================================================================

Removing Unused input sections from the image.

    Removing gd32e23x_it.o(.text), (0 bytes).
    Removing gd32e23x_it.o(.ARM.exidx.text.NMI_Handler), (8 bytes).
    Removing gd32e23x_it.o(.ARM.exidx.text.HardFault_Handler), (8 bytes).
    Removing gd32e23x_it.o(.ARM.exidx.text.SVC_Handler), (8 bytes).
    Removing gd32e23x_it.o(.ARM.exidx.text.PendSV_Handler), (8 bytes).
    Removing gd32e23x_it.o(.ARM.exidx.text.SysTick_Handler), (8 bytes).
    Removing main.o(.text), (0 bytes).
    Removing main.o(.ARM.exidx.text.main), (8 bytes).
    Removing main.o(.ARM.use_no_argv), (4 bytes).
    Removing systick.o(.text), (0 bytes).
    Removing systick.o(.ARM.exidx.text.systick_config), (8 bytes).
    Removing systick.o(.text.delay_1us), (128 bytes).
    Removing systick.o(.ARM.exidx.text.delay_1us), (8 bytes).
    Removing systick.o(.text.delay_us), (128 bytes).
    Removing systick.o(.ARM.exidx.text.delay_us), (8 bytes).
    Removing systick.o(.text.delay_1ms), (128 bytes).
    Removing systick.o(.ARM.exidx.text.delay_1ms), (8 bytes).
    Removing systick.o(.text.delay_ms), (128 bytes).
==============================================================================

Image Symbol Table

    Local Symbols

    Symbol Name                              Value     Ov Type        Size  Object(Section)

    ../Firmware/CMSIS/GD/GD32E23x/Source/ARM/startup_gd32e23x.s 0x00000000   Number         0  startup_gd32e23x.o ABSOLUTE
    ../clib/microlib/init/entry.s            0x00000000   Number         0  entry.o ABSOLUTE
    ../clib/microlib/init/entry.s            0x00000000   Number         0  entry2.o ABSOLUTE
    ../clib/microlib/init/entry.s            0x00000000   Number         0  entry5.o ABSOLUTE
    ../clib/microlib/init/entry.s            0x00000000   Number         0  entry7a.o ABSOLUTE
    ../clib/microlib/init/entry.s            0x00000000   Number         0  entry7b.o ABSOLUTE
    ../clib/microlib/init/entry.s            0x00000000   Number         0  entry8a.o ABSOLUTE
    ../clib/microlib/init/entry.s            0x00000000   Number         0  entry8b.o ABSOLUTE
    ../clib/microlib/init/entry.s            0x00000000   Number         0  entry9a.o ABSOLUTE
    ../clib/microlib/init/entry.s            0x00000000   Number         0  entry9b.o ABSOLUTE
    ../clib/microlib/init/entry.s            0x00000000   Number         0  entry10a.o ABSOLUTE
    ../clib/microlib/init/entry.s            0x00000000   Number         0  entry10b.o ABSOLUTE
    ../clib/microlib/init/entry.s            0x00000000   Number         0  entry11a.o ABSOLUTE
    ../clib/microlib/init/entry.s            0x00000000   Number         0  entry11b.o ABSOLUTE
    ../clib/microlib/stubs.s                 0x00000000   Number         0  iusefp.o ABSOLUTE
    ../fplib/microlib/fpdiv.c                0x00000000   Number         0  fdiv.o ABSOLUTE
    ../fplib/microlib/fpepilogue.c           0x00000000   Number         0  fepilogue.o ABSOLUTE
    ../fplib/microlib/fpfix.c                0x00000000   Number         0  ffixui.o ABSOLUTE
    ../fplib/microlib/fpflt.c                0x00000000   Number         0  ffltui.o ABSOLUTE
    ../fplib/microlib/fpmul.c                0x00000000   Number         0  fmul.o ABSOLUTE
    dc.s                                     0x00000000   Number         0  dc.o ABSOLUTE
    gd32e23x_adc.c                           0x00000000   Number         0  gd32e23x_adc.o ABSOLUTE
    gd32e23x_cmp.c                           0x00000000   Number         0  gd32e23x_cmp.o ABSOLUTE
    gd32e23x_crc.c                           0x00000000   Number         0  gd32e23x_crc.o ABSOLUTE
    gd32e23x_dbg.c                           0x00000000   Number         0  gd32e23x_dbg.o ABSOLUTE
    gd32e23x_dma.c                           0x00000000   Number         0  gd32e23x_dma.o ABSOLUTE
    gd32e23x_exti.c                          0x00000000   Number         0  gd32e23x_exti.o ABSOLUTE
    gd32e23x_fmc.c                           0x00000000   Number         0  gd32e23x_fmc.o ABSOLUTE
    gd32e23x_fwdgt.c                         0x00000000   Number         0  gd32e23x_fwdgt.o ABSOLUTE
    gd32e23x_gpio.c                          0x00000000   Number         0  gd32e23x_gpio.o ABSOLUTE
    gd32e23x_i2c.c                           0x00000000   Number         0  gd32e23x_i2c.o ABSOLUTE
    gd32e23x_it.c                            0x00000000   Number         0  gd32e23x_it.o ABSOLUTE
    gd32e23x_misc.c                          0x00000000   Number         0  gd32e23x_misc.o ABSOLUTE
    gd32e23x_pmu.c                           0x00000000   Number         0  gd32e23x_pmu.o ABSOLUTE
    gd32e23x_rcu.c                           0x00000000   Number         0  gd32e23x_rcu.o ABSOLUTE
    gd32e23x_rtc.c                           0x00000000   Number         0  gd32e23x_rtc.o ABSOLUTE
    gd32e23x_spi.c                           0x00000000   Number         0  gd32e23x_spi.o ABSOLUTE
    gd32e23x_syscfg.c                        0x00000000   Number         0  gd32e23x_syscfg.o ABSOLUTE
    gd32e23x_timer.c                         0x00000000   Number         0  gd32e23x_timer.o ABSOLUTE
    gd32e23x_usart.c                         0x00000000   Number         0  gd32e23x_usart.o ABSOLUTE
    gd32e23x_wwdgt.c                         0x00000000   Number         0  gd32e23x_wwdgt.o ABSOLUTE
    handlers.s                               0x00000000   Number         0  handlers.o ABSOLUTE
    init.s                                   0x00000000   Number         0  init.o ABSOLUTE
    key.c                                    0x00000000   Number         0  key.o ABSOLUTE
    led.c                                    0x00000000   Number         0  led.o ABSOLUTE
    main.c                                   0x00000000   Number         0  main.o ABSOLUTE
    system_gd32e23x.c                        0x00000000   Number         0  system_gd32e23x.o ABSOLUTE
    systick.c                                0x00000000   Number         0  systick.o ABSOLUTE
    timer.c                                  0x00000000   Number         0  timer.o ABSOLUTE
    RESET                                    0x08000000   Section      204  startup_gd32e23x.o(RESET)
    .ARM.Collect$$$$00000000                 0x080000cc   Section        0  entry.o(.ARM.Collect$$$$00000000)
    .ARM.Collect$$$$00000001                 0x080000cc   Section        4  entry2.o(.ARM.Collect$$$$00000001)
    .ARM.Collect$$$$00000004                 0x080000d0   Section        4  entry5.o(.ARM.Collect$$$$00000004)
    .ARM.Collect$$$$00000008                 0x080000d4   Section        0  entry7b.o(.ARM.Collect$$$$00000008)
    .ARM.Collect$$$$0000000A                 0x080000d4   Section        0  entry8b.o(.ARM.Collect$$$$0000000A)
    .ARM.Collect$$$$0000000B                 0x080000d4   Section        8  entry9a.o(.ARM.Collect$$$$0000000B)
    __lit__00000000                          0x080000dc   Data           4  entry2.o(.ARM.Collect$$$$00002712)
    .ARM.Collect$$$$0000000D                 0x080000dc   Section        0  entry10a.o(.ARM.Collect$$$$0000000D)
    .ARM.Collect$$$$0000000F                 0x080000dc   Section        0  entry11a.o(.ARM.Collect$$$$0000000F)
    .ARM.Collect$$$$00002712                 0x080000dc   Section        4  entry2.o(.ARM.Collect$$$$00002712)
    .text                                    0x080000e0   Section       28  startup_gd32e23x.o(.text)
    .text                                    0x080000fc   Section        0  fmul.o(.text)
    .text                                    0x08000176   Section        0  fdiv.o(.text)
    .text                                    0x080001f2   Section        0  ffltui.o(.text)
    .text                                    0x08000200   Section        0  iusefp.o(.text)
    .text                                    0x08000200   Section        0  fepilogue.o(.text)
    .text                                    0x08000284   Section       36  init.o(.text)
    [Anonymous Symbol]                       0x080002a8   Section        0  led.o(.text.CLose_LED)
    [Anonymous Symbol]                       0x080002e4   Section        0  gd32e23x_it.o(.text.HardFault_Handler)
    [Anonymous Symbol]                       0x080002e8   Section        0  key.o(.text.Init_Key_GPIO)
    __arm_cp.0_0                             0x08000300   Number         4  key.o(.text.Init_Key_GPIO)
    __arm_cp.0_1                             0x08000304   Number         4  key.o(.text.Init_Key_GPIO)
    [Anonymous Symbol]                       0x08000308   Section        0  led.o(.text.Init_LED_GPIO)
    __arm_cp.0_0                             0x08000364   Number         4  led.o(.text.Init_LED_GPIO)
    __arm_cp.0_1                             0x08000368   Number         4  led.o(.text.Init_LED_GPIO)
    [Anonymous Symbol]                       0x0800036c   Section        0  timer.o(.text.Init_PWM_Output)
    __arm_cp.0_0                             0x08000430   Number         4  timer.o(.text.Init_PWM_Output)
    __arm_cp.0_1                             0x08000434   Number         4  timer.o(.text.Init_PWM_Output)
    [Anonymous Symbol]                       0x08000438   Section        0  gd32e23x_it.o(.text.NMI_Handler)
    [Anonymous Symbol]                       0x0800043a   Section        0  gd32e23x_it.o(.text.PendSV_Handler)
    [Anonymous Symbol]                       0x0800043c   Section        0  gd32e23x_it.o(.text.SVC_Handler)
    [Anonymous Symbol]                       0x0800043e   Section        0  gd32e23x_it.o(.text.SysTick_Handler)
    [Anonymous Symbol]                       0x08000440   Section        0  system_gd32e23x.o(.text.SystemInit)
    __arm_cp.0_1                             0x08000518   Number         4  system_gd32e23x.o(.text.SystemInit)
    __arm_cp.0_2                             0x0800051c   Number         4  system_gd32e23x.o(.text.SystemInit)
    __arm_cp.0_3                             0x08000520   Number         4  system_gd32e23x.o(.text.SystemInit)
    __arm_cp.0_4                             0x08000524   Number         4  system_gd32e23x.o(.text.SystemInit)
    __arm_cp.0_5                             0x08000528   Number         4  system_gd32e23x.o(.text.SystemInit)
    __arm_cp.0_6                             0x0800052c   Number         4  system_gd32e23x.o(.text.SystemInit)
    __arm_cp.0_7                             0x08000530   Number         4  system_gd32e23x.o(.text.SystemInit)
    __arm_cp.0_8                             0x08000534   Number         4  system_gd32e23x.o(.text.SystemInit)
    [Anonymous Symbol]                       0x08000538   Section        0  gd32e23x_gpio.o(.text.gpio_af_set)
    [Anonymous Symbol]                       0x080005f8   Section        0  gd32e23x_gpio.o(.text.gpio_bit_reset)
    [Anonymous Symbol]                       0x08000608   Section        0  gd32e23x_gpio.o(.text.gpio_mode_set)
    [Anonymous Symbol]                       0x08000696   Section        0  gd32e23x_gpio.o(.text.gpio_output_options_set)
    [Anonymous Symbol]                       0x08000720   Section        0  main.o(.text.main)
    __arm_cp.0_0                             0x08000748   Number         4  main.o(.text.main)
    [Anonymous Symbol]                       0x0800074c   Section        0  gd32e23x_misc.o(.text.nvic_vector_table_set)
    __arm_cp.7_0                             0x08000768   Number         4  gd32e23x_misc.o(.text.nvic_vector_table_set)
    __arm_cp.7_1                             0x0800076c   Number         4  gd32e23x_misc.o(.text.nvic_vector_table_set)
    [Anonymous Symbol]                       0x08000770   Section        0  gd32e23x_rcu.o(.text.rcu_periph_clock_enable)
    [Anonymous Symbol]                       0x08000794   Section        0  gd32e23x_rcu.o(.text.rcu_periph_reset_disable)
    [Anonymous Symbol]                       0x080007b8   Section        0  gd32e23x_rcu.o(.text.rcu_periph_reset_enable)
    __arm_cp.5_0                             0x080007dc   Number         4  gd32e23x_rcu.o(.text.rcu_periph_reset_enable)
    system_clock_72m_hxtal                   0x080007e1   Thumb Code   208  system_gd32e23x.o(.text.system_clock_72m_hxtal)
    [Anonymous Symbol]                       0x080007e0   Section        0  system_gd32e23x.o(.text.system_clock_72m_hxtal)
    __arm_cp.3_0                             0x080008b0   Number         4  system_gd32e23x.o(.text.system_clock_72m_hxtal)
    __arm_cp.3_1                             0x080008b4   Number         4  system_gd32e23x.o(.text.system_clock_72m_hxtal)
    __arm_cp.3_2                             0x080008b8   Number         4  system_gd32e23x.o(.text.system_clock_72m_hxtal)
    __arm_cp.3_3                             0x080008bc   Number         4  system_gd32e23x.o(.text.system_clock_72m_hxtal)
    __arm_cp.3_4                             0x080008c0   Number         4  system_gd32e23x.o(.text.system_clock_72m_hxtal)
    system_clock_config                      0x080008c5   Thumb Code     8  system_gd32e23x.o(.text.system_clock_config)
    [Anonymous Symbol]                       0x080008c4   Section        0  system_gd32e23x.o(.text.system_clock_config)
    [Anonymous Symbol]                       0x080008cc   Section        0  gd32e23x_misc.o(.text.systick_clksource_set)
    __arm_cp.10_0                            0x080008f4   Number         4  gd32e23x_misc.o(.text.systick_clksource_set)
    [Anonymous Symbol]                       0x080008f8   Section        0  systick.o(.text.systick_config)
    __arm_cp.0_0                             0x08000924   Number         4  systick.o(.text.systick_config)
    __arm_cp.0_1                             0x08000928   Number         4  systick.o(.text.systick_config)
    __arm_cp.0_2                             0x0800092c   Number         4  systick.o(.text.systick_config)
    __arm_cp.0_3                             0x08000930   Number         4  systick.o(.text.systick_config)
    __arm_cp.0_4                             0x08000934   Number         4  systick.o(.text.systick_config)
    [Anonymous Symbol]                       0x08000938   Section        0  gd32e23x_timer.o(.text.timer_auto_reload_shadow_enable)
    [Anonymous Symbol]                       0x0800094c   Section        0  gd32e23x_timer.o(.text.timer_channel_output_config)
    __arm_cp.42_0                            0x08000c30   Number         4  gd32e23x_timer.o(.text.timer_channel_output_config)
    __arm_cp.42_1                            0x08000c34   Number         4  gd32e23x_timer.o(.text.timer_channel_output_config)
    __arm_cp.42_2                            0x08000c38   Number         4  gd32e23x_timer.o(.text.timer_channel_output_config)
    __arm_cp.42_3                            0x08000c3c   Number         4  gd32e23x_timer.o(.text.timer_channel_output_config)
    [Anonymous Symbol]                       0x08000c40   Section        0  gd32e23x_timer.o(.text.timer_channel_output_mode_config)
    [Anonymous Symbol]                       0x08000ce0   Section        0  gd32e23x_timer.o(.text.timer_channel_output_pulse_value_config)
    [Anonymous Symbol]                       0x08000d34   Section        0  gd32e23x_timer.o(.text.timer_channel_output_shadow_config)
    [Anonymous Symbol]                       0x08000dd2   Section        0  gd32e23x_timer.o(.text.timer_channel_output_struct_para_init)
    [Anonymous Symbol]                       0x08000df4   Section        0  gd32e23x_timer.o(.text.timer_deinit)
    __arm_cp.0_1                             0x08000ebc   Number         4  gd32e23x_timer.o(.text.timer_deinit)
    __arm_cp.0_3                             0x08000ec0   Number         4  gd32e23x_timer.o(.text.timer_deinit)
    __arm_cp.0_4                             0x08000ec4   Number         4  gd32e23x_timer.o(.text.timer_deinit)
    __arm_cp.0_7                             0x08000ec8   Number         4  gd32e23x_timer.o(.text.timer_deinit)
    __arm_cp.0_8                             0x08000ecc   Number         4  gd32e23x_timer.o(.text.timer_deinit)
    __arm_cp.0_9                             0x08000ed0   Number         4  gd32e23x_timer.o(.text.timer_deinit)
    __arm_cp.0_10                            0x08000ed4   Number         4  gd32e23x_timer.o(.text.timer_deinit)
    __arm_cp.0_11                            0x08000ed8   Number         4  gd32e23x_timer.o(.text.timer_deinit)
    [Anonymous Symbol]                       0x08000edc   Section        0  gd32e23x_timer.o(.text.timer_enable)
    [Anonymous Symbol]                       0x08000ef0   Section        0  gd32e23x_timer.o(.text.timer_init)
    __arm_cp.2_0                             0x08000fd4   Number         4  gd32e23x_timer.o(.text.timer_init)
    __arm_cp.2_1                             0x08000fd8   Number         4  gd32e23x_timer.o(.text.timer_init)
    __arm_cp.2_2                             0x08000fdc   Number         4  gd32e23x_timer.o(.text.timer_init)
    __arm_cp.2_3                             0x08000fe0   Number         4  gd32e23x_timer.o(.text.timer_init)
    __arm_cp.2_4                             0x08000fe4   Number         4  gd32e23x_timer.o(.text.timer_init)
    __arm_cp.2_5                             0x08000fe8   Number         4  gd32e23x_timer.o(.text.timer_init)
    [Anonymous Symbol]                       0x08000fec   Section        0  gd32e23x_timer.o(.text.timer_primary_output_config)
    [Anonymous Symbol]                       0x0800101c   Section        0  gd32e23x_timer.o(.text.timer_struct_para_init)
    __arm_cp.1_0                             0x08001040   Number         4  gd32e23x_timer.o(.text.timer_struct_para_init)
    i.__scatterload_copy                     0x08001044   Section       14  handlers.o(i.__scatterload_copy)
    i.__scatterload_null                     0x08001052   Section        2  handlers.o(i.__scatterload_null)
    i.__scatterload_zeroinit                 0x08001054   Section       14  handlers.o(i.__scatterload_zeroinit)
    count_1ms                                0x20000008   Data           4  systick.o(.bss.count_1ms)
    [Anonymous Symbol]                       0x20000008   Section        0  systick.o(.bss.count_1ms)
    count_1us                                0x2000000c   Data           4  systick.o(.bss.count_1us)
    [Anonymous Symbol]                       0x2000000c   Section        0  systick.o(.bss.count_1us)
    STACK                                    0x20000010   Section     1024  startup_gd32e23x.o(STACK)

    Global Symbols

    Symbol Name                              Value     Ov Type        Size  Object(Section)

    BuildAttributes$$THM_ISAv3M$S$8M$PE$A:L22$X:L11$S22$IEEE1$IW$~IW$USESV6$~STKCKD$USESV7$~SHL$OTIME$ROPI$EBA8$MICROLIB$REQ8$PRES8$EABIv2 0x00000000   Number         0  anon$$obj.o ABSOLUTE
    __cpp_initialize__aeabi_                  - Undefined Weak Reference
    __cxa_finalize                            - Undefined Weak Reference
    __decompress                              - Undefined Weak Reference
    _clock_init                               - Undefined Weak Reference
    _microlib_exit                            - Undefined Weak Reference
    __Vectors_Size                           0x000000cc   Number         0  startup_gd32e23x.o ABSOLUTE
    __Vectors                                0x08000000   Data           4  startup_gd32e23x.o(RESET)
    __Vectors_End                            0x080000cc   Data           0  startup_gd32e23x.o(RESET)
    __main                                   0x080000cd   Thumb Code     0  entry.o(.ARM.Collect$$$$00000000)
    _main_stk                                0x080000cd   Thumb Code     0  entry2.o(.ARM.Collect$$$$00000001)
    _main_scatterload                        0x080000d1   Thumb Code     0  entry5.o(.ARM.Collect$$$$00000004)
    __main_after_scatterload                 0x080000d5   Thumb Code     0  entry5.o(.ARM.Collect$$$$00000004)
    _main_clock                              0x080000d5   Thumb Code     0  entry7b.o(.ARM.Collect$$$$00000008)
    _main_cpp_init                           0x080000d5   Thumb Code     0  entry8b.o(.ARM.Collect$$$$0000000A)
    _main_init                               0x080000d5   Thumb Code     0  entry9a.o(.ARM.Collect$$$$0000000B)
    __rt_final_cpp                           0x080000dd   Thumb Code     0  entry10a.o(.ARM.Collect$$$$0000000D)
    __rt_final_exit                          0x080000dd   Thumb Code     0  entry11a.o(.ARM.Collect$$$$0000000F)
    Reset_Handler                            0x080000e1   Thumb Code     8  startup_gd32e23x.o(.text)
    ADC_CMP_IRQHandler                       0x080000f3   Thumb Code     0  startup_gd32e23x.o(.text)
    DMA_Channel0_IRQHandler                  0x080000f3   Thumb Code     0  startup_gd32e23x.o(.text)
    DMA_Channel1_2_IRQHandler                0x080000f3   Thumb Code     0  startup_gd32e23x.o(.text)
    DMA_Channel3_4_IRQHandler                0x080000f3   Thumb Code     0  startup_gd32e23x.o(.text)
    EXTI0_1_IRQHandler                       0x080000f3   Thumb Code     0  startup_gd32e23x.o(.text)
    EXTI2_3_IRQHandler                       0x080000f3   Thumb Code     0  startup_gd32e23x.o(.text)
    EXTI4_15_IRQHandler                      0x080000f3   Thumb Code     0  startup_gd32e23x.o(.text)
    FMC_IRQHandler                           0x080000f3   Thumb Code     0  startup_gd32e23x.o(.text)
    I2C0_ER_IRQHandler                       0x080000f3   Thumb Code     0  startup_gd32e23x.o(.text)
    I2C0_EV_IRQHandler                       0x080000f3   Thumb Code     0  startup_gd32e23x.o(.text)
    I2C1_ER_IRQHandler                       0x080000f3   Thumb Code     0  startup_gd32e23x.o(.text)
    I2C1_EV_IRQHandler                       0x080000f3   Thumb Code     0  startup_gd32e23x.o(.text)
    LVD_IRQHandler                           0x080000f3   Thumb Code     0  startup_gd32e23x.o(.text)
    RCU_IRQHandler                           0x080000f3   Thumb Code     0  startup_gd32e23x.o(.text)
    RTC_IRQHandler                           0x080000f3   Thumb Code     0  startup_gd32e23x.o(.text)
    SPI0_IRQHandler                          0x080000f3   Thumb Code     0  startup_gd32e23x.o(.text)
    SPI1_IRQHandler                          0x080000f3   Thumb Code     0  startup_gd32e23x.o(.text)
    TIMER0_BRK_UP_TRG_COM_IRQHandler         0x080000f3   Thumb Code     0  startup_gd32e23x.o(.text)
    TIMER0_Channel_IRQHandler                0x080000f3   Thumb Code     0  startup_gd32e23x.o(.text)
    TIMER13_IRQHandler                       0x080000f3   Thumb Code     0  startup_gd32e23x.o(.text)
    TIMER14_IRQHandler                       0x080000f3   Thumb Code     0  startup_gd32e23x.o(.text)
    TIMER15_IRQHandler                       0x080000f3   Thumb Code     0  startup_gd32e23x.o(.text)
    TIMER16_IRQHandler                       0x080000f3   Thumb Code     0  startup_gd32e23x.o(.text)
    TIMER2_IRQHandler                        0x080000f3   Thumb Code     0  startup_gd32e23x.o(.text)
    TIMER5_IRQHandler                        0x080000f3   Thumb Code     0  startup_gd32e23x.o(.text)
    USART0_IRQHandler                        0x080000f3   Thumb Code     0  startup_gd32e23x.o(.text)
    USART1_IRQHandler                        0x080000f3   Thumb Code     0  startup_gd32e23x.o(.text)
    WWDGT_IRQHandler                         0x080000f3   Thumb Code     0  startup_gd32e23x.o(.text)
    __aeabi_fmul                             0x080000fd   Thumb Code   122  fmul.o(.text)
    __aeabi_fdiv                             0x08000177   Thumb Code   124  fdiv.o(.text)
    __aeabi_ui2f                             0x080001f3   Thumb Code    14  ffltui.o(.text)
    __I$use$fp                               0x08000201   Thumb Code     0  iusefp.o(.text)
    _float_round                             0x08000201   Thumb Code    16  fepilogue.o(.text)
    _float_epilogue                          0x08000211   Thumb Code   114  fepilogue.o(.text)
    __scatterload                            0x08000285   Thumb Code    28  init.o(.text)
    __scatterload_rt2                        0x08000285   Thumb Code     0  init.o(.text)
    CLose_LED                                0x080002a9   Thumb Code    60  led.o(.text.CLose_LED)
    HardFault_Handler                        0x080002e5   Thumb Code     4  gd32e23x_it.o(.text.HardFault_Handler)
    Init_Key_GPIO                            0x080002e9   Thumb Code    24  key.o(.text.Init_Key_GPIO)
    Init_LED_GPIO                            0x08000309   Thumb Code    92  led.o(.text.Init_LED_GPIO)
    Init_PWM_Output                          0x0800036d   Thumb Code   196  timer.o(.text.Init_PWM_Output)
    NMI_Handler                              0x08000439   Thumb Code     2  gd32e23x_it.o(.text.NMI_Handler)
    PendSV_Handler                           0x0800043b   Thumb Code     2  gd32e23x_it.o(.text.PendSV_Handler)
    SVC_Handler                              0x0800043d   Thumb Code     2  gd32e23x_it.o(.text.SVC_Handler)
    SysTick_Handler                          0x0800043f   Thumb Code     2  gd32e23x_it.o(.text.SysTick_Handler)
    SystemInit                               0x08000441   Thumb Code   216  system_gd32e23x.o(.text.SystemInit)
    gpio_af_set                              0x08000539   Thumb Code   192  gd32e23x_gpio.o(.text.gpio_af_set)
    gpio_bit_reset                           0x080005f9   Thumb Code    16  gd32e23x_gpio.o(.text.gpio_bit_reset)
    gpio_mode_set                            0x08000609   Thumb Code   142  gd32e23x_gpio.o(.text.gpio_mode_set)
    gpio_output_options_set                  0x08000697   Thumb Code   138  gd32e23x_gpio.o(.text.gpio_output_options_set)
    main                                     0x08000721   Thumb Code    40  main.o(.text.main)
    nvic_vector_table_set                    0x0800074d   Thumb Code    28  gd32e23x_misc.o(.text.nvic_vector_table_set)
    rcu_periph_clock_enable                  0x08000771   Thumb Code    36  gd32e23x_rcu.o(.text.rcu_periph_clock_enable)
    rcu_periph_reset_disable                 0x08000795   Thumb Code    36  gd32e23x_rcu.o(.text.rcu_periph_reset_disable)
    rcu_periph_reset_enable                  0x080007b9   Thumb Code    36  gd32e23x_rcu.o(.text.rcu_periph_reset_enable)
    systick_clksource_set                    0x080008cd   Thumb Code    40  gd32e23x_misc.o(.text.systick_clksource_set)
    systick_config                           0x080008f9   Thumb Code    44  systick.o(.text.systick_config)
    timer_auto_reload_shadow_enable          0x08000939   Thumb Code    18  gd32e23x_timer.o(.text.timer_auto_reload_shadow_enable)
    timer_channel_output_config              0x0800094d   Thumb Code   740  gd32e23x_timer.o(.text.timer_channel_output_config)
    timer_channel_output_mode_config         0x08000c41   Thumb Code   158  gd32e23x_timer.o(.text.timer_channel_output_mode_config)
    timer_channel_output_pulse_value_config  0x08000ce1   Thumb Code    82  gd32e23x_timer.o(.text.timer_channel_output_pulse_value_config)
    timer_channel_output_shadow_config       0x08000d35   Thumb Code   158  gd32e23x_timer.o(.text.timer_channel_output_shadow_config)
    timer_channel_output_struct_para_init    0x08000dd3   Thumb Code    34  gd32e23x_timer.o(.text.timer_channel_output_struct_para_init)
    timer_deinit                             0x08000df5   Thumb Code   200  gd32e23x_timer.o(.text.timer_deinit)
    timer_enable                             0x08000edd   Thumb Code    18  gd32e23x_timer.o(.text.timer_enable)
    timer_init                               0x08000ef1   Thumb Code   228  gd32e23x_timer.o(.text.timer_init)
    timer_primary_output_config              0x08000fed   Thumb Code    48  gd32e23x_timer.o(.text.timer_primary_output_config)
    timer_struct_para_init                   0x0800101d   Thumb Code    36  gd32e23x_timer.o(.text.timer_struct_para_init)
    __scatterload_copy                       0x08001045   Thumb Code    14  handlers.o(i.__scatterload_copy)
    __scatterload_null                       0x08001053   Thumb Code     2  handlers.o(i.__scatterload_null)
    __scatterload_zeroinit                   0x08001055   Thumb Code    14  handlers.o(i.__scatterload_zeroinit)
    Region$$Table$$Base                      0x08001064   Number         0  anon$$obj.o(Region$$Table)
    Region$$Table$$Limit                     0x08001084   Number         0  anon$$obj.o(Region$$Table)
    SystemCoreClock                          0x20000000   Data           4  system_gd32e23x.o(.data.SystemCoreClock)
    __initial_sp                             0x20000410   Data           0  startup_gd32e23x.o(STACK)



==============================================================================

Memory Map of the image

  Image Entry point : 0x080000cd

  Load Region LR_IROM1 (Base: 0x08000000, Size: 0x00001090, Max: 0x00010000, ABSOLUTE)

    Execution Region ER_IROM1 (Exec base: 0x08000000, Load base: 0x08000000, Size: 0x00001084, Max: 0x00010000, ABSOLUTE)

    Exec Addr    Load Addr    Size         Type   Attr      Idx    E Section Name        Object

    0x08000000   0x08000000   0x000000cc   Data   RO         1180    RESET               startup_gd32e23x.o
    0x080000cc   0x080000cc   0x00000000   Code   RO         1226  * .ARM.Collect$$$$00000000  mc_p.l(entry.o)
    0x080000cc   0x080000cc   0x00000004   Code   RO         1237    .ARM.Collect$$$$00000001  mc_p.l(entry2.o)
    0x080000d0   0x080000d0   0x00000004   Code   RO         1240    .ARM.Collect$$$$00000004  mc_p.l(entry5.o)
    0x080000d4   0x080000d4   0x00000000   Code   RO         1242    .ARM.Collect$$$$00000008  mc_p.l(entry7b.o)
    0x080000d4   0x080000d4   0x00000000   Code   RO         1244    .ARM.Collect$$$$0000000A  mc_p.l(entry8b.o)
    0x080000d4   0x080000d4   0x00000008   Code   RO         1245    .ARM.Collect$$$$0000000B  mc_p.l(entry9a.o)
    0x080000dc   0x080000dc   0x00000000   Code   RO         1247    .ARM.Collect$$$$0000000D  mc_p.l(entry10a.o)
    0x080000dc   0x080000dc   0x00000000   Code   RO         1249    .ARM.Collect$$$$0000000F  mc_p.l(entry11a.o)
    0x080000dc   0x080000dc   0x00000004   Code   RO         1238    .ARM.Collect$$$$00002712  mc_p.l(entry2.o)
    0x080000e0   0x080000e0   0x0000001c   Code   RO         1181    .text               startup_gd32e23x.o
    0x080000fc   0x080000fc   0x0000007a   Code   RO         1229    .text               mf_p.l(fmul.o)
    0x08000176   0x08000176   0x0000007c   Code   RO         1231    .text               mf_p.l(fdiv.o)
    0x080001f2   0x080001f2   0x0000000e   Code   RO         1233    .text               mf_p.l(ffltui.o)
    0x08000200   0x08000200   0x00000000   Code   RO         1251    .text               mc_p.l(iusefp.o)
    0x08000200   0x08000200   0x00000082   Code   RO         1252    .text               mf_p.l(fepilogue.o)
    0x08000282   0x08000282   0x00000002   PAD
    0x08000284   0x08000284   0x00000024   Code   RO         1254    .text               mc_p.l(init.o)
    0x080002a8   0x080002a8   0x0000003c   Code   RO         1190    .text.CLose_LED     led.o
    0x080002e4   0x080002e4   0x00000004   Code   RO            4    .text.HardFault_Handler  gd32e23x_it.o
    0x080002e8   0x080002e8   0x00000020   Code   RO         1201    .text.Init_Key_GPIO  key.o
    0x08000308   0x08000308   0x00000064   Code   RO         1188    .text.Init_LED_GPIO  led.o
    0x0800036c   0x0800036c   0x000000cc   Code   RO         1214    .text.Init_PWM_Output  timer.o
    0x08000438   0x08000438   0x00000002   Code   RO            2    .text.NMI_Handler   gd32e23x_it.o
    0x0800043a   0x0800043a   0x00000002   Code   RO            8    .text.PendSV_Handler  gd32e23x_it.o
    0x0800043c   0x0800043c   0x00000002   Code   RO            6    .text.SVC_Handler   gd32e23x_it.o
    0x0800043e   0x0800043e   0x00000002   Code   RO           10    .text.SysTick_Handler  gd32e23x_it.o
    0x08000440   0x08000440   0x000000f8   Code   RO         1162    .text.SystemInit    system_gd32e23x.o
    0x08000538   0x08000538   0x000000c0   Code   RO          405    .text.gpio_af_set   gd32e23x_gpio.o
    0x080005f8   0x080005f8   0x00000010   Code   RO          391    .text.gpio_bit_reset  gd32e23x_gpio.o
    0x08000608   0x08000608   0x0000008e   Code   RO          385    .text.gpio_mode_set  gd32e23x_gpio.o
    0x08000696   0x08000696   0x0000008a   Code   RO          387    .text.gpio_output_options_set  gd32e23x_gpio.o
    0x08000720   0x08000720   0x0000002c   Code   RO           19    .text.main          main.o
    0x0800074c   0x0800074c   0x00000024   Code   RO          511    .text.nvic_vector_table_set  gd32e23x_misc.o
    0x08000770   0x08000770   0x00000024   Code   RO          561    .text.rcu_periph_clock_enable  gd32e23x_rcu.o
    0x08000794   0x08000794   0x00000024   Code   RO          571    .text.rcu_periph_reset_disable  gd32e23x_rcu.o
    0x080007b8   0x080007b8   0x00000028   Code   RO          569    .text.rcu_periph_reset_enable  gd32e23x_rcu.o
    0x080007e0   0x080007e0   0x000000e4   Code   RO         1168    .text.system_clock_72m_hxtal  system_gd32e23x.o
    0x080008c4   0x080008c4   0x00000008   Code   RO         1164    .text.system_clock_config  system_gd32e23x.o
    0x080008cc   0x080008cc   0x0000002c   Code   RO          517    .text.systick_clksource_set  gd32e23x_misc.o
    0x080008f8   0x080008f8   0x00000040   Code   RO           28    .text.systick_config  systick.o
    0x08000938   0x08000938   0x00000012   Code   RO          849    .text.timer_auto_reload_shadow_enable  gd32e23x_timer.o
    0x0800094a   0x0800094a   0x00000002   PAD
    0x0800094c   0x0800094c   0x000002f4   Code   RO          923    .text.timer_channel_output_config  gd32e23x_timer.o
    0x08000c40   0x08000c40   0x0000009e   Code   RO          925    .text.timer_channel_output_mode_config  gd32e23x_timer.o
    0x08000cde   0x08000cde   0x00000002   PAD
    0x08000ce0   0x08000ce0   0x00000052   Code   RO          927    .text.timer_channel_output_pulse_value_config  gd32e23x_timer.o
    0x08000d32   0x08000d32   0x00000002   PAD
    0x08000d34   0x08000d34   0x0000009e   Code   RO          929    .text.timer_channel_output_shadow_config  gd32e23x_timer.o
    0x08000dd2   0x08000dd2   0x00000022   Code   RO          921    .text.timer_channel_output_struct_para_init  gd32e23x_timer.o
    0x08000df4   0x08000df4   0x000000e8   Code   RO          839    .text.timer_deinit  gd32e23x_timer.o
    0x08000edc   0x08000edc   0x00000012   Code   RO          845    .text.timer_enable  gd32e23x_timer.o
    0x08000eee   0x08000eee   0x00000002   PAD
    0x08000ef0   0x08000ef0   0x000000fc   Code   RO          843    .text.timer_init    gd32e23x_timer.o
    0x08000fec   0x08000fec   0x00000030   Code   RO          915    .text.timer_primary_output_config  gd32e23x_timer.o
    0x0800101c   0x0800101c   0x00000028   Code   RO          841    .text.timer_struct_para_init  gd32e23x_timer.o
    0x08001044   0x08001044   0x0000000e   Code   RO         1258    i.__scatterload_copy  mc_p.l(handlers.o)
    0x08001052   0x08001052   0x00000002   Code   RO         1259    i.__scatterload_null  mc_p.l(handlers.o)
    0x08001054   0x08001054   0x0000000e   Code   RO         1260    i.__scatterload_zeroinit  mc_p.l(handlers.o)
    0x08001062   0x08001062   0x00000002   PAD
    0x08001064   0x08001064   0x00000020   Data   RO         1257    Region$$Table       anon$$obj.o


    Execution Region RW_IRAM1 (Exec base: 0x20000000, Load base: 0x08001088, Size: 0x00000410, Max: 0x00002000, ABSOLUTE)

    Exec Addr    Load Addr    Size         Type   Attr      Idx    E Section Name        Object

    0x20000000   0x08001088   0x00000004   Data   RW         1170    .data.SystemCoreClock  system_gd32e23x.o
    0x20000004   0x0800108c   0x00000004   PAD
    0x20000008        -       0x00000004   Zero   RW           39    .bss.count_1ms      systick.o
    0x2000000c        -       0x00000004   Zero   RW           38    .bss.count_1us      systick.o
    0x20000010        -       0x00000400   Zero   RW         1178    STACK               startup_gd32e23x.o


==============================================================================

Image component sizes


      Code (inc. data)   RO Data    RW Data    ZI Data      Debug   Object Name

       488          0          0          0          0       4233   gd32e23x_gpio.o
        12          0          0          0          0        706   gd32e23x_it.o
        80         12          0          0          0       3891   gd32e23x_misc.o
       112          4          0          0          0      11258   gd32e23x_rcu.o
      1796         76          0          0          0      16888   gd32e23x_timer.o
        32          8          0          0          0       1779   key.o
       160          8          0          0          0       1464   led.o
        44          4          0          0          0        553   main.o
        28          8        204          0       1024        708   startup_gd32e23x.o
       484         52          0          4          0       1919   system_gd32e23x.o
        64         20          0          0          8       1758   systick.o
       204          8          0          0          0       2131   timer.o

    ----------------------------------------------------------------------
      3512        200        236          4       1036      47288   Object Totals
         0          0         32          0          0          0   (incl. Generated)
         8          0          0          0          4          0   (incl. Padding)

    ----------------------------------------------------------------------

      Code (inc. data)   RO Data    RW Data    ZI Data      Debug   Library Member Name

         0          0          0          0          0          0   entry.o
         0          0          0          0          0          0   entry10a.o
         0          0          0          0          0          0   entry11a.o
         8          4          0          0          0          0   entry2.o
         4          0          0          0          0          0   entry5.o
         0          0          0          0          0          0   entry7b.o
         0          0          0          0          0          0   entry8b.o
         8          4          0          0          0          0   entry9a.o
        30          0          0          0          0          0   handlers.o
        36          8          0          0          0         68   init.o
         0          0          0          0          0          0   iusefp.o
       124          0          0          0          0         72   fdiv.o
       130          0          0          0          0        144   fepilogue.o
        14          0          0          0          0         68   ffltui.o
       122          0          0          0          0         72   fmul.o

    ----------------------------------------------------------------------
       480         16          0          0          0        424   Library Totals
         4          0          0          0          0          0   (incl. Padding)

    ----------------------------------------------------------------------

      Code (inc. data)   RO Data    RW Data    ZI Data      Debug   Library Name

        86         16          0          0          0         68   mc_p.l
       390          0          0          0          0        356   mf_p.l

    ----------------------------------------------------------------------
       480         16          0          0          0        424   Library Totals

    ----------------------------------------------------------------------

==============================================================================


      Code (inc. data)   RO Data    RW Data    ZI Data      Debug   

      3992        216        236          4       1036      47576   Grand Totals
      3992        216        236          4       1036      47576   ELF Image Totals
      3992        216        236          4          0          0   ROM Totals

==============================================================================

    Total RO  Size (Code + RO Data)                 4228 (   4.13kB)
    Total RW  Size (RW Data + ZI Data)              1040 (   1.02kB)
    Total ROM Size (Code + RO Data + RW Data)       4232 (   4.13kB)

==============================================================================

