:020000040800F2
:1000000048070020CD010008E90D0008A103000801
:10001000E50D00087D0200086B10000800000000DC
:100020000000000000000000000000000D0E0008AD
:100030008102000800000000EB0D0008210F0008FD
:10004000E7010008E7010008E7010008E7010008F0
:10005000E7010008E7010008E7010008E7010008E0
:10006000E7010008E7010008E7010008E7010008D0
:10007000E7010008E7010008E7010008E7010008C0
:10008000E7010008E7010008E7010008E7010008B0
:10009000E7010008E7010008E7010008E7010008A0
:1000A000E7010008E7010008E7010008E701000890
:1000B000E7010008E7010008E7010008E701000880
:1000C000E7010008E7010008E7010008E701000870
:1000D000E7010008850F0008E7010008E7010008B4
:1000E000E7010008E7010008E7010008E701000850
:1000F000E7010008E7010008E7010008E701000840
:10010000E7010008E7010008E7010008E70100082F
:10011000E7010008E7010008E7010008E70100081F
:10012000E7010008E7010008E7010008E70100080F
:1001300000F002F800F03AF80AA090E8000C8244BF
:100140008344AAF10107DA4501D100F02FF8AFF29C
:10015000090EBAE80F0013F0010F18BFFB1A43F0A5
:10016000010318471846000038460000103A24BF23
:1001700078C878C1FAD8520724BF30C830C144BF0C
:1001800004680C607047000000230024002500264E
:10019000103A28BF78C1FBD8520728BF30C148BFEA
:1001A0000B6070471FB51FBD10B510BD00F033F8D0
:1001B0001146FFF7F7FF00F0A5FF00F051F803B478
:1001C000FFF7F2FF03BC00F052FF00000948804730
:1001D00009480047FEE7FEE7FEE7FEE7FEE7FEE729
:1001E000FEE7FEE7FEE7FEE704480549054A064B41
:1001F00070470000250F0008310100084801002069
:10020000480700204803002048030020704770473B
:10021000704770477047754600F02CF8AE460500F1
:100220006946534620F00700854618B020B5FFF711
:10023000DBFFBDE820404FF000064FF000074FF015
:1002400000084FF0000B21F00701AC46ACE8C009F4
:10025000ACE8C009ACE8C009ACE8C0098D467047FD
:1002600010B50446AFF300802046BDE81040FFF70C
:10027000A6BF000000487047E800002000BFFEE76E
:1002800070472DE9F041024600250026002000239A
:100290000024002791F803C00CF00F0591F803C06B
:1002A0000CF0100CBCF1000F03D091F802C04CEA26
:1002B000050591F800C0BCF1000F31D01468002092
:1002C0002BE04FF0010C0CFA00F3B1F800C00CEA7F
:1002D00003069E4220D183004FF00F0C0CFA03F767
:1002E000BC4305FA03FC4CEA040491F803C0BCF1DA
:1002F000280F06D14FF0010C0CFA00FCC2F814C014
:100300000AE091F803C0BCF1480F05D14FF0010C91
:100310000CFA00FCC2F810C0401C0828D1D31460AD
:10032000B1F800C0BCF1FF0F34DD546800202EE0AE
:1003300000F1080C4FF0010808FA0CF3B1F800C006
:100340000CEA03069E4221D183004FF00F0C0CFAF9
:1003500003F7BC4305FA03FC4CEA040491F803C01C
:10036000BCF1280F05D100F1080C08FA0CF8C2F80E
:10037000148091F803C0BCF1480F07D100F1080CBC
:100380004FF0010808FA0CF8C2F81080401C082849
:10039000CED35460BDE8F081416170470161704780
:1003A00000BFFEE72DE9F04104460D4616461F4604
:1003B0002A2000F0C1FCA11C88B200F0ADFCB11CE9
:1003C00088B200F0A9FC2B2000F0B6FC691C88B2B2
:1003D00000F0A2FC791C88B200F09EFC2C2000F0FA
:1003E000ABFCBDE8F08170B504460D4616462B46C1
:1003F000224629462046FFF7D5FF304600F08CFC08
:1004000070BD2DE9F04706460F4614461D46DDF83F
:1004100020A0681E83B2601E82B239463046FFF7C4
:10042000C1FFB8460EE0B14606E0504600F074FC4D
:1004300009F101001FFA80F9A145F6DB08F101007E
:100440001FFA80F8A845EEDBBDE8F08708B501216A
:100450002C2000F0CBFCB020ADF8000010208DF86F
:10046000030003208DF8020069460F48FFF709FFDB
:10047000B0210D48FFF792FF6020ADF800006946FB
:100480000A48FFF7FEFE60210848FFF787FF0420B7
:10049000ADF8000069460648FFF7F3FE0421044862
:1004A000FFF77CFF08BD000000080140000C014080
:1004B0000014014010B5FFF7C9FF04217A48FFF787
:1004C0006BFF642000F0F8FD04217748FFF766FF1A
:1004D000642000F0F1FD40217448FFF75FFF6420C5
:1004E00000F0EAFD112000F027FC782000F0E4FD88
:1004F000B12000F021FC052000F017FC3C2000F0AA
:1005000014FC3C2000F011FCB22000F015FC05208A
:1005100000F00BFC3C2000F008FC3C2000F005FC47
:10052000B32000F009FC052000F0FFFB3C2000F0A8
:10053000FCFB3C2000F0F9FB052000F0F6FB3C2022
:1005400000F0F3FB3C2000F0F0FBB42000F0F4FBE3
:10055000032000F0EAFBC02000F0EEFB282000F0B2
:10056000E4FB082000F0E1FB042000F0DEFBC120EA
:1005700000F0E2FBC02000F0D8FBC22000F0DCFB62
:100580000D2000F0D2FB002000F0CFFBC32000F0D4
:10059000D3FB8D2000F0C9FB2A2000F0C6FBC4204D
:1005A00000F0CAFB8D2000F0C0FBEE2000F0BDFB88
:1005B000C52000F0C1FB1A2000F0B7FB362000F088
:1005C000BBFBC02000F0B1FBE02000F0B5FB042035
:1005D00000F0ABFB222000F0A8FB072000F0A5FBF9
:1005E0000A2000F0A2FB2E2000F09FFB302000F03C
:1005F0009CFB252000F099FB2A2000F096FB282088
:1006000000F093FB262000F090FB2E2000F08DFBE5
:100610003A2000F08AFB002000F087FB012000F068
:1006200084FB032000F081FB132000F07EFBE1201F
:1006300000F082FB042000F078FB162000F075FB30
:10064000062000F072FB0D2000F06FFB2D2000F063
:100650006CFB262000F069FB232000F066FB2720BE
:1006600000F063FB272000F060FB252000F05DFB1D
:100670002D2000F05AFB3B2000F057FB002000F03B
:1006800054FB012000F051FB042000F04EFB13202E
:1006900000F04BFB3A2000F04FFB052000F045FB3B
:1006A000292000F049FB10BD00140140000C01405E
:1006B0002DE9FF4F83B005468A461746119CAB468D
:1006C000204604EBD071C1F347063046F11706EB24
:1006D0005171C910614389B20191A7F12000C7B2DD
:1006E0000AEB0400401E83B2A819401E82B2514694
:1006F0002846FFF757FE4FF000094AE0102C06D1BC
:10070000264800EB071010F8090002900BE0202C9F
:1007100006D1234800EB871010F80900029002E090
:1007200007B0BDE8F08F4FF000082AE0129868B9D2
:10073000012000FA08F00299084018B1069800F06C
:10074000EBFA1AE0109800F0E7FA16E0012000FA40
:1007500008F00299084020B151462846069AFFF752
:1007600042FE681C85B2A5EB0B00B04205D15D4688
:100770000AF101001FFA80FA06E008F1010000F01A
:10078000FF08B8F1080FD1DB00BF09F101001FFA23
:1007900080F901988145B1DB00BFC1E7242500083D
:1007A000142B00082DE9FE4F8046894615469A46CF
:1007B000DDE90D470C9E2AE0102C09D153462A464C
:1007C00049464046CDE90147009600F025F819E07A
:1007D000182C09D153462A4649464046CDE90147DF
:1007E000009600F09BF80DE0202C09D153462A46D4
:1007F00049464046CDE90147009600F019F901E06D
:10080000BDE8FE8FAD1C08EB04001FFA80F82878C5
:100810000028D1D100BFF3E72DE9FE4F06468946F7
:1008200092469B460D9C00962046E11704EB5171C1
:10083000C910614389B2019105200290002565E04D
:1008400005EB0510344911F810009AF800108842A1
:1008500059D105EB0510304901EB400040789AF87A
:10086000011088424FD109EB0400401E83B23019B9
:10087000401E82B249463046FFF794FD00273FE014
:100880004FF0000836E00E9898B905EB05102249A4
:1008900001EB4000801CC05D012101FA08F1084015
:1008A00018B1584600F038FA20E00C9800F034FAFD
:1008B0001CE005EB0510184901EB4000801CC05DF1
:1008C000012101FA08F1084020B15A464946304654
:1008D000FFF789FD701C86B20098301AA04205D13E
:1008E000009E09F101001FFA80F906E008F10100FD
:1008F00000F0FF08B8F1080FC5DB00BF781CC7B2D5
:1009000001988742BCDB00BF681C85B20298854213
:1009100096DBBDE8FE8F0000D44200082DE9FE4FB3
:100920000646894692469B460D9C00962046E11756
:1009300004EB5171C910614389B201910520029005
:1009400000256DE005EB850000EB4510374911F8F7
:1009500010009AF8001088425FD105EB850000EB8B
:100960004510324901EB400040789AF80110884266
:1009700053D109EB0400401E83B23019401E82B2ED
:1009800049463046FFF70EFD002743E04FF00008D0
:100990003AE00E98A8B905EB850000EB4510234915
:1009A00001EB4000801CC05D012101FA08F1084004
:1009B00018B1584600F0B0F922E00C9800F0ACF9FC
:1009C0001EE005EB850000EB4510184901EB4000E7
:1009D000801CC05D012101FA08F1084020B15A468F
:1009E00049463046FFF7FFFC701C86B20098301A6B
:1009F000A04205D1009E09F101001FFA80F906E02E
:100A000008F1010000F0FF08B8F1080FC1DB00BFDA
:100A1000781CC7B201988742B8DB00BF681C85B25A
:100A2000029885428EDBBDE8FE8F00007E43000801
:100A30002DE9FE4F0646894692469B460D9C009640
:100A40002046E11704EB5171C910614389B201914D
:100A500005200290002565E005EB8510344911F86A
:100A600010009AF80010884259D105EB85103049E2
:100A700001EB400040789AF8011088424FD109EB11
:100A80000400401E83B23019401E82B249463046EF
:100A9000FFF788FC00273FE04FF0000836E00E9893
:100AA00098B905EB8510224901EB4000801CC05D20
:100AB000012101FA08F1084018B1584600F02CF95C
:100AC00020E00C9800F028F91CE005EB851018498F
:100AD00001EB4000801CC05D012101FA08F10840D3
:100AE00020B15A4649463046FFF77DFC701C86B25D
:100AF0000098301AA04205D1009E09F101001FFAAA
:100B000080F906E008F1010000F0FF08B8F1080FD5
:100B1000C5DB00BF781CC7B201988742BCDB00BFB1
:100B2000681C85B20298854296DBBDE8FE8F000006
:100B3000F04400082DE9FF4F85B0074690461C465B
:100B4000DDE91396304606EBD071C1F3470B21491E
:100B5000404600F0DBFD039000F0B8FD80B2049049
:100B6000002531E0601B401EC1B20A2000F05EFB90
:100B70000499B1FBF0F00A21B0FBF1F201FB120A7B
:100B8000A01EA84210D10020A11E01FB0B71CDE9CF
:100B90000096029088B22E22129B0699FFF788FDDC
:100BA000681CC5B2601CC4B200200AF13001CAB290
:100BB00005FB0B71CDE90096029088B2129B069955
:100BC000FFF776FD681CC5B2A542CBDB09B0BDE8D6
:100BD000F08F00000000C8422DE9FF4F85B00746A6
:100BE00091461D46DDE913A600200490304606EB31
:100BF000D071C1F3470B002434E0281B401EC1B262
:100C00000A2000F013FBB9FBF0F00A21B0FBF1F26F
:100C100001FB12080498A0B9681EA04211DDB8F1CA
:100C2000000F0CD1002004FB0B71CDE900A602904F
:100C300088B22022129B0699FFF73AFD10E00120AE
:100C40000490002008F13001CAB204FB0B71CDE919
:100C500000A6029088B2129B0699FFF729FD00BFFB
:100C6000601CC4B2AC42C8DB09B0BDE8F08F2DE90E
:100C7000F05F0746884615461E46DDF8289000249A
:100C800008EB0600401E83B27819401E82B241462E
:100C90003846FFF787FBA24619E04FF0000B10E043
:100CA00019F8140000F041F8012101EB440119F892
:100CB000010000F03AF8601C84B20BF101001FFA49
:100CC00080FBB345ECDB0AF101001FFA80FAAA456C
:100CD000E3DBBDE8F09F2DE9FE4F06460F461446C4
:100CE0009846DDE90D5ADDF8309010E0CDE9015A63
:100CF000CDF800902278434639463046FFF7D8FCBD
:100D0000284605EBD07106EB61018EB2641C207899
:100D10000028EBD1BDE8FE8F10B50446201200F08C
:100D20001BF8E0B200F018F810BD10B504462046DC
:100D300000F012F810BD000010B50446202105484F
:100D4000FFF72AFB204600F007F820210148FFF7B3
:100D500025FB10BD000C014070B50446102112485F
:100D6000FFF71AFB002517E020210F48FFF714FBBF
:100D700004F0800020B180210B48FFF70FFB03E057
:100D800080210948FFF708FB20210748FFF706FBF1
:100D90006006040E681CC5B2082DE5DB1021024870
:100DA000FFF7FCFA70BD00000008014008B5012102
:100DB000102000F01BF84FF48050ADF80000102018
:100DC0008DF8030003208DF8020069460448FFF700
:100DD00058FA4FF480510248FFF7E0FA08BD0000CE
:100DE0000010014000BFFEE77047704729B1064A76
:100DF00092690243044B9A6104E0034A9269824378
:100E0000014B9A617047000000100240704710B516
:100E100000F002F810BD00000CB500200190009019
:100E20003348006840F480303149086000BF3048E2
:100E3000006800F4003000900198401C0190009878
:100E400018B90198B0F5A06FF1D12948006800F4F5
:100E5000003010B10120009001E0002000900098C7
:100E6000012843D12348006840F010002149086060
:100E70000846006820F0030008600846006840F05B
:100E8000020008601A4840681949486008464068EE
:100E900048600846406840F4806048600846406802
:100EA00020F47C1048600846406840F4E810486030
:100EB0000846006840F08070086000BF0C48006879
:100EC00000F000700028F9D00948406820F00300C5
:100ED000074948600846406840F00200486000BF8B
:100EE0000348406800F00C000828F9D10CBD000050
:100EF0000010024000200240042808D14FF0E021F9
:100F0000096941F004014FF0E022116107E04FF060
:100F1000E021096921F004014FF0E02211617047DE
:100F20007047000010B51348006840F001001149F7
:100F3000086008464068104908400E494860084665
:100F400000680E4908400B4908600846006820F414
:100F5000802008600846406820F4FE0048604FF496
:100F60001F008860FFF753FF4FF0006004490860DE
:100F700010BD0000001002400000FFF8FFFFF6FE69
:100F800008ED00E010B540F225511D4800F03EF894
:100F900010B31B4800F064F8C4B21A48008800F48B
:100FA0000040C8B91748008800F4804060B10A2C9E
:100FB00003D000201349088020E01248008840F444
:100FC00000401049088019E00D2C06D10D4800881A
:100FD00040F480400B49088010E00A480088C0F3C4
:100FE0000D0009490C5407480088401C0549088039
:100FF00008460088C72801DD0020088010BD0000D9
:10100000003801401C0000202000002070B502467E
:10101000002400230025002040F66A16B14200D1CA
:1010200000BFC1F3421501F01F03012606FA03F3C6
:10103000012D02D19689334006E0022D02D1168A95
:10104000334001E0968A33400C12012606FA04F47C
:101050001688344013B10CB1012000E0002070BDAF
:1010600001468888C0F30800704700BFFEE700BF54
:101070007047000010B56FF00400FFF73DFF0A480D
:1010800000680A49B0FBF1F0094908700846007889
:1010900000EB4001C1EBC0104FF6FF7101EAC00048
:1010A0000449088010BD00000000002000127A00F2
:1010B00014000020160000200146114A12884A43FD
:1010C0004FF0E0235A6100229A611A46126942F0F9
:1010D00001021A6100BF4FF0E022106900F0010226
:1010E0001AB100F48032002AF5D04FF0E0221269E4
:1010F00022F001024FF0E0231A6100229A6170474A
:10110000160000200EB50024FFF7B4FFFFF74EFED7
:10111000FFF7D0F94FF6FF70A02380220021009046
:101120000846FFF76EF900203549086066E00020A8
:1011300018214FF6FF724FF47843CDE90021029059
:1011400030A20146FFF72EFB002010214FF6FF7260
:101150004FF47843CDE9002102902DA21E211820E2
:10116000FFF7B9FD10204FF6FF714FF478420323CB
:10117000CDE90021029080221E214820FFF72CFD9E
:10118000002010214FF6FF724FF47843CDE9002183
:10119000029021A232211820FFF79DFD10204FF66A
:1011A000FF714FF478420323CDE900210290A02281
:1011B00032214820FFF710FD10204FF6FF714FF449
:1011C00078420423CDE900210290224650211420C8
:1011D000FFF7B0FC204600F04DFA0546104A114BCF
:1011E00000F062F8074600F02DF804460E48282368
:1011F0001A46502100904120FFF739FD97E7000083
:10120000B0012242D6D0BEB0D4B0B5E7D7D30000EB
:101210004C43445F573A00004C43445F483A000057
:10122000295C8FC2F528BC3FA418000810B50246FF
:10123000012000E050430B1EA1F10104E1B2F9D1FD
:1012400010BD000021F00042A2F16052B2F5801FF3
:1012500001F0004328BFD2F17F6C0BD95FEA001C7C
:1012600043EAC20242EB507018BF704728BF20F01B
:1012700001007047B2F5801FBCBF184670474FEAA7
:10128000410C1CF5001F02D2084600F006BB70B5E9
:1012900000F0B2F800000089FFF7F6BF4FF0004001
:1012A000A0F580007047000010B591EA030F48BF19
:1012B00083F0004300F1FC80841A71EB030C05D22B
:1012C000121943EB0C03001B61EB0C01DFF824E166
:1012D0004FEA1154A4EB135C1EEA430F18BF9EEAB9
:1012E000445F73D023EA0E03DCF1200E21EA04519F
:1012F00043F4801332D322FA0CFE10EB0E0023FAD3
:101300000CFE41EB0E01CCF1200E03FA0EFE10EBA9
:101310000E0051F10001B1F5801FCCF1200E32D248
:1013200001EB045112FA0EF2BDE8104058BF7047AD
:10133000401C38BF5FEA420218BF7047002814BF44
:1013400020F0010041F100014FEA410313F5001FB5
:1013500038BF7047A1F1C04100F09CB8012A43EBAF
:101360000302ACF1200CDCF11F0E32BF4FF0000E77
:1013700023FA0CF310EB030041EB0451B4EB115FC3
:10138000D0D0A1EB045101F5801149085FEA30008B
:1013900001EB04510ED350F1000038BF12FA0EFEDB
:1013A00008D1BDE81040C9E7401C38BF5FEA4202DF
:1013B000CAD1C3E7BDE810404FEA410313F5001F4F
:1013C00038BF7047A1F1C04100F064B89EEA445FA5
:1013D00008D011EA5E0FBDE8104004BF01F00041E3
:1013E00000207047BDE8104070B500F005F800BF60
:1013F00064FBBE3E0000E0FF0EF1020E2EF0030E75
:101400005EF8046B364205D4012A43EB030515F55B
:10141000001F12D8012841EB010C1CF5001F0CD84D
:101420000ED14FEAD17C15F5001F0CEB4C0C0CF1E2
:10143000020C08BF4CEBD37C04E04FF0080C01E039
:101440004FEAD37C0CEB4C0526FA05F606F00706AE
:10145000B6F1040C06D20EEB860CBDE870404CF0E1
:10146000010C6047DFE80CF0090B02024FF000416D
:101470004FF00000A1F5002170BD1946104601286B
:1014800051EB010418BFD4F5001484BF002001F013
:10149000004170BD0808A0F500114FEA3101704706
:1014A00010B591EA030F48BF83F000433FF504AF46
:1014B000841A71EB030C07D212198CF0004C43EB29
:1014C0000C03001B61EB0C01DFF8A4E14FEA11549F
:1014D000A4EB135C1EEA430F18BF9EEA445F00F0C2
:1014E000B08023EA6E03524221EA0451C3EB6E033B
:1014F00038BF5B1EDCF1200E25D322FA0CFE10EB68
:101500000E0043FA0CFE41EB0E01CCF1200E03FA63
:101510000EFE10EB0E0051F10001CCF1200E29D48B
:1015200012FA0EF201EB0451BDE8104058BF7047AB
:10153000401C1CBFB2F1004F704700280CBF491C73
:1015400020F00100704712EB020E43EB030218BFBC
:101550004FF0010E4EEA4202ACF1200CDCF11E0EFF
:1015600054D943FA0CFE10EB0E0051F1FF31CCF1CF
:101570001E0ED5D50EF1010E12FA0EFE404141EBC2
:10158000010101EB445C5FEA5C5C10D910EBDE709A
:1015900001EB045138BFBEF1004FBDE8104018BF49
:1015A000704700280CBF491C20F00100704730D262
:1015B0004FEAD42C11F5001124F400641BD0B1FAC9
:1015C00081F20B3AA41AA41ED2F12003914030FA02
:1015D00003F31943904001EBCC71002C01EB045153
:1015E000BDE81040A8BF704701F1C0414FF00000B6
:1015F00001F000417047B0FA80F310FA03F100D116
:1016000010BDE41A173C4805C90AE4E701EB045190
:1016100010BD491001EB0451BDE810404FEA300005
:1016200002E04FF0000170474A0008BF0042F8D0C6
:10163000B2F5001F28BF704701F000414FF00000D5
:1016400070479EEA445F07D011EA5E0FBDE8104084
:1016500004BF002100207047BDE8104070B5FFF7BF
:10166000CBFE00BF40DFF63E83F0004110467047DE
:101670000000E0FF43004FEAD30C4FEA3C0C43402C
:101680001FBF40070CF1605113F0FE4F70471CF074
:10169000006F03D100200CF0004170470CF00043B4
:1016A00043EA507010B540EACC0000F0B0F800BF3B
:1016B000000000924FEA0001FFF7ECBE4FF000413E
:1016C0004FF00000A1F5002170470000C10DD1F1DD
:1016D0009E0206DB4FEA002343F0004323FA02F0A8
:1016E0007047004207D54FEA4001B1F1FE4F02D2E8
:1016F0004FF00000704710B500F089F8499224803F
:10170000002070476FEA2000704700004FF47F0C04
:101710001CEAD0121EBF1CEAD11392EA0C0F93EA06
:101720000C0F00F0478090EA010F48BF42F480722E
:101730004FF0004C4CEA00204CEA012102EB03027E
:10174000A0FB0113A2F50002002918BF43F001031A
:101750005B0028BF4FEA330342EB22425FEA132CBF
:101760004CEBC2502EBFBCEB436FB2F57C0F704701
:101770004FEA036CBCF1004F08BF20F00100B2F546
:101780007C0F38BF70470BD582F0FF0212F5803F07
:10179000C8BF704700F1C040D8BF00F0004070479C
:1017A00000F5000C5FEA4C0C48BF7047B0F1C04038
:1017B00000F073B890EA010F0CEAD11348BF42F46D
:1017C0008072624538BF634504D280EA010000F0B0
:1017D0000040704710B500F01AF800BF8900013EC4
:1017E00000F007B800F009B85FEA410C5FEA1C6C32
:1017F00008D080EA010000F050B85FEA400C5FEAD0
:101800001C6CF6D14FF00040A0F5800070470EF13F
:10181000020E2EF0030E5EF8044B244204D44FEA6D
:101820004102B2F17F4F11D84FEA4003B3F17F4F2D
:101830000CD80ED14FEAD07CB2F17F4F0CEB4C0CA0
:101840000CF1020C08BF4CEBD17C04E04FF0080C0B
:1018500001E04FEAD17C0CEB4C0324FA03F404F0D2
:101860000704B4F1040C06D20EEB840CBDE8104062
:101870004CF0010C6047DFE80CF0070802024FF063
:101880000040A0F5800010BD0846420018BFD2F10C
:10189000807288BF00F0004010BDFF2141EAD050A7
:1018A000C0057047FFFFFFFFFFFFFFFFFFFFFFFFC8
:1018B000FFFFFFFFFFFFFFFFFFFFFFFFFFFFFFFF38
:1018C000FFFFF7BEFFFFFFDEC6388C926B8E6B6E9C
:1018D0007C10AD96E73CFFFFFFFFFFFFFFFFFFFF20
:1018E000FFFFFFFFFFFFFFFFFFFFFFFFFFFFFFFF08
:1018F000FFFFFFFFFFFFFFFFFFFFFFFFFFFFFFFFF8
:10190000FFFFFFFFFFFFFFFFFFFFFFFFFFFFFFFFE7
:10191000FFFFEF5D9D15634F426C320A298819461F
:101920001925214531E86B8EC638FFFFFFFFFFFF09
:10193000FFFFFFFFFFFFFFFFFFFFFFFFFFFFFFFFB7
:10194000FFFFFFFFFFFFFFFFFFFFFFFFFFFFFFFFA7
:10195000FFFFFFFFFFFFFFFFFFFFFFFFFFFFFFFF97
:10196000A53653104B1053514B0F3A6C31E9216798
:10197000192510E408A30062088352CBD69AFFFF12
:10198000FFFFFFFFFFFFFFFFFFFFFFFFFFFFFFFF67
:10199000FFFFFFFFFFFFFFFFFFFFFFFFFFFFFFFF57
:1019A000FFFFFFFFFFFFFFFFFFFFFFFFE73C63704D
:1019B00063B37CB863F54311324D29EA21881926B7
:1019C000190519051104110410E4008308A38C7291
:1019D000FFFFFFFFFFFFFFFFFFFFFFFFFFFFFFFF17
:1019E000FFFFFFFFFFFFFFFFFFFFFFFFFFFFFFFF07
:1019F000FFFFFFFFFFFFFFFFFFFFDEDB3A4B42F081
:101A00006C354B5432B12A2E21EB21A919671905E7
:101A100011041104110411041104190510E4004209
:101A200073AFFFFFFFFFFFFFFFFFFFFFFFFFFFFFA2
:101A3000FFFFFFFFFFFFFFFFFFFFFFFFFFFFFFFFB6
:101A4000FFFFFFFFFFFFFFFFEF5D3209324C4B103E
:101A5000328F2A4F2A2E19CC198921891947190545
:101A60001104110410C410C411041104110410E471
:101A700000428431FFFFFFFFFFFFFFFFFFFFFFFF7B
:101A8000FFFFFFFFFFFFFFFFFFFFFFFFFFFFFFFF66
:101A9000FFFFFFFFFFFFFFFF52EC1947324C2A0BFD
:101AA00021EC21EC220C5B914AEE11061926190457
:101AB00010E410E429A7216608A3190511041104F4
:101AC00010E40082BDF7FFFFFFFFFFFFFFFFFFFFF6
:101AD000FFFFFFFFFFFFFFFFFFFFFFFFFFFFFFFF16
:101AE000FFFFFFFFFFFFA53508832188218821899B
:101AF00021AA218A426B8C71FFFF8C72088311042A
:101B000008C44229DEFBEF5D5AEC0883110411047E
:101B10001104088331E8FFDFFFFFFFFFFFFFFFFF36
:101B2000FFFFFFFFFFFFFFFFFFFFFFFFFFFFFFFFC5
:101B3000FFFFFFFFF7BE31C710C41925192619474B
:101B4000194729A8528A4A28AD55FFFF31E808A352
:101B500019056B4D6B4DFFFFEF7D214510C411043E
:101B6000110411040062AD76FFFFFFFFFFFFFFFFCE
:101B7000FFFFFFFFFFFFFFFFFFFFFFFFFFFFFFFF75
:101B8000FFFFFFFFB5960062110419041105190546
:101B900008C44A8BB5B6EF5DBDF7FFFF6B8E0062E0
:101BA00042295AAA4208FFFFFFFF52CC08831104C2
:101BB0001104110408A352ADFFFFFFFFFFFFFFFF59
:101BC000FFFFFFFFFFFFFFFFFFFFE71CFFFFFFFF20
:101BD000FFFFFFFF634E006211041104110410E4C3
:101BE0000062638EFFFFFFFFFFFFFFFF73CF000167
:101BF0009CF3632CB596FFFFFFFF5B2D0083110460
:101C00001104110410E42167EF3DFFFFFFFFFFFF08
:101C1000FFFFFFFFBDF8B5B7EF9E52CB94B3FFFFB8
:101C2000FFFFFFDF31E808A31104110411041104C0
:101C300008A34249F7FFF7FFFFFFFFFF4A6A0001D1
:101C40008472FFFFFFFFF7FFEFDF3A0908A31104DB
:101C50001104110411041105BE18FFFFFFFFFFFF5F
:101C6000FFFFFFFF7BF0006231E831C70041A5357F
:101C7000FFFFEF5D214610C411041104110411048B
:101C800010E408A39D76F7FFFFFFADB708A308A3F4
:101C900031C7E79EF7FFF7FFA57608A310E411040C
:101CA0001104110411051105A535FFFFFFFFFFFF0A
:101CB000FFFFFFFFDEDB29A7008310C410C410C4A0
:101CC000E71CEF9E110510E4110411041104110426
:101CD000190408C410E56BD16BD108C5006408A5D0
:101CE0000043322B9D7784B3192510C411041104CD
:101CF00011041104192509269D35FFFFFFFFFFFF81
:101D0000FFFFFFFFFFFF73AF006219041905008298
:101D10005B0D9B8E1062110511041104190410E46F
:101D20000085110539C45A817B409C22AC43A40331
:101D30009B837282498218C200A400C510E4190472
:101D400011041905194711675AECFFBEFFFFFFFF89
:101D5000FFFFFFFFFFDFDEDB10C410E411041105FD
:101D600018A4C001888300E41905190408C521449A
:101D70008343D523FE42FEE4FF27FF07FEA4FE6453
:101D8000FE03FDA3FCE2EC42B383622410E508C429
:101D90001904192619A821879000BCD3FFFFFFFF63
:101DA000FFFFFFFFFFDFFFFF7C1000421905110559
:101DB0002883D001F84448A300E408C55A44ED0242
:101DC000FDE2FE02FE66FF74FFB8FF73F6E7F6A6BB
:101DD000F645F5A4FCC3FC62FCC2FCC2CBE349C4DB
:101DE00011061988018790A4F8019AECFFFFFFFF04
:101DF000FFFFFFFFFFFFFFFFF7BE31E8008309058C
:101E00004082C001F823F08548A300A45A44FD0293
:101E1000CC23DCC2FE04FE28F648F646F624F5E4A0
:101E2000FD64FCE3FC62FCC2E402DC02FCE27AA496
:101E30000148016778C4F824F802B084E77DFFFF09
:101E4000FFFFFFFFFFFFFFFFFFFFDEDB192500A302
:101E500038C4E002D822F844F8A678A400632143ED
:101E6000728339839B82F521FD61FD22FCE2FCA295
:101E7000FC42FC42FC42AB22418392C35204012645
:101E8000192598A4F844F823F802D0A4EF9EFFFF88
:101E9000FFFFFFFFFFFFFFFFFFFFFFFFD69A29872E
:101EA00000A5B843F822E023F865F8E8C90748839D
:101EB000004200A3008429637AA2B362CBA2D3625A
:101EC000BB028A82398300A400E500E508E560C40E
:101ED000D864F844F824F823F8028883C6DBFFFFAF
:101EE000FFFFFFFFFFFFFFFFFFFFFFFFFFFFE73DDC
:101EF0005B503108E823F843F044F865F909F9AB81
:101F0000D189890648A3184200020042006100827C
:101F100000620062008320A350C488A5D885F865BC
:101F2000F844F844F823F823D003108229C7EF5D62
:101F3000FFFFFFFFFFFFFFFFFFFFFFFFFFFFFFFFB1
:101F4000FFFF326C38A5D802F823F865F866F8A7C9
:101F5000F94AFA0CFA4DEA4CD20BB9A9B168A94773
:101F6000B127B907D107E8E7F8C7F8A7F865F8651A
:101F7000F844F823F803D00228A3090508C45AEC52
:101F8000FFFFFFFFFFFFFFFFFFFFFFFFFFFFFFFF61
:101F9000DEFB190500C441A7C0E6F803F886F8A7E0
:101FA000F887F886F8C7F929F98AF9ABF9ABF98B04
:101FB000F96AF929F908F8C7F8A6F886F865F86407
:101FC000F823F002B106292500E410E419251925AB
:101FD0009D14FFFFFFFFFFFFFFFFFFFFFFFFFFFF5E
:101FE000AD96006208829535CEBAA28BD044F82512
:101FF000F887F8A7F8C7F8A7F887F886F886F8866C
:10200000F887F8A7F8A7F8A6F885F865F864F0242B
:10201000B864930DB6BB63CF0883110410E4216646
:102020003A49EF5DFFFFFFFFFFFFFFFFFFFFFFFFED
:1020300094D3004210E4CEBBFFFFE7BEB576AACC36
:10204000C107E045F845F846F866F886F886F88650
:10205000F886F865F845F865E865D044A843880136
:102060009082D73CEFFF95550883110411041905A0
:10207000194694B3FFFFFFFFFFFFFFFFFFFFFFFFC6
:1020800094B300412186DF5DFFFFFFFFFFFFE7DF25
:10209000C67AB4D3B34EC22AD168E0E6E8A6E8A572
:1020A000E8A5D8E6C988A906A822A802A000C80009
:1020B000D800E5F7E7FFADF810C410E4110410E410
:1020C00011054A8BFFFFFFFFFFFFFFFFFFFFFFFF31
:1020D000A555004129A7DF5DF7FFFFFFFFFFFFFFC9
:1020E000FFFFFFFFEFFFDF7DCEDBCE59CDF8CDD771
:1020F000C5F7CE79BEFBA2ABF003F845D042E8436A
:10210000F000D472DFFFAE3910E410E4110410E4E3
:1021100011052987FFFFFFFFFFFFFFFFFFFFFFFF05
:10212000CE5908832146D71CF7FFFFFFFFFFFFFFB3
:10213000FFFFFFFFFFFFFFFFFFFFFFFFFFFFFFFFAF
:10214000FFFFFFFFEFFFBA8BF804F845E062F044B1
:10215000F800DB8EDFFFA5F810C410E410E41104D2
:1021600010E41925FFFFFFFFFFFFFFFFFFFFFFFF49
:10217000F7BE29870883B639F7FFF7DFFFFFFFFFB8
:10218000FFFFFFFFFFFFFFFFFFFFFFFFFFFFFFFF5F
:10219000FFFFFFFFE7BEBA4AF803F845F864F844CA
:1021A000F800E36ED7FF8CF40883110410E410E408
:1021B00010E41905FFFFFFFFFFFFFFFFFFFFFFFF19
:1021C000FFFF73EF00008472EFFFEFBEFFDFFFFF42
:1021D000FFFFFFFFFFFFFFFFFFFFFFFFFFFFFFFF0F
:1021E000FFFFFFFFE7DFBA8BF803F845F845F82358
:1021F000F800D4D3D7FF5B4E00213A29A5550883B8
:1022000010C41925FFFFFFFFFFFFFFFFFFFFFFFFC8
:10221000FFFFDEFB08A331E8DF9EE79EEFBFFFFF75
:10222000FFFFFFFFFFFFFFFFFFFFFFFFFFFFFFFFBE
:10223000FFFFFFFFF7FFBC51E002F803F003E043AC
:10224000C2ECCF7EBEFC2146002194D3FFFF845117
:1022500000002987FFFFFFFFFFFFFFFFFFFFFFFFDA
:10226000FFFFFFFF845100008CF4EFFFE79EEFBFFC
:10227000FFDFFFFFFFFFFFFFFFFFFFFFFFFFFFFF8E
:10228000FFFFFFFFFFFFDF3DBD55BC52BC72B5B77E
:10229000C75DDFFF6BF000003A09F7BFFFFFFFFFEC
:1022A0009D14A555FFFFFFFFFFFFFFFFFFFFFFFF8F
:1022B000FFFFFFFFFFFF4AAC08A4BEBBE7DFE77EDE
:1022C000EFBEF7DFFFDFFFFFFFFFFFFFFFFFFFFFB7
:1022D000FFFFFFFFFFDFF7DFEFFFDFDFD7BFD79E97
:1022E000DFDFA5D808831126D6DBFFFFFFFFFFFF46
:1022F000FFFFFFFFFFFFFFFFFFFFFFFFFFFFFFFFEE
:10230000FFFFFFFFEE79DC8B312121A9CF3DDFBF3D
:10231000DF7EE79EEFBEEFBFF7DFF7DFF7DFF7DF28
:10232000F7DFEFBFEFBEE79EDF7ED75ED75EDFDF72
:10233000B69A19260842A3EDFFBFFFFFFFFFFFFF7C
:10234000FFFFFFFFFFFFFFFFFFFFFFFFFFFFFFFF9D
:10235000FFFFDD74DBC0FE00EE4242022189B67B46
:10236000DFDFD77EDF7EDF7EE79EE79EE79EE79E8C
:10237000E79EDF7EDF7ED75DD75DDF9EE7FFA5F8B6
:10238000110718E3C502FD60D3E6EEDBFFFFFFFF98
:10239000FFFFFFFFFFFFFFFFFFFFFFFFFFFFFFFF4D
:1023A000F79EBA84FCC1FE42FE82FEA283812145D3
:1023B0007474C75EDFDFD77ED75ED75DD75ED75E2A
:1023C000D75DD75DD75EDF9EE7FFC73D63F1088429
:1023D0005242E626FF29FE86F3E0C36AFFFFFFFFB5
:1023E000FFFFFFFFFFFFFFFFFFFFFFFFFFFFFFFFFD
:1023F000DE18D2C1FDA2FE22FE42FE42FE62D4E2FF
:102400006A4142497453A63BC73ED7BFD7BFD7BF27
:10241000DFBFD7BFC73EA61A63F229A74182B42205
:10242000FE62FE83FEAAFF0FFD67BA63EF3CFFFF6B
:10243000FFFFFFFFFFFFFFFFFFFFFFFFFFFFFFFFAC
:10244000E69AD280FD21FDC2F5E2F5C2F582FD8259
:10245000FD62DC619B216A846AE9632C63AF7411BD
:10246000636E632C5A8952047A81CBC2FCE2FD620E
:10247000FD82FDC2FDC2FDE4FD24CA62E71CFFFF30
:10248000FFFFFFFFFFFFFFFFFFFFFFFFFFFFFFFF5C
:10249000FFFFCCB1D281F3C0FCC1FD02FD02FCE222
:1024A000FCC2FCC2FC81FB80C9C081A4AD35CE5901
:1024B0009C718121DA00FBA1FC82FCA2FC82FCA2BF
:1024C000FD02FD22FCE2FC00DA60CC90FFFFFFFF82
:1024D000FFFFFFFFFFFFFFFFFFFFFFFFFFFFFFFF0C
:1024E000FFFFFFFFDE59C40DCB06D2E4DB03DB03A5
:1024F000DAE3D2C3C2A4B309BCD2F79EFFFFFFFF49
:10250000FFFFE6FBB40EBAA6D283E2E3EB02EB22B6
:10251000E322DB03D2E4C36AD5B6FFFFFFFFFFFF70
:10252000FFFFFFFF000000000000000000000000AF
:102530000000000000000008080808080808000063
:102540001818000000486C24120000000000000071
:10255000000000000000002424247F1212127F12C9
:10256000121200000000081C2A2A0A0C1828282A27
:102570002A1C080800000022251515152A58545455
:10258000542200000000000C1212120A76252911B4
:10259000916E000000060604030000000000000029
:1025A000000000000040201010080808080808106B
:1025B000102040000002040808101010101010082D
:1025C000080402000000000008086B1C1C6B0808CF
:1025D0000000000000000000080808087F08080844
:1025E00008000000000000000000000000000000E3
:1025F000060604030000000000000000FE000000CA
:1026000000000000000000000000000000000000CA
:10261000060600000000804040202010100808043A
:102620000402020000000018244242424242424298
:1026300024180000000000080E0808080808080810
:10264000083E00000000003C4242422020100804E6
:10265000427E00000000003C4242201820404042E0
:10266000221C0000000000203028242422227E208A
:10267000207800000000007E0202021A264040423C
:10268000221C0000000000382402021A26424242A6
:10269000241800000000007E2222101008080808FC
:1026A000080800000000003C424242241824424234
:1026B000423C00000000001824424242645840405E
:1026C000241C00000000000000001818000000009A
:1026D00018180000000000000000000800000000C2
:1026E000000808040000004020100804020408103C
:1026F000204000000000000000007F0000007F007C
:102700000000000000000002040810204020100813
:10271000040200000000003C42424640201010002D
:10272000181800000000001C225A555555552D421E
:10273000221C00000000000808181414243C224247
:1027400042E700000000001F2222221E22424242D5
:10275000221F00000000007C4242010101010142F1
:10276000221C00000000001F22424242424242421C
:10277000221F00000000003F4212121E12120242ED
:10278000423F00000000003F4212121E12120202DD
:10279000020700000000003C2222010101712122F9
:1027A000221C0000000000E7424242427E424242B8
:1027B00042E700000000003E080808080808080872
:1027C000083E00000000007C1010101010101010C7
:1027D0001010110F0000007722120A0E0A121222A6
:1027E0002277000000000007020202020202020239
:1027F000427F000000000077363636362A2A2A2A21
:102800002A6B0000000000E346464A4A52525262D8
:10281000624700000000001C22414141414141410A
:10282000221C00000000003F424242423E020202DF
:10283000020700000000001C2241414141414D536C
:10284000321C60000000003F4242423E121222222F
:1028500042C700000000007C4242020418204042AF
:10286000423E00000000007F4908080808080808E8
:10287000081C0000000000E742424242424242423D
:10288000423C0000000000E74242222424141418B5
:10289000080800000000006B494949495555362297
:1028A00022220000000000E74224241818182424E3
:1028B00042E70000000000772222141408080808EC
:1028C000081C00000000007E2120101008040442B3
:1028D000423F0000007808080808080808080808AF
:1028E00008087800000002020404080808101020FC
:1028F00020204040001E101010101010101010105A
:1029000010101E000038440000000000000000000D
:1029100000000000000000000000000000000000B7
:10292000000000FF0006080000000000000000009A
:1029300000000000000000000000003C427844421B
:1029400042FC0000000000030202021A264242423A
:10295000261A0000000000000000003844020202B5
:102960004438000000000060404040784442424249
:1029700064D80000000000000000003C427E02021B
:10298000423C0000000000F08808087E08080808A3
:10299000083E0000000000000000007C22221C0213
:1029A0003C42423C000000030202023A46424242DC
:1029B00042E700000000000C0C00000E08080808A8
:1029C000083E0000000000303000003820202020A9
:1029D0002020221E0000000302020272120A1612B8
:1029E000227700000000000E080808080808080800
:1029F000083E0000000000000000007F92929292CA
:102A000092B70000000000000000003B4642424236
:102A100042E70000000000000000003C4242424249
:102A2000423C0000000000000000001B2642424221
:102A3000221E0207000000000000007844424242CB
:102A4000447840E000000000000000774C040404DB
:102A5000041F0000000000000000007C42023C4017
:102A6000423E0000000000000008083E0808080878
:102A700008300000000000000000006342424242B3
:102A800062DC000000000000000000E74224241483
:102A90000808000000000000000000EB49495555FF
:102AA0002222000000000000000000762418181800
:102AB000246E000000000000000000E742242414FF
:102AC00018080807000000000000007E2210080817
:102AD000447E000000C02020202020102020202044
:102AE0002020C00010101010101010101010101026
:102AF0001010101000060808080808100808080838
:102B0000080806000C32C2000000000000000000AF
:102B100000000000000000000000000000000000B5
:102B200000000000000000000000000000000000A5
:102B30000000000000000000000000000000000095
:102B40000000000000000000000000000000000085
:102B50000000000000000000000000000000C001B4
:102B6000C001C001C001C001C001C00180008000DF
:102B700080008000800080008000000000000000D5
:102B800000008001C003C0038001000000000000BD
:102B900000000000000000000000E01CE01CF01E2F
:102BA000700E3807180308018400000000000000C0
:102BB0000000000000000000000000000000000015
:102BC0000000000000000000000000000000000005
:102BD00000000000000000000000000000000000F5
:102BE00020102010201020102010FE7FFE7F1008E3
:102BF000100810081008100810081008FE7FFE7F4B
:102C00000804080408040804080400000000000088
:102C100000000000000000000000000000010001B2
:102C2000C00760191031183118391839380170018E
:102C3000E001C0038007000F001D003900311C3186
:102C40001C310C310C11180DE007000100010001CE
:102C50000000000000000000000000000000000074
:102C60001C1036186308630C630463046302630278
:102C70006301361D9C37802280634063406320637C
:102C80002063306310221836081C0000000000008A
:102C90000000000000000000000000000000000034
:102CA000F00098018C018C018C018C018C00CC000F
:102CB0007800183E1C083608320863046304C30415
:102CC000C303834306438E26781C000000000000E7
:102CD000000000000000000000001C003C003C0060
:102CE0003000300010000C00060000000000000062
:102CF00000000000000000000000000000000000D4
:102D000000000000000000000000000000000000C3
:102D10000000000000000000000000400020001043
:102D20000008000C000400060003000300038001FB
:102D30008001800180018001800180018001000309
:102D40000003000300060006000C0008001000202D
:102D50000040000000000000000002000400080025
:102D60001000300020006000C000C000C0008001E2
:102D70008001800180018001800180018001C0000C
:102D8000C000C000600060003000100008000400B7
:102D90000200000000000000000000000000000031
:102DA0000000000000018003800300011C713C79D9
:102DB000783DC0070001C007783D3C791C710001D7
:102DC000800380038001000000000000000000007C
:102DD00000000000000000000000000000000000F3
:102DE00000000000000000010001000100010001DE
:102DF00000010001FC7F0001000100010001000151
:102E000000010001000000000000000000000000C0
:102E100000000000000000000000000000000000B2
:102E200000000000000000000000000000000000A2
:102E30000000000000000000000000000000000092
:102E4000000000001C003C003C003000300010007E
:102E50000C00060000000000000000000000000060
:102E60000000000000000000000000000000000062
:102E700000000000FE7F00000000000000000000D5
:102E80000000000000000000000000000000000042
:102E90000000000000000000000000000000000032
:102EA0000000000000000000000000000000000022
:102EB0000000000000000000000000000000000012
:102EC000000018003C003C0018000000000000005A
:102ED0000000000000000000000000400060002032
:102EE0000030001000180008000C0004000600026A
:102EF0000003000180018000C0004000600020004D
:102F000030001000180008000C0004000600020049
:102F100000000000000000000000000000000000B1
:102F2000C007600C30181830183018200C600C6086
:102F30000C600C600C600C600C600C600C60182065
:102F4000183018303018600CC00700000000000076
:102F50000000000000000000000000000000000071
:102F600000018001F8018001800180018001800161
:102F70008001800180018001800180018001800149
:102F8000800180018001C003F81F000000000000E4
:102F90000000000000000000000000000000000031
:102FA000E007101C0818043004300C300C300030DE
:102FB00000180008000400020001800040002020EA
:102FC000102008200430FC1FFC1F0000000000003F
:102FD00000000000000000000000000000000000F1
:102FE000E003180E0C0C0C180C180C180018000C30
:102FF0000006C003000E00180010003000300C3036
:103000000C300C100C18180CE0030000000000003D
:1030100000000000000000000000000000000000B0
:10302000000C000E000E000F800E800E400E600E91
:10303000200E100E100E080E040E040EFE7F000E61
:10304000000E000E000E000E000EC07F00000000FB
:103050000000000000000000000000000000000070
:10306000F03FF03F10001000100008000800C807F3
:10307000280C1818081000300030003000300C30D8
:103080000C3004180418080CF003000000000000C5
:103090000000000000000000000000000000000030
:1030A000800FC010203010301800180008000C00ED
:1030B0008C0F6C183C301C600C600C600C600C6059
:1030C0001860182030306018C007000000000000B1
:1030D00000000000000000000000000000000000F0
:1030E000F83FF83F1C100C08040804040004000218
:1030F0000002000100010001800080008000C0008B
:10310000C000C000C000C000C000000000000000FF
:1031100000000000000000000000000000000000AF
:10312000E007300C18180C300C300C301C303818FC
:103130007008E007B007180E0C1C06380630063081
:10314000063006300C18180CE003000000000000E8
:10315000000000000000000000000000000000006F
:10316000E00318040C080C18061006300630063070
:10317000063006380C3C1836F031003000180018C4
:1031800000180C0C0C060C03F001000000000000FD
:10319000000000000000000000000000000000002F
:1031A000000000000000000000000000000080019E
:1031B000C003C00380010000000000000000000008
:1031C00000008001C003C003800100000000000077
:1031D00000000000000000000000000000000000EF
:1031E0000000000000000000000000000000C0001F
:1031F000C00000000000000000000000000000000F
:10320000000000000000C000C000800080004000FE
:10321000400000000000000000000000000000204E
:10322000001000080004000600038001C0006000D8
:10323000300018000C00180030006000C000800151
:103240000003000600040008001000200000000039
:10325000000000000000000000000000000000006E
:103260000000000000000000000000000000FE7FE1
:1032700000000000000000000000FE7F00000000D1
:10328000000000000000000000000000000000003E
:10329000000000000000000000000000000004002A
:1032A0000800100020006000C0008001000300063C
:1032B000000C001800300018000C0006000380010C
:1032C000C0006000200010000800040000000000A2
:1032D0000000000000000000000000000000C00727
:1032E0003018083008600C601C601C601C600030E6
:1032F000001C0006000180008000800080000000AB
:1033000000008001C003C003800100000000000035
:1033100000000000000000000000000000000000AD
:10332000C0076018103018200C2F8C4D864CC64CEE
:10333000C64C664C66446644662666266615CC1CFA
:103340000C40082018303018C007000000000000B2
:10335000000000000000000000000000000000016C
:10336000C001C001C001400160032003200320030D
:103370003006100610061006F80F080C080C080C92
:103380000C0C0418041806181F7C00000000000034
:10339000000000000000000000000000000000002D
:1033A000FE07181C18381830183018301830181844
:1033B000180CF807181818301820186018601860D2
:1033C0001860186018301818FE0F00000000000088
:1033D00000000000000000000000000000000000ED
:1033E000C0276038103018200C400C400400060044
:1033F00006000600060006000600060006000C4057
:103400000C400C2018303018C007000000000000ED
:1034100000000000000000000000000000000000AC
:10342000FE03180E1818183018301830186018607D
:1034300018601860186018601860186018601830FC
:10344000183018101818180EFE03000000000000B5
:10345000000000000000000000000000000000006C
:10346000FE3F183018201860184018001808180877
:10347000180CF80F180C1808180818001800180075
:103480001840184018201830FE3F000000000000CF
:10349000000000000000000000000000000000002C
:1034A000FE7F1870184018C01880180018101810E7
:1034B0001818F81F181818101810180018001800FD
:1034C00018001800180018007E000000000000001E
:1034D00000000000000000000000000000000000EC
:1034E000C013701C101018100C200C2004000600D3
:1034F000060006000600060006FC063006300C300A
:103500000C30183018303008C007000000000000F0
:1035100000000000000000000000000000000000AB
:103520003F7E0C180C180C180C180C180C180C18E2
:103530000C180C18FC1F0C180C180C180C180C1874
:103540000C180C180C180C183F7E0000000000002E
:10355000000000000000000000000000000000006B
:10356000F81F8001800180018001800180018001BD
:103570008001800180018001800180018001800143
:103580008001800180018001F81F00000000000020
:10359000000000000000000000000000000000002B
:1035A000E07F000600060006000600060006000692
:1035B00000060006000600060006000600060006DB
:1035C0000006000600060006000600060E060E03B2
:1035D0008E01FC0000000000000000000000000060
:1035E0007E7C18181808180418061802180198018B
:1035F0009801D801B803380318071806180E180CDC
:10360000181C1818183018307EFC0000000000004C
:1036100000000000000000000000000000000000AA
:103620007E00180018001800180018001800180074
:1036300018001800180018001800180018001800CA
:103640001840184018201830FE3F0000000000000D
:10365000000000000000000000000000000000006A
:103660001FF81C381C381C381C3C343434343434B7
:10367000343674326432643264326431C431C431F9
:10368000C431C430C43084309FFC0000000000000E
:10369000000000000000000000000000000000002A
:1036A0001F7C1C103C103410341074106410E41093
:1036B000C410C41184118413041304170416041EC7
:1036C000041C041C041C04181F1800000000000047
:1036D00000000000000000000000000000000000EA
:1036E000C003300C181808100C300C30066006604F
:1036F00006600660066006600660066006600C20D4
:103700000C3008101818300CC00300000000000036
:1037100000000000000000000000000000000000A9
:10372000FE0F1818183018601860186018601860BC
:1037300018301818F80F1800180018001800180092
:1037400018001800180018007E000000000000009B
:103750000000000000000000000000000000000069
:10376000C003300C18180C100C300C2006600660DA
:103770000660066006600660066006600660E4613A
:103780002C331C321816300EC007004C007C003859
:103790000000000000000000000000000000000029
:1037A000FE07181C18381830183018301830181840
:1037B000180CF80798031803180718061806180EAF
:1037C000180C180C181C18187E7800000000000057
:1037D00000000000000000000000000000000000E9
:1037E000E027303818300C200C200C000C0018009A
:1037F0007800E003800F001E003800700060046055
:103800000460086018303818C80F0000000000007D
:1038100000000000000000000000000000000000A8
:10382000FC3F8C21846182418241800180018001C2
:103830008001800180018001800180018001800180
:103840008001800180018001E0070000000000008D
:103850000000000000000000000000000000000068
:103860003F7C0C100C100C100C100C100C100C10D9
:103870000C100C100C100C100C100C100C100C1068
:103880000C100C1008083804E003000000000000D1
:103890000000000000000000000000000000000028
:1038A0003EF818201820182030103010301030103A
:1038B000600860086008E00CC004C004C004800315
:1038C000800380038003000100010000000000006D
:1038D00000000000000000000000000000000000E8
:1038E000DFF38661862186218C210C218C238C13A9
:1038F0008C138C134C1358125816580E380E380E61
:10390000380E300C100410041004000000000000F9
:1039100000000000000000000000000000000000A7
:103920007E3E180838083004300470026002E0015E
:10393000C001C0018001800340034007200620062B
:10394000100C100C081808183E7C00000000000045
:103950000000000000000000000000000000000067
:103960007E7C1C10181018083008300C700460049D
:103970006002C002C002C00180018001800180019C
:103980008001800180018001E0070000000000004C
:103990000000000000000000000000000000000027
:1039A000F83F18180818040C040E0006000700035E
:1039B00080038001C001C000E000600070003000A2
:1039C000382018201C100C18FE1F000000000000FA
:1039D00000000000000000000000C03F4000400068
:1039E00040004000400040004000400040004000D7
:1039F00040004000400040004000400040004000C7
:103A00004000400040004000400040004000C03FF7
:103A1000000000000000000000000000000008009E
:103A20001800180010003000200060006000400006
:103A3000C000800080018001000100030002000638
:103A400000060004000C00080018001800100030E8
:103A500000200000000000000000FC030002000243
:103A60000002000200020002000200020002000246
:103A70000002000200020002000200020002000236
:103A80000002000200020002000200020002FC0329
:103A9000000000000000000000008007C0062008B1
:103AA00010100000000000000000000000000000F6
:103AB0000000000000000000000000000000000006
:103AC00000000000000000000000000000000000F6
:103AD00000000000000000000000000000000000E6
:103AE00000000000000000000000000000000000D6
:103AF00000000000000000000000000000000000C6
:103B000000000000000000000000000000000000B5
:103B10000000FFFF0000000000007800C00000016E
:103B20000000000000000000000000000000000095
:103B30000000000000000000000000000000000085
:103B40000000000000000000000000000000000075
:103B50000000000000000000000000000000000065
:103B60000000000000000000000000000000F00362
:103B700018060C0C0C0C000C800F700C1C0C0C0CA0
:103B8000060C060C064C0C4FF83800000000000034
:103B90000000000000000000000000000000100015
:103BA0001E00180018001800180018001800180F40
:103BB000D8183830386018601860186018601860BD
:103BC0001860182038307818C8070000000000007E
:103BD00000000000000000000000000000000000E5
:103BE0000000000000000000000000000000C0070E
:103BF000700C181818180C180C000C000C000C0095
:103C00000C20182018103008C00700000000000029
:103C10000000000000000000000000000000001094
:103C2000001E001800180018001800180018E01BEB
:103C3000301C181818180C180C180C180C180C1824
:103C40000C180818181C307AE00900000000000069
:103C50000000000000000000000000000000000064
:103C60000000000000000000000000000000C0078D
:103C7000300C181808100C300C30FC3F0C000C00F5
:103C80000C00182018107018C00700000000000079
:103C90000000000000000000000000000000000024
:103CA000003E80C380C0C0C0C000C000C000FC1F78
:103CB000C000C000C000C000C000C000C000C00004
:103CC000C000C000C000C000F80F000000000000ED
:103CD00000000000000000000000000000000000E4
:103CE0000000000000000000000000000000C0779D
:103CF000306C10181818181818181018300CF00715
:103D000018001800F00FF03F08700C600C600C6099
:103D10003838E00F00000000000000000000100034
:103D20001E00180018001800180018001800980F3E
:103D3000D81838301830183018301830183018307B
:103D400018301830183018307EFC000000000000D9
:103D50000000000000000000000000000000000063
:103D60008003800380030000000000000001F801D0
:103D7000800180018001800180018001800180013B
:103D80008001800180018001F81F00000000000018
:103D90000000000000000000000000000000000023
:103DA0000038003800380000000000000010801FBC
:103DB0000018001800180018001800180018001843
:103DC0000018001800180018001800180018180C27
:103DD0001806F003000000000000000000001000C2
:103DE0001E00180018001800180018001800183ECF
:103DF000180C1806180318019801D8013803180781
:103E00001806180C181C18187E7C00000000000012
:103E100000000000000000000000000000000001A1
:103E2000F801800180018001800180018001800112
:103E3000800180018001800180018001800180017A
:103E40008001800180018001F81F00000000000057
:103E50000000000000000000000000000000000062
:103E60000000000000000000000000000800EE1C40
:103E70009C338C318C318C318C318C318C318C3148
:103E80008C318C318C318C31DE7B000000000000E5
:103E90000000000000000000000000000000000022
:103EA00000000000000000000000000010001E0FD5
:103EB000D8183830183018301830183018301830FA
:103EC00018301830183018307EFC00000000000058
:103ED00000000000000000000000000000000000E2
:103EE0000000000000000000000000000000C0070B
:103EF000701C103018300C600C600C600C600C6092
:103F00000C60183018303018C007000000000000A6
:103F100000000000000000000000000000000000A1
:103F200000000000000000000000000010009E0FD4
:103F30005818383018201860186018601860186019
:103F400018601830383078189807180018001800D2
:103F500018007E00000000000000000000000000CB
:103F60000000000000000000000000000000C0236E
:103F7000303C183818300C300C300C300C300C3011
:103F80000C3008301838303CE0330030003000305E
:103F9000003000FC000000000000000000000000F5
:103FA00000000000000000000000000060007E3CF7
:103FB00060666061E000E00060006000600060003A
:103FC0006000600060006000FE070000000000006C
:103FD00000000000000000000000000000000000E1
:103FE0000000000000000000000000000000E027CA
:103FF00030381830182018007000E003800F001CC3
:10400000043004300C301C18EC0F000000000000DD
:1040100000000000000000000000000000000000A0
:1040200000000000800080008000C000E000FC1F55
:10403000C000C000C000C000C000C000C000C00080
:10404000C000C020C0208011000F00000000000050
:104050000000000000000000000000000000000060
:1040600000000000000000000000000010201E3CC6
:104070001830183018301830183018301830183000
:1040800018301830183830F4E01300000000000039
:104090000000000000000000000000000000000020
:1040A00000000000000000000000000000007E3C56
:1040B00018181808380830043004700260026002D2
:1040C000E001C001C001C00080000000000000004D
:1040D00000000000000000000000000000000000E0
:1040E0000000000000000000000000000000DFF7FA
:1040F0008E630C238C238C23981398135816581610
:10410000700E700E700E20042004000000000000ED
:10411000000000000000000000000000000000009F
:104120000000000000000000000000000000FC3E55
:1041300070087004E004C002C001800380034007DF
:104140006006200C100C18183E7E000000000000D5
:10415000000000000000000000000000000000005F
:1041600000000000000000000000000000007E7C55
:104170001818180830083008300460046004C002C1
:10418000C002C002800180018001800080008000A8
:104190004C003C0000000000000000000000000097
:1041A0000000000000000000000000000000FC1FF4
:1041B0000C0C040E0406000380038001C000E00024
:1041C0007020302038301C18FC1F00000000000058
:1041D00000000000000000000000003000080004A3
:1041E00000040004000400040004000400040004AF
:1041F0000004000280010002000400040004000426
:10420000000400040004000400040004000400088A
:104210000030000000010001000100010001000168
:104220000001000100010001000100010001000186
:104230000001000100010001000100010001000176
:104240000001000100010001000100010001000166
:10425000000100010000000000000C001000200020
:10426000200020002000200020002000200020004E
:10427000200040008001400020002000200020009D
:10428000200020002000200020002000200010003E
:104290000C00000000003800C400864002610022CB
:1042A000001C0000000000000000000000000000F2
:1042B00000000000000000000000000000000000FE
:1042C00000000000000000000000000000000000EE
:1042D00000000000D6D08000800080008000FC1F1D
:1042E00084108410841084108410FC1F84108000BB
:1042F000800080008000BEB0F80F0808F80F0808A2
:10430000F80F8000FF7F0000F80F08080808F80F7A
:1043100080008410A2204000D4B00000FE3F0220A4
:10432000F22702200220FA2F222122212221122903
:1043300012290A2E0220FE3F0220B5E780008000ED
:104340008000FC1F841084108410FC1F84108410D3
:104350008410FC1F845080408040007FD7D3000031
:10436000FE1F00080004000280018000FF7F800023
:1043700080008000800080008000A0004000D6D037
:104380000000000000000018000008000008000005
:104390000800080818F8FF1F180818180818180847
:1043A00018180818180818180818F8FF1F0808081F
:1043B00000080000080000080000080000180000C5
:1043C0001800001800000000BEB00000000000004F
:1043D000400006C0FF07400006C0FF07400006C0BF
:1043E000FF07400802003000FEFF3F000000C0FF52
:1043F00007C00002C00002C00002C0FF038010001E
:1044000080110160100E3010180C1E30001C0000CE
:104410000000D4B0000000000000080030F8FF1FCA
:1044200008001008C010083F10080010080010080D
:104430000013C8FF100822100822100822100822BA
:104440001008211208211488601648C01328001093
:10445000080010F8FF1F080010000000B5E700007A
:10446000000000000018000008000008000008001C
:10447000F0FF0F100804100804100804100804F0DE
:10448000FF07100804100804100804100804F0FFC7
:10449000071008000008100008100008200018305D
:1044A00000F01F000000D7D3000000000000000053
:1044B00004F0FF0F00000600000100C0000028000B
:1044C000001800001800001830FEFF7F00180000E0
:1044D000180000180000180000180000180000184C
:1044E00000001800001800001F00000C0000000071
:1044F000D6D0000000000000000000800000008016
:1045000001000080010000800100008001000080A7
:1045100001001080010CF0FFFF0F3080010430809B
:1045200001043080010430800104308001043080B7
:1045300001043080010430800104F0FFFF07308067
:10454000010430800104008001000080010000802F
:104550000100008001000080010000800100008057
:1045600001000080010000800100008000000000C8
:104570000000BEB0000000000000000000000000CD
:104580000001800100FFFF010003800100038001A2
:1045900000FFFF01000380010003800100FFFF0115
:1045A00000818100000003000000031CFCFFFF3FAE
:1045B000000040000003C00100FFFF010003C00035
:1045C0000003C0000003C00000FFFF000001410025
:1045D00000040100000E7100000781018001010745
:1045E0006000010E1898011C04E0011800C00000D2
:1045F00000000000D4B00000000000000000000037
:104600000008F0FFFF1F3000000C3000000C3000ED
:10461000100C30FE3F0C3004000C3000000C300059
:10462000000C3000000C3000C00CF0FFFF0D3030EB
:10463000060E3030060C3010060C3010060C301010
:10464000060C3018860C3018860C3008060D300C1D
:10465000860D3006EE0F3002FC0D3001000CF0002C
:10466000000C3000000CF0FFFF0F3000000C1000B9
:10467000000400000000B5E700000000000000009A
:1046800000C0000000C0010000C0000000C0000029
:1046900000C0000000C00000E0FFFF0360C0000396
:1046A00060C0000360C0000360C0000360C000037E
:1046B00060C00003E0FFFF0360C0000360C00003B0
:1046C00060C0000360C0000360C00003E0FFFF03A0
:1046D00060C0000160C0000000C0000800C0001001
:1046E00000C0001000C0001800C001380080FF1F8B
:1046F0000000000000000000D7D300000000000010
:1047000000000000000000000003C0FFFF070000E1
:1047100080070000C00000006000000018000000DA
:104720000C00008003000080030000800100008076
:1047300001080080011CFCFFFF3F00800100008099
:104740000100008001000080010000800100008065
:104750000100008001000080010000800100008055
:104760000100008001000080010000FC010000E069
:104770000000004000000000000000009C4700080E
:1047800000000020200000006C010008BC47000869
:1047900020000020280700008801000800A24A0429
:1047A00000000000000000000102030406070809E1
:0C47B000000000000000000000000000FD
:0400000508000131BD
:00000001FF
