:020000040800F2
:1000000010040020E1000008D50300080D030008DB
:1000100000000000000000000000000000000000E0
:100020000000000000000000000000001B040008A9
:10003000000000000000000019040008F10400089E
:10004000F3000008F3000008F3000008F3000008C4
:10005000F3000008F3000008F3000008F3000008B4
:1000600000000000F3000008F3000008F30000089F
:10007000F3000008F3000008F3000008000000008F
:10008000F3000008F300000800000000F30000087F
:10009000F3000008F3000008F3000008F300000874
:1000A000F3000008F3000008F3000008F300000864
:1000B000F300000800000000000000000000000045
:1000C000F300000800000000F30000080348854624
:1000D00000F0ECF800480047C307000810040020B7
:1000E0000448804704480047FEE7FEE7FEE7FEE7D6
:1000F000FEE7FEE7F5040008CD000008024670B5F3
:100100004A40D30FDB0740002DD04A002AD0010E11
:10011000140E000212020919400A520A8418E5015D
:1001200004465443000A120A2E045043A4194219EB
:10013000200CC543AA18120C0125AD03521C5219FC
:1001400012047F39240400D0521C104301D4400013
:10015000491EC2B20C06C0092018401C4008802A63
:1001600002D003E0002070BD40084000002900DA02
:100170000020184370BD70B502464A40D50F4000BC
:100180004A00ED0740085208002814D0002A12D077
:10019000C40DD30D41020120C0055202490A520A82
:1001A000E41A091812187D34914201D3641C00E04E
:1001B0004900002C01DA002070BD0023914201D3D8
:1001C000891A0343400849000028F7D100290AD0C2
:1001D000914202D10121C90705E0914201D20121DA
:1001E00001E00121C943E005C018401900F01CF8E6
:1001F00070BD10B500229623114600F01DF810BD09
:10020000410040020122400AD205090E80187F29D0
:1002100001DA00207047962903DC9622511AC84063
:100220007047963988407047002904DA401C49001D
:1002300001D140084000704770B40024050C05D17E
:100240001024000402D1002921D01124050E01D16F
:1002500000020834050F01D10001241D850F01D1D2
:100260008000A41C002801DB4000641C002908D089
:1002700020252E1B0D46F540A14000D00121294329
:10028000084301061B1B000ADB1D02D5002070BCC1
:100290007047DB05181880180029F8DA401C49005F
:1002A000F5D170BC4008400070470000064C0125A5
:1002B000064E05E0E36807CC2B430C3C984710340E
:1002C000B442F7D3FFF706FFB4090008D4090008C9
:1002D00080B582B0014601A8017000780090012825
:1002E00004D0FFE70098022806D00BE0494844F20A
:1002F000000100F0BDF906E0464848F2000100F0B8
:10030000B7F900E0FFE702B080BDC046FFE7FEE7B7
:1003100080B5054800F07EFA7448002101224EF2B3
:10032000000300F0C2F980BD1205000080B586B060
:10033000154800F06FFA374801900121059100221D
:10034000029244F20003009300F0AFF90198029A80
:10035000059948F20003049300F0A7F9009B019867
:1003600002990322039200F0E7F901980299039A97
:10037000049B00F0E1F90598FFF7AAFF0220FFF7C0
:10038000A7FF06B080BDC0461305000080B582B04F
:10039000014601A8017000780090012808D0FFE70D
:1003A0000098022808D0FFE70098032808D00EE044
:1003B000012000F011F80BE0022000F00DF807E03A
:1003C0000120FFF785FF0220FFF782FF00E0FFE733
:1003D00002B080BD7047000080B582B0014601A820
:1003E000017000780090012804D0FFE700980228EF
:1003F00006D00BE0074844F2000100F031F906E0B6
:10040000044848F2000100F02BF900E0FFE702B0D9
:1004100080BDC046000800487047704780B582B074
:10042000324842F2000100F02BF9C0B9FFE70A2080
:1004300000F0DAF82D4842F2000100F021F968B925
:10044000FFE7FFE7294842F2000100F019F908B977
:10045000FFE7F7E701A90120087042E0FFE7234822
:1004600048F2000100F00CF9C0B9FFE70A2000F0E3
:10047000BBF81E4848F2000100F002F968B9FFE736
:10048000FFE71A4848F2000100F0FAF808B9FFE760
:10049000F7E701A90220087023E0FFE7134844F2C0
:1004A000000100F0EDF8C0B9FFE70A2000F09CF869
:1004B0000E4844F2000100F0E3F868B9FFE7FFE7F7
:1004C0000A4844F2000100F0DBF808B9FFE7F7E75B
:1004D00001A90320087004E0FFE701A900200870CB
:1004E000FFE701A8007802B080BDC04600040048C4
:1004F0007047000080B584B0CF49086801221043DE
:100500000860FFE7CC4800688007002801D4FFE7B7
:10051000F8E7FFE72D4908688022104308600020B3
:100520000390FFE703987F2805D8FFE7FFE70398CC
:10053000401C0390F6E7F8490868902210430860D1
:1005400000200390FFE703987F2805D8FFE7FFE727
:100550000398401C0390F6E7FFE7EF490868032281
:1005600090430860E94A1068194B18401060086809
:10057000184A104008600868E84A104008601649A8
:1005800008680F22904308601449086840F203127B
:1005900090430860086801220192130498430860A0
:1005A0000868D307984308600D49086890430860BD
:1005B0000C4900200290086000F0B2F901980299FD
:1005C000C00600F015F904B080BDC046041002401A
:1005D000FFFFF2FE0C00FF082C100240301002401A
:1005E000341002400810024080B584B00390039894
:1005F000FFF7FFFDE6490968FFF780FDFFF700FE02
:1006000015490860154900200860D149012008609B
:10061000FFE7CF4800680290FFE7002002A90978B1
:10062000C907019041B1FFE702A880780121084085
:10063000414248410190FFE70198C0070028E8D1F6
:10064000FFE7C3490868012290430860034900207E
:10065000086004B080BDC04614E000E018E000E08F
:1006600082B00190009100980199886202B07047B1
:1006700082B00190009100980199886102B07047A2
:1006800083B001900091019800690099084204D05C
:10069000FFE702A90120087003E002A9002008700A
:1006A000FFE702A8007803B0704787B00690059175
:1006B000049203930698006801900698C068009021
:1006C00002A900200880FFE702A800880F282BD885
:1006D000FFE702A801880398C840C007F0B1FFE710
:1006E00002A801884900032213468B4001999943CF
:1006F0000191059B018849008B40019919430191A3
:10070000018849008A40009991430091049900882A
:1007100040008140009808430090FFE7FFE70298FF
:10072000401C02A90880CFE701980699086000984C
:100730000699C86007B0704710B586B0059004A848
:100740000170039202930078012806D1FFE7029A14
:10075000059948681043486005E0029A0599486881
:1007600090434860FFE705988068009001A9002049
:100770000880FFE701A800880F281DD8FFE701A81F
:1007800001880298C840C00780B1FFE701A801882E
:10079000490003228A4000999143009103990088FF
:1007A00040008140009808430090FFE7FFE7019870
:1007B000401C01A90880DDE700980599886006B013
:1007C00010BD80B582B0002001906946087000F02D
:1007D000C1F8FFF7ABFDFFF79BFDFFE7FFF71EFE3C
:1007E0000146684601700078FFF7D0FDF6E700008B
:1007F00082B00190009101980099044A1140084389
:1008000003490860BFF34F8F02B0704780FFFF1F9E
:1008100008ED00E081B001466846018000881F2293
:100820000146114001238B408109384A88581843FA
:10083000885001B07047C0460010024084B00020CC
:1008400003900290314908680122120410430860A5
:10085000FFE70398401C03902C48006801214904DD
:1008600008400290FFE702990020019039B9FFE7A4
:1008700003982749401A411E88410190FFE70198DB
:10088000C0070028E5D1FFE7204800688003002862
:1008900002D4FFE7FFE7FEE71E4908680222104383
:1008A0000522904308601C490091086808600868A8
:1008B0000860086808600868184A104008600868FE
:1008C0001D22120410430860104908680122120614
:1008D00010430860FFE70D4800688001002801D43C
:1008E000FFE7F8E70C4908680322904308600868AE
:1008F000022210430860FFE7074800680C21084007
:10090000082801D0FFE7F7E704B070470010024065
:10091000FFFF00000020024004100240FFFFC277EA
:1009200080B5FFF78BFF80BD81B000900098042850
:1009300006D1FFE70649086804221043086005E075
:1009400003490868042290430860FFE701B070473C
:1009500010E000E080B50420C043FFF7E5FF084841
:100960000068FFF746FC0749FFF705FC014606480B
:10097000016000680549FFF7C1FB0549086080BDBB
:10098000000000200024F44A0C00002000007A44FB
:100990000800002002E008C8121F08C1002AFAD18E
:1009A00070477047002001E001C1121F002AFBD1EF
:1009B00070470000D809000800000020080000006F
:1009C00094090008E009000808000020080400005D
:1009D000A40900080000000000A24A040000000072
:04000005080000CD22
:00000001FF
