:020000040800F2
:100000000804002009010008C51F0008DF150008CA
:10001000C11F0008150500089D2100080000000010
:10002000000000000000000000000000B1200008F7
:10003000190500080000000001200008B320000896
:100040002301000823010008230100082301000800
:1000500023010008230100082301000823010008F0
:1000600023010008230100082301000823010008E0
:1000700023010008230100082301000823010008D0
:1000800023010008230100082301000823010008C0
:1000900023010008230100082301000823010008B0
:1000A00000000000230100082301000823010008CC
:1000B0002301000823010008230100082301000890
:1000C0002301000823010008230100082301000880
:1000D0002301000823010008230100082301000870
:1000E0002301000823010008230100082301000860
:1000F00023010008DFF80CD000F0EAF900480047BF
:10010000CD21000808040020064880470648004723
:10011000FEE7FEE7FEE7FEE7FEE7FEE7FEE7FEE7B7
:10012000FEE7FEE739210008F500000880EA010239
:1001300010B502F00043400022D04A001FD0010E4B
:1001400001EB1261C0F35600C2F3560240F4000006
:1001500042F40002A0FB022000047F39140400D006
:10016000401C50EA124001D44000491EC2B20C06A5
:1001700004EBD010401C4008802A02D003E000208D
:1001800010BD20F00100002900DA0020184310BD46
:100190002DE9FE4F804681EA0300C00F0C46009017
:1001A00021F0004123F00045B8EB0200A94105D23F
:1001B0004046214690461C460B46024623F000402E
:1001C000104347D0270DC7F30A00C3F30A5102902A
:1001D000401A019040286BDAC3F3130040F4801BEF
:1001E0000098924620B10023D2EB030A63EB0B0B7D
:1001F00001985946C0F14002504600F0B3F8064657
:100200000D4650465946019A00F0BBF810EB080025
:100210006141002487EA115284EAE7731A4340D00F
:10022000009A62B3019A012A4FEA075215DC001BBB
:1002300061EB02014FF0004202EA0752CDE90042B1
:10024000001C41F5801132462B4600F0F2F803B055
:10025000BDE8F08F40462146F9E7001B61EB020143
:10026000001C41F5801300185B412018A2F500170F
:1002700047EB030140EAD570B6196D4111E06D08F6
:100280004FEA360645EAC0754FEA0752001B61EB9C
:100290000201001C41F5801149084FEA30000019A5
:1002A000514132462B4603B0BDE8F04F00F0B2B8E2
:1002B0000098012240000023D0EB020263EBE073C0
:1002C000009821464FEAE074B8EB000061EB0401AE
:1002D000E9E783F000435BE781F0004158E720F055
:1002E0000040C10DC0F3160040F400007F2901DA80
:1002F00000207047962903DCC1F19601C840704781
:1003000096398840704700F0004230F000400AD033
:10031000C10D01F56071C0F3160042EA0151C20837
:1003200040071143704700200146704701F0004329
:1003300030B421F0004150EA010206D00A0DA2F5C6
:100340006072C1F31301002A02DC30BC0020704748
:10035000440F44EAC104C100E01830BC00EBC250B5
:1003600000F021B8202A04DB203A00FA02F1002034
:1003700070479140C2F1200320FA03F319439040E3
:100380007047202A06DBCB17203A41FA02F043EAF5
:10039000E07306E041FA02F3D040C2F1200291403E
:1003A0000843194670470029A8BF7047401C490000
:1003B00008BF20F00100704710B4B0FA80FC00FACA
:1003C0000CF050EA010404BF10BC704749B1CCF1F5
:1003D000200421FA04F411FA0CF118BF0121214381
:1003E0000843A3EB0C01CB1D4FEA00614FEA10203C
:1003F00042BF002010BC704700EBC35010440029DE
:10040000A4BF10BC7047401C490008BF20F0010089
:1004100010BC704710B5141E73F1000408DA401CBC
:1004200041F1000192185B411A4301D120F0010013
:1004300010BD2DE9F04D92469B4611B1B1FA81F203
:1004400002E0B0FA80F220329046FFF78BFF0446BC
:100450000F4640EA0A0041EA0B0153465A46084358
:1004600013D0114653EA010019D0C8F1400250469A
:1004700000F040F805460E46504659464246FFF702
:1004800071FF084305D0012004E020463946BDE84D
:10049000F08D0020054346EAE0762C4337430A9866
:1004A0006305E40AA0EB08000022FD0A44EA475471
:1004B0000A3002D500200146E9E70105101969411B
:1004C000DDE9084500196941BDE8F04DA2E70000EB
:1004D000064C074D06E0E06840F0010394E8070091
:1004E00098471034AC42F6D3FFF708FE0C520008D0
:1004F0002C520008202A04DB203A21FA02F00021C5
:10050000704721FA02F3D040C2F120029140084323
:100510001946704700BFFEE7704731B5002400F070
:10052000F7F8044600BF00F0F3F8001B009988427A
:10053000F9D338BD78B50346002200240020CAE074
:10054000012696400D6805EA0604002C71D04D681E
:10055000022D02D04D68122D13D1D60803F12005CB
:1005600055F826005507EE0E0F25B540A84356074F
:10057000F60E0D69B5402843D60803F1200545F86D
:100580002600186856000325B540A8430D7905F0EC
:1005900003055600B540284318604D68012D08D06A
:1005A0004D68022D05D04D68112D02D04D68122DD9
:1005B00013D1986856000325B540A8435600CD686E
:1005C000B54028439860586801259540A8430D79A7
:1005D000C5F30015954028435860D8685600032598
:1005E000B540A84356008D68B5402843D8604D6893
:1005F00005F08055B5F1805F6CD100BF394D2D6895
:1006000045F00105374E356035462D6805F001058A
:10061000009500BF00BF344D960855F82600950799
:100620002E0F0F25B540A843304DAB4202D1002517
:1006300015E04FE02E4DAB4201D101250FE02D4DCD
:10064000AB4201D102250AE02B4DAB4201D103257B
:1006500005E02A4DAB4201D1042500E005259607AF
:10066000360FB5402843204D960845F82600244D06
:100670002868A0434D6805F48035B5F5803F00D16A
:1006800020431F4D28602D1D2868A0434D6805F4A8
:100690000035B5F5003F00D12043194D2D1D2860D0
:1006A0002D1D2868A0434D6805F48015B5F5801F01
:1006B00000D12043124D083528602D1D2868A04325
:1006C0004D6805F40015B5F5001F00D120430C4D11
:1006D0000C352860521C0D68D540002D7FF430AFDA
:1006E00078BD0000203802400800014000000240B0
:1006F0000004024000080240000C024000100240CA
:10070000000401400AB1816101E00B04836170477C
:10071000014800687047000004000020024800689B
:10072000401C0149086070470400002010B50320F8
:1007300000F05CF8002000F005F800F017F8002049
:1007400010BD000070B50446074800684FF47A7188
:10075000B0FBF1F5284600F024FF00222146501E90
:1007600000F005F8002070BD0000002070472DE962
:10077000F05F80460D461646002701F025FC07462F
:1007800039462A46334601F00700C0F1070ABAF19C
:10079000040F02D94FF0040A01E0C0F1070AD14664
:1007A00000F1040ABAF1070F02D24FF0000A01E08B
:1007B000A0F1030AD4464FF0010A0AFA09FAAAF195
:1007C000010A0AEA020A0AFA0CFA4FF0010B0BFAC4
:1007D0000CFBABF1010B0BEA030B4AEA0B042146BD
:1007E000404601F0F9FBBDE8F09F000000BF00F0BB
:1007F0000702064B19684FF6FF031940044B0B43E1
:1008000043EA0221014B196000BF70470CED00E084
:100810000000FA0570B504460D460026B34800688E
:1008200000F00100A84218D200BF012D05D1AF4849
:10083000006840F00400AD490860AC48006820F052
:1008400001002843A949086000BF0846006800F07D
:100850000100A84201D0012070BD207800F0020004
:10086000022807D1A248006820F0F000A1680843E0
:100870009F490860207800F0010000287BD0606864
:10088000022821D12020010391FAA1F1B1FA81F1CE
:1008900008430121B1EB601F03D195480838006877
:1008A00002E093482C30006820210A0392FAA2F259
:1008B000B2FA82F2114301F01F0201219140084077
:1008C00000286CD10120C7E76068032820D12020D0
:1008D000010591FAA1F1B1FA81F108430121B1EBCF
:1008E000601F03D182480838006802E080482C303D
:1008F000006820210A0592FAA2F2B2FA82F21143AC
:1009000001F01F02012191400840A8BB0120A3E78C
:100910006068012820D12020022191FAA1F1B1FACA
:1009200081F108430121B1EB601F03D17048083801
:10093000006802E06E482C3000682021022292FA02
:10094000A2F2B2FA82F2114301F01F02012191409A
:10095000084088B901207FE72020010191FAA1F128
:10096000B1FA81F108430121B1EB601F05D1604864
:100970000838006804E069E011E05D482C30006848
:1009800020210A0192FAA2F2B2FA82F2114301F096
:100990001F0201219140084008B901205CE754483A
:1009A000006820F003006168084351490860FFF7C0
:1009B000AFFE06466068022810D108E0FFF7A8FEE7
:1009C000801B41F28831884201D9032044E748481E
:1009D000006800F00C000828F0D137E060680328B8
:1009E00010D108E0FFF794FE801B41F28831884265
:1009F00001D9032030E73E48006800F00C000C28C5
:100A0000F0D123E06068012810D108E0FFF780FEF4
:100A1000801B41F28831884201D903201CE7344809
:100A2000006800F00C000428F0D10FE008E0FFF7A8
:100A30006FFE801B41F28831884201D903200BE709
:100A40002B48006800F00C000028F0D1274800680F
:100A500000F00100A84218D900BF012D05D123489C
:100A6000006840F00400214908602048006820F038
:100A7000010028431D49086000BF0846006800F0D7
:100A80000100A84201D00120E6E6207800F0040031
:100A9000042807D11648006820F4E060E1680843A4
:100AA00013490860207800F00800082808D1104891
:100AB000006820F46050216940EAC1000C490860D8
:100AC00000F022F80A49096801F0F001F02292FAD8
:100AD000A2F2B2FA82F2D140064A515CC8400649FD
:100AE00008600020FFF72EFE0020B5E6003C024023
:100AF000083802409B2F00080000002001480068D1
:100B00007047000000000020F0B500210023002401
:100B1000002200250020254E316801F00C067EB32E
:100B2000042E04D0082E04D00C2E2AD103E0204835
:100B30003AE0204838E001F470164FF4701797FA45
:100B4000A7F7B7FA87F7FE401B4FBB5D01F44006DD
:100B50004FF4400797FAA7F7B7FA87F7FE40741CDF
:100B6000124E366806F4803626B1124E5E43B6FB4E
:100B7000F4F203E00E4E5E43B6FBF4F2104613E0CF
:100B800000E000BF094E361F366806F460464FF499
:100B9000604797FAA7F7B7FA87F726FA07F56E1CAA
:100BA0000127B740F80300BF00BFF0BD083802407E
:100BB0000024F40000366E01922F0008F8B50446B8
:100BC0000025207800F00100002879D0F74800685F
:100BD00000F00C0008280CD0F448006800F00C006D
:100BE0000C282BD1F148006800F48030B0F5803F2C
:100BF00024D12020010391FAA1F1B1FA81F1084337
:100C00000121B1EB601F03D1E8480838006802E019
:100C1000E6482C30006820210A0392FAA2F2B2FAC8
:100C200082F2114301F01F02012191400840002887
:100C3000CBD06068002843D10120F8BD00BF6068B8
:100C4000012808D1D9480838006840F48030D749D5
:100C5000083908602DE0606868B9D4480838006831
:100C600020F48030D149083908600846006820F433
:100C7000802008601DE0606805280DD1CB48083849
:100C8000006840F48020C9490839086008460068B7
:100C900040F4803008600CE0C4480838006820F454
:100CA0008030C249083908600846006820F4802076
:100CB000086000BF606860B3FFF72AFD054607E0E3
:100CC00052E0FFF725FD401B642801D90320B4E75B
:100CD0002020010391FAA1F1B1FA81F10843012129
:100CE000B1EB601F03D1B1480838006802E0AF489B
:100CF0002C30006820210A0392FAA2F2B2FA82F2A2
:100D0000114301F01F020121914008400028D8D072
:100D10002AE0FFF7FDFC054606E0FFF7F9FC401B63
:100D2000642801D9032088E72020010391FAA1F16A
:100D3000B1FA81F108430121B1EB601F03D19B4857
:100D40000838006802E099482C30006820210A0326
:100D500092FAA2F2B2FA82F2114301F01F020121CB
:100D6000914008400028D8D1207800F002000228E5
:100D700045D18E48006800F00C0004280AD08B484A
:100D8000006800F00C000C283BD18848006800F493
:100D90008030A8BB2020022191FAA1F1B1FA81F1A3
:100DA00008430121B1EB601F03D180480838006877
:100DB00002E07E482C3000682021022292FAA2F242
:100DC000B2FA82F2114301F01F0201219140084062
:100DD00020B1E068012801D001202EE77348001FF0
:100DE000006820F4F8504FF4F85292FAA2F2B2FAE6
:100DF00082F22169914008436C49091F08607DE037
:100E0000FFE7E068F0B3012090FAA0F1B1FA81F1B8
:100E1000674A42F82100FFF77BFC054606E0FFF732
:100E200077FC401B022801D9032006E7202002217D
:100E300091FAA1F1B1FA81F108430121B1EB601FF0
:100E400003D15A480838006802E058482C3000683E
:100E50002021022292FAA2F2B2FA82F2114301F0A8
:100E60001F020121914008400028D8D04F48001FA0
:100E7000006820F4F8504FF4F85292FAA2F2B2FA55
:100E800082F200E006E02169914008434749091FCA
:100E9000086033E00020012191FAA1F1B1FA81F15B
:100EA000434A42F82100FFF733FC054606E0FFF70E
:100EB0002FFC401B022801D90320BEE6202002217E
:100EC00091FAA1F1B1FA81F108430121B1EB601F60
:100ED00003D136480838006802E034482C300068F6
:100EE0002021022292FAA2F2B2FA82F2114301F018
:100EF0001F020121914008400028D8D1207800F03D
:100F00001000102873D12948006800F00C00002858
:100F10006ED12020010191FAA1F1B1FA81F10843CB
:100F20000121B1EB601F03D120480838006802E0BE
:100F30001E482C30006820210A0192FAA2F2B2FA6F
:100F400082F2114301F01F0201219140084018B1C3
:100F5000A06908B9012070E61449091F206A0968D0
:100F600001F46041884225D9206A01F04BF808B1AC
:100F7000012062E60D48001F006820F46040216AED
:100F800008430A49091F08600846006820F07F40AE
:100F90004FF07F4292FAA2F2B2FA82F2E1699140F6
:100FA00008430249091F086023E000000838024096
:100FB00000004742FC48006820F46040216A084372
:100FC000F94908600846006820F07F404FF07F42F2
:100FD00092FAA2F2B2FA82F2E16991400843F24930
:100FE0000860206A01F00EF818B1012025E6A5E09E
:100FF0001FE04FF4604191FAA1F1B1FA81F1206A4A
:10100000C840401C01218140C803E749091D096807
:1010100001F0F001F02292FAA2F2B2FA82F2D1408B
:10102000E24A515CC840E24908600020FFF78AFBB1
:1010300084E0A069F0B30120010291FAA1F1B1FAB4
:1010400081F1DC4A42F82100FFF762FB054606E029
:10105000FFF75EFB401B022801D90320EDE52020AD
:10106000010191FAA1F1B1FA81F108430121B1EB3B
:10107000601F03D1CC48001F006802E0CA4830302E
:10108000006820210A0192FAA2F2B2FA82F2114318
:1010900001F01F020121914008400028D8D0C24829
:1010A000006820F46040216A0843BF490860084690
:1010B000006800E00DE020F07F404FF07F4292FAA0
:1010C000A2F2B2FA82F2E16991400843B64908609F
:1010D00034E000204FF4807191FAA1F1B1FA81F16E
:1010E000B44A42F82100FFF713FB054606E0FFF77C
:1010F0000FFB401B022801D903209EE5202001019F
:1011000091FAA1F1B1FA81F108430121B1EB601F1D
:1011100003D1A548001F006802E0A34830300068F2
:1011200020210A0192FAA2F2B2FA82F2114301F0EE
:101130001F020121914008400028D8D1207800F0FA
:10114000080008286ED16069A8B3012090FAA0F1C8
:10115000B1FA81F1974A02EB8101C1F88006FFF7ED
:10116000D7FA054606E0FFF7D3FA401B022801D95B
:10117000032062E54020022191FAA1F1B1FA81F148
:1011800008430121B1EB601F03D18748001F0068AD
:1011900002E08548303000684021022292FAA2F233
:1011A000B2FA82F2114301F01F020121914008407E
:1011B0000028D8D036E0FFE70021012090FAA0F007
:1011C000B0FA80F07B4A02EB8000C0F88016FFF78F
:1011D0009FFA054606E0FFF79BFA401B022801D95B
:1011E00003202AE54020022191FAA1F1B1FA81F110
:1011F00008430121B1EB601F03D16B48001F006859
:1012000002E06948303000684021022292FAA2F2DE
:10121000B2FA82F2114301F01F020121914008400D
:101220000028D8D1207800F00400042875D10026C9
:101230005D482030006800F0805080B900BF5A48F7
:101240002030006840F0805057492031086008463F
:10125000006800F08050009000BF00BF0126564893
:10126000006800F48070B0B95348006840F48070A2
:1012700051490860FFF74CFA054606E0FFF748FAC7
:10128000401B642801D90320D7E44B48006800F4D0
:1012900080700028F2D000BFA068012808D1424821
:1012A0003030006840F480703F49303108602DE0F4
:1012B000A06868B93C483030006820F480703A4932
:1012C000303108600846006820F4806008601DE046
:1012D000A06805280DD134483030006840F48060A3
:1012E0003149303108600846006840F48070086079
:1012F0000CE02D483030006820F480702A493031ED
:1013000008600846006820F48060086000BFA0689C
:1013100070B3FFF7FDF9054609E06AE0FFF7F8F959
:10132000401B41F28831884201D9032085E44020E6
:10133000C10091FAA1F1B1FA81F108430121B1EBA9
:10134000601F03D11848001F006802E016483030C3
:1013500000684021CA0092FAA2F2B2FA82F2114366
:1013600001F01F020121914008400028D6D035E04D
:10137000FFF7CEF9054608E0FFF7CAF9401B41F236
:101380008831884201D9032057E44020C10091FAF6
:10139000A1F1B1FA81F108430121B1EB601F0DD138
:1013A0000148001F00680BE0043802409B2F000832
:1013B0000000002000004742007000406C480068B8
:1013C0004021CA0092FAA2F2B2FA82F2114301F06D
:1013D0001F020121914008400028CDD1012E07D1E4
:1013E00063481038006820F0805061491039086067
:1013F00000BF606AF0B35E482C38006800F00C0053
:101400000C287AD0606A022879D100204FF08071D0
:1014100091FAA1F1B1FA81F1564A42F82100FFF7A1
:1014200077F9054606E0FFF773F9401B022801D95A
:10143000032002E42020010591FAA1F1B1FA81F123
:1014400008430121B1EB601F03D1494834380068DB
:1014500001E04748006820210A0592FAA2F2B2FA98
:1014600082F2114301F01F0201219140084000283F
:10147000D9D100E07AE0D4E90A010843216B08439E
:101480003B492C39096821F47D01084338492C393E
:1014900008600120010691FAA1F1B1FA81F1354A03
:1014A00042F82100FFF734F9054606E0FFF730F96E
:1014B000401B022801D9032009E42020010591FAEC
:1014C000A1F1B1FA81F108430121B1EB601F03D111
:1014D00027483438006801E02548006820210A05C3
:1014E00092FAA2F2B2FA82F2114301F01F02012134
:1014F000914008400028D9D038E035E0FFE70021CE
:101500004FF0807090FAA0F0B0FA80F0194A42F8DB
:101510002010FFF7FDF8054606E0FFF7F9F8401B3D
:10152000022801D9032058E42020010591FAA1F1F5
:10153000B1FA81F108430121B1EB601F03D10C48DE
:101540003438006801E00A48006820210A0592FA50
:10155000A2F2B2FA82F2114301F01F02012191407E
:1015600008400028D9D101E0012036E4002034E40D
:101570003438024000004742042808D14FF0E021EF
:10158000096941F004014FF0E022116107E04FF0DA
:10159000E021096921F004014FF0E0221161704758
:1015A000704770B504462546681EB0F1807F01D3B0
:1015B00001200FE0681E4FF0E02148610F214FF03D
:1015C000FF3000F009FD00204FF0E0218861072086
:1015D0000861002070BD10B5FFF7E2FF10BD00BF2D
:1015E000FEE72DE9F04104460D4616461F462A2027
:1015F00000F07CFCA01C00F069FCB01C00F066FC54
:101600002B2000F073FC681C00F060FC781C00F0DC
:101610005DFC2C2000F06AFCBDE8F08170B504464A
:101620000D4616462B46224629462046FFF7D9FF8F
:10163000304600F04BFC70BD2DE9F04706460F46E2
:1016400014461D46DDF820A06B1E621E394630464A
:10165000FFF7C7FFB8460AE0B14604E0504600F085
:1016600035FC09F10109A145F8D308F10108A845A5
:10167000F2D3BDE8F087000000B587B000BF0F4887
:10168000006840F001000D4908600846006800F05D
:101690000100019000BF00BF3F2002900120039095
:1016A00004900320059002A90548FEF743FF01229C
:1016B0003F210348FFF726F807B000BD1C38024061
:1016C0000000024010B5FFF7D7FF002204217C483C
:1016D000FFF718F8642000F072FD01220421784819
:1016E000FFF710F8642000F06AFD01222021744801
:1016F000FFF708F8642000F062FD112000F0F6FB0F
:10170000782000F05CFDB12000F0F0FB052000F037
:10171000E7FB3C2000F0E4FB3C2000F0E1FBB220C2
:1017200000F0E4FB052000F0DBFB3C2000F0D8FBE0
:101730003C2000F0D5FBB32000F0D8FB052000F0E2
:10174000CFFB3C2000F0CCFB3C2000F0C9FB052087
:1017500000F0C6FB3C2000F0C3FB3C2000F0C0FBC7
:10176000B42000F0C3FB032000F0BAFBC02000F05F
:10177000BDFB282000F0B4FB082000F0B1FB0420E2
:1017800000F0AEFBC12000F0B1FBC02000F0A8FBD0
:10179000C22000F0ABFB0D2000F0A2FB002000F007
:1017A0009FFBC32000F0A2FB8D2000F099FB2A20B4
:1017B00000F096FBC42000F099FB8D2000F090FB18
:1017C000EE2000F08DFBC52000F090FB1A2000F009
:1017D00087FB362000F08AFBC02000F081FBE02070
:1017E00000F084FB042000F07BFB222000F078FB5B
:1017F000072000F075FB0A2000F072FB2E2000F09D
:101800006FFB302000F06CFB252000F069FB2A20E4
:1018100000F066FB282000F063FB262000F060FB50
:101820002E2000F05DFB3A2000F05AFB002000F073
:1018300057FB012000F054FB032000F051FB132064
:1018400000F04EFBE12000F051FB042000F048FBCB
:10185000162000F045FB062000F042FB0D2000F0B2
:101860003FFB2D2000F03CFB262000F039FB23201D
:1018700000F036FB272000F033FB272000F030FB80
:10188000252000F02DFB2D2000F02AFB3B2000F04E
:1018900027FB002000F024FB012000F021FB0420A6
:1018A00000F01EFB132000F01BFB3A2000F01EFB93
:1018B000052000F015FB292000F018FB10BD0000EA
:1018C000000002402DE9FF4F83B005468A461746C7
:1018D000119CAB46204604EBD071C1F3470630465D
:1018E000F11706EB5171C91061430191A7F1200076
:1018F000C7B20AEB0400431EA819421E51462846EF
:10190000FFF76FFE4FF0000945E0102C06D1244888
:1019100000EB071010F8090002900BE0202C06D114
:10192000204800EB871010F80900029002E007B091
:10193000BDE8F08F4FF0000827E0129868B9012049
:1019400000FA08F00299084018B1069800F0BEFAB3
:1019500017E0109800F0BAFA13E0012000FA08F03E
:101960000299084020B151462846069AFFF756FED4
:101970006D1CA5EB0B00B04203D15D460AF1010AD4
:1019800006E008F1010000F0FF08B8F1080FD4DB11
:1019900000BF09F1010901988145B6D300BFC6E730
:1019A000B32F0008A33500082DE9FE4F8046894675
:1019B00015469A46DDE90D470C9E27E0102C09D10B
:1019C00053462A4649464046CDE90147009600F075
:1019D00023F819E0182C09D153462A4649464046B7
:1019E000CDE90147009600F091F80DE0202C09D1D7
:1019F00053462A4649464046CDE90147009600F045
:101A000007F901E0BDE8FE8FAD1CA044287800284E
:101A1000D4D100BFF6E700002DE9FE4F0646894607
:101A200092469B460D9C00962046E11704EB5171AF
:101A3000C910614301910520029000255FE005EB8C
:101A40000510314911F810009AF80010884254D15D
:101A500005EB05102C4901EB400040789AF8011085
:101A600088424AD109EB0400431E3019421E494600
:101A70003046FFF7B6FD00273CE04FF0000833E0AA
:101A80000E9898B905EB05101F4901EB4000801C2A
:101A9000C05D012101FA08F1084018B1584600F074
:101AA00015FA1DE00C9800F011FA19E005EB05108D
:101AB000154901EB4000801CC05D012101FA08F1CD
:101AC000084020B15A4649463046FFF7A7FD761C2C
:101AD0000098301AA04203D1009E09F1010906E0E6
:101AE00008F1010000F0FF08B8F1080FC8DB00BFE3
:101AF000781CC7B201988742BFD300BF6D1C029803
:101B000085429CD3BDE8FE8F634D00082DE9FE4F52
:101B10000646894692469B460D9C00962046E11754
:101B200004EB5171C9106143019105200290002519
:101B300067E005EB850000EB4510344911F8100013
:101B40009AF8001088425AD105EB850000EB451049
:101B50002E4901EB400040789AF8011088424ED19E
:101B600009EB0400431E3019421E49463046FFF778
:101B700038FD002740E04FF0000837E00E98A8B984
:101B800005EB850000EB4510204901EB4000801C6F
:101B9000C05D012101FA08F1084018B1584600F073
:101BA00095F91FE00C9800F091F91BE005EB85001A
:101BB00000EB4510154901EB4000801CC05D012180
:101BC00001FA08F1084020B15A4649463046FFF76D
:101BD00025FD761C0098301AA04203D1009E09F121
:101BE000010906E008F1010000F0FF08B8F1080F54
:101BF000C4DB00BF781CC7B201988742BBD300BFCB
:101C00006D1C0298854294D3BDE8FE8F0D4E0008EE
:101C10002DE9FE4F0646894692469B460D9C00964E
:101C20002046E11704EB5171C91061430191052071
:101C3000029000255FE005EB8510314911F8100096
:101C40009AF80010884254D105EB85102C4901EB1D
:101C5000400040789AF8011088424AD109EB04000C
:101C6000431E3019421E49463046FFF7BAFC002792
:101C70003CE04FF0000833E00E9898B905EB851072
:101C80001F4901EB4000801CC05D012101FA08F1F1
:101C9000084018B1584600F019F91DE00C9800F002
:101CA00015F919E005EB8510154901EB4000801C82
:101CB000C05D012101FA08F1084020B15A464946A9
:101CC0003046FFF7ABFC761C0098301AA04203D1D7
:101CD000009E09F1010906E008F1010000F0FF088B
:101CE000B8F1080FC8DB00BF781CC7B20198874263
:101CF000BFD300BF6D1C029885429CD3BDE8FE8F08
:101D00007F4F00082DE9FF4F85B0074690461C46DF
:101D1000DDE91396304606EBD071C1F3470B1F493E
:101D20004046FEF703FA0390FEF7D9FA0490002527
:101D30002FE0601B401EC1B20A2000F0DFFA0499B8
:101D4000B1FBF0F00A21B0FBF1F201FB120AA01E78
:101D5000A8420FD10020A11ECDE90096029001FB00
:101D60000B702E22129B0699FFF7ACFD681CC5B2C2
:101D7000601CC4B200200AF13001CAB2CDE900965D
:101D8000029005FB0B70129B0699FFF79BFD681CE8
:101D9000C5B2A542CDDB09B0BDE8F08F0000C84256
:101DA0002DE9FF4F85B0074691461D46DDE913A694
:101DB00000200490304606EBD071C1F3470B00249D
:101DC00032E0281B401EC1B20A2000F097FAB9FB8E
:101DD000F0F00A21B0FBF1F201FB1208049898B967
:101DE000681EA04210DDB8F1000F0BD10020CDE934
:101DF00000A6029004FB0B702022129B0699FFF7AD
:101E000061FD0FE001200490002008F13001CAB20A
:101E1000CDE900A6029004FB0B70129B0699FFF718
:101E200051FD00BF601CC4B2AC42CADB09B0BDE8C2
:101E3000F08F2DE9F05F0746884615461E46DDF80F
:101E40002890002408EB0600431E7819421E4146E4
:101E50003846FFF7C6FBA24614E04FF0000B0DE03A
:101E600019F8140000F03CF8012101EB440119F8C5
:101E7000010000F035F8641C0BF1010BB345EFD302
:101E80000AF1010AAA45E8D3BDE8F09F2DE9FE4F0B
:101E900006460F4614469846DDE90D5ADDF83090A7
:101EA0000FE0CDE9015ACDF800902278434639463B
:101EB0003046FFF707FD284605EBD07106EB6106BB
:101EC000641C20780028ECD1BDE8FE8F10B50446D4
:101ED000C4F3072000F01CF8E0B200F019F810BDC0
:101EE00010B50446204600F013F810BD10B50446A6
:101EF000002208210548FEF705FC204600F008F8FE
:101F0000012208210148FEF7FDFB10BD0000024040
:101F100070B50446002210211448FEF7F3FB00259B
:101F20001BE0002201211148FEF7ECFB04F08000C9
:101F300028B1012202210D48FEF7E4FB04E0002253
:101F400002210A48FEF7DEFB012211460748FEF790
:101F5000D9FB6006040E681CC5B2082DE1DB012226
:101F600010210248FEF7CEFB70BD000000000240C9
:101F700000B587B000BF1048006840F001000E496E
:101F800008600846006800F00100019000BF00BF33
:101F90004FF400400290012003900490032005902C
:101FA00002A90648FEF7C6FA0122D1030348FEF74C
:101FB000A9FB07B000BD00001C3802400000024031
:101FC00000BFFEE77047000002480068C0F302202F
:101FD000704700000CED00E010B5002807DA0A0792
:101FE000140E054A00F00F031B1FD45403E00A0728
:101FF000130E024A135410BD18ED00E000E400E097
:102000007047000018B502460023002125480068EB
:1020100000F0F00050BB23481C30006800F08050F6
:1020200020B12148006800F4C05318E000BF1D48EB
:102030001C30006840F080501A4C1C342060204650
:10204000006800F08050009000BF00BF1648006894
:1020500000F4C0532046006820F080502060B3F5A3
:10206000C05F03D1B2F5404F00D1012100BF01296B
:1020700005D10E48006840F004000C4C20600B486D
:10208000006820F001000843084C206000BF204693
:10209000006800F00100884201D0012018BD002036
:1020A000FCE700000838024000700040003C02409D
:1020B000704710B5FEF732FBFFF78DFA10BD000038
:1020C00010B592B01B48006820F4C05040F4006086
:1020D00018490860022005900120089010200990FE
:1020E00002200E9000210F9110914105119105A839
:1020F000FEF764FD0F200090032001900020029065
:102100000390049001216846FEF784FBFEF7F6FC7D
:102110004FF47A71B0FBF1F42046FFF742FA042045
:10212000FFF72AFA00221146501EFEF720FB12B0DC
:1021300010BD0000007000401448006840F480703A
:1021400012490860114808300068114908400F49D9
:10215000083108600D4800680E4908400B490860C6
:102160000846006820F480200860084808300068AD
:1021700020F47D000549083108600020091D086031
:102180004FF00060044908607047000000380240CA
:102190000CC0FF88FEFFFEEE08ED00E000BFFEE78A
:1021A00002E008C8121F08C1002AFAD17047704720
:1021B000002001E001C1121F002AFBD1704710B5B9
:1021C00004462046FEF7A9F910BD00000EB5002414
:1021D000FEF7ACFAFFF774FFFFF7CAFEFFF772FADB
:1021E0004FF6FF70A0238022002100900846FFF7E1
:1021F00023FA00224FF400413548FEF783FA66E0E7
:10220000002018214FF6FF724FF47843CDE90021EA
:10221000029030A20146FFF7C7FB002010214FF6C5
:10222000FF724FF47843CDE9002102902CA21E21C9
:102230001820FFF72BFE10204FF6FF714FF4784265
:102240000323CDE90021029080221E214820FFF7C0
:10225000A7FD002010214FF6FF724FF47843CDE91F
:102260000021029020A232211820FFF70FFE10203B
:102270004FF6FF714FF478420323CDE9002102901D
:10228000A02232214820FFF78BFD10204FF6FF716E
:102290004FF478420423CDE90021029022465021D8
:1022A0001420FFF72FFD2046FEF72DF80546104AB3
:1022B000104BFDF76DFF0746FEF738F804460E4851
:1022C00028231A46502100904120FFF7B2FD97E7DE
:1022D00000000240D6D0BEB0D4B0B5E7D7D30000DE
:1022E0004C43445F573A00004C43445F483A000077
:1022F000295C8FC2F528BC3F1223000810B50246A6
:10230000012000E050430B1EA1F10104E1B2F9D11C
:1023100010BDFFFFFFFFFFFFFFFFFFFFFFFFFFFFFE
:10232000FFFFFFFFFFFFFFFFFFFFFFFFFFFFFFFFBD
:10233000F7BEFFFFFFDEC6388C926B8E6B6E7C1093
:10234000AD96E73CFFFFFFFFFFFFFFFFFFFFFFFF33
:10235000FFFFFFFFFFFFFFFFFFFFFFFFFFFFFFFF8D
:10236000FFFFFFFFFFFFFFFFFFFFFFFFFFFFFFFF7D
:10237000FFFFFFFFFFFFFFFFFFFFFFFFFFFFFFFF6D
:10238000EF5D9D15634F426C320A29881946192565
:10239000214531E86B8EC638FFFFFFFFFFFFFFFFCF
:1023A000FFFFFFFFFFFFFFFFFFFFFFFFFFFFFFFF3D
:1023B000FFFFFFFFFFFFFFFFFFFFFFFFFFFFFFFF2D
:1023C000FFFFFFFFFFFFFFFFFFFFFFFFFFFFA53640
:1023D00053104B1053514B0F3A6C31E921671925BB
:1023E00010E408A30062088352CBD69AFFFFFFFFD8
:1023F000FFFFFFFFFFFFFFFFFFFFFFFFFFFFFFFFED
:10240000FFFFFFFFFFFFFFFFFFFFFFFFFFFFFFFFDC
:10241000FFFFFFFFFFFFFFFFFFFFE73C637063B3BA
:102420007CB863F54311324D29EA21881926190534
:1024300019051104110410E4008308A38C72FFFF36
:10244000FFFFFFFFFFFFFFFFFFFFFFFFFFFFFFFF9C
:10245000FFFFFFFFFFFFFFFFFFFFFFFFFFFFFFFF8C
:10246000FFFFFFFFFFFFFFFFDEDB3A4B42F06C3563
:102470004B5432B12A2E21EB21A9196719051104F9
:102480001104110411041104190510E4004273AF82
:10249000FFFFFFFFFFFFFFFFFFFFFFFFFFFFFFFF4C
:1024A000FFFFFFFFFFFFFFFFFFFFFFFFFFFFFFFF3C
:1024B000FFFFFFFFFFFFEF5D3209324C4B10328F01
:1024C0002A4F2A2E19CC1989218919471905110477
:1024D000110410C410C411041104110410E40042CA
:1024E0008431FFFFFFFFFFFFFFFFFFFFFFFFFFFF45
:1024F000FFFFFFFFFFFFFFFFFFFFFFFFFFFFFFFFEC
:10250000FFFFFFFFFFFF52EC1947324C2A0B21EC73
:1025100021EC220C5B914AEE11061926190410E4F5
:1025200010E429A7216608A319051104110410E479
:102530000082BDF7FFFFFFFFFFFFFFFFFFFFFFFF71
:10254000FFFFFFFFFFFFFFFFFFFFFFFFFFFFFFFF9B
:10255000FFFFFFFFA535088321882188218921AA53
:10256000218A426B8C71FFFF8C720883110408C4AE
:102570004229DEFBEF5D5AEC0883110411041104BB
:10258000088331E8FFDFFFFFFFFFFFFFFFFFFFFFD3
:10259000FFFFFFFFFFFFFFFFFFFFFFFFFFFFFFFF4B
:1025A000FFFFF7BE31C710C419251926194719476F
:1025B00029A8528A4A28AD55FFFF31E808A319051A
:1025C0006B4D6B4DFFFFEF7D214510C411041104CD
:1025D00011040062AD76FFFFFFFFFFFFFFFFFFFF6B
:1025E000FFFFFFFFFFFFFFFFFFFFFFFFFFFFFFFFFB
:1025F000FFFFB5960062110419041105190508C4FE
:102600004A8BB5B6EF5DBDF7FFFF6B8E00624229C6
:102610005AAA4208FFFFFFFF52CC0883110411049D
:10262000110408A352ADFFFFFFFFFFFFFFFFFFFFF5
:10263000FFFFFFFFFFFFFFFFE71CFFFFFFFFFFFFA5
:10264000FFFF634E006211041104110410E40062E4
:10265000638EFFFFFFFFFFFFFFFF73CF00019CF3BF
:10266000632CB596FFFFFFFF5B2D0083110411045F
:10267000110410E42167EF3DFFFFFFFFFFFFFFFFA5
:10268000FFFFBDF8B5B7EF9E52CB94B3FFFFFFFF3E
:10269000FFDF31E808A3110411041104110408A399
:1026A0004249F7FFF7FFFFFFFFFF4A6A000184720C
:1026B000FFFFFFFFF7FFEFDF3A0908A31104110442
:1026C000110411041105BE18FFFFFFFFFFFFFFFFFC
:1026D000FFFF7BF0006231E831C70041A535FFFF05
:1026E000EF5D214610C4110411041104110410E41B
:1026F00008A39D76F7FFFFFFADB708A308A331C776
:10270000E79EF7FFF7FFA57608A310E41104110474
:10271000110411051105A535FFFFFFFFFFFFFFFFA6
:10272000FFFFDEDB29A7008310C410C410C4E71C20
:10273000EF9E110510E41104110411041104190491
:1027400008C410E56BD16BD108C5006408A500432F
:10275000322B9D7784B3192510C411041104110480
:102760001104192509269D35FFFFFFFFFFFFFFFF1D
:10277000FFFFFFFF73AF00621904190500825B0DB4
:102780009B8E1062110511041104190410E40085D8
:10279000110539C45A817B409C22AC43A4039B831E
:1027A0007282498218C200A400C510E41904110401
:1027B0001905194711675AECFFBEFFFFFFFFFFFF26
:1027C000FFFFFFDFDEDB10C410E41104110518A4C5
:1027D000C001888300E41905190408C52144834316
:1027E000D523FE42FEE4FF27FF07FEA4FE64FE039E
:1027F000FDA3FCE2EC42B383622410E508C4190493
:10280000192619A821879000BCD3FFFFFFFFFFFF07
:10281000FFFFFFDFFFFF7C10004219051105288331
:10282000D001F84448A300E408C55A44ED02FDE293
:10283000FE02FE66FF74FFB8FF73F6E7F6A6F645E4
:10284000F5A4FCC3FC62FCC2FCC2CBE349C4110684
:102850001988018790A4F8019AECFFFFFFFFFFFFA2
:10286000FFFFFFFFFFFFF7BE31E80083090540824D
:10287000C001F823F08548A300A45A44FD02CC23EC
:10288000DCC2FE04FE28F648F646F624F5E4FD64B4
:10289000FCE3FC62FCC2E402DC02FCE27AA4014834
:1028A000016778C4F824F802B084E77DFFFFFFFFDA
:1028B000FFFFFFFFFFFFFFFFDEDB192500A338C48A
:1028C000E002D822F844F8A678A40063214372837A
:1028D00039839B82F521FD61FD22FCE2FCA2FC42D2
:1028E000FC42FC42AB22418392C3520401261925CB
:1028F00098A4F844F823F802D0A4EF9EFFFFFFFF4E
:10290000FFFFFFFFFFFFFFFFFFFFD69A298700A50C
:10291000B843F822E023F865F8E8C9074883004285
:1029200000A3008429637AA2B362CBA2D362BB0264
:102930008A82398300A400E500E508E560C4D86414
:10294000F844F824F823F8028883C6DBFFFFFFFF72
:10295000FFFFFFFFFFFFFFFFFFFFFFFFE73D5B50B4
:102960003108E823F843F044F865F909F9ABD18957
:10297000890648A3184200020042006100820062FA
:102980000062008320A350C488A5D885F865F84468
:10299000F844F823F823D003108229C7EF5DFFFF26
:1029A000FFFFFFFFFFFFFFFFFFFFFFFFFFFFFFFF37
:1029B000326C38A5D802F823F865F866F8A7F94A0A
:1029C000FA0CFA4DEA4CD20BB9A9B168A947B12764
:1029D000B907D107E8E7F8C7F8A7F865F865F8443C
:1029E000F823F803D00228A3090508C45AECFFFF16
:1029F000FFFFFFFFFFFFFFFFFFFFFFFFFFFFDEFB0C
:102A0000190500C441A7C0E6F803F886F8A7F887BF
:102A1000F886F8C7F929F98AF9ABF9ABF98BF96AA5
:102A2000F929F908F8C7F8A6F886F865F864F823D4
:102A3000F002B106292500E410E4192519259D149A
:102A4000FFFFFFFFFFFFFFFFFFFFFFFFFFFFAD9651
:102A5000006208829535CEBAA28BD044F825F8875B
:102A6000F8A7F8C7F8A7F887F886F886F886F887F1
:102A7000F8A7F8A7F8A6F885F865F864F024B86414
:102A8000930DB6BB63CF0883110410E421663A4965
:102A9000EF5DFFFFFFFFFFFFFFFFFFFFFFFF94D38F
:102AA000004210E4CEBBFFFFE7BEB576AACCC1075B
:102AB000E045F845F846F866F886F886F886F88620
:102AC000F865F845F865E865D044A8438801908228
:102AD000D73CEFFF955508831104110419051946D9
:102AE00094B3FFFFFFFFFFFFFFFFFFFFFFFF94B364
:102AF00000412186DF5DFFFFFFFFFFFFE7DFC67AB2
:102B0000B4D3B34EC22AD168E0E6E8A6E8A5E8A5AA
:102B1000D8E6C988A906A822A802A000C800D80043
:102B2000E5F7E7FFADF810C410E4110410E4110557
:102B30004A8BFFFFFFFFFFFFFFFFFFFFFFFFA555D2
:102B4000004129A7DF5DF7FFFFFFFFFFFFFFFFFF4A
:102B5000FFFFEFFFDF7DCEDBCE59CDF8CDD7C5F738
:102B6000CE79BEFBA2ABF003F845D042E843F000BB
:102B7000D472DFFFAE3910E410E4110410E4110543
:102B80002987FFFFFFFFFFFFFFFFFFFFFFFFCE597A
:102B900008832146D71CF7FFFFFFFFFFFFFFFFFF62
:102BA000FFFFFFFFFFFFFFFFFFFFFFFFFFFFFFFF35
:102BB000FFFFEFFFBA8BF804F845E062F044F8003D
:102BC000DB8EDFFFA5F810C410E410E4110410E45C
:102BD0001925FFFFFFFFFFFFFFFFFFFFFFFFF7BE0E
:102BE00029870883B639F7FFF7DFFFFFFFFFFFFFF5
:102BF000FFFFFFFFFFFFFFFFFFFFFFFFFFFFFFFFE5
:102C0000FFFFE7BEBA4AF803F845F864F844F80055
:102C1000E36ED7FF8CF40883110410E410E410E491
:102C20001905FFFFFFFFFFFFFFFFFFFFFFFFFFFF94
:102C300073EF00008472EFFFEFBEFFDFFFFFFFFFC7
:102C4000FFFFFFFFFFFFFFFFFFFFFFFFFFFFFFFF94
:102C5000FFFFE7DFBA8BF803F845F845F823F800E3
:102C6000D4D3D7FF5B4E00213A29A555088310C461
:102C70001925FFFFFFFFFFFFFFFFFFFFFFFFFFFF24
:102C8000DEFB08A331E8DF9EE79EEFBFFFFFFFFFFB
:102C9000FFFFFFFFFFFFFFFFFFFFFFFFFFFFFFFF44
:102CA000FFFFF7FFBC51E002F803F003E043C2EC82
:102CB000CF7EBEFC2146002194D3FFFF845100004B
:102CC0002987FFFFFFFFFFFFFFFFFFFFFFFFFFFF62
:102CD000FFFF845100008CF4EFFFE79EEFBFFFDFA2
:102CE000FFFFFFFFFFFFFFFFFFFFFFFFFFFFFFFFF4
:102CF000FFFFFFFFDF3DBD55BC52BC72B5B7C75DDE
:102D0000DFFF6BF000003A09F7BFFFFFFFFF9D14E4
:102D1000A555FFFFFFFFFFFFFFFFFFFFFFFFFFFFC7
:102D2000FFFFFFFF4AAC08A4BEBBE7DFE77EEFBEB4
:102D3000F7DFFFDFFFFFFFFFFFFFFFFFFFFFFFFFEB
:102D4000FFFFFFDFF7DFEFFFDFDFD7BFD79EDFDF5C
:102D5000A5D808831126D6DBFFFFFFFFFFFFFFFF8B
:102D6000FFFFFFFFFFFFFFFFFFFFFFFFFFFFFFFF73
:102D7000FFFFEE79DC8B312121A9CF3DDFBFDF7E64
:102D8000E79EEFBEEFBFF7DFF7DFF7DFF7DFF7DF35
:102D9000EFBFEFBEE79EDF7ED75ED75EDFDFB69A7E
:102DA00019260842A3EDFFBFFFFFFFFFFFFFFFFF54
:102DB000FFFFFFFFFFFFFFFFFFFFFFFFFFFFFFFF23
:102DC000DD74DBC0FE00EE4242022189B67BDFDF0C
:102DD000D77EDF7EDF7EE79EE79EE79EE79EE79E4B
:102DE000DF7EDF7ED75DD75DDF9EE7FFA5F81107A9
:102DF00018E3C502FD60D3E6EEDBFFFFFFFFFFFF38
:102E0000FFFFFFFFFFFFFFFFFFFFFFFFFFFFF79E3B
:102E1000BA84FCC1FE42FE82FEA283812145747405
:102E2000C75EDFDFD77ED75ED75DD75ED75ED75D63
:102E3000D75DD75EDF9EE7FFC73D63F1088452424E
:102E4000E626FF29FE86F3E0C36AFFFFFFFFFFFFD0
:102E5000FFFFFFFFFFFFFFFFFFFFFFFFFFFFDE188A
:102E6000D2C1FDA2FE22FE42FE42FE62D4E26A41CF
:102E700042497453A63BC73ED7BFD7BFD7BFDFBFBA
:102E8000D7BFC73EA61A63F229A74182B422FE62C9
:102E9000FE83FEAAFF0FFD67BA63EF3CFFFFFFFF53
:102EA000FFFFFFFFFFFFFFFFFFFFFFFFFFFFE69AB0
:102EB000D280FD21FDC2F5E2F5C2F582FD82FD6200
:102EC000DC619B216A846AE9632C63AF7411636ED1
:102ED000632C5A8952047A81CBC2FCE2FD62FD82E6
:102EE000FDC2FDC2FDE4FD24CA62E71CFFFFFFFF37
:102EF000FFFFFFFFFFFFFFFFFFFFFFFFFFFFFFFFE2
:102F0000CCB1D281F3C0FCC1FD02FD02FCE2FCC2E7
:102F1000FCC2FC81FB80C9C081A4AD35CE599C7137
:102F20008121DA00FBA1FC82FCA2FC82FCA2FD0252
:102F3000FD22FCE2FC00DA60CC90FFFFFFFFFFFF08
:102F4000FFFFFFFFFFFFFFFFFFFFFFFFFFFFFFFF91
:102F5000FFFFDE59C40DCB06D2E4DB03DB03DAE36B
:102F6000D2C3C2A4B309BCD2F79EFFFFFFFFFFFF8D
:102F7000E6FBB40EBAA6D283E2E3EB02EB22E32235
:102F8000DB03D2E4C36AD5B6FFFFFFFFFFFFFFFFFD
:102F9000FFFF030406080C1018203000000000009A
:102FA00000000001020304060708090000000001F8
:102FB0000203040000000000000000000000000008
:102FC00000000000000008080808080808000018B1
:102FD00018000000486C24120000000000000000EF
:102FE0000000000000002424247F1212127F12121D
:102FF0001200000000081C2A2A0A0C1828282A2A75
:103000001C080800000022251515152A5854545490
:103010002200000000000C1212120A7625291191DC
:103020006E0000000606040300000000000000001F
:1030300000000000402010100808080808081010C0
:10304000204000000204080810101010101008089A
:103050000402000000000008086B1C1C6B0808003C
:1030600000000000000000080808087F08080808A1
:10307000000000000000000000000000000000064A
:103080000604030000000000000000FE0000000035
:10309000000000000000000000000000000000062A
:1030A00006000000008040402020101008080404A2
:1030B00002020000000018244242424242424224DE
:1030C000180000000000080E080808080808080892
:1030D0003E00000000003C42424220201008044212
:1030E0007E00000000003C42422018204040422266
:1030F0001C0000000000203028242422227E2020F2
:103100007800000000007E0202021A26404042229F
:103110001C0000000000382402021A264242422409
:103120001800000000007E2222101008080808087D
:103130000800000000003C4242422418244242425F
:103140003C000000000018244242426458404024E1
:103150001C0000000000000000181800000000180B
:10316000180000000000000000000800000000003F
:103170000808040000004020100804020408102081
:103180004000000000000000007F0000007F000001
:103190000000000000000204081020402010080475
:1031A0000200000000003C4242464020101000187F
:1031B0001800000000001C225A555555552D42227A
:1031C0001C00000000000808181414243C2242428D
:1031D000E700000000001F2222221E22424242225B
:1031E0001F00000000007C42420101010101422257
:1031F0001C00000000001F22424242424242422282
:103200001F00000000003F4212121E121202424232
:103210003F00000000003F4212121E121202020282
:103220000700000000003C2222010101712122223E
:103230001C0000000000E7424242427E42424242FD
:10324000E700000000003E08080808080808080811
:103250003E00000000007C10101010101010101024
:1032600010110F0000007722120A0E0A12122222F9
:10327000770000000000070202020202020202427E
:103280007F000000000077363636362A2A2A2A2A9E
:103290006B0000000000E346464A4A525252626206
:1032A0004700000000001C224141414141414122B0
:1032B0001C00000000003F424242423E0202020265
:1032C0000700000000001C2241414141414D5332A2
:1032D0001C60000000003F4242423E121222224285
:1032E000C700000000007C42420204182040424215
:1032F0003E00000000007F49080808080808080888
:103300001C0000000000E742424242424242424268
:103310003C0000000000E742422224241414180854
:103320000800000000006B494949495555362222E2
:10333000220000000000E742242418181824244228
:10334000E70000000000772222141408080808088B
:103350001C00000000007E212010100804044242DE
:103360003F0000007808080808080808080808084E
:103370000878000000020204040808081010202049
:10338000204040001E1010101010101010101010CF
:10339000101E000038440000000000000000000083
:1033A000000000000000000000000000000000001D
:1033B0000000FF0006080000000000000000000000
:1033C000000000000000000000003C42784442423F
:1033D000FC0000000000030202021A2642424226BC
:1033E0001A000000000000000000384402020244FD
:1033F000380000000000604040407844424242648F
:10340000D80000000000000000003C427E020242A2
:103410003C0000000000F08808087E080808080842
:103420003E0000000000000000007C22221C023C44
:1034300042423C000000030202023A46424242423B
:10344000E700000000000C0C00000E080808080847
:103450003E000000000030300000382020202020F6
:1034600020221E0000000302020272120A1612221B
:103470007700000000000E0808080808080808087F
:103480003E0000000000000000007F9292929292A5
:10349000B70000000000000000003B4642424242EC
:1034A000E70000000000000000003C4242424242AF
:1034B0003C0000000000000000001B2642424222A7
:1034C0001E0207000000000000007844424242440F
:1034D0007840E000000000000000774C0404040481
:1034E0001F0000000000000000007C42023C40423F
:1034F0003E0000000000000008083E080808080818
:1035000030000000000000000000634242424262BE
:10351000DC000000000000000000E7422424140842
:1035200008000000000000000000EB49495555224A
:103530002200000000000000000076241818182463
:103540006E000000000000000000E7422424141870
:10355000080807000000000000007E221008084450
:103560007E000000C02020202020102020202020CD
:1035700020C000101010101010101010101010109B
:1035800010101000060808080808100808080808A5
:103590000806000C32C2000000000000000000001D
:1035A000000000000000000000000000000000001B
:1035B000000000000000000000000000000000000B
:1035C00000000000000000000000000000000000FB
:1035D00000000000000000000000000000000000EB
:1035E00000000000000000000000000000C001C05A
:1035F00001C001C001C001C001C001800080008085
:1036000000800080008000800000000000000000BA
:10361000008001C003C00380010000000000000022
:10362000000000000000000000E01CE01CF01E7024
:103630000E38071803080184000000000000000095
:10364000000000000000000000000000000000007A
:10365000000000000000000000000000000000006A
:10366000000000000000000000000000000000203A
:10367000102010201020102010FE7FFE7F10081058
:103680000810081008100810081008FE7FFE7F08B8
:1036900004080408040804080400000000000000F6
:1036A000000000000000000000000000010001C058
:1036B000076019103118311839183938017001E0D4
:1036C00001C0038007000F001D003900311C311CB0
:1036D000310C310C11180DE0070001000100010050
:1036E0000000000000000000000000000000001CBE
:1036F0001036186308630C63046304630263026397
:1037000001361D9C37802280634063406320632024
:1037100063306310221836081C000000000000000F
:10372000000000000000000000000000000000F0A9
:103730000098018C018C018C018C018C00CC0078EC
:1037400000183E1C083608320863046304C304C32F
:1037500003834306438E26781C000000000000000F
:103760000000000000000000001C003C003C003095
:1037700000300010000C00060000000000000000F7
:103780000000000000000000000000000000000039
:103790000000000000000000000000000000000029
:1037A00000000000000000000000400020001000A9
:1037B00008000C00040006000300030003800180E1
:1037C00001800180018001800180018001000300EF
:1037D00003000300060006000C0008001000200093
:1037E000400000000000000000020004000800107B
:1037F00000300020006000C000C000C000800180D8
:1038000001800180018001800180018001C000C031
:1038100000C00060006000300010000800040002DA
:103820000000000000000000000000000000000098
:1038300000000000018003800300011C713C7978C6
:103840003DC0070001C007783D3C791C7100018034
:103850000380038001000000000000000000000061
:103860000000000000000000000000000000000058
:103870000000000000000100010001000100010043
:10388000010001FC7F0001000100010001000100B6
:103890000100010000000000000000000000000026
:1038A0000000000000000000000000000000000018
:1038B0000000000000000000000000000000000008
:1038C00000000000000000000000000000000000F8
:1038D0000000001C003C003C003000300010000CD8
:1038E00000060000000000000000000000000000D2
:1038F00000000000000000000000000000000000C8
:10390000000000FE7F00000000000000000000003A
:1039100000000000000000000000000000000000A7
:103920000000000000000000000000000000000097
:103930000000000000000000000000000000000087
:103940000000000000000000000000000000000077
:103950000018003C003C00180000000000000000BF
:103960000000000000000000000040006000200097
:1039700030001000180008000C00040006000200CF
:1039800003000180018000C0004000600020003082
:10399000001000180008000C0004000600020000DF
:1039A000000000000000000000000000000000C057
:1039B00007600C30181830183018200C600C600CA0
:1039C000600C600C600C600C600C600C60182018BF
:1039D0003018303018600CC00700000000000000F4
:1039E00000000000000000000000000000000000D7
:1039F000018001F801800180018001800180018047
:103A000001800180018001800180018001800180AE
:103A10000180018001C003F81F00000000000000C9
:103A2000000000000000000000000000000000E0B6
:103A300007101C0818043004300C300C3000300023
:103A4000180008000400020001800040002020103F
:103A50002008200430FC1FFC1F00000000000000B4
:103A6000000000000000000000000000000000E076
:103A700003180E0C0C0C180C180C180018000C0075
:103A800006C003000E00180010003000300C300C8F
:103A9000300C100C18180CE00300000000000000AF
:103AA0000000000000000000000000000000000016
:103AB0000C000E000E000F800E800E400E600E20D7
:103AC0000E100E100E080E040E040EFE7F000E00E7
:103AD0000E000E000E000E000EC07F000000000061
:103AE000000000000000000000000000000000F0E6
:103AF0003FF03F10001000100008000800C8072821
:103B00000C1818081000300030003000300C300C59
:103B10003004180418080CF0030000000000000036
:103B20000000000000000000000000000000008015
:103B30000FC010203010301800180008000C008C46
:103B40000F6C183C301C600C600C600C600C601832
:103B500060182030306018C007000000000000002E
:103B6000000000000000000000000000000000F85D
:103B70003FF83F1C100C0804080404000400020075
:103B800002000100010001800080008000C000C030
:103B900000C000C000C000C0000000000000000025
:103BA000000000000000000000000000000000E035
:103BB00007300C18180C300C300C301C30381870D2
:103BC00008E007B007180E0C1C0638063006300651
:103BD0003006300C18180CE0030000000000000054
:103BE000000000000000000000000000000000E0F5
:103BF0000318040C080C18061006300630063006B0
:103C00003006380C3C1836F031003000180018002F
:103C1000180C0C0C060C03F0010000000000000062
:103C20000000000000000000000000000000000094
:103C3000000000000000000000000000008001C043
:103C400003C003800100000000000000000000002D
:103C5000008001C003C003800100000000000000DC
:103C60000000000000000000000000000000000054
:103C700000000000000000000000000000C000C0C4
:103C80000000000000000000000000000000000034
:103C90000000000000C000C0008000800040004024
:103CA00000000000000000000000000000002000F4
:103CB0001000080004000600038001C0006000300E
:103CC0000018000C00180030006000C000800100E7
:103CD000030006000400080010002000000000009F
:103CE00000000000000000000000000000000000D4
:103CF00000000000000000000000000000FE7F0047
:103D0000000000000000000000FE7F000000000036
:103D100000000000000000000000000000000000A3
:103D20000000000000000000000000000004000887
:103D300000100020006000C00080010003000600A9
:103D40000C001800300018000C000600038001C0B1
:103D500000600020001000080004000000000000C7
:103D600000000000000000000000000000C007305C
:103D700018083008600C601C601C601C600030007B
:103D80001C00060001800080008000800000000010
:103D9000008001C003C0038001000000000000009B
:103DA000000000000000000000000000000000C053
:103DB000076018103018200C2F8C4D864CC64CC64E
:103DC0004C664C66446644662666266615CC1C0C1A
:103DD00040082018303018C0070000000000000024
:103DE000000000000000000000000000000001C012
:103DF00001C001C001400160032003200320033003
:103E000006100610061006F80F080C080C080C0C1B
:103E10000C0418041806181F7C00000000000000A5
:103E2000000000000000000000000000000000FE94
:103E300007181C183818301830183018301818188F
:103E40000CF8071818183018201860186018601837
:103E500060186018301818FE0F0000000000000005
:103E6000000000000000000000000000000000C092
:103E7000276038103018200C400C40040006000663
:103E8000000600060006000600060006000C400CB6
:103E9000400C2018303018C007000000000000005F
:103EA000000000000000000000000000000000FE14
:103EB00003180E18181830183018301860186018C9
:103EC0006018601860186018601860186018301862
:103ED0003018101818180EFE030000000000000033
:103EE000000000000000000000000000000000FED4
:103EF0003F183018201860184018001808180818C3
:103F00000CF80F180C1808180818001800180018DA
:103F100040184018201830FE3F000000000000004C
:103F2000000000000000000000000000000000FE93
:103F30007F1870184018C018801800181018101832
:103F400018F81F1818181018101800180018001862
:103F5000001800180018007E00000000000000009B
:103F6000000000000000000000000000000000C091
:103F700013701C101018100C200C200400060006F2
:103F80000006000600060006FC063006300C300C69
:103F900030183018303008C0070000000000000062
:103FA0000000000000000000000000000000003FD2
:103FB0007E0C180C180C180C180C180C180C180C7B
:103FC000180C18FC1F0C180C180C180C180C180CDA
:103FD000180C180C180C183F7E00000000000000A0
:103FE000000000000000000000000000000000F8D9
:103FF0001F8001800180018001800180018001809B
:1040000001800180018001800180018001800180A8
:1040100001800180018001F81F0000000000000005
:10402000000000000000000000000000000000E0B0
:104030007F000600060006000600060006000600D7
:104040000600060006000600060006000600060040
:1040500006000600060006000600060E060E038E89
:1040600001FC000000000000000000000000007ED5
:104070007C181818081804180618021801980198D6
:1040800001D801B803380318071806180E180C18C1
:104090001C1818183018307EFC00000000000000CA
:1040A0000000000000000000000000000000007E92
:1040B0000018001800180018001800180018001840
:1040C0000018001800180018001800180018001830
:1040D00040184018201830FE3F000000000000008B
:1040E0000000000000000000000000000000001FB1
:1040F000F81C381C381C381C3C3434343434343408
:104100003674326432643264326431C431C431C4CE
:1041100031C430C43084309FFC0000000000000037
:104120000000000000000000000000000000001F70
:104130007C1C103C103410341074106410E410C453
:1041400010C41184118413041304170416041E04EC
:104150001C041C041C04181F1800000000000000B0
:10416000000000000000000000000000000000C08F
:1041700003300C181808100C300C3006600660066E
:10418000600660066006600660066006600C200C33
:104190003008101818300CC00300000000000000A8
:1041A000000000000000000000000000000000FE11
:1041B0000F18181830186018601860186018601808
:1041C000301818F80F1800180018001800180018F8
:1041D000001800180018007E000000000000000019
:1041E000000000000000000000000000000000C00F
:1041F00003300C18180C100C300C200660066006FA
:1042000060066006600660066006600660E4612C79
:10421000331C321816300EC007004C007C003800EA
:10422000000000000000000000000000000000FE90
:1042300007181C183818301830183018301818188B
:104240000CF80798031803180718061806180E1814
:104250000C180C181C18187E7800000000000000D4
:10426000000000000000000000000000000000E06E
:1042700027303818300C200C200C000C0018007867
:1042800000E003800F001E0038007000600460042E
:1042900060086018303818C80F00000000000000E7
:1042A000000000000000000000000000000000FC12
:1042B0003F8C2184618241824180018001800180A4
:1042C00001800180018001800180018001800180E6
:1042D00001800180018001E0070000000000000073
:1042E0000000000000000000000000000000003F8F
:1042F0007C0C100C100C100C100C100C100C100C72
:10430000100C100C100C100C100C100C100C100CCD
:10431000100C1008083804E0030000000000000042
:104320000000000000000000000000000000003E4F
:10433000F81820182018203010301030103010607D
:104340000860086008E00CC004C004C0048003805A
:104350000380038003000100010000000000000052
:10436000000000000000000000000000000000DF6E
:10437000F38661862186218C210C218C238C138C61
:10438000138C134C1358125816580E380E380E381A
:104390000E300C1004100410040000000000000097
:1043A0000000000000000000000000000000007E8F
:1043B0003E180838083004300470026002E001C082
:1043C00001C0018001800340034007200620061041
:1043D0000C100C081808183E7C00000000000000BB
:1043E0000000000000000000000000000000007E4F
:1043F0007C1C10181018083008300C700460046021
:1044000002C002C002C001800180018001800180E1
:1044100001800180018001E0070000000000000031
:10442000000000000000000000000000000000F894
:104430003F18180818040C040E000600070003803B
:10444000038001C001C000E000600070003000384F
:104450002018201C100C18FE1F0000000000000097
:10446000000000000000000000C03F40004000408D
:10447000004000400040004000400040004000403C
:10448000004000400040004000400040004000402C
:1044900000400040004000400040004000C03F009D
:1044A00000000000000000000000000000080018EC
:1044B000001800100030002000600060004000C0C4
:1044C000008000800180010001000300020006005E
:1044D000060004000C00080018001800100030004E
:1044E000200000000000000000FC030002000200A9
:1044F00002000200020002000200020002000200AC
:10450000020002000200020002000200020002009B
:1045100002000200020002000200020002FC03008E
:104520000000000000000000008007C00620081006
:10453000100000000000000000000000000000006B
:10454000000000000000000000000000000000006B
:10455000000000000000000000000000000000005B
:10456000000000000000000000000000000000004B
:10457000000000000000000000000000000000003B
:10458000000000000000000000000000000000002B
:10459000000000000000000000000000000000001B
:1045A00000FFFF0000000000007800C000000100D4
:1045B00000000000000000000000000000000000FB
:1045C00000000000000000000000000000000000EB
:1045D00000000000000000000000000000000000DB
:1045E00000000000000000000000000000000000CB
:1045F00000000000000000000000000000F00318B0
:10460000060C0C0C0C000C800F700C1C0C0C0C0617
:104610000C060C064C0C4FF838000000000000009F
:104620000000000000000000000000000010001E5C
:1046300000180018001800180018001800180FD8EB
:1046400018383038601860186018601860186018E2
:1046500060182038307818C80700000000000000FB
:10466000000000000000000000000000000000004A
:1046700000000000000000000000000000C0077003
:104680000C181818180C180C000C000C000C000C5E
:1046900020182018103008C007000000000000009B
:1046A00000000000000000000000000000001000FA
:1046B0001E001800180018001800180018E01B3021
:1046C0001C181818180C180C180C180C180C180CAE
:1046D000180818181C307AE00900000000000000DB
:1046E00000000000000000000000000000000000CA
:1046F00000000000000000000000000000C00730C3
:104700000C181808100C300C30FC3F0C000C000C7E
:1047100000182018107018C00700000000000000EA
:104720000000000000000000000000000000000089
:104730003E80C380C0C0C0C000C000C000FC1FC01D
:1047400000C000C000C000C000C000C000C000C069
:1047500000C000C000C000F80F0000000000000012
:104760000000000000000000000000000000000049
:1047700000000000000000000000000000C07730D2
:104780006C10181818181818181018300CF0071892
:10479000001800F00FF03F08700C600C600C6038DF
:1047A00038E00F0000000000000000000010001EB4
:1047B00000180018001800180018001800980FD8EA
:1047C00018383018301830183018301830183018A1
:1047D000301830183018307EFC0000000000000057
:1047E0000000000000000000000000000000008049
:1047F00003800380030000000000000001F8018036
:1048000001800180018001800180018001800180A0
:1048100001800180018001F81F00000000000000FD
:104820000000000000000000000000000000000088
:1048300038003800380000000000000010801F0021
:1048400018001800180018001800180018001800A8
:1048500018001800180018001800180018180C1874
:1048600006F0030000000000000000000010001E21
:1048700000180018001800180018001800183E183A
:104880000C1806180318019801D8013803180718E6
:1048900006180C181C18187E7C0000000000000090
:1048A000000000000000000000000000000001F80F
:1048B00001800180018001800180018001800180F0
:1048C00001800180018001800180018001800180E0
:1048D00001800180018001F81F000000000000003D
:1048E00000000000000000000000000000000000C8
:1048F00000000000000000000000000800EE1C9C0A
:10490000338C318C318C318C318C318C318C318CBD
:10491000318C318C318C31DE7B00000000000000D6
:104920000000000000000000000000000000000087
:10493000000000000000000000000010001E0FD862
:10494000183830183018301830183018301830181F
:10495000301830183018307EFC00000000000000D5
:104960000000000000000000000000000000000047
:1049700000000000000000000000000000C0077000
:104980001C103018300C600C600C600C600C600C5B
:1049900060183018303018C0070000000000000018
:1049A0000000000000000000000000000000000007
:1049B000000000000000000000000010009E0F58E2
:1049C00018383018201860186018601860186018BF
:1049D0006018303830781898071800180018001838
:1049E000007E000000000000000000000000000049
:1049F00000000000000000000000000000C02330A4
:104A00003C183818300C300C300C300C300C300C9A
:104A10003008301838303CE03300300030003000CF
:104A20003000FC000000000000000000000000005A
:104A3000000000000000000000000060007E3C60FC
:104A4000666061E000E0006000600060006000609F
:104A500000600060006000FE070000000000000031
:104A60000000000000000000000000000000000046
:104A700000000000000000000000000000E02730FF
:104A8000381830182018007000E003800F001C0454
:104A90003004300C301C18EC0F0000000000000047
:104AA0000000000000000000000000000000000006
:104AB000000000800080008000C000E000FC1FC0FB
:104AC00000C000C000C000C000C000C000C000C0E6
:104AD00000C020C0208011000F0000000000000076
:104AE00000000000000000000000000000000000C6
:104AF000000000000000000000000010201E3C1814
:104B00003018301830183018301830183018301865
:104B1000301830183830F4E01300000000000000B6
:104B20000000000000000000000000000000000085
:104B3000000000000000000000000000007E3C18A3
:104B4000181808380830043004700260026002E06F
:104B500001C001C001C00080000000000000000092
:104B60000000000000000000000000000000000045
:104B700000000000000000000000000000DFF78ED1
:104B8000630C238C238C2398139813581658167093
:104B90000E700E700E2004200400000000000000C3
:104BA0000000000000000000000000000000000005
:104BB00000000000000000000000000000FC3E704B
:104BC000087004E004C002C0018003800340076055
:104BD00006200C100C18183E7E000000000000009B
:104BE00000000000000000000000000000000000C5
:104BF000000000000000000000000000007E7C18A3
:104C000018180830083008300460046004C002C07E
:104C100002C0028001800180018000800080004C81
:104C2000003C000000000000000000000000000048
:104C300000000000000000000000000000FC1F0C4D
:104C40000C040E0406000380038001C000E0007025
:104C500020302038301C18FC1F000000000000002D
:104C60000000000000000000000030000800040008
:104C70000400040004000400040004000400040014
:104C8000040002800100020004000400040004008B
:104C900004000400040004000400040004000800F0
:104CA00030000000010001000100010001000100CE
:104CB00001000100010001000100010001000100EC
:104CC00001000100010001000100010001000100DC
:104CD00001000100010001000100010001000100CC
:104CE0000100010000000000000C00100020002066
:104CF00000200020002000200020002000200020B4
:104D00000040008001400020002000200020002002
:104D10000020002000200020002000200010000CB7
:104D200000000000003800C400864002610022003C
:104D30001C00000000000000000000000000000057
:104D40000000000000000000000000000000000063
:104D50000000000000000000000000000000000053
:104D6000000000D6D08000800080008000FC1F84FE
:104D7000108410841084108410FC1F841080008024
:104D80000080008000BEB0F80F0808F80F0808F88F
:104D90000F8000FF7F0000F80F08080808F80F8058
:104DA000008410A2204000D4B00000FE3F0220F298
:104DB0002702200220FA2F22212221222112291249
:104DC000290A2E0220FE3F0220B5E78000800080E5
:104DD00000FC1F841084108410FC1F841084108435
:104DE00010FC1F845080408040007FD7D30000FE1D
:104DF0001F00080004000280018000FF7F80008007
:104E0000008000800080008000A0004000D6D0001C
:104E10000000000000001800000800000800000862
:104E200000080818F8FF1F1808181808181808189C
:104E3000180818180818180818F8FF1F080808009C
:104E40000800000800000800000800001800001812
:104E500000001800000000BEB0000000000000408C
:104E60000006C0FF07400006C0FF07400006C0FF65
:104E700007400802003000FEFF3F000000C0FF07AF
:104E8000C00002C00002C00002C0FF03801000800A
:104E9000110160100E3010180C1E30001C000000B4
:104EA00000D4B0000000000000080030F8FF1F0828
:104EB000001008C010083F1008001008001008007B
:104EC00013C8FF1008221008221008221008221010
:104ED00008211208211488601648C0132800100801
:104EE0000010F8FF1F080010000000B5E7000000E8
:104EF000000000001800000800000800000800F092
:104F0000FF0F100804100804100804100804F0FF34
:104F100007100804100804100804100804F0FF0724
:104F200010080000081000081000082000183000C9
:104F3000F01F000000D7D3000000000000000004B4
:104F4000F0FF0F00000600000100C0000028000074
:104F50001800001800001830FEFF7F00180000182D
:104F600000001800001800001800001800001800C9
:104F7000001800001800001F00000C00000000D600
:104F8000D000000000000000000080000000800150
:104F9000000080010000800100008001000080010D
:104FA000001080010CF0FFFF0F3080010430800101
:104FB000043080010430800104308001043080011D
:104FC000043080010430800104F0FFFF07308001CD
:104FD0000430800104008001000080010000800195
:104FE00000008001000080010000800100008001BD
:104FF000000080010000800100008000000000002F
:1050000000BEB00000000000000000000000000032
:1050100001800100FFFF0100038001000380010007
:10502000FFFF01000380010003800100FFFF01007A
:10503000818100000003000000031CFCFFFF3F0013
:105040000040000003C00100FFFF010003C000009A
:1050500003C0000003C00000FFFF0000014100008A
:10506000040100000E71000007810180010107604A
:1050700000010E1898011C04E0011800C000000097
:10508000000000D4B000000000000000000000009C
:1050900008F0FFFF1F3000000C3000000C30001043
:1050A0000C30FE3F0C3004000C3000000C300000CF
:1050B0000C3000000C3000C00CF0FFFF0D3030064B
:1050C0000E3030060C3010060C3010060C30100676
:1050D0000C3018860C3018860C3008060D300C8603
:1050E0000D3006EE0F3002FC0D3001000CF0000018
:1050F0000C3000000CF0FFFF0F3000000C1000001F
:105100000400000000B5E7000000000000000000FF
:10511000C0000000C0010000C0000000C00000008E
:10512000C0000000C00000E0FFFF0360C00003609B
:10513000C0000360C0000360C0000360C0000360E3
:10514000C00003E0FFFF0360C0000360C000036015
:10515000C0000360C0000360C00003E0FFFF036005
:10516000C0000160C0000000C0000800C0001000C6
:10517000C0001000C0001800C001380080FF1F00F0
:1051800000000000000000D7D30000000000000075
:10519000000000000000000003C0FFFF07000080C7
:1051A000070000C000000060000000180000000CB4
:1051B00000008003000080030000800100008001E7
:1051C000080080011CFCFFFF3F00800100008001FF
:1051D00000008001000080010000800100008001CB
:1051E00000008001000080010000800100008001BB
:1051F00000008001000080010000FC010000E000D0
:105200000000400000000000000000002C520008D8
:105210000000002008000000A0210008345200080F
:105220000800002000040000B021000868FF1F00F3
:04523000000000007A
:04000005080000F5FA
:00000001FF
