:020000040800F2
:10000000480D0020E10000082D1400088D0C0008A8
:1000100000000000000000000000000000000000E0
:10002000000000000000000000000000891400082B
:1000300000000000000000002F140008BD1400089C
:10004000F3000008F3000008F3000008F3000008C4
:10005000F3000008F3000008F3000008C50A0008D8
:1000600000000000950A0008F3000008F3000008F3
:10007000F3000008F3000008F3000008000000008F
:100080007D290008F300000800000000F3000008CC
:10009000F3000008F3000008F3000008F300000874
:1000A000F3000008F3000008F3000008F300000864
:1000B000F300000800000000000000000000000045
:1000C000F300000800000000F30000080348854624
:1000D00000F0C8FB00480047E5360008480D002046
:1000E0000448804704480047FEE7FEE7FEE7FEE7D6
:1000F000FEE7FEE7C1140008CD000008F8B502468F
:100100004A40D40F42004B0052085B089A4202D288
:100110000246084611464A0023D0C30D4A00DDB20C
:10012000120EAD1A202D35DA49020126490AF605CC
:100130008A19002C00D0524220214F1B1146B94091
:100140002A411018C20D9A4221D0002C17D0012D3F
:1001500008DCDA05801AD20F8019D207DBB200F072
:1001600082F9F8BDDA05801A012340001B06C01889
:1001700080185A428018CA0F1043490007E0490806
:10018000C2071143DA05801A80194008801800F070
:1001900062F9F8BD61000122511A001BF7E7012244
:1001A000D2075140AAE70122D2075040A6E70246F3
:1001B00070B54A40D30FDB0740002DD04A002AD04B
:1001C000010E140E000212020919400A520A841884
:1001D000E50104465443000A120A2E045043A419B0
:1001E0004219200CC543AA18120C0125AD03521C5C
:1001F000521912047F39240400D0521C104301D438
:100200004000491EC2B20C06C0092018401C40081C
:10021000802A02D003E0002070BD40084000002981
:1002200000DA0020184370BD70B502464A40D50F71
:1002300040004A00ED0740085208002814D0002A68
:1002400012D0C40DD30D41020120C0055202490A4B
:10025000520AE41A091812187D34914201D3641C21
:1002600000E04900002C01DA002070BD002391421B
:1002700001D3891A0343400849000028F7D1002917
:100280000AD0914202D10121C90705E0914201D271
:10029000012101E00121C943E005C018401900F027
:1002A000DAF870BD0122D207002800DB101A0029FD
:1002B00000DB511A814201D80120704700207047AD
:1002C0000122D207002800DB101A002900DB511A96
:1002D000814201D201207047002070470122D207DD
:1002E000002800DB101A002900DB511A814201D3DB
:1002F000012070470020704710B5002904DB0C4630
:100300000121C9074042A141002B04DB1C46012307
:10031000DB075242A341801A994101D3012010BD4D
:10032000002010BD10B5002904DB0C460121C907CF
:100330004042A141002B04DB1C460123DB07524253
:10034000A341801A994101D2012010BD002010BDA7
:10035000C217C10F504010B54018CA07962300219C
:1003600000F081F810BD10B500229623114600F070
:100370007AF810BDC20F410040020123400ADB059C
:10038000D207090EC0187F2901DA0020704796298C
:1003900003DC9623591AC84001E096398840002AA8
:1003A000F4D040427047410040020122400AD20589
:1003B000090E80187F2901DA00207047962903DC96
:1003C0009622511AC8407047963988407047C20F2C
:1003D000D207400040080BD0C10D0723DB01C9182C
:1003E00040020905400A1143C20840071143704703
:1003F000002001467047F0B51FB40646002082B0C9
:1004000005464024019100901BE0019922460F46C9
:10041000304600F068FA049A059B801A994110D37F
:1004200010461946224600F04EFA361A8F410197BF
:10043000224601200021009F00F045FA38184D4166
:1004400000902046641E0028DFDC019B00982946AE
:10045000324607B0F0BD002904DA401C490001D142
:1004600040084000704770B40024050C05D11024EA
:10047000000402D1002921D01124050E01D100026F
:100480000834050F01D10001241D850F01D1800022
:10049000A41C002801DB4000641C002908D0202592
:1004A0002E1B0D46F540A14000D0012129430843F1
:1004B00001061B1B000ADB1D02D5002070BC704723
:1004C000DB05181880180029F8DA401C4900F5D11E
:1004D00070BC400840007047F0B5074608465840D9
:1004E00087B0C00F049048000E46590040084908E4
:1004F000BC1A884105D2384631461E4617460B467F
:1005000002465800400810434CD0300D039040057F
:100510005900400D490D0590401A0290402872DAAA
:1005200018030121000B090508430190049800926B
:10053000002805D001995242002088410092019084
:10054000029840210A1A0199009800F0BCF905466A
:100550000C466B4607CB00F0D7F9C0197141039ADE
:100560000E0D0023D71756401A467A40164344D042
:10057000049A002A2DD0029A012A039A15DC12054A
:10058000C01A914101263605001C7141D20F059E0B
:10059000D2070093019202962A46234600F0D4F92E
:1005A00007B0F0BD38463146FAE71605224A0F4635
:1005B000B218C01AB74101210905001C4F410018AB
:1005C0007F41114618187941E20F10436D196441BB
:1005D00013E0E2076D0815436408C2071443039A49
:1005E00001261205C01A91413605001C7141CE0743
:1005F000400830434908C01851412A46234600F0BC
:1006000096F9CDE7FFE7049801224000C117121ABE
:1006100000238B4104983146C417381AA141EEE7F4
:1006200030B40124E407634030BC55E730B4012402
:10063000E407614030BC4FE70000E0FFF0B51FB4B5
:1006400088B00B990998002448400999C00F4900C7
:1006500049080991C0070B990090490049080B917E
:1006600009990898A64608431CD00B990A98084394
:1006700018D0099801244000420D4800410D099806
:1006800024050003000B204309900B980003000B86
:1006900020430B9050181C4940180022019014462A
:1006A000104605E0002001460DB0F0BD032801DA38
:1006B000034600E003239C46C11A0AAE0AE05F002D
:1006C00008ADED5B4F00F75B7D430027AA187C4126
:1006D000491C5B1E6145F2DD410004AB5A52210406
:1006E000120C0A43240C401C0828DFDB01980290FE
:1006F0000099704601910090059B049A079906980D
:1007000000F022F9D0E700000DFCFFFFF0B50C4629
:100710005C4085B0E40FE40703944C0000266408B5
:1007200059009446490802460296224321D0624667
:100730000A431ED06200570D4A000E032303550DD5
:10074000012402462C492405781B1B0B360B40184C
:1007500023432643614600901C46501AB44103D3FC
:100760000098401C009002E0921800985B4100281D
:1007700003DA0020014605B0F0BD00200121090583
:100780000746864611E064461D46141BB54106D354
:100790006546521BB341744607430C43A646CD073A
:1007A00040084908284392185B4105460D43EAD1A9
:1007B0001046184313D06046194650407140084314
:1007C00006D06046101AB34106D20122002306E08B
:1007D00000220123DB0702E00122D24353100098DC
:1007E00074460105381C6141029C039D0019694152
:1007F00000F09DF8BFE70000FD0300004A00090378
:100800000123090B1B0519430A4B10B5520D9A42DF
:1008100002DA0020014610BD064B34339A4203DC55
:100820009A1A00F060F810BD034BD21800F04BF894
:1008300010BD0000FF030000CDFBFFFF10B5002935
:1008400004DB0124E40740428C412146002B04DBF9
:100850001C460123DB075242A341994200D190423A
:1008600010BD0000064C0125064E05E0E36807CCEC
:100870002B430C3C98471034B442F7D3FFF72AFCC3
:100880006C7900088C79000870B50446002903D003
:1008900000202022012310E0002801D00020C043C6
:1008A000C046C0460DE02546D5408D4205D30D46D5
:1008B0009540641B1D46954040191546521E002D5B
:1008C000F1DC214670BD10B5202A04DB0146203A38
:1008D0009140002010BD914020239C1A0346E34024
:1008E0001943904010BD10B5202A04DB0846203A79
:1008F000D040002110BD0B46D340D0402024A21A86
:1009000091400843194610BD10B5202A06DBCB17CD
:100910000846203A1041C1170B4306E00B4613412D
:10092000D0402024A21A91400843194610BD10B5AA
:10093000002B08DA0024401C614192185B411A43E5
:1009400001D14008400010BDF0B51FB482B005468B
:100950000C0003D0084604F031FB02E004F02EFB4B
:1009600020300246009021462846FFF7ACFF049B4A
:10097000059A04460F4618431143084314D01846FD
:1009800010431BD0009840210A1A18460599FFF71A
:10099000AAFF05460E46009A05990498FFF793FFB3
:1009A000084305D0012004E02046394607B0F0BDD9
:1009B0000020C11705430E432C43374300990E987E
:1009C0006305401A7905E40A00220C43FD0A0A3047
:1009D00002D500200146E9E70105101969410C9C88
:1009E0000D9D00196941FFF7A2FFDFE780B588B0D0
:1009F00040F2005003F032FA09200021009102F089
:100A0000C3FF009802F000FB00981149019101A971
:100A100008769D4A039201224A7640F20012029221
:100A200040F200420492887640F22C12059242F283
:100A30000002069202F014FB009802F0D7FA009828
:100A400002F0C6FA0098022102F094FB08B080BDC3
:100A50004C24014080B582B0014601A801700078A5
:100A60000090012804D0FFE70098022806D00BE090
:100A7000074844F2000102F08BFD06E0044848F20A
:100A8000000102F085FD00E0FFE702B080BDC04636
:100A90000008004880B582B00020022102F08CFBE3
:100AA00068B1FFE7674901200190087000200090BD
:100AB00002F080FA0098019902F06CFBFFE702B0A7
:100AC00080BDC04680B5102002F0E4FC002850D064
:100AD000FFE7A648102102F063FDB8B9FFE75748C9
:100AE000007898B9FFE755490878401C08705449C8
:100AF00000200870F448082102F052FD012804D1BA
:100B0000FFE74F4901200870FFE72EE0EE48102173
:100B100002F046FD012827D1FFE748480078012868
:100B200022D1FFE745490020087045480078012898
:100B30000AD1FFE7E448082102F032FD20B9FFE7BF
:100B4000404906204870FFE73D48007858B9FFE764
:100B5000DD48082102F024FD012804D1FFE73949CE
:100B600005204870FFE7FFE7FFE7102002F08AFC4E
:100B7000FFE740F2002002F08DFC98B1FFE705206E
:100B800002F0D8F9D04840F2002102F009FD20B966
:100B9000FFE72C4904204870FFE740F2002002F0F4
:100BA00071FCFFE742F2000002F074FC98B1FFE72D
:100BB000052002F0BFF9C44842F2000102F0F0FC47
:100BC00020B9FFE71F4901204870FFE742F200000B
:100BD00002F058FCFFE744F2000002F05BFC98B121
:100BE000FFE7052002F0A6F9B74844F2000102F041
:100BF000D7FC20B9FFE7134902204870FFE744F211
:100C0000000002F03FFCFFE748F2000002F042FC67
:100C100098B1FFE7052002F08DF9AB4848F20001DA
:100C200002F0BEFC20B9FFE7064903204870FFE749
:100C300048F2000002F026FCFFE780BD080000201B
:100C4000090000207802002082B0014601A801803E
:100C50006A4600211180008840F22D11884204D399
:100C6000FFE701A900200880FFE701A908884000EC
:100C7000054A135A6846038009884B000021D15267
:100C8000008802B07047C0460A000020FFE7FEE778
:100C900080B586B0E94803F0E1F8214803F0DEF8BA
:100CA0000920019002F098FE0198C00603210391EB
:100CB00000220292082302F088FC02200121059103
:100CC00002F0DEF8029940F2001002F0D9F8029921
:100CD00040F2004002F0D4F8029801F073FF059949
:100CE000084601F03BFF029803990722049201F0A5
:100CF000F9FF04990598490401F0CCFF05990846CD
:100D000001F08AFF01F07CFF059802F013F901F071
:100D100009FF01F06DFF059802F092F806B080BD62
:100D20000906000080B584B0664803F097F840F2E9
:100D3000006003F093F864480021029101220192BF
:100D40001023039302F041FC0720032102F01CFE54
:100D50000198042103F000FA02990398022202F09C
:100D600021FB039802F08EFB04B080BD0004004814
:100D700080B58EB0F34803F071F8284803F06EF8A0
:100D80000920C0060090022106910022049240230F
:100D9000019302F01AFC0098019B0499032202F0CF
:100DA0005BFC0098019A0121039102F089FB0699EE
:100DB000102002F0E9FD1A48079003F0C3FD08A8CF
:100DC000029003F0EBFF0299049A0798154B0B80F1
:100DD0004A808A80144B0A93CA8003F039FE0CA81B
:100DE000059003F04CFB039B0499059A079811802A
:100DF00053809180D18003F0A9FE079803F0B2FAE6
:100E00000699079803F08BFF0699079803F07DFF7A
:100E1000079803F014FE0EB080BDC0460107000025
:100E200000040040CF020000FFFF000080B586B044
:100E3000244803F013F82448002100910122019274
:100E4000224B02F0C2FB0720032102F09DFD019816
:100E5000092103F081F901980D2103F07DF9019832
:100E60000E2103F079F901980F2103F075F900992B
:100E7000019A40F20020029002F094FA0099019A3F
:100E800042F20000039002F08DFA0099019A44F2B8
:100E90000000049002F086FA0099019A48F20000DE
:100EA000059002F07FFA029802F0ECFA039802F043
:100EB000E9FA049802F0E6FA059802F0E3FA06B0BF
:100EC00080BDC046120500000004004808E2000092
:100ED00080B586B0154802F0C1FF15480190012188
:100EE00005910022029244F20003009302F06DFB90
:100EF0000198029A059948F20003049302F065FBF9
:100F0000009B019802990322039202F0A5FB01982D
:100F10000299039A049B02F09FFB0598FFF79AFD44
:100F20000220FFF797FD06B080BDC0461305000004
:100F30000008004881B00090009900200870009AD5
:100F400007219160009948700099887000990861A4
:100F5000009A40F2E8319180009B40F2F412DA806E
:100F6000009AD1600099486101B0704710B592B005
:100F700011901091A04802F071FF40F2106002F051
:100F80006DFF0920C0060190022104910022069203
:100F90000423029302F019FB0198029B0699032295
:100FA00002F05AFB0198029A069902F089FA244845
:100FB000089003F0C7FC09A8039003F0EFFE039923
:100FC000069A089847230B804A808A80119B0B93CE
:100FD000CA800A7303F03CFD0DA8059003F0A1FC44
:100FE000049B059A0699089801240794148051805F
:100FF00093800823D38040F20013138140F2002332
:10100000538103F04BFA06990898109A03F010FCEC
:1010100006990898702203F0BBFB069A08981146BF
:1010200003F030FC089803F09DF90799089803F045
:101030009CFE089803F0FAFC12B010BD11050000E8
:101040000040014010B58EB06B4802F007FF3E48EB
:1010500002F004FF0920C006019000210491A022A3
:10106000029202F02DFA0198029B049A022102F0EA
:10107000ACFA0198029B04990322039202F0ECFA65
:10108000F548069002F052FF07A8059003F04EF8CD
:10109000039B049A059906984CF20004089440F2C8
:1010A0000414079440F2007409940C9340F2002356
:1010B0000A930D920B9202F09DFF069802F006FF34
:1010C0000EB010BD10B58EB04B4802F0C7FE1E48E2
:1010D00002F0C4FE0920C006019000210491A02264
:1010E000029202F0EDF90198029B049A022102F0AB
:1010F0006CFA0198029B04990322039202F0ACFA65
:10110000E048069002F012FF07A8059003F00EF8E1
:10111000039B049A059906984CF20004089440F247
:101120000414079440F6007409940C9340F20023D1
:101130000A930D920B9202F05DFF069802F0C6FE34
:101140000EB010BD110500000C06000080B588B07F
:101150000790294802F082FE284802F07FFE09200D
:10116000C00602900121039140F20022009202F099
:10117000A7F90298039940F20042049202F0A0F904
:10118000009B0298039A0221019102F01EFA009B33
:101190000298039A0021059102F05EFA01990298E3
:1011A000039A049B02F011FA0298039A049B059992
:1011B00002F052FA1248069003F05CFE0599069878
:1011C00003F0D3FE0599069803F0ABFE0599069847
:1011D00003F083FE0698079903F0F4FD06980421B6
:1011E00003F090FE0698082103F0B0FE069803F085
:1011F0006BFE08B080BDC046110500000E06000061
:101200000038014080B58AB0099008A90020087014
:1012100007A90870069009984078401E0590052897
:1012200000D9F5E005998A0001A080188746C046DC
:1012300000F00AB800F070B800F02CB800F0E7B881
:1012400000F07DB800F0AFB80998C068FFF78BF8E0
:1012500003900998C088FFF77BF801460398049132
:101260007149FEF7A4FF0499FEF748FFFFF782F8E3
:101270000999C8800998C0880999C968884204D921
:10128000FFE709990020C880FFE70998C08800F0AF
:1012900007F9BEE00998C088FFF75AF8029009984C
:1012A000C068FFF760F801460298FEF7BDFF0690A0
:1012B0000998C068FFF757F801218907FEF7B4FFC6
:1012C000FFF771F80999C8600998C068F92805D82E
:1012D000FFE7099940F2E830C860FFE70998C16864
:1012E0005048B0FBF1F0099988800998C068FFF771
:1012F0003AF80699FEF75BFFFFF73CF80999C880BA
:101300000998C08800F0CCF80998C068401E00F029
:10131000BDF8002006907CE00998807838B9FFE796
:10132000099901208870644803F089FB06E0099957
:1013300000208870604803F079FBFFE769E00998B6
:101340008068C01E0190042822D801998A0001A05B
:101350008018874600F018B800F012B800F00CB8FA
:1013600000F006B800F000B809990620886013E084
:101370000999052088600FE00999042088600BE036
:1013800009990320886007E009990320886003E039
:10139000099907208860FFE70998826800200321E7
:1013A00001F0A0FC35E009988068C01E0090042878
:1013B00022D800998A0001A08018874600F018B84A
:1013C00000F012B800F00CB800F006B800F000B859
:1013D00009990720886013E00999072088600FE0C9
:1013E0000999062088600BE009990520886007E0CC
:1013F00009990420886003E0099907208860FFE7C5
:10140000099882680020032101F06CFC01E000E0F3
:10141000FFE7099900204870099800F0ADFF0AB075
:1014200080BDC04640420F00CDCC4C3D7047704758
:1014300080B582B001A90870FFE71248022102F0CE
:1014400099FD08B9FFE7F8E701A801780D4802F017
:1014500047FD02B080BDC0460030014080B582B07B
:1014600001A90880FFE70748022102F083FD08B9BF
:10147000FFE7F8E701A80188024802F031FD02B059
:1014800080BDC046003001407047000080B582B08A
:10149000019001A80188084802F06DFF02B080BDEC
:1014A00080B582B0014601A801800288024800216F
:1014B00003F0BEF902B080BD00400140704700005B
:1014C00080B584B034490868012210430860FFE702
:1014D000314800688007002801D4FFE7F8E7FFE7FC
:1014E0002E49086880221043086000200390FFE71F
:1014F00003987F2805D8FFE7FFE70398401C039077
:10150000F6E72649086890221043086000200390FF
:10151000FFE703987F2805D8FFE7FFE70398401C03
:101520000390F6E7FFE71D4908680322904308602F
:10153000194A10681A4B184010600868194A104080
:1015400008600868184A10400860184908680F22A7
:10155000904308601649086840F2031290430860FF
:101560000868012201921304984308600868D307B1
:10157000984308600F490868904308600E490020AE
:101580000290086002F0B4FE01980299C00602F0D1
:1015900011FA04B080BDC0460010024004100240A1
:1015A000FFFFF2FE0C00FF08FFFFC2772C10024085
:1015B00030100240341002400810024010B588B0CC
:1015C00007AC0094208006A80290018005A8019035
:1015D000028004A8039003802A2001F0AFF900984C
:1015E000008801F061F90198008801F05DF92B2075
:1015F00001F0A4F90298008801F056F903980088D8
:1016000001F052F92C2001F099F908B010BDB0B5E5
:1016100090B01D460B46149C0FA908800EA80380AD
:101620000DAB1A800CAA15800BAD2C800AAD0024DE
:1016300000942C80099408940794069405940494CB
:101640000394029401941B880C881B1B0793128837
:101650000388D21A0692098802910088019007989F
:10166000012803DBFFE7012004900DE0079818B97B
:10167000FFE70020049006E00020C0430490079894
:1016800040420790FFE7FFE70698012803DBFFE7EA
:10169000012003900DE0069818B9FFE700200390A1
:1016A00006E00020C0430390069840420690FFE702
:1016B000FFE707980699884203DDFFE70798059042
:1016C00002E006980590FFE70AA900200880FFE7DE
:1016D0000AA800880599491C884232DAFFE702A867
:1016E000008801A909880BAA128800F02CF8079934
:1016F0000998401809900699089840180890099888
:101700000599884209DDFFE705990998401A099073
:101710000499029840180290FFE7089805998842BA
:1017200009DDFFE705990898401A08900399019888
:1017300040180190FFE7FFE70A98401C0AA90880BB
:10174000C6E710B0B0BD80B584B00B4603A90880D1
:1017500002A8038001AB00931A800A880388104610
:101760001946FFF72BFF0098008801F09DF804B0A0
:1017700080BDB0B588B014460D4601460C9A07A846
:10178000018006A90D8005AD2C8004AC238003AB3D
:101790001A8002AB009300221A8001AB1A800088E5
:1017A0000988059A521E049B5B1E92B29BB2FFF7FA
:1017B00005FF009906980880FFE702A8008804A9A1
:1017C000098888421BDAFFE7079801A90880FFE72C
:1017D00001A8008805A9098888420ADAFFE703A85A
:1017E000008801F061F8FFE70198401C01A908801A
:1017F000EEE7FFE70298401C02A90880DDE708B089
:10180000B0BD000080B584B00C4802F027FB9748BB
:10181000029001210022019240F2E013039301F0B3
:10182000D4FE01990298039B032201F015FF029850
:10183000039901F0ADFE04B080BDC0461205000062
:1018400080B596B0FFF7DEFFFFF7FCFB87480290FC
:101850002021019101F094FE6420039001F06AFBC5
:101860000199029801F094FE039801F063FB02983D
:1018700040F2001101F08CFE039801F05BFB112097
:1018800001F03EF8782001F055FBB12001F038F866
:101890000520159001F01EF83C20049001F01AF884
:1018A000049801F017F8B22001F02AF8159801F019
:1018B00011F8049801F00EF8049801F00BF8B32029
:1018C00001F01EF8159801F005F8049801F002F8EF
:1018D000049800F0FFFF159800F0FCFF049800F05A
:1018E000F9FF049800F0F6FFB42001F009F8032096
:1018F0000A9000F0EFFFC020059001F001F82820C9
:10190000089000F0E7FF082000F0E4FF04201290A8
:1019100000F0E0FFC12000F0F3FF059800F0DAFFCF
:10192000C22000F0EDFF0D200B9000F0D3FF00204F
:10193000109000F0CFFFC32000F0E2FF8D20069052
:1019400000F0C8FF2A20079000F0C4FFC42000F078
:10195000D7FF069800F0BEFFEE2000F0BBFFC520C9
:1019600000F0CEFF1A2000F0B5FF362000F0C8FFCF
:10197000702000F0AFFFE02000F0C2FF129800F0EE
:10198000A9FF222000F0A6FF072000F0A3FF0A20F5
:1019900000F0A0FF2E20099000F09CFF302000F006
:1019A00099FF25200E9000F095FF079800F092FF18
:1019B000089800F08FFF26200C9000F08BFF09980C
:1019C00000F088FF3A20149000F084FF109800F097
:1019D00081FF0120119000F07DFF0A9800F07AFF4E
:1019E0001320139000F076FFE12000F089FF129899
:1019F00000F070FF162000F06DFF062000F06AFF77
:101A00000B9800F067FF2D200F9000F063FF0C98FB
:101A100000F060FF232000F05DFF27200D9000F014
:101A200059FF0D9800F056FF0E9800F053FF0F98E5
:101A300000F050FF3B2000F04DFF109800F04AFFEF
:101A4000119800F047FF129800F044FF139800F03F
:101A500041FF149800F054FF159800F03BFF292037
:101A600000F04EFFFFF72EFB16B080BD00040048CB
:101A7000F0B597B014460D4606461E991D9A1C985F
:101A800016AF01973E8015AE0296358014AD0395D2
:101A90002C7013AC238012AB188011A80490027034
:101AA00010AA11700CAA002105911170169909AAAB
:101AB0001180007841080EA8069001700178C808CE
:101AC00007904907401C089009B907980890049BA3
:101AD000069A02990198039D089E1C7874430AAEE9
:101AE0003480149C203C2C7000880988127882185D
:101AF000521E1B78CB185B1E92B29BB2FFF75EFDA5
:101B000005980BA90880FFE70BA800880AA9098897
:101B1000884200DB98E011A800780C280CD1FFE780
:101B200014A800780C2141434A4840180BA90988A1
:101B3000405C0FA9087023E011A8007810280BD191
:101B4000FFE714A800780101414840180BA9098853
:101B5000405C0FA9087012E011A8007818280CD179
:101B6000FFE714A8007830214143384840180BA9FA
:101B70000988405C0FA9087000E065E0FFE7FFE717
:101B80000DA900200870FFE70DA80078072855DC94
:101B9000FFE710A8007820BBFFE70FA800780DA989
:101BA0000978C840C00728B1FFE713A8008800F0F3
:101BB0007BFE04E012A8008800F076FEFFE70C9898
:101BC000411C0CA8017000780EA90978B0FBF1F255
:101BD0005143401A20B9FFE70CA9002008702DE0FE
:101BE00026E00FA800780DA90978C840C00748B1C1
:101BF000FFE716A8008815A9098813AA1288FFF71D
:101C0000A2FDFFE71698411C16A80180008809A9CB
:101C10000988401A0EA90978884208D1FFE7099877
:101C200016A908801598401C15A9088006E0FFE752
:101C3000FFE70D98401C0DA90870A5E7FFE70B987A
:101C4000401C0BA908805FE717B0F0BD22630008B5
:101C5000325D0008BE580008F0B58BB014460D4642
:101C6000064612981199109A0AAF3E8009AE358047
:101C7000089407AC238006AB1A8005AA117004A94A
:101C80000870FFE708980078002854D0FFE705A8FF
:101C900000780C2813D1FFE70AA8008809A9098851
:101CA000089A07AB1B8806AC248805AD2D7804AED6
:101CB000367802960195009400F040F831E005A8CE
:101CC0000078102813D1FFE70AA8008809A909881D
:101CD000089A07AB1B8806AC248805AD2D7804AEA6
:101CE000367802960195009400F01EF918E005A8D8
:101CF0000078182813D1FFE70AA8008809A90988E5
:101D0000089A07AB1B8806AC248805AD2D7804AE75
:101D1000367802960195009400F0FCF9FFE7FFE7A2
:101D2000FFE70898801C089005A801780A984018D9
:101D30000AA90880A6E70BB0F0BD0000F0B595B089
:101D400014460D4606461C991B9A1A9814AF3E80FD
:101D500013AE3580129411AC238010AB18800FA8FD
:101D600002700EAA11700DAA0021009111700CAA28
:101D700011700BAA11700AAA0192118009AA02928D
:101D8000118008AA03921180149907AA1180017882
:101D90000491C80805904907401C069009B90598A8
:101DA000069000980199029B039C049A069D6A4341
:101DB00022800D221A800880FFE70AA8008809A95E
:101DC0000988884200DBAAE00AA800881A2141435A
:101DD0005448405C12990978884200D099E00AA8DA
:101DE00000881A2141434F48401840781299497899
:101DF000884200D08DE014A8008813A909880FAA92
:101E00001378C218521ECB185B1E92B29BB2FFF71A
:101E1000D5FB0DA900200870FFE70DA8007808A9E0
:101E20000988884274DAFFE70CA900200870FFE7F0
:101E30000CA80078072865DCFFE70EA8007860BBD7
:101E4000FFE70AA800881A214143364840180DA927
:101E50000978401880780CA90978C840C00728B1D3
:101E6000FFE711A8008800F01FFD04E010A800881B
:101E700000F01AFDFFE70B98411C0BA801700078D9
:101E80000FA90978B0FBF1F25143401A20B9FFE7DE
:101E90000BA90020087035E02EE00AA800881A215E
:101EA0004143204840180DA90978401880780CA9B2
:101EB0000978C840C00748B1FFE714A8008813A9F3
:101EC000098811AA1288FFF73EFCFFE71498411C0D
:101ED00014A80180008807A90988401A0FA9097869
:101EE000884208D1FFE7079814A908801398401C7E
:101EF00013A9088006E0FFE7FFE70C98401C0CA937
:101F0000087095E7FFE70D98401C0DA9087084E75D
:101F1000FFE7FFE70A98401C0AA908804DE715B0C3
:101F2000F0BDC04674750008F0B595B014460D4676
:101F300006461C991B9A1A9814AF3E8013AE358042
:101F4000129411AC238010AB18800FA802700EAA57
:101F500011700DAA0021009111700CAA11700BAA2A
:101F600011700AAA0192118009AA0292118008AA8E
:101F700003921180149907AA118001780491C8086E
:101F800005904907401C069009B9059806900098ED
:101F90000199029B039C049A069D6A4322800922B0
:101FA0001A800880FFE70AA8008809A909888842E2
:101FB00000DBAAE00AA80088222141435448405C83
:101FC00012990978884200D099E00AA80088222155
:101FD00041434F484018407812994978884200D0D0
:101FE0008DE014A8008813A909880FAA1378C218D5
:101FF000521ECB185B1E92B29BB2FFF7DFFA0DA9FF
:1020000000200870FFE70DA8007808A90988884219
:1020100074DAFFE70CA900200870FFE70CA800782D
:10202000072865DCFFE70EA8007860BBFFE70AA879
:10203000008822214143364840180DA909784018EC
:1020400080780CA90978C840C00728B1FFE711A81B
:10205000008800F029FC04E010A8008800F024FCAF
:10206000FFE70B98411C0BA8017000780FA90978B5
:10207000B0FBF1F25143401A20B9FFE70BA9002051
:10208000087035E02EE00AA800882221414320484C
:1020900040180DA90978401880780CA90978C84023
:1020A000C00748B1FFE714A8008813A9098811AA3E
:1020B0001288FFF748FBFFE71498411C14A8018021
:1020C000008807A90988401A0FA90978884208D111
:1020D000FFE7079814A908801398401C13A90880EB
:1020E00006E0FFE7FFE70C98401C0CA9087095E795
:1020F000FFE70D98401C0DA9087084E7FFE7FFE794
:102100000A98401C0AA908804DE715B0F0BDC046EA
:10211000C6760008F0B595B014460D4606461C99E3
:102120001B9A1A9814AF3E8013AE3580129411ACEE
:10213000238010AB18800FA802700EAA11700DAA90
:102140000021009111700CAA11700BAA11700AAA3B
:102150000192118009AA0292118008AA03921180AB
:10216000149907AA118001780491C80805904907BD
:10217000401C069009B90598069000980199029BA9
:10218000039C049A069D6A43228005221A800880D7
:10219000FFE70AA8008809A90988884200DBAAE0AD
:1021A0000AA800884A2141435448405C12990978A2
:1021B000884200D099E00AA800884A2141434F484C
:1021C0004018407812994978884200D08DE014A8D0
:1021D000008813A909880FAA1378C218521ECB18B9
:1021E0005B1E92B29BB2FFF7E9F90DA900200870BF
:1021F000FFE70DA8007808A90988884274DAFFE78C
:102200000CA900200870FFE70CA80078072865DCFF
:10221000FFE70EA8007860BBFFE70AA800884A2104
:102220004143364840180DA90978401880780CA918
:102230000978C840C00728B1FFE711A8008800F05E
:1022400033FB04E010A8008800F02EFBFFE70B989A
:10225000411C0BA8017000780FA90978B0FBF1F2BE
:102260005143401A20B9FFE70BA90020087035E060
:102270002EE00AA800884A214143204840180DA9B1
:102280000978401880780CA90978C840C00748B17F
:10229000FFE714A8008813A9098811AA1288FFF77C
:1022A00052FAFFE71498411C14A80180008807A97E
:1022B0000988401A0FA90978884208D1FFE70798D2
:1022C00014A908801398401C13A9088006E0FFE7B2
:1022D000FFE70C98401C0CA9087095E7FFE70D98E4
:1022E000401C0DA9087084E7FFE7FFE70A98401C2F
:1022F0000AA908804DE715B0F0BDC046F877000880
:10230000F0B58DB014460D46064614981399129AEE
:102310000CAF3E800BAE35800A9409AC238008AB2D
:102320001A8007AA117006A90870FFE70A980078BA
:1023300000B3FFE70CA8059000880BA909880A9A4A
:10234000127809AB1B8808AC248807AD04952D785A
:1023500006AE3678029601950094FFF789FB049843
:102360000599007842080C98801808800A98401C4B
:102370000A90DBE70DB0F0BD80B59AB0199000204F
:10238000109018901790169015901490139012902A
:10239000119019984069FEF71AF802460B467D49DC
:1023A00011A80F9002F0F6FD0F9A109B02931020D7
:1023B000019040F2E070009005206A21FFF7A0FF35
:1023C00010981890179016901590149013901290E2
:1023D0001190199800697049FDF772FF28BBFFE75B
:1023E000199800696C49FDF71FFFFDF7F0FF0246E1
:1023F0000B466B4911A80D9002F0CCFD0D9A0023FD
:102400000E9302931020019040F2E070009037206C
:102410006A21FFF775FF0E98189017901690159087
:10242000149013901290119021E019980069FDF713
:10243000CEFF02460B46594911A80B9002F0AAFDA7
:102440000B9A00230C9302931020019040F2E0704D
:10245000009037206A21FFF753FF0C9818901790CF
:10246000169015901490139012901190FFE7199800
:10247000807801280CD1FFE70023029310200190FF
:1024800048480090494A76202421FFF7E5FB0BE0FD
:102490000023029310200190F9480090424A7620D0
:1024A0002421FFF7D9FBFFE71998808840F2E83133
:1024B000884221DBFFE71998808840F2E831B0FBC1
:1024C000F1F23C4911A8099002F064FD099A002339
:1024D0000A93029310200190E94800906E20482151
:1024E000FFF70EFF0A981890179016901590149009
:1024F0001390129011901CE0199882882C4911A811
:10250000079002F047FD079A0023089302931020DA
:102510000190DB4800906E204821FFF7F1FE0898FB
:102520001890179016901590149013901290119087
:10253000FFE71998C088FDF70BFF04901998C06851
:10254000FDF711FF01460498FDF76EFE1A49FDF7ED
:102550002EFEFDF73CFF02460B46184911A80590D8
:1025600002F018FD059A00230693029310200190B3
:10257000C34800906E206A21FFF7C2FE06981890AB
:1025800017901690159014901390129011901AB005
:1025900080BDC0460C75000800007A441475000820
:1025A00024750008E0FF0000647500083475000819
:1025B0002D7500081D7500080000C842FB74000856
:1025C00070B59EB01DA812900024139404801CA81E
:1025D00004801B941A9419941894179416941594C3
:1025E0001494029410200A90019040F2E070009040
:1025F000A14A0A2021462346FFF72EFB9F4914A833
:102600000C9002F0C7FC0C9A0A98029401909C4826
:102610000B9000906E200D9021462346FFF770FE30
:102620000D981B941A941994189417941694159451
:10263000149402940C250E95019592490F910091E6
:10264000914A1421914B1193FFF706FB0C98904986
:10265000099102F09FFC0A9B0B990C9A0D98029429
:102660000193009124212346FFF74AFE0D980F990C
:10267000119B1B941A9419941894179416941594FA
:102680001494029401950091824A3821FFF7E4FAEC
:1026900009990C9802F07EFC0A9B0B990C9A0D98F4
:1026A00002940193009148212346FFF729FE0C98DC
:1026B0001B941A94199418941794169415941494BE
:1026C000754902F067FC0C9A0F99119B0D980294C2
:1026D000019500915C211091FFF712FE0E9A0F9860
:1026E0001099119B1B941A9419941894179416948A
:1026F00015941494029401920090684A7620FFF792
:10270000ABFA09990C9802F045FC0A9B0B990C9ABC
:102710000D980294019300916A212346FFF7F0FD82
:102720000E9A0F981099119B1B941A94199418944F
:102730001794169415941494029401920090584A98
:102740000520FFF789FA0E9A0F981099119B0294B1
:1027500001920090534A3720FFF77EFA129913989E
:102760000880FFE71DA8008880280CDCFFE71DA873
:1027700001886A20424AFEF7E6FFFFE71D98801CA9
:102780001DA90880EEE71DA900200880FFE71DA80D
:10279000008863280DDCFFE71DA80088512140F266
:1027A000E072FEF7D0FFFFE71D98401C1DA90880CE
:1027B000EDE71DA91E200880FFE71DA8008850280E
:1027C0000DDCFFE71DA80188002040F2E072FEF753
:1027D000BAFFFFE71D98401C1DA90880EDE71DA961
:1027E00000200880FFE71DA8008809281CDCFFE7FF
:1027F0001D990A2006904843801C80B252210791FF
:1028000040F2E0720892FEF79EFF06980799089A38
:102810001D9B5843C01C80B2FEF795FFFFE71D9833
:10282000401C1DA90880DEE71DA900200880FFE7E5
:102830001DA8008809281CDCFFE71D990A200390C9
:102840004843801C80B25321049140F2E07205920B
:10285000FEF779FF03980499059A1D9B5843C01C05
:1028600080B2FEF770FFFFE71D98401C1DA908808D
:10287000DEE71EB070BDC04669750008057500082A
:10288000E0FF00000F78000039750008FFFF00002E
:10289000F47400085B750008F27400084B750008BA
:1028A000427500085275000880B584B003A90091F4
:1028B0000880314801908021029100F061FE00986B
:1028C0000088FEF7CBFD0198029900F061FE04B08C
:1028D00080BDC04680B584B003A900910870264829
:1028E00001908021029100F04BFE00980078FEF7E5
:1028F0009FFD0198029900F04BFE04B080BDC046D8
:1029000080B586B005A9019108701B48039040214D
:10291000029100F035FE03988021049100F030FE12
:1029200001980078FEF784FD0299039800F030FECC
:102930000398049900F02CFE06B080BD80B586B0E7
:1029400005A9019108800C4803904021029100F0F4
:1029500017FE03988021049100F012FE0198008870
:10296000FEF77CFD0299039800F012FE039804998B
:1029700000F00EFE06B080BD0004004880B531486E
:10298000022102F0D5F901285AD1FFE72E4800882C
:1029900050B9FFE72B48002101F0F6FC2C490880D4
:1029A00029490120088046E027480088012841D1B4
:1029B000FFE72448002101F0E7FC0146234801809D
:1029C000008823490988884208DDFFE71F480088FE
:1029D0001F490988401A2049086009E01C480188FD
:1029E0001A480088401A1B4940181B490860FFE735
:1029F00019480068FDF7B7FC01461848FDF714FCBC
:102A000001461748016000681649FDF759FC28B9CE
:102A1000FFE71348006814490861FFE70C490020EC
:102A200008800D4908600E49086008490880064979
:102A30000880FFE7FFE70348022102F070F9FFE793
:102A400080BDC04600040040620200204207002012
:102A500040070020FFFF0000640200200050C34731
:102A6000700200200000C8427802002081B00146B8
:102A7000684601700021405600280DD4FFE7002170
:102A8000684641561F200A460240012090404909ED
:102A90008900024A8850FFE701B0704700E100E07A
:102AA00070B582B0024601A8027000910021405624
:102AB000002816D4FFE7002401A908570322D343B6
:102AC0001840174A805809578C07E50EFF24AC4080
:102AD000A043009CA401E4B2AC40204319408850BC
:102AE0001AE001A908780F24204008380322D343B4
:102AF00018400A4A8058002549578D07EE0EFF25D9
:102B0000B540A843009DAD01EDB2B540284321403A
:102B1000083919408850FFE702B070BD1CED00E095
:102B200000E400E0D5490868082210430860FFE788
:102B3000D24800680007002801D5FFE7F8E7CF4931
:102B40000868042210430860FFE7CC48006840078B
:102B5000002801D5FFE7F8E77047C04683B002467A
:102B600002A80270019100780090012804D0FFE7CC
:102B7000009802280FD01DE0AC490A680F2000051C
:102B800082430A60019A12050D4BD2180240086870
:102B9000104308600FE009490A68032000058243DA
:102BA0000A60019A1205064BD218024008681043C9
:102BB000086000E0FFE703B07047C04638240140DA
:102BC0000000F0FF81B00090009838B1FFE7D849CD
:102BD000086840F600021043086006E0D44908681F
:102BE00040F6000290430860FFE701B07047C0461E
:102BF000CF49086840F20012104308607047C04691
:102C0000CB480068C00730B9FFE7C949086801220E
:102C100010430860FFE7704782B001AA1070684651
:102C200001700078D0B1FFE701A80078C00738B183
:102C3000FFE7BF4908680122120510430860FFE75B
:102C400001A800788007002807D5FFE7B849086881
:102C500048F2000210430860FFE719E001A800787D
:102C6000C00738B1FFE7B249086801221205904356
:102C70000860FFE701A800788007002807D5FFE774
:102C8000AB49086848F2000290430860FFE7FFE79D
:102C900002B0704783B0024602A80270019100782A
:102CA0000090012804D0FFE7009802280BD015E01F
:102CB0009F4908680722520490430860019A0868F7
:102CC000104308600BE09A49086847F200029043FD
:102CD0000860019A08681043086000E0FFE703B04D
:102CE0007047C04610B585B0034604A8037003AB17
:102CF000197002920078052818D8FFE74D49086836
:102D0000019004AB1C780520024662431F249440C6
:102D1000019AA243019203AA12781B785843824079
:102D20000198104301900198086040E004A80078E1
:102D30000B281AD8FFE73E490868019004AB1C78BD
:102D40000520024662431E3A1F249440019AA24382
:102D5000019203AA12781B7858431E3882400198CA
:102D6000104301900198086020E004A800780F2823
:102D70001AD8FFE72D490868019004AB1C7805209C
:102D8000024662433C3A1F249440019AA2430192B6
:102D900003AA12781B7858433C38824001981043AC
:102DA00001900198086000E0FFE7FFE7FFE703A854
:102DB0000078092817D8FFE720490868009003AB7E
:102DC0001C7803200246624307249440009AA243E1
:102DD0000092029A1B78584382400098104300905A
:102DE000009808601FE003A80078122819D8FFE7B0
:102DF00011490868009003AB1C7803200246624327
:102E00001E3A07249440009AA2430092029A1B782B
:102E100058431E3882400098104300900098086084
:102E200000E0FFE7FFE705B010BDC0462C240140DD
:102E300030240140342401400C240140102401407E
:102E400081B00146684601700078C00738B1FFE7DD
:102E5000374908680122920510430860FFE7684679
:102E600000788007002807D5FFE73149086801226C
:102E7000520510430860FFE701B070470824014085
:102E800082B0019068460170007830B3FFE701A876
:102E90004078C00738B1FFE72449086840F20012C3
:102EA00010430860FFE701A840784007002807D5D5
:102EB000FFE71E49086840F2004210430860FFE740
:102EC00001A800788007002806D5FFE718490868A0
:102ED000022210430860FFE725E001A84078C00700
:102EE00038B1FFE71149086840F2001290430860CA
:102EF000FFE701A840784007002807D5FFE70B4906
:102F0000086840F2004290430860FFE701A800789B
:102F10008007002806D5FFE705490868022290438C
:102F20000860FFE7FFE702B07047C0460424014095
:102F30000824014080B584B003900398FDF713FA8C
:102F400018490968FDF733F9FDF72DFA16490860AD
:102F5000164900200860164901200860FFE7144860
:102F600000680290FFE7002002A90978C9070190D4
:102F700041B1FFE702A88078012108404142484161
:102F80000190FFE70198C0070028E8D1FFE7084952
:102F9000086801229043086004490020086004B0DA
:102FA00080BDC0466802002014E000E018E000E0A8
:102FB00010E000E081B001466846017000781421FD
:102FC0004143AD4A885801239843885001B0704767
:102FD00081B0014668460170007814214143A64A39
:102FE000885801231843885001B0704781B00146CA
:102FF000684601700078142141439F4A8858202375
:103000001843885001B07047B0B581B0014668469A
:1030100001700178142213464B43974C195901252E
:10302000A9431951017813464B43002119510478E3
:1030300013466343994C19510478134663434B4C30
:10304000195103785A434A4BD150007880000F221F
:103050008240584908681043086001B0B0BDC046BE
:10306000B0B584B0024603A80090027002910078C7
:10307000FFF7A0FF009B029800681C7814210A4605
:1030800062433A4C1051029880681C780A466243A9
:10309000374C10510298008A1C780A4662437F4CD4
:1030A00010511A7808465043734A8058019001988D
:1030B00043F60074A043019002984468C5682C430D
:1030C0004069044301982043019001981B785943BB
:1030D00088500298007E01280AD1FFE703A80078F3
:1030E00014214143644A885840231843885009E01A
:1030F00003A80078142141435F4A8858402398432D
:103100008850FFE70298407E01280AD1FFE703A814
:10311000007814214143584A885880231843885026
:1031200009E003A8007814214143534A88588023BA
:1031300098438850FFE70298807E50B9FFE703A8C4
:103140000078142141434C4A8858102398438850F2
:1031500009E003A8007814214143474A8858102306
:1031600018438850FFE704B0B0BDC04610000240CD
:103170001400024082B0024601A802700091009B38
:103180000078142141433C4A88581843885002B0C3
:103190007047C04682B0024601A802700091009AB2
:1031A000007880008240034908681043086002B03C
:1031B0007047C0460400024086B004AA1070039114
:1031C00000200290019003980090022808D0FFE7A9
:1031D0000098042816D0FFE70098082824D035E08E
:1031E00024480168039A04A803789B009A40114080
:1031F00001910178142048431F494058022108409A
:10320000029024E01B480168039A04A803789B00FD
:103210009A401140019101781420484316494058C2
:1032200004210840029012E012480168039A04A8A1
:1032300003789B009A401140019101781420484383
:103240000D49405808210840029000E0FFE701982E
:1032500038B1FFE7029820B1FFE705A90120087007
:1032600003E005A900200870FFE705A8007806B074
:103270007047C046000002400800024083B0009141
:103280000246009802A90A70019001A800880A78F5
:1032900014215143014A885003B070470C0002408A
:1032A00010B588B007AA107006A8018005AA0021F1
:1032B000118004AA118003AA1180405E312806DC27
:1032C000FFE7002106A8405E002804D5FFE706A915
:1032D00032200880FFE707A800780699401A04A961
:1032E00008802D48007888B1FFE704A801880020F5
:1032F000029040F2E072FEF726FA02982749088011
:103300000499274A11802449087043E02348008823
:10331000411C05A80180008863282BDCFFE71F48BB
:1033200000881F49098805AA128804AB1B8840F24F
:10333000E0740094FEF76BF903A91E200880FFE7F4
:1033400003A8008850280EDCFFE70598401C03A95D
:10335000098880B20022FEF7F6F9FFE70398401CC7
:1033600003A90880ECE705980C49088004980C49EB
:1033700008800EE004A801880020019040F2E0726D
:10338000FEF7E1F90198054908800498044908808E
:10339000FFE7FFE708B010BD040000207402002022
:1033A0007602002085B0049003A8017002A90A707B
:1033B000049B304A116899431160049B2E4A11689E
:1033C00099431160049B2D4A116899431160049B35
:1033D0002B4A1168994311600078019020B1FFE7F2
:1033E0000198012806D00BE0049A2249086810438E
:1033F000086006E0049A204908681043086000E06D
:10340000FFE702A80078009003282FD800998A00CF
:1034100001A080188746C04600F006B800F00FB83B
:1034200000F018B800F021B8049A14490868104355
:103430000860049A124908689043086017E0049AEB
:103440000E49086890430860049A0D4908681043C3
:1034500008600CE0049A0949086810430860049A5F
:10346000074908681043086001E0FFE7FFE705B07F
:103470007047C046000401400404014008040140B4
:103480000C04014081B0009000980C49086001B024
:103490007047C04682B00090084800680099084212
:1034A00004D0FFE701A90120087003E001A9002072
:1034B0000870FFE701A8007802B0704714040140CB
:1034C00086B00590049103920598006A01900598D2
:1034D000406A009002A900200880FFE702A8008847
:1034E00007281DD8FFE702A801880398C840C00735
:1034F00080B1FFE702A8018889000F228A40019964
:10350000914301910499008880008140019808430B
:103510000190FFE7FFE70298401C02A90880DDE761
:1035200002A908200880FFE702A800880F281FD8FA
:10353000FFE702A801880398C840C00790B1FFE7E1
:1035400002A80188890020390F228A4000999143FE
:103550000091049900888000203881400098084339
:103560000090FFE7FFE70298401C02A90880DBE714
:1035700001980599086200980599486206B070475D
:1035800082B00190009100980199886202B0704762
:1035900082B00190009100980199886102B0704753
:1035A00083B001900091019800690099084204D00D
:1035B000FFE702A90120087003E002A900200870BB
:1035C000FFE702A8007803B0704787B00690059126
:1035D000049203930698006801900698C0680090D2
:1035E00002A900200880FFE702A800880F282BD836
:1035F000FFE702A801880398C840C007F0B1FFE7C1
:1036000002A801884900032213468B40019999437F
:103610000191059B018849008B4001991943019153
:10362000018849008A4000999143009104990088DB
:1036300040008140009808430090FFE7FFE70298B0
:10364000401C02A90880CFE70198069908600098FD
:103650000699C86007B0704710B586B0059004A8F9
:103660000170039202930078012806D1FFE7029AC5
:10367000059948681043486005E0029A0599486832
:1036800090434860FFE705988068009001A90020FA
:103690000880FFE701A800880F281DD8FFE701A8D0
:1036A00001880298C840C00780B1FFE701A80188DF
:1036B000490003228A4000999143009103990088B0
:1036C00040008140009808430090FFE7FFE7019821
:1036D000401C01A90880DDE700980599886006B0C4
:1036E00010BD000010B58EB0002004900D900CA904
:1036F00008800B900A907F21C905099108900790D6
:1037000006A9088099480590FDF714FC00F00AFE10
:10371000FDF7DEFBFEF794F804990091A0228023C8
:103720000846FEF726F8E1204002FDF70FFDFDF701
:103730005DF9FDF7ADFA0599C868401EC988FDF727
:1037400015FCFDF7EFFAFDF771FBFDF711FBFEF736
:1037500037FFFFE785480390FDF754FD0398007895
:10376000012800D0FDE081490020087048610CA9C3
:103770000880FFE70CA8008840F22B11884243DC48
:10378000FFE70CA802900088FDF75EFAFCF7E0FD69
:103790007B49FCF70CFD8B21C905FCF745FD079023
:1037A00007990846FCF7AAFC01467648FCF7F7FCA7
:1037B000029A034614886D4801461831A4000B5143
:1037C0004069128892008958FCF788FD40B9FFE7EC
:1037D0000CA8008880006549081880694861FFE7E7
:1037E00062484069FCF7F3FD614A624BFCF79AFDC1
:1037F00020B9FFE75D4900200861FFE7FFE70C986B
:10380000401C0CA90880B5E70020019040F22C1163
:10381000FFF734FD0198FFF7DBFB01980CA9088046
:10382000FFE70CA80088C7282DDCFFE70CA800885C
:1038300081004E48401880690999FCF74FFDE0B9B6
:10384000FFE7FFE70CA80088C72815DCFFE70CA8F6
:10385000008881004548401880690999FCF722FDDD
:1038600020B9FFE70C9806A9088005E0FFE70C984F
:10387000401C0CA90880E5E705E0FFE70C98401C18
:103880000CA90880CDE739484069FCF7A0FD384A0B
:10389000384BFCF731FD68B9FFE734484069012136
:1038A0008907FCF7C1FC0B900B993348FCF7BCFC73
:1038B0000890FFE706980CA90880FFE70CA800888D
:1038C00006A90988643188424ADAFFE72748407828
:1038D000042813D1FFE7254900204870FFE723485B
:1038E0004078042804D1FFE720490020487004E014
:1038F000FFE701200028F2D1FFE7FFE70CA80088CE
:1039000081001A48401880690A900A980B99FCF7C0
:10391000D7FC60B9FFE70A990B98FCF740FC0899BF
:10392000FCF745FC1549FCF7E9FB0A900BE00B9806
:103930000A99FCF734FC0899FCF739FC0F49FCF7AD
:10394000DDFB0A90FFE70A98FCF714FD01465020C2
:10395000FFF7A6FCFFE70C98401C0CA90880ADE718
:10396000FFE70248FEF708FDF4E6C04678020020B3
:10397000333333333333D33F000034410000F0415D
:10398000333353400000A04080B584B00A4601465E
:1039900003A80190017002A90A70002200928056CB
:1039A0000978FFF77DF8009901984056FFF75EF817
:1039B00004B080BD82B00190009101980099044A42
:1039C0001140084303490860BFF34F8F02B07047AE
:1039D00080FFFF1F08ED00E082B0014601A80170E2
:1039E0005D4A11684CF20003994311605B4A11680B
:1039F0005B4B1940116000780090092800D9A7E0BE
:103A000000998A0001A080188746C04600F012B8CD
:103A100000F01CB800F026B800F02EB800F03BB85B
:103A200000F046B800F056B800F061B800F071B888
:103A300000F07CB8494908680122120490430860EC
:103A4000086840F200129043086082E04349086829
:103A50000122120410430860086840F200129043EB
:103A6000086076E0F64908680860F949086840F29D
:103A70000012104308606CE0F14908680860F449DE
:103A800008680122D20710430860086840F200125B
:103A9000104308605DE0EA49086844F20002104300
:103AA0000860EB49086840F200121043086050E0DB
:103AB000E349086844F2000210430860E4490868DA
:103AC0000122D20710430860086840F20012104338
:103AD00008603EE0DA49086848F2000210430860D6
:103AE000DB49086840F200121043086031E0D44915
:103AF000086848F2000210430860D54908680122AE
:103B0000D20710430860086840F2001210430860B2
:103B10001FE0CB4908684CF2000210430860CC4912
:103B2000086840F200121043086012E0C4490868B7
:103B30004CF2000210430860C54908680122D20710
:103B400010430860086840F200121043086000E06B
:103B5000FFE702B07047C046041002403010024038
:103B6000FFFEFE7F9DB01CA90870002002901B90F4
:103B70001A90199018901790169015901490139011
:103B80001290119010900F900E900D900C90AA49E9
:103B90000B91AA490A910990089007910690059106
:103BA0000490A74800680C21084080081B901B98CF
:103BB000039040B1FFE70398012807D0FFE703987F
:103BC000022806D044E0A148179044E09F4817908F
:103BD00041E09B4801680F2292041140890C119129
:103BE00000680121C9060840C00E109010980128F5
:103BF00004D1FFE71198113011900BE011980F28B4
:103C000003D1FFE71020119003E01198801C119060
:103C1000FFE7FFE78A480068012109040840000C1B
:103C20000F900F9870B1FFE7874800680F21084098
:103C3000401C0E900E998548B0FBF1F11198484355
:103C4000179004E011997F4848431790FFE702E07E
:103C50007E481790FFE77A480168C9B209090D91BB
:103C60000D9A08A9895C0C9117990C9AD14016916C
:103C7000016840F200721140090A0D910D9A06A9DF
:103C8000895C0C9116990C9AD1401591006843F605
:103C900000010840C00A0D900D9904A8405C0C90EA
:103CA00016980C99C84014901CA80078019005281B
:103CB00000D9BCE001998A0001A080188746C0465F
:103CC00000F00AB800F00BB800F00CB800F00DB826
:103CD00000F00EB800F07DB817981890A8E016987C
:103CE0001890A5E015981890A2E0149818909FE0FD
:103CF0005748006840F20011084088420FD0FFE7A3
:103D000053480068012109040840884203D0FFE7B6
:103D10005148139002E04F481390FFE756E048489F
:103D2000006880B2800B1A9049480068C00F199053
:103D30001A980090032847D800998A0001A080189B
:103D40008746C04600F006B800F012B800F01EB872
:103D500000F02CB8199820B9FFE714984008139088
:103D600005E016980321B0FBF1F01390FFE72CE07B
:103D7000199820B9FFE714988008139005E0169869
:103D80000521B0FBF1F01390FFE71EE0199830B960
:103D9000FFE714980621B0FBF1F0139005E01698A8
:103DA0000721B0FBF1F01390FFE70EE0199820B95E
:103DB000FFE71498C008139005E016980921B0FB9E
:103DC000F1F01390FFE700E0FFE7FFE7139818908A
:103DD0002EE01F480068800718B9FFE7149812907A
:103DE00022E01B48006803210840012803D1FFE7B7
:103DF0001798129017E0164800680321084002281F
:103E000004D1FFE748F2000012900BE01048006870
:103E100003210840032803D1FFE70C48129000E07B
:103E2000FFE7FFE7FFE7FFE71298189000E0FFE7E2
:103E300018981DB07047C046060708090102030420
:103E40000410024000093D002C10024000127A00CC
:103E500030100240003FAB01809FD50081B0014689
:103E60006846018000881F220146114001238B40D3
:103E70008109154A88581843885001B07047C046D8
:103E800081B001466846018000881F22014611402A
:103E900001238B4081090C4A88589843885001B00F
:103EA0007047C04681B001466846018000881F22E5
:103EB0000146114001238B408109034A8858184369
:103EC000885001B07047C0460010024081B0009099
:103ED0000099086840221043086001B07047000054
:103EE00084B0039002A8018003988F49884205D1CD
:103EF000FFE702A800880399C86015E003984068AE
:103F000041F2000108400090009838B1FFE70398A3
:103F10000C30019002980199087004E002A8008812
:103F20000399C860FFE7FFE704B0704780B584B02D
:103F30000390039802902E4988420ED0FFE7029822
:103F40007949884211D1FFE740F20C300190FFF728
:103F5000A9FF0198FFF794FF08E005480090FFF7DC
:103F6000A1FF0098FFF78CFF00E0FFE704B080BDE1
:103F70000E04000083B001900091019880680099C0
:103F8000084204D0FFE702A9012008702BE0019845
:103F90001749884223D1FFE7009870B9FFE70198DD
:103FA0008068C004800F20B1FFE702A900200870DC
:103FB00019E002A90120087015E0009870B9FFE728
:103FC000019880684005800F20B1FFE702A900201A
:103FD000087008E002A90120087004E0FFE702A9C8
:103FE00000200870FFE702A8007803B07047C046C1
:103FF0000038004086B004900391002002900190A8
:104000000090049800680290029843F24001084032
:104010000290049800680190019843F6400108401E
:10402000019004984068009000983E490840009034
:1040300004983D4988423DD1FFE703980168029802
:10404000084302900398416802980843029003983D
:10405000C1680298084302900398016902980843D6
:10406000029003984169029808430290039881697D
:104070000298084302900398806840F200718842D9
:104080000BD0FFE70398806840F60071884204D0A7
:10409000FFE705A90020087040E00398816840F61A
:1040A00000000140029808430290FFE7029804993B
:1040B000086029E00398016801980843019003987B
:1040C00041680198084301900398C168019808432A
:1040D0000190039801690198084301900398416990
:1040E0000198084301900398816901980843019061
:1040F000019804990860039881680098084300902B
:10410000009804994860FFE70499C86940F60002E6
:104110009043C86105A901200870FFE705A8007851
:1041200006B07047FFF000000030014081B0009001
:1041300000990020086000994860009A40F20071E0
:1041400091600099C86000990861009948610099E0
:10415000886101B07047000085B00A4604A9087064
:1041600003A8027002789207130F0F229A40D243DD
:104170000292097802789207120F9140019100781B
:1041800080080090032835D800998A0001A0801883
:104190008746C04600F006B800F00EB800F016B82A
:1041A00000F01EB8029A1849086810400860019A89
:1041B0000868104308601EE0029A1249086810401F
:1041C0000860019A08681043086014E0029A0C49DC
:1041D000086810400860019A0868104308600AE007
:1041E000029A0649086810400860019A086810435E
:1041F000086000E0FFE705B07047C04614000140CA
:10420000100001400C0001400800014084B0002073
:10421000039002903149086801221204104308609B
:10422000FFE70398401C03902C48006801214904D3
:1042300008400290FFE702990020019039B9FFE79A
:1042400003982749401A411E88410190FFE70198D1
:10425000C0070028E5D1FFE7204800688003002858
:1042600002D4FFE7FFE7FEE71E4908680222104379
:104270000522904308601C4900910868086008689E
:104280000860086808600868184A104008600868F4
:104290001D2212041043086010490868012212060A
:1042A00010430860FFE70D4800688001002801D432
:1042B000FFE7F8E70C4908680322904308600868A4
:1042C000022210430860FFE7074800680C210840FD
:1042D000082801D0FFE7F7E704B07047001002405C
:1042E000FFFF00000020024004100240FFFFC277E1
:1042F00080B5FFF78BFF80BD81B000900098042847
:1043000006D1FFE70649086804221043086005E06B
:1043100003490868042290430860FFE701B0704732
:1043200010E000E080B50420C043FFF7E5FF084837
:104330000068FCF718F80749FBF776FF01460648C6
:10434000016000680549FBF732FF0549086080BD40
:10435000000000200024F44A6C02002000007A448F
:104360006802002081B00090009908688022104304
:10437000086001B0704782B00190684601800088F3
:104380000199C86202B0704784B0039002A801800E
:10439000002101910088009003281DD800998A000F
:1043A00001A080188746C04600F006B800F008B8A3
:1043B00000F00AB800F00CB80398406B01900CE0D4
:1043C0000398806B019008E00398C06B019004E0B3
:1043D0000398006C019000E0FFE7019804B070477B
:1043E00084B0039002A8018001A90A80008800908F
:1043F000032841D800998A0001A080188746C0464A
:1044000000F006B800F010B800F01CB800F026B8B4
:10441000039988690C229043886101A80288039956
:1044200088691043886128E00399886940F6004252
:104430009043886101A800880202039988691043AB
:1044400088611AE00399C8690C229043C86101A8E9
:1044500002880399C8691043C8610EE00399C869CE
:1044600040F600429043C86101A800880202039907
:10447000C8691043C86100E0FFE704B0704781B02D
:104480000090009900200880009A01215180009935
:1044900088800099C88001B07047000084B0039004
:1044A00002A80180019200880090032800D964E1ED
:1044B00000998A0001A080188746C04600F006B81F
:1044C00000F063B800F0CBB800F023B90399086A94
:1044D000012290430862039988690322904388610E
:1044E000019802880399086A104308620399086AD0
:1044F000022290430862019882880399086A104357
:10450000086203989E4988420FD0FFE703989D49AF
:1045100088420AD0FFE703989B49884205D0FFE70D
:1045200003989A4988422FD1FFE70399086A042229
:1045300090430862019842880399086A1043086210
:104540000399086A0822904308620198C288039977
:10455000086A104308620399486840F200129043C9
:10456000486001980289039948681043486003999C
:10457000486840F2002290434860019842890399BC
:10458000486810434860FFE7F8E00399086A102282
:10459000904308620399886940F200329043886131
:1045A0000198008802010399086A10430862039980
:1045B000086A2022904308620198808802010399CA
:1045C000086A1043086203986D49884233D1FFE7B7
:1045D0000399086A402290430862019840880201CA
:1045E0000399086A104308620399086A802290437D
:1045F00008620198C08802010399086A10430862A2
:104600000399486840F2004290434860019800894D
:10461000820003994868104348600399486840F64F
:1046200000029043486001984089820003994868DD
:1046300010434860FFE70398F64988420ED1FFE730
:104640000399486840F2004290434860019800890D
:1046500082000399486810434860FFE78EE00399A1
:10466000086A40F20012904308620399C869032265
:104670009043C8610198008802020399086A1043B8
:1046800008620399086A40F2002290430862019888
:10469000808802020399086A104308620398DC4983
:1046A000884235D1FFE70399086A40F200429043FF
:1046B00008620198408802020399086A1043086260
:1046C0000399086A40F60002904308620198C08886
:1046D00002020399086A104308620399486841F28C
:1046E00000029043486001980089020103994868DC
:1046F000104348600399486842F2000290434860C2
:104700000198408902010399486810434860FFE717
:1047100034E00399086A41F2000290430862039969
:10472000C86940F200329043C861019800880203D2
:104730000399086A104308620399086A42F200026A
:10474000904308620198808802030399086A104325
:1047500008620398F74988420ED1FFE70399486839
:1047600044F2000290434860019800898201039955
:10477000486810434860FFE700E0FFE704B0704777
:10478000002C01400040014000440140004801402D
:1047900084B0039002A8018001A90A8000880090DB
:1047A000032841D800998A0001A080188746C04696
:1047B00000F006B800F010B800F01CB800F026B801
:1047C0000399886970229043886101A8028803993F
:1047D00088691043886128E00399886947F20002DC
:1047E0009043886101A800880202039988691043F8
:1047F00088611AE00399C86970229043C86101A8D2
:1048000002880399C8691043C8610EE00399C8691A
:1048100047F200029043C86101A800880202039990
:10482000C8691043C86100E0FFE704B070470000AA
:1048300084B0039002A801800192008800900328B0
:104840001CD800998A0001A08018874600F006B89D
:1048500000F008B800F00AB800F00CB8019803990D
:1048600048630CE001980399886308E00198039974
:10487000C86304E001980399086400E0FFE704B00E
:104880007047000084B0039002A8018001A90A804B
:1048900000880090032841D800998A0001A0801860
:1048A0008746C04600F006B800F010B800F01CB80B
:1048B00000F026B80399886908229043886101A80E
:1048C0000288039988691043886128E00399886900
:1048D00040F600029043886101A800880202039913
:1048E0008869104388611AE00399C86908229043D7
:1048F000C86101A802880399C8691043C8610EE025
:104900000399C86940F600029043C86101A8008875
:1049100002020399C8691043C86100E0FFE704B0D0
:10492000704781B00090009900200880009948806D
:10493000009988800099C880009908810099488171
:1049400001B0704780B58AB00990099808907A49FB
:10495000884226D0FFE708982C49884229D0FFE7F3
:104960000898764988422CD0FFE708987149884218
:104970000FD0FFE70898724988422BD0FFE70898CC
:10498000704988422FD0FFE708986F49884232D09B
:1049900039E025480790FFF785FA0798FFF770FA86
:1049A00032E020480690FFF77DFA0698FFF768FA94
:1049B0002AE01B480590FFF775FA0598FFF760FAA3
:1049C00022E040F208400490FFF76CFA0498FFF7E9
:1049D00057FA19E040F210300390FFF763FA03989A
:1049E000FFF74EFA10E00D480290FFF75BFA0298CD
:1049F000FFF746FA08E008480190FFF753FA0198DC
:104A0000FFF73EFA00E0FFE70AB080BD001000406B
:104A1000002C01400040014012030000110300007F
:104A200004040000010400000B03000081B00090AA
:104A30000099086801229043086001B0704781B076
:104A400000900099086801221043086001B0704787
:104A500082B00190009100980088019988620198C5
:104A60003449884205D0FFE701983349884212D182
:104A7000FFE7019908687022904308600098428817
:104A800001990868104308600098828801990868B5
:104A900010430860FFE7009880680199C862019898
:104AA0002449884219D0FFE701982349884214D04D
:104AB000FFE70198214988420FD0FFE7019820497C
:104AC00088420AD0FFE701981E49884205D0FFE7D7
:104AD00001981D4988420DD1FFE70199086840F20D
:104AE0000032904308600098C2880199086810431A
:104AF0000860FFE701980F4988420FD0FFE701984F
:104B00000F4988420AD0FFE701980E49884205D034
:104B1000FFE701980C49884205D1FFE70098007B28
:104B200001990863FFE70199486901221043486130
:104B300002B07047002C01400004004000200040FB
:104B400000400140004401400048014080B584B06D
:104B5000039002A80180019200880090032800D9E8
:104B6000C9E000998A0001A08018874600F006B8C5
:104B700000F030B800F05EB800F08BB80399086A16
:104B80000122904308620399086A0A239843086245
:104B9000019803880399086A184308620399886991
:104BA00003239843886101984388039988691843CF
:104BB000886103998869F023984388610198C088C7
:104BC000030103998869184388610399086A1043AF
:104BD000086291E00399086A1022904308620399E1
:104BE000086AA0239843086201980088030103998A
:104BF000086A184308620399886940F200339843B1
:104C00008861019840880302039988691843886184
:104C1000039988694FF20003984388610198C0881E
:104C2000030303998869184388610399086A10434C
:104C3000086261E00399086A40F20012904308623A
:104C40000399086A40F60023984308620198008897
:104C500003020399086A184308620399C869032389
:104C60009843C861019843880399C8691843C8618B
:104C70000399C869F0239843C8610198C08803016B
:104C80000399C8691843C8610399086A1043086208
:104C900032E00399086A41F20002904308620399E6
:104CA000086A4AF2000398430862019800880303E7
:104CB0000399086A184308620399C86940F20033EF
:104CC0009843C8610198408803020399C869184352
:104CD000C8610399C8694FF200039843C8610198FD
:104CE000C08803030399C8691843C8610399086A17
:104CF0001043086200E0FFE7039802A90988019ABF
:104D00009288FFF76DFB04B080BD82B001900091E6
:104D1000009A0199C8681043C86002B0704782B019
:104D2000019000910098C0430199086102B070475A
:104D300084B0029001910298C068019908400090E7
:104D4000029800690199084207D0FFE7009820B156
:104D5000FFE703A90120087003E003A90020087001
:104D6000FFE703A8007804B0704782B0019068465E
:104D700001700078012807D1FFE70199486C48F2DB
:104D800000021043486406E00199486C48F20002B2
:104D900090434864FFE702B07047000081B0009084
:104DA0000099002008800099488000998880009A26
:104DB000034991600099C8800099087301B0704759
:104DC000FFFF000080B588B0079006910020059095
:104DD00004900390029007980190374988420AD0C6
:104DE000FFE70198354988420AD1FFE70520FEF721
:104DF000B9FE059005E00220FEF7B4FE059000E044
:104E0000FFE7079800680004002818D5FFE7059819
:104E1000400006994A088018B0FBF1F00290029811
:104E200013490840049002980007400F039004A81B
:104E3000008803A9098808430799C86016E0059807
:104E400006994A088018B0FBF1F0029002980849D0
:104E50000840049002980F210840039004A800889D
:104E600003A9098808430799C860FFE708B080BD17
:104E7000F0FF000080B584B00390039802900E49C3
:104E800088420DD0FFE702980C49884210D1FFE715
:104E90000C480190FFF706F80198FEF7F1FF08E0D3
:104EA00007480090FEF7FEFF0098FEF7E9FF00E0DC
:104EB000FFE704B080BDC046004400400038014018
:104EC000110400000E03000081B0009000990868F2
:104ED00001221043086001B0704782B00190009138
:104EE000019908680122904308600199086840F21E
:104EF000006290430860009A0199086810430860B6
:104F000002B0704782B001900091019908680422B4
:104F100090430860009A019908681043086002B045
:104F2000704782B001900091019908680122904376
:104F300008600199486843F2000290434860009A73
:104F4000019948681043486002B0704782B00190F0
:104F5000009101990868082290430860009A01991D
:104F600008681043086002B0704782B00190009159
:104F7000019908680122904308600199086841F28C
:104F8000000290430860009A019908681043086085
:104F900002B070470FB410B504A9074B02AA0398DA
:104FA00000F0ECF8044602A9002000F083FC204643
:104FB00010BC08BC04B01847B55800082021020CEA
:104FC00001D010211046020A01D01046083902090A
:104FD00001D01046091F820801D01046891E4208E0
:104FE00001D0881E7047081A704702E008C8121FD7
:104FF00008C1002AFAD170477047002001E001C1C2
:10500000121F002AFBD17047F0B51FB486B0099873
:10501000089A030D0021024314D05148514A181830
:10502000504305141198012810981AD0281A401CD2
:1050300000264D4F4D49009601910490002812DA48
:10504000444211E01198012449A3012801D110988C
:10505000C1430698119A84600360C26041600BB03E
:10506000F0BD4042E4E70446210500203F4A001C11
:1050700051410391029012E0E00707D032463B46CF
:1050800001990098FBF7DAFA0191009032463B460D
:1050900010461946FBF7D2FA06460F466410002C5C
:1050A000EAD10498039B0028029A0999089806DA25
:1050B000FBF7C4FA019B009AFBF7C0FA05E0FBF787
:1050C00025FB019B009AFBF721FB04460E460022BC
:1050D000284BFBF7B3FB03D80020C043014607E091
:1050E0000022254B20463146FBF7F6F9FBF786FBFD
:1050F000102409E0002C0ADB0A220023FBF77BF9CD
:10510000079B30321A55641E02460A43F2D111221F
:10511000641C079B121B1C19119B012B03D001233C
:1051200008430ED10AE0084304D01120109000205B
:10513000119077E71098151A6D1E0BE010988242B7
:1051400002DD00236D1C03E0824201DA00236D1EA4
:10515000002BEED0069811998260C16030C07EE7C6
:1051600001FCFFFF104D0000000014400000F03F64
:10517000300000000000F0430000E03FFFB597B0B2
:105180000646002518E2252877D100242746FD4948
:10519000049400E00443761C32780120203A9040C9
:1051A0000842F7D130782A280ED002223078014602
:1051B0003039092916D804990A235943303940183F
:1051C0001443761C0490F1E7189802C804911890D3
:1051D000002904DA012040030443484204900220DD
:1051E0000443761C30782E2814D1042004437078B0
:1051F000761C2A2809D11898761C80C8189009E0D6
:105200000A214F43303FC719761C307801463039A8
:105210000929F5D930786C2810D006DC4C281AD032
:1052200068280ED06A2817D104E0742813D07A2891
:1052300012D110E00120400504430CE001210905D2
:1052400001E0032109050C437178814203D101205B
:1052500000052418761C761C3078119066280BD037
:1052600013DC58287DD009DC00287BD04528F6D0F7
:105270004628F4D047281AD1A5E118E0632835D094
:10528000642870D0652812D19DE170286CD008DCAC
:105290006728F1D069287BD06E280DD06F2806D101
:1052A000BAE073282ED0752871D0782859D01A9A70
:1052B000199990476D1C7EE16002400F022809D0C9
:1052C00003280DD00428189801680DD00D60001D2A
:1052D000189070E11898EA1701680D604A60F6E7C7
:1052E000189801680D80F2E70D70F0E718986A468B
:1052F00001781172001D18900020507202A80090D1
:10530000012005E0189802C8189000200091C043C1
:1053100061070DD5002101E00199491C0191B942B5
:1053200012DA8142F8DB009A515C0029F4D10BE0DB
:10533000002101E00199491C01918142FADB019AA7
:105340000099895C0029F5D1019904981A9B471AA4
:1053500021463846199A00F097FA019940194518E4
:105360000BE04FE02CE113E04EE00098009900784C
:10537000491C00911A9A199990470198401E019072
:10538000401CF2D1214638461A9B199A10E137E0A9
:105390000A200021009001916002410F022907D0EC
:1053A000189A01CA1892C2179446032908D00AE035
:1053B0001898C01DC108C90005C91891944607E096
:1053C00000B2C2179446042902D140B2C1178C46DC
:1053D00000226146944506DA0A4600214042914186
:1053E0008C462D2102E0210504D52B216A4611733C
:1053F000012103E0E10701D02021F7E7029155E008
:105400000A200AE0102008E010200090002104206B
:1054100004430191082703E0082000210191009036
:105420006002410F022907D0189A01CA189200227F
:105430009446032908D008E01898C01DC108C90087
:1054400005C91891944603E080B2042900D1C0B286
:1054500000210291210729D51199702906D0009ABF
:105460001021019B4A401A4305D00EE040216A46B4
:105470001173012108E06146014306D030216A46DC
:1054800011731199517302210291009A0821019B15
:105490004A401A430AD16146014301D1610705D54B
:1054A00030216A46117301217F1E029111995829FA
:1054B00004D035A10E910DA90D910DE037A1F9E7AA
:1054C0006146019B009AFAF796FF0E9B8C469B5C07
:1054D0000D9A521E0D92137061460143F0D10D9842
:1054E00005A9081A20300190600703D501200004A7
:1054F000844300E001270198874201DD381A00E06B
:105500000020019900904118029809180498401A47
:105510000490E00306D421461A9B199A049800F0DF
:10552000B3F94519002706E003A81A9AC05D199936
:1055300090476D1C7F1C02988742F5DBE0030CD579
:1055400021461A9B199A049800F09EF9451904E027
:105550001A9A3020199990476D1C0099481E0090A6
:105560000029F5DC08E00D980D990078491C0D9193
:105570001A9A199990476D1C0199481E01900029AB
:10558000F1DC63E10928010030313233343536373C
:10559000383961626364656600000000303132337F
:1055A000343536373839414243444546000000001F
:1055B00000F05AF94519761C3078002800D0E2E551
:1055C00028461BB0F0BD600700D406271898C01D00
:1055D000C108C90048680A680831C30FDB07189181
:1055E000190001D09CA108E0210501D59BA104E090
:1055F000E10701D09AA100E09AA1430011985B084D
:10560000109165280CD006DC452809D046281DD00D
:10561000472841D141E0662818D067283CD13CE0BA
:105620000021112F01DB112000E0781C0191009076
:1056300008A911A8FFF7E8FC139905910021119A18
:1056400015927F1C12980197009150E00120C0072D
:1056500003900120019008A9009711A8FFF7D4FC3E
:10566000139A149905920022119B00921298159397
:10567000059A0192002901D0104602E0791C4018D9
:105680000190381A01D5019804E04042401E009074
:10569000781C0190C01B029043E0012F00DA012723
:1056A0000021112F01DD112000E03846019100900A
:1056B00008A911A8FFF7A8FC13990591119A0021D8
:1056C000129815920091019721070CD40599B942BF
:1056D00001DB019900E00191012904DD159A491EC1
:1056E000515C302906D0B84201DA011D05DA0121EA
:1056F000029115E00199491EEDE7002805DC0099AB
:10570000411800910199091A03E0019A411C914244
:1057100000DD01910099401A401C02900120C00751
:105720000390200706D402990198814202DB0020F1
:10573000C043029000206946C87707AF0121039853
:105740000337C907884224D0022011902B201290E1
:10575000039800280CDA404203902D20129007E0B5
:105760000A210398FBF790F830317F1E03903970BF
:105770001199481E11900029F2DC03980028EFD1FE
:10578000791E129808703078202108404530BF1EDD
:10579000387006A8C01BC01D039010980078002820
:1057A00000D00120019941180298C01709180398E8
:1057B00009180498401A401E0490E00306D42146BC
:1057C0001A9B199A049800F05FF845191098007810
:1057D000002803D01A9A199990476D1CE00324D52C
:1057E00021461A9B199A049800F04EF845191CE0BE
:1057F0000098002807DB00990598884203DD15987A
:10580000405C199901E0199930201A9A9047009844
:105810006D1C401C00900298401E0290002804D18C
:105820001A9A2E20199990476D1C0199481E0190D3
:105830000029DDDC05E038781A9A7F1C1999904719
:105840006D1C0399481E03900029F4DC21461A9B25
:10585000199A0498ACE600002D0000002B0000000F
:105860002000000000000000F8B5044600251E4698
:105870001746880404D405E039462020B0476D1C43
:10588000641EF9D52846F8BDFFB50446002581B051
:105890001E46C80301D5302700E02027880404D520
:1058A00005E038460399B0476D1C641EF9D52846BB
:1058B00005B0F0BD0A68531C0B6010707047000003
:1058C00000000000000000000000000004040404C8
:1058D00004000004000014140A000000000000008E
:1058E000000000000A0A1F0A0A1F0A0A000000043A
:1058F0000E1505060C14150E0400000012150D15EA
:105900002E2C2A1200000000040A0A36151529164A
:10591000000002020100000000000000000010086A
:105920000804040404040808100002040408080819
:1059300008080404020000000004150E0E150400FF
:10594000000000000008083E0808000000000000F9
:105950000000000000000202010000000000003F03
:105960000000000000000000000000000000000235
:1059700000000020101008080404020201000000CA
:105980000E1111111111110E000000000406040483
:105990000404040E000000000E1111080402011F8F
:1059A000000000000E11100C1010110E000000007D
:1059B000080C0C0A091F081C000000001F01010F41
:1059C0001110110E000000000C12010D1311110E28
:1059D000000000001E100808040404040000000079
:1059E0000E11110E1111110E000000000E111119EF
:1059F000161009060000000000000400000000046A
:105A0000000000000000000400000004040000008A
:105A100010080402020408100000000000003F000B
:105A20003F000000000000000204081010080402FB
:105A3000000000000E111108040400040000000022
:105A40001C22292D2D1D221C0000000004040C0A1C
:105A50000A1E1233000000000F12120E1212120F53
:105A6000000000001E1101010101110E00000000E4
:105A70000F1212121212120F000000001F120A0E53
:105A80000A02121F000000001F120A0E0A0202077B
:105A9000000000001C1201013911120C000000006E
:105AA0003312121E12121233000000001F040404ED
:105AB0000404041F000000003E0808080808080845
:105AC0000907000037120A060A1212370000000008
:105AD000070202020202223F000000003B1B1B1BC8
:105AE00015151535000000003B1216161A1A12176C
:105AF000000000000E1111111111110E0000000024
:105B00000F12120E02020207000000000E11111106
:105B10001117190E180000000F12120E0A12123778
:105B2000000000001E1101060810110F0000000007
:105B30001F1504040404040E0000000033121212A6
:105B40001212120C000000003312120A0A0C040494
:105B500000000000151515150E0A0A0A00000000C5
:105B60001B0A0A04040A0A1B000000001B0A0A0A96
:105B70000404040E000000001F0908040402121FA0
:105B800000001C0404040404040404041C000002B7
:105B9000020404040808081010000E080808080889
:105BA000080808080E00040A0000000000000000B9
:105BB000000000000000000000000000003F0204A0
:105BC0000000000000000000000000000000000CC9
:105BD000121C123C000000030202020E1212120EEE
:105BE000000000000000001C1202120C000000184F
:105BF0001010101C1212123C000000000000000CDB
:105C0000121E021C000000182404041E0404041EBA
:105C1000000000000000003C120C021C221C0003CB
:105C20000202020E121212370000000404000006E5
:105C30000404040E000000080800000C080808080E
:105C4000080700030202021A0A060A1300000007EE
:105C5000040404040404041F000000000000000FFA
:105C600015151515000000000000000F1212123764
:105C7000000000000000000C1212120C00000000D6
:105C80000000000F1212120E020700000000001C9C
:105C90001212121C103800000000001B060202073E
:105CA000000000000000001E020C101E000000009A
:105CB0000004041E0404041C000000000000001B7B
:105CC0001212123C000000000000001B0A0A04042B
:105CD0000000000000000015150E0A0A0000000078
:105CE0000000001B0A040A1B000000000000003333
:105CF00012120C08040300000000001E0804041E19
:105D0000000018080808080C080808081800080807
:105D10000808080808080808080806040404040815
:105D2000040404040600160900000000000000003E
:105D30000000000000000000000000000000000063
:105D400000000000000808080808080800001818EB
:105D5000000000486C241200000000000000000059
:105D600000000000002424247F1212127F1212125D
:105D700000000000081C2A2A0A0C1828282A2A1CBD
:105D8000080800000022251515152A5854545422DD
:105D900000000000000C1212120A76252911916EE3
:105DA00000000006060403000000000000000000E0
:105DB00000000040201010080808080808101020F3
:105DC0004000000204080810101010101008080409
:105DD00002000000000008086B1C1C6B0808000093
:105DE000000000000000080808087F0808080800F4
:105DF0000000000000000000000000000000060697
:105E000004030000000000000000FE00000000008D
:105E10000000000000000000000000000000060676
:105E200000000000804040202010100808040402F8
:105E3000020000000018244242424242424224181A
:105E40000000000000080E08080808080808083EBE
:105E500000000000003C4242422020100804427E24
:105E600000000000003C4242201820404042221C1A
:105E70000000000000203028242422227E202078E8
:105E800000000000007E0202021A26404042221C4E
:105E90000000000000382402021A26424242241860
:105EA00000000000007E22221010080808080808E0
:105EB00000000000003C4242422418244242423C7E
:105EC0000000000000182442424264584040241C54
:105ED0000000000000000000181800000000181862
:105EE00000000000000000000008000000000008A2
:105EF000080400000040201008040204081020409C
:105F000000000000000000007F0000007F00000093
:105F100000000000000204081020402010080402C5
:105F200000000000003C42424640201010001818BB
:105F300000000000001C225A555555552D42221CC8
:105F400000000000000808181414243C224242E714
:105F500000000000001F2222221E22424242221F75
:105F600000000000007C4242010101010142221CAC
:105F700000000000001F2242424242424242221FD1
:105F800000000000003F4212121E12120242423F65
:105F900000000000003F4212121E1212020202070D
:105FA00000000000003C2222010101712122221C7C
:105FB0000000000000E7424242427E42424242E785
:105FC00000000000003E0808080808080808083E0D
:105FD00000000000007C10101010101010101010A5
:105FE000110F0000007722120A0E0A1212222277E5
:105FF0000000000000070202020202020202427FC9
:10600000000000000077363636362A2A2A2A2A6B04
:106010000000000000E346464A4A5252526262477C
:1060200000000000001C2241414141414141221C2D
:1060300000000000003F424242423E0202020207CC
:1060400000000000001C2241414141414D53321CDF
:1060500060000000003F4242423E1212222242C72C
:1060600000000000007C4242020418204042423EF0
:1060700000000000007F4908080808080808081CFC
:106080000000000000E74242424242424242423C9B
:106090000000000000E742422224241414180808DB
:1060A00000000000006B494949495555362222221B
:1060B0000000000000E7422424181818242442E7B6
:1060C0000000000000772222141408080808081CA9
:1060D00000000000007E2120101008040442423F0E
:1060E00000000078080808080808080808080808D8
:1060F0007800000002020404080808101020202084
:106100004040001E10101010101010101010101031
:106110001E000038440000000000000000000000E5
:10612000000000000000000000000000000000006F
:1061300000FF000608000000000000000000000052
:106140000000000000000000003C4278444242FC95
:106150000000000000030202021A26424242261AF0
:106160000000000000000000003844020202443831
:10617000000000000060404040784442424264D841
:106180000000000000000000003C427E0202423C91
:106190000000000000F08808087E08080808083E93
:1061A0000000000000000000007C22221C023C4293
:1061B000423C000000030202023A4642424242E7E9
:1061C00000000000000C0C00000E08080808083E43
:1061D0000000000000303000003820202020202067
:1061E000221E0000000302020272120A1612227717
:1061F00000000000000E0808080808080808083E0B
:106200000000000000000000007F9292929292B77E
:106210000000000000000000003B4642424242E70E
:106220000000000000000000003C42424242423CAC
:106230000000000000000000001B26424242221E17
:106240000207000000000000007844424242447807
:1062500040E000000000000000774C040404041F2C
:106260000000000000000000007C42023C40423E72
:106270000000000000000008083E08080808083078
:10628000000000000000000000634242424262DC65
:10629000000000000000000000E742242414080869
:1062A000000000000000000000EB49495555222283
:1062B0000000000000000000007624181818246E6A
:1062C000000000000000000000E742242414180829
:1062D0000807000000000000007E22100808447E2D
:1062E000000000C02020202020102020202020207E
:1062F000C0001010101010101010101010101010FE
:1063000010100006080808080810080808080808FF
:1063100006000C32C2000000000000000000000077
:10632000000000000000000000000000000000006D
:10633000000000000000000000000000000000005D
:10634000000000000000000000000000000000004D
:10635000000000000000000000006000600060001D
:10636000600060006000600040002000200020000D
:1063700000000000000060006000600000000000FD
:1063800000000000000060066006300398018800ED
:1063900044000000000000000000000000000000B9
:1063A00000000000000000000000000000000000ED
:1063B00000000000000000000000100210021002A7
:1063C0001002FE07FE070802080108010801080183
:1063D000FE07FE070401040104010401000000009F
:1063E000000000000000000040004000F0015803E1
:1063F0004C03CC034C0058007000E000C001C00109
:1064000040034C035C034C034801F0004000400093
:10641000000000000000000000000E010A019100D1
:1064200091009100510051003A00AE03A0025004C7
:106430005004480448044804840284030000000017
:106440000000000000000000000038006C006C003C
:106450006C006C006C002C0098071C011A013301C1
:1064600033016301E300C308C6093C0700000000D4
:106470000000000000000C001C00100010000800CC
:106480000400000000000000000000000000000008
:1064900000000000000000000000000000000000FC
:1064A00000000000000000040002000180008000E5
:1064B000400040002000200020002000200020009C
:1064C0002000400040008000800000010002000425
:1064D000000000000000020004000800100010008E
:1064E00020002000400040004000400040004000EC
:1064F00040002000200010001000080004000200EE
:10650000000000000000000000000000000040004B
:10651000C0004000460C4E0FD001F0015E0F460C4B
:1065200040004000400000000000000000000000AB
:10653000000000000000000000000000000000005B
:1065400040004000400040004000FE0F400040007E
:10655000400040004000000000000000000000007B
:10656000000000000000000000000000000000002B
:10657000000000000000000000000000000000001B
:106580000000000000000C001C00100010000800BB
:1065900004000000000000000000000000000000F7
:1065A00000000000000000000000FE0700000000E6
:1065B00000000000000000000000000000000000DB
:1065C00000000000000000000000000000000000CB
:1065D00000000000000000000000000000000000BB
:1065E0000000000000001C001C001C000000000057
:1065F000000000000000000400060002000300018B
:106600000001800080004000400060002000200069
:1066100010001000080008000C0004000600020032
:10662000000000000000000000000000F0009801E1
:106630000C030C03060606060606060606060606F4
:10664000060606060C030C039801F000000000008B
:1066500000000000000000000000000040007C007E
:10666000600060006000600060006000600060002A
:1066700060006000600060006000FC03000000003B
:10668000000000000000000000000000F80084018D
:10669000020306030603000300018001C00060003E
:1066A00020001000080204020602FE0300000000A1
:1066B0000000000000000000000000007800C6009C
:1066C0008601860180018001C00070008001000108
:1066D00000030003060306038601F8000000000023
:1066E00000000000000000000000000080018001A8
:1066F000C001A001A00190018801880184018201EC
:10670000FE0F8001800180018001E0070000000091
:10671000000000000000000000000000FC03040076
:106720000400040004000400F4008C0104030003CE
:1067300000030603060382018401F8000000000044
:10674000000000000000000000000000E00118034D
:106750000C030C0004000600E60116030E060606F4
:106760000606060604060C021803F00000000000EE
:10677000000000000000000000000000F8070C0608
:10678000040204010001000180008000400040007C
:1067900040006000600060006000600000000000D9
:1067A000000000000000000000000000F8010C03E1
:1067B0000606060606060C021C03F000C8010C03C0
:1067C00006060606060606060C03F0010000000099
:1067D000000000000000000000000000F0000C01BC
:1067E0000C03060206060606060606078C06780651
:1067F0000006000300030C018C017800000000007B
:106800000000000000000000000000000000000088
:10681000000000000000E000E000E00000000000D8
:10682000000000000000E000E000E00000000000C8
:106830000000000000000000000000000000000058
:106840000000000000006000600000000000000088
:106850000000000000000000600060004000200018
:106860002000000000000000000000040002000101
:106870008000400020001000080004000800100004
:106880002000400080000001000200040000000021
:1068900000000000000000000000000000000000F8
:1068A000000000000000FE07000000000000FE07DE
:1068B00000000000000000000000000000000000D8
:1068C00000000000000000000000040008001000AC
:1068D00020004000800000010002000400020001CE
:1068E00080004000200010000800040000000000AC
:1068F000000000000000000000000000E003180697
:10690000040C040C0C0C0C0C00078001400040002F
:10691000400000000000E000E000E0000000000097
:1069200000000000000000000000E00018030C025E
:10693000CC0564056605A605B604B604B604B6041F
:10694000B602E4010C040C021803F0000000000081
:106950000000000000000000000000006000600077
:106960005000D00090009000880088010801F801D4
:10697000040304030402020202060F0F00000000D9
:10698000000000000000000000000000FE008C037A
:106990000C030C030C030C038C01FC000C030C0215
:1069A0000C060C060C060C060C03FE010000000091
:1069B000000000000000000000000000E0031803D9
:1069C0000C060C040404060006000600060006007F
:1069D000060006040C040C021803F000000000007E
:1069E0000000000000000000000000007F008C019B
:1069F0000C030C030C060C060C060C060C060C060D
:106A00000C060C060C030C038C017F000000000038
:106A1000000000000000000000000000FF0306036B
:106A200006040604060086008600FE008600860036
:106A300086000600060406040602FF0300000000AC
:106A4000000000000000000000000000FF0306033B
:106A500006040604060086008600FE008600860006
:106A6000860006000600060006001F000000000069
:106A7000000000000000000000000000F00018010D
:106A80000C020C0204020600060006000600C60FF7
:106A9000060306030C030C031803F00000000000BB
:106AA0000000000000000000000000000F0F0606BC
:106AB00006060606060606060606FE07060606067D
:106AC000060606060606060606060F0F000000006C
:106AD000000000000000000000000000FC03600057
:106AE00060006000600060006000600060006000A6
:106AF00060006000600060006000FC0300000000B7
:106B0000000000000000000000000000F807C000C6
:106B1000C000C000C000C000C000C000C000C00075
:106B2000C000C000C000C000C000C000C6006600B9
:106B30003C0000000000000000000000CF038601C0
:106B4000C60046002600160036002E006E004600E5
:106B5000C60086008601060106038F0700000000BC
:106B60000000000000000000000000001F00060000
:106B700006000600060006000600060006000600E5
:106B800006000600060406040602FF0300000000DB
:106B9000000000000000000000000000070786035E
:106BA00086038E038E034E034E034A035A035A0391
:106BB0003A03320332033203120387070000000056
:106BC0000000000000000000000000008E0F0C021A
:106BD0001C021C0234023402640264024402C40235
:106BE000840284038403040304031F0200000000E2
:106BF000000000000000000000000000F00098010C
:106C00000C030C020606060606060606060606061F
:106C1000060606060C020C039801F00000000000B6
:106C2000000000000000000000000000FF0006035C
:106C3000060606060606060606068603FE0006008B
:106C4000060006000600060006001F000000000007
:106C5000000000000000000000000000F0009801AB
:106C60000C030C02060606060606060606060606BF
:106C7000060676064C02CC039801F000800700035C
:106C8000000000000000000000000000FF010603FB
:106C900006060606060606060603FE004600C600B1
:106CA000860086010603060306060F0E000000009C
:106CB000000000000000000000000000F8020C03CB
:106CC0000602060206000E003C00F800E003800306
:106CD00000070206020606060C03F0010000000091
:106CE000000000000000000000000000FE07620439
:106CF0006108610860006000600060006000600082
:106D000060006000600060006000F80100000000AA
:106D10000000000000000000000000001E070C0240
:106D20000C020C020C020C020C020C020C020C02F3
:106D30000C020C020C020C021801F0000000000012
:106D40000000000000000000000000000F07060225
:106D5000040104010C010C018800880098009800CF
:106D600050005000700030002000200000000000A3
:106D7000000000000000000000000000F70E6204A8
:106D800042044604460464026402E402E4029C02F3
:106D90009C0198019801880188008800000000008B
:106DA0000000000000000000000000009E070C0131
:106DB000080118019000B000600020006000600031
:106DC000D00090008801080104038E070000000035
:106DD0000000000000000000000000000F0F06048B
:106DE00004020C0208011801B800B0007000600035
:106DF00060006000600060006000F80100000000BA
:106E0000000000000000000000000000FC070C0271
:106E100006030201800180004000400020002000A5
:106E20001000180008040C040402FE030000000017
:106E3000000000000000E0032000200020002000EF
:106E40002000200020002000200020002000200042
:106E50002000200020002000200020002000E0036F
:106E60000000000000000000000004000400080012
:106E7000080010001000100020002000400040001A
:106E8000C00080008000000100010002000200023A
:106E90000004000000007C00400040004000400072
:106EA00040004000400040004000400040004000E2
:106EB00040004000400040004000400040007C0096
:106EC00000000000600090000801000000000000C9
:106ED00000000000000000000000000000000000B2
:106EE00000000000000000000000000000000000A2
:106EF0000000000000000000000000000000000092
:106F00000000000000000000000000000000000081
:106F10000000000000000000000000000000000071
:106F2000FF0F0000000018006000000000000000DB
:106F30000000000000000000000000000000000051
:106F40000000000000000000000000000000000041
:106F50000000000000000000000000000000000031
:106F6000000000000000F0010C030C030003E0032C
:106F70001C030E03060306038E0B7C0E00000000AC
:106F80000000000000000000000008000E000C00DF
:106F90000C000C000C00CC013C031C060C060C067B
:106FA0000C060C060C060C021C03E4010000000099
:106FB00000000000000000000000000000000000D1
:106FC000000000000000F0008C018C01860106002A
:106FD0000600060006020C020C01F0000000000092
:106FE000000000000000000000000002C0030003D9
:106FF00000030003000378038C030C03060306035D
:1070000006030603060304038C0778010000000052
:107010000000000000000000000000000000000070
:10702000000000000000E001180308020C060C0636
:10703000FC070C000C0018041802E001000000001E
:10704000000000000000000000000000C003600617
:10705000300630003000FE013000300030003000DB
:1070600030003000300030003000FC010000000033
:107070000000000000000000000000000000000010
:10708000000000000000F007D8068C018C018C0184
:107090009801F8000C00FC00CC03060306038E03E5
:1070A000F800000000000000000008000E000C00C6
:1070B0000C000C000C00EC011C030C030C030C0373
:1070C0000C030C030C030C030C039E0700000000D0
:1070D00000000000000000000000000060006000F0
:1070E0000000000040007C00600060006000600064
:1070F00060006000600060006000FC0300000000B1
:10710000000000000000000000000000C001C001FD
:10711000000000000001F001800180018001800179
:107120008001800180018001800180018001CC000C
:107130007C00000000000000000008000E000C00B1
:107140000C000C000C008C038C008C004C006C00BC
:107150005C008C008C010C010C039E0700000000F9
:107160000000000000000000000040007C00600003
:10717000600060006000600060006000600060000F
:1071800060006000600060006000FC030000000020
:1071900000000000000000000000000000000000EF
:1071A0000000000000003707EE0666066606660669
:1071B00066066606660666066606FF0F00000000A5
:1071C00000000000000000000000000000000000BF
:1071D000000000000000EE011C030C030C030C0374
:1071E0000C030C030C030C030C039E0700000000AF
:1071F000000000000000000000000000000000008F
:10720000000000000000F00098010C0306060606CE
:107210000606060606060C030C03F000000000003C
:10722000000000000000000000000000000000005E
:10723000000000000000EE011C030C060C060C060A
:107240000C060C060C060C031C03EC010C000C00D5
:107250003E000000000000000000000000000000F0
:1072600000000000000078028C030C0306030603F4
:1072700006030603060304038C03780300030003DC
:10728000C007000000000000000000000000000037
:107290000000000000009F03580638061800180080
:1072A00018001800180018001800FF000000000067
:1072B00000000000000000000000000000000000CE
:1072C000000000000000F0031C030C020C02380058
:1072D000F000C003040304038C03FC010000000061
:1072E000000000000000000000000000000020007E
:1072F000200030003000FE0130003000300030004F
:1073000030003000300030023002E00100000000A8
:10731000000000000000000000000000000000006D
:107320000000000008028E030C030C030C030C0386
:107330000C030C030C030C039C07780100000000F5
:10734000000000000000000000000000000000003D
:107350000000000000001E070C02080108011801CF
:107360009000B000B000600060002000000000004D
:10737000000000000000000000000000000000000D
:10738000000000000000F70E62044604640264027C
:10739000EC029C019801980198010800000000008F
:1073A00000000000000000000000000000000000DD
:1073B000000000000000BC0718011001B0006000D0
:1073C0006000E0009000080108039E070000000034
:1073D00000000000000000000000000000000000AD
:1073E0000000000000009E0708010801080190004D
:1073F0009000B000600060006000200020002400C9
:107400001C00000000000000000000000000000060
:10741000000000000000FC018401C4004400600082
:1074200020003000180208020C03FC0100000000DC
:107430000000000000000003800080008000800049
:10744000800080008000800040002000400080001C
:1074500080008000800080008000800080000003A9
:10746000000040004000400040004000400040005C
:10747000400040004000400040004000400040000C
:1074800040004000400040004000400040004000FC
:107490004000000000000C00100010001000100060
:1074A000100010001000100020004000200010000C
:1074B00010001000100010001000100010000C0050
:1074C000000000001C002204C20480030000000031
:1074D00000000000000000000000000000000000AC
:1074E000000000000000000000000000000000009C
:1074F000000020202020202020200025332E31666F
:107500002525202000202050574D200025312E32E7
:107510006656200025332E3066487A2000253364D5
:107520004B487A0025322E30664B487A00202533AE
:1075300064487A00B4F2BFAA00CAE4B3F6D7B4CC68
:10754000AC00CAE4C8EBB7F9D6B500D5BCBFD5B11D
:10755000C800CAE4C8EBC6B5C2CA00CAE4B3F6C6DE
:10756000B5C2CA00B9D8B1D500BCF2D2D7CABEB232
:10757000A8C6F700CAE4840044012F02D205050022
:107580007F0454057C055705740554045406B3F66E
:107590002000220222022202FE03200020002104F9
:1075A00021042104FF070004D7B484008402850469
:1075B0008600F407840044014601450124022402A8
:1075C0001404CCAC20002000FF07500088002401E8
:1075D000430620004A024A040905F001C6B5C8075F
:1075E0003A018A00CA077F0448054A056A05510521
:1075F000080184024304C2CA2000FF0710008A0267
:107600007C0120005401FA022000FF072000200026
:10761000D5BC200020002000E00720002000FE0351
:10762000020202020202FE030202BFD51000200085
:10763000FF078904040102020000FE03200020006D
:107640002000FF07B1C842004200420442025E012E
:10765000C2004200420052004A0446048207CAE4C3
:10766000840044012F02D20505007F0454057C05E7
:107670005705740554045406C8EB0C001000200094
:1076800020005000500050008800880004010202D1
:107690000104B7F9C4070400DF075504D507150036
:1076A000D5075505DD074405C4074404D6B5440095
:1076B000F4074200F2031302F2031202F203120271
:1076C000F2031202FA07BCF20402FC7E1209A110B6
:1076D0000800D01F0410E41324122412E41324120F
:1076E0002412E41304100418D2D7F00F1008100865
:1076F000F00F10081008F00F20001000F83F44228F
:1077000042222021102188144008CABE0000FC1F1C
:107710000000000000000000FF7F8000800088085B
:107720008810842082408140A0004000B2A800045C
:1077300004040804C87F414442245204D03F482135
:1077400048114712440A4404240A24119060C6F7E1
:1077500000007C3E442244227C3E80048008FF7F5F
:10776000400130060C1803607C3E442244227C3EDB
:10777000B4F208000800C87F08043F0408040804A5
:10778000280418040C040B040804080408040A055F
:107790000402BFAA0000FE3F1004100410041004ED
:1077A0001004FF7F100410041004100408040804DF
:1077B00004040204B9D80808100810040000FC1FD3
:1077C000800080008000FF7F800040014001200297
:1077D00010040C180360B1D50400E83F002002211A
:1077E0000221FA2F022182214221222112210A2183
:1077F0004221822002280210BCF20000002040003A
:1078000060C000206000F0EF3F98300108110224B2
:107810000902C0FE1F80000830000810FE08104258
:1078200008104208104208107E0810420810420852
:10783000107E0810420810000810800910000E1079
:107840000004D2D7000000000000C0FF03C0000207
:10785000C00002C00002C0FF03C00002C00002C09E
:10786000FF03C0030280010080FF1FC08C1820C4EA
:107870000810460808630880210840300C301804BE
:10788000004604808107600001000000CABE0000BD
:1078900000000000000004F0FF0F000000000000E6
:1078A000000000000000000020FEFF3F0018000064
:1078B0001800809800C01801C01802601804301821
:1078C0000C101818081830041810821F00000E0041
:1078D000000400000000B2A800000000C0001080FA
:1078E0000030800020800000FF3F00831086820867
:1078F0008C820048820048820040FE1F201208202F
:1079000012041022041022021C430318810118C122
:1079100001986006D8100C580C7820030000000075
:10792000C6F7000000000000F0E30F30660C306680
:107930000C30660C30660CF0E70F30FE0D100C13A7
:10794000FCFF3F00420000810080000160000EF05B
:10795000E73F2C260C20260C20260C20260CE0E7E6
:107960000F20260C1022040000000000907900086F
:107970000000002008000000EA4F00089879000885
:1079800008000020400D0000FA4F00080000000031
:0879900000A24A0401000000FE
:04000005080000CD22
:00000001FF
