:020000040800F2
:10000000100400209D010008631800084F0F00082D
:10001000611800081D0500085D19000800000000B7
:100020000000000000000000000000008718000829
:100030001F05000800000000851800088918000846
:10004000B7010008B7010008B7010008B7010008B0
:10005000B7010008B7010008B7010008B7010008A0
:10006000B7010008B7010008B7010008B701000890
:10007000B7010008B7010008B7010008B701000880
:10008000B7010008B7010008B7010008B701000870
:10009000B7010008B7010008B7010008B701000860
:1000A000B7010008B7010008B7010008B701000850
:1000B000B7010008B7010008B7010008B701000840
:1000C000B7010008B7010008B7010008B701000830
:1000D000B7010008B7010008B7010008B701000820
:1000E000B7010008B7010008B7010008B701000810
:1000F000B7010008B7010008B7010008B701000800
:10010000000000000000000000000000B70100082F
:10011000B7010008B7010008B7010008B7010008DF
:10012000B7010008B7010008B7010008B7010008CF
:10013000B7010008B701000800000000000000003F
:10014000B7010008B7010008B7010008000000006F
:10015000000000000000000000000000000000009F
:100160000000000000000000B7010008B70100080F
:10017000B7010008000000000000000000000000BF
:1001800000000000B7010008DFF80CD000F0A4F96F
:1001900000480047811900081004002006488047E5
:1001A00006480047FEE7FEE7FEE7FEE7FEE7FEE75C
:1001B000FEE7FEE7FEE7FEE7F51800088901000804
:1001C0002DE9FE4F804681EA0300C00F0C460090E7
:1001D00021F0004123F00045B8EB0200A94105D20F
:1001E0004046214690461C460B46024623F00040FE
:1001F000104347D0270DC7F30A00C3F30A510290FA
:10020000401A019040286BDAC3F3130040F4801BBE
:100210000098924620B10023D2EB030A63EB0B0B4C
:1002200001985946C0F14002504600F09FF806463A
:100230000D4650465946019A00F0A7F810EB080009
:100240006141002487EA115284EAE7731A4340D0DF
:10025000009A62B3019A012A4FEA075215DC001B8B
:1002600061EB02014FF0004202EA0752CDE9004281
:10027000001C41F5801132462B4600F0DEF803B039
:10028000BDE8F08F40462146F9E7001B61EB020113
:10029000001C41F5801300185B412018A2F50017DF
:1002A00047EB030140EAD570B6196D4111E06D08C6
:1002B0004FEA360645EAC0754FEA0752001B61EB6C
:1002C0000201001C41F5801149084FEA3000001975
:1002D000514132462B4603B0BDE8F04F00F09EB8C6
:1002E0000098012240000023D0EB020263EBE07390
:1002F000009821464FEAE074B8EB000061EB04017E
:10030000E9E783F000435BE781F0004158E700F044
:10031000004230F000400AD0C10D01F56071C0F319
:10032000160042EA0151C2084007114370470020FD
:100330000146704701F0004330B421F0004150EA1B
:10034000010206D00A0DA2F56072C1F31301002A62
:1003500002DC30BC00207047440F44EAC104C100F5
:10036000E01830BC00EBC25000F021B8202A04DBBA
:10037000203A00FA02F1002070479140C2F12003B8
:1003800020FA03F3194390407047202A06DBCB176D
:10039000203A41FA02F043EAE07306E041FA02F340
:1003A000D040C2F12002914008431946704700290D
:1003B000A8BF7047401C490008BF20F001007047EB
:1003C00010B4B0FA80FC00FA0CF050EA010404BF4B
:1003D00010BC704749B1CCF1200421FA04F411FAA1
:1003E0000CF118BF012121430843A3EB0C01CB1DE5
:1003F0004FEA00614FEA102042BF002010BC704756
:1004000000EBC35010440029A4BF10BC7047401C2F
:10041000490008BF20F0010010BC704710B5141E41
:1004200073F1000408DA401C41F1000192185B41AD
:100430001A4301D120F0010010BD2DE9F04D924684
:100440009B4611B1B1FA81F202E0B0FA80F220329B
:100450009046FFF78BFF04460F4640EA0A0041EA48
:100460000B0153465A46084313D0114653EA010084
:1004700019D0C8F14002504600F040F805460E463B
:10048000504659464246FFF771FF084305D0012008
:1004900004E020463946BDE8F08D0020054346EAD9
:1004A000E0762C4337430A986305E40AA0EB080082
:1004B0000022FD0A44EA47540A3002D500200146D2
:1004C000E9E7010510196941DDE9084500196941AD
:1004D000BDE8F04DA2E70000064C074D06E0E068DD
:1004E00040F0010394E8070098471034AC42F6D37B
:1004F000FFF74EFEA8490008C8490008202A04DB7F
:10050000203A21FA02F00021704721FA02F3D0408C
:10051000C2F120029140084319467047FEE7704738
:1005200070B5044600F0D8F80546601C02D00448B7
:100530000078044400F0D0F8401BA042FAD370BD0C
:10054000040000202DE9F84FDFF864B100234FF0DC
:10055000010C4FF0030A4FF00F090BF1040EA0E05D
:100560000CFA03F6324072D04C68022C01D0122CE7
:100570000ED1DC0800EB8408D8F820405D07EF0EB0
:1005800009FA07F5AC430D69BD402543C8F8205072
:1005900007685D0091F804800AFA05F408F0030882
:1005A000A74308FA05F848EA0708C0F800804F6832
:1005B000012F05D0022F03D0112F01D0122F11D1FE
:1005C0008768D1F80C80A74308FA05F848EA0708BD
:1005D000C0F808804768B7430E79C6F300169E40FE
:1005E0003E434660C668A6438C68AC403443C46052
:1005F0004C68E40054D52F4CA56945F00105A56170
:10060000A46923F0030504F0010400942A4C2E1978
:10061000B4689D072F0F09FA07F5AC43B0F1904F6E
:1006200004D0264DA84203D1012512E0002510E098
:10063000234DA84201D102250BE0224DA84201D151
:10064000032506E0204DA84202D1042501E027E061
:100650000525BD402543B560DBF800405D464E688A
:100660009443F60300D514432C60DEF80040754631
:100670004E689443B60300D514432C600C4D0835E6
:100680002C684E689443F60200D514432C60084D44
:100690000C352C684E689443B60200D514432C6088
:1006A0005B1C0A6832FA03F47FF45AAFBDE8F88F96
:1006B0000004014000100240000001400004004816
:1006C00000080048000C0048001000480AB1816191
:1006D00070478162704700000148806870470000E1
:1006E000040000200248816802781144816070474C
:1006F00004000020074810B5016841F010010160B6
:10070000032000F04BF8002000F006F800F024F879
:10071000002010BD0020024070B50D4D04464FF47E
:100720007A712878B1FBF0F00A490968B1FBF0F062
:1007300000F0F5FB48B9102C07D200222146501ECC
:1007400000F00CF800206C6070BD012070BD00004E
:10075000040000200000002070470000F0B40E4BA1
:100760001B680C46C3F30223C3F10705042D00D90F
:100770000425191D072901D2002300E0DB1E0126F4
:1007800006FA05F1491E214099409E40761E16400A
:100790003143F0BC01F066B80CED00E0064900F012
:1007A000070208684FF6FF03184040EA0220034A98
:1007B00010430860704700000CED00E00000FA05EF
:1007C0002DE9F0470F46050069D04A4E306800F029
:1007D0000700B84209D2306820F007003843306083
:1007E000306800F00700B84259D12878424C8007A1
:1007F00005D56068A96820F0F0000843606028789B
:10080000C0073DD06968012001290DD0022923D0FD
:100810005FF0020393FAA3F2B2FA82F242F02002EE
:10082000520904D0226803E04FF40033F2E7626A11
:1008300093FAA3F3B3FA83F303F01F039840024241
:100840002DD0606820F0030008436060FFF744FF8C
:10085000804641F288390CE04FF00073DAE700BFC0
:10086000FFF73AFFA0EB0801494502D90320BDE894
:10087000F0876068696800F00C00B0EB810FEFD181
:10088000306800F00700B8420BD9306820F007004C
:1008900038433060306800F00700B84201D00120D2
:1008A000E5E72878400705D56068E96820F4E0604E
:1008B000084360602878000706D56068296920F43D
:1008C000605040EAC100606000F022F86168F022E8
:1008D00092FAA2F201F0F001B2FA82F2D140074A94
:1008E000515CC840064908600020FFF715FF002052
:1008F000BDE7000000200240001002402027000851
:10090000000000200148006870470000000000203F
:10091000144B10B55A68144802F00C0104291DD07C
:1009200008291BD14FF4701494FAA4F402F4701146
:10093000B4FA84F4E1400D4CDB6A615C0F2494FA54
:10094000A4F403F00F03B4FA84F4E340074C10342A
:10095000D203E35C03D5B0FBF3F0484310BD044879
:10096000484310BD0010024000127A00864900087A
:1009700000093D002DE9F84F040071D02078FB4DAF
:10098000C0074FF0010625D068687704C0F38100E6
:10099000012807D06868C0F3810002281BD168686D
:1009A000C00318D597FAA7F0B0FA80F040F0200005
:1009B000400901D0286800E0686A97FAA7F1B1FA07
:1009C00081F101F01F0106FA01F1084265D060686B
:1009D0000028D2D061E06068B0F5803F0BD010B144
:1009E000B0F5A02F17D0286820F480302860286840
:1009F00020F4802002E0286840F480302860E86A13
:100A0000A16820F00F000843E862606820B3FFF798
:100A100063FE80460AE0286840F480202860EAE708
:100A2000FFF75AFEA0EB0800642872D897FAA7F0E7
:100A3000B0FA80F040F02000400901D0286800E0C2
:100A4000686A97FAA7F1B1FA81F101F01F0106FA7D
:100A500001F10842E4D020E0FFF73EFE804607E0C7
:100A6000C7E000BFFFF738FEA0EB08006428DCD821
:100A700097FAA7F0B0FA80F040F02000400901D0CA
:100A8000286800E0686A97FAA7F1B1FA81F101F0ED
:100A90001F0106FA01F10842E4D12078DFF8D08284
:100AA00080074FF0000A4FF0020759D568684FF0F1
:100AB000F80B10F00C0F07D06868C0F38100022813
:100AC0001BD16868C00318D497FAA7F0B0FA80F079
:100AD00040F02000400901D0286800E0686A97FAD9
:100AE000A7F1B1FA81F101F01F0106FA01F1084204
:100AF0002BD0206901287CD127E0206988B396FAA1
:100B0000A6F0B0FA80F048F82060FFF7E5FD8146D6
:100B100006E055E1FFF7E0FDA0EB0900022884D8CC
:100B200097FAA7F0B0FA80F040F02000400901D019
:100B3000286800E0686A97FAA7F1B1FA81F101F03C
:100B40001F0106FA01F10842E4D028689BFAABF2D3
:100B50006169B2FA82F220F0F800914008432860FF
:100B600025E0FFE796FAA6F1B1FA81F148F821A055
:100B7000FFF7B2FD814605E0FFF7AEFDA0EB0900EF
:100B80000228CCD897FAA7F0B0FA80F040F0200005
:100B9000400901D0286800E0686A97FAA7F1B1FA25
:100BA00081F101F01F0106FA01F10842E4D1207839
:100BB00000076AD5A069A0B396FAA6F0B0FA80F053
:100BC00008EB8000C0F88064FFF786FD814605E0F1
:100BD000FFF782FDA0EB09000228A0D897FAA7F042
:100BE000B0FA80F040F06000B6EB501F02D12868E8
:100BF0000CE077E197FAA7F0B0FA80F040F06000DF
:100C0000B7EB501F01D1286A00E0686A97FAA7F194
:100C1000B1FA81F101F01F0106FA01F21042D7D0BA
:100C200033E0FFE796FAA6F0B0FA80F008EB800018
:100C3000C0F880A4FFF750FD814605E0FFF74CFDAA
:100C4000A0EB090002289CD897FAA7F0B0FA80F030
:100C500040F06000B6EB501F01D128680BE097FA16
:100C6000A7F0B0FA80F040F06000B7EB501F01D160
:100C7000286A00E0686A97FAA7F1B1FA81F101F0F9
:100C80001F0106FA01F21042D8D12078400774D52E
:100C9000E8694FF00009C00009D4E86940F08050CD
:100CA000E861E8694FF0010900F080500090314898
:100CB0000168C90512D4016841F480710160FFF731
:100CC0000BFD834606E000BFFFF706FDA0EB0B001F
:100CD000642875D827480068C005F5D5E068012864
:100CE0000AD008B1052811D0286A20F00100286236
:100CF000286A20F0040002E0286A40F0010028621F
:100D0000E068C8B3FFF7E8FC83460DE0286A40F0CE
:100D100004002862F0E700BFFFF7DEFCA0EB0B0148
:100D200041F2883081424BD897FAA7F0B0FA80F0B0
:100D300040F04000B6EB501F01D128680BE097FA55
:100D4000A7F0B0FA80F040F04000B7EB501F01D19F
:100D5000286A00E0686A97FAA7F1B1FA81F101F018
:100D60001F0106FA01F21042D6D035E00010024011
:100D7000000042420070004000E034E0FFF7ACFCAD
:100D8000834607E0FFF7A8FCA0EB0B0141F2883097
:100D9000814215D897FAA7F0B0FA80F040F04000F1
:100DA000B6EB501F01D128680CE097FAA7F0B0FA13
:100DB00080F040F04000B7EB501F02D1286A01E0FC
:100DC00083E0686A97FAA7F1B1FA81F101F01F0197
:100DD00006FA01F21042D5D1B9F1000F03D0E8694B
:100DE00020F08050E861E06980B36968C1F3810157
:100DF000022977D04FF080714F00022809D091FA74
:100E0000A1F0B0FA80F048F820A0FFF765FC044696
:100E10005EE050468A4691FAA1F1B1FA81F1C146ED
:100E200048F82100FFF758FC804605E0FFF754FC26
:100E3000A0EB0800022848D897FAA7F0B0FA80F093
:100E400040F02000400902D0286801E056E0686ABE
:100E500097FAA7F1B1FA81F101F01F0106FA01F149
:100E60000842E3D1D4E908100843696821F47411F9
:100E7000084368609AFAAAF0B0FA80F049F8206056
:100E8000FFF72AFC044604E0FFF726FC001B0228BB
:100E90001BD897FAA7F0B0FA80F040F02000400984
:100EA00001D0286800E0686A97FAA7F1B1FA81F1E9
:100EB00001F01F0106FA01F10842E5D01EE000BF73
:100EC000FFF70AFC001B022802D90320BDE8F88FB7
:100ED00097FAA7F0B0FA80F040F02000400902D065
:100EE000286801E00CE0686A97FAA7F1B1FA81F18D
:100EF00001F01F0106FA01F10842E1D10020E5E707
:100F00000120E3E74FF0E0210428086903D020F036
:100F100004000861704740F00400FAE7704710B51C
:100F2000401EB0F1807F01D3012010BD4FF0E024BE
:100F300060610F21601700F095FC0020A061072080
:100F40002061002010BD10B5FFF7E8FF10BDFEE7DF
:100F50002DE9F04107461C4615460E462A2000F0B2
:100F60001DFCB81C00F00DFCA81C00F00AFC2B2096
:100F700000F014FC701C00F004FC601C00F001FC8C
:100F8000BDE8F0412C2000F009BC10B514460B461A
:100F90000246FFF7DDFF2046BDE8104000F0F1BB40
:100FA0002DE9F0471F4616460C4680465B1E521E32
:100FB000DDF82090FFF7CCFF08E0454603E0484607
:100FC00000F0DFFB6D1CB542F9D3641CBC42F4D3C6
:100FD000BDE8F08770B5264886B0416941F400311C
:100FE0004161416901F400310591416941F4801189
:100FF0004161416901F480110591416941F4802109
:1010000041614069012400F480200590B020CDE9C1
:10101000000403254FF0904669463046CDE902456D
:10102000FFF790FA0122B0213046FFF74FFB042072
:10103000CDE900040F4E69463046CDE90245FFF781
:1010400081FA012204213046FFF740FB6020CDE900
:101050000004CDE90245084C69462046FFF772FAC4
:10106000012260212046FFF731FB06B070BD000071
:1010700000100240000C00480004004810B5FFF7C3
:10108000A9FF7E4C002204212046FFF71FFB6420AD
:1010900000F074FC012204212046FFF717FB6420B6
:1010A00000F06CFC012240217548FFF70FFB642023
:1010B00000F064FC112000F071FB782000F05EFC71
:1010C000B12000F06BFB052000F07CFB3C2000F021
:1010D00079FB3C2000F076FBB22000F05FFB05209E
:1010E00000F070FB3C2000F06DFB3C2000F06AFB40
:1010F000B32000F053FB052000F064FB3C2000F01F
:1011000061FB3C2000F05EFB052000F05BFB3C2017
:1011100000F058FB3C2000F055FBB42000F03EFBF3
:10112000032000F04FFBC02000F038FB282000F027
:1011300049FB082000F046FB042000F043FBC120DF
:1011400000F02CFBC02000F03DFBC22000F026FB8D
:101150000D2000F037FB002000F034FBC32000F02E
:101160001DFB8D2000F02EFB2A2000F02BFBC4205D
:1011700000F014FB8D2000F025FBEE2000F022FB98
:10118000C52000F00BFB1A2000F01CFB362000F0FD
:1011900005FBC02000F016FBE02000F0FFFA042061
:1011A00000F010FB222000F00DFB072000F00AFBEE
:1011B0000A2000F007FB2E2000F004FB302000F096
:1011C00001FB252000F0FEFA2A2000F0FBFA28207F
:1011D00000F0F8FA262000F0F5FA2E2000F0F2FADE
:1011E0003A2000F0EFFA002000F0ECFA012000F0C5
:1011F000E9FA032000F0E6FA132000F0E3FAE12018
:1012000000F0CCFA042000F0DDFA162000F0DAFA43
:10121000062000F0D7FA0D2000F0D4FA2D2000F0BF
:10122000D1FA262000F0CEFA232000F0CBFA2720B6
:1012300000F0C8FA272000F0C5FA252000F0C2FA15
:101240002D2000F0BFFA3B2000F0BCFA002000F097
:10125000B9FA012000F0B6FA042000F0B3FA132026
:1012600000F0B0FA3A2000F099FA052000F0AAFA4E
:10127000BDE81040292000F091BA0000000C0048A1
:10128000000400482DE9FF4F81B00446DDE90F7BE3
:101290004FEA570800904FEAD80000FB07FA203ABF
:1012A000D0B20390029804EB0802C319014620460D
:1012B000521E5B1EFFF74CFE002634E0102F22D09A
:1012C000202F32D11A49039801EB80105FF00005FE
:1012D00010F80690BBF1000F4FF0010000FA05F086
:1012E00000EA090014D020B12046049A0299FFF7C1
:1012F0004CFE0098641C211A41450FD10298009CB5
:10130000401C02900EE00B49039801EB0010DDE752
:1013100008B1049800E00E9800F033FA6D1CEDB2AD
:10132000082DD7D3761C5645C8D305B0BDE8F08F3D
:10133000202D0008302700082DE9FE4F9946DDE9F1
:101340000D4715468A460646DDF8308011E0102C20
:1013500014D0182C1DD0202C0ED1CDF80080CDE952
:1013600001474B462A465146304600F0E3F82644F2
:10137000AD1C28780028EAD1BDE8FE8FCDF80080AA
:10138000CDE901474B462A465146304600F00CF85D
:10139000EDE7CDF80080CDE901474B462A4651469E
:1013A000304600F063F8E2E72DE9FF4F83B00446D2
:1013B000DDE9119B00904FEAD90000FB09FA0520F6
:1013C000002702902848059A07EB071110F8113002
:1013D0001278934241D100EB410001904178059889
:1013E0004078814239D1049804EB090200EB0903EB
:1013F00001462046521E5B1EFFF7AAFD00262AE08A
:101400000198002500EB0608BBF1000F98F80210C8
:101410004FF0010000FA05F001EA00010FD021B100
:101420002046069A0499FFF7B0FD0098641C211A23
:1014300049450AD10498009C401C049009E009B178
:10144000069800E0109800F09CF96D1CEDB2082D94
:10145000DAD3761CF6B25645D2D302987F1C874267
:10146000B0D307B0BDE8F08FE04400082DE9FF4F8E
:1014700083B00446DDE9119B00904FEAD90000FBE0
:1014800009FA05200027029007EB870000EB4711BF
:101490002748059A10F811301278934241D100EB99
:1014A00041000190417805984078814239D10499F2
:1014B00004EB090201EB09032046521E5B1EFFF7F5
:1014C00047FD00262BE00198002500EB060800BF31
:1014D000BBF1000F98F802104FF0010000FA05F080
:1014E00001EA00010FD021B12046069A0499FFF7C6
:1014F0004CFD0098641C211A49450AD10498009CAF
:10150000401C049009E009B1069800E0109800F032
:1015100038F96D1CEDB2082DDAD3761CF6B25645BB
:10152000D1D302987F1C8742AED307B0BDE8F08FBD
:101530008A4500082DE9FF4F83B00446DDE9119B81
:1015400000904FEAD90000FB09FA0520002702901D
:101550002848059A07EB871110F81130127893424A
:1015600041D100EB410001904178059840788142DB
:1015700039D1049804EB090200EB09030146204627
:10158000521E5B1EFFF7E4FC00262AE001980025AE
:1015900000EB0608BBF1000F98F802104FF00100B5
:1015A00000FA05F001EA00010FD021B12046069AA9
:1015B0000499FFF7EAFC0098641C211A49450AD1F6
:1015C0000498009C401C049009E009B1069800E0D2
:1015D000109800F0D6F86D1CEDB2082DDAD3761C09
:1015E000F6B25645D2D302987F1C8742B0D307B0DB
:1015F000BDE8F08FFC4600082DE9FF4F15462DEDA4
:10160000020B83B0DFED1F0A139F834620EE200AF2
:101610007E080024A246BCEEC00A10EE109A2BE011
:10162000281B401EC1B20A2000F032FAB9FBF0F0CC
:101630000A21B0FBF1F201FB1208A81E84420DD171
:10164000129A00FB06B08DE884042E22089B0699AE
:10165000FFF718FE641C6D1CE4B2EDB2129908F19C
:1016600030008DE88204C2B204FB06B0089B0699E4
:10167000FFF708FE641CE4B2AC42D1D309B0BDE868
:10168000F08F00000000C8422DE9FF4F83B0002614
:10169000DDE911B81D4682464FEA58073446B14687
:1016A0002AE0281B401EC1B20A2000F0F1F905997A
:1016B000B1FBF0F00A21B0FBF1F201FB120026B9F8
:1016C000691E8C4201DA50B101263030C2B2CDF829
:1016D00000B004FB07A0CDE90189109B07E0CDF81D
:1016E00000B0CDE9018904FB07A0109B20220499DA
:1016F000FFF7C8FD641CE4B2AC42D2D307B0BDE82A
:10170000F08F2DE9F0471F469046CB1900EB0802F9
:101710000024521E5B1EDDF82090FFF719FC002606
:101720000FE000250AE019F8140000F035F809EB85
:101730004400407800F030F8641C6D1CBD42F2D3C8
:10174000761C4645EDD3BDE8F0872DE9FE4F99465E
:10175000DDE90D6714468A460546DDF830800BE06A
:10176000CDF800804B4651462846CDE90167FFF78A
:1017700089FD05EB5605641C2278002AF0D1BDE8EE
:10178000FE8F10B50446C0F3072000F01BF8E0B24E
:10179000BDE8104000F016B800F014B870B5084C61
:1017A0000546002220212046FEF790FF284600F043
:1017B00009F82046BDE8704001222021FEF786BFCF
:1017C0000004004870B505464FF0904600221021F5
:1017D0003046FEF77BFF0024002220213046FEF732
:1017E00075FF280601D5012200E000228021304645
:1017F000FEF76CFF012220213046FEF767FF6806E6
:10180000641C050EE4B2082CE6D33046BDE87040F7
:1018100001221021FEF75ABF30B50F4887B0416949
:1018200041F40021416140694FF4805400F40020EC
:1018300005900120CDE9004002900320074D039060
:1018400069462846FEF77EFE012221462846FEF71D
:101850003DFF07B030BD0000001002400008004806
:10186000FEE770470907090E002806DA00F00F00AE
:1018700000F1E02080F8141D704700F1E02080F8AE
:10188000001470477047704710B5FEF72BFFBDE896
:101890001040FFF758BB30B58FB001210804CDE9E7
:1018A00000100024029402250491CDE907504FF462
:1018B000E01009906846FFF75DF80F20CDE90A05B2
:1018C0006802CDE90C4002210AA80E94FEF778FFC9
:1018D000FFF718F84FF47A71B0FBF1F0FFF71FFB38
:1018E0000420FFF70FFB00221146501EFEF736FFC3
:1018F0000FB030BD1448016841F470010160134815
:10190000016841F0010101604168114A11404160E4
:101910000168104A11400160016821F480210160D2
:10192000416821F4FE014160C16A21F00F01C162EA
:10193000016B094A11400163002181600249C00323
:10194000803908607047000088ED00E00010024018
:101950000CC07FF8FFFFF6FECCFC00FFFEE702E0C4
:1019600008C8121F08C1002AFAD17047704700202A
:1019700001E001C1121F002AFBD17047FEF7D0BD64
:101980002DED048B84B09FED368AFEF7B3FEFFF792
:1019900082FFFFF741FFFFF771FB4FF6FF74002155
:1019A000A023802208460094FFF7FAFA00224FF4A1
:1019B00080512C48FEF78AFE00269FED2B9BDFF816
:1019C000B0904FF018084FF478471025CDE9004843
:1019D00000213B4627A208460296FFF7ADFC8DE8A2
:1019E00070003B4626A21E211820FFF7AEFE00978E
:1019F000032380221E214820CDE90145FFF744FE44
:101A00008DE870003B4620A232211820FFF79DFE92
:101A100000970323A02232214820CDE90145FFF79A
:101A200033FE3B460422B0EE480A50211420CDE993
:101A30000045FFF7E1FD18EE100AFEF768FC53ECD5
:101A4000192BFEF7BDFBFEF775FC08EE100A2823E4
:101A50001A4650214120CDF80090FFF752FEB5E71D
:101A60000000000000080048295C8FC2F528BC3F38
:101A7000A01A0008D6D0BEB0D4B0B5E7D7D30000C6
:101A80004C43445F573A00004C43445F483A0000DF
:101A90000246012000E05043491EC9B2FBD2704704
:101AA000FFFFFFFFFFFFFFFFFFFFFFFFFFFFFFFF46
:101AB000FFFFFFFFFFFFFFFFFFFFFFFFFFFFF7BE7F
:101AC000FFFFFFDEC6388C926B8E6B6E7C10AD967E
:101AD000E73CFFFFFFFFFFFFFFFFFFFFFFFFFFFFF1
:101AE000FFFFFFFFFFFFFFFFFFFFFFFFFFFFFFFF06
:101AF000FFFFFFFFFFFFFFFFFFFFFFFFFFFFFFFFF6
:101B0000FFFFFFFFFFFFFFFFFFFFFFFFFFFFEF5D97
:101B10009D15634F426C320A2988194619252145C3
:101B200031E86B8EC638FFFFFFFFFFFFFFFFFFFFAF
:101B3000FFFFFFFFFFFFFFFFFFFFFFFFFFFFFFFFB5
:101B4000FFFFFFFFFFFFFFFFFFFFFFFFFFFFFFFFA5
:101B5000FFFFFFFFFFFFFFFFFFFFFFFFA536531053
:101B60004B1053514B0F3A6C31E92167192510E4A2
:101B700008A30062088352CBD69AFFFFFFFFFFFF46
:101B8000FFFFFFFFFFFFFFFFFFFFFFFFFFFFFFFF65
:101B9000FFFFFFFFFFFFFFFFFFFFFFFFFFFFFFFF55
:101BA000FFFFFFFFFFFFFFFFE73C637063B37CB8FD
:101BB00063F54311324D29EA2188192619051905C3
:101BC0001104110410E4008308A38C72FFFFFFFFCF
:101BD000FFFFFFFFFFFFFFFFFFFFFFFFFFFFFFFF15
:101BE000FFFFFFFFFFFFFFFFFFFFFFFFFFFFFFFF05
:101BF000FFFFFFFFFFFFDEDB3A4B42F06C354B543B
:101C000032B12A2E21EB21A91967190511041104FB
:101C1000110411041104190510E4004273AFFFFF11
:101C2000FFFFFFFFFFFFFFFFFFFFFFFFFFFFFFFFC4
:101C3000FFFFFFFFFFFFFFFFFFFFFFFFFFFFFFFFB4
:101C4000FFFFFFFFEF5D3209324C4B10328F2A4FFE
:101C50002A2E19CC19892189194719051104110453
:101C600010C410C411041104110410E400428431A2
:101C7000FFFFFFFFFFFFFFFFFFFFFFFFFFFFFFFF74
:101C8000FFFFFFFFFFFFFFFFFFFFFFFFFFFFFFFF64
:101C9000FFFFFFFF52EC1947324C2A0B21EC21ECDD
:101CA000220C5B914AEE11061926190410E410E487
:101CB00029A7216608A319051104110410E4008264
:101CC000BDF7FFFFFFFFFFFFFFFFFFFFFFFFFFFF6E
:101CD000FFFFFFFFFFFFFFFFFFFFFFFFFFFFFFFF14
:101CE000FFFFA535088321882188218921AA218A1F
:101CF000426B8C71FFFF8C720883110408C4422967
:101D0000DEFBEF5D5AEC0883110411041104088313
:101D100031E8FFDFFFFFFFFFFFFFFFFFFFFFFFFFD8
:101D2000FFFFFFFFFFFFFFFFFFFFFFFFFFFFFFFFC3
:101D3000F7BE31C710C4192519261947194729A814
:101D4000528A4A28AD55FFFF31E808A319056B4DAB
:101D50006B4DFFFFEF7D214510C4110411041104E8
:101D60000062AD76FFFFFFFFFFFFFFFFFFFFFFFFFA
:101D7000FFFFFFFFFFFFFFFFFFFFFFFFFFFFFFFF73
:101D8000B5960062110419041105190508C44A8B9F
:101D9000B5B6EF5DBDF7FFFF6B8E006242295AAA10
:101DA0004208FFFFFFFF52CC088311041104110405
:101DB00008A352ADFFFFFFFFFFFFFFFFFFFFFFFF85
:101DC000FFFFFFFFFFFFE71CFFFFFFFFFFFFFFFF1E
:101DD000634E006211041104110410E40062638E6A
:101DE000FFFFFFFFFFFFFFFF73CF00019CF3632C9A
:101DF000B596FFFFFFFF5B2D008311041104110452
:101E000010E42167EF3DFFFFFFFFFFFFFFFFFFFF34
:101E1000BDF8B5B7EF9E52CB94B3FFFFFFFFFFDFD6
:101E200031E808A3110411041104110408A3424964
:101E3000F7FFF7FFFFFFFFFF4A6A00018472FFFF11
:101E4000FFFFF7FFEFDF3A0908A3110411041104A3
:101E500011041105BE18FFFFFFFFFFFFFFFFFFFF8B
:101E60007BF0006231E831C70041A535FFFFEF5D2F
:101E7000214610C4110411041104110410E408A334
:101E80009D76F7FFFFFFADB708A308A331C7E79E14
:101E9000F7FFF7FFA57608A310E41104110411045D
:101EA00011051105A535FFFFFFFFFFFFFFFFFFFF36
:101EB000DEDB29A7008310C410C410C4E71CEF9E0A
:101EC000110510E41104110411041104190408C4CB
:101ED00010E56BD16BD108C5006408A50043322B17
:101EE0009D7784B3192510C4110411041104110441
:101EF000192509269D35FFFFFFFFFFFFFFFFFFFFAD
:101F0000FFFF73AF00621904190500825B0D9B8E01
:101F10001062110511041104190410E40085110563
:101F200039C45A817B409C22AC43A4039B837282B8
:101F3000498218C200A400C510E41904110419054F
:101F4000194711675AECFFBEFFFFFFFFFFFFFFFFBE
:101F5000FFDFDEDB10C410E41104110518A4C0017A
:101F6000888300E41905190408C521448343D52357
:101F7000FE42FEE4FF27FF07FEA4FE64FE03FDA36E
:101F8000FCE2EC42B383622410E508C4190419266C
:101F900019A821879000BCD3FFFFFFFFFFFFFFFFC1
:101FA000FFDFFFFF7C100042190511052883D001D7
:101FB000F84448A300E408C55A44ED02FDE2FE02DD
:101FC000FE66FF74FFB8FF73F6E7F6A6F645F5A4C4
:101FD000FCC3FC62FCC2FCC2CBE349C411061988F5
:101FE000018790A4F8019AECFFFFFFFFFFFFFFFFBE
:101FF000FFFFFFFFF7BE31E8008309054082C00103
:10200000F823F08548A300A45A44FD02CC23DCC287
:10201000FE04FE28F648F646F624F5E4FD64FCE3EB
:10202000FC62FCC2E402DC02FCE27AA40148016723
:1020300078C4F824F802B084E77DFFFFFFFFFFFFBC
:10204000FFFFFFFFFFFFDEDB192500A338C4E0021E
:10205000D822F844F8A678A4006321437283398318
:102060009B82F521FD61FD22FCE2FCA2FC42FC42C8
:10207000FC42AB22418392C352040126192598A445
:10208000F844F823F802D0A4EF9EFFFFFFFFFFFF04
:10209000FFFFFFFFFFFFFFFFD69A298700A5B84388
:1020A000F822E023F865F8E8C9074883004200A356
:1020B000008429637AA2B362CBA2D362BB028A8274
:1020C000398300A400E500E508E560C4D864F8445D
:1020D000F824F823F8028883C6DBFFFFFFFFFFFF29
:1020E000FFFFFFFFFFFFFFFFFFFFE73D5B503108F2
:1020F000E823F843F044F865F909F9ABD18989067A
:1021000048A318420002004200610082006200629F
:10211000008320A350C488A5D885F865F844F84406
:10212000F823F823D003108229C7EF5DFFFFFFFFDC
:10213000FFFFFFFFFFFFFFFFFFFFFFFFFFFF326C0F
:1021400038A5D802F823F865F866F8A7F94AFA0C1A
:10215000FA4DEA4CD20BB9A9B168A947B127B90722
:10216000D107E8E7F8C7F8A7F865F865F844F82359
:10217000F803D00228A3090508C45AECFFFFFFFFAB
:10218000FFFFFFFFFFFFFFFFFFFFFFFFDEFB190564
:1021900000C441A7C0E6F803F886F8A7F887F886D8
:1021A000F8C7F929F98AF9ABF9ABF98BF96AF9297A
:1021B000F908F8C7F8A6F886F865F864F823F0027D
:1021C000B106292500E410E4192519259D14FFFF07
:1021D000FFFFFFFFFFFFFFFFFFFFFFFFAD96006266
:1021E00008829535CEBAA28BD044F825F887F8A797
:1021F000F8C7F8A7F887F886F886F886F887F8A76A
:10220000F8A7F8A6F885F865F864F024B864930D8B
:10221000B6BB63CF0883110410E421663A49EF5D31
:10222000FFFFFFFFFFFFFFFFFFFFFFFF94D3004211
:1022300010E4CEBBFFFFE7BEB576AACCC107E045F0
:10224000F845F846F866F886F886F886F886F86560
:10225000F845F865E865D044A84388019082D73CEA
:10226000EFFF95550883110411041905194694B31D
:10227000FFFFFFFFFFFFFFFFFFFFFFFF94B30041E2
:102280002186DF5DFFFFFFFFFFFFE7DFC67AB4D3E4
:10229000B34EC22AD168E0E6E8A6E8A5E8A5D8E6EC
:1022A000C988A906A822A802A000C800D800E5F79E
:1022B000E7FFADF810C410E4110410E411054A8BD7
:1022C000FFFFFFFFFFFFFFFFFFFFFFFFA5550041DF
:1022D00029A7DF5DF7FFFFFFFFFFFFFFFFFFFFFF06
:1022E000EFFFDF7DCEDBCE59CDF8CDD7C5F7CE7968
:1022F000BEFBA2ABF003F845D042E843F000D47235
:10230000DFFFAE3910E410E4110410E41105298751
:10231000FFFFFFFFFFFFFFFFFFFFFFFFCE59088317
:102320002146D71CF7FFFFFFFFFFFFFFFFFFFFFF67
:10233000FFFFFFFFFFFFFFFFFFFFFFFFFFFFFFFFAD
:10234000EFFFBA8BF804F845E062F044F800DB8E4A
:10235000DFFFA5F810C410E410E4110410E41925FF
:10236000FFFFFFFFFFFFFFFFFFFFFFFFF7BE298714
:102370000883B639F7FFF7DFFFFFFFFFFFFFFFFF1F
:10238000FFFFFFFFFFFFFFFFFFFFFFFFFFFFFFFF5D
:10239000E7BEBA4AF803F845F864F844F800E36E7B
:1023A000D7FF8CF40883110410E410E410E419053D
:1023B000FFFFFFFFFFFFFFFFFFFFFFFFFFFF73EFC9
:1023C00000008472EFFFEFBEFFDFFFFFFFFFFFFFA4
:1023D000FFFFFFFFFFFFFFFFFFFFFFFFFFFFFFFF0D
:1023E000E7DFBA8BF803F845F845F823F800D4D3B3
:1023F000D7FF5B4E00213A29A555088310C4192543
:10240000FFFFFFFFFFFFFFFFFFFFFFFFFFFFDEFB01
:1024100008A331E8DF9EE79EEFBFFFFFFFFFFFFF4E
:10242000FFFFFFFFFFFFFFFFFFFFFFFFFFFFFFFFBC
:10243000F7FFBC51E002F803F003E043C2ECCF7EAB
:10244000BEFC2146002194D3FFFF84510000298760
:10245000FFFFFFFFFFFFFFFFFFFFFFFFFFFFFFFF8C
:10246000845100008CF4EFFFE79EEFBFFFDFFFFF1A
:10247000FFFFFFFFFFFFFFFFFFFFFFFFFFFFFFFF6C
:10248000FFFFDF3DBD55BC52BC72B5B7C75DDFFF76
:102490006BF000003A09F7BFFFFFFFFF9D14A55541
:1024A000FFFFFFFFFFFFFFFFFFFFFFFFFFFFFFFF3C
:1024B000FFFF4AAC08A4BEBBE7DFE77EEFBEF7DF55
:1024C000FFDFFFFFFFFFFFFFFFFFFFFFFFFFFFFF3C
:1024D000FFDFF7DFEFFFDFDFD7BFD79EDFDFA5D856
:1024E00008831126D6DBFFFFFFFFFFFFFFFFFFFF83
:1024F000FFFFFFFFFFFFFFFFFFFFFFFFFFFFFFFFEC
:10250000EE79DC8B312121A9CF3DDFBFDF7EE79E55
:10251000EFBEEFBFF7DFF7DFF7DFF7DFF7DFEFBF84
:10252000EFBEE79EDF7ED75ED75EDFDFB69A192665
:102530000842A3EDFFBFFFFFFFFFFFFFFFFFFFFF0D
:10254000FFFFFFFFFFFFFFFFFFFFFFFFFFFFDD7448
:10255000DBC0FE00EE4242022189B67BDFDFD77E80
:10256000DF7EDF7EE79EE79EE79EE79EE79EDF7EBB
:10257000DF7ED75DD75DDF9EE7FFA5F8110718E383
:10258000C502FD60D3E6EEDBFFFFFFFFFFFFFFFFAD
:10259000FFFFFFFFFFFFFFFFFFFFFFFFF79EBA8474
:1025A000FCC1FE42FE82FEA2838121457474C75E97
:1025B000DFDFD77ED75ED75DD75ED75ED75DD75DCD
:1025C000D75EDF9EE7FFC73D63F108845242E626EF
:1025D000FF29FE86F3E0C36AFFFFFFFFFFFFFFFF57
:1025E000FFFFFFFFFFFFFFFFFFFFFFFFDE18D2C16E
:1025F000FDA2FE22FE42FE42FE62D4E26A41424950
:102600007453A63BC73ED7BFD7BFD7BFDFBFD7BF27
:10261000C73EA61A63F229A74182B422FE62FE8356
:10262000FEAAFF0FFD67BA63EF3CFFFFFFFFFFFF4E
:10263000FFFFFFFFFFFFFFFFFFFFFFFFE69AD280D4
:10264000FD21FDC2F5E2F5C2F582FD82FD62DC618D
:102650009B216A846AE9632C63AF7411636E632CF7
:102660005A8952047A81CBC2FCE2FD62FD82FDC22E
:10267000FDC2FDE4FD24CA62E71CFFFFFFFFFFFF70
:10268000FFFFFFFFFFFFFFFFFFFFFFFFFFFFCCB1DB
:10269000D281F3C0FCC1FD02FD02FCE2FCC2FCC21F
:1026A000FC81FB80C9C081A4AD35CE599C718121CC
:1026B000DA00FBA1FC82FCA2FC82FCA2FD02FD224E
:1026C000FCE2FC00DA60CC90FFFFFFFFFFFFFFFFA2
:1026D000FFFFFFFFFFFFFFFFFFFFFFFFFFFFFFFF0A
:1026E000DE59C40DCB06D2E4DB03DB03DAE3D2C34D
:1026F000C2A4B309BCD2F79EFFFFFFFFFFFFE6FBBA
:10270000B40EBAA6D283E2E3EB02EB22E322DB03B0
:10271000D2E4C36AD5B6FFFFFFFFFFFFFFFFFFFF55
:102720000000000000000000010203040607080981
:102730000000000000000000000000000000000099
:102740000000000808080808080800001818000021
:1027500000486C241200000000000000000000008F
:102760000000002424247F1212127F121212000093
:102770000000081C2A2A0A0C1828282A2A1C0808E3
:1027800000000022251515152A5854545422000023
:102790000000000C1212120A76252911916E000019
:1027A0000006060403000000000000000000000016
:1027B00000402010100808080808081010204000E9
:1027C000000204080810101010101008080402007D
:1027D0000000000008086B1C1C6B080800000000CB
:1027E00000000000080808087F080808080000002A
:1027F00000000000000000000000000006060403C6
:102800000000000000000000FE00000000000000CA
:1028100000000000000000000000000006060000AC
:10282000000080404020201010080804040202002C
:102830000000001824424242424242422418000052
:10284000000000080E08080808080808083E0000F4
:102850000000003C4242422020100804427E00005A
:102860000000003C4242201820404042221C000050
:10287000000000203028242422227E20207800001E
:102880000000007E0202021A26404042221C000084
:10289000000000382402021A264242422418000096
:1028A0000000007E22221010080808080808000016
:1028B0000000003C4242422418244242423C0000B4
:1028C000000000182442424264584040241C00008A
:1028D0000000000000001818000000001818000098
:1028E00000000000000000080000000000080804CC
:1028F00000000040201008040204081020400000DE
:102900000000000000007F0000007F0000000000C9
:1029100000000002040810204020100804020000FB
:102920000000003C424246402010100018180000F1
:102930000000001C225A555555552D42221C0000FE
:102940000000000808181414243C224242E700004A
:102950000000001F2222221E22424242221F0000AB
:102960000000007C4242010101010142221C0000E2
:102970000000001F2242424242424242221F000007
:102980000000003F4212121E12120242423F00009B
:102990000000003F4212121E121202020207000043
:1029A0000000003C2222010101712122221C0000B2
:1029B000000000E7424242427E42424242E70000BB
:1029C0000000003E0808080808080808083E000043
:1029D0000000007C10101010101010101010110FBB
:1029E0000000007722120A0E0A121222227700003B
:1029F000000000070202020202020202427F0000FF
:102A000000000077363636362A2A2A2A2A6B00003A
:102A1000000000E346464A4A5252526262470000B2
:102A20000000001C2241414141414141221C000063
:102A30000000003F424242423E0202020207000002
:102A40000000001C2241414141414D53321C6000B5
:102A50000000003F4242423E1212222242C70000C2
:102A60000000007C4242020418204042423E000026
:102A70000000007F4908080808080808081C000032
:102A8000000000E74242424242424242423C0000D1
:102A9000000000E742422224241414180808000011
:102AA0000000006B49494949555536222222000051
:102AB000000000E7422424181818242442E70000EC
:102AC000000000772222141408080808081C0000DF
:102AD0000000007E2120101008040442423F000044
:102AE0000078080808080808080808080808780096
:102AF00000000202040408080810102020204040B2
:102B0000001E1010101010101010101010101E00C9
:102B10000038440000000000000000000000000039
:102B2000000000000000000000000000000000FFA6
:102B30000006080000000000000000000000000087
:102B4000000000000000003C4278444242FC0000CB
:102B5000000000030202021A26424242261A000026
:102B60000000000000000038440202024438000067
:102B700000000060404040784442424264D8000077
:102B8000000000000000003C427E0202423C0000C7
:102B9000000000F08808087E08080808083E0000C9
:102BA000000000000000007C22221C023C42423C4B
:102BB000000000030202023A4642424242E700009D
:102BC0000000000C0C00000E08080808083E000079
:102BD0000000003030000038202020202020221E5D
:102BE0000000000302020272120A1612227700008D
:102BF0000000000E0808080808080808083E000041
:102C0000000000000000007F9292929292B70000B4
:102C1000000000000000003B4642424242E7000044
:102C2000000000000000003C42424242423C0000E2
:102C3000000000000000001B26424242221E020744
:102C4000000000000000007844424242447840E026
:102C500000000000000000774C040404041F000082
:102C6000000000000000007C42023C40423E0000A8
:102C7000000000000008083E0808080808300000AE
:102C800000000000000000634242424262DC00009B
:102C900000000000000000E742242414080800009F
:102CA00000000000000000EB4949555522220000B9
:102CB000000000000000007624181818246E0000A0
:102CC00000000000000000E7422424141808080750
:102CD000000000000000007E22100808447E000072
:102CE00000C0202020202010202020202020C000F4
:102CF00010101010101010101010101010101010D4
:102D0000000608080808081008080808080806004F
:102D10000C32C200000000000000000000000000B3
:102D200000000000000000000000000000000000A3
:102D30000000000000000000000000000000000093
:102D40000000000000000000000000000000000083
:102D50000000000000000000000000000000000073
:102D600000000000000000000000C001C001C00120
:102D7000C001C001C001C00180008000800080004F
:102D80008000800080000000000000000000800142
:102D9000C003C0038001000000000000000000002C
:102DA000000000000000E01CE01CF01E700E380760
:102DB000180308018400000000000000000000006B
:102DC0000000000000000000000000000000000003
:102DD00000000000000000000000000000000000F3
:102DE0000000000000000000000000002010201083
:102DF000201020102010FE7FFE7F10081008100801
:102E00001008100810081008FE7FFE7F0804080450
:102E1000080408040804000000000000000000008E
:102E2000000000000000000000010001C007601960
:102E3000103118311839183938017001E001C00318
:102E40008007000F001D003900311C311C310C318E
:102E50000C11180DE0070001000100010000000046
:102E60000000000000000000000000001C103618E8
:102E70006308630C63046304630263026301361D29
:102E80009C3780228063406340632063206330630B
:102E900010221836081C000000000000000000008E
:102EA000000000000000000000000000F000980199
:102EB0008C018C018C018C018C00CC007800183EB8
:102EC0001C083608320863046304C304C303834345
:102ED00006438E26781C0000000000000000000061
:102EE0000000000000001C003C003C0030003000EE
:102EF00010000C00060000000000000000000000B0
:102F000000000000000000000000000000000000C1
:102F100000000000000000000000000000000000B1
:102F20000000000000000040002000100008000C1D
:102F300000040006000300030003800180018001FB
:102F400080018001800180018001000300030003F3
:102F500000060006000C00080010002000400000E1
:102F60000000000000000200040008001000300013
:102F700020006000C000C000C0008001800180010E
:102F800080018001800180018001C000C000C0007C
:102F90006000600030001000080004000200000023
:102FA0000000000000000000000000000000000021
:102FB00000018003800300011C713C79783DC0074B
:102FC0000001C007783D3C791C710001800380033B
:102FD0008001000000000000000000000000000070
:102FE00000000000000000000000000000000000E1
:102FF00000000001000100010001000100010001CA
:10300000FC7F00010001000100010001000100013E
:1030100000000000000000000000000000000000B0
:1030200000000000000000000000000000000000A0
:103030000000000000000000000000000000000090
:103040000000000000000000000000000000000080
:103050001C003C003C003000300010000C0006005A
:103060000000000000000000000000000000000060
:103070000000000000000000000000000000000050
:10308000FE7F0000000000000000000000000000C3
:103090000000000000000000000000000000000030
:1030A0000000000000000000000000000000000020
:1030B0000000000000000000000000000000000010
:1030C00000000000000000000000000000001800E8
:1030D0003C003C0018000000000000000000000060
:1030E00000000000000000400060002000300010E0
:1030F00000180008000C0004000600020003000194
:1031000080018000C00040006000200030001000FE
:10311000180008000C000400060002000000000077
:10312000000000000000000000000000C007600C6C
:1031300030181830183018200C600C600C600C60CF
:103140000C600C600C600C600C601820183018309B
:103150003018600CC00700000000000000000000F4
:1031600000000000000000000000000000018001DD
:10317000F8018001800180018001800180018001CF
:103180008001800180018001800180018001800137
:103190008001C003F81F00000000000000000000D4
:1031A000000000000000000000000000E007101C0C
:1031B0000818043004300C300C30003000180008BF
:1031C00000040002000180004000202010200820A0
:1031D0000430FC1FFC1F0000000000000000000085
:1031E000000000000000000000000000E003180ED6
:1031F0000C0C0C180C180C180018000C0006C0035E
:10320000000E00180010003000300C300C300C1094
:103210000C18180CE0030000000000000000000083
:10322000000000000000000000000000000C000E84
:10323000000E000F800E800E400E600E200E100E4D
:10324000100E080E040E040EFE7F000E000E000E7F
:10325000000E000E000EC07F000000000000000005
:10326000000000000000000000000000F03FF03F00
:1032700010001000100008000800C807280C1818DB
:10328000081000300030003000300C300C300418D2
:103290000418080CF003000000000000000000000B
:1032A000000000000000000000000000800FC010BF
:1032B000203010301800180008000C008C0F6C181B
:1032C0003C301C600C600C600C600C6018601820B6
:1032D00030306018C007000000000000000000004F
:1032E000000000000000000000000000F83FF83F70
:1032F0001C100C0804080404000400020002000171
:1033000000010001800080008000C000C000C000FB
:10331000C000C000C000000000000000000000006D
:10332000000000000000000000000000E007300C7A
:1033300018180C300C300C301C3038187008E007AE
:10334000B007180E0C1C0638063006300630063062
:103350000C18180CE0030000000000000000000042
:10336000000000000000000000000000E00318045E
:103370000C080C18061006300630063006300638E9
:103380000C3C1836F03100300018001800180C0CF6
:103390000C060C03F001000000000000000000001B
:1033A000000000000000000000000000000000001D
:1033B000000000000000000000008001C003C00306
:1033C00080010000000000000000000000008001FB
:1033D000C003C003800100000000000000000000E6
:1033E00000000000000000000000000000000000DD
:1033F00000000000000000000000C000C00000004D
:1034000000000000000000000000000000000000BC
:103410000000C000C00080008000400040000000AC
:103420000000000000000000000000200010000864
:103430000004000600038001C00060003000180096
:103440000C00180030006000C0008001000300067E
:103450000004000800100020000000000000000030
:10346000000000000000000000000000000000005C
:1034700000000000000000000000FE7F00000000CF
:10348000000000000000FE7F0000000000000000BF
:10349000000000000000000000000000000000002C
:1034A0000000000000000000000004000800100000
:1034B00020006000C000800100030006000C00181E
:1034C00000300018000C000600038001C0006000FE
:1034D00020001000080004000000000000000000B0
:1034E00000000000000000000000C0073018083095
:1034F00008600C601C601C601C600030001C000632
:103500000001800080008000800000000000800139
:10351000C003C003800100000000000000000000A4
:10352000000000000000000000000000C00760185C
:10353000103018200C2F8C4D864CC64CC64C664C57
:1035400066446644662666266615CC1C0C40082038
:1035500018303018C0070000000000000000000014
:10356000000000000000000000000001C001C001D8
:10357000C001400160032003200320033006100631
:1035800010061006F80F080C080C080C0C0C041898
:10359000041806181F7C0000000000000000000056
:1035A000000000000000000000000000FE07181CE2
:1035B000183818301830183018301818180CF80748
:1035C00018181830182018601860186018601860F3
:1035D00018301818FE0F0000000000000000000066
:1035E000000000000000000000000000C02760385C
:1035F000103018200C400C400400060006000600A5
:10360000060006000600060006000C400C400C20D8
:1036100018303018C0070000000000000000000053
:10362000000000000000000000000000FE03180E73
:1036300018181830183018301860186018601860A2
:10364000186018601860186018601830183018106A
:103650001818180EFE030000000000000000000013
:10366000000000000000000000000000FE3F1830D5
:10367000182018601840180018081808180CF80FBF
:10368000180C1808180818001800180018401840DE
:1036900018201830FE3F000000000000000000006D
:1036A000000000000000000000000000FE7F187015
:1036B000184018C018801800181018101818F81F93
:1036C0001818181018101800180018001800180002
:1036D000180018007E00000000000000000000003C
:1036E000000000000000000000000000C013701C7B
:1036F000101018100C200C20040006000600060014
:103700000600060006FC063006300C300C3018307F
:1037100018303008C0070000000000000000000062
:103720000000000000000000000000003F7E0C18B8
:103730000C180C180C180C180C180C180C180C1869
:10374000FC1F0C180C180C180C180C180C180C1862
:103750000C180C183F7E0000000000000000000064
:10376000000000000000000000000000F81F8001C1
:103770008001800180018001800180018001800141
:103780008001800180018001800180018001800131
:1037900080018001F81F0000000000000000000010
:1037A000000000000000000000000000E07F0006B4
:1037B00000060006000600060006000600060006D9
:1037C00000060006000600060006000600060006C9
:1037D00000060006000600060E060E038E01FC0021
:1037E0000000000000000000000000007E7C1818AF
:1037F0001808180418061802180198019801D80131
:10380000B803380318071806180E180C181C1818D7
:10381000183018307EFC000000000000000000009E
:103820000000000000000000000000007E00180002
:1038300018001800180018001800180018001800C8
:103840001800180018001800180018001840184038
:1038500018201830FE3F00000000000000000000AB
:103860000000000000000000000000001FF81C38ED
:103870001C381C381C3C3434343434343436743200
:103880006432643264326431C431C431C431C4300E
:10389000C43084309FFC00000000000000000000E5
:1038A0000000000000000000000000001F7C1C1051
:1038B0003C103410341074106410E410C410C4119F
:1038C00084118413041304170416041E041C041C1E
:1038D000041C04181F180000000000000000000075
:1038E000000000000000000000000000C003300CD9
:1038F000181808100C300C30066006600660066070
:10390000066006600660066006600C200C30081039
:103910001818300CC0030000000000000000000078
:10392000000000000000000000000000FE0F18185A
:10393000183018601860186018601860183018186F
:10394000F80F1800180018001800180018001800C8
:10395000180018007E0000000000000000000000B9
:10396000000000000000000000000000C003300C58
:1039700018180C100C300C200660066006600660FB
:1039800006600660066006600660E4612C331C3247
:103990001816300EC007004C007C003800000000F4
:1039A000000000000000000000000000FE07181CDE
:1039B000183818301830183018301818180CF80744
:1039C00098031803180718061806180E180C180C78
:1039D000181C18187E78000000000000000000008D
:1039E000000000000000000000000000E027303868
:1039F00018300C200C200C000C0018007800E0039C
:103A0000800F001E003800700060046004600860D1
:103A100018303818C80F0000000000000000000037
:103A2000000000000000000000000000FC3F8C21AE
:103A30008461824182418001800180018001800196
:103A4000800180018001800180018001800180016E
:103A500080018001E007000000000000000000007D
:103A60000000000000000000000000003F7C0C107F
:103A70000C100C100C100C100C100C100C100C1066
:103A80000C100C100C100C100C100C100C100C1056
:103A900008083804E00300000000000000000000F7
:103AA0000000000000000000000000003EF81820A8
:103AB00018201820301030103010301060086008C6
:103AC0006008E00CC004C004C004800380038003CD
:103AD0008003000100010000000000000000000061
:103AE000000000000000000000000000DFF386611D
:103AF000862186218C210C218C238C138C138C1312
:103B00004C1358125816580E380E380E380E300C0A
:103B10001004100410040000000000000000000069
:103B20000000000000000000000000007E3E1808B9
:103B300038083004300470026002E001C001C001A6
:103B4000800180034003400720062006100C100C63
:103B5000081808183E7C000000000000000000006B
:103B60000000000000000000000000007E7C1C102F
:103B7000181018083008300C700460046002C0028D
:103B8000C002C001800180018001800180018001AC
:103B900080018001E007000000000000000000003C
:103BA000000000000000000000000000F83F1818AE
:103BB0000818040C040E00060007000380038001AF
:103BC000C001C000E0006000700030003820182004
:103BD0001C100C18FE1F0000000000000000000078
:103BE000000000000000C03F4000400040004000D6
:103BF00040004000400040004000400040004000C5
:103C000040004000400040004000400040004000B4
:103C100040004000400040004000C03F0000000065
:103C2000000000000000000000000800180018005C
:103C3000100030002000600060004000C0008000E4
:103C4000800180010001000300020006000600045C
:103C5000000C0008001800180010003000200000C0
:103C6000000000000000FC0300020002000200024D
:103C70000002000200020002000200020002000234
:103C80000002000200020002000200020002000224
:103C900000020002000200020002FC03000000001B
:103CA0000000000000008007C0062008101000007F
:103CB0000000000000000000000000000000000004
:103CC00000000000000000000000000000000000F4
:103CD00000000000000000000000000000000000E4
:103CE00000000000000000000000000000000000D4
:103CF00000000000000000000000000000000000C4
:103D000000000000000000000000000000000000B3
:103D10000000000000000000000000000000FFFFA5
:103D20000000000000007800C0000001000000005A
:103D30000000000000000000000000000000000083
:103D40000000000000000000000000000000000073
:103D50000000000000000000000000000000000063
:103D60000000000000000000000000000000000053
:103D700000000000000000000000F00318060C0C1A
:103D80000C0C000C800F700C1C0C0C0C060C060CA0
:103D9000064C0C4FF8380000000000000000000046
:103DA0000000000000000000000010001E001800CD
:103DB00018001800180018001800180FD81838300C
:103DC0003860186018601860186018601860182053
:103DD00038307818C807000000000000000000001C
:103DE00000000000000000000000000000000000D3
:103DF00000000000000000000000C007700C181850
:103E000018180C180C000C000C000C000C201820CA
:103E100018103008C007000000000000000000007B
:103E2000000000000000000000000010001E00184C
:103E300000180018001800180018E01B301C181893
:103E400018180C180C180C180C180C180C1808184A
:103E5000181C307AE009000000000000000000009B
:103E60000000000000000000000000000000000052
:103E700000000000000000000000C007300C18180F
:103E800008100C300C30FC3F0C000C000C0018200B
:103E900018107018C00700000000000000000000AB
:103EA000000000000000000000000000003E80C391
:103EB00080C0C0C0C000C000C000FC1FC000C00067
:103EC000C000C000C000C000C000C000C000C000F2
:103ED000C000C000F80F000000000000000000005B
:103EE00000000000000000000000000000000000D2
:103EF00000000000000000000000C077306C1018C7
:103F00001818181818181018300CF0071800180096
:103F1000F00FF03F08700C600C600C603838E00F58
:103F20000000000000000000000010001E0018004B
:103F300018001800180018001800980FD81838300A
:103F40001830183018301830183018301830183031
:103F5000183018307EFC0000000000000000000057
:103F6000000000000000000000000000800380034B
:103F700080030000000000000001F80180018001C2
:103F80008001800180018001800180018001800129
:103F900080018001F81F0000000000000000000008
:103FA00000000000000000000000000000380038A1
:103FB00000380000000000000010801F00180018EA
:103FC0000018001800180018001800180018001831
:103FD00000180018001800180018180C1806F00334
:103FE0000000000000000000000010001E0018008B
:103FF00018001800180018001800183E180C1806B1
:10400000180318019801D801380318071806180C6E
:10401000181C18187E7C0000000000000000000042
:10402000000000000000000000000001F801800115
:104030008001800180018001800180018001800178
:104040008001800180018001800180018001800168
:1040500080018001F81F0000000000000000000047
:104060000000000000000000000000000000000050
:1040700000000000000000000800EE1C9C338C31A2
:104080008C318C318C318C318C318C318C318C3148
:104090008C318C31DE7B000000000000000000004D
:1040A0000000000000000000000000000000000010
:1040B000000000000000000010001E0FD81838306B
:1040C00018301830183018301830183018301830B0
:1040D000183018307EFC00000000000000000000D6
:1040E00000000000000000000000000000000000D0
:1040F00000000000000000000000C007701C10302D
:1041000018300C600C600C600C600C600C60183097
:1041100018303018C0070000000000000000000048
:10412000000000000000000000000000000000008F
:10413000000000000000000010009E0F58183830EA
:10414000182018601860186018601860186018301F
:1041500038307818980718001800180018007E00EA
:10416000000000000000000000000000000000004F
:1041700000000000000000000000C023303C1838A0
:1041800018300C300C300C300C300C300C30083047
:104190001838303CE033003000300030003000FC94
:1041A000000000000000000000000000000000000F
:1041B000000000000000000060007E3C606660615E
:1041C000E000E000600060006000600060006000EF
:1041D00060006000FE07000000000000000000001A
:1041E00000000000000000000000000000000000CF
:1041F00000000000000000000000E0273038183008
:10420000182018007000E003800F001C04300430F8
:104210000C301C18EC0F0000000000000000000033
:10422000000000000000000000000000000000008E
:10423000800080008000C000E000FC1FC000C000C3
:10424000C000C000C000C000C000C000C000C0204E
:10425000C0208011000F00000000000000000000DE
:10426000000000000000000000000000000000004E
:10427000000000000000000010201E3C1830183024
:1042800018301830183018301830183018301830EE
:10429000183830F4E01300000000000000000000B7
:1042A000000000000000000000000000000000000E
:1042B000000000000000000000007E3C18181808F4
:1042C000380830043004700260026002E001C0016E
:1042D000C001C000800000000000000000000000DD
:1042E00000000000000000000000000000000000CE
:1042F00000000000000000000000DFF78E630C23C8
:104300008C238C239813981358165816700E700E21
:10431000700E2004200400000000000000000000D7
:10432000000000000000000000000000000000008D
:1043300000000000000000000000FC3E7008700457
:10434000E004C002C0018003800340076006200C27
:10435000100C18183E7E0000000000000000000055
:10436000000000000000000000000000000000004D
:10437000000000000000000000007E7C18181808F3
:1043800030083008300460046004C002C002C0027B
:104390008001800180018000800080004C003C0092
:1043A000000000000000000000000000000000000D
:1043B00000000000000000000000FC1F0C0C040EB8
:1043C0000406000380038001C000E000702030205C
:1043D00038301C18FC1F0000000000000000000026
:1043E0000000000000000030000800040004000489
:1043F000000400040004000400040004000400029F
:104400008001000200040004000400040004000411
:104410000004000400040004000400080030000050
:104420000001000100010001000100010001000184
:104430000001000100010001000100010001000174
:104440000001000100010001000100010001000164
:104450000001000100010001000100010001000154
:104460000000000000000C001000200020002000D0
:10447000200020002000200020002000200040001C
:1044800080014000200020002000200020002000AB
:104490002000200020002000200010000C00000060
:1044A00000003800C400864002610022001C0000A9
:1044B00000000000000000000000000000000000FC
:1044C00000000000000000000000000000000000EC
:1044D00000000000000000000000000000000000DC
:1044E000D6D08000800080008000FC1F84108410E3
:1044F000841084108410FC1F8410800080008000D1
:104500008000BEB0F80F0808F80F0808F80F800008
:10451000FF7F0000F80F08080808F80F80008410DB
:10452000A2204000D4B00000FE3F0220F22702206B
:104530000220FA2F222122212221122912290A2EB9
:104540000220FE3F0220B5E7800080008000FC1FB3
:10455000841084108410FC1F841084108410FC1FAD
:10456000845080408040007FD7D30000FE1F0008A9
:104570000004000280018000FF7F80008000800036
:10458000800080008000A0004000D6D00000000025
:1045900000000018000008000008000008000808DB
:1045A00018F8FF1F180818180818180818180818FD
:1045B000180818180818F8FF1F0808080008000055
:1045C000080000080000080000180000180000188B
:1045D00000000000BEB0000000000000400006C067
:1045E000FF07400006C0FF07400006C0FF07400865
:1045F00002003000FEFF3F000000C0FF07C00002C5
:10460000C00002C00002C0FF0380100080110160E2
:10461000100E3010180C1E30001C00000000D4B02A
:10462000000000000000080030F8FF1F080010081C
:10463000C010083F10080010080010080013C8FF41
:104640001008221008221008221008221008211237
:1046500008211488601648C013280010080010F8BC
:10466000FF1F080010000000B5E700000000000078
:10467000001800000800000800000800F0FF0F10FC
:104680000804100804100804100804F0FF071008BC
:1046900004100804100804100804F0FF07100800B4
:1046A00000081000081000082000183000F01F005B
:1046B0000000D7D3000000000000000004F0FF0F4E
:1046C00000000600000100C00000280000180000E3
:1046D0001800001830FEFF7F0018000018000018B6
:1046E0000000180000180000180000180000180052
:1046F000001800001F00000C00000000D6D00000D1
:104700000000000000000080000000800100008028
:104710000100008001000080010000800100108085
:10472000010CF0FFFF0F3080010430800104308065
:1047300001043080010430800104308001043080A5
:10474000010430800104F0FFFF0730800104308055
:104750000104008001000080010000800100008051
:104760000100008001000080010000800100008045
:104770000100008001000080000000000000BEB0C9
:1047800000000000000000000000000000018001A7
:1047900000FFFF01000380010003800100FFFF0113
:1047A000000380010003800100FFFF010081810000
:1047B000000003000000031CFCFFFF3F000040005E
:1047C0000003C00100FFFF010003C0000003C000A0
:1047D0000003C00000FFFF000001410000040100D1
:1047E000000E710000078101800101076000010EC9
:1047F0001898011C04E0011800C00000000000002F
:10480000D4B0000000000000000000000008F0FF2D
:10481000FF1F3000000C3000000C3000100C30FE88
:104820003F0C3004000C3000000C3000000C300055
:10483000000C3000C00CF0FFFF0D3030060E3030A1
:10484000060C3010060C3010060C3010060C301818
:10485000860C3018860C3008060D300C860D30069C
:10486000EE0F3002FC0D3001000CF000000C3000A7
:10487000000CF0FFFF0F3000000C100000040000DF
:104880000000B5E7000000000000000000C00000CC
:1048900000C0010000C0000000C0000000C0000017
:1048A00000C00000E0FFFF0360C0000360C0000321
:1048B00060C0000360C0000360C0000360C000036C
:1048C000E0FFFF0360C0000360C0000360C000039E
:1048D00060C0000360C00003E0FFFF0360C0000190
:1048E00060C0000000C0000800C0001000C0001040
:1048F00000C0001800C001380080FF1F0000000049
:1049000000000000D7D300000000000000000000FD
:10491000000000000003C0FFFF0700008007000048
:10492000C000000060000000180000000C000080C3
:104930000300008003000080010000800108008067
:10494000011CFCFFFF3F008001000080010000808F
:104950000100008001000080010000800100008053
:104960000100008001000080010000800100008043
:1049700001000080010000FC010000E00000004098
:1049800000000000000002030405060708090A0BE6
:104990000C0D0E0F10100102030405060708090A8A
:1049A0000B0C0D0E0F100000C8490008000000207D
:1049B000100000005E190008D8490008100000200F
:1049C000000400006E19000800127A0001000000C7
:0849D0001000000000000000CF
:040000050800018965
:00000001FF
