:020000040800F2
:1000000010040020E100000839040008E50200089F
:1000100000000000000000000000000000000000E0
:100020000000000000000000000000003D04000887
:1000300000000000000000003B0400083F0400082E
:10004000F3000008F3000008F3000008F3000008C4
:10005000F3000008F3000008F3000008F3000008B4
:1000600000000000F3000008F3000008F30000089F
:10007000F3000008F3000008F3000008000000008F
:10008000F3000008F300000800000000F30000087F
:10009000F3000008F3000008F3000008F300000874
:1000A000F3000008F3000008F3000008F300000864
:1000B000F300000800000000000000000000000045
:1000C000F300000800000000F30000080348854624
:1000D00000F0D8F80048004721070008100400206D
:1000E0000448804704480047FEE7FEE7FEE7FEE7D6
:1000F000FEE7FEE741040008CD000008024670B5A7
:100100004A40D30FDB0740002DD04A002AD0010E11
:10011000140E000212020919400A520A8418E5015D
:1001200004465443000A120A2E045043A4194219EB
:10013000200CC543AA18120C0125AD03521C5219FC
:1001400012047F39240400D0521C104301D4400013
:10015000491EC2B20C06C0092018401C4008802A63
:1001600002D003E0002070BD40084000002900DA02
:100170000020184370BD70B502464A40D50F4000BC
:100180004A00ED0740085208002814D0002A12D077
:10019000C40DD30D41020120C0055202490A520A82
:1001A000E41A091812187D34914201D3641C00E04E
:1001B0004900002C01DA002070BD0023914201D3D8
:1001C000891A0343400849000028F7D100290AD0C2
:1001D000914202D10121C90705E0914201D20121DA
:1001E00001E00121C943E005C018401900F008F8FA
:1001F00070BD10B500229623114600F009F810BD1D
:10020000002904DA401C490001D140084000704731
:1002100070B40024050C05D11024000402D100297B
:1002200021D01124050E01D100020834050F01D19F
:100230000001241D850F01D18000A41C002801DBD2
:100240004000641C002908D020252E1B0D46F540D7
:10025000A14000D001212943084301061B1B000ACD
:10026000DB1D02D5002070BC7047DB051818801814
:100270000029F8DA401C4900F5D170BC4008400064
:1002800070470000064C0125064E05E0E36807CCE8
:100290002B430C3C98471034B442F7D3FFF71AFFB6
:1002A000641000088410000880B582B0014601A8DF
:1002B000017000780090012804D0FFE70098022820
:1002C00006D00BE0284844F2000100F095F906E062
:1002D000254848F2000100F08FF900E0FFE702B086
:1002E00080BDC046FFE7FEE780B5054800F040FA54
:1002F0000448002101224EF2000300F085F980BD80
:10030000120500000004004880B586B0154800F0D2
:100310002FFA15480190012105910022029244F222
:100320000003009300F070F90198029A059948F2D1
:100330000003049300F068F9009B019802990322DE
:10034000039200F0A8F901980299039A049B00F027
:10035000A2F90598FFF7A8FF0220FFF7A5FF06B056
:1003600080BDC046130500000008004880B590B06D
:100370000F900E912E4800F0FBF940F2106000F053
:10038000F7F90920C00600900221002204920423FC
:10039000019300F039F90098019B0499032200F0C1
:1003A0007AF90098019A049900F0C6F8214806905D
:1003B00000F020FD07A8029000F030FE0299049A98
:1003C000069847230B804A808A800F9B0993CA8036
:1003D0000A7300F08DFD0BA8039000F0FAFC039A5D
:1003E0000499069801230593138051809180D18050
:1003F0001181518100F0AAFA049906980E9A00F032
:100400006FFC04990698602200F01AFC049A069882
:10041000114600F08FFC069800F08EFA05990698B8
:1004200000F0E4FD069800F059FD10B080BDC04614
:100430001105000000400140704770477047704749
:1004400080B584B0E5490868012210430860FFE7E1
:10045000E24800688007002801D4FFE7F8E7FFE7DB
:100460002D49086880221043086000200390FFE7B0
:1004700003987F2805D8FFE7FFE70398401C039007
:10048000F6E7254908689022104308600020039091
:10049000FFE703987F2805D8FFE7FFE70398401C94
:1004A0000390F6E7FFE71C490868032290430860C1
:1004B000CA4A1068194B184010600868184A104062
:1004C00008600868174A10400860174908680F223A
:1004D000904308601549086840F203129043086091
:1004E0000868012201921304984308600868D30742
:1004F000984308600E490868904308600D49002041
:100500000290086000F0DEF901980299C00600F040
:100510001DF904B080BDC04604100240FFFFF2FE8A
:100520000C00FF08FFFFC2772C1002403010024081
:10053000341002400810024086B0059004910392E6
:100540000598006A01900598406A009002A9002071
:100550000880FFE702A8008807281DD8FFE702A847
:1005600001880398C840C00780B1FFE702A801884E
:1005700089000F228A4001999143019104990088D2
:1005800080008140019808430190FFE7FFE702984F
:10059000401C02A90880DDE702A908200880FFE7C7
:1005A00002A800880F281FD8FFE702A80188039837
:1005B000C840C00790B1FFE702A801888900203930
:1005C0000F228A400099914300910499008880008D
:1005D00020388140009808430090FFE7FFE7029829
:1005E000401C02A90880DBE7019805990862009881
:1005F0000599486206B0704782B00190009100985A
:100600000199886202B0704787B006900591049204
:1006100003930698006801900698C068009002A9AC
:1006200000200880FFE702A800880F282BD8FFE7EA
:1006300002A801880398C840C007F0B1FFE702A8EC
:1006400001884900032213468B4001999943019187
:10065000059B018849008B4001991943019101884C
:1006600049008A4000999143009104990088400014
:100670008140009808430090FFE7FFE70298401C84
:1006800002A90880CFE701980699086000980699AA
:10069000C86007B0704710B586B0059004A8017017
:1006A000039202930078012806D1FFE7029A059988
:1006B00048681043486005E0029A059948689043ED
:1006C0004860FFE705988068009001A90020088035
:1006D000FFE701A800880F281DD8FFE701A80188BF
:1006E0000298C840C00780B1FFE701A8018849000F
:1006F00003228A40009991430091039900884000A9
:100700008140009808430090FFE7FFE70198401CF4
:1007100001A90880DDE700980599886006B010BD42
:1007200080B582B0002001906946087000F0E4F8BE
:10073000FFF7EAFDFFF7D8FD034840F2F411FFF799
:1007400015FEFFE7FEE7C046E703000082B0019018
:10075000009101980099044A114008430349086038
:10076000BFF34F8F02B0704780FFFF1F08ED00E01E
:1007700081B001466846018000881F220146114071
:1007800001238B4081094A4A88581843885001B098
:100790007047C04681B001466846018000881F222C
:1007A0000146114001238B408109414A88589843F2
:1007B000885001B07047C04681B00146684601804C
:1007C00000881F220146114001238B408109384ACD
:1007D00088581843885001B07047C0460010024046
:1007E00084B000200390029031490868012212046D
:1007F00010430860FFE70398401C03902C480068F2
:100800000121490408400290FFE70299002001906D
:1008100039B9FFE703982749401A411E88410190E2
:10082000FFE70198C0070028E5D1FFE720480068EE
:100830008003002802D4FFE7FFE7FEE71E490868AF
:10084000022210430522904308601C490091086869
:10085000086008680860086808600868184A10405E
:10086000086008681D2212041043086010490868D7
:100870000122120610430860FFE70D48006880015E
:10088000002801D4FFE7F8E70C49086803229043E9
:1008900008600868022210430860FFE70748006804
:1008A0000C210840082801D0FFE7F7E704B07047A3
:1008B00000100240FFFF0000002002400410024030
:1008C000FFFFC27780B5FFF78BFF80BD81B000903E
:1008D0000098042806D1FFE706490868042210435F
:1008E000086005E003490868042290430860FFE7B8
:1008F00001B0704710E000E080B50420C043FFF76E
:10090000E5FF08480068FFF774FC0749FFF733FC70
:1009100001460648016000680549FFF7EFFB0549FD
:10092000086080BD000000200024F44A0C00002074
:1009300000007A440800002081B000900099086807
:1009400080221043086001B07047000084B003901B
:1009500002A80180019200880090032800D964E178
:1009600000998A0001A080188746C04600F006B8AA
:1009700000F063B800F0CBB800F023B90399086A1F
:100980000122904308620399886903229043886199
:10099000019802880399086A104308620399086A5B
:1009A000022290430862019882880399086A1043E2
:1009B000086203989E4988420FD0FFE703989D493B
:1009C00088420AD0FFE703989B49884205D0FFE799
:1009D00003989A4988422FD1FFE70399086A0422B5
:1009E00090430862019842880399086A104308629C
:1009F0000399086A0822904308620198C288039903
:100A0000086A104308620399486840F20012904354
:100A10004860019802890399486810434860039927
:100A2000486840F200229043486001984289039947
:100A3000486810434860FFE7F8E00399086A10220D
:100A4000904308620399886940F2003290438861BC
:100A50000198008802010399086A1043086203990B
:100A6000086A202290430862019880880201039955
:100A7000086A1043086203986D49884233D1FFE742
:100A80000399086A40229043086201984088020155
:100A90000399086A104308620399086A8022904308
:100AA00008620198C08802010399086A104308622D
:100AB0000399486840F200429043486001980089D9
:100AC000820003994868104348600399486840F6DB
:100AD0000002904348600198408982000399486869
:100AE00010434860FFE70398F64988420ED1FFE7BC
:100AF0000399486840F20042904348600198008999
:100B000082000399486810434860FFE78EE003992C
:100B1000086A40F20012904308620399C8690322F0
:100B20009043C8610198008802020399086A104343
:100B300008620399086A40F2002290430862019813
:100B4000808802020399086A104308620398DC490E
:100B5000884235D1FFE70399086A40F2004290438A
:100B600008620198408802020399086A10430862EB
:100B70000399086A40F60002904308620198C08811
:100B800002020399086A104308620399486841F217
:100B90000002904348600198008902010399486867
:100BA000104348600399486842F20002904348604D
:100BB0000198408902010399486810434860FFE7A3
:100BC00034E00399086A41F20002904308620399F5
:100BD000C86940F200329043C8610198008802035E
:100BE0000399086A104308620399086A42F20002F6
:100BF000904308620198808802030399086A1043B1
:100C000008620398F34988420ED1FFE703994868C8
:100C100044F20002904348600198008982010399E0
:100C2000486810434860FFE700E0FFE704B0704702
:100C3000002C0140004001400044014000480140B8
:100C400084B0039002A8018001A90A800088009066
:100C5000032841D800998A0001A080188746C04621
:100C600000F006B800F010B800F01CB800F026B88C
:100C70000399886970229043886101A802880399CA
:100C800088691043886128E00399886947F2000267
:100C90009043886101A80088020203998869104383
:100CA00088611AE00399C86970229043C86101A85D
:100CB00002880399C8691043C8610EE00399C869A6
:100CC00047F200029043C86101A80088020203991C
:100CD000C8691043C86100E0FFE704B07047000036
:100CE00084B0039002A8018001920088009003283C
:100CF0001CD800998A0001A08018874600F006B829
:100D000000F008B800F00AB800F00CB80198039998
:100D100048630CE001980399886308E001980399FF
:100D2000C86304E001980399086400E0FFE704B099
:100D30007047000084B0039002A8018001A90A80D6
:100D400000880090032841D800998A0001A08018EB
:100D50008746C04600F006B800F010B800F01CB896
:100D600000F026B80399886908229043886101A899
:100D70000288039988691043886128E0039988698B
:100D800040F600029043886101A80088020203999E
:100D90008869104388611AE00399C8690822904362
:100DA000C86101A802880399C8691043C8610EE0B0
:100DB0000399C86940F600029043C86101A8008801
:100DC00002020399C8691043C86100E0FFE704B05C
:100DD000704781B0009000990020088000994880F9
:100DE000009988800099C8800099088100994881FD
:100DF00001B0704780B58AB009900998089076498B
:100E0000884226D0FFE708982C49884229D0FFE77E
:100E10000898724988422CD0FFE708986D498842AB
:100E20000FD0FFE708986E4988422BD0FFE708985B
:100E30006C4988422FD0FFE708986B49884232D02E
:100E400039E025480790FFF7B7FC0798FFF7A2FCA9
:100E500032E020480690FFF7AFFC0698FFF79AFCB7
:100E60002AE01B480590FFF7A7FC0598FFF792FCC6
:100E700022E040F208400490FFF79EFC0498FFF740
:100E800089FC19E040F210300390FFF795FC0398BD
:100E9000FFF780FC10E00D480290FFF78DFC0298F0
:100EA000FFF778FC08E008480190FFF785FC0198FF
:100EB000FFF770FC00E0FFE70AB080BD00100040C3
:100EC000002C01400040014012030000110300000B
:100ED00004040000010400000B03000081B0009036
:100EE0000099086801221043086001B070470000B3
:100EF00082B0019000910098008801998862019861
:100F00003449884205D0FFE701983349884212D11D
:100F1000FFE70199086870229043086000984288B2
:100F20000199086810430860009882880199086850
:100F300010430860FFE7009880680199C862019833
:100F40002449884219D0FFE701982349884214D0E8
:100F5000FFE70198214988420FD0FFE70198204917
:100F600088420AD0FFE701981E49884205D0FFE772
:100F700001981D4988420DD1FFE70199086840F2A8
:100F80000032904308600098C288019908681043B5
:100F90000860FFE701980F4988420FD0FFE70198EA
:100FA0000F4988420AD0FFE701980E49884205D0D0
:100FB000FFE701980C49884205D1FFE70098007BC4
:100FC00001990863FFE701994869012210434861CC
:100FD00002B07047002C0140000400400020004097
:100FE00000400140004401400048014082B00190AF
:100FF000684601700078012807D1FFE70199486C25
:1010000048F200021043486406E00199486C48F237
:10101000000290434864FFE702B0704781B000903F
:101020000099002008800099488000998880009AE3
:10103000034991600099C8800099087301B0704716
:10104000FFFF000002E008C8121F08C1002AFAD101
:1010500070477047002001E001C1121F002AFBD138
:101060007047000088100008000000200800000001
:101070004410000890100008080000200804000038
:10108000541000080000000000A24A040000000004
:04000005080000CD22
:00000001FF
