Component: Arm Compiler for Embedded 6.18 Tool: armlink [5e4cc100]

==============================================================================

Section Cross References

    gd32e23x_it.o(.ARM.exidx.text.NMI_Handler) refers to gd32e23x_it.o(.text.NMI_Handler) for [Anonymous Symbol]
    gd32e23x_it.o(.ARM.exidx.text.HardFault_Handler) refers to gd32e23x_it.o(.text.HardFault_Handler) for [Anonymous Symbol]
    gd32e23x_it.o(.ARM.exidx.text.SVC_Handler) refers to gd32e23x_it.o(.text.SVC_Handler) for [Anonymous Symbol]
    gd32e23x_it.o(.ARM.exidx.text.PendSV_Handler) refers to gd32e23x_it.o(.text.PendSV_Handler) for [Anonymous Symbol]
    gd32e23x_it.o(.ARM.exidx.text.SysTick_Handler) refers to gd32e23x_it.o(.text.SysTick_Handler) for [Anonymous Symbol]
    main.o(.text.main) refers to systick.o(.text.systick_config) for systick_config
    main.o(.text.main) refers to led.o(.text.Init_LED_GPIO) for Init_LED_GPIO
    main.o(.text.main) refers to tft_init.o(.text.TFT_Init) for TFT_Init
    main.o(.text.main) refers to tft.o(.text.TFT_Fill) for TFT_Fill
    main.o(.ARM.exidx.text.main) refers to main.o(.text.main) for [Anonymous Symbol]
    systick.o(.text.systick_config) refers to gd32e23x_misc.o(.text.systick_clksource_set) for systick_clksource_set
    systick.o(.text.systick_config) refers to ffltui.o(.text) for __aeabi_ui2f
    systick.o(.text.systick_config) refers to fdiv.o(.text) for __aeabi_fdiv
    systick.o(.text.systick_config) refers to fmul.o(.text) for __aeabi_fmul
    systick.o(.text.systick_config) refers to system_gd32e23x.o(.data.SystemCoreClock) for SystemCoreClock
    systick.o(.text.systick_config) refers to systick.o(.bss.count_1us) for [Anonymous Symbol]
    systick.o(.text.systick_config) refers to systick.o(.bss.count_1ms) for [Anonymous Symbol]
    systick.o(.ARM.exidx.text.systick_config) refers to systick.o(.text.systick_config) for [Anonymous Symbol]
==============================================================================

Removing Unused input sections from the image.

    Removing gd32e23x_it.o(.text), (0 bytes).
    Removing gd32e23x_it.o(.ARM.exidx.text.NMI_Handler), (8 bytes).
    Removing gd32e23x_it.o(.ARM.exidx.text.HardFault_Handler), (8 bytes).
    Removing gd32e23x_it.o(.ARM.exidx.text.SVC_Handler), (8 bytes).
    Removing gd32e23x_it.o(.ARM.exidx.text.PendSV_Handler), (8 bytes).
    Removing gd32e23x_it.o(.ARM.exidx.text.SysTick_Handler), (8 bytes).
    Removing main.o(.text), (0 bytes).
    Removing main.o(.ARM.exidx.text.main), (8 bytes).
    Removing main.o(.ARM.use_no_argv), (4 bytes).
    Removing systick.o(.text), (0 bytes).
    Removing systick.o(.ARM.exidx.text.systick_config), (8 bytes).
    Removing systick.o(.text.delay_1us), (128 bytes).
    Removing systick.o(.ARM.exidx.text.delay_1us), (8 bytes).
    Removing systick.o(.text.delay_us), (128 bytes).
    Removing systick.o(.ARM.exidx.text.delay_us), (8 bytes).
    Removing systick.o(.ARM.exidx.text.delay_1ms), (8 bytes).
    Removing systick.o(.text.delay_ms), (128 bytes).
    Removing systick.o(.ARM.exidx.text.delay_ms), (8 bytes).
==============================================================================

Image Symbol Table

    Local Symbols

    Symbol Name                              Value     Ov Type        Size  Object(Section)

    ../Firmware/CMSIS/GD/GD32E23x/Source/ARM/startup_gd32e23x.s 0x00000000   Number         0  startup_gd32e23x.o ABSOLUTE
    ../clib/microlib/init/entry.s            0x00000000   Number         0  entry.o ABSOLUTE
    ../clib/microlib/init/entry.s            0x00000000   Number         0  entry2.o ABSOLUTE
    ../clib/microlib/init/entry.s            0x00000000   Number         0  entry5.o ABSOLUTE
    ../clib/microlib/init/entry.s            0x00000000   Number         0  entry7a.o ABSOLUTE
    ../clib/microlib/init/entry.s            0x00000000   Number         0  entry7b.o ABSOLUTE
    ../clib/microlib/init/entry.s            0x00000000   Number         0  entry8a.o ABSOLUTE
    ../clib/microlib/init/entry.s            0x00000000   Number         0  entry8b.o ABSOLUTE
    ../clib/microlib/init/entry.s            0x00000000   Number         0  entry9a.o ABSOLUTE
    ../clib/microlib/init/entry.s            0x00000000   Number         0  entry9b.o ABSOLUTE
    ../clib/microlib/init/entry.s            0x00000000   Number         0  entry10a.o ABSOLUTE
    ../clib/microlib/init/entry.s            0x00000000   Number         0  entry10b.o ABSOLUTE
    ../clib/microlib/init/entry.s            0x00000000   Number         0  entry11a.o ABSOLUTE
    ../clib/microlib/init/entry.s            0x00000000   Number         0  entry11b.o ABSOLUTE
    ../clib/microlib/stubs.s                 0x00000000   Number         0  iusefp.o ABSOLUTE
    ../fplib/microlib/fpdiv.c                0x00000000   Number         0  fdiv.o ABSOLUTE
    ../fplib/microlib/fpepilogue.c           0x00000000   Number         0  fepilogue.o ABSOLUTE
    ../fplib/microlib/fpfix.c                0x00000000   Number         0  ffixui.o ABSOLUTE
    ../fplib/microlib/fpflt.c                0x00000000   Number         0  ffltui.o ABSOLUTE
    ../fplib/microlib/fpmul.c                0x00000000   Number         0  fmul.o ABSOLUTE
    dc.s                                     0x00000000   Number         0  dc.o ABSOLUTE
    gd32e23x_adc.c                           0x00000000   Number         0  gd32e23x_adc.o ABSOLUTE
    gd32e23x_cmp.c                           0x00000000   Number         0  gd32e23x_cmp.o ABSOLUTE
    gd32e23x_crc.c                           0x00000000   Number         0  gd32e23x_crc.o ABSOLUTE
    gd32e23x_dbg.c                           0x00000000   Number         0  gd32e23x_dbg.o ABSOLUTE
    gd32e23x_dma.c                           0x00000000   Number         0  gd32e23x_dma.o ABSOLUTE
    gd32e23x_exti.c                          0x00000000   Number         0  gd32e23x_exti.o ABSOLUTE
    gd32e23x_fmc.c                           0x00000000   Number         0  gd32e23x_fmc.o ABSOLUTE
    gd32e23x_fwdgt.c                         0x00000000   Number         0  gd32e23x_fwdgt.o ABSOLUTE
    gd32e23x_gpio.c                          0x00000000   Number         0  gd32e23x_gpio.o ABSOLUTE
    gd32e23x_i2c.c                           0x00000000   Number         0  gd32e23x_i2c.o ABSOLUTE
    gd32e23x_it.c                            0x00000000   Number         0  gd32e23x_it.o ABSOLUTE
    gd32e23x_misc.c                          0x00000000   Number         0  gd32e23x_misc.o ABSOLUTE
    gd32e23x_pmu.c                           0x00000000   Number         0  gd32e23x_pmu.o ABSOLUTE
    gd32e23x_rcu.c                           0x00000000   Number         0  gd32e23x_rcu.o ABSOLUTE
    gd32e23x_rtc.c                           0x00000000   Number         0  gd32e23x_rtc.o ABSOLUTE
    gd32e23x_spi.c                           0x00000000   Number         0  gd32e23x_spi.o ABSOLUTE
    gd32e23x_syscfg.c                        0x00000000   Number         0  gd32e23x_syscfg.o ABSOLUTE
    gd32e23x_timer.c                         0x00000000   Number         0  gd32e23x_timer.o ABSOLUTE
    gd32e23x_usart.c                         0x00000000   Number         0  gd32e23x_usart.o ABSOLUTE
    gd32e23x_wwdgt.c                         0x00000000   Number         0  gd32e23x_wwdgt.o ABSOLUTE
    handlers.s                               0x00000000   Number         0  handlers.o ABSOLUTE
    init.s                                   0x00000000   Number         0  init.o ABSOLUTE
    led.c                                    0x00000000   Number         0  led.o ABSOLUTE
    main.c                                   0x00000000   Number         0  main.o ABSOLUTE
    system_gd32e23x.c                        0x00000000   Number         0  system_gd32e23x.o ABSOLUTE
    systick.c                                0x00000000   Number         0  systick.o ABSOLUTE
    tft.c                                    0x00000000   Number         0  tft.o ABSOLUTE
    tft_init.c                               0x00000000   Number         0  tft_init.o ABSOLUTE
    RESET                                    0x08000000   Section      204  startup_gd32e23x.o(RESET)
    .ARM.Collect$$$$00000000                 0x080000cc   Section        0  entry.o(.ARM.Collect$$$$00000000)
    .ARM.Collect$$$$00000001                 0x080000cc   Section        4  entry2.o(.ARM.Collect$$$$00000001)
    .ARM.Collect$$$$00000004                 0x080000d0   Section        4  entry5.o(.ARM.Collect$$$$00000004)
    .ARM.Collect$$$$00000008                 0x080000d4   Section        0  entry7b.o(.ARM.Collect$$$$00000008)
    .ARM.Collect$$$$0000000A                 0x080000d4   Section        0  entry8b.o(.ARM.Collect$$$$0000000A)
    .ARM.Collect$$$$0000000B                 0x080000d4   Section        8  entry9a.o(.ARM.Collect$$$$0000000B)
    __lit__00000000                          0x080000dc   Data           4  entry2.o(.ARM.Collect$$$$00002712)
    .ARM.Collect$$$$0000000D                 0x080000dc   Section        0  entry10a.o(.ARM.Collect$$$$0000000D)
    .ARM.Collect$$$$0000000F                 0x080000dc   Section        0  entry11a.o(.ARM.Collect$$$$0000000F)
    .ARM.Collect$$$$00002712                 0x080000dc   Section        4  entry2.o(.ARM.Collect$$$$00002712)
    .text                                    0x080000e0   Section       28  startup_gd32e23x.o(.text)
    .text                                    0x080000fc   Section        0  fmul.o(.text)
    .text                                    0x08000176   Section        0  fdiv.o(.text)
    .text                                    0x080001f2   Section        0  ffltui.o(.text)
    .text                                    0x08000200   Section        0  ffixui.o(.text)
    .text                                    0x08000228   Section        0  iusefp.o(.text)
    .text                                    0x08000228   Section        0  fepilogue.o(.text)
    .text                                    0x080002ac   Section       36  init.o(.text)
    [Anonymous Symbol]                       0x080002d0   Section        0  led.o(.text.CLose_LED)
    [Anonymous Symbol]                       0x0800030c   Section        0  gd32e23x_it.o(.text.HardFault_Handler)
    [Anonymous Symbol]                       0x08000310   Section        0  led.o(.text.Init_LED_GPIO)
    __arm_cp.0_0                             0x0800036c   Number         4  led.o(.text.Init_LED_GPIO)
    __arm_cp.0_1                             0x08000370   Number         4  led.o(.text.Init_LED_GPIO)
    [Anonymous Symbol]                       0x08000374   Section        0  tft_init.o(.text.Init_SPI0_GPIO)
    __arm_cp.0_0                             0x080003f4   Number         4  tft_init.o(.text.Init_SPI0_GPIO)
    __arm_cp.0_1                             0x080003f8   Number         4  tft_init.o(.text.Init_SPI0_GPIO)
    [Anonymous Symbol]                       0x080003fc   Section        0  gd32e23x_it.o(.text.NMI_Handler)
    [Anonymous Symbol]                       0x080003fe   Section        0  gd32e23x_it.o(.text.PendSV_Handler)
    SPI0_Write                               0x08000401   Thumb Code    40  tft_init.o(.text.SPI0_Write)
    [Anonymous Symbol]                       0x08000400   Section        0  tft_init.o(.text.SPI0_Write)
    __arm_cp.4_0                             0x08000428   Number         4  tft_init.o(.text.SPI0_Write)
    [Anonymous Symbol]                       0x0800042c   Section        0  gd32e23x_it.o(.text.SVC_Handler)
    [Anonymous Symbol]                       0x0800042e   Section        0  gd32e23x_it.o(.text.SysTick_Handler)
    [Anonymous Symbol]                       0x08000430   Section        0  system_gd32e23x.o(.text.SystemInit)
    __arm_cp.0_0                             0x08000508   Number         4  system_gd32e23x.o(.text.SystemInit)
    __arm_cp.0_1                             0x0800050c   Number         4  system_gd32e23x.o(.text.SystemInit)
    __arm_cp.0_2                             0x08000510   Number         4  system_gd32e23x.o(.text.SystemInit)
    __arm_cp.0_3                             0x08000514   Number         4  system_gd32e23x.o(.text.SystemInit)
    __arm_cp.0_4                             0x08000518   Number         4  system_gd32e23x.o(.text.SystemInit)
    __arm_cp.0_5                             0x0800051c   Number         4  system_gd32e23x.o(.text.SystemInit)
    __arm_cp.0_6                             0x08000520   Number         4  system_gd32e23x.o(.text.SystemInit)
    __arm_cp.0_7                             0x08000524   Number         4  system_gd32e23x.o(.text.SystemInit)
    __arm_cp.0_8                             0x08000528   Number         4  system_gd32e23x.o(.text.SystemInit)
    [Anonymous Symbol]                       0x0800052c   Section        0  tft_init.o(.text.TFT_Address_Set)
    [Anonymous Symbol]                       0x0800057e   Section        0  tft.o(.text.TFT_Fill)
    TFT_GPIO_Init                            0x080005d1   Thumb Code    56  tft_init.o(.text.TFT_GPIO_Init)
    [Anonymous Symbol]                       0x080005d0   Section        0  tft_init.o(.text.TFT_GPIO_Init)
    __arm_cp.9_0                             0x08000608   Number         4  tft_init.o(.text.TFT_GPIO_Init)
    [Anonymous Symbol]                       0x0800060c   Section        0  tft_init.o(.text.TFT_Init)
    [Anonymous Symbol]                       0x08000834   Section        0  tft_init.o(.text.TFT_WR_DATA)
    [Anonymous Symbol]                       0x08000868   Section        0  tft_init.o(.text.TFT_WR_DATA8)
    [Anonymous Symbol]                       0x08000894   Section        0  tft_init.o(.text.TFT_WR_REG)
    __arm_cp.6_0                             0x080008d0   Number         4  tft_init.o(.text.TFT_WR_REG)
    [Anonymous Symbol]                       0x080008d4   Section        0  systick.o(.text.delay_1ms)
    __arm_cp.3_0                             0x08000944   Number         4  systick.o(.text.delay_1ms)
    __arm_cp.3_1                             0x08000948   Number         4  systick.o(.text.delay_1ms)
    __arm_cp.3_2                             0x0800094c   Number         4  systick.o(.text.delay_1ms)
    __arm_cp.3_3                             0x08000950   Number         4  systick.o(.text.delay_1ms)
    [Anonymous Symbol]                       0x08000954   Section        0  gd32e23x_dma.o(.text.dma_channel_disable)
    [Anonymous Symbol]                       0x08000970   Section        0  gd32e23x_dma.o(.text.dma_channel_enable)
    [Anonymous Symbol]                       0x0800098c   Section        0  gd32e23x_dma.o(.text.dma_circulation_disable)
    [Anonymous Symbol]                       0x080009a8   Section        0  gd32e23x_dma.o(.text.dma_deinit)
    __arm_cp.0_4                             0x08000a00   Number         4  gd32e23x_dma.o(.text.dma_deinit)
    [Anonymous Symbol]                       0x08000a04   Section        0  gd32e23x_dma.o(.text.dma_flag_get)
    __arm_cp.21_0                            0x08000a38   Number         4  gd32e23x_dma.o(.text.dma_flag_get)
    [Anonymous Symbol]                       0x08000a3c   Section        0  gd32e23x_dma.o(.text.dma_init)
    __arm_cp.2_0                             0x08000b48   Number         4  gd32e23x_dma.o(.text.dma_init)
    __arm_cp.2_1                             0x08000b4c   Number         4  gd32e23x_dma.o(.text.dma_init)
    __arm_cp.2_2                             0x08000b50   Number         4  gd32e23x_dma.o(.text.dma_init)
    [Anonymous Symbol]                       0x08000b54   Section        0  gd32e23x_dma.o(.text.dma_memory_to_memory_disable)
    __arm_cp.7_0                             0x08000b74   Number         4  gd32e23x_dma.o(.text.dma_memory_to_memory_disable)
    [Anonymous Symbol]                       0x08000b78   Section        0  gd32e23x_dma.o(.text.dma_struct_para_init)
    [Anonymous Symbol]                       0x08000ba6   Section        0  gd32e23x_gpio.o(.text.gpio_af_set)
    [Anonymous Symbol]                       0x08000c66   Section        0  gd32e23x_gpio.o(.text.gpio_bit_reset)
    [Anonymous Symbol]                       0x08000c76   Section        0  gd32e23x_gpio.o(.text.gpio_bit_set)
    [Anonymous Symbol]                       0x08000c86   Section        0  gd32e23x_gpio.o(.text.gpio_mode_set)
    [Anonymous Symbol]                       0x08000d14   Section        0  gd32e23x_gpio.o(.text.gpio_output_options_set)
    [Anonymous Symbol]                       0x08000da0   Section        0  main.o(.text.main)
    __arm_cp.0_0                             0x08000dcc   Number         4  main.o(.text.main)
    [Anonymous Symbol]                       0x08000dd0   Section        0  gd32e23x_misc.o(.text.nvic_vector_table_set)
    __arm_cp.7_0                             0x08000dec   Number         4  gd32e23x_misc.o(.text.nvic_vector_table_set)
    __arm_cp.7_1                             0x08000df0   Number         4  gd32e23x_misc.o(.text.nvic_vector_table_set)
    [Anonymous Symbol]                       0x08000df4   Section        0  gd32e23x_rcu.o(.text.rcu_periph_clock_enable)
    [Anonymous Symbol]                       0x08000e18   Section        0  gd32e23x_rcu.o(.text.rcu_periph_reset_disable)
    [Anonymous Symbol]                       0x08000e3c   Section        0  gd32e23x_rcu.o(.text.rcu_periph_reset_enable)
    __arm_cp.5_0                             0x08000e60   Number         4  gd32e23x_rcu.o(.text.rcu_periph_reset_enable)
    [Anonymous Symbol]                       0x08000e64   Section        0  tft_init.o(.text.spi_dma_config)
    __arm_cp.1_0                             0x08000ec4   Number         4  tft_init.o(.text.spi_dma_config)
    [Anonymous Symbol]                       0x08000ec8   Section        0  gd32e23x_spi.o(.text.spi_dma_enable)
    [Anonymous Symbol]                       0x08000ef4   Section        0  tft_init.o(.text.spi_dma_fill_transmit)
    __arm_cp.2_0                             0x08000f64   Number         4  tft_init.o(.text.spi_dma_fill_transmit)
    [Anonymous Symbol]                       0x08000f68   Section        0  gd32e23x_spi.o(.text.spi_enable)
    [Anonymous Symbol]                       0x08000f7c   Section        0  gd32e23x_spi.o(.text.spi_i2s_data_frame_format_config)
    [Anonymous Symbol]                       0x08001004   Section        0  gd32e23x_spi.o(.text.spi_i2s_data_transmit)
    [Anonymous Symbol]                       0x08001050   Section        0  gd32e23x_spi.o(.text.spi_i2s_deinit)
    __arm_cp.0_2                             0x08001094   Number         4  gd32e23x_spi.o(.text.spi_i2s_deinit)
    [Anonymous Symbol]                       0x08001098   Section        0  gd32e23x_spi.o(.text.spi_i2s_flag_get)
    __arm_cp.41_0                            0x08001114   Number         4  gd32e23x_spi.o(.text.spi_i2s_flag_get)
    [Anonymous Symbol]                       0x08001118   Section        0  gd32e23x_spi.o(.text.spi_init)
    __arm_cp.2_0                             0x08001248   Number         4  gd32e23x_spi.o(.text.spi_init)
    __arm_cp.2_1                             0x0800124c   Number         4  gd32e23x_spi.o(.text.spi_init)
    [Anonymous Symbol]                       0x08001250   Section        0  gd32e23x_spi.o(.text.spi_struct_para_init)
    system_clock_72m_hxtal                   0x0800127d   Thumb Code   208  system_gd32e23x.o(.text.system_clock_72m_hxtal)
    [Anonymous Symbol]                       0x0800127c   Section        0  system_gd32e23x.o(.text.system_clock_72m_hxtal)
    __arm_cp.3_0                             0x0800134c   Number         4  system_gd32e23x.o(.text.system_clock_72m_hxtal)
    __arm_cp.3_1                             0x08001350   Number         4  system_gd32e23x.o(.text.system_clock_72m_hxtal)
    __arm_cp.3_2                             0x08001354   Number         4  system_gd32e23x.o(.text.system_clock_72m_hxtal)
    __arm_cp.3_3                             0x08001358   Number         4  system_gd32e23x.o(.text.system_clock_72m_hxtal)
    __arm_cp.3_4                             0x0800135c   Number         4  system_gd32e23x.o(.text.system_clock_72m_hxtal)
    system_clock_config                      0x08001361   Thumb Code     8  system_gd32e23x.o(.text.system_clock_config)
    [Anonymous Symbol]                       0x08001360   Section        0  system_gd32e23x.o(.text.system_clock_config)
    [Anonymous Symbol]                       0x08001368   Section        0  gd32e23x_misc.o(.text.systick_clksource_set)
    __arm_cp.10_0                            0x08001390   Number         4  gd32e23x_misc.o(.text.systick_clksource_set)
    [Anonymous Symbol]                       0x08001394   Section        0  systick.o(.text.systick_config)
    __arm_cp.0_0                             0x080013c0   Number         4  systick.o(.text.systick_config)
    __arm_cp.0_1                             0x080013c4   Number         4  systick.o(.text.systick_config)
    __arm_cp.0_2                             0x080013c8   Number         4  systick.o(.text.systick_config)
    __arm_cp.0_3                             0x080013cc   Number         4  systick.o(.text.systick_config)
    __arm_cp.0_4                             0x080013d0   Number         4  systick.o(.text.systick_config)
    i.__scatterload_copy                     0x080013d4   Section       14  handlers.o(i.__scatterload_copy)
    i.__scatterload_null                     0x080013e2   Section        2  handlers.o(i.__scatterload_null)
    i.__scatterload_zeroinit                 0x080013e4   Section       14  handlers.o(i.__scatterload_zeroinit)
    count_1ms                                0x20000008   Data           4  systick.o(.bss.count_1ms)
    [Anonymous Symbol]                       0x20000008   Section        0  systick.o(.bss.count_1ms)
    count_1us                                0x2000000c   Data           4  systick.o(.bss.count_1us)
    [Anonymous Symbol]                       0x2000000c   Section        0  systick.o(.bss.count_1us)
    STACK                                    0x20000010   Section     1024  startup_gd32e23x.o(STACK)

    Global Symbols

    Symbol Name                              Value     Ov Type        Size  Object(Section)

    BuildAttributes$$THM_ISAv3M$S$8M$PE$A:L22$X:L11$S22$IEEE1$IW$~IW$USESV6$~STKCKD$USESV7$~SHL$OTIME$ROPI$EBA8$MICROLIB$REQ8$PRES8$EABIv2 0x00000000   Number         0  anon$$obj.o ABSOLUTE
    __cpp_initialize__aeabi_                  - Undefined Weak Reference
    __cxa_finalize                            - Undefined Weak Reference
    __decompress                              - Undefined Weak Reference
    _clock_init                               - Undefined Weak Reference
    _microlib_exit                            - Undefined Weak Reference
    __Vectors_Size                           0x000000cc   Number         0  startup_gd32e23x.o ABSOLUTE
    __Vectors                                0x08000000   Data           4  startup_gd32e23x.o(RESET)
    __Vectors_End                            0x080000cc   Data           0  startup_gd32e23x.o(RESET)
    __main                                   0x080000cd   Thumb Code     0  entry.o(.ARM.Collect$$$$00000000)
    _main_stk                                0x080000cd   Thumb Code     0  entry2.o(.ARM.Collect$$$$00000001)
    _main_scatterload                        0x080000d1   Thumb Code     0  entry5.o(.ARM.Collect$$$$00000004)
    __main_after_scatterload                 0x080000d5   Thumb Code     0  entry5.o(.ARM.Collect$$$$00000004)
    _main_clock                              0x080000d5   Thumb Code     0  entry7b.o(.ARM.Collect$$$$00000008)
    _main_cpp_init                           0x080000d5   Thumb Code     0  entry8b.o(.ARM.Collect$$$$0000000A)
    _main_init                               0x080000d5   Thumb Code     0  entry9a.o(.ARM.Collect$$$$0000000B)
    __rt_final_cpp                           0x080000dd   Thumb Code     0  entry10a.o(.ARM.Collect$$$$0000000D)
    __rt_final_exit                          0x080000dd   Thumb Code     0  entry11a.o(.ARM.Collect$$$$0000000F)
    Reset_Handler                            0x080000e1   Thumb Code     8  startup_gd32e23x.o(.text)
    ADC_CMP_IRQHandler                       0x080000f3   Thumb Code     0  startup_gd32e23x.o(.text)
    DMA_Channel0_IRQHandler                  0x080000f3   Thumb Code     0  startup_gd32e23x.o(.text)
    DMA_Channel1_2_IRQHandler                0x080000f3   Thumb Code     0  startup_gd32e23x.o(.text)
    DMA_Channel3_4_IRQHandler                0x080000f3   Thumb Code     0  startup_gd32e23x.o(.text)
    EXTI0_1_IRQHandler                       0x080000f3   Thumb Code     0  startup_gd32e23x.o(.text)
    EXTI2_3_IRQHandler                       0x080000f3   Thumb Code     0  startup_gd32e23x.o(.text)
    EXTI4_15_IRQHandler                      0x080000f3   Thumb Code     0  startup_gd32e23x.o(.text)
    FMC_IRQHandler                           0x080000f3   Thumb Code     0  startup_gd32e23x.o(.text)
    I2C0_ER_IRQHandler                       0x080000f3   Thumb Code     0  startup_gd32e23x.o(.text)
    I2C0_EV_IRQHandler                       0x080000f3   Thumb Code     0  startup_gd32e23x.o(.text)
    I2C1_ER_IRQHandler                       0x080000f3   Thumb Code     0  startup_gd32e23x.o(.text)
    I2C1_EV_IRQHandler                       0x080000f3   Thumb Code     0  startup_gd32e23x.o(.text)
    LVD_IRQHandler                           0x080000f3   Thumb Code     0  startup_gd32e23x.o(.text)
    RCU_IRQHandler                           0x080000f3   Thumb Code     0  startup_gd32e23x.o(.text)
    RTC_IRQHandler                           0x080000f3   Thumb Code     0  startup_gd32e23x.o(.text)
    SPI0_IRQHandler                          0x080000f3   Thumb Code     0  startup_gd32e23x.o(.text)
    SPI1_IRQHandler                          0x080000f3   Thumb Code     0  startup_gd32e23x.o(.text)
    TIMER0_BRK_UP_TRG_COM_IRQHandler         0x080000f3   Thumb Code     0  startup_gd32e23x.o(.text)
    TIMER0_Channel_IRQHandler                0x080000f3   Thumb Code     0  startup_gd32e23x.o(.text)
    TIMER13_IRQHandler                       0x080000f3   Thumb Code     0  startup_gd32e23x.o(.text)
    TIMER14_IRQHandler                       0x080000f3   Thumb Code     0  startup_gd32e23x.o(.text)
    TIMER15_IRQHandler                       0x080000f3   Thumb Code     0  startup_gd32e23x.o(.text)
    TIMER16_IRQHandler                       0x080000f3   Thumb Code     0  startup_gd32e23x.o(.text)
    TIMER2_IRQHandler                        0x080000f3   Thumb Code     0  startup_gd32e23x.o(.text)
    TIMER5_IRQHandler                        0x080000f3   Thumb Code     0  startup_gd32e23x.o(.text)
    USART0_IRQHandler                        0x080000f3   Thumb Code     0  startup_gd32e23x.o(.text)
    USART1_IRQHandler                        0x080000f3   Thumb Code     0  startup_gd32e23x.o(.text)
    WWDGT_IRQHandler                         0x080000f3   Thumb Code     0  startup_gd32e23x.o(.text)
    __aeabi_fmul                             0x080000fd   Thumb Code   122  fmul.o(.text)
    __aeabi_fdiv                             0x08000177   Thumb Code   124  fdiv.o(.text)
    __aeabi_ui2f                             0x080001f3   Thumb Code    14  ffltui.o(.text)
    __aeabi_f2uiz                            0x08000201   Thumb Code    40  ffixui.o(.text)
    __I$use$fp                               0x08000229   Thumb Code     0  iusefp.o(.text)
    _float_round                             0x08000229   Thumb Code    16  fepilogue.o(.text)
    _float_epilogue                          0x08000239   Thumb Code   114  fepilogue.o(.text)
    __scatterload                            0x080002ad   Thumb Code    28  init.o(.text)
    __scatterload_rt2                        0x080002ad   Thumb Code     0  init.o(.text)
    CLose_LED                                0x080002d1   Thumb Code    60  led.o(.text.CLose_LED)
    HardFault_Handler                        0x0800030d   Thumb Code     4  gd32e23x_it.o(.text.HardFault_Handler)
    Init_LED_GPIO                            0x08000311   Thumb Code    92  led.o(.text.Init_LED_GPIO)
    Init_SPI0_GPIO                           0x08000375   Thumb Code   128  tft_init.o(.text.Init_SPI0_GPIO)
    NMI_Handler                              0x080003fd   Thumb Code     2  gd32e23x_it.o(.text.NMI_Handler)
    PendSV_Handler                           0x080003ff   Thumb Code     2  gd32e23x_it.o(.text.PendSV_Handler)
    SVC_Handler                              0x0800042d   Thumb Code     2  gd32e23x_it.o(.text.SVC_Handler)
    SysTick_Handler                          0x0800042f   Thumb Code     2  gd32e23x_it.o(.text.SysTick_Handler)
    SystemInit                               0x08000431   Thumb Code   216  system_gd32e23x.o(.text.SystemInit)
    TFT_Address_Set                          0x0800052d   Thumb Code    82  tft_init.o(.text.TFT_Address_Set)
    TFT_Fill                                 0x0800057f   Thumb Code    80  tft.o(.text.TFT_Fill)
    TFT_Init                                 0x0800060d   Thumb Code   552  tft_init.o(.text.TFT_Init)
    TFT_WR_DATA                              0x08000835   Thumb Code    52  tft_init.o(.text.TFT_WR_DATA)
    TFT_WR_DATA8                             0x08000869   Thumb Code    44  tft_init.o(.text.TFT_WR_DATA8)
    TFT_WR_REG                               0x08000895   Thumb Code    60  tft_init.o(.text.TFT_WR_REG)
    delay_1ms                                0x080008d5   Thumb Code   112  systick.o(.text.delay_1ms)
    dma_channel_disable                      0x08000955   Thumb Code    28  gd32e23x_dma.o(.text.dma_channel_disable)
    dma_channel_enable                       0x08000971   Thumb Code    28  gd32e23x_dma.o(.text.dma_channel_enable)
    dma_circulation_disable                  0x0800098d   Thumb Code    28  gd32e23x_dma.o(.text.dma_circulation_disable)
    dma_deinit                               0x080009a9   Thumb Code    88  gd32e23x_dma.o(.text.dma_deinit)
    dma_flag_get                             0x08000a05   Thumb Code    52  gd32e23x_dma.o(.text.dma_flag_get)
    dma_init                                 0x08000a3d   Thumb Code   268  gd32e23x_dma.o(.text.dma_init)
    dma_memory_to_memory_disable             0x08000b55   Thumb Code    32  gd32e23x_dma.o(.text.dma_memory_to_memory_disable)
    dma_struct_para_init                     0x08000b79   Thumb Code    46  gd32e23x_dma.o(.text.dma_struct_para_init)
    gpio_af_set                              0x08000ba7   Thumb Code   192  gd32e23x_gpio.o(.text.gpio_af_set)
    gpio_bit_reset                           0x08000c67   Thumb Code    16  gd32e23x_gpio.o(.text.gpio_bit_reset)
    gpio_bit_set                             0x08000c77   Thumb Code    16  gd32e23x_gpio.o(.text.gpio_bit_set)
    gpio_mode_set                            0x08000c87   Thumb Code   142  gd32e23x_gpio.o(.text.gpio_mode_set)
    gpio_output_options_set                  0x08000d15   Thumb Code   138  gd32e23x_gpio.o(.text.gpio_output_options_set)
    main                                     0x08000da1   Thumb Code    44  main.o(.text.main)
    nvic_vector_table_set                    0x08000dd1   Thumb Code    28  gd32e23x_misc.o(.text.nvic_vector_table_set)
    rcu_periph_clock_enable                  0x08000df5   Thumb Code    36  gd32e23x_rcu.o(.text.rcu_periph_clock_enable)
    rcu_periph_reset_disable                 0x08000e19   Thumb Code    36  gd32e23x_rcu.o(.text.rcu_periph_reset_disable)
    rcu_periph_reset_enable                  0x08000e3d   Thumb Code    36  gd32e23x_rcu.o(.text.rcu_periph_reset_enable)
    spi_dma_config                           0x08000e65   Thumb Code    96  tft_init.o(.text.spi_dma_config)
    spi_dma_enable                           0x08000ec9   Thumb Code    42  gd32e23x_spi.o(.text.spi_dma_enable)
    spi_dma_fill_transmit                    0x08000ef5   Thumb Code   112  tft_init.o(.text.spi_dma_fill_transmit)
    spi_enable                               0x08000f69   Thumb Code    18  gd32e23x_spi.o(.text.spi_enable)
    spi_i2s_data_frame_format_config         0x08000f7d   Thumb Code   136  gd32e23x_spi.o(.text.spi_i2s_data_frame_format_config)
    spi_i2s_data_transmit                    0x08001005   Thumb Code    76  gd32e23x_spi.o(.text.spi_i2s_data_transmit)
    spi_i2s_deinit                           0x08001051   Thumb Code    68  gd32e23x_spi.o(.text.spi_i2s_deinit)
    spi_i2s_flag_get                         0x08001099   Thumb Code   124  gd32e23x_spi.o(.text.spi_i2s_flag_get)
    spi_init                                 0x08001119   Thumb Code   304  gd32e23x_spi.o(.text.spi_init)
    spi_struct_para_init                     0x08001251   Thumb Code    42  gd32e23x_spi.o(.text.spi_struct_para_init)
    systick_clksource_set                    0x08001369   Thumb Code    40  gd32e23x_misc.o(.text.systick_clksource_set)
    systick_config                           0x08001395   Thumb Code    44  systick.o(.text.systick_config)
    __scatterload_copy                       0x080013d5   Thumb Code    14  handlers.o(i.__scatterload_copy)
    __scatterload_null                       0x080013e3   Thumb Code     2  handlers.o(i.__scatterload_null)
    __scatterload_zeroinit                   0x080013e5   Thumb Code    14  handlers.o(i.__scatterload_zeroinit)
    Region$$Table$$Base                      0x080013f4   Number         0  anon$$obj.o(Region$$Table)
    Region$$Table$$Limit                     0x08001414   Number         0  anon$$obj.o(Region$$Table)
    SystemCoreClock                          0x20000000   Data           4  system_gd32e23x.o(.data.SystemCoreClock)
    __initial_sp                             0x20000410   Data           0  startup_gd32e23x.o(STACK)



==============================================================================

Memory Map of the image

  Image Entry point : 0x080000cd

  Load Region LR_IROM1 (Base: 0x08000000, Size: 0x00001420, Max: 0x00010000, ABSOLUTE)

    Execution Region ER_IROM1 (Exec base: 0x08000000, Load base: 0x08000000, Size: 0x00001414, Max: 0x00010000, ABSOLUTE)

    Exec Addr    Load Addr    Size         Type   Attr      Idx    E Section Name        Object

    0x08000000   0x08000000   0x000000cc   Data   RO         1180    RESET               startup_gd32e23x.o
    0x080000cc   0x080000cc   0x00000000   Code   RO         1261  * .ARM.Collect$$$$00000000  mc_p.l(entry.o)
    0x080000cc   0x080000cc   0x00000004   Code   RO         1272    .ARM.Collect$$$$00000001  mc_p.l(entry2.o)
    0x080000d0   0x080000d0   0x00000004   Code   RO         1275    .ARM.Collect$$$$00000004  mc_p.l(entry5.o)
    0x080000d4   0x080000d4   0x00000000   Code   RO         1277    .ARM.Collect$$$$00000008  mc_p.l(entry7b.o)
    0x080000d4   0x080000d4   0x00000000   Code   RO         1279    .ARM.Collect$$$$0000000A  mc_p.l(entry8b.o)
    0x080000d4   0x080000d4   0x00000008   Code   RO         1280    .ARM.Collect$$$$0000000B  mc_p.l(entry9a.o)
    0x080000dc   0x080000dc   0x00000000   Code   RO         1282    .ARM.Collect$$$$0000000D  mc_p.l(entry10a.o)
    0x080000dc   0x080000dc   0x00000000   Code   RO         1284    .ARM.Collect$$$$0000000F  mc_p.l(entry11a.o)
    0x080000dc   0x080000dc   0x00000004   Code   RO         1273    .ARM.Collect$$$$00002712  mc_p.l(entry2.o)
    0x080000e0   0x080000e0   0x0000001c   Code   RO         1181    .text               startup_gd32e23x.o
    0x080000fc   0x080000fc   0x0000007a   Code   RO         1264    .text               mf_p.l(fmul.o)
    0x08000176   0x08000176   0x0000007c   Code   RO         1266    .text               mf_p.l(fdiv.o)
    0x080001f2   0x080001f2   0x0000000e   Code   RO         1268    .text               mf_p.l(ffltui.o)
    0x08000200   0x08000200   0x00000028   Code   RO         1270    .text               mf_p.l(ffixui.o)
    0x08000228   0x08000228   0x00000000   Code   RO         1286    .text               mc_p.l(iusefp.o)
    0x08000228   0x08000228   0x00000082   Code   RO         1287    .text               mf_p.l(fepilogue.o)
    0x080002aa   0x080002aa   0x00000002   PAD
    0x080002ac   0x080002ac   0x00000024   Code   RO         1289    .text               mc_p.l(init.o)
    0x080002d0   0x080002d0   0x0000003c   Code   RO         1190    .text.CLose_LED     led.o
    0x0800030c   0x0800030c   0x00000004   Code   RO            4    .text.HardFault_Handler  gd32e23x_it.o
    0x08000310   0x08000310   0x00000064   Code   RO         1188    .text.Init_LED_GPIO  led.o
    0x08000374   0x08000374   0x00000088   Code   RO         1235    .text.Init_SPI0_GPIO  tft_init.o
    0x080003fc   0x080003fc   0x00000002   Code   RO            2    .text.NMI_Handler   gd32e23x_it.o
    0x080003fe   0x080003fe   0x00000002   Code   RO            8    .text.PendSV_Handler  gd32e23x_it.o
    0x08000400   0x08000400   0x0000002c   Code   RO         1243    .text.SPI0_Write    tft_init.o
    0x0800042c   0x0800042c   0x00000002   Code   RO            6    .text.SVC_Handler   gd32e23x_it.o
    0x0800042e   0x0800042e   0x00000002   Code   RO           10    .text.SysTick_Handler  gd32e23x_it.o
    0x08000430   0x08000430   0x000000fc   Code   RO         1162    .text.SystemInit    system_gd32e23x.o
    0x0800052c   0x0800052c   0x00000052   Code   RO         1249    .text.TFT_Address_Set  tft_init.o
    0x0800057e   0x0800057e   0x00000050   Code   RO         1201    .text.TFT_Fill      tft.o
    0x080005ce   0x080005ce   0x00000002   PAD
    0x080005d0   0x080005d0   0x0000003c   Code   RO         1253    .text.TFT_GPIO_Init  tft_init.o
    0x0800060c   0x0800060c   0x00000228   Code   RO         1251    .text.TFT_Init      tft_init.o
    0x08000834   0x08000834   0x00000034   Code   RO         1245    .text.TFT_WR_DATA   tft_init.o
    0x08000868   0x08000868   0x0000002c   Code   RO         1241    .text.TFT_WR_DATA8  tft_init.o
    0x08000894   0x08000894   0x00000040   Code   RO         1247    .text.TFT_WR_REG    tft_init.o
    0x080008d4   0x080008d4   0x00000080   Code   RO           34    .text.delay_1ms     systick.o
    0x08000954   0x08000954   0x0000001c   Code   RO          205    .text.dma_channel_disable  gd32e23x_dma.o
    0x08000970   0x08000970   0x0000001c   Code   RO          215    .text.dma_channel_enable  gd32e23x_dma.o
    0x0800098c   0x0800098c   0x0000001c   Code   RO          209    .text.dma_circulation_disable  gd32e23x_dma.o
    0x080009a8   0x080009a8   0x0000005c   Code   RO          199    .text.dma_deinit    gd32e23x_dma.o
    0x08000a04   0x08000a04   0x00000038   Code   RO          241    .text.dma_flag_get  gd32e23x_dma.o
    0x08000a3c   0x08000a3c   0x00000118   Code   RO          203    .text.dma_init      gd32e23x_dma.o
    0x08000b54   0x08000b54   0x00000024   Code   RO          213    .text.dma_memory_to_memory_disable  gd32e23x_dma.o
    0x08000b78   0x08000b78   0x0000002e   Code   RO          201    .text.dma_struct_para_init  gd32e23x_dma.o
    0x08000ba6   0x08000ba6   0x000000c0   Code   RO          405    .text.gpio_af_set   gd32e23x_gpio.o
    0x08000c66   0x08000c66   0x00000010   Code   RO          391    .text.gpio_bit_reset  gd32e23x_gpio.o
    0x08000c76   0x08000c76   0x00000010   Code   RO          389    .text.gpio_bit_set  gd32e23x_gpio.o
    0x08000c86   0x08000c86   0x0000008e   Code   RO          385    .text.gpio_mode_set  gd32e23x_gpio.o
    0x08000d14   0x08000d14   0x0000008a   Code   RO          387    .text.gpio_output_options_set  gd32e23x_gpio.o
    0x08000d9e   0x08000d9e   0x00000002   PAD
    0x08000da0   0x08000da0   0x00000030   Code   RO           19    .text.main          main.o
    0x08000dd0   0x08000dd0   0x00000024   Code   RO          511    .text.nvic_vector_table_set  gd32e23x_misc.o
    0x08000df4   0x08000df4   0x00000024   Code   RO          561    .text.rcu_periph_clock_enable  gd32e23x_rcu.o
    0x08000e18   0x08000e18   0x00000024   Code   RO          571    .text.rcu_periph_reset_disable  gd32e23x_rcu.o
    0x08000e3c   0x08000e3c   0x00000028   Code   RO          569    .text.rcu_periph_reset_enable  gd32e23x_rcu.o
    0x08000e64   0x08000e64   0x00000064   Code   RO         1237    .text.spi_dma_config  tft_init.o
    0x08000ec8   0x08000ec8   0x0000002a   Code   RO          741    .text.spi_dma_enable  gd32e23x_spi.o
    0x08000ef2   0x08000ef2   0x00000002   PAD
    0x08000ef4   0x08000ef4   0x00000074   Code   RO         1239    .text.spi_dma_fill_transmit  tft_init.o
    0x08000f68   0x08000f68   0x00000012   Code   RO          721    .text.spi_enable    gd32e23x_spi.o
    0x08000f7a   0x08000f7a   0x00000002   PAD
    0x08000f7c   0x08000f7c   0x00000088   Code   RO          749    .text.spi_i2s_data_frame_format_config  gd32e23x_spi.o
    0x08001004   0x08001004   0x0000004c   Code   RO          755    .text.spi_i2s_data_transmit  gd32e23x_spi.o
    0x08001050   0x08001050   0x00000048   Code   RO          715    .text.spi_i2s_deinit  gd32e23x_spi.o
    0x08001098   0x08001098   0x00000080   Code   RO          797    .text.spi_i2s_flag_get  gd32e23x_spi.o
    0x08001118   0x08001118   0x00000138   Code   RO          719    .text.spi_init      gd32e23x_spi.o
    0x08001250   0x08001250   0x0000002a   Code   RO          717    .text.spi_struct_para_init  gd32e23x_spi.o
    0x0800127a   0x0800127a   0x00000002   PAD
    0x0800127c   0x0800127c   0x000000e4   Code   RO         1168    .text.system_clock_72m_hxtal  system_gd32e23x.o
    0x08001360   0x08001360   0x00000008   Code   RO         1164    .text.system_clock_config  system_gd32e23x.o
    0x08001368   0x08001368   0x0000002c   Code   RO          517    .text.systick_clksource_set  gd32e23x_misc.o
    0x08001394   0x08001394   0x00000040   Code   RO           28    .text.systick_config  systick.o
    0x080013d4   0x080013d4   0x0000000e   Code   RO         1293    i.__scatterload_copy  mc_p.l(handlers.o)
    0x080013e2   0x080013e2   0x00000002   Code   RO         1294    i.__scatterload_null  mc_p.l(handlers.o)
    0x080013e4   0x080013e4   0x0000000e   Code   RO         1295    i.__scatterload_zeroinit  mc_p.l(handlers.o)
    0x080013f2   0x080013f2   0x00000002   PAD
    0x080013f4   0x080013f4   0x00000020   Data   RO         1292    Region$$Table       anon$$obj.o


    Execution Region RW_IRAM1 (Exec base: 0x20000000, Load base: 0x08001418, Size: 0x00000410, Max: 0x00002000, ABSOLUTE)

    Exec Addr    Load Addr    Size         Type   Attr      Idx    E Section Name        Object

    0x20000000   0x08001418   0x00000004   Data   RW         1170    .data.SystemCoreClock  system_gd32e23x.o
    0x20000004   0x0800141c   0x00000004   PAD
    0x20000008        -       0x00000004   Zero   RW           39    .bss.count_1ms      systick.o
    0x2000000c        -       0x00000004   Zero   RW           38    .bss.count_1us      systick.o
    0x20000010        -       0x00000400   Zero   RW         1178    STACK               startup_gd32e23x.o


==============================================================================

Image component sizes


      Code (inc. data)   RO Data    RW Data    ZI Data      Debug   Object Name

       594         24          0          0          0       5529   gd32e23x_dma.o
       504          0          0          0          0       4244   gd32e23x_gpio.o
        12          0          0          0          0        713   gd32e23x_it.o
        80         12          0          0          0       3902   gd32e23x_misc.o
       112          4          0          0          0      11269   gd32e23x_rcu.o
       826         16          0          0          0       9075   gd32e23x_spi.o
       160          8          0          0          0       1475   led.o
        48          4          0          0          0        418   main.o
        28          8        204          0       1024        708   startup_gd32e23x.o
       488         56          0          4          0       1930   system_gd32e23x.o
       192         36          0          0          8       1772   systick.o
        80          0          0          0          0       6036   tft.o
      1250         28          0          0          0       3445   tft_init.o

    ----------------------------------------------------------------------
      4384        196        236          4       1036      50516   Object Totals
         0          0         32          0          0          0   (incl. Generated)
        10          0          0          0          4          0   (incl. Padding)

    ----------------------------------------------------------------------

      Code (inc. data)   RO Data    RW Data    ZI Data      Debug   Library Member Name

         0          0          0          0          0          0   entry.o
         0          0          0          0          0          0   entry10a.o
         0          0          0          0          0          0   entry11a.o
         8          4          0          0          0          0   entry2.o
         4          0          0          0          0          0   entry5.o
         0          0          0          0          0          0   entry7b.o
         0          0          0          0          0          0   entry8b.o
         8          4          0          0          0          0   entry9a.o
        30          0          0          0          0          0   handlers.o
        36          8          0          0          0         68   init.o
         0          0          0          0          0          0   iusefp.o
       124          0          0          0          0         72   fdiv.o
       130          0          0          0          0        144   fepilogue.o
        40          0          0          0          0         60   ffixui.o
        14          0          0          0          0         68   ffltui.o
       122          0          0          0          0         72   fmul.o

    ----------------------------------------------------------------------
       520         16          0          0          0        484   Library Totals
         4          0          0          0          0          0   (incl. Padding)

    ----------------------------------------------------------------------

      Code (inc. data)   RO Data    RW Data    ZI Data      Debug   Library Name

        86         16          0          0          0         68   mc_p.l
       430          0          0          0          0        416   mf_p.l

    ----------------------------------------------------------------------
       520         16          0          0          0        484   Library Totals

    ----------------------------------------------------------------------

==============================================================================


      Code (inc. data)   RO Data    RW Data    ZI Data      Debug   

      4904        212        236          4       1036      50844   Grand Totals
      4904        212        236          4       1036      50844   ELF Image Totals
      4904        212        236          4          0          0   ROM Totals

==============================================================================

    Total RO  Size (Code + RO Data)                 5140 (   5.02kB)
    Total RW  Size (RW Data + ZI Data)              1040 (   1.02kB)
    Total ROM Size (Code + RO Data + RW Data)       5144 (   5.02kB)

==============================================================================

