:030000000248D6DD
:0C48D600787FE4F6D8FD75810702491DCB
:101DB300D6D0BEB0D4B0B5E7D7D3004C43445F57B9
:101DC3003A004C43445F483A00FFFFFFFFFFFFFF29
:101DD300FFFFFFFFFFFFFFFFFFFFFFFFFFFFFFFF10
:101DE300FFFFFFFFFFFFFFF7BEFFFFFFDEC6388CDD
:101DF300926B8E6B6E7C10AD96E73CFFFFFFFFFF8F
:101E0300FFFFFFFFFFFFFFFFFFFFFFFFFFFFFFFFDF
:101E1300FFFFFFFFFFFFFFFFFFFFFFFFFFFFFFFFCF
:101E2300FFFFFFFFFFFFFFFFFFFFFFFFFFFFFFFFBF
:101E3300FFFFFFFFFFFFFFEF5D9D15634F426C3216
:101E43000A298819461925214531E86B8EC638FFC2
:101E5300FFFFFFFFFFFFFFFFFFFFFFFFFFFFFFFF8F
:101E6300FFFFFFFFFFFFFFFFFFFFFFFFFFFFFFFF7F
:101E7300FFFFFFFFFFFFFFFFFFFFFFFFFFFFFFFF6F
:101E8300FFFFFFFFFFA53653104B1053514B0F3A83
:101E93006C31E92167192510E408A3006208835215
:101EA300CBD69AFFFFFFFFFFFFFFFFFFFFFFFFFF01
:101EB300FFFFFFFFFFFFFFFFFFFFFFFFFFFFFFFF2F
:101EC300FFFFFFFFFFFFFFFFFFFFFFFFFFFFFFFF1F
:101ED300FFE73C637063B37CB863F54311324D296C
:101EE300EA21881926190519051104110410E400C3
:101EF3008308A38C72FFFFFFFFFFFFFFFFFFFFFFBE
:101F0300FFFFFFFFFFFFFFFFFFFFFFFFFFFFFFFFDE
:101F1300FFFFFFFFFFFFFFFFFFFFFFFFFFFFFFDEEF
:101F2300DB3A4B42F06C354B5432B12A2E21EB2174
:101F3300A9196719051104110411041104110419D5
:101F43000510E4004273AFFFFFFFFFFFFFFFFFFF3A
:101F5300FFFFFFFFFFFFFFFFFFFFFFFFFFFFFFFF8E
:101F6300FFFFFFFFFFFFFFFFFFFFFFFFFFEF5D32FD
:101F730009324C4B10328F2A4F2A2E19CC19892142
:101F830089194719051104110410C410C41104114F
:101F930004110410E400428431FFFFFFFFFFFFFF41
:101FA300FFFFFFFFFFFFFFFFFFFFFFFFFFFFFFFF3E
:101FB300FFFFFFFFFFFFFFFFFFFFFFFFFF52EC19D4
:101FC30047324C2A0B21EC21EC220C5B914AEE1197
:101FD300061926190410E410E429A7216608A31999
:101FE300051104110410E40082BDF7FFFFFFFFFF9A
:101FF300FFFFFFFFFFFFFFFFFFFFFFFFFFFFFFFFEE
:10200300FFFFFFFFFFFFFFFFFFFFFFA53508832152
:10201300882188218921AA218A426B8C71FFFF8C38
:10202300720883110408C44229DEFBEF5D5AEC08F1
:1020330083110411041104088331E8FFDFFFFFFF5C
:10204300FFFFFFFFFFFFFFFFFFFFFFFFFFFFFFFF9D
:10205300FFFFFFFFFFFFFFFFFFF7BE31C710C419EC
:102063002519261947194729A8528A4A28AD55FF29
:10207300FF31E808A319056B4D6B4DFFFFEF7D2181
:102083004510C41104110411040062AD76FFFFFF73
:10209300FFFFFFFFFFFFFFFFFFFFFFFFFFFFFFFF4D
:1020A300FFFFFFFFFFFFFFFFFFB59600621104195B
:1020B300041105190508C44A8BB5B6EF5DBDF7FFDA
:1020C300FF6B8E006242295AAA4208FFFFFFFF52AC
:1020D300CC088311041104110408A352ADFFFFFFC0
:1020E300FFFFFFFFFFFFFFFFFFFFFFFFFFFFFFE715
:1020F3001CFFFFFFFFFFFFFFFF634E006211041190
:1021030004110410E40062638EFFFFFFFFFFFFFF73
:10211300FF73CF00019CF3632CB596FFFFFFFF5BBA
:102123002D008311041104110410E42167EF3DFF16
:10213300FFFFFFFFFFFFFFFFFFBDF8B5B7EF9E52A5
:10214300CB94B3FFFFFFFFFFDF31E808A3110411B6
:10215300041104110408A34249F7FFF7FFFFFFFF2F
:10216300FF4A6A00018472FFFFFFFFF7FFEFDF3AC8
:102173000908A311041104110411041105BE18FF69
:10218300FFFFFFFFFFFFFFFFFF7BF0006231E8313E
:10219300C70041A535FFFFEF5D214610C4110411AF
:1021A300041104110410E408A39D76F7FFFFFFADAB
:1021B300B708A308A331C7E79EF7FFF7FFA5760883
:1021C300A310E411041104110411051105A535FF31
:1021D300FFFFFFFFFFFFFFFFFFDEDB29A7008310E9
:1021E300C410C410C4E71CEF9E110510E4110411C0
:1021F3000411041104190408C410E56BD16BD10850
:10220300C5006408A50043322B9D7784B3192510BC
:10221300C41104110411041104192509269D35FF65
:10222300FFFFFFFFFFFFFFFFFFFFFF73AF00621919
:1022330004190500825B0D9B8E10621105110411B8
:1022430004190410E40085110539C45A817B409CAC
:1022530022AC43A4039B837282498218C200A40068
:10226300C510E4190411041905194711675AECFF45
:10227300BEFFFFFFFFFFFFFFFFFFDFDEDB10C4102A
:10228300E41104110518A4C001888300E419051999
:102293000408C521448343D523FE42FEE4FF27FF00
:1022A30007FEA4FE64FE03FDA3FCE2EC42B38362DB
:1022B3002410E508C41904192619A821879000BC25
:1022C300D3FFFFFFFFFFFFFFFFFFDFFFFF7C1000D8
:1022D30042190511052883D001F84448A300E408F6
:1022E300C55A44ED02FDE2FE02FE66FF74FFB8FF2D
:1022F30073F6E7F6A6F645F5A4FCC3FC62FCC2FC44
:10230300C2CBE349C411061988018790A4F8019A46
:10231300ECFFFFFFFFFFFFFFFFFFFFFFFFF7BE31F4
:10232300E8008309054082C001F823F08548A30033
:10233300A45A44FD02CC23DCC2FE04FE28F648F670
:1023430046F624F5E4FD64FCE3FC62FCC2E402DC33
:1023530002FCE27AA40148016778C4F824F802B0C9
:1023630084E77DFFFFFFFFFFFFFFFFFFFFFFFFDEB0
:10237300DB192500A338C4E002D822F844F8A67874
:10238300A400632143728339839B82F521FD61FDA0
:1023930022FCE2FCA2FC42FC42FC42AB22418392BF
:1023A300C352040126192598A4F844F823F802D04F
:1023B300A4EF9EFFFFFFFFFFFFFFFFFFFFFFFFFFF6
:1023C300FFD69A298700A5B843F822E023F865F8D9
:1023D300E8C9074883004200A3008429637AA2B3B3
:1023E30062CBA2D362BB028A82398300A400E500D8
:1023F300E508E560C4D864F844F824F823F80288B3
:1024030083C6DBFFFFFFFFFFFFFFFFFFFFFFFFFFB2
:10241300FFFFFFE73D5B503108E823F843F044F842
:1024230065F909F9ABD189890648A318420002006E
:10243300420061008200620062008320A350C488CE
:10244300A5D885F865F844F844F823F823D0031099
:102453008229C7EF5DFFFFFFFFFFFFFFFFFFFFFFC6
:10246300FFFFFFFFFFFFFF326C38A5D802F823F808
:1024730065F866F8A7F94AFA0CFA4DEA4CD20BB99B
:10248300A9B168A947B127B907D107E8E7F8C7F8A1
:10249300A7F865F865F844F823F803D00228A309E0
:1024A3000508C45AECFFFFFFFFFFFFFFFFFFFFFF1D
:1024B300FFFFFFFFFFDEFB190500C441A7C0E6F8DD
:1024C30003F886F8A7F887F886F8C7F929F98AF98F
:1024D300ABF9ABF98BF96AF929F908F8C7F8A6F84B
:1024E30086F865F864F823F002B106292500E410A4
:1024F300E4192519259D14FFFFFFFFFFFFFFFFFFD1
:10250300FFFFFFFFFFAD96006208829535CEBAA2AA
:102513008BD044F825F887F8A7F8C7F8A7F887F809
:1025230086F886F886F887F8A7F8A7F8A6F885F856
:1025330065F864F024B864930DB6BB63CF088311C8
:102543000410E421663A49EF5DFFFFFFFFFFFFFF41
:10255300FFFFFFFFFF94D3004210E4CEBBFFFFE772
:10256300BEB576AACCC107E045F845F846F866F84B
:1025730086F886F886F886F865F845F865E865D044
:1025830044A84388019082D73CEFFF9555088311F7
:102593000411041905194694B3FFFFFFFFFFFFFF62
:1025A300FFFFFFFFFF94B300412186DF5DFFFFFFC5
:1025B300FFFFFFE7DFC67AB4D3B34EC22AD168E088
:1025C300E6E8A6E8A5E8A5D8E6C988A906A822A84A
:1025D30002A000C800D800E5F7E7FFADF810C4106B
:1025E300E4110410E411054A8BFFFFFFFFFFFFFF17
:1025F300FFFFFFFFFFA555004129A7DF5DF7FFFFA1
:10260300FFFFFFFFFFFFFFFFFFEFFFDF7DCEDBCE0F
:1026130059CDF8CDD7C5F7CE79BEFBA2ABF003F801
:1026230045D042E843F000D472DFFFAE3910E41026
:10263300E4110410E411052987FFFFFFFFFFFFFFEB
:10264300FFFFFFFFFFCE5908832146D71CF7FFFF8B
:10265300FFFFFFFFFFFFFFFFFFFFFFFFFFFFFFFF87
:10266300FFFFFFFFFFFFFFFFFFEFFFBA8BF804F849
:1026730045E062F044F800DB8EDFFFA5F810C410DC
:10268300E410E4110410E41925FFFFFFFFFFFFFF2F
:10269300FFFFFFFFFFF7BE29870883B639F7FFF770
:1026A300DFFFFFFFFFFFFFFFFFFFFFFFFFFFFFFF57
:1026B300FFFFFFFFFFFFFFFFFFE7BEBA4AF803F884
:1026C30045F864F844F800E36ED7FF8CF4088311EF
:1026D3000410E410E410E41905FFFFFFFFFFFFFF00
:1026E300FFFFFFFFFFFFFF73EF00008472EFFFEFB9
:1026F300BEFFDFFFFFFFFFFFFFFFFFFFFFFFFFFF48
:10270300FFFFFFFFFFFFFFFFFFE7DFBA8BF803F8D1
:1027130045F845F823F800D4D3D7FF5B4E00213AA0
:1027230029A555088310C41925FFFFFFFFFFFFFFED
:10273300FFFFFFFFFFFFFFDEFB08A331E8DF9EE79C
:102743009EEFBFFFFFFFFFFFFFFFFFFFFFFFFFFF47
:10275300FFFFFFFFFFFFFFFFFFF7FFBC51E002F8A2
:1027630003F003E043C2ECCF7EBEFC21460021947C
:10277300D3FFFF845100002987FFFFFFFFFFFFFF07
:10278300FFFFFFFFFFFFFFFFFF845100008CF4EF0B
:10279300FFE79EEFBFFFDFFFFFFFFFFFFFFFFFFF2F
:1027A300FFFFFFFFFFFFFFFFFFFFFFDF3DBD55BC47
:1027B30052BC72B5B7C75DDFFF6BF000003A09F793
:1027C300BFFFFFFFFF9D14A555FFFFFFFFFFFFFFA7
:1027D300FFFFFFFFFFFFFFFFFFFFFF4AAC08A4BEA1
:1027E300BBE7DFE77EEFBEF7DFFFDFFFFFFFFFFFA4
:1027F300FFFFFFFFFFFFFFFFFFFFDFF7DFEFFFDF5E
:10280300DFD7BFD79EDFDFA5D808831126D6DBFF2E
:10281300FFFFFFFFFFFFFFFFFFFFFFFFFFFFFFFFC5
:10282300FFFFFFFFFFFFFFFFFFEE79DC8B3121216D
:10283300A9CF3DDFBFDF7EE79EEFBEEFBFF7DFF738
:10284300DFF7DFF7DFF7DFEFBFEFBEE79EDF7ED710
:102853005ED75EDFDFB69A19260842A3EDFFBFFFFE
:10286300FFFFFFFFFFFFFFFFFFFFFFFFFFFFFFFF75
:10287300FFFFFFFFFFFFFFDD74DBC0FE00EE424200
:10288300022189B67BDFDFD77EDF7EDF7EE79EE72F
:102893009EE79EE79EE79EDF7EDF7ED75DD75DDF07
:1028A3009EE7FFA5F8110718E3C502FD60D3E6EE26
:1028B300DBFFFFFFFFFFFFFFFFFFFFFFFFFFFFFF49
:1028C300FFFFFFFFFFF79EBA84FCC1FE42FE82FEBC
:1028D300A2838121457474C75EDFDFD77ED75ED7BD
:1028E3005DD75ED75ED75DD75DD75EDF9EE7FFC757
:1028F3003D63F108845242E626FF29FE86F3E0C3D6
:102903006AFFFFFFFFFFFFFFFFFFFFFFFFFFFFFF69
:10291300FFFFFFFFFFDE18D2C1FDA2FE22FE42FE33
:1029230042FE62D4E26A4142497453A63BC73ED792
:10293300BFD7BFD7BFDFBFD7BFC73EA61A63F22932
:10294300A74182B422FE62FE83FEAAFF0FFD67BA8F
:1029530063EF3CFFFFFFFFFFFFFFFFFFFFFFFFFFF3
:10296300FFFFFFFFFFE69AD280FD21FDC2F5E2F5EE
:10297300C2F582FD82FD62DC619B216A846AE963A0
:102983002C63AF7411636E632C5A8952047A81CB22
:10299300C2FCE2FD62FD82FDC2FDC2FDE4FD24CA6C
:1029A30062E71CFFFFFFFFFFFFFFFFFFFFFFFFFFCC
:1029B300FFFFFFFFFFFFFFCCB1D281F3C0FCC1FDDE
:1029C30002FD02FCE2FCC2FCC2FC81FB80C9C081A7
:1029D300A4AD35CE599C718121DA00FBA1FC82FCA8
:1029E300A2FC82FCA2FD02FD22FCE2FC00DA60CC28
:1029F30090FFFFFFFFFFFFFFFFFFFFFFFFFFFFFF53
:102A0300FFFFFFFFFFFFFFFFFFDE59C40DCB06D221
:102A1300E4DB03DB03DAE3D2C3C2A4B309BCD2F71A
:102A23009EFFFFFFFFFFFFE6FBB40EBAA6D283E2D1
:102A3300E3EB02EB22E322DB03D2E4C36AD5B6FF66
:092A4300FFFFFFFFFFFFFFFFFF93
:103FCC009004A6123323000000001241299004B083
:103FDC00E4F0A374A0F074FFA3F0A3F07B807A004C
:103FEC00E4FDFCFFFE12482A7BFF7A1D79B3900496
:103FFC00B174F8F0A3E4F074FFA3F0A3F0A3741869
:10400C00F0E4A3F0FDFCFFFE1243C27BFF7A1D79A6
:10401C00BE9004B174F8F0A3E4F074FFA3F0A3F025
:10402C00A37410F0E4A3F07D1EFC7F18FE1249620D
:10403C009004B07403F0A374F8F0A3E4F074FFA33D
:10404C00F0A3F0A37410F07B807A007D1E7C007FBF
:10405C00487E001244FA7BFF7A1D79C59004B17436
:10406C00F8F0A3E4F074FFA3F0A3F0A37410F0E451
:10407C00A3F07D32FC7F18FE1249629004B07403E9
:10408C00F0A374F8F0A3E4F074FFA3F0A3F0A3740E
:10409C0010F07BA07A007D327C007F487E001244B9
:1040AC00FA9004A6E0FCA3E0FDA3E0FEA3E0FF90E1
:1040BC0004AE1233179004B27404F0A374F8F0A396
:1040CC00E4F074FFA3F0A3F0A37410F07D507C0017
:1040DC007F147E001242789004A6E0FCA3E0FDA3BE
:1040EC00E0FEA3E0FF7BAE7A4779E1783D122F0624
:1040FC009004A61233179004B0E4F0A37428F0A334
:10410C0074FFF0A3741DF0A374CCF07B287A007DAF
:0D411C00507C007F417E00124626023FF4D9
:044B0B007F647E0045
:104B0F00EF4E60157D087C07ED1DAA0470011C4A4D
:094B1F0070F6EF1F70EA1E80E73A
:014B2800226A
:104AE500C294E4FEEEC39408748094805015C2907D
:104AF500EF30E704D2918002C291D290EF25E0FF1A
:054B05000E80E1D294D6
:014B0A002288
:0F4B3E00124B507F05124B4D7F3C124B4D7F3C6D
:034B4D00024AE534
:074B29002401FFE03400FE4F
:0E4B3000AD07AC06ECFF124AE5AF05024AE500
:084B5000C293124AE5D2932240
:104A9C009004D7EEF0A3EFF0A3ECF0A3EDF07F2A97
:104AAC00124B509004D8E02402FF9004D7124B2CE8
:104ABC00EB2402FFE43AFE124B307F2B124B50904A
:104ACC0004DAE09004D9124B299004DEE09004DD66
:094ADC00124B297F2C124B5022D1
:10412900C292124B0BD292124B0BD295124B0B7FB0
:1041390011124B507F787E00124B0F7FB1124B3E0C
:104149007FB2124B3E7FB3124B3E124B417FB412EA
:104159004B507F03124B4D7FC0124B507F28124B9F
:104169004D7F08124B4D7F04124B4D7FC1124B50AE
:104179007FC0124B4D7FC2124B507F0D124B4DE445
:10418900FF124B4D7FC3124B507F8D124B4D7F2A2F
:10419900124B4D7FC4124B507F8D124B4D7FEE1247
:1041A9004B4D7FC5124B507F1A124B4D7F36124B28
:1041B900507FC0124B4D7FE0124B507F04124B4D84
:1041C9007F22124B4D7F07124B4D7F0A124B4D7FB9
:1041D9002E124B4D7F30124B4D7F25124B4D7F2AAE
:1041E900124B4D7F28124B4D7F26124B4D7F2E12BD
:1041F9004B4D7F3A124B4DE4FF124B4D7F01124B51
:104209004D7F03124B4D7F13124B4D7FE1124B50E3
:104219007F04124B4D7F16124B4D7F06124B4D7F7B
:104229000D124B4D7F2D124B4D7F26124B4D7F2387
:10423900124B4D7F27124B4D7F27124B4D7F251275
:104249004B4D7F2D124B4D7F3B124B4DE4FF124BD3
:104259004D7F01124B4D7F04124B4D7F13124B4D75
:0F4269007F3A124B507F05124B4D7F29024B506D
:1000030000000000000000000000000000000000ED
:100013000000000808080808080800001818000075
:1000230000486C24120000000000000000000000E3
:100033000000002424247F1212127F1212120000E7
:100043000000081C2A2A0A0C1828282A2A1C080837
:1000530000000022251515152A5854545422000077
:100063000000000C1212120A76252911916E00006D
:10007300000606040300000000000000000000006A
:10008300004020101008080808080810102040003D
:1000930000020408081010101010100808040200D1
:1000A3000000000008086B1C1C6B0808000000001F
:1000B30000000000080808087F080808080000007E
:1000C300000000000000000000000000060604031A
:1000D3000000000000000000FE000000000000001F
:1000E3000000000000000000000000000606000001
:1000F3000000804040202010100808040402020081
:1001030000000018244242424242424224180000A6
:10011300000000080E08080808080808083E000048
:100123000000003C4242422020100804427E0000AE
:100133000000003C4242201820404042221C0000A4
:10014300000000203028242422227E202078000072
:100153000000007E0202021A26404042221C0000D8
:10016300000000382402021A2642424224180000EA
:100173000000007E2222101008080808080800006A
:100183000000003C4242422418244242423C000008
:10019300000000182442424264584040241C0000DE
:1001A30000000000000018180000000018180000EC
:1001B3000000000000000008000000000008080420
:1001C3000000004020100804020408102040000032
:1001D3000000000000007F0000007F00000000001E
:1001E3000000000204081020402010080402000050
:1001F3000000003C42424640201010001818000046
:100203000000001C225A555555552D42221C000052
:100213000000000808181414243C224242E700009E
:100223000000001F2222221E22424242221F0000FF
:100233000000007C4242010101010142221C000036
:100243000000001F2242424242424242221F00005B
:100253000000003F4212121E12120242423F0000EF
:100263000000003F4212121E121202020207000097
:100273000000003C2222010101712122221C000006
:10028300000000E7424242427E42424242E700000F
:100293000000003E0808080808080808083E000097
:1002A3000000007C10101010101010101010110F0F
:1002B3000000007722120A0E0A121222227700008F
:1002C300000000070202020202020202427F000053
:1002D30000000077363636362A2A2A2A2A6B00008F
:1002E300000000E346464A4A525252626247000007
:1002F3000000001C2241414141414141221C0000B8
:100303000000003F424242423E0202020207000056
:100313000000001C2241414141414D53321C600009
:100323000000003F4242423E1212222242C7000016
:100333000000007C4242020418204042423E00007A
:100343000000007F4908080808080808081C000086
:10035300000000E74242424242424242423C000025
:10036300000000E742422224241414180808000065
:100373000000006B494949495555362222220000A5
:10038300000000E7422424181818242442E7000040
:10039300000000772222141408080808081C000033
:1003A3000000007E2120101008040442423F000098
:1003B30000780808080808080808080808087800EA
:1003C3000000020204040808081010202020404006
:1003D300001E1010101010101010101010101E001E
:1003E300003844000000000000000000000000008E
:1003F300000000000000000000000000000000FFFB
:1004030000060800000000000000000000000000DB
:10041300000000000000003C4278444242FC00001F
:10042300000000030202021A26424242261A00007A
:1004330000000000000000384402020244380000BB
:1004430000000060404040784442424264D80000CB
:10045300000000000000003C427E0202423C00001B
:10046300000000F08808087E08080808083E00001D
:10047300000000000000007C22221C023C42423C9F
:10048300000000030202023A4642424242E70000F1
:100493000000000C0C00000E08080808083E0000CD
:1004A3000000003030000038202020202020221EB1
:1004B3000000000302020272120A161222770000E1
:1004C3000000000E0808080808080808083E000095
:1004D300000000000000007F9292929292B7000009
:1004E300000000000000003B4642424242E7000099
:1004F300000000000000003C42424242423C000037
:10050300000000000000001B26424242221E020798
:10051300000000000000007844424242447840E07A
:1005230000000000000000774C040404041F0000D6
:10053300000000000000007C42023C40423E0000FC
:10054300000000000008083E080808080830000002
:1005530000000000000000634242424262DC0000EF
:1005630000000000000000E74224241408080000F3
:1005730000000000000000EB49495555222200000D
:10058300000000000000007624181818246E0000F4
:1005930000000000000000E74224241418080807A4
:1005A300000000000000007E22100808447E0000C6
:1005B30000C0202020202010202020202020C00048
:1005C3001010101010101010101010101010101028
:1005D30000060808080808100808080808080600A4
:1005E3000C32C20000000000000000000000000008
:1005F30000000000000000000000000000000000F8
:1006030000000000000000000000000000000000E7
:1006130000000000000000000000000000000000D7
:1006230000000000000000000000000000000000C7
:1006330000000000000000000000C001C001C00174
:10064300C001C001C001C0018000800080008000A3
:100653008000800080000000000000000000800196
:10066300C003C00380010000000000000000000080
:10067300000000000000E01CE01CF01E700E3807B4
:1006830018030801840000000000000000000000BF
:100693000000000000000000000000000000000057
:1006A3000000000000000000000000000000000047
:1006B30000000000000000000000000020102010D7
:1006C300201020102010FE7FFE7F10081008100855
:1006D3001008100810081008FE7FFE7F08040804A5
:1006E30008040804080400000000000000000000E3
:1006F300000000000000000000010001C0076019B5
:10070300103118311839183938017001E001C0036C
:100713008007000F001D003900311C311C310C31E2
:100723000C11180DE007000100010001000000009A
:100733000000000000000000000000001C1036183C
:100743006308630C63046304630263026301361D7D
:100753009C3780228063406340632063206330635F
:1007630010221836081C00000000000000000000E2
:10077300000000000000000000000000F0009801ED
:100783008C018C018C018C018C00CC007800183E0C
:100793001C083608320863046304C304C303834399
:1007A30006438E26781C00000000000000000000B5
:1007B3000000000000001C003C003C003000300042
:1007C30010000C0006000000000000000000000004
:1007D3000000000000000000000000000000000016
:1007E3000000000000000000000000000000000006
:1007F3000000000000000040002000100008000C72
:10080300000400060003000300038001800180014F
:100813008001800180018001800100030003000347
:1008230000060006000C0008001000200040000035
:100833000000000000000200040008001000300067
:1008430020006000C000C000C00080018001800162
:1008530080018001800180018001C000C000C000D0
:100863006000600030001000080004000200000077
:100873000000000000000000000000000000000075
:1008830000018003800300011C713C79783DC0079F
:100893000001C007783D3C791C710001800380038F
:1008A30080010000000000000000000000000000C4
:1008B3000000000000000000000000000000000035
:1008C300000000010001000100010001000100011E
:1008D300FC7F000100010001000100010001000193
:1008E3000000000000000000000000000000000005
:1008F30000000000000000000000000000000000F5
:1009030000000000000000000000000000000000E4
:1009130000000000000000000000000000000000D4
:100923001C003C003C003000300010000C000600AE
:1009330000000000000000000000000000000000B4
:1009430000000000000000000000000000000000A4
:10095300FE7F000000000000000000000000000017
:100963000000000000000000000000000000000084
:100973000000000000000000000000000000000074
:100983000000000000000000000000000000000064
:10099300000000000000000000000000000018003C
:1009A3003C003C00180000000000000000000000B4
:1009B3000000000000000040006000200030001034
:1009C30000180008000C00040006000200030001E8
:1009D30080018000C0004000600020003000100053
:1009E300180008000C0004000600020000000000CC
:1009F300000000000000000000000000C007600CC1
:100A030030181830183018200C600C600C600C6023
:100A13000C600C600C600C600C60182018301830EF
:100A23003018600CC0070000000000000000000048
:100A33000000000000000000000000000001800131
:100A4300F801800180018001800180018001800123
:100A5300800180018001800180018001800180018B
:100A63008001C003F81F0000000000000000000028
:100A7300000000000000000000000000E007101C60
:100A83000818043004300C300C3000300018000813
:100A930000040002000180004000202010200820F4
:100AA3000430FC1FFC1F00000000000000000000D9
:100AB300000000000000000000000000E003180E2A
:100AC3000C0C0C180C180C180018000C0006C003B2
:100AD300000E00180010003000300C300C300C10E9
:100AE3000C18180CE00300000000000000000000D8
:100AF300000000000000000000000000000C000ED9
:100B0300000E000F800E800E400E600E200E100EA1
:100B1300100E080E040E040EFE7F000E000E000ED3
:100B2300000E000E000EC07F000000000000000059
:100B3300000000000000000000000000F03FF03F54
:100B430010001000100008000800C807280C18182F
:100B5300081000300030003000300C300C30041826
:100B63000418080CF003000000000000000000005F
:100B7300000000000000000000000000800FC01013
:100B8300203010301800180008000C008C0F6C186F
:100B93003C301C600C600C600C600C60186018200A
:100BA30030306018C00700000000000000000000A3
:100BB300000000000000000000000000F83FF83FC4
:100BC3001C100C08040804040004000200020001C5
:100BD30000010001800080008000C000C000C00050
:100BE300C000C000C00000000000000000000000C2
:100BF300000000000000000000000000E007300CCF
:100C030018180C300C300C301C3038187008E00702
:100C1300B007180E0C1C06380630063006300630B6
:100C23000C18180CE0030000000000000000000096
:100C3300000000000000000000000000E0031804B2
:100C43000C080C180610063006300630063006383D
:100C53000C3C1836F03100300018001800180C0C4A
:100C63000C060C03F001000000000000000000006F
:100C73000000000000000000000000000000000071
:100C8300000000000000000000008001C003C0035A
:100C9300800100000000000000000000000080014F
:100CA300C003C0038001000000000000000000003A
:100CB3000000000000000000000000000000000031
:100CC30000000000000000000000C000C0000000A1
:100CD3000000000000000000000000000000000011
:100CE3000000C000C0008000800040004000000001
:100CF30000000000000000000000002000100008B9
:100D03000004000600038001C000600030001800EA
:100D13000C00180030006000C000800100030006D2
:100D23000004000800100020000000000000000084
:100D330000000000000000000000000000000000B0
:100D430000000000000000000000FE7F0000000023
:100D5300000000000000FE7F000000000000000013
:100D63000000000000000000000000000000000080
:100D73000000000000000000000004000800100054
:100D830020006000C000800100030006000C001872
:100D930000300018000C000600038001C000600052
:100DA3002000100008000400000000000000000004
:100DB30000000000000000000000C00730180830E9
:100DC30008600C601C601C601C600030001C000686
:100DD300000180008000800080000000000080018E
:100DE300C003C003800100000000000000000000F9
:100DF300000000000000000000000000C0076018B1
:100E0300103018200C2F8C4D864CC64CC64C664CAB
:100E130066446644662666266615CC1C0C4008208C
:100E230018303018C0070000000000000000000068
:100E3300000000000000000000000001C001C0012C
:100E4300C001400160032003200320033006100685
:100E530010061006F80F080C080C080C0C0C0418EC
:100E6300041806181F7C00000000000000000000AA
:100E7300000000000000000000000000FE07181C36
:100E8300183818301830183018301818180CF8079C
:100E93001818183018201860186018601860186047
:100EA30018301818FE0F00000000000000000000BA
:100EB300000000000000000000000000C0276038B0
:100EC300103018200C400C400400060006000600F9
:100ED300060006000600060006000C400C400C202D
:100EE30018303018C00700000000000000000000A8
:100EF300000000000000000000000000FE03180EC8
:100F030018181830183018301860186018601860F6
:100F130018601860186018601860183018301810BE
:100F23001818180EFE030000000000000000000067
:100F3300000000000000000000000000FE3F183029
:100F4300182018601840180018081808180CF80F13
:100F5300180C180818081800180018001840184032
:100F630018201830FE3F00000000000000000000C1
:100F7300000000000000000000000000FE7F187069
:100F8300184018C018801800181018101818F81FE7
:100F93001818181018101800180018001800180056
:100FA300180018007E000000000000000000000090
:100FB300000000000000000000000000C013701CCF
:100FC300101018100C200C20040006000600060068
:100FD3000600060006FC063006300C300C301830D4
:100FE30018303008C00700000000000000000000B7
:100FF3000000000000000000000000003F7E0C180D
:101003000C180C180C180C180C180C180C180C18BD
:10101300FC1F0C180C180C180C180C180C180C18B6
:101023000C180C183F7E00000000000000000000B8
:10103300000000000000000000000000F81F800115
:101043008001800180018001800180018001800195
:101053008001800180018001800180018001800185
:1010630080018001F81F0000000000000000000064
:10107300000000000000000000000000E07F000608
:10108300000600060006000600060006000600062D
:10109300000600060006000600060006000600061D
:1010A30000060006000600060E060E038E01FC0075
:1010B3000000000000000000000000007E7C181803
:1010C3001808180418061802180198019801D80185
:1010D300B803380318071806180E180C181C18182C
:1010E300183018307EFC00000000000000000000F3
:1010F3000000000000000000000000007E00180057
:10110300180018001800180018001800180018001C
:10111300180018001800180018001800184018408C
:1011230018201830FE3F00000000000000000000FF
:101133000000000000000000000000001FF81C3841
:101143001C381C381C3C3434343434343436743254
:101153006432643264326431C431C431C431C43062
:10116300C43084309FFC0000000000000000000039
:101173000000000000000000000000001F7C1C10A5
:101183003C103410341074106410E410C410C411F3
:1011930084118413041304170416041E041C041C72
:1011A300041C04181F1800000000000000000000C9
:1011B300000000000000000000000000C003300C2D
:1011C300181808100C300C300660066006600660C4
:1011D300066006600660066006600C200C3008108E
:1011E3001818300CC00300000000000000000000CD
:1011F300000000000000000000000000FE0F1818AF
:1012030018301860186018601860186018301818C3
:10121300F80F18001800180018001800180018001C
:10122300180018007E00000000000000000000000D
:10123300000000000000000000000000C003300CAC
:1012430018180C100C300C2006600660066006604F
:1012530006600660066006600660E4612C331C329B
:101263001816300EC007004C007C00380000000048
:10127300000000000000000000000000FE07181C32
:10128300183818301830183018301818180CF80798
:1012930098031803180718061806180E180C180CCC
:1012A300181C18187E7800000000000000000000E1
:1012B300000000000000000000000000E0273038BC
:1012C30018300C200C200C000C0018007800E003F0
:1012D300800F001E00380070006004600460086026
:1012E30018303818C80F000000000000000000008C
:1012F300000000000000000000000000FC3F8C2103
:1013030084618241824180018001800180018001EA
:1013130080018001800180018001800180018001C2
:1013230080018001E00700000000000000000000D1
:101333000000000000000000000000003F7C0C10D3
:101343000C100C100C100C100C100C100C100C10BA
:101353000C100C100C100C100C100C100C100C10AA
:1013630008083804E003000000000000000000004B
:101373000000000000000000000000003EF81820FC
:10138300182018203010301030103010600860081A
:101393006008E00CC004C004C00480038003800321
:1013A30080030001000100000000000000000000B5
:1013B300000000000000000000000000DFF3866171
:1013C300862186218C210C218C238C138C138C1366
:1013D3004C1358125816580E380E380E380E300C5F
:1013E30010041004100400000000000000000000BE
:1013F3000000000000000000000000007E3E18080E
:1014030038083004300470026002E001C001C001FA
:10141300800180034003400720062006100C100CB7
:10142300081808183E7C00000000000000000000BF
:101433000000000000000000000000007E7C1C1083
:10144300181018083008300C700460046002C002E1
:10145300C002C00180018001800180018001800100
:1014630080018001E0070000000000000000000090
:10147300000000000000000000000000F83F181802
:101483000818040C040E0006000700038003800103
:10149300C001C000E0006000700030003820182058
:1014A3001C100C18FE1F00000000000000000000CC
:1014B300000000000000C03F40004000400040002A
:1014C3004000400040004000400040004000400019
:1014D3004000400040004000400040004000400009
:1014E30040004000400040004000C03F00000000BA
:1014F30000000000000000000000080018001800B1
:10150300100030002000600060004000C000800038
:1015130080018001000100030002000600060004B0
:10152300000C000800180018001000300020000014
:10153300000000000000FC030002000200020002A1
:101543000002000200020002000200020002000288
:101553000002000200020002000200020002000278
:1015630000020002000200020002FC03000000006F
:101573000000000000008007C006200810100000D3
:101583000000000000000000000000000000000058
:101593000000000000000000000000000000000048
:1015A3000000000000000000000000000000000038
:1015B3000000000000000000000000000000000028
:1015C3000000000000000000000000000000000018
:1015D3000000000000000000000000000000000008
:1015E3000000000000000000000000000000FFFFFA
:1015F3000000000000007800C000000100000000AF
:1016030000000000000000000000000000000000D7
:1016130000000000000000000000000000000000C7
:1016230000000000000000000000000000000000B7
:1016330000000000000000000000000000000000A7
:1016430000000000000000000000F00318060C0C6E
:101653000C0C000C800F700C1C0C0C0C060C060CF4
:10166300064C0C4FF838000000000000000000009A
:101673000000000000000000000010001E00180021
:1016830018001800180018001800180FD818383060
:1016930038601860186018601860186018601820A7
:1016A30038307818C8070000000000000000000070
:1016B3000000000000000000000000000000000027
:1016C30000000000000000000000C007700C1818A4
:1016D30018180C180C000C000C000C000C2018201F
:1016E30018103008C00700000000000000000000D0
:1016F300000000000000000000000010001E0018A1
:1017030000180018001800180018E01B301C1818E7
:1017130018180C180C180C180C180C180C1808189E
:10172300181C307AE00900000000000000000000EF
:1017330000000000000000000000000000000000A6
:1017430000000000000000000000C007300C181863
:1017530008100C300C30FC3F0C000C000C0018205F
:1017630018107018C00700000000000000000000FF
:10177300000000000000000000000000003E80C3E5
:1017830080C0C0C0C000C000C000FC1FC000C000BB
:10179300C000C000C000C000C000C000C000C00046
:1017A300C000C000F80F00000000000000000000AF
:1017B3000000000000000000000000000000000026
:1017C30000000000000000000000C077306C10181B
:1017D3001818181818181018300CF00718001800EB
:1017E300F00FF03F08700C600C600C603838E00FAD
:1017F3000000000000000000000010001E001800A0
:1018030018001800180018001800980FD81838305E
:101813001830183018301830183018301830183085
:10182300183018307EFC00000000000000000000AB
:10183300000000000000000000000000800380039F
:1018430080030000000000000001F8018001800116
:10185300800180018001800180018001800180017D
:1018630080018001F81F000000000000000000005C
:1018730000000000000000000000000000380038F5
:1018830000380000000000000010801F001800183E
:101893000018001800180018001800180018001885
:1018A30000180018001800180018180C1806F00388
:1018B3000000000000000000000010001E001800DF
:1018C30018001800180018001800183E180C180605
:1018D300180318019801D801380318071806180CC3
:1018E300181C18187E7C0000000000000000000097
:1018F300000000000000000000000001F80180016A
:1019030080018001800180018001800180018001CC
:1019130080018001800180018001800180018001BC
:1019230080018001F81F000000000000000000009B
:1019330000000000000000000000000000000000A4
:1019430000000000000000000800EE1C9C338C31F6
:101953008C318C318C318C318C318C318C318C319C
:101963008C318C31DE7B00000000000000000000A1
:101973000000000000000000000000000000000064
:10198300000000000000000010001E0FD8183830BF
:101993001830183018301830183018301830183004
:1019A300183018307EFC000000000000000000002A
:1019B3000000000000000000000000000000000024
:1019C30000000000000000000000C007701C103081
:1019D30018300C600C600C600C600C600C601830EC
:1019E30018303018C007000000000000000000009D
:1019F30000000000000000000000000000000000E4
:101A0300000000000000000010009E0F581838303E
:101A13001820186018601860186018601860183073
:101A230038307818980718001800180018007E003E
:101A330000000000000000000000000000000000A3
:101A430000000000000000000000C023303C1838F4
:101A530018300C300C300C300C300C300C3008309B
:101A63001838303CE033003000300030003000FCE8
:101A73000000000000000000000000000000000063
:101A8300000000000000000060007E3C60666061B2
:101A9300E000E00060006000600060006000600043
:101AA30060006000FE07000000000000000000006E
:101AB3000000000000000000000000000000000023
:101AC30000000000000000000000E027303818305C
:101AD300182018007000E003800F001C043004304D
:101AE3000C301C18EC0F0000000000000000000088
:101AF30000000000000000000000000000000000E3
:101B0300800080008000C000E000FC1FC000C00017
:101B1300C000C000C000C000C000C000C000C020A2
:101B2300C0208011000F0000000000000000000032
:101B330000000000000000000000000000000000A2
:101B4300000000000000000010201E3C1830183078
:101B53001830183018301830183018301830183042
:101B6300183830F4E013000000000000000000000B
:101B73000000000000000000000000000000000062
:101B8300000000000000000000007E3C1818180848
:101B9300380830043004700260026002E001C001C2
:101BA300C001C00080000000000000000000000031
:101BB3000000000000000000000000000000000022
:101BC30000000000000000000000DFF78E630C231C
:101BD3008C238C239813981358165816700E700E76
:101BE300700E20042004000000000000000000002C
:101BF30000000000000000000000000000000000E2
:101C030000000000000000000000FC3E70087004AB
:101C1300E004C002C0018003800340076006200C7B
:101C2300100C18183E7E00000000000000000000A9
:101C330000000000000000000000000000000000A1
:101C4300000000000000000000007E7C1818180847
:101C530030083008300460046004C002C002C002CF
:101C63008001800180018000800080004C003C00E6
:101C73000000000000000000000000000000000061
:101C830000000000000000000000FC1F0C0C040E0C
:101C93000406000380038001C000E00070203020B0
:101CA30038301C18FC1F000000000000000000007A
:101CB30000000000000000300008000400040004DD
:101CC30000040004000400040004000400040002F3
:101CD3008001000200040004000400040004000466
:101CE30000040004000400040004000800300000A5
:101CF30000010001000100010001000100010001D9
:101D030000010001000100010001000100010001C8
:101D130000010001000100010001000100010001B8
:101D230000010001000100010001000100010001A8
:101D33000000000000000C00100020002000200024
:101D43002000200020002000200020002000400070
:101D530080014000200020002000200020002000FF
:101D63002000200020002000200010000C000000B4
:101D730000003800C400864002610022001C0000FD
:101D83000000000000000000000000000000000050
:101D93000000000000000000000000000000000040
:101DA3000000000000000000000000000000000030
:102A4C0060AA03FCD6D08000800080008000FC1FB0
:102A5C0084108410841084108410FC1F8410800057
:102A6C00800080008000BEB0F80F0808F80F08083E
:102A7C00F80F8000FF7F0000F80F08080808F80F17
:102A8C0080008410A2204000D4B00000FE3F022041
:102A9C00F22702200220FA2F2221222122211229A0
:102AAC0012290A2E0220FE3F0220B5E7800080008A
:102ABC008000FC1F841084108410FC1F8410841070
:102ACC008410FC1F845080408040007FD7D30000CE
:102ADC00FE1F00080004000280018000FF7F8000C0
:102AEC0080008000800080008000A00040006172A7
:102AFC00028AD6D000000000000000180000080078
:102B0C00000800000800080818F8FF1F180818181B
:102B1C000818180818180818180818180818F8FFB2
:102B2C001F08080800080000080000080000080042
:102B3C00001800001800001800000000BEB00000D3
:102B4C0000000000400006C0FF07400006C0FF0761
:102B5C00400006C0FF07400802003000FEFF3F00A7
:102B6C000000C0FF07C00002C00002C00002C0FF8E
:102B7C000380100080110160100E3010180C1E30F4
:102B8C00001C00000000D4B0000000000000080091
:102B9C0030F8FF1F08001008C010083F1008001084
:102BAC00080010080013C8FF100822100822100893
:102BBC00221008221008211208211488601648C01F
:102BCC0013280010080010F8FF1F08001000000068
:102BDC00B5E7000000000000001800000800000825
:102BEC0000000800F0FF0F1008041008041008047F
:102BFC00100804F0FF071008041008041008041053
:102C0C000804F0FF07100800000810000810000866
:102C1C002000183000F01F000000D7D30000000087
:102C2C000000000004F0FF0F00000600000100C0CF
:102C3C0000002800001800001800001830FEFF7F6C
:102C4C000018000018000018000018000018000000
:102C5C001800001800001800001800001F00000CDD
:102C6C0000000000628A0000D6D0000000000000C6
:102C7C000000008000000080010000800100008046
:102C8C00010000800100008001001080010CF0FFA9
:102C9C00FF0F30800104308001043080010430804B
:102CAC000104308001043080010430800104308044
:102CBC000104F0FFFF073080010430800104008024
:102CCC0001000080010000800100008001000080F4
:102CDC0001000080010000800100008001000080E4
:102CEC0001000080000000000000BEB000000000E9
:102CFC0000000000000000000001800100FFFF0147
:102D0C00000380010003800100FFFF01000380012C
:102D1C000003800100FFFF0100818100000003001F
:102D2C000000031CFCFFFF3F000040000003C0013B
:102D3C0000FFFF010003C0000003C0000003C0003F
:102D4C0000FFFF000001410000040100000E7100B3
:102D5C0000078101800101076000010E1898011C19
:102D6C0004E0011800C0000000000000D4B0000016
:102D7C0000000000000000000008F0FFFF1F300002
:102D8C00000C3000000C3000100C30FE3F0C3004F6
:102D9C00000C3000000C3000000C3000000C300037
:102DAC00C00CF0FFFF0D3030060E3030060C30102A
:102DBC00060C3010060C3010060C3018860C30182F
:102DCC00860C3008060D300C860D3006EE0F3002E6
:102DDC00FC0D3001000CF000000C3000000CF0FF7A
:102DEC00FF0F3000000C1000000400000000B5E7DD
:102DFC00000000000000000000C0000000C0010046
:102E0C0000C0000000C0000000C0000000C00000B6
:102E1C00E0FFFF0360C0000360C0000360C000035C
:102E2C0060C0000360C0000360C00003E0FFFF034C
:102E3C0060C0000360C0000360C0000360C00003FA
:102E4C0060C00003E0FFFF0360C0000160C0000031
:102E5C0000C0000800C0001000C0001000C0001826
:102E6C0000C001380080FF1F0000000000000000BF
:102E7C00D7D300000000000000000000000000009C
:102E8C000003C0FFFF07000080070000C000000027
:102E9C0060000000180000000C000080030000809F
:102EAC00030000800100008001080080011CFCFF71
:102EBC00FF3F0080010000800100008001000080C5
:102ECC0001000080010000800100008001000080F2
:102EDC0001000080010000800100008001000080E2
:102EEC00010000FC010000E00000004000000000B8
:022EFC000000D4
:10482A009004AAEEF0A3EFF0A3ECF0A3EDF0A3EA54
:04483A00F0A3EBF00C
:10483E00C006C00724FFFBEA34FFFAA3E0FEA3E0A4
:10484E0024FFFFEE34FF9004DDF0A3EFF0D007D08D
:10485E0006124A9C9004ACE0FFA3E09004B4CFF0A3
:10486E00A3EFF09004B0E0FEA3E0FFC39004B5E028
:10487E009F9004B4E09E504F9004AAE0FFA3E090F6
:10488E0004B6CFF0A3EFF09004AEE0FEA3E0FFC3BA
:10489E009004B7E09F9004B6E09E501B9004B2E0E7
:1048AE00FEA3E0FF124B309004B7E004F070D890F6
:1048BE0004B6E004F080D09004B5E004F070A4904B
:0748CE0004B4E004F0809C3B
:0148D50022C0
:1049EC00900504FEE0FCA3E0FDC3900500E09DFDF6
:0E49FC009004FFE09CFC900502E0FAA3E0FBB3
:104A0A009004D1EEF0A3EFF09004D5EAF0A3EBF016
:104A1A009004D3ECF0A3EDF09004D1E0FAA3E0FB0C
:104A2A00FFAE02C007A3E0FFA3E09004DDCFF0A32E
:104A3A00EFF0D007124A9C9004D5E0FEA3E0FF02F3
:024A4A004B30EF
:0E3A57009004DFEEF0A3EFF0A3ECF0A3EDF08F
:103A6500E49004EBF0A3F0A3F0A3F09004DFE0FEF4
:103A7500A3E0FFC3EB9FFFEA9E9004EFF0A3EFF0F6
:103A85009004E1E0FAA3E0FBC39004E6E09BFE901E
:103A950004E5E09A9004F1F0A3CEF09004DFE0FF96
:103AA500A3E09004F9CFF0A3EFF0A3EAF0A3EBF0C5
:103AB5009004EFE0FEA3E0FFD39400EE64809480D1
:103AC500400A9004F5E4F0A304F08021EF4E70085D
:103AD5009004F5F0A3F0801574FF9004F5F0A3F0C1
:103AE500C3E49FFFE49E9004EFF0A3EFF09004F190
:103AF500E0FEA3E0FFD39400EE64809480400A903A
:103B050004F7E4F0A304F08027EF4E70089004F763
:103B1500F0A3F0801B74FF9004F7F0A3F09004EF7E
:103B2500E0FEA3E0FFC3E49FFFE49EA3F0A3EFF054
:103B35009004F1E0FEA3E0FF9004EFE0FCA3E0FDBC
:103B4500D39FEE6480F8EC6480989004F34007EC12
:103B5500F0A3EDF08005EEF0A3EFF0E49004E9F0BA
:103B6500A3F09004F4E02401FF9004F3E03400FE98
:103B7500C39004EAE09F9004E9E09E4003023C4ABA
:103B85009004F9E0FEA3E0FFA3E0FCA3E0FD9004B0
:103B9500E7124A059004EFE0FEA3E0FF9004ECE095
:103BA5002FF09004EBE03EF09004F1E0FEA3E0FF7F
:103BB5009004EEE02FF09004EDE03EF09004F3E089
:103BC500FEA3E0FF9004EBE0FCA3E0FDD39FEE64D1
:103BD50080F8EC6480984020ED9FFFEC9E9004EB0C
:103BE500F0A3EFF09004F5E0FEA3E0FF9004FAE007
:103BF5002FF09004F9E03EF09004F3E0FEA3E0FF1F
:103C05009004EDE0FCA3E0FDD39FEE6480F8EC6446
:103C150080984020ED9FFFEC9E9004EDF0A3EFF01F
:103C25009004F7E0FEA3E0FF9004FCE02FF0900481
:103C3500FBE03EF09004EAE004F070069004E9E051
:053C450004F0023B67E2
:013C4A002257
:1047440090050CEAF0A3EBF0900508EEF0A3EFF06F
:10475400A3ECF0A3EDF0C007A3E0FAA3E0FB9005FF
:104764000AE0FFA3E09004E5CFF0A3EFF09005107A
:10477400E0FFA3E09004E7CFF0A3EFF0D007123AF4
:1047840057900508E0FAA3E0FBFFAE02C007A3E0E0
:10479400FCA3E0FD90050EE0FFA3E09004E5CFF05C
:1047A400A3EFF0900510E0FFA3E09004E7CFF0A39F
:1047B400EFF0D007123A5790050EE0FCA3E0FD900D
:1047C400050CE0FAA3E0FBA3E0FFA3E09004E5CF2F
:1047D400F0A3EFF0900510E0FFA3E09004E7CFF022
:1047E400A3EFF0900508E0FEA3E0FF123A5790050E
:1047F4000CE0FAA3E0FBFFAE02C00790050AE0FC60
:10480400A3E0FD90050EE0FFA3E09004E5CFF0A344
:10481400EFF0900510E0FFA3E09004E7CFF0A3EFE2
:06482400F0D007023A5734
:103E2C009004FDEEF0A3EFF0A3ECF0A3EDF0A3EB08
:013E3C00F095
:103E3D00E4900504F0A3F0EBFFA3E4F0A3EFF09002
:103E4D000506E0FEA3E0FFD3900505E09FEE64803C
:103E5D00F8900504E06480984003023FCBC39004C2
:103E6D00FEE09FFF9004FDE09E1249EC900506E0F8
:103E7D00FEA3E0FF9004FEE02FFF9004FDE03E1254
:103E8D0049EC900504E0FEA3E0FFC39004FEE09F23
:103E9D00FF9004FDE09EFE900506E0FCA3E0FD9082
:103EAD000500E02DFD9004FFE03C124A0190050451
:103EBD00E0FEA3E0FFC39004FEE09FFF9004FDE051
:103ECD009E9005061249EF900506E0FEA3E0FF90D7
:103EDD0004FEE02FFF9004FDE03EFE900504E0FCA3
:103EED00A3E0FD900500E02DFD9004FFE03C124A9B
:103EFD0001900504E0FEA3E0FF9004FEE02FFF908B
:103F0D0004FDE03EFE9005061249F0900504E0FE2A
:103F1D00A3E0FF9004FEE02FFF9004FDE03EFE9035
:103F2D000506E0FCA3E0FD900500E02DFD9004FFEB
:103F3D00E03C124A01900506E0FEA3E0FFC39004A9
:103F4D00FEE09FFF9004FDE09EFE900504E0FCA3C3
:103F5D00E0FD900500E02DFD9004FFE03C124A01CC
:103F6D00900505E004F07006900504E004F090055E
:103F7D0006E0FCA3E0FDFFAE041231C4AA06AB07B8
:103F8D00900504E0FCA3E0FDFFAE041231C4EF2B5D
:103F9D00FDEE3AFC900501E0F5F0A4FFD3ED9FE5B1
:103FAD00F06480F8EC6480985003023E4C90050755
:0E3FBD00E024FFF0900506E034FFF0023E4CD9
:013FCB0022D3
:1043C2009004AAEEF0A3EFF0A3ECF0A3EDF0A3EBC0
:1043D200F0A3EAF0A3E9F09004AEE0FBA3E0FAA3B5
:1043E200E0F912317E70030244F99004B5E06410E2
:1043F20070449004ACE0FCA3E0FD9004B1E0FFA3A4
:10440200E09004BECFF0A3EFF09004B3E0FFA3E08E
:104412009004C0CFF0A3EFF09004B5E09004C2F096
:104422009004B6E09004C3F09004AAE0FEA3E0FF7B
:104432001233600244DA9004B5E06418704A9004C2
:10444200ACE0FCA3E0FDA3E0FBA3E0FAA3E0F9A348
:10445200E0FFA3E09004BECFF0A3EFF09004B3E03E
:10446200FFA3E09004C0CFF0A3EFF09004B5E0907A
:1044720004C2F09004B6E09004C3F09004AAE0FEF7
:10448200A3E0FF1235B580509004B5E06420706758
:104492009004ACE0FCA3E0FDA3E0FBA3E0FAA3E000
:1044A200F9A3E0FFA3E09004BECFF0A3EFF09004E5
:1044B200B3E0FFA3E09004C0CFF0A3EFF09004B507
:1044C200E09004C2F09004B6E09004C3F09004AA15
:1044D200E0FEA3E0FF1238069004AFE475F002128A
:1044E20031D69004B5E0FF9004ABE02FF09004AA1F
:0844F200E03400F00243D9227E
:103360009004B7EEF0A3EFF0A3ECF0A3EDF0A3EB25
:07337000F0A3EAF0A3E9F06D
:103377009004B7E0FFA3E09004CCCFF0A3EFF09068
:1033870004C2E0FF131313541F8FF0A4FF9004CA65
:10339700E5F0F0A3EFF09004C8E4F0A37405F0E4BF
:1033A7009004C6F0A3F09004C8E0FEA3E0FF9004E9
:1033B700C6E0FCA3E0FDC39FEC9E40030235B4903A
:1033C70004BBE0FBA3E0FAA3E0F912317EFF900310
:1033D700FC75F022ED123354EC75F022A42583F529
:1033E70083E06F60030235A3900001123197FF90CD
:1033F70004C6A3E09003FD75F022123354EC75F078
:1034070022A42583F583E06F60030235A39004B9F6
:10341700E0FCA3E0FD9004C2E0F9FF7E009004B752
:10342700E0FAA3E02FFFEE3ACF24FFFBEF34FFFAD9
:10343700E9FFA3E0F8A3E02FFFEE38CF24FFCF3456
:10344700FF9004DDF0A3EFF09004B7E0FEA3E0FFE8
:10345700124A9CE49004C4F09004C4E0FFD39004A3
:10346700CBE09F9004CAE0940050030235A3E49098
:1034770004C5F09004C5E0C39408748094804003A9
:1034870002359A9004C3E0705C9004C6A3E075F01F
:1034970022A424FEF582E43403F583C083C082901E
:1034A70004C4E0D082D0832582F582E43583F58396
:1034B700E0FD7C009004C5E0FF7E007401A80708CA
:1034C7008005C333CE33CED8F9FFEE5CFEEF5D4EF9
:1034D70060059004BE80039004C0E0FEA3E0FF12E5
:1034E7004B300235919004C6A3E075F022A424FE68
:1034F700F582E43403F583C083C0829004C4E0D02E
:1035070082D0832582F582E43583F583E0FD7C0054
:103517009004C5E0FF7E007401A807088005C33347
:10352700CE33CED8F9FFEE5CFEEF5D4E601490040B
:10353700B7E0FEA3E0FFA3E0FCA3E0FD9004BE120A
:103547004A059004B8E004F070069004B7E004F070
:103557009004CCE0FEA3E0FFC39004B8E09FFD9089
:1035670004B7E09EFC9004C2E07A00B5051CEAB5FA
:1035770004189004B7EEF0A3EFF09004BAE004F05B
:1035870070119004B9E004F080099004C5E004F0DC
:1035970002347A9004C4E004F002345F9004C7E078
:0D35A70004F070069004C6E004F00233AD9D
:0135B40022F4
:1035B5009004B7EEF0A3EFF0A3ECF0A3EDF0A3EBCE
:0735C500F0A3EAF0A3E9F016
:1035CC009004B7E0FFA3E09004CCCFF0A3EFF09011
:1035DC0004C2E0FF131313541F8FF0A4FF9004CA0E
:1035EC00E5F0F0A3EFF09004C8E4F0A37405F0E468
:1035FC009004C6F0A3F09004C8E0FEA3E0FF900492
:10360C00C6E0FCA3E0FDC39FEC9E4003023805908E
:10361C0004BBE0FBA3E0FAA3E0F912317EFF9002B9
:10362C008A75F04AED123354EC75F04AA42583F5F3
:10363C0083E06F60030237F4900001123197FF9022
:10364C0004C6A3E090028B75F04A123354EC75F06B
:10365C004AA42583F583E06F60030237F49004B924
:10366C00E0FCA3E0FD9004C2E0F9FF7E009004B7FB
:10367C00E0FAA3E02FFFEE3ACF24FFFBEF34FFFA82
:10368C00E9FFA3E0F8A3E02FFFEE38CF24FFCF34FF
:10369C00FF9004DDF0A3EFF09004B7E0FEA3E0FF91
:1036AC00124A9CE49004C4F09004C4E0FFD390044C
:1036BC00CBE09F9004CAE0940050030237F4E490EE
:1036CC0004C5F09004C5E0FFC39408748094804056
:1036DC00030237EB9004C3E07056A3E0FE9004C6DF
:1036EC00E0FCA3E090028C75F04A123354EC75F0B8
:1036FC004AA42583F583E5822EF582E43583F58390
:10370C00E0FD7C007E007401A807088005C333CE61
:10371C0033CED8F9FFEE5CFEEF5D4E60059004BE33
:10372C0080039004C0E0FEA3E0FF124B300237E2AE
:10373C009004C4E0FF9004C6E0FCA3E090028C75FA
:10374C00F04A123354EC75F04AA42583F583E582D4
:10375C002FF582E43583F583E0FD7C009004C5E011
:10376C00FF7E007401A807088005C333CE33CED882
:10377C00F9FFEE5CFEEF5D4E60149004B7E0FEA323
:10378C00E0FFA3E0FCA3E0FD9004BE124A05900408
:10379C00B8E004F070069004B7E004F09004CCE0BC
:1037AC00FEA3E0FFC39004B8E09FFD9004B7E09E39
:1037BC00FC9004C2E07A00B5051CEAB5041890042C
:1037CC00B7EEF0A3EFF09004BAE004F0701190049F
:1037DC00B9E004F080099004C5E004F00236CF9003
:1037EC0004C4E004F00236B49004C7E004F07006A0
:0937FC009004C6E004F00236025C
:0138050022A0
:103806009004B7EEF0A3EFF0A3ECF0A3EDF0A3EB7A
:07381600F0A3EAF0A3E9F0C2
:10381D009004B7E0FFA3E09004CCCFF0A3EFF090BD
:10382D0004C2E0FF131313541F8FF0A4FF9004CABA
:10383D00E5F0F0A3EFF09004C8E4F0A37405F0E414
:10384D009004C6F0A3F09004C8E0FEA3E0FF90043E
:10385D00C6E0FCA3E0FDC39FEC9E4003023A5690E8
:10386D0004BBE0FBA3E0FAA3E0F912317EFF900068
:10387D000075F082ED123354EC75F082A42583F5BA
:10388D0083E06F6003023A45900001123197FF907B
:10389D0004C6A3E090000175F082123354EC75F06C
:1038AD0082A42583F583E06F6003023A459004B945
:1038BD00E0FCA3E0FD9004C2E0F9FF7E009004B7A8
:1038CD00E0FAA3E02FFFEE3ACF24FFFBEF34FFFA2F
:1038DD00E9FFA3E0F8A3E02FFFEE38CF24FFCF34AC
:1038ED00FF9004DDF0A3EFF09004B7E0FEA3E0FF3E
:1038FD00124A9CE49004C4F09004C4E0FFD39004F9
:10390D00CBE09F9004CAE094005003023A45E49046
:10391D0004C5F09004C5E0FFC39408748094804002
:10392D0003023A3C9004C3E07056A3E0FE9004C637
:10393D00E0FCA3E090000275F082123354EC75F0B8
:10394D0082A42583F583E5822EF582E43583F58304
:10395D00E0FD7C007E007401A807088005C333CE0E
:10396D0033CED8F9FFEE5CFEEF5D4E60059004BEE0
:10397D0080039004C0E0FEA3E0FF124B30023A3307
:10398D009004C4E0FF9004C6E0FCA3E09000027533
:10399D00F082123354EC75F082A42583F583E58211
:1039AD002FF582E43583F583E0FD7C009004C5E0BE
:1039BD00FF7E007401A807088005C333CE33CED82F
:1039CD00F9FFEE5CFEEF5D4E60149004B7E0FEA3D0
:1039DD00E0FFA3E0FCA3E0FD9004BE124A059004B5
:1039ED00B8E004F070069004B7E004F09004CCE069
:1039FD00FEA3E0FFC39004B8E09FFD9004B7E09EE6
:103A0D00FC9004C2E07A00B5051CEAB504189004D8
:103A1D00B7EEF0A3EFF09004BAE004F0701190044B
:103A2D00B9E004F080099004C5E004F0023920905B
:103A3D0004C4E004F00239059004C7E004F07006F8
:093A4D009004C6E004F0023853B5
:013A5600224D
:103C4B009004BDEEF0A3EFF0A3ECF0A3EDF0A3EB2B
:013C5B00F078
:103C5C009004BDE0FFA3E09004CFCFF0A3EFF09071
:103C6C0004C6E0FFC3139004C9F0E0FB1313135414
:103C7C001F8FF0A4FF9004CDE5F0F0A3EFF09004BB
:103C8C00C1E024E0F09004BFE0FCA3E0FDEBFF7E7C
:103C9C00009004BDE0FAA3E02FFFEE3ACF24FFFB27
:103CAC00EF34FFFA9004C6E0FF9004BFE0F8A3E005
:103CBC002FFFEE38CF24FFCF34FF9004DDF0A3EFBD
:103CCC00F09004BDE0FEA3E0FF124A9CE49004CB0C
:103CDC00F0A3F09004CDE0FEA3E0FF9004CBE0FC59
:103CEC00A3E0FDC39FEC9E4003023E2B9004C6E074
:103CFC00F96410701C9004C1E075F010A42403F555
:103D0C0082E5F03400F583E5822DF582E5833C8075
:103D1C002AE964206003023E2B9004CBE0FEA3E072
:103D2C00FF9004C1E075F040A424F3F582E5F03473
:103D3C0005F583E5822FF582E5833EF583E49390C8
:103D4C0004C8F0E49004CAF09004CAE0FFC39408DD
:103D5C00748094804003023E1A9004C7E0702BFEDE
:103D6C0004A807088005C333CE33CED8F9FF9004DE
:103D7C00C8E0FDEF5D60059004C280039004C4E0D0
:103D8C00FEA3E0FF124B30023E119004CAE0FF7E0E
:103D9C00007401A807088005C333CE33CED8F9FFD1
:103DAC009004C8E0FDEF5D60149004BDE0FEA3E05C
:103DBC00FFA3E0FCA3E0FD9004C2124A059004BEF0
:103DCC00E004F070069004BDE004F09004CFE0FE37
:103DDC00A3E0FFC39004BEE09FFD9004BDE09EFCF9
:103DEC009004C9E07A00B5051CEAB504189004BD2E
:103DFC00EEF0A3EFF09004C0E004F070119004BF5B
:103E0C00E004F080099004CAE004F0023D549004F0
:0F3E1C00CCE004F070069004CBE004F0023CDF31
:013E2B002274
:104962009004AAEEF0A3EFF0A3ECF0A3EDF0A3EB1A
:10497200F0A3EAF0A3E9F09004AEE0FBA3E0FAA30F
:10498200E0F912317EFB60619004ACE0FCA3E0FD33
:104992009004B1E0FFA3E09004C2CFF0A3EFF09047
:1049A20004B3E0FFA3E09004C4CFF0A3EFF09004BF
:1049B200B5E09004C6F09004B6E09004C7F090040D
:1049C200AAE0FEA3E0FF123C4B9004B5E0C313FF44
:1049D2009004ABE02FF09004AAE03400F09004AF12
:0A49E200E475F0011231D6808E2238
:074A4C00C3EF9E14FD7F0A79
:084A53009004BDEFF0A3EDF0AB
:104A5B00A3123323000000019004BEE0FF14F0EF1B
:104A6B006020A3E0F8A3E0F9A3E0FAA3E0FB900435
:104A7B00BDE0FFE4FCFDFE1231EC9004BF123317D6
:104A8B0080D69004BFE0FCA3E0FDA3E0FEA3E0FF13
:014A9B0022F8
:1044FA009004AAEEF0A3EFF0A3ECF0A3EDF0A3EA88
:04450A00F0A3EBF03F
:10450E00E49004B8F09004B5E0C3139004B9F0E45D
:10451E009004B6F09004B0E0FF9004B6E0FEC39FA6
:10452E004003024625124A4CA804A905AA06AB0769
:10453E009004AEE0FEA3E0FFE4FCFD123277E47BD4
:10454E000AFAF9F81232779004B7EBF0A3E070652F
:10455E009004B0E014FF9004B6E0FEC39F5056A343
:10456E00E0704C9004B9E0FFEE8FF0A4FF9004AB26
:10457E00E02FFF9004AAE035F0FE9004ACE0FCA31F
:10458E00E0FD9004B1E0FBA3E09004C2CBF0A3EBFE
:10459E00F09004B3E0FBA3E09004C4CBF0A3EBF0E7
:1045AE009004B5E09004C6F0E4A3F07B20805C900C
:1045BE0004B87401F09004B9E0FF9004B6E08FF0F7
:1045CE00A4FF9004ABE02FFF9004AAE035F0FEC0EC
:1045DE00079004ACE0FCA3E0FD9004B7E02430FBB0
:1045EE009004B1E0FFA3E09004C2CFF0A3EFF090EF
:1045FE0004B3E0FFA3E09004C4CFF0A3EFF0900467
:10460E00B5E09004C6F0E4A3F0D007123C4B900442
:07461E00B6E004F0024522A2
:014625002272
:0E4278009004AAEEF0A3EFF0A3ECF0A3EDF09B
:104286009004B7E0C3139004BAF0E4FFFE7DC87C47
:10429600429004AEE0F8A3E0F9A3E0FAA3E0FB1233
:1042A6002FF71230FD9004BBEEF0A3EFF0E490047C
:1042B600B8F09004B2E0FF9004B8E0FEC39F40035C
:1042C6000243C1124A4CA804A905AA06AB079004EA
:1042D600BBE0FEA3E0FFE4FCFD123277E47B0AFAC2
:1042E600F9F81232779004B9EBF09004B2E0FF24AB
:1042F600FEFE9004B8E06E7060EF24FEFFE434FF2B
:10430600FE9004BAE0FD7C001231C49004ABE02FAD
:10431600FF9004AAE03EFE9004ACE0FCA3E0FD9012
:1043260004B3E0FBA3E09004C2CBF0A3EBF090044F
:10433600B5E0FBA3E09004C4CBF0A3EBF09004B788
:10434600E09004C6F0E4A3F07B2E123C4B9004B838
:10435600E004F09004B2E004F09004BAE0FF9004A8
:10436600B8E08FF0A4FF9004ABE02FFF9004AAE022
:1043760035F0FEC0079004ACE0FCA3E0FD9004B964
:10438600E02430FB9004B3E0FFA3E09004C2CFF03A
:10439600A3EFF09004B5E0FFA3E09004C4CFF0A330
:1043A600EFF09004B7E09004C6F0E4A3F0D0071253
:0B43B6003C4B9004B8E004F00242B859
:0143C10022D9
:104626009004AEEAF0A3EBF09004AAEEF0A3EFF04C
:06463600A3ECF0A3EDF07F
:10463C00E49004B9F0A3F0C006C0079004AEE0FE0D
:10464C00A3E0FF9004AAE0FAA3E02FFFEA3ECF24F8
:10465C00FFFBEF34FFFA9004B0E0FEA3E0FF900400
:10466C00ACE0F8A3E02FFFE83ECF24FFCF34FF905F
:10467C0004DDF0A3EFF0D007D006124A9CE49004BE
:10468C00B5F0A3F09004AEE0FEA3E0FFC39004B637
:10469C00E09F9004B5E09E4003024743E49004B7CA
:1046AC00F0A3F09004B0E0FEA3E0FFC39004B8E0E8
:1046BC009F9004B7E09E506B9004BAE025E0FF9009
:1046CC0004B9E033FE9004B2E0FBA3E0FAA3E0F9F6
:1046DC008F828E83123197FF124B4D9004BAE025D6
:1046EC00E0FF9004B9E033FEEF2401FFE43EFE90BE
:1046FC0004B2E0FBA3E0FAA3E0F98F828E831231BF
:10470C0097FF124B4D9004BAE004F070069004B978
:10471C00E004F09004B8E004F070889004B7E00472
:10472C00F080809004B6E004F060030246909004A0
:07473C00B5E004F002469015
:014743002253
:102EFF00023169E86480F8E933E83360110460F067
:102F0F00ED33EC337009E8FCE9FDEAFEEBFF220438
:102F1F0060DED3EB9FEA9EE99DE8C2E78CF0C2F733
:102F2F0095F0400CE8CCF8E9CDF9EACEFAEBCFFBFF
:102F3F0012313485D0F05804700320D5B3E80470F3
:102F4F00075002B2D502317392D5EC0460F7E4CC8E
:102F5F00C0E0C398F8603B94186008400DD0E0FBC8
:102F6F0002314BE4FBFAC9FC8028E830E406E4C9DF
:102F7F00FBE4CAFCE830E305E4C9CACBFCE854071C
:102F8F006010F8C3E913F9EA13FAEB13FBEC13FC27
:102F9F00D8F130F52FC3E49CFCEF9BFFEE9AFEEDCA
:102FAF0099FDD0E0FBEF4E4D4C701222DB03023146
:102FBF0070EC2CFCEF33FFEE33FEED33FDED30E71D
:102FCF00EB02314BEF2BFFEE3AFEED39FDD0E0FB7C
:102FDF0050130BBB0003023173ED13FDEE13FEEF25
:082FEF0013FFEC13FC02314B4F
:102FF700EC4D6011E8497017ED33EC3304600DE4D4
:10300700FCFFFEFD22E933E8330470F80231691250
:10301700313458046009E4CC248150062850090251
:103027003173284003023170C0E0EB4A7044B98025
:1030370006D0E0FB02315FEF4E701CBD8008EBFF4E
:10304700EAFEE9FD80EBE98DF0A4FEE5F00230E051
:10305700E9CDF9EAFEEBFFEF89F0A4FCE5F0CE89B4
:10306700F0A42EFFE435F0CD89F0A42DFEE435F071
:103077008067EF4E7005BD80D780C3EF8BF0A4AC9F
:10308700F0EE8BF0A42CFCE435F0F8EF8AF0A42CDA
:10309700E5F038FCE433CB8DF0A42CFCE5F03BF8ED
:1030A700EE8AF0A42CFCE5F038F8E433CF89F0A4DD
:1030B7002CFCE5F038CF3400CE89F0A42FFFE5F0E3
:1030C7003EFEE433C98DF0A42EFEE5F039CD8AF03B
:1030D700A42FFFE5F03EFEE43DFD33D0E0FB5007B3
:1030E7000BBB000F023173EC2CFCEF33FFEE33FE0A
:0630F700ED33FD02314B38
:1030FD00EDD2E7CD33EC3392D524814006E4FFFECB
:10310D00FDFC22FCE4CFCECDCC24E0501174FF8029
:10311D00EDC3CC13CCCD13CDCE13CECF13CF0470C6
:07312D00F030D5DE0233098A
:10313400E9D2E7C933E833F892D5EDD2E7CD33ECE1
:0731440033FC5002B2D5225A
:10314B00EC30E7100FBF000C0EBE00080DBD0004E5
:10315B000BEB6014A2D5EB13FCED92E7FD2274FF91
:10316B00FCFDFEFF22E480F8A2D574FF13FC7D80EA
:03317B00E480EFFE
:1048E200023FCCE493A3F8E493A34003F68001F2E1
:1048F20008DFF48029E493A3F85407240CC8C333D7
:10490200C4540F4420C8834004F456800146F6DFA5
:10491200E4800B0102040810204080902A4CE47EBF
:10492200019360BCA3FF543F30E509541FFEE4939A
:10493200A360010ECF54C025E060A840B8E493A361
:10494200FAE493A3F8E493A3C8C582C8CAC583CA8C
:10495200F0A3C8C582C8CAC583CADFE9DEE780BE44
:012EFE0000D3
:10317E00BB010689828A83E0225002E722BBFE024F
:09318E00E32289828A83E4932282
:10319700BB010CE58229F582E5833AF583E02250ED
:1031A70006E92582F8E622BBFE06E92582F8E22237
:0D31B700E58229F582E5833AF583E4932251
:1031C400EF8DF0A4A8F0CF8CF0A428CE8DF0A42E1F
:0231D400FE22D9
:1031D600C5F0F8A3E028F0C5F0F8E5821582700284
:0631E6001583E038F02221
:1031EC00E88FF0A4CC8BF0A42CFCE98EF0A42CFC82
:1031FC008AF0EDA42CFCEA8EF0A4CDA8F08BF0A400
:10320C002DCC3825F0FDE98FF0A42CCD35F0FCEB5E
:10321C008EF0A4FEA9F0EB8FF0A4CFC5F02ECD3923
:0F322C00FEE43CFCEAA42DCE35F0FDE43CFC2290
:10323B0075F008758200EF2FFFEE33FECD33CDCC4A
:10324B0033CCC58233C5829BED9AEC99E5829840CD
:10325B000CF582EE9BFEED9AFDEC99FC0FD5F0D6AA
:10326B00E4CEFBE4CDFAE4CCF9A88222B800C1B9D4
:10327B000059BA002DEC8BF084CFCECDFCE5F0CB12
:10328B00F97818EF2FFFEE33FEED33FDEC33FCEB4B
:10329B0033FB10D703994004EB99FB0FD8E5E4F906
:1032AB00FA227818EF2FFFEE33FEED33FDEC33FCF3
:1032BB00C933C910D7059BE99A4007EC9BFCE99AE7
:1032CB00F90FD8E0E4C9FAE4CCFB2275F010EF2F2C
:1032DB00FFEE33FEED33FDCC33CCC833C810D7072C
:1032EB009BEC9AE899400AED9BFDEC9AFCE899F867
:0E32FB000FD5F0DAE4CDFBE4CCFAE4C8F922FA
:0E330900C3E49FFFE49EFEE49DFDE49CFC22D5
:0C331700ECF0A3EDF0A3EEF0A3EFF02229
:10332300A8828583F0D083D08212333A12333A12C3
:10333300333A12333AE473E493A3C583C5F0C583E8
:10334300C8C582C8F0A3C583C5F0C583C8C582C8F4
:013353002257
:0C335400A42582F582E5F03583F5832284
:00000001FF
