:020000040800F2
:1000000008040020D50000085D160008F10D000866
:1000100000000000000000000000000000000000E0
:100020000000000000000000000000001917000898
:100030000000000000000000A51600081B170008C3
:10004000E7000008E7000008E7000008E7000008F4
:10005000E7000008E7000008E7000008E7000008E4
:10006000E7000008E7000008E7000008E7000008D4
:10007000E7000008E700000800000000E7000008B3
:1000800000000000E7000008000000000000000081
:10009000E700000800000000E7000008E700000893
:1000A000E7000008E7000008E7000008E700000894
:1000B000E7000008E7000008E7000008E700000884
:1000C0000348854600F022FA00480047451800081A
:1000D000080400200448804704480047FEE7FEE784
:1000E000FEE7FEE7FEE7FEE79D170008C1000008F7
:1000F00030B50B46014600202022012409E00D46C0
:10010000D5409D4205D31D469540491B2546954047
:1001100040191546521E002DF1DC30BD024670B567
:100120004A40D30FDB0740002DD04A002AD0010EF1
:10013000140E000212020919400A520A8418E5013D
:1001400004465443000A120A2E045043A4194219CB
:10015000200CC543AA18120C0125AD03521C5219DC
:1001600012047F39240400D0521C104301D44000F3
:10017000491EC2B20C06C0092018401C4008802A43
:1001800002D003E0002070BD40084000002900DAE2
:100190000020184370BD0000F0B5074608465840DF
:1001A00087B0C00F049048000E4659004008490827
:1001B000BC1A884105D2384631461E4617460B46C2
:1001C00002465800400810434CD0300D03904005C3
:1001D0005900400D490D0590401A0290402872DAEE
:1001E00018030121000B09050843019004980092AF
:1001F000002805D0019952420020884100920190C8
:10020000029840210A1A0199009800F0BBF80546AF
:100210000C466B4607CB00F0C5F8C0197141039A34
:100220000E0D0023D71756401A467A40164344D085
:10023000049A002A2DD0029A012A039A15DC12058D
:10024000C01A914101263605001C7141D20F059E4E
:10025000D2070093019202962A46234600F003F942
:1002600007B0F0BD38463146FAE71605224A0F4678
:10027000B218C01AB74101210905001C4F410018EE
:100280007F41114618187941E20F10436D196441FE
:1002900013E0E2076D0815436408C2071443039A8C
:1002A00001261205C01A91413605001C7141CE0786
:1002B000400830434908C01851412A46234600F0FF
:1002C000C5F8CDE7FFE7049801224000C117121AD4
:1002D00000238B4104983146C417381AA141EEE738
:1002E00030B40124E407634030BC55E730B4012446
:1002F000E407614030BC4FE70000E0FF41004002EE
:100300000122400AD205090E80187F2901DA002057
:100310007047962903DC9622511AC84070479639D7
:1003200088407047C20FD207400040080BD0C10D73
:100330000723DB01C91840020905400A1143C2081E
:10034000400711437047002001467047CB0FDB0781
:10035000490010B5490802460A4307D00A0D072490
:100360000903E401090B121B002A01DC002010BD67
:10037000C900440F0C43C100E018D205801800F0FA
:1003800024F810BD10B5202A04DB0146203A914024
:10039000002010BD914020239C1A0346E3401943DE
:1003A000904010BD10B5202A06DBCB170846203A36
:1003B0001041C1170B4306E00B461341D0402024E7
:1003C000A21A91400843194610BD002904DA401CC6
:1003D000490001D140084000704770B40024050C6A
:1003E00005D11024000402D1002921D01124050ECA
:1003F00001D100020834050F01D10001241D850F31
:1004000001D18000A41C002801DB4000641C0029ED
:1004100008D020252E1B0D46F540A14000D001211B
:100420002943084301061B1B000ADB1D02D50020DF
:1004300070BC7047DB05181880180029F8DA401CDA
:100440004900F5D170BC40084000704710B5002B42
:1004500008DA0024401C614192185B411A4301D123
:100460004008400010BDF0B51FB482B005460C0036
:1004700003D0084601F0BCF902E001F0B9F92030E0
:100480000246009021462846FFF77CFF049B059A10
:1004900004460F4618431143084314D0184610432E
:1004A0001BD0009840210A1A1846059900F040F820
:1004B00005460E46009A05990498FFF763FF084326
:1004C00005D0012004E02046394607B0F0BD0020E9
:1004D000C11705430E432C43374300990E9863051B
:1004E000401A7905E40A00220C43FD0A0A3002D5BD
:1004F00000200146E9E70105101969410C9C0D9D9A
:1005000000196941FFF7A2FFDFE70000064C012553
:10051000064E05E0E36807CC2B430C3C98471034AB
:10052000B442F7D3FFF7D0FD444800086448000800
:1005300010B5202A04DB0846203AD040002110BD27
:100540000B46D340D0402024A21A914008431946BC
:1005500010BD31B500F0CAF8044600F0C7F80099A4
:10056000001B8842F9D338BDF8B500230124A2E06E
:1005700027469F403A4070D04D68022D01D0122D81
:1005800014D1DD08AD002D1800952D6A5E07AC462C
:10059000F50E0F26AE46AE406546B543AC460E6935
:1005A0007546AE4065462E43009D2E624D68012D76
:1005B00005D0022D03D0112D01D0122D16D1856842
:1005C0000326AC465D00AE46AE406546B543AC463C
:1005D000CE687546AE4065462E43866046680D7906
:1005E000BE43ED06ED0F9D403543456006685F0054
:1005F0000325BD40AE46AE430D79B446AE07B60FF7
:10060000BE4065462E430660C6687546AE438D689B
:10061000BD403543C5604D68ED004BD5294D6E6B2F
:1006200026436E639E08284DB6007519AC46AD682A
:100630009E07360F0F27B740BD4305273F07B84237
:1006400001D1002715E0214FB84201D1012710E068
:100650001F4FB84202D102270BE02BE01D4FB842DA
:1006600001D1032705E01C4FB84201D1052700E066
:100670000627B7402F436546AF60184D2E684F6878
:100680009643FF0300D516432E606E684F6896436D
:10069000BF0300D516436E60AE684F689643FF02F5
:1006A00000D51643AE60EE684F689643BF0200D592
:1006B0001643EE605B1C0A681546DD4000D057E724
:1006C000F8BD00000010024000000140000400508E
:1006D00000080050000C0050001C005000040140B5
:1006E000002A01D08161704781627047014800682B
:1006F000704700000000002002480168491C0160AA
:10070000704700000000002010B506480168402234
:1007100011430160002000F007F800F019F80020F4
:1007200010BD00000020024010B5044607487D219E
:10073000C9000068FFF7DCFC00F03EFB0022214608
:10074000501E00F006F8002010BD0000040000203C
:10075000704710B500F084FF10BD0000F8B50546E5
:1007600053480E460068C007C00FB0420AD2504836
:10077000016849084900314301600068C007C00FA3
:10078000B0426FD128784B4C800705D5E068F02146
:100790008843A9680843E0602878C00752D0686899
:1007A000022817D0032818D02168012818D08905FD
:1007B000002957DAE168890889000143E160FFF701
:1007C00095FF69680746022912D003291CD0012928
:1007D00026D033E021688903EAE721688901E7E749
:1007E0004907E5E7FFF782FFC11B3348814223D861
:1007F000E0680007800F0228F4D123E0FFF776FFBE
:10080000C11B2D48814217D8E0680007800F0328DC
:10081000F4D117E0FFF76AFFC11B274881420BD8CC
:10082000E0680007800F0128F4D10BE0FFF75EFFBE
:10083000C11B2148814201D90320F8BDE0680007AF
:10084000800FF3D11A480168C907C90FB1420BD90B
:10085000016849084900314301600068C007C00FC2
:10086000B04201D00120F8BD2878400706D5E068E5
:10087000072109028843E9680843E06028780007F7
:1008800007D5E0680721C90288432969C9000843E0
:10089000E06000F01DF8E168084A0906090F515CA4
:1008A000C840074908600020FFF73EFF0020F8BD60
:1008B0000020024000100240881300002A4800086F
:1008C0000400002001480068704700000400002078
:1008D00010B5184AD1680C20084004280BD008280D
:1008E00010D00C2810D050680004410F0120C00324
:1008F000491C884010BD1068C00601D50E4810BDC7
:100900000E4810BD0E4810BD88020E4B000F185C3B
:100910000902D368890F491CDB0301D5084A05E0A9
:100920001268D20601D5044A00E0044A5043FFF79A
:10093000DFFB10BD0010024000093D000024F40060
:1009400000127A003A480008F8B504460078FE4DD7
:10095000C0074AD0E8680007800F022807D0E8687F
:100960000007800F032809D1E868C00306D528686E
:1009700080033AD56068002873D036E001206268B1
:100980000004824203D129680143296011E0052354
:1009900001211B0489049A422A6802D10A432A6071
:1009A000F1E782432A602A6802400092286888435F
:1009B0002860606800280CD0FFF798FE064604E027
:1009C000FFF794FE801B64287ED828688003F7D543
:1009D0000BE0FFF78BFE064604E0FFF787FE801B67
:1009E0006428F1D828688003F7D42078800741D59F
:1009F000E8681F270007800F3F02012807D0E8683A
:100A00000007800F032809D1E868C00306D42868CE
:100A1000400717D5E068012823D113E0E0680028DB
:100A200017D029680922914301432960FFF75EFE30
:100A3000064604E0FFF75AFE801B0228C4D8286847
:100A40004007F7D568682169B84309020843686020
:100A500010E02868400840002860FFF747FE06467F
:100A600005E095E0FFF742FE801B0228ACD828681D
:100A70004007F7D42078C00672D5E868B34E000767
:100A8000800F0AD0E06900282868B1495AD008438D
:100A90002860FFF72BFE074644E02868800502D552
:100AA000E069002874D0606A69683140884212D9D0
:100AB00000F0FAFD0028AFD16868616AB0430843CE
:100AC00068606868000200E0DCE0218C000A09062A
:100AD000084368600FE06968B14301436960686872
:100AE000218C0002000A090608436860606A00F071
:100AF000DBFD002890D1606A410B0120C003491C36
:100B00008840E96809060A0F9249895CC840924901
:100B100008600020FFF708FE22E0FFF7E7FDC01B9A
:100B200002288BD828688005F7D56868616AB043C9
:100B3000084368606868218C0002000A09060843BF
:100B400068600DE088432860FFF7D0FD064604E0AA
:100B5000FFF7CCFD801B022888D828688005F7D4D1
:100B600020787E4E000723D560690028306910D0B8
:100B7000012108433061FFF7B9FD074604E0FFF7A4
:100B8000B5FDC01B02287DD830698007F7D50FE07E
:100B900001E1400840003061FFF7A8FD074604E08E
:100BA000FFF7A4FDC01B02286CD830698007F7D47A
:100BB0002078400760D5A86B0027C00005D4A86B3B
:100BC000012109070843A863012765480168C90591
:100BD00011D40168821511430160FFF787FD009071
:100BE00005E0FFF783FD0099401A64284AD85C4865
:100BF0000068C005F5D55648A268824203D1316924
:100C00000143316111E001218902002A07D0052347
:100C10001B029A4203D132690A433261EFE732691B
:100C200082433261306988433061A06800280ED069
:100C3000FFF75CFD009006E0FFF758FD0099411AB0
:100C4000484881421ED830698005F5D50DE0FFF790
:100C50004DFD009006E0FFF749FD0099411A41481B
:100C600081420FD830698005F5D4002F04D0A96BDC
:100C7000012000078143A9632078800630D53A48D7
:100C8000421400E080E0A169002916D0AB68012180
:100C90000B43AB606B6B0B436B63016A11430162E7
:100CA000FFF724FD064604E0FFF720FD801B022825
:100CB0006AD8A8688007F7D512E0A96849084900F2
:100CC000A960016A91430162FFF710FD064604E046
:100CD000FFF70CFD801B022856D8A8688007F7D4C0
:100CE000A06A002855D0E9680907890F032952D066
:100CF000012636060228286805D0B0432860FFF791
:100D0000F5FC044642E0B0432860FFF7EFFC0746DD
:100D100004E0FFF7EBFCC01B022835D828688001EF
:100D2000F7D4216BE06AEA680843616BFD231B047A
:100D30009A4311430843E860286830432860FFF76E
:100D4000D5FC044617E000000010024000E000005F
:100D5000000100002A480008040000204010024062
:100D6000007000408813000000000140FFF7BEFC47
:100D7000001B022808D828688001F7D509E0FFF792
:100D8000B5FC001B022801D90320F8BD28688001AA
:100D9000F5D40020F8BD0120F8BD0000042204496C
:100DA0000428086902D09043086170471043FBE7AC
:100DB00000E000E070470000094910B5401E88427D
:100DC00001D9012010BD074C60610321081F00F00C
:100DD00047FC0020A06107202061002010BD00001A
:100DE000FFFFFF0000E000E010B5FFF7E3FF10BDDC
:100DF000FEE7F8B507461C4615460E462A2000F0C9
:100E0000D1FBB81C00F0C0FBA81C00F0BDFB2B20E0
:100E100000F0C8FB701C00F0B7FB601C00F0B4FBD6
:100E20002C2000F0BFFBF8BD10B514460B4602465F
:100E3000FFF7DFFF204600F0A7FB10BDFFB581B034
:100E40001F4616460C465B1E521E0198FFF7D1FF47
:100E500008E0019D03E00A9800F096FB6D1CB54286
:100E6000F9D3641CBC42F4D305B0F0BD10B50E48F4
:100E700086B0C26A01210A43C262C06A05240840E2
:100E800005903F20009003200191029124070390D8
:100E900069462046FFF768FB01223F212046FFF705
:100EA0001FFC06B010BD00000010024010B5FFF797
:100EB000DDFF05242407002204212046FFF710FC53
:100EC000642000F0BBFC012204212046FFF708FC4F
:100ED000642000F0B3FC012220212046FFF700FC33
:100EE000642000F0ABFC112000F05CFB782000F0E7
:100EF000A5FCB12000F056FB052000F065FB3C206E
:100F000000F062FB3C2000F05FFBB22000F04AFBE7
:100F1000052000F059FB3C2000F056FB3C2000F07F
:100F200053FBB32000F03EFB052000F04DFB3C20BE
:100F300000F04AFB3C2000F047FB052000F044FB9A
:100F40003C2000F041FB3C2000F03EFBB42000F0D0
:100F500029FB032000F038FBC02000F023FB2820F1
:100F600000F032FB082000F02FFB042000F02CFBE7
:100F7000C12000F017FBC02000F026FBC22000F0CB
:100F800011FB0D2000F020FB002000F01DFBC32012
:100F900000F008FB8D2000F017FB2A2000F014FB66
:100FA000C42000F0FFFA8D2000F00EFBEE2000F0D0
:100FB0000BFBC52000F0F6FA1A2000F005FB3620E6
:100FC00000F0F0FAC02000F0FFFAE02000F0EAFAAA
:100FD000042000F0F9FA222000F0F6FA072000F0D1
:100FE000F3FA0A2000F0F0FA2E2000F0EDFA30209B
:100FF00000F0EAFA252000F0E7FA2A2000F0E4FAEF
:10100000282000F0E1FA262000F0DEFA2E2000F081
:10101000DBFA3A2000F0D8FA002000F0D5FA0120DF
:1010200000F0D2FA032000F0CFFA132000F0CCFA3F
:10103000E12000F0B7FA042000F0C6FA162000F014
:10104000C3FA062000F0C0FA0D2000F0BDFA2D20F2
:1010500000F0BAFA262000F0B7FA232000F0B4FA24
:10106000272000F0B1FA272000F0AEFA252000F08A
:10107000ABFA2D2000F0A8FA3B2000F0A5FA0020E2
:1010800000F0A2FA012000F09FFA042000F09CFA80
:10109000132000F099FA3A2000F084FA052000F0BD
:1010A00093FA292000F07EFA10BD0000FFB587B04A
:1010B000119F0446049078080390C0087843203AB2
:1010C0000190D0B2099008980899C31903985B1E43
:1010D00022182046521EFFF78CFE002635E0102F06
:1010E00020D0202F34D109981A4980014018805D02
:1010F000002505901298002818D001200599A840D5
:10110000084204D020460A9A0899FFF78DFE0498F9
:10111000641C211A0398814212D10898049C401C37
:10112000089011E009980C490001DFE701200599BA
:10113000A840084201D00A9800E0109800F024FA74
:101140006D1CEDB2082DD5D3761C01988642C6D30E
:101150000BB0F0BDC42B0008D4250008FFB583B048
:10116000154606460E9F0D9C10E0102C13D0182C2F
:101170001BD0202C0DD10C98694691C12A463046CF
:10118000069B049900F0DCF83619AD1C287800287D
:10119000EBD107B0F0BD0C98694691C12A463046A4
:1011A000069B049900F00CF8EEE70C98694691C193
:1011B0002A463046069B049900F062F8E4E70000F6
:1011C000FFB585B0054601900F980F99C0084843B8
:1011D00004900520002403902046222148432749FB
:1011E000079A0B5C1278934241D1401802904178E3
:1011F0000798407881423AD10F9906986A184318A7
:1012000001462846521E5B1EFFF7F3FD00272BE028
:1012100002980026C0190090109800280098817844
:1012200013D00120B040014204D02846089A069904
:10123000FFF7FAFD01986D1C291A0F9881420DD114
:101240000698019D401C06900CE00120B040014230
:1012500001D0089800E00E9800F096F9761CF6B2DE
:10126000082ED9D37F1CFFB204988742D0D30398AD
:10127000641C8442B0D309B0F0BD00008443000870
:10128000FFB585B0054601900F980F99C0084843F7
:10129000049005200024039020464A214843274912
:1012A000079A0B5C1278934241D140180290417822
:1012B0000798407881423AD10F9906986A184318E6
:1012C00001462846521E5B1EFFF793FD00272BE0C8
:1012D00002980026C0190090109800280098817884
:1012E00013D00120B040014204D02846089A069944
:1012F000FFF79AFD01986D1C291A0F9881420DD1B4
:101300000698019D401C06900CE00120B04001426F
:1013100001D0089800E00E9800F036F9761CF6B27D
:10132000082ED9D37F1CFFB204988742D0D30398EC
:10133000641C8442B0D309B0F0BD00002E44000804
:10134000FFB585B0054601900F980F99C008484336
:101350000490052000240390204682214843274919
:10136000079A0B5C1278934241D140180290417861
:101370000798407881423AD10F9906986A18431825
:1013800001462846521E5B1EFFF733FD00272BE067
:1013900002980026C01900901098002800988178C3
:1013A00013D00120B040014204D02846089A069983
:1013B000FFF73AFD01986D1C291A0F9881420DD153
:1013C0000698019D401C06900CE00120B0400142AF
:1013D00001D0089800E00E9800F0D6F8761CF6B21E
:1013E000082ED9D37F1CFFB204988742D0D303982C
:1013F000641C8442B0D309B0F0BD0000A0450008D1
:10140000FFB585B0109F1D467E0820491046FEF7A7
:1014100085FEFEF773FF0024049033E0281B401E76
:10142000C1B20A2000F08CFA01460498FEF760FE73
:101430000A21FEF75DFEA81E0391844210D100210F
:101440000F9A0092029105997043019740182E223D
:101450000E9B0699FFF72AFE641C6D1CE4B2EDB2E8
:101460000020029003980F9930300091C2B22046BC
:1014700005997043019740180E9B0699FFF716FED9
:10148000641CE4B2AC42C9D309B0F0BD0000C8424C
:10149000FFB585B00026109F1D467808344603909E
:1014A00031E0281B401EC1B20A2000F049FA014673
:1014B0000798FEF71DFE0A21FEF71AFE002E05D141
:1014C000681E844202DA00290DD0012600200F9AFE
:1014D000303100920290CAB2039805996043019797
:1014E00040180E9B0AE000200F990290009103988B
:1014F0000599604340180E9B019720220699FFF73B
:10150000D5FD641CE4B2AC42CBD309B0F0BDFFB54D
:1015100081B0039A1F46CB1982180025521E5B1E0C
:10152000FFF767FC002612E000240DE06800009041
:101530000A99085C00F032F80A990098401840783F
:1015400000F02CF8641C6D1CBC42EFD3761C039891
:101550008642E9D305B0F0BDFFB583B00D9F1446B8
:1015600005467E080BE00C990E98019700910290B9
:101570002846069B0499FFF799FD7519641C22788B
:10158000002AF0D107B0F0BD10B504460004000EEB
:1015900000F01AF8E0B200F017F810BD10B500F036
:1015A00013F810BD70B50524054624070022082154
:1015B0002046FFF795F8284600F006F8012208219A
:1015C0002046FFF78DF870BD70B505260546360735
:1015D000002210213046FFF783F800240022012169
:1015E0003046FFF77DF8280601D5012200E00022F1
:1015F00002213046FFF774F8012211463046FFF70A
:101600006FF86806641C050EE4B2082CE6D30122CC
:1016100010213046FFF764F870BD000030B50E4968
:1016200087B0CA6A01200243CA62C96AC403014082
:101630000190029000940320052505912D07039049
:1016400069462846FEF790FF012221462846FFF70B
:1016500047F807B030BD000000100240704700009E
:101660008307FF22DB0E9A408907090E9940002864
:101670000BDA0007000F0838830808489B00181889
:10168000C36993430B43C3617047830804489B00BD
:101690001B181868904308431860704700ED00E07D
:1016A00000E400E07047000070B517490023CA68E5
:1016B0001206120F18D18A6B154CD500134A02D5A9
:1016C0001268224009E08E6B01252D072E438E63A0
:1016D00012688E6B2240AE438E63A24204D1032176
:1016E0008903884200D101230A480168490849005A
:1016F000194301600068C007C00F984201D0012063
:1017000070BD002070BD000000100240007000405D
:101710000018000000200240704710B5FEF7ECFFF3
:10172000FFF762FB10BD000010B51B4894B00168C4
:101730000322D2029143C214891801600220009052
:1017400001210A90039140040C9000011021002413
:101750000D900B9404916846FFF7F6F80F200E9059
:1017600003200F9010941194012112940EA8FEF7FB
:10177000F5FFFFF7A7F87D21C900FEF7B9FCFFF7D9
:101780001BFB0420FFF70AFB00221146501EFEF748
:10179000E0FF14B010BD0000007000401048016868
:1017A000821511430160C1680E4A1140C160016891
:1017B0000D4A114001608168490849008160016853
:1017C0000122920491430160C168FD2212049143F9
:1017D000C160002101610549C003886070470000B5
:1017E000001002400C40FF88F6FFF6FE00ED00E01E
:1017F0002021020C01D010211046020A01D010460F
:101800000839020901D01046091F820801D010468C
:10181000891E420801D0881E7047081A704702E0EE
:1018200008C8121F08C1002AFAD17047704700206B
:1018300001E001C1121F002AFBD1704710B5FEF76D
:1018400088FE10BD1FB500200390FEF75DFFFFF777
:101850006BFFFFF7E3FEFFF729FB2E4C0021A023CF
:10186000802208460094FFF7E9FA012105200022B2
:10187000C9030007FEF734FF1F260027F6021025D4
:10188000182000210190334623A2029700940846B5
:10189000FFF764FC334623A21E211820029701950E
:1018A0000094FFF759FE032380221E214820009652
:1018B00002950194FFF7ECFD33461CA2322118205B
:1018C000029701950094FFF747FE0323A0223221DF
:1018D0004820009602950194FFF7DAFD0423009654
:1018E0000295019450211420039AFFF789FD039873
:1018F000FEF718FD0F4A104BFEF74EFCFEF726FDD3
:1019000003900E48282300901A4650214120FFF7EB
:10191000FEFDB5E7FFFF0000D6D0BEB0D4B0B5E7FE
:10192000D7D300004C43445F573A00004C43445F18
:10193000483A0000295C8FC2F528BC3F54190008C2
:101940000246012000E050430B46491EC9B2002B5D
:10195000F9D17047FFFFFFFFFFFFFFFFFFFFFFFF12
:10196000FFFFFFFFFFFFFFFFFFFFFFFFFFFFFFFF87
:10197000FFFFF7BEFFFFFFDEC6388C926B8E6B6EEB
:101980007C10AD96E73CFFFFFFFFFFFFFFFFFFFF6F
:10199000FFFFFFFFFFFFFFFFFFFFFFFFFFFFFFFF57
:1019A000FFFFFFFFFFFFFFFFFFFFFFFFFFFFFFFF47
:1019B000FFFFFFFFFFFFFFFFFFFFFFFFFFFFFFFF37
:1019C000FFFFEF5D9D15634F426C320A298819466F
:1019D0001925214531E86B8EC638FFFFFFFFFFFF59
:1019E000FFFFFFFFFFFFFFFFFFFFFFFFFFFFFFFF07
:1019F000FFFFFFFFFFFFFFFFFFFFFFFFFFFFFFFFF7
:101A0000FFFFFFFFFFFFFFFFFFFFFFFFFFFFFFFFE6
:101A1000A53653104B1053514B0F3A6C31E92167E7
:101A2000192510E408A30062088352CBD69AFFFF61
:101A3000FFFFFFFFFFFFFFFFFFFFFFFFFFFFFFFFB6
:101A4000FFFFFFFFFFFFFFFFFFFFFFFFFFFFFFFFA6
:101A5000FFFFFFFFFFFFFFFFFFFFFFFFE73C63709C
:101A600063B37CB863F54311324D29EA2188192606
:101A7000190519051104110410E4008308A38C72E0
:101A8000FFFFFFFFFFFFFFFFFFFFFFFFFFFFFFFF66
:101A9000FFFFFFFFFFFFFFFFFFFFFFFFFFFFFFFF56
:101AA000FFFFFFFFFFFFFFFFFFFFDEDB3A4B42F0D0
:101AB0006C354B5432B12A2E21EB21A91967190537
:101AC00011041104110411041104190510E4004259
:101AD00073AFFFFFFFFFFFFFFFFFFFFFFFFFFFFFF2
:101AE000FFFFFFFFFFFFFFFFFFFFFFFFFFFFFFFF06
:101AF000FFFFFFFFFFFFFFFFEF5D3209324C4B108E
:101B0000328F2A4F2A2E19CC198921891947190594
:101B10001104110410C410C411041104110410E4C0
:101B200000428431FFFFFFFFFFFFFFFFFFFFFFFFCA
:101B3000FFFFFFFFFFFFFFFFFFFFFFFFFFFFFFFFB5
:101B4000FFFFFFFFFFFFFFFF52EC1947324C2A0B4C
:101B500021EC21EC220C5B914AEE110619261904A6
:101B600010E410E429A7216608A319051104110443
:101B700010E40082BDF7FFFFFFFFFFFFFFFFFFFF45
:101B8000FFFFFFFFFFFFFFFFFFFFFFFFFFFFFFFF65
:101B9000FFFFFFFFFFFFA5350883218821882189EA
:101BA00021AA218A426B8C71FFFF8C720883110479
:101BB00008C44229DEFBEF5D5AEC088311041104CE
:101BC0001104088331E8FFDFFFFFFFFFFFFFFFFF86
:101BD000FFFFFFFFFFFFFFFFFFFFFFFFFFFFFFFF15
:101BE000FFFFFFFFF7BE31C710C41925192619479B
:101BF000194729A8528A4A28AD55FFFF31E808A3A2
:101C000019056B4D6B4DFFFFEF7D214510C411048D
:101C1000110411040062AD76FFFFFFFFFFFFFFFF1D
:101C2000FFFFFFFFFFFFFFFFFFFFFFFFFFFFFFFFC4
:101C3000FFFFFFFFB5960062110419041105190595
:101C400008C44A8BB5B6EF5DBDF7FFFF6B8E00622F
:101C500042295AAA4208FFFFFFFF52CC0883110411
:101C60001104110408A352ADFFFFFFFFFFFFFFFFA8
:101C7000FFFFFFFFFFFFFFFFFFFFE71CFFFFFFFF6F
:101C8000FFFFFFFF634E006211041104110410E412
:101C90000062638EFFFFFFFFFFFFFFFF73CF0001B6
:101CA0009CF3632CB596FFFFFFFF5B2D00831104AF
:101CB0001104110410E42167EF3DFFFFFFFFFFFF58
:101CC000FFFFFFFFBDF8B5B7EF9E52CB94B3FFFF08
:101CD000FFFFFFDF31E808A3110411041104110410
:101CE00008A34249F7FFF7FFFFFFFFFF4A6A000121
:101CF0008472FFFFFFFFF7FFEFDF3A0908A311042B
:101D00001104110411041105BE18FFFFFFFFFFFFAE
:101D1000FFFFFFFF7BF0006231E831C70041A535CE
:101D2000FFFFEF5D214610C41104110411041104DA
:101D300010E408A39D76F7FFFFFFADB708A308A343
:101D400031C7E79EF7FFF7FFA57608A310E411045B
:101D50001104110411051105A535FFFFFFFFFFFF59
:101D6000FFFFFFFFDEDB29A7008310C410C410C4EF
:101D7000E71CEF9E110510E4110411041104110475
:101D8000190408C410E56BD16BD108C5006408A51F
:101D90000043322B9D7784B3192510C4110411041C
:101DA00011041104192509269D35FFFFFFFFFFFFD0
:101DB000FFFFFFFFFFFF73AF0062190419050082E8
:101DC0005B0D9B8E1062110511041104190410E4BF
:101DD0000085110539C45A817B409C22AC43A40381
:101DE0009B837282498218C200A400C510E41904C2
:101DF00011041905194711675AECFFBEFFFFFFFFD9
:101E0000FFFFFFFFFFDFDEDB10C410E4110411054C
:101E100018A4C001888300E41905190408C52144E9
:101E20008343D523FE42FEE4FF27FF07FEA4FE64A2
:101E3000FE03FDA3FCE2EC42B383622410E508C478
:101E40001904192619A821879000BCD3FFFFFFFFB2
:101E5000FFFFFFFFFFDFFFFF7C10004219051105A8
:101E60002883D001F84448A300E408C55A44ED0291
:101E7000FDE2FE02FE66FF74FFB8FF73F6E7F6A60A
:101E8000F645F5A4FCC3FC62FCC2FCC2CBE349C42A
:101E900011061988018790A4F8019AECFFFFFFFF53
:101EA000FFFFFFFFFFFFFFFFF7BE31E800830905DB
:101EB0004082C001F823F08548A300A45A44FD02E3
:101EC000CC23DCC2FE04FE28F648F646F624F5E4F0
:101ED000FD64FCE3FC62FCC2E402DC02FCE27AA4E6
:101EE0000148016778C4F824F802B084E77DFFFF59
:101EF000FFFFFFFFFFFFFFFFFFFFDEDB192500A352
:101F000038C4E002D822F844F8A678A4006321433C
:101F1000728339839B82F521FD61FD22FCE2FCA2E4
:101F2000FC42FC42FC42AB22418392C35204012694
:101F3000192598A4F844F823F802D0A4EF9EFFFFD7
:101F4000FFFFFFFFFFFFFFFFFFFFFFFFD69A29877D
:101F500000A5B843F822E023F865F8E8C9074883EC
:101F6000004200A3008429637AA2B362CBA2D362A9
:101F7000BB028A82398300A400E500E508E560C45D
:101F8000D864F844F824F823F8028883C6DBFFFFFE
:101F9000FFFFFFFFFFFFFFFFFFFFFFFFFFFFE73D2B
:101FA0005B503108E823F843F044F865F909F9ABD0
:101FB000D189890648A318420002004200610082CC
:101FC00000620062008320A350C488A5D885F8650C
:101FD000F844F844F823F823D003108229C7EF5DB2
:101FE000FFFFFFFFFFFFFFFFFFFFFFFFFFFFFFFF01
:101FF000FFFF326C38A5D802F823F865F866F8A719
:10200000F94AFA0CFA4DEA4CD20BB9A9B168A947C2
:10201000B127B907D107E8E7F8C7F8A7F865F86569
:10202000F844F823F803D00228A3090508C45AECA1
:10203000FFFFFFFFFFFFFFFFFFFFFFFFFFFFFFFFB0
:10204000DEFB190500C441A7C0E6F803F886F8A72F
:10205000F887F886F8C7F929F98AF9ABF9ABF98B53
:10206000F96AF929F908F8C7F8A6F886F865F86456
:10207000F823F002B106292500E410E419251925FA
:102080009D14FFFFFFFFFFFFFFFFFFFFFFFFFFFFAD
:10209000AD96006208829535CEBAA28BD044F82561
:1020A000F887F8A7F8C7F8A7F887F886F886F886BB
:1020B000F887F8A7F8A7F8A6F885F865F864F0247B
:1020C000B864930DB6BB63CF0883110410E4216696
:1020D0003A49EF5DFFFFFFFFFFFFFFFFFFFFFFFF3D
:1020E00094D3004210E4CEBBFFFFE7BEB576AACC86
:1020F000C107E045F845F846F866F886F886F886A0
:10210000F886F865F845F865E865D044A843880185
:102110009082D73CEFFF95550883110411041905EF
:10212000194694B3FFFFFFFFFFFFFFFFFFFFFFFF15
:1021300094B300412186DF5DFFFFFFFFFFFFE7DF74
:10214000C67AB4D3B34EC22AD168E0E6E8A6E8A5C1
:10215000E8A5D8E6C988A906A822A802A000C80058
:10216000D800E5F7E7FFADF810C410E4110410E45F
:1021700011054A8BFFFFFFFFFFFFFFFFFFFFFFFF80
:10218000A555004129A7DF5DF7FFFFFFFFFFFFFF18
:10219000FFFFFFFFEFFFDF7DCEDBCE59CDF8CDD7C0
:1021A000C5F7CE79BEFBA2ABF003F845D042E843B9
:1021B000F000D472DFFFAE3910E410E4110410E433
:1021C00011052987FFFFFFFFFFFFFFFFFFFFFFFF55
:1021D000CE5908832146D71CF7FFFFFFFFFFFFFF03
:1021E000FFFFFFFFFFFFFFFFFFFFFFFFFFFFFFFFFF
:1021F000FFFFFFFFEFFFBA8BF804F845E062F04401
:10220000F800DB8EDFFFA5F810C410E410E4110421
:1022100010E41925FFFFFFFFFFFFFFFFFFFFFFFF98
:10222000F7BE29870883B639F7FFF7DFFFFFFFFF07
:10223000FFFFFFFFFFFFFFFFFFFFFFFFFFFFFFFFAE
:10224000FFFFFFFFE7BEBA4AF803F845F864F84419
:10225000F800E36ED7FF8CF40883110410E410E457
:1022600010E41905FFFFFFFFFFFFFFFFFFFFFFFF68
:10227000FFFF73EF00008472EFFFEFBEFFDFFFFF91
:10228000FFFFFFFFFFFFFFFFFFFFFFFFFFFFFFFF5E
:10229000FFFFFFFFE7DFBA8BF803F845F845F823A7
:1022A000F800D4D3D7FF5B4E00213A29A555088307
:1022B00010C41925FFFFFFFFFFFFFFFFFFFFFFFF18
:1022C000FFFFDEFB08A331E8DF9EE79EEFBFFFFFC5
:1022D000FFFFFFFFFFFFFFFFFFFFFFFFFFFFFFFF0E
:1022E000FFFFFFFFF7FFBC51E002F803F003E043FC
:1022F000C2ECCF7EBEFC2146002194D3FFFF845167
:1023000000002987FFFFFFFFFFFFFFFFFFFFFFFF29
:10231000FFFFFFFF845100008CF4EFFFE79EEFBF4B
:10232000FFDFFFFFFFFFFFFFFFFFFFFFFFFFFFFFDD
:10233000FFFFFFFFFFFFDF3DBD55BC52BC72B5B7CD
:10234000C75DDFFF6BF000003A09F7BFFFFFFFFF3B
:102350009D14A555FFFFFFFFFFFFFFFFFFFFFFFFDE
:10236000FFFFFFFFFFFF4AAC08A4BEBBE7DFE77E2D
:10237000EFBEF7DFFFDFFFFFFFFFFFFFFFFFFFFF06
:10238000FFFFFFFFFFDFF7DFEFFFDFDFD7BFD79EE6
:10239000DFDFA5D808831126D6DBFFFFFFFFFFFF95
:1023A000FFFFFFFFFFFFFFFFFFFFFFFFFFFFFFFF3D
:1023B000FFFFFFFFEE79DC8B312121A9CF3DDFBF8D
:1023C000DF7EE79EEFBEEFBFF7DFF7DFF7DFF7DF78
:1023D000F7DFEFBFEFBEE79EDF7ED75ED75EDFDFC2
:1023E000B69A19260842A3EDFFBFFFFFFFFFFFFFCC
:1023F000FFFFFFFFFFFFFFFFFFFFFFFFFFFFFFFFED
:10240000FFFFDD74DBC0FE00EE4242022189B67B95
:10241000DFDFD77EDF7EDF7EE79EE79EE79EE79EDB
:10242000E79EDF7EDF7ED75DD75DDF9EE7FFA5F805
:10243000110718E3C502FD60D3E6EEDBFFFFFFFFE7
:10244000FFFFFFFFFFFFFFFFFFFFFFFFFFFFFFFF9C
:10245000F79EBA84FCC1FE42FE82FEA28381214522
:102460007474C75EDFDFD77ED75ED75DD75ED75E79
:10247000D75DD75DD75EDF9EE7FFC73D63F1088478
:102480005242E626FF29FE86F3E0C36AFFFFFFFF04
:10249000FFFFFFFFFFFFFFFFFFFFFFFFFFFFFFFF4C
:1024A000DE18D2C1FDA2FE22FE42FE42FE62D4E24E
:1024B0006A4142497453A63BC73ED7BFD7BFD7BF77
:1024C000DFBFD7BFC73EA61A63F229A74182B42255
:1024D000FE62FE83FEAAFF0FFD67BA63EF3CFFFFBB
:1024E000FFFFFFFFFFFFFFFFFFFFFFFFFFFFFFFFFC
:1024F000E69AD280FD21FDC2F5E2F5C2F582FD82A9
:10250000FD62DC619B216A846AE9632C63AF74110C
:10251000636E632C5A8952047A81CBC2FCE2FD625D
:10252000FD82FDC2FDC2FDE4FD24CA62E71CFFFF7F
:10253000FFFFFFFFFFFFFFFFFFFFFFFFFFFFFFFFAB
:10254000FFFFCCB1D281F3C0FCC1FD02FD02FCE271
:10255000FCC2FCC2FC81FB80C9C081A4AD35CE5950
:102560009C718121DA00FBA1FC82FCA2FC82FCA20E
:10257000FD02FD22FCE2FC00DA60CC90FFFFFFFFD1
:10258000FFFFFFFFFFFFFFFFFFFFFFFFFFFFFFFF5B
:10259000FFFFFFFFDE59C40DCB06D2E4DB03DB03F4
:1025A000DAE3D2C3C2A4B309BCD2F79EFFFFFFFF98
:1025B000FFFFE6FBB40EBAA6D283E2E3EB02EB2206
:1025C000E322DB03D2E4C36AD5B6FFFFFFFFFFFFC0
:1025D000FFFFFFFF000000000000000000000000FF
:1025E00000000000000000080808080808080000B3
:1025F0001818000000486C241200000000000000C1
:10260000000000000000002424247F1212127F1218
:10261000121200000000081C2A2A0A0C1828282A76
:102620002A1C080800000022251515152A585454A4
:10263000542200000000000C1212120A7625291103
:10264000916E000000060604030000000000000078
:1026500000000000004020101008080808080810BA
:10266000102040000002040808101010101010087C
:10267000080402000000000008086B1C1C6B08081E
:102680000000000000000000080808087F08080893
:102690000800000000000000000000000000000032
:1026A000060604030000000000000000FE00000019
:1026B000000000000000000000000000000000001A
:1026C000060600000000804040202010100808048A
:1026D00004020200000000182442424242424242E8
:1026E00024180000000000080E0808080808080860
:1026F000083E00000000003C424242202010080436
:10270000427E00000000003C42422018204040422F
:10271000221C0000000000203028242422227E20D9
:10272000207800000000007E0202021A264040428B
:10273000221C0000000000382402021A26424242F5
:10274000241800000000007E22221010080808084B
:10275000080800000000003C424242241824424283
:10276000423C0000000000182442424264584040AD
:10277000241C0000000000000000181800000000E9
:102780001818000000000000000000080000000011
:10279000000808040000004020100804020408108B
:1027A000204000000000000000007F0000007F00CB
:1027B0000000000000000002040810204020100863
:1027C000040200000000003C42424640201010007D
:1027D000181800000000001C225A555555552D426E
:1027E000221C00000000000808181414243C224297
:1027F00042E700000000001F2222221E2242424225
:10280000221F00000000007C424201010101014240
:10281000221C00000000001F22424242424242426B
:10282000221F00000000003F4212121E121202423C
:10283000423F00000000003F4212121E121202022C
:10284000020700000000003C222201010171212248
:10285000221C0000000000E7424242427E42424207
:1028600042E700000000003E0808080808080808C1
:10287000083E00000000007C101010101010101016
:102880001010110F0000007722120A0E0A121222F5
:102890002277000000000007020202020202020288
:1028A000427F000000000077363636362A2A2A2A70
:1028B0002A6B0000000000E346464A4A5252526228
:1028C000624700000000001C22414141414141415A
:1028D000221C00000000003F424242423E0202022F
:1028E000020700000000001C2241414141414D53BC
:1028F000321C60000000003F4242423E121222227F
:1029000042C700000000007C4242020418204042FE
:10291000423E00000000007F490808080808080837
:10292000081C0000000000E742424242424242428C
:10293000423C0000000000E7424222242414141804
:10294000080800000000006B4949494955553622E6
:1029500022220000000000E7422424181818242432
:1029600042E700000000007722221414080808083B
:10297000081C00000000007E212010100804044202
:10298000423F0000007808080808080808080808FE
:10299000080878000000020204040808081010204B
:1029A00020204040001E10101010101010101010A9
:1029B00010101E000038440000000000000000005D
:1029C0000000000000000000000000000000000007
:1029D000000000FF000608000000000000000000EA
:1029E00000000000000000000000003C427844426B
:1029F00042FC0000000000030202021A264242428A
:102A0000261A000000000000000000384402020204
:102A10004438000000000060404040784442424298
:102A200064D80000000000000000003C427E02026A
:102A3000423C0000000000F08808087E08080808F2
:102A4000083E0000000000000000007C22221C0262
:102A50003C42423C000000030202023A464242422B
:102A600042E700000000000C0C00000E08080808F7
:102A7000083E0000000000303000003820202020F8
:102A80002020221E0000000302020272120A161207
:102A9000227700000000000E08080808080808084F
:102AA000083E0000000000000000007F9292929219
:102AB00092B70000000000000000003B4642424286
:102AC00042E70000000000000000003C4242424299
:102AD000423C0000000000000000001B2642424271
:102AE000221E02070000000000000078444242421B
:102AF000447840E000000000000000774C0404042B
:102B0000041F0000000000000000007C42023C4066
:102B1000423E0000000000000008083E08080808C7
:102B20000830000000000000000000634242424202
:102B300062DC000000000000000000E742242414D2
:102B40000808000000000000000000EB494955554E
:102B5000222200000000000000000076241818184F
:102B6000246E000000000000000000E7422424144E
:102B700018080807000000000000007E2210080866
:102B8000447E000000C02020202020102020202093
:102B90002020C00010101010101010101010101075
:102BA0001010101000060808080808100808080887
:102BB000080806000C32C2000000000000000000FF
:102BC0000000000000000000000000000000000005
:102BD00000000000000000000000000000000000F5
:102BE00000000000000000000000000000000000E5
:102BF00000000000000000000000000000000000D5
:102C00000000000000000000000000000000C00103
:102C1000C001C001C001C001C001C001800080002E
:102C20008000800080008000800000000000000024
:102C300000008001C003C00380010000000000000C
:102C400000000000000000000000E01CE01CF01E7E
:102C5000700E38071803080184000000000000000F
:102C60000000000000000000000000000000000064
:102C70000000000000000000000000000000000054
:102C80000000000000000000000000000000000044
:102C900020102010201020102010FE7FFE7F100832
:102CA000100810081008100810081008FE7FFE7F9A
:102CB00008040804080408040804000000000000D8
:102CC0000000000000000000000000000001000102
:102CD000C0076019103118311839183938017001DE
:102CE000E001C0038007000F001D003900311C31D6
:102CF0001C310C310C11180DE0070001000100011E
:102D000000000000000000000000000000000000C3
:102D10001C1036186308630C6304630463026302C7
:102D20006301361D9C3780228063406340632063CB
:102D30002063306310221836081C000000000000D9
:102D40000000000000000000000000000000000083
:102D5000F00098018C018C018C018C018C00CC005E
:102D60007800183E1C083608320863046304C30464
:102D7000C303834306438E26781C00000000000036
:102D8000000000000000000000001C003C003C00AF
:102D90003000300010000C000600000000000000B1
:102DA0000000000000000000000000000000000023
:102DB0000000000000000000000000000000000013
:102DC0000000000000000000000000400020001093
:102DD0000008000C0004000600030003000380014B
:102DE0008001800180018001800180018001000359
:102DF0000003000300060006000C0008001000207D
:102E00000040000000000000000002000400080074
:102E10001000300020006000C000C000C000800131
:102E20008001800180018001800180018001C0005B
:102E3000C000C00060006000300010000800040006
:102E40000200000000000000000000000000000080
:102E50000000000000018003800300011C713C7928
:102E6000783DC0070001C007783D3C791C71000126
:102E700080038003800100000000000000000000CB
:102E80000000000000000000000000000000000042
:102E9000000000000000000100010001000100012D
:102EA00000010001FC7F00010001000100010001A0
:102EB0000001000100000000000000000000000010
:102EC0000000000000000000000000000000000002
:102ED00000000000000000000000000000000000F2
:102EE00000000000000000000000000000000000E2
:102EF000000000001C003C003C00300030001000CE
:102F00000C000600000000000000000000000000AF
:102F100000000000000000000000000000000000B1
:102F200000000000FE7F0000000000000000000024
:102F30000000000000000000000000000000000091
:102F40000000000000000000000000000000000081
:102F50000000000000000000000000000000000071
:102F60000000000000000000000000000000000061
:102F7000000018003C003C001800000000000000A9
:102F80000000000000000000000000400060002081
:102F90000030001000180008000C000400060002B9
:102FA0000003000180018000C0004000600020009C
:102FB00030001000180008000C0004000600020099
:102FC0000000000000000000000000000000000001
:102FD000C007600C30181830183018200C600C60D6
:102FE0000C600C600C600C600C600C600C601820B5
:102FF000183018303018600CC007000000000000C6
:1030000000000000000000000000000000000000C0
:1030100000018001F80180018001800180018001B0
:103020008001800180018001800180018001800198
:10303000800180018001C003F81F00000000000033
:103040000000000000000000000000000000000080
:10305000E007101C0818043004300C300C3000302D
:103060000018000800040002000180004000202039
:10307000102008200430FC1FFC1F0000000000008E
:103080000000000000000000000000000000000040
:10309000E003180E0C0C0C180C180C180018000C7F
:1030A0000006C003000E00180010003000300C3085
:1030B0000C300C100C18180CE0030000000000008D
:1030C0000000000000000000000000000000000000
:1030D000000C000E000E000F800E800E400E600EE1
:1030E000200E100E100E080E040E040EFE7F000EB1
:1030F000000E000E000E000E000EC07F000000004B
:1031000000000000000000000000000000000000BF
:10311000F03FF03F10001000100008000800C80742
:10312000280C1818081000300030003000300C3027
:103130000C3004180418080CF00300000000000014
:10314000000000000000000000000000000000007F
:10315000800FC010203010301800180008000C003C
:103160008C0F6C183C301C600C600C600C600C60A8
:103170001860182030306018C00700000000000000
:10318000000000000000000000000000000000003F
:10319000F83FF83F1C100C08040804040004000267
:1031A0000002000100010001800080008000C000DA
:1031B000C000C000C000C000C0000000000000004F
:1031C00000000000000000000000000000000000FF
:1031D000E007300C18180C300C300C301C3038184C
:1031E0007008E007B007180E0C1C063806300630D1
:1031F000063006300C18180CE00300000000000038
:1032000000000000000000000000000000000000BE
:10321000E00318040C080C180610063006300630BF
:10322000063006380C3C1836F03100300018001813
:1032300000180C0C0C060C03F0010000000000004C
:10324000000000000000000000000000000000007E
:1032500000000000000000000000000000008001ED
:10326000C003C00380010000000000000000000057
:1032700000008001C003C0038001000000000000C6
:10328000000000000000000000000000000000003E
:103290000000000000000000000000000000C0006E
:1032A000C00000000000000000000000000000005E
:1032B000000000000000C000C0008000800040004E
:1032C000400000000000000000000000000000209E
:1032D000001000080004000600038001C000600028
:1032E000300018000C00180030006000C0008001A1
:1032F0000003000600040008001000200000000089
:1033000000000000000000000000000000000000BD
:103310000000000000000000000000000000FE7F30
:1033200000000000000000000000FE7F0000000020
:10333000000000000000000000000000000000008D
:103340000000000000000000000000000000040079
:103350000800100020006000C0008001000300068B
:10336000000C001800300018000C0006000380015B
:10337000C0006000200010000800040000000000F1
:103380000000000000000000000000000000C00776
:103390003018083008600C601C601C601C60003035
:1033A000001C0006000180008000800080000000FA
:1033B00000008001C003C003800100000000000085
:1033C00000000000000000000000000000000000FD
:1033D000C0076018103018200C2F8C4D864CC64C3E
:1033E000C64C664C66446644662666266615CC1C4A
:1033F0000C40082018303018C00700000000000002
:1034000000000000000000000000000000000001BB
:10341000C001C001C001400160032003200320035C
:103420003006100610061006F80F080C080C080CE1
:103430000C0C0418041806181F7C00000000000083
:10344000000000000000000000000000000000007C
:10345000FE07181C18381830183018301830181893
:10346000180CF80718181830182018601860186021
:103470001860186018301818FE0F000000000000D7
:10348000000000000000000000000000000000003C
:10349000C0276038103018200C400C400400060093
:1034A00006000600060006000600060006000C40A6
:1034B0000C400C2018303018C0070000000000003D
:1034C00000000000000000000000000000000000FC
:1034D000FE03180E181818301830183018601860CD
:1034E000186018601860186018601860186018304C
:1034F000183018101818180EFE0300000000000005
:1035000000000000000000000000000000000000BB
:10351000FE3F1830182018601840180018081808C6
:10352000180CF80F180C18081808180018001800C4
:103530001840184018201830FE3F0000000000001E
:10354000000000000000000000000000000000007B
:10355000FE7F1870184018C0188018001810181036
:103560001818F81F1818181018101800180018004C
:1035700018001800180018007E000000000000006D
:10358000000000000000000000000000000000003B
:10359000C013701C101018100C200C200400060022
:1035A000060006000600060006FC063006300C3059
:1035B0000C30183018303008C00700000000000040
:1035C00000000000000000000000000000000000FB
:1035D0003F7E0C180C180C180C180C180C180C1832
:1035E0000C180C18FC1F0C180C180C180C180C18C4
:1035F0000C180C180C180C183F7E0000000000007E
:1036000000000000000000000000000000000000BA
:10361000F81F80018001800180018001800180010C
:103620008001800180018001800180018001800192
:103630008001800180018001F81F0000000000006F
:10364000000000000000000000000000000000007A
:10365000E07F0006000600060006000600060006E1
:10366000000600060006000600060006000600062A
:103670000006000600060006000600060E060E0301
:103680008E01FC00000000000000000000000000AF
:103690007E7C1818180818041806180218019801DA
:1036A0009801D801B803380318071806180E180C2B
:1036B000181C1818183018307EFC0000000000009C
:1036C00000000000000000000000000000000000FA
:1036D0007E001800180018001800180018001800C4
:1036E000180018001800180018001800180018001A
:1036F0001840184018201830FE3F0000000000005D
:1037000000000000000000000000000000000000B9
:103710001FF81C381C381C381C3C34343434343406
:10372000343674326432643264326431C431C43148
:10373000C431C430C43084309FFC0000000000005D
:103740000000000000000000000000000000000079
:103750001F7C1C103C103410341074106410E410E2
:10376000C410C41184118413041304170416041E16
:10377000041C041C041C04181F1800000000000096
:103780000000000000000000000000000000000039
:10379000C003300C181808100C300C30066006609E
:1037A00006600660066006600660066006600C2023
:1037B0000C3008101818300CC00300000000000086
:1037C00000000000000000000000000000000000F9
:1037D000FE0F18181830186018601860186018600C
:1037E00018301818F80F18001800180018001800E2
:1037F00018001800180018007E00000000000000EB
:1038000000000000000000000000000000000000B8
:10381000C003300C18180C100C300C200660066029
:103820000660066006600660066006600660E46189
:103830002C331C321816300EC007004C007C0038A8
:103840000000000000000000000000000000000078
:10385000FE07181C1838183018301830183018188F
:10386000180CF80798031803180718061806180EFE
:10387000180C180C181C18187E78000000000000A6
:103880000000000000000000000000000000000038
:10389000E027303818300C200C200C000C001800E9
:1038A0007800E003800F001E0038007000600460A4
:1038B0000460086018303818C80F000000000000CD
:1038C00000000000000000000000000000000000F8
:1038D000FC3F8C2184618241824180018001800112
:1038E00080018001800180018001800180018001D0
:1038F0008001800180018001E007000000000000DD
:1039000000000000000000000000000000000000B7
:103910003F7C0C100C100C100C100C100C100C1028
:103920000C100C100C100C100C100C100C100C10B7
:103930000C100C1008083804E00300000000000020
:103940000000000000000000000000000000000077
:103950003EF8182018201820301030103010301089
:10396000600860086008E00CC004C004C004800364
:1039700080038003800300010001000000000000BC
:103980000000000000000000000000000000000037
:10399000DFF38661862186218C210C218C238C13F8
:1039A0008C138C134C1358125816580E380E380EB0
:1039B000380E300C10041004100400000000000049
:1039C00000000000000000000000000000000000F7
:1039D0007E3E180838083004300470026002E001AE
:1039E000C001C0018001800340034007200620067B
:1039F000100C100C081808183E7C00000000000095
:103A000000000000000000000000000000000000B6
:103A10007E7C1C10181018083008300C70046004EC
:103A20006002C002C002C0018001800180018001EB
:103A30008001800180018001E0070000000000009B
:103A40000000000000000000000000000000000076
:103A5000F83F18180818040C040E000600070003AD
:103A600080038001C001C000E000600070003000F1
:103A7000382018201C100C18FE1F00000000000049
:103A800000000000000000000000C03F40004000B7
:103A90004000400040004000400040004000400026
:103AA0004000400040004000400040004000400016
:103AB0004000400040004000400040004000C03F47
:103AC00000000000000000000000000000000800EE
:103AD0001800180010003000200060006000400056
:103AE000C000800080018001000100030002000688
:103AF00000060004000C0008001800180010003038
:103B000000200000000000000000FC030002000292
:103B10000002000200020002000200020002000295
:103B20000002000200020002000200020002000285
:103B30000002000200020002000200020002FC0378
:103B4000000000000000000000008007C006200800
:103B50001010000000000000000000000000000045
:103B60000000000000000000000000000000000055
:103B70000000000000000000000000000000000045
:103B80000000000000000000000000000000000035
:103B90000000000000000000000000000000000025
:103BA0000000000000000000000000000000000015
:103BB0000000000000000000000000000000000005
:103BC0000000FFFF0000000000007800C0000001BE
:103BD00000000000000000000000000000000000E5
:103BE00000000000000000000000000000000000D5
:103BF00000000000000000000000000000000000C5
:103C000000000000000000000000000000000000B4
:103C10000000000000000000000000000000F003B1
:103C200018060C0C0C0C000C800F700C1C0C0C0CEF
:103C3000060C060C064C0C4FF83800000000000083
:103C40000000000000000000000000000000100064
:103C50001E00180018001800180018001800180F8F
:103C6000D81838303860186018601860186018600C
:103C70001860182038307818C807000000000000CD
:103C80000000000000000000000000000000000034
:103C90000000000000000000000000000000C0075D
:103CA000700C181818180C180C000C000C000C00E4
:103CB0000C20182018103008C00700000000000079
:103CC00000000000000000000000000000000010E4
:103CD000001E001800180018001800180018E01B3B
:103CE000301C181818180C180C180C180C180C1874
:103CF0000C180818181C307AE009000000000000B9
:103D000000000000000000000000000000000000B3
:103D10000000000000000000000000000000C007DC
:103D2000300C181808100C300C30FC3F0C000C0044
:103D30000C00182018107018C007000000000000C8
:103D40000000000000000000000000000000000073
:103D5000003E80C380C0C0C0C000C000C000FC1FC7
:103D6000C000C000C000C000C000C000C000C00053
:103D7000C000C000C000C000F80F0000000000003C
:103D80000000000000000000000000000000000033
:103D90000000000000000000000000000000C077EC
:103DA000306C10181818181818181018300CF00764
:103DB00018001800F00FF03F08700C600C600C60E9
:103DC0003838E00F00000000000000000000100084
:103DD0001E00180018001800180018001800980F8E
:103DE000D8183830183018301830183018301830CB
:103DF00018301830183018307EFC00000000000029
:103E000000000000000000000000000000000000B2
:103E10008003800380030000000000000001F8011F
:103E2000800180018001800180018001800180018A
:103E30008001800180018001F81F00000000000067
:103E40000000000000000000000000000000000072
:103E50000038003800380000000000000010801F0B
:103E60000018001800180018001800180018001892
:103E70000018001800180018001800180018180C76
:103E80001806F00300000000000000000000100011
:103E90001E00180018001800180018001800183E1E
:103EA000180C1806180318019801D80138031807D0
:103EB0001806180C181C18187E7C00000000000062
:103EC00000000000000000000000000000000001F1
:103ED000F801800180018001800180018001800162
:103EE00080018001800180018001800180018001CA
:103EF0008001800180018001F81F000000000000A7
:103F000000000000000000000000000000000000B1
:103F10000000000000000000000000000800EE1C8F
:103F20009C338C318C318C318C318C318C318C3197
:103F30008C318C318C318C31DE7B00000000000034
:103F40000000000000000000000000000000000071
:103F500000000000000000000000000010001E0F24
:103F6000D818383018301830183018301830183049
:103F700018301830183018307EFC000000000000A7
:103F80000000000000000000000000000000000031
:103F90000000000000000000000000000000C0075A
:103FA000701C103018300C600C600C600C600C60E1
:103FB0000C60183018303018C007000000000000F6
:103FC00000000000000000000000000000000000F1
:103FD00000000000000000000000000010009E0F24
:103FE0005818383018201860186018601860186069
:103FF0001860183038307818980718001800180022
:1040000018007E000000000000000000000000001A
:104010000000000000000000000000000000C023BD
:10402000303C183818300C300C300C300C300C3060
:104030000C3008301838303CE033003000300030AD
:10404000003000FC00000000000000000000000044
:1040500000000000000000000000000060007E3C46
:1040600060666061E000E000600060006000600089
:104070006000600060006000FE07000000000000BB
:104080000000000000000000000000000000000030
:104090000000000000000000000000000000E02719
:1040A00030381830182018007000E003800F001C12
:1040B000043004300C301C18EC0F0000000000002D
:1040C00000000000000000000000000000000000F0
:1040D00000000000800080008000C000E000FC1FA5
:1040E000C000C000C000C000C000C000C000C000D0
:1040F000C000C020C0208011000F000000000000A0
:1041000000000000000000000000000000000000AF
:1041100000000000000000000000000010201E3C15
:10412000183018301830183018301830183018304F
:1041300018301830183830F4E01300000000000088
:10414000000000000000000000000000000000006F
:1041500000000000000000000000000000007E3CA5
:104160001818180838083004300470026002600221
:10417000E001C001C001C00080000000000000009C
:10418000000000000000000000000000000000002F
:104190000000000000000000000000000000DFF749
:1041A0008E630C238C238C2398139813581658165F
:1041B000700E700E700E200420040000000000003D
:1041C00000000000000000000000000000000000EF
:1041D0000000000000000000000000000000FC3EA5
:1041E00070087004E004C002C0018003800340072F
:1041F0006006200C100C18183E7E00000000000025
:1042000000000000000000000000000000000000AE
:1042100000000000000000000000000000007E7CA4
:104220001818180830083008300460046004C00210
:10423000C002C002800180018001800080008000F7
:104240004C003C00000000000000000000000000E6
:104250000000000000000000000000000000FC1F43
:104260000C0C040E0406000380038001C000E00073
:104270007020302038301C18FC1F000000000000A7
:1042800000000000000000000000003000080004F2
:1042900000040004000400040004000400040004FE
:1042A0000004000280010002000400040004000475
:1042B00000040004000400040004000400040008DA
:1042C00000300000000100010001000100010001B8
:1042D00000010001000100010001000100010001D6
:1042E00000010001000100010001000100010001C6
:1042F00000010001000100010001000100010001B6
:10430000000100010000000000000C00100020006F
:10431000200020002000200020002000200020009D
:1043200020004000800140002000200020002000EC
:10433000200020002000200020002000200010008D
:104340000C00000000003800C4008640026100221A
:10435000001C000000000000000000000000000041
:10436000000000000000000000000000000000004D
:10437000000000000000000000000000000000003D
:1043800000000000D6D08000800080008000FC1F6C
:1043900084108410841084108410FC1F841080000A
:1043A000800080008000BEB0F80F0808F80F0808F1
:1043B000F80F8000FF7F0000F80F08080808F80FCA
:1043C00080008410A2204000D4B00000FE3F0220F4
:1043D000F22702200220FA2F222122212221122953
:1043E00012290A2E0220FE3F0220B5E7800080003D
:1043F0008000FC1F841084108410FC1F8410841023
:104400008410FC1F845080408040007FD7D3000080
:10441000FE1F00080004000280018000FF7F800072
:1044200080008000800080008000A0004000D6D086
:104430000000000000000018000008000008000054
:104440000800080818F8FF1F180818180818180896
:1044500018180818180818180818F8FF1F0808086E
:104460000008000008000008000008000018000014
:104470001800001800000000BEB00000000000009E
:10448000400006C0FF07400006C0FF07400006C00E
:10449000FF07400802003000FEFF3F000000C0FFA1
:1044A00007C00002C00002C00002C0FF038010006D
:1044B00080110160100E3010180C1E30001C00001E
:1044C0000000D4B0000000000000080030F8FF1F1A
:1044D00008001008C010083F10080010080010085D
:1044E0000013C8FF1008221008221008221008220A
:1044F0001008211208211488601648C013280010E3
:10450000080010F8FF1F080010000000B5E70000C9
:10451000000000000018000008000008000008006B
:10452000F0FF0F100804100804100804100804F02D
:10453000FF07100804100804100804100804F0FF16
:1045400007100800000810000810000820001830AC
:1045500000F01F000000D7D30000000000000000A2
:1045600004F0FF0F00000600000100C0000028005A
:10457000001800001800001830FEFF7F001800002F
:10458000180000180000180000180000180000189B
:1045900000001800001800001F00000C00000000C0
:1045A000D6D0000000000000000000800000008065
:1045B00001000080010000800100008001000080F7
:1045C00001001080010CF0FFFF0F308001043080EB
:1045D0000104308001043080010430800104308007
:1045E00001043080010430800104F0FFFF073080B7
:1045F000010430800104008001000080010000807F
:1046000001000080010000800100008001000080A6
:104610000100008001000080010000800000000017
:104620000000BEB00000000000000000000000001C
:104630000001800100FFFF010003800100038001F1
:1046400000FFFF01000380010003800100FFFF0164
:1046500000818100000003000000031CFCFFFF3FFD
:10466000000040000003C00100FFFF010003C00084
:104670000003C0000003C00000FFFF000001410074
:1046800000040100000E7100000781018001010794
:104690006000010E1898011C04E0011800C0000021
:1046A00000000000D4B00000000000000000000086
:1046B0000008F0FFFF1F3000000C3000000C30003D
:1046C000100C30FE3F0C3004000C3000000C3000A9
:1046D000000C3000000C3000C00CF0FFFF0D30303B
:1046E000060E3030060C3010060C3010060C301060
:1046F000060C3018860C3018860C3008060D300C6D
:10470000860D3006EE0F3002FC0D3001000CF0007B
:10471000000C3000000CF0FFFF0F3000000C100008
:10472000000400000000B5E70000000000000000E9
:1047300000C0000000C0010000C0000000C0000078
:1047400000C0000000C00000E0FFFF0360C00003E5
:1047500060C0000360C0000360C0000360C00003CD
:1047600060C00003E0FFFF0360C0000360C00003FF
:1047700060C0000360C0000360C00003E0FFFF03EF
:1047800060C0000160C0000000C0000800C0001050
:1047900000C0001000C0001800C001380080FF1FDA
:1047A0000000000000000000D7D30000000000005F
:1047B00000000000000000000003C0FFFF07000031
:1047C00080070000C000000060000000180000002A
:1047D0000C000080030000800300008001000080C6
:1047E00001080080011CFCFFFF3F008001000080E9
:1047F00001000080010000800100008001000080B5
:1048000001000080010000800100008001000080A4
:104810000100008001000080010000FC010000E0B8
:104820000000004000000000000000000000000048
:1048300000000102030406070809030406080C101F
:104840001820300064480008000000200800000024
:104850001E1800086C480008080000200004000032
:0C4860002E1800080000000080841E00DC
:04000005080000C12E
:00000001FF
