Component: Arm Compiler for Embedded 6.19 Tool: armlink [5e73cb00]

==============================================================================

Section Cross References

    gd32e23x_it.o(.ARM.exidx.text.NMI_Handler) refers to gd32e23x_it.o(.text.NMI_Handler) for [Anonymous Symbol]
    gd32e23x_it.o(.ARM.exidx.text.HardFault_Handler) refers to gd32e23x_it.o(.text.HardFault_Handler) for [Anonymous Symbol]
    gd32e23x_it.o(.ARM.exidx.text.SVC_Handler) refers to gd32e23x_it.o(.text.SVC_Handler) for [Anonymous Symbol]
    gd32e23x_it.o(.ARM.exidx.text.PendSV_Handler) refers to gd32e23x_it.o(.text.PendSV_Handler) for [Anonymous Symbol]
    gd32e23x_it.o(.ARM.exidx.text.SysTick_Handler) refers to gd32e23x_it.o(.text.SysTick_Handler) for [Anonymous Symbol]
    main.o(.text.main) refers to memseta.o(.text) for __aeabi_memclr
    main.o(.text.main) refers to systick.o(.text.systick_config) for systick_config
    main.o(.text.main) refers to led.o(.text.Init_LED_GPIO) for Init_LED_GPIO
    main.o(.text.main) refers to tft_init.o(.text.TFT_Init) for TFT_Init
    main.o(.text.main) refers to tft.o(.text.TFT_ShowUI) for TFT_ShowUI
    main.o(.text.main) refers to tft.o(.text.drawCurve) for drawCurve
    main.o(.ARM.exidx.text.main) refers to main.o(.text.main) for [Anonymous Symbol]
    systick.o(.text.systick_config) refers to gd32e23x_misc.o(.text.systick_clksource_set) for systick_clksource_set
    systick.o(.text.systick_config) refers to ffltui.o(.text) for __aeabi_ui2f
    systick.o(.text.systick_config) refers to fdiv.o(.text) for __aeabi_fdiv
    systick.o(.text.systick_config) refers to fmul.o(.text) for __aeabi_fmul
    systick.o(.text.systick_config) refers to system_gd32e23x.o(.data.SystemCoreClock) for SystemCoreClock
    systick.o(.text.systick_config) refers to systick.o(.bss.count_1us) for [Anonymous Symbol]
==============================================================================

Removing Unused input sections from the image.

    Removing gd32e23x_it.o(.text), (0 bytes).
    Removing gd32e23x_it.o(.ARM.exidx.text.NMI_Handler), (8 bytes).
    Removing gd32e23x_it.o(.ARM.exidx.text.HardFault_Handler), (8 bytes).
    Removing gd32e23x_it.o(.ARM.exidx.text.SVC_Handler), (8 bytes).
    Removing gd32e23x_it.o(.ARM.exidx.text.PendSV_Handler), (8 bytes).
    Removing gd32e23x_it.o(.ARM.exidx.text.SysTick_Handler), (8 bytes).
    Removing main.o(.text), (0 bytes).
    Removing main.o(.ARM.exidx.text.main), (8 bytes).
    Removing main.o(.ARM.use_no_argv), (4 bytes).
    Removing systick.o(.text), (0 bytes).
    Removing systick.o(.ARM.exidx.text.systick_config), (8 bytes).
    Removing systick.o(.text.delay_1us), (128 bytes).
    Removing systick.o(.ARM.exidx.text.delay_1us), (8 bytes).
    Removing systick.o(.text.delay_us), (128 bytes).
    Removing systick.o(.ARM.exidx.text.delay_us), (8 bytes).
    Removing systick.o(.ARM.exidx.text.delay_1ms), (8 bytes).
    Removing systick.o(.text.delay_ms), (128 bytes).
    Removing systick.o(.ARM.exidx.text.delay_ms), (8 bytes).
==============================================================================

Image Symbol Table

    Local Symbols

    Symbol Name                              Value     Ov Type        Size  Object(Section)

    ../Firmware/CMSIS/GD/GD32E23x/Source/ARM/startup_gd32e23x.s 0x00000000   Number         0  startup_gd32e23x.o ABSOLUTE
    ../clib/microlib/init/entry.s            0x00000000   Number         0  entry.o ABSOLUTE
    ../clib/microlib/init/entry.s            0x00000000   Number         0  entry2.o ABSOLUTE
    ../clib/microlib/init/entry.s            0x00000000   Number         0  entry5.o ABSOLUTE
    ../clib/microlib/init/entry.s            0x00000000   Number         0  entry7a.o ABSOLUTE
    ../clib/microlib/init/entry.s            0x00000000   Number         0  entry7b.o ABSOLUTE
    ../clib/microlib/init/entry.s            0x00000000   Number         0  entry8a.o ABSOLUTE
    ../clib/microlib/init/entry.s            0x00000000   Number         0  entry8b.o ABSOLUTE
    ../clib/microlib/init/entry.s            0x00000000   Number         0  entry9a.o ABSOLUTE
    ../clib/microlib/init/entry.s            0x00000000   Number         0  entry9b.o ABSOLUTE
    ../clib/microlib/init/entry.s            0x00000000   Number         0  entry10a.o ABSOLUTE
    ../clib/microlib/init/entry.s            0x00000000   Number         0  entry10b.o ABSOLUTE
    ../clib/microlib/init/entry.s            0x00000000   Number         0  entry11a.o ABSOLUTE
    ../clib/microlib/init/entry.s            0x00000000   Number         0  entry11b.o ABSOLUTE
    ../clib/microlib/string/memset.c         0x00000000   Number         0  memseta.o ABSOLUTE
    ../clib/microlib/stubs.s                 0x00000000   Number         0  iusefp.o ABSOLUTE
    ../fplib/microlib/fpdiv.c                0x00000000   Number         0  fdiv.o ABSOLUTE
    ../fplib/microlib/fpepilogue.c           0x00000000   Number         0  fepilogue.o ABSOLUTE
    ../fplib/microlib/fpfix.c                0x00000000   Number         0  ffixui.o ABSOLUTE
    ../fplib/microlib/fpflt.c                0x00000000   Number         0  ffltui.o ABSOLUTE
    ../fplib/microlib/fpmul.c                0x00000000   Number         0  fmul.o ABSOLUTE
    dc.s                                     0x00000000   Number         0  dc.o ABSOLUTE
    gd32e23x_adc.c                           0x00000000   Number         0  gd32e23x_adc.o ABSOLUTE
    gd32e23x_cmp.c                           0x00000000   Number         0  gd32e23x_cmp.o ABSOLUTE
    gd32e23x_crc.c                           0x00000000   Number         0  gd32e23x_crc.o ABSOLUTE
    gd32e23x_dbg.c                           0x00000000   Number         0  gd32e23x_dbg.o ABSOLUTE
    gd32e23x_dma.c                           0x00000000   Number         0  gd32e23x_dma.o ABSOLUTE
    gd32e23x_exti.c                          0x00000000   Number         0  gd32e23x_exti.o ABSOLUTE
    gd32e23x_fmc.c                           0x00000000   Number         0  gd32e23x_fmc.o ABSOLUTE
    gd32e23x_fwdgt.c                         0x00000000   Number         0  gd32e23x_fwdgt.o ABSOLUTE
    gd32e23x_gpio.c                          0x00000000   Number         0  gd32e23x_gpio.o ABSOLUTE
    gd32e23x_i2c.c                           0x00000000   Number         0  gd32e23x_i2c.o ABSOLUTE
    gd32e23x_it.c                            0x00000000   Number         0  gd32e23x_it.o ABSOLUTE
    gd32e23x_misc.c                          0x00000000   Number         0  gd32e23x_misc.o ABSOLUTE
    gd32e23x_pmu.c                           0x00000000   Number         0  gd32e23x_pmu.o ABSOLUTE
    gd32e23x_rcu.c                           0x00000000   Number         0  gd32e23x_rcu.o ABSOLUTE
    gd32e23x_rtc.c                           0x00000000   Number         0  gd32e23x_rtc.o ABSOLUTE
    gd32e23x_spi.c                           0x00000000   Number         0  gd32e23x_spi.o ABSOLUTE
    gd32e23x_syscfg.c                        0x00000000   Number         0  gd32e23x_syscfg.o ABSOLUTE
    gd32e23x_timer.c                         0x00000000   Number         0  gd32e23x_timer.o ABSOLUTE
    gd32e23x_usart.c                         0x00000000   Number         0  gd32e23x_usart.o ABSOLUTE
    gd32e23x_wwdgt.c                         0x00000000   Number         0  gd32e23x_wwdgt.o ABSOLUTE
    handlers.s                               0x00000000   Number         0  handlers.o ABSOLUTE
    init.s                                   0x00000000   Number         0  init.o ABSOLUTE
    led.c                                    0x00000000   Number         0  led.o ABSOLUTE
    main.c                                   0x00000000   Number         0  main.o ABSOLUTE
    system_gd32e23x.c                        0x00000000   Number         0  system_gd32e23x.o ABSOLUTE
    systick.c                                0x00000000   Number         0  systick.o ABSOLUTE
    tft.c                                    0x00000000   Number         0  tft.o ABSOLUTE
    tft_init.c                               0x00000000   Number         0  tft_init.o ABSOLUTE
    RESET                                    0x08000000   Section      204  startup_gd32e23x.o(RESET)
    .ARM.Collect$$$$00000000                 0x080000cc   Section        0  entry.o(.ARM.Collect$$$$00000000)
    .ARM.Collect$$$$00000001                 0x080000cc   Section        4  entry2.o(.ARM.Collect$$$$00000001)
    .ARM.Collect$$$$00000004                 0x080000d0   Section        4  entry5.o(.ARM.Collect$$$$00000004)
    .ARM.Collect$$$$00000008                 0x080000d4   Section        0  entry7b.o(.ARM.Collect$$$$00000008)
    .ARM.Collect$$$$0000000A                 0x080000d4   Section        0  entry8b.o(.ARM.Collect$$$$0000000A)
    .ARM.Collect$$$$0000000B                 0x080000d4   Section        8  entry9a.o(.ARM.Collect$$$$0000000B)
    __lit__00000000                          0x080000dc   Data           4  entry2.o(.ARM.Collect$$$$00002712)
    .ARM.Collect$$$$0000000D                 0x080000dc   Section        0  entry10a.o(.ARM.Collect$$$$0000000D)
    .ARM.Collect$$$$0000000F                 0x080000dc   Section        0  entry11a.o(.ARM.Collect$$$$0000000F)
    .ARM.Collect$$$$00002712                 0x080000dc   Section        4  entry2.o(.ARM.Collect$$$$00002712)
    .text                                    0x080000e0   Section       28  startup_gd32e23x.o(.text)
    .text                                    0x080000fc   Section        0  memseta.o(.text)
    .text                                    0x08000120   Section        0  fmul.o(.text)
    .text                                    0x0800019a   Section        0  fdiv.o(.text)
    .text                                    0x08000216   Section        0  ffltui.o(.text)
    .text                                    0x08000224   Section        0  ffixui.o(.text)
    .text                                    0x0800024c   Section        0  iusefp.o(.text)
    .text                                    0x0800024c   Section        0  fepilogue.o(.text)
    .text                                    0x080002d0   Section       36  init.o(.text)
    [Anonymous Symbol]                       0x080002f4   Section        0  led.o(.text.CLose_LED)
    [Anonymous Symbol]                       0x08000330   Section        0  gd32e23x_it.o(.text.HardFault_Handler)
    [Anonymous Symbol]                       0x08000334   Section        0  led.o(.text.Init_LED_GPIO)
    __arm_cp.0_0                             0x08000390   Number         4  led.o(.text.Init_LED_GPIO)
    __arm_cp.0_1                             0x08000394   Number         4  led.o(.text.Init_LED_GPIO)
    Init_SPI0_GPIO                           0x08000399   Thumb Code   124  tft_init.o(.text.Init_SPI0_GPIO)
    [Anonymous Symbol]                       0x08000398   Section        0  tft_init.o(.text.Init_SPI0_GPIO)
    __arm_cp.7_0                             0x08000414   Number         4  tft_init.o(.text.Init_SPI0_GPIO)
    __arm_cp.7_1                             0x08000418   Number         4  tft_init.o(.text.Init_SPI0_GPIO)
    [Anonymous Symbol]                       0x0800041c   Section        0  gd32e23x_it.o(.text.NMI_Handler)
    [Anonymous Symbol]                       0x0800041e   Section        0  gd32e23x_it.o(.text.PendSV_Handler)
    SPI0_Write                               0x08000421   Thumb Code    40  tft_init.o(.text.SPI0_Write)
    [Anonymous Symbol]                       0x08000420   Section        0  tft_init.o(.text.SPI0_Write)
    __arm_cp.1_0                             0x08000448   Number         4  tft_init.o(.text.SPI0_Write)
    [Anonymous Symbol]                       0x0800044c   Section        0  gd32e23x_it.o(.text.SVC_Handler)
    [Anonymous Symbol]                       0x0800044e   Section        0  gd32e23x_it.o(.text.SysTick_Handler)
    [Anonymous Symbol]                       0x08000450   Section        0  system_gd32e23x.o(.text.SystemInit)
    __arm_cp.0_0                             0x08000528   Number         4  system_gd32e23x.o(.text.SystemInit)
    __arm_cp.0_1                             0x0800052c   Number         4  system_gd32e23x.o(.text.SystemInit)
    __arm_cp.0_2                             0x08000530   Number         4  system_gd32e23x.o(.text.SystemInit)
    __arm_cp.0_3                             0x08000534   Number         4  system_gd32e23x.o(.text.SystemInit)
    __arm_cp.0_4                             0x08000538   Number         4  system_gd32e23x.o(.text.SystemInit)
    __arm_cp.0_5                             0x0800053c   Number         4  system_gd32e23x.o(.text.SystemInit)
    __arm_cp.0_6                             0x08000540   Number         4  system_gd32e23x.o(.text.SystemInit)
    __arm_cp.0_7                             0x08000544   Number         4  system_gd32e23x.o(.text.SystemInit)
    __arm_cp.0_8                             0x08000548   Number         4  system_gd32e23x.o(.text.SystemInit)
    [Anonymous Symbol]                       0x0800054c   Section        0  tft_init.o(.text.TFT_Address_Set)
    [Anonymous Symbol]                       0x0800059e   Section        0  tft.o(.text.TFT_DrawLine)
    [Anonymous Symbol]                       0x08000708   Section        0  tft.o(.text.TFT_DrawPoint)
    [Anonymous Symbol]                       0x08000734   Section        0  tft.o(.text.TFT_Fill)
    TFT_GPIO_Init                            0x080007c5   Thumb Code    56  tft_init.o(.text.TFT_GPIO_Init)
    [Anonymous Symbol]                       0x080007c4   Section        0  tft_init.o(.text.TFT_GPIO_Init)
    __arm_cp.6_0                             0x080007fc   Number         4  tft_init.o(.text.TFT_GPIO_Init)
    [Anonymous Symbol]                       0x08000800   Section        0  tft_init.o(.text.TFT_Init)
    __arm_cp.5_0                             0x08000a28   Number         4  tft_init.o(.text.TFT_Init)
    [Anonymous Symbol]                       0x08000a2c   Section        0  tft.o(.text.TFT_ShowChinese)
    [Anonymous Symbol]                       0x08000adc   Section        0  tft.o(.text.TFT_ShowChinese16x16)
    __arm_cp.8_0                             0x08000cc4   Number         4  tft.o(.text.TFT_ShowChinese16x16)
    [Anonymous Symbol]                       0x08000cc8   Section        0  tft.o(.text.TFT_ShowChinese24x24)
    __arm_cp.9_0                             0x08000eb0   Number         4  tft.o(.text.TFT_ShowChinese24x24)
    [Anonymous Symbol]                       0x08000eb4   Section        0  tft.o(.text.TFT_ShowUI)
    __arm_cp.11_0                            0x08000ee4   Number         4  tft.o(.text.TFT_ShowUI)
    [Anonymous Symbol]                       0x08000ee8   Section        0  tft_init.o(.text.TFT_WR_DATA)
    [Anonymous Symbol]                       0x08000f1c   Section        0  tft_init.o(.text.TFT_WR_DATA8)
    [Anonymous Symbol]                       0x08000f48   Section        0  tft_init.o(.text.TFT_WR_REG)
    __arm_cp.3_0                             0x08000f84   Number         4  tft_init.o(.text.TFT_WR_REG)
    [Anonymous Symbol]                       0x08000f88   Section        0  systick.o(.text.delay_1ms)
    __arm_cp.3_0                             0x08000ff8   Number         4  systick.o(.text.delay_1ms)
    __arm_cp.3_1                             0x08000ffc   Number         4  systick.o(.text.delay_1ms)
    __arm_cp.3_2                             0x08001000   Number         4  systick.o(.text.delay_1ms)
    __arm_cp.3_3                             0x08001004   Number         4  systick.o(.text.delay_1ms)
    [Anonymous Symbol]                       0x08001008   Section        0  tft.o(.text.drawCurve)
    __arm_cp.10_0                            0x080010bc   Number         4  tft.o(.text.drawCurve)
    __arm_cp.10_1                            0x080010c0   Number         4  tft.o(.text.drawCurve)
    __arm_cp.10_2                            0x080010c4   Number         4  tft.o(.text.drawCurve)
    [Anonymous Symbol]                       0x080010c8   Section        0  gd32e23x_gpio.o(.text.gpio_af_set)
    [Anonymous Symbol]                       0x08001188   Section        0  gd32e23x_gpio.o(.text.gpio_bit_reset)
    [Anonymous Symbol]                       0x08001198   Section        0  gd32e23x_gpio.o(.text.gpio_bit_set)
    [Anonymous Symbol]                       0x080011a8   Section        0  gd32e23x_gpio.o(.text.gpio_mode_set)
    [Anonymous Symbol]                       0x08001236   Section        0  gd32e23x_gpio.o(.text.gpio_output_options_set)
    [Anonymous Symbol]                       0x080012c0   Section        0  main.o(.text.main)
    [Anonymous Symbol]                       0x080013b4   Section        0  gd32e23x_misc.o(.text.nvic_vector_table_set)
    __arm_cp.7_0                             0x080013d0   Number         4  gd32e23x_misc.o(.text.nvic_vector_table_set)
    __arm_cp.7_1                             0x080013d4   Number         4  gd32e23x_misc.o(.text.nvic_vector_table_set)
    [Anonymous Symbol]                       0x080013d8   Section        0  gd32e23x_rcu.o(.text.rcu_periph_clock_enable)
    [Anonymous Symbol]                       0x080013fc   Section        0  gd32e23x_rcu.o(.text.rcu_periph_reset_disable)
    [Anonymous Symbol]                       0x08001420   Section        0  gd32e23x_rcu.o(.text.rcu_periph_reset_enable)
    [Anonymous Symbol]                       0x08001444   Section        0  gd32e23x_spi.o(.text.spi_enable)
    [Anonymous Symbol]                       0x08001458   Section        0  gd32e23x_spi.o(.text.spi_i2s_data_transmit)
    [Anonymous Symbol]                       0x080014a4   Section        0  gd32e23x_spi.o(.text.spi_i2s_deinit)
    __arm_cp.0_2                             0x080014e8   Number         4  gd32e23x_spi.o(.text.spi_i2s_deinit)
    [Anonymous Symbol]                       0x080014ec   Section        0  gd32e23x_spi.o(.text.spi_i2s_flag_get)
    __arm_cp.41_0                            0x08001568   Number         4  gd32e23x_spi.o(.text.spi_i2s_flag_get)
    [Anonymous Symbol]                       0x0800156c   Section        0  gd32e23x_spi.o(.text.spi_init)
    __arm_cp.2_0                             0x0800169c   Number         4  gd32e23x_spi.o(.text.spi_init)
    __arm_cp.2_1                             0x080016a0   Number         4  gd32e23x_spi.o(.text.spi_init)
    [Anonymous Symbol]                       0x080016a4   Section        0  gd32e23x_spi.o(.text.spi_struct_para_init)
    system_clock_72m_hxtal                   0x080016d1   Thumb Code   208  system_gd32e23x.o(.text.system_clock_72m_hxtal)
    [Anonymous Symbol]                       0x080016d0   Section        0  system_gd32e23x.o(.text.system_clock_72m_hxtal)
    __arm_cp.3_0                             0x080017a0   Number         4  system_gd32e23x.o(.text.system_clock_72m_hxtal)
    __arm_cp.3_1                             0x080017a4   Number         4  system_gd32e23x.o(.text.system_clock_72m_hxtal)
    __arm_cp.3_2                             0x080017a8   Number         4  system_gd32e23x.o(.text.system_clock_72m_hxtal)
    __arm_cp.3_3                             0x080017ac   Number         4  system_gd32e23x.o(.text.system_clock_72m_hxtal)
    __arm_cp.3_4                             0x080017b0   Number         4  system_gd32e23x.o(.text.system_clock_72m_hxtal)
    system_clock_config                      0x080017b5   Thumb Code     8  system_gd32e23x.o(.text.system_clock_config)
    [Anonymous Symbol]                       0x080017b4   Section        0  system_gd32e23x.o(.text.system_clock_config)
    [Anonymous Symbol]                       0x080017bc   Section        0  gd32e23x_misc.o(.text.systick_clksource_set)
    __arm_cp.10_0                            0x080017e4   Number         4  gd32e23x_misc.o(.text.systick_clksource_set)
    [Anonymous Symbol]                       0x080017e8   Section        0  systick.o(.text.systick_config)
    __arm_cp.0_0                             0x08001814   Number         4  systick.o(.text.systick_config)
    __arm_cp.0_1                             0x08001818   Number         4  systick.o(.text.systick_config)
    __arm_cp.0_2                             0x0800181c   Number         4  systick.o(.text.systick_config)
    __arm_cp.0_3                             0x08001820   Number         4  systick.o(.text.systick_config)
    __arm_cp.0_4                             0x08001824   Number         4  systick.o(.text.systick_config)
    i.__scatterload_copy                     0x08001828   Section       14  handlers.o(i.__scatterload_copy)
    i.__scatterload_null                     0x08001836   Section        2  handlers.o(i.__scatterload_null)
    i.__scatterload_zeroinit                 0x08001838   Section       14  handlers.o(i.__scatterload_zeroinit)
    [Anonymous Symbol]                       0x08001846   Section        0  tft.o(.rodata.str1.1)
    firstPoint                               0x20000004   Data           1  tft.o(.data.firstPoint)
    [Anonymous Symbol]                       0x20000004   Section        0  tft.o(.data.firstPoint)
    count_1ms                                0x20000008   Data           4  systick.o(.bss.count_1ms)
    [Anonymous Symbol]                       0x20000008   Section        0  systick.o(.bss.count_1ms)
    count_1us                                0x2000000c   Data           4  systick.o(.bss.count_1us)
    [Anonymous Symbol]                       0x2000000c   Section        0  systick.o(.bss.count_1us)
    lastX                                    0x20000010   Data           2  tft.o(.bss.lastX)
    [Anonymous Symbol]                       0x20000010   Section        0  tft.o(.bss.lastX)
    lastY                                    0x20000012   Data           2  tft.o(.bss.lastY)
    [Anonymous Symbol]                       0x20000012   Section        0  tft.o(.bss.lastY)
    STACK                                    0x20000018   Section     1024  startup_gd32e23x.o(STACK)

    Global Symbols

    Symbol Name                              Value     Ov Type        Size  Object(Section)

    BuildAttributes$$THM_ISAv3M$S$8M$PE$A:L22$X:L11$S22$IEEE1$IW$~IW$USESV6$~STKCKD$USESV7$~SHL$OTIME$ROPI$EBA8$MICROLIB$REQ8$PRES8$EABIv2 0x00000000   Number         0  anon$$obj.o ABSOLUTE
    __cpp_initialize__aeabi_                  - Undefined Weak Reference
    __cxa_finalize                            - Undefined Weak Reference
    __decompress                              - Undefined Weak Reference
    _clock_init                               - Undefined Weak Reference
    _microlib_exit                            - Undefined Weak Reference
    __Vectors_Size                           0x000000cc   Number         0  startup_gd32e23x.o ABSOLUTE
    __Vectors                                0x08000000   Data           4  startup_gd32e23x.o(RESET)
    __Vectors_End                            0x080000cc   Data           0  startup_gd32e23x.o(RESET)
    __main                                   0x080000cd   Thumb Code     0  entry.o(.ARM.Collect$$$$00000000)
    _main_stk                                0x080000cd   Thumb Code     0  entry2.o(.ARM.Collect$$$$00000001)
    _main_scatterload                        0x080000d1   Thumb Code     0  entry5.o(.ARM.Collect$$$$00000004)
    __main_after_scatterload                 0x080000d5   Thumb Code     0  entry5.o(.ARM.Collect$$$$00000004)
    _main_clock                              0x080000d5   Thumb Code     0  entry7b.o(.ARM.Collect$$$$00000008)
    _main_cpp_init                           0x080000d5   Thumb Code     0  entry8b.o(.ARM.Collect$$$$0000000A)
    _main_init                               0x080000d5   Thumb Code     0  entry9a.o(.ARM.Collect$$$$0000000B)
    __rt_final_cpp                           0x080000dd   Thumb Code     0  entry10a.o(.ARM.Collect$$$$0000000D)
    __rt_final_exit                          0x080000dd   Thumb Code     0  entry11a.o(.ARM.Collect$$$$0000000F)
    Reset_Handler                            0x080000e1   Thumb Code     8  startup_gd32e23x.o(.text)
    ADC_CMP_IRQHandler                       0x080000f3   Thumb Code     0  startup_gd32e23x.o(.text)
    DMA_Channel0_IRQHandler                  0x080000f3   Thumb Code     0  startup_gd32e23x.o(.text)
    DMA_Channel1_2_IRQHandler                0x080000f3   Thumb Code     0  startup_gd32e23x.o(.text)
    DMA_Channel3_4_IRQHandler                0x080000f3   Thumb Code     0  startup_gd32e23x.o(.text)
    EXTI0_1_IRQHandler                       0x080000f3   Thumb Code     0  startup_gd32e23x.o(.text)
    EXTI2_3_IRQHandler                       0x080000f3   Thumb Code     0  startup_gd32e23x.o(.text)
    EXTI4_15_IRQHandler                      0x080000f3   Thumb Code     0  startup_gd32e23x.o(.text)
    FMC_IRQHandler                           0x080000f3   Thumb Code     0  startup_gd32e23x.o(.text)
    I2C0_ER_IRQHandler                       0x080000f3   Thumb Code     0  startup_gd32e23x.o(.text)
    I2C0_EV_IRQHandler                       0x080000f3   Thumb Code     0  startup_gd32e23x.o(.text)
    I2C1_ER_IRQHandler                       0x080000f3   Thumb Code     0  startup_gd32e23x.o(.text)
    I2C1_EV_IRQHandler                       0x080000f3   Thumb Code     0  startup_gd32e23x.o(.text)
    LVD_IRQHandler                           0x080000f3   Thumb Code     0  startup_gd32e23x.o(.text)
    RCU_IRQHandler                           0x080000f3   Thumb Code     0  startup_gd32e23x.o(.text)
    RTC_IRQHandler                           0x080000f3   Thumb Code     0  startup_gd32e23x.o(.text)
    SPI0_IRQHandler                          0x080000f3   Thumb Code     0  startup_gd32e23x.o(.text)
    SPI1_IRQHandler                          0x080000f3   Thumb Code     0  startup_gd32e23x.o(.text)
    TIMER0_BRK_UP_TRG_COM_IRQHandler         0x080000f3   Thumb Code     0  startup_gd32e23x.o(.text)
    TIMER0_Channel_IRQHandler                0x080000f3   Thumb Code     0  startup_gd32e23x.o(.text)
    TIMER13_IRQHandler                       0x080000f3   Thumb Code     0  startup_gd32e23x.o(.text)
    TIMER14_IRQHandler                       0x080000f3   Thumb Code     0  startup_gd32e23x.o(.text)
    TIMER15_IRQHandler                       0x080000f3   Thumb Code     0  startup_gd32e23x.o(.text)
    TIMER16_IRQHandler                       0x080000f3   Thumb Code     0  startup_gd32e23x.o(.text)
    TIMER2_IRQHandler                        0x080000f3   Thumb Code     0  startup_gd32e23x.o(.text)
    TIMER5_IRQHandler                        0x080000f3   Thumb Code     0  startup_gd32e23x.o(.text)
    USART0_IRQHandler                        0x080000f3   Thumb Code     0  startup_gd32e23x.o(.text)
    USART1_IRQHandler                        0x080000f3   Thumb Code     0  startup_gd32e23x.o(.text)
    WWDGT_IRQHandler                         0x080000f3   Thumb Code     0  startup_gd32e23x.o(.text)
    __aeabi_memset                           0x080000fd   Thumb Code    14  memseta.o(.text)
    __aeabi_memset4                          0x080000fd   Thumb Code     0  memseta.o(.text)
    __aeabi_memset8                          0x080000fd   Thumb Code     0  memseta.o(.text)
    __aeabi_memclr                           0x0800010b   Thumb Code     4  memseta.o(.text)
    __aeabi_memclr4                          0x0800010b   Thumb Code     0  memseta.o(.text)
    __aeabi_memclr8                          0x0800010b   Thumb Code     0  memseta.o(.text)
    _memset$wrapper                          0x0800010f   Thumb Code    18  memseta.o(.text)
    __aeabi_fmul                             0x08000121   Thumb Code   122  fmul.o(.text)
    __aeabi_fdiv                             0x0800019b   Thumb Code   124  fdiv.o(.text)
    __aeabi_ui2f                             0x08000217   Thumb Code    14  ffltui.o(.text)
    __aeabi_f2uiz                            0x08000225   Thumb Code    40  ffixui.o(.text)
    __I$use$fp                               0x0800024d   Thumb Code     0  iusefp.o(.text)
    _float_round                             0x0800024d   Thumb Code    16  fepilogue.o(.text)
    _float_epilogue                          0x0800025d   Thumb Code   114  fepilogue.o(.text)
    __scatterload                            0x080002d1   Thumb Code    28  init.o(.text)
    __scatterload_rt2                        0x080002d1   Thumb Code     0  init.o(.text)
    CLose_LED                                0x080002f5   Thumb Code    60  led.o(.text.CLose_LED)
    HardFault_Handler                        0x08000331   Thumb Code     4  gd32e23x_it.o(.text.HardFault_Handler)
    Init_LED_GPIO                            0x08000335   Thumb Code    92  led.o(.text.Init_LED_GPIO)
    NMI_Handler                              0x0800041d   Thumb Code     2  gd32e23x_it.o(.text.NMI_Handler)
    PendSV_Handler                           0x0800041f   Thumb Code     2  gd32e23x_it.o(.text.PendSV_Handler)
    SVC_Handler                              0x0800044d   Thumb Code     2  gd32e23x_it.o(.text.SVC_Handler)
    SysTick_Handler                          0x0800044f   Thumb Code     2  gd32e23x_it.o(.text.SysTick_Handler)
    SystemInit                               0x08000451   Thumb Code   216  system_gd32e23x.o(.text.SystemInit)
    TFT_Address_Set                          0x0800054d   Thumb Code    82  tft_init.o(.text.TFT_Address_Set)
    TFT_DrawLine                             0x0800059f   Thumb Code   362  tft.o(.text.TFT_DrawLine)
    TFT_DrawPoint                            0x08000709   Thumb Code    44  tft.o(.text.TFT_DrawPoint)
    TFT_Fill                                 0x08000735   Thumb Code   144  tft.o(.text.TFT_Fill)
    TFT_Init                                 0x08000801   Thumb Code   552  tft_init.o(.text.TFT_Init)
    TFT_ShowChinese                          0x08000a2d   Thumb Code   174  tft.o(.text.TFT_ShowChinese)
    TFT_ShowChinese16x16                     0x08000add   Thumb Code   488  tft.o(.text.TFT_ShowChinese16x16)
    TFT_ShowChinese24x24                     0x08000cc9   Thumb Code   488  tft.o(.text.TFT_ShowChinese24x24)
    TFT_ShowUI                               0x08000eb5   Thumb Code    48  tft.o(.text.TFT_ShowUI)
    TFT_WR_DATA                              0x08000ee9   Thumb Code    52  tft_init.o(.text.TFT_WR_DATA)
    TFT_WR_DATA8                             0x08000f1d   Thumb Code    44  tft_init.o(.text.TFT_WR_DATA8)
    TFT_WR_REG                               0x08000f49   Thumb Code    60  tft_init.o(.text.TFT_WR_REG)
    delay_1ms                                0x08000f89   Thumb Code   112  systick.o(.text.delay_1ms)
    drawCurve                                0x08001009   Thumb Code   180  tft.o(.text.drawCurve)
    gpio_af_set                              0x080010c9   Thumb Code   192  gd32e23x_gpio.o(.text.gpio_af_set)
    gpio_bit_reset                           0x08001189   Thumb Code    16  gd32e23x_gpio.o(.text.gpio_bit_reset)
    gpio_bit_set                             0x08001199   Thumb Code    16  gd32e23x_gpio.o(.text.gpio_bit_set)
    gpio_mode_set                            0x080011a9   Thumb Code   142  gd32e23x_gpio.o(.text.gpio_mode_set)
    gpio_output_options_set                  0x08001237   Thumb Code   138  gd32e23x_gpio.o(.text.gpio_output_options_set)
    main                                     0x080012c1   Thumb Code   244  main.o(.text.main)
    nvic_vector_table_set                    0x080013b5   Thumb Code    28  gd32e23x_misc.o(.text.nvic_vector_table_set)
    rcu_periph_clock_enable                  0x080013d9   Thumb Code    36  gd32e23x_rcu.o(.text.rcu_periph_clock_enable)
    rcu_periph_reset_disable                 0x080013fd   Thumb Code    36  gd32e23x_rcu.o(.text.rcu_periph_reset_disable)
    rcu_periph_reset_enable                  0x08001421   Thumb Code    36  gd32e23x_rcu.o(.text.rcu_periph_reset_enable)
    spi_enable                               0x08001445   Thumb Code    18  gd32e23x_spi.o(.text.spi_enable)
    spi_i2s_data_transmit                    0x08001459   Thumb Code    76  gd32e23x_spi.o(.text.spi_i2s_data_transmit)
    spi_i2s_deinit                           0x080014a5   Thumb Code    68  gd32e23x_spi.o(.text.spi_i2s_deinit)
    spi_i2s_flag_get                         0x080014ed   Thumb Code   124  gd32e23x_spi.o(.text.spi_i2s_flag_get)
    spi_init                                 0x0800156d   Thumb Code   304  gd32e23x_spi.o(.text.spi_init)
    spi_struct_para_init                     0x080016a5   Thumb Code    42  gd32e23x_spi.o(.text.spi_struct_para_init)
    systick_clksource_set                    0x080017bd   Thumb Code    40  gd32e23x_misc.o(.text.systick_clksource_set)
    systick_config                           0x080017e9   Thumb Code    44  systick.o(.text.systick_config)
    __scatterload_copy                       0x08001829   Thumb Code    14  handlers.o(i.__scatterload_copy)
    __scatterload_null                       0x08001837   Thumb Code     2  handlers.o(i.__scatterload_null)
    __scatterload_zeroinit                   0x08001839   Thumb Code    14  handlers.o(i.__scatterload_zeroinit)
    tfont16                                  0x08001851   Data         170  tft.o(.rodata.tfont16)
    tfont24                                  0x080018fb   Data         370  tft.o(.rodata.tfont24)
    Region$$Table$$Base                      0x08001a70   Number         0  anon$$obj.o(Region$$Table)
    Region$$Table$$Limit                     0x08001a90   Number         0  anon$$obj.o(Region$$Table)
    SystemCoreClock                          0x20000000   Data           4  system_gd32e23x.o(.data.SystemCoreClock)
    __initial_sp                             0x20000418   Data           0  startup_gd32e23x.o(STACK)



==============================================================================

Memory Map of the image

  Image Entry point : 0x080000cd

  Load Region LR_IROM1 (Base: 0x08000000, Size: 0x00001a98, Max: 0x00010000, ABSOLUTE)

    Execution Region ER_IROM1 (Exec base: 0x08000000, Load base: 0x08000000, Size: 0x00001a90, Max: 0x00010000, ABSOLUTE)

    Exec Addr    Load Addr    Size         Type   Attr      Idx    E Section Name        Object

    0x08000000   0x08000000   0x000000cc   Data   RO         1180    RESET               startup_gd32e23x.o
    0x080000cc   0x080000cc   0x00000000   Code   RO         1262  * .ARM.Collect$$$$00000000  mc_p.l(entry.o)
    0x080000cc   0x080000cc   0x00000004   Code   RO         1275    .ARM.Collect$$$$00000001  mc_p.l(entry2.o)
    0x080000d0   0x080000d0   0x00000004   Code   RO         1278    .ARM.Collect$$$$00000004  mc_p.l(entry5.o)
    0x080000d4   0x080000d4   0x00000000   Code   RO         1280    .ARM.Collect$$$$00000008  mc_p.l(entry7b.o)
    0x080000d4   0x080000d4   0x00000000   Code   RO         1282    .ARM.Collect$$$$0000000A  mc_p.l(entry8b.o)
    0x080000d4   0x080000d4   0x00000008   Code   RO         1283    .ARM.Collect$$$$0000000B  mc_p.l(entry9a.o)
    0x080000dc   0x080000dc   0x00000000   Code   RO         1285    .ARM.Collect$$$$0000000D  mc_p.l(entry10a.o)
    0x080000dc   0x080000dc   0x00000000   Code   RO         1287    .ARM.Collect$$$$0000000F  mc_p.l(entry11a.o)
    0x080000dc   0x080000dc   0x00000004   Code   RO         1276    .ARM.Collect$$$$00002712  mc_p.l(entry2.o)
    0x080000e0   0x080000e0   0x0000001c   Code   RO         1181    .text               startup_gd32e23x.o
    0x080000fc   0x080000fc   0x00000024   Code   RO         1265    .text               mc_p.l(memseta.o)
    0x08000120   0x08000120   0x0000007a   Code   RO         1267    .text               mf_p.l(fmul.o)
    0x0800019a   0x0800019a   0x0000007c   Code   RO         1269    .text               mf_p.l(fdiv.o)
    0x08000216   0x08000216   0x0000000e   Code   RO         1271    .text               mf_p.l(ffltui.o)
    0x08000224   0x08000224   0x00000028   Code   RO         1273    .text               mf_p.l(ffixui.o)
    0x0800024c   0x0800024c   0x00000000   Code   RO         1289    .text               mc_p.l(iusefp.o)
    0x0800024c   0x0800024c   0x00000082   Code   RO         1290    .text               mf_p.l(fepilogue.o)
    0x080002ce   0x080002ce   0x00000002   PAD
    0x080002d0   0x080002d0   0x00000024   Code   RO         1292    .text               mc_p.l(init.o)
    0x080002f4   0x080002f4   0x0000003c   Code   RO         1190    .text.CLose_LED     led.o
    0x08000330   0x08000330   0x00000004   Code   RO            4    .text.HardFault_Handler  gd32e23x_it.o
    0x08000334   0x08000334   0x00000064   Code   RO         1188    .text.Init_LED_GPIO  led.o
    0x08000398   0x08000398   0x00000084   Code   RO         1254    .text.Init_SPI0_GPIO  tft_init.o
    0x0800041c   0x0800041c   0x00000002   Code   RO            2    .text.NMI_Handler   gd32e23x_it.o
    0x0800041e   0x0800041e   0x00000002   Code   RO            8    .text.PendSV_Handler  gd32e23x_it.o
    0x08000420   0x08000420   0x0000002c   Code   RO         1242    .text.SPI0_Write    tft_init.o
    0x0800044c   0x0800044c   0x00000002   Code   RO            6    .text.SVC_Handler   gd32e23x_it.o
    0x0800044e   0x0800044e   0x00000002   Code   RO           10    .text.SysTick_Handler  gd32e23x_it.o
    0x08000450   0x08000450   0x000000fc   Code   RO         1162    .text.SystemInit    system_gd32e23x.o
    0x0800054c   0x0800054c   0x00000052   Code   RO         1248    .text.TFT_Address_Set  tft_init.o
    0x0800059e   0x0800059e   0x0000016a   Code   RO         1205    .text.TFT_DrawLine  tft.o
    0x08000708   0x08000708   0x0000002c   Code   RO         1203    .text.TFT_DrawPoint  tft.o
    0x08000734   0x08000734   0x00000090   Code   RO         1201    .text.TFT_Fill      tft.o
    0x080007c4   0x080007c4   0x0000003c   Code   RO         1252    .text.TFT_GPIO_Init  tft_init.o
    0x08000800   0x08000800   0x0000022c   Code   RO         1250    .text.TFT_Init      tft_init.o
    0x08000a2c   0x08000a2c   0x000000ae   Code   RO         1215    .text.TFT_ShowChinese  tft.o
    0x08000ada   0x08000ada   0x00000002   PAD
    0x08000adc   0x08000adc   0x000001ec   Code   RO         1217    .text.TFT_ShowChinese16x16  tft.o
    0x08000cc8   0x08000cc8   0x000001ec   Code   RO         1219    .text.TFT_ShowChinese24x24  tft.o
    0x08000eb4   0x08000eb4   0x00000034   Code   RO         1223    .text.TFT_ShowUI    tft.o
    0x08000ee8   0x08000ee8   0x00000034   Code   RO         1244    .text.TFT_WR_DATA   tft_init.o
    0x08000f1c   0x08000f1c   0x0000002c   Code   RO         1240    .text.TFT_WR_DATA8  tft_init.o
    0x08000f48   0x08000f48   0x00000040   Code   RO         1246    .text.TFT_WR_REG    tft_init.o
    0x08000f88   0x08000f88   0x00000080   Code   RO           34    .text.delay_1ms     systick.o
    0x08001008   0x08001008   0x000000c0   Code   RO         1221    .text.drawCurve     tft.o
    0x080010c8   0x080010c8   0x000000c0   Code   RO          405    .text.gpio_af_set   gd32e23x_gpio.o
    0x08001188   0x08001188   0x00000010   Code   RO          391    .text.gpio_bit_reset  gd32e23x_gpio.o
    0x08001198   0x08001198   0x00000010   Code   RO          389    .text.gpio_bit_set  gd32e23x_gpio.o
    0x080011a8   0x080011a8   0x0000008e   Code   RO          385    .text.gpio_mode_set  gd32e23x_gpio.o
    0x08001236   0x08001236   0x0000008a   Code   RO          387    .text.gpio_output_options_set  gd32e23x_gpio.o
    0x080012c0   0x080012c0   0x000000f4   Code   RO           19    .text.main          main.o
    0x080013b4   0x080013b4   0x00000024   Code   RO          511    .text.nvic_vector_table_set  gd32e23x_misc.o
    0x080013d8   0x080013d8   0x00000024   Code   RO          561    .text.rcu_periph_clock_enable  gd32e23x_rcu.o
    0x080013fc   0x080013fc   0x00000024   Code   RO          571    .text.rcu_periph_reset_disable  gd32e23x_rcu.o
    0x08001420   0x08001420   0x00000024   Code   RO          569    .text.rcu_periph_reset_enable  gd32e23x_rcu.o
    0x08001444   0x08001444   0x00000012   Code   RO          721    .text.spi_enable    gd32e23x_spi.o
    0x08001456   0x08001456   0x00000002   PAD
    0x08001458   0x08001458   0x0000004c   Code   RO          755    .text.spi_i2s_data_transmit  gd32e23x_spi.o
    0x080014a4   0x080014a4   0x00000048   Code   RO          715    .text.spi_i2s_deinit  gd32e23x_spi.o
    0x080014ec   0x080014ec   0x00000080   Code   RO          797    .text.spi_i2s_flag_get  gd32e23x_spi.o
    0x0800156c   0x0800156c   0x00000138   Code   RO          719    .text.spi_init      gd32e23x_spi.o
    0x080016a4   0x080016a4   0x0000002a   Code   RO          717    .text.spi_struct_para_init  gd32e23x_spi.o
    0x080016ce   0x080016ce   0x00000002   PAD
    0x080016d0   0x080016d0   0x000000e4   Code   RO         1168    .text.system_clock_72m_hxtal  system_gd32e23x.o
    0x080017b4   0x080017b4   0x00000008   Code   RO         1164    .text.system_clock_config  system_gd32e23x.o
    0x080017bc   0x080017bc   0x0000002c   Code   RO          517    .text.systick_clksource_set  gd32e23x_misc.o
    0x080017e8   0x080017e8   0x00000040   Code   RO           28    .text.systick_config  systick.o
    0x08001828   0x08001828   0x0000000e   Code   RO         1296    i.__scatterload_copy  mc_p.l(handlers.o)
    0x08001836   0x08001836   0x00000002   Code   RO         1297    i.__scatterload_null  mc_p.l(handlers.o)
    0x08001838   0x08001838   0x0000000e   Code   RO         1298    i.__scatterload_zeroinit  mc_p.l(handlers.o)
    0x08001846   0x08001846   0x0000000b   Data   RO         1232    .rodata.str1.1      tft.o
    0x08001851   0x08001851   0x000000aa   Data   RO         1227    .rodata.tfont16     tft.o
    0x080018fb   0x080018fb   0x00000172   Data   RO         1228    .rodata.tfont24     tft.o
    0x08001a6d   0x08001a6d   0x00000003   PAD
    0x08001a70   0x08001a70   0x00000020   Data   RO         1295    Region$$Table       anon$$obj.o


    Execution Region RW_IRAM1 (Exec base: 0x20000000, Load base: 0x08001a90, Size: 0x00000418, Max: 0x00002000, ABSOLUTE)

    Exec Addr    Load Addr    Size         Type   Attr      Idx    E Section Name        Object

    0x20000000   0x08001a90   0x00000004   Data   RW         1170    .data.SystemCoreClock  system_gd32e23x.o
    0x20000004   0x08001a94   0x00000001   Data   RW         1229    .data.firstPoint    tft.o
    0x20000005   0x08001a95   0x00000003   PAD
    0x20000008        -       0x00000004   Zero   RW           39    .bss.count_1ms      systick.o
    0x2000000c        -       0x00000004   Zero   RW           38    .bss.count_1us      systick.o
    0x20000010        -       0x00000002   Zero   RW         1230    .bss.lastX          tft.o
    0x20000012        -       0x00000002   Zero   RW         1231    .bss.lastY          tft.o
    0x20000014   0x08001a95   0x00000004   PAD
    0x20000018        -       0x00000400   Zero   RW         1178    STACK               startup_gd32e23x.o


==============================================================================

Image component sizes


      Code (inc. data)   RO Data    RW Data    ZI Data      Debug   Object Name

       504          0          0          0          0       4231   gd32e23x_gpio.o
        12          0          0          0          0        704   gd32e23x_it.o
        80         12          0          0          0       3889   gd32e23x_misc.o
       108          0          0          0          0      11256   gd32e23x_rcu.o
       648         16          0          0          0       9062   gd32e23x_spi.o
       160          8          0          0          0       1462   led.o
       244          0          0          0          0        885   main.o
        28          8        204          0       1024        708   startup_gd32e23x.o
       488         56          0          4          0       1917   system_gd32e23x.o
       192         36          0          0          8       1756   systick.o
      1952         24        551          1          4       6652   tft.o
      1034         24          0          0          0       2595   tft_init.o

    ----------------------------------------------------------------------
      5456        184        790          8       1040      45117   Object Totals
         0          0         32          0          0          0   (incl. Generated)
         6          0          3          3          4          0   (incl. Padding)

    ----------------------------------------------------------------------

      Code (inc. data)   RO Data    RW Data    ZI Data      Debug   Library Member Name

         0          0          0          0          0          0   entry.o
         0          0          0          0          0          0   entry10a.o
         0          0          0          0          0          0   entry11a.o
         8          4          0          0          0          0   entry2.o
         4          0          0          0          0          0   entry5.o
         0          0          0          0          0          0   entry7b.o
         0          0          0          0          0          0   entry8b.o
         8          4          0          0          0          0   entry9a.o
        30          0          0          0          0          0   handlers.o
        36          8          0          0          0         68   init.o
         0          0          0          0          0          0   iusefp.o
        36          0          0          0          0        100   memseta.o
       124          0          0          0          0         72   fdiv.o
       130          0          0          0          0        144   fepilogue.o
        40          0          0          0          0         60   ffixui.o
        14          0          0          0          0         68   ffltui.o
       122          0          0          0          0         72   fmul.o

    ----------------------------------------------------------------------
       554         16          0          0          0        584   Library Totals
         2          0          0          0          0          0   (incl. Padding)

    ----------------------------------------------------------------------

      Code (inc. data)   RO Data    RW Data    ZI Data      Debug   Library Name

       122         16          0          0          0        168   mc_p.l
       430          0          0          0          0        416   mf_p.l

    ----------------------------------------------------------------------
       554         16          0          0          0        584   Library Totals

    ----------------------------------------------------------------------

==============================================================================


      Code (inc. data)   RO Data    RW Data    ZI Data      Debug   

      6010        200        790          8       1040      45521   Grand Totals
      6010        200        790          8       1040      45521   ELF Image Totals
      6010        200        790          8          0          0   ROM Totals

==============================================================================

    Total RO  Size (Code + RO Data)                 6800 (   6.64kB)
    Total RW  Size (RW Data + ZI Data)              1048 (   1.02kB)
    Total ROM Size (Code + RO Data + RW Data)       6808 (   6.65kB)

==============================================================================

