:020000040800F2
:10000000080400209D010008E11C00082B120008D4
:10001000DD1C00082D050008891E000800000000F6
:10002000000000000000000000000000BD1D0008EE
:1000300031050008000000001D1D0008BF1D00085C
:10004000B7010008B7010008B7010008B7010008B0
:10005000B7010008B7010008B7010008B7010008A0
:10006000B7010008B7010008B7010008B701000890
:10007000B7010008B7010008B7010008B701000880
:10008000B7010008B7010008B7010008B701000870
:10009000B7010008B7010008B7010008B701000860
:1000A000B7010008B7010008B7010008B701000850
:1000B000B7010008B7010008B7010008B701000840
:1000C000B7010008B7010008B7010008B701000830
:1000D000B7010008B7010008B7010008B701000820
:1000E000B7010008B7010008B7010008B701000810
:1000F000B7010008B7010008B7010008B701000800
:10010000B7010008B7010008B7010008B7010008EF
:10011000B7010008B7010008B7010008B7010008DF
:10012000B7010008B7010008B7010008B7010008CF
:10013000B7010008B7010008B7010008B7010008BF
:10014000B7010008B7010008B7010008B7010008AF
:10015000B7010008B7010008B7010008B70100089F
:10016000B7010008B7010008B7010008B70100088F
:10017000B7010008B7010008B7010008000000003F
:10018000B7010008B7010008DFF80CD000F0ACF9A7
:1001900000480047B91E00080804002006488047B0
:1001A00006480047FEE7FEE7FEE7FEE7FEE7FEE75C
:1001B000FEE7FEE7FEE7FEE7391E000889010008BA
:1001C0002DE9FE4F804681EA0300C00F0C460090E7
:1001D00021F0004123F00045B8EB0200A94105D20F
:1001E0004046214690461C460B46024623F00040FE
:1001F000104347D0270DC7F30A00C3F30A510290FA
:10020000401A019040286BDAC3F3130040F4801BBE
:100210000098924620B10023D2EB030A63EB0B0B4C
:1002200001985946C0F14002504600F0A7F8064632
:100230000D4650465946019A00F0AFF810EB080001
:100240006141002487EA115284EAE7731A4340D0DF
:10025000009A62B3019A012A4FEA075215DC001B8B
:1002600061EB02014FF0004202EA0752CDE9004281
:10027000001C41F5801132462B4600F0E6F803B031
:1002800000F045B840462146F9E7001B61EB02014A
:10029000001C41F5801300185B412018A2F50017DF
:1002A00047EB030140EAD570B6196D4111E06D08C6
:1002B0004FEA360645EAC0754FEA0752001B61EB6C
:1002C0000201001C41F5801149084FEA3000001975
:1002D000514132462B4603B000F01CB800F0A6B8DE
:1002E0000098012240000023D0EB020263EBE07390
:1002F000009821464FEAE074B8EB000061EB04017E
:10030000E9E783F000435BE781F0004158E730BC48
:10031000BDE8C08F30BCBDE8C04FFFF7DFBF00F0C5
:10032000004230F000400AD0C10D01F56071C0F309
:10033000160042EA0151C2084007114370470020ED
:100340000146704701F0004330B421F0004150EA0B
:10035000010206D00A0DA2F56072C1F31301002A52
:1003600002DC30BC00207047440F44EAC104C100E5
:10037000E01830BC00EBC25000F021B8202A04DBAA
:10038000203A00FA02F1002070479140C2F12003A8
:1003900020FA03F3194390407047202A06DBCB175D
:1003A000203A41FA02F043EAE07306E041FA02F330
:1003B000D040C2F1200291400843194670470029FD
:1003C000A8BF7047401C490008BF20F001007047DB
:1003D00010B4B0FA80FC00FA0CF050EA010404BF3B
:1003E00010BC704749B1CCF1200421FA04F411FA91
:1003F0000CF118BF012121430843A3EB0C01CB1DD5
:100400004FEA00614FEA102042BF002010BC704745
:1004100000EBC35010440029A4BF10BC7047401C1F
:10042000490008BF20F0010010BC704710B5141E31
:1004300073F1000408DA401C41F1000192185B419D
:100440001A4301D120F0010010BD2DE9F04D924674
:100450009B4611B1B1FA81F202E0B0FA80F220328B
:100460009046FFF78BFF04460F4640EA0A0041EA38
:100470000B0153465A46084313D0114653EA010074
:1004800019D0C8F14002504600F040F805460E462B
:10049000504659464246FFF771FF084305D00120F8
:1004A00004E020463946BDE8F08D0020054346EAC9
:1004B000E0762C4337430A986305E40AA0EB080072
:1004C0000022FD0A44EA47540A3002D500200146C2
:1004D000E9E7010510196941DDE90845001969419D
:1004E000BDE8F04DA2E70000064C074D06E0E068CD
:1004F00040F0010394E8070098471034AC42F6D36B
:10050000FFF746FE3C4F00085C4F0008202A04DB42
:10051000203A21FA02F00021704721FA02F3D0407C
:10052000C2F12002914008431946704700BFFEE720
:10053000704770B5044600F015F906462546681C5C
:1005400000B16D1C00BF00F00DF9801BA842FAD36A
:1005500070BD000078B503460022E5E00126964014
:100560000D6805EA0604002C7DD04D68022D02D0EE
:100570004D68122D13D1D60803F1200555F8260039
:100580005507EE0E0F25B540A8435607F60E0D6928
:10059000B5402843D60803F1200545F82600186821
:1005A00056000325B540A8430D7905F00305560014
:1005B000B540284318604D68012D08D04D68022DC4
:1005C00005D04D68112D02D04D68122D13D19868B9
:1005D00056000325B540A8435600CD68B5402843D2
:1005E0009860586801259540A8430D79C5F300151A
:1005F0009540284358600D7905F00305032D09D176
:10060000D86A01259540A8430D79C5F3C0059540EA
:100610002843D862D86856000325B540A843560041
:100620008D68B5402843D8604D6805F08055B5F118
:10063000805F78D100BF3F4D2D6E45F001053D4EE6
:10064000356635462D6E05F00105009500BF00BFEB
:100650004FEAB635960855F8260095072E0F0F2558
:10066000B540A84300E05EE0B3F1904F01D1002512
:100670001EE0314DAB4201D1012519E02F4DAB42B7
:1006800001D1022514E02E4DAB4201D103250FE02C
:100690002C4DAB4201D104250AE02B4DAB4201D1D8
:1006A000052505E0294DAB4201D1062500E00725CF
:1006B0009607360FB5402843254D960845F8260085
:1006C000244D2868A0434D6805F48035B5F5803F7A
:1006D00000D120431F4D28602D1D2868A0434D6880
:1006E00005F40035B5F5003F00D12043194D2D1D0F
:1006F00028602D1D2868A0434D6805F48015B5F5C8
:10070000801F00D12043134D083528602D1D286817
:10071000A0434D6805F40015B5F5001F00D1204336
:100720000C4D0C352860521C0D68D540002D7FF40F
:1007300015AF78BD001002400004004800080048D2
:10074000000C004800100048001400480018004841
:1007500008000140000401400AB1816100E08162AB
:100760007047000001480068704700000400002046
:1007700002480068401C01490860704704000020DE
:1007800010B50024032000F065F8002000F008F800
:1007900008B1012401E000F01BF8204610BD000064
:1007A00070B504460025094800684FF47A71B0FB23
:1007B000F1F6304600F01BFD08B1012504E00022EF
:1007C0002146501E00F005F8284670BD00000020AC
:1007D00070472DE9F05F80460D461646002701F070
:1007E00081FA074639462A46334601F00700C0F130
:1007F000070ABAF1040F02D94FF0040A01E0C0F170
:10080000070AD14600F1040ABAF1070F02D24FF0ED
:10081000000A01E0A0F1030AD4464FF0010A0AFAE7
:1008200009FAAAF1010A0AEA020A0AFA0CFA4FF0D6
:10083000010B0BFA0CFBABF1010B0BEA030B4AEAC1
:100840000B042146404601F055FA00F000B830BCD8
:10085000BDE8C09F00BF00F00702064B19684FF6C5
:10086000FF031940044B0B4343EA0221014B19607B
:1008700000BF70470CED00E00000FA050246B2F53B
:10088000007F2AD11D48006800F4C060B0F5007FE9
:1008900032D01A48006820F4C06040F40070174B52
:1008A00018601748006832235843164BB0FBF3F02A
:1008B000411C00E0491E1148406900F48060B0F519
:1008C000806F01D10029F5D10C48406900F48060A7
:1008D000B0F5806F10D1032070470848006800F41D
:1008E000C060B0F5806F07D00448006820F4C06095
:1008F00040F48060014B18600020EDE7007000407C
:100900000000002040420F000248006800F4C06070
:1009100070470000007000402DE9F04104460D468C
:1009200014B90120BDE8F0815548006800F00700C7
:10093000A8420ED25248006820F0070028435049D0
:1009400008600846006800F00700A84201D00120B6
:10095000E8E7207800F00100002840D06068032814
:1009600006D14848006800F00070D8B90120D9E7E6
:100970006068022806D14348006800F4003088B956
:100980000120CFE7606830B93E48006800F00200FF
:1009900040B90120C6E73B48006800F4806008B910
:1009A0000120BFE73748806820F0030061680843F2
:1009B00034498860FFF7D6FE064608E0FFF7D2FE0E
:1009C000801B41F28831884201D90320AAE72D48D3
:1009D000806800F00C006168B0EB810FEED12078E8
:1009E00000F00200022807D12648806820F0F000BD
:1009F000A1680843234988602148006800F0070087
:100A0000A8420ED91E48006820F0070028431C4960
:100A100008600846006800F00700A84201D00120E5
:100A200080E7207800F00400042807D1154880688A
:100A300020F4E060E168084312498860207800F003
:100A40000800082808D10F48806820F46050216908
:100A500040EAC1000B49886000F020F80949896824
:100A6000C1F30311084A515C01F01F01C840074956
:100A700008600020FFF794FE0746384652E7000062
:100A800000200240001002409C2C000800000020C2
:100A90000148006870470000000000202DE9F04187
:100AA00000240020DFF800C1DCF808C00CF00C01C5
:100AB000DFF8F4C0DCF80CC00CF0030719B10C2906
:100AC0001ED1012F1CD1DFF8E0C0DCF800C00CF013
:100AD000080CBCF1000F06D1DFF8CCC0DCF894C0E4
:100AE000CCF3032405E0DFF8C0C0DCF800C0CCF391
:100AF0000314DFF8B8C05CF8244041B9204606E092
:100B0000042901D12A4802E0082900D129480C29EA
:100B100047D1DFF894C0DCF80CC00CF00305DFF817
:100B200088C0DCF80CC0CCF3021C0CF10103012DD1
:100B30001FD0022D02D0032D1AD10CE0DFF870C0B7
:100B4000BCFBF3FCDFF86080D8F80C80C8F3062803
:100B50000CFB08F218E0DFF85CC0BCFBF3FCDFF82C
:100B60004880D8F80C80C8F306280CFB08F20BE08C
:100B700000BFB4FBF3FCDFF83080D8F80C80C8F37A
:100B800006280CFB08F200BF00BFDFF81CC0DCF831
:100B90000CC0CCF3416C0CF1010C4FEA4C06B2FBDB
:100BA000F6F0BDE8F081000000100240B42C00080F
:100BB0000024F40000127A002DE9F843044614B929
:100BC0000120BDE8F883F848806800F00C06F6487C
:100BD000C06800F00307207800F01000102875D1DD
:100BE0001EB10C2E74D1012F72D1EF48006800F0B5
:100BF000020018B1A06908B90120E2E7EA48216AB9
:100C0000006800F0080020B1E748006800F0F0003C
:100C100005E0E5489430006800F470600009814206
:100C20001FD9206A01F07CF808B10120C9E700BF94
:100C3000DD48006840F00800DB49086008460068AD
:100C400020F0F000216A0843D749086000BF084639
:100C5000406820F47F40E16940EA0120D2494860C1
:100C60001EE000BFD048006840F00800CE49086090
:100C70000846006820F0F000216A0843CA4908606D
:100C800000BF0846406820F47F40E16940EA012047
:100C9000C5494860206A01F043F808B1012090E797
:100CA000FFF7FCFEC0498968C1F30311BF4A515CDC
:100CB00001F01F01C840BE4908600020FFF770FD29
:100CC0008046B8F1000F4ED040467AE74BE0FFE790
:100CD000A06980B3B448006840F00100B2490860E0
:100CE000FFF740FD054606E0FFF73CFD401B0228EC
:100CF00001D9032065E7AC48006800F00200002835
:100D0000F2D000BFA848006840F00800A64908607B
:100D10000846006820F0F000216A0843A2490860F4
:100D200000BF0846406820F47F40E16940EA0120A6
:100D30009D49486017E0FFE79B48006820F00100EC
:100D400099490860FFF70EFD054606E0FFF70AFD2A
:100D5000401B022801D9032033E79348006800F0C4
:100D600002000028F2D1207800F0010000285CD0B9
:100D7000082E03D00C2E0AD1032F08D18A48006810
:100D800000F4003088B3606878BB012019E700BF29
:100D90006068B0F5803F06D18348006840F4803039
:100DA000814908601AE06068B0F5A02F0BD17E4839
:100DB000006840F480207C4908600846006840F4E0
:100DC000803008600AE07848006820F48030764976
:100DD00008600846006820F48020086000BF606852
:100DE00090B1FFF7BFFC054607E01EE0FFF7BAFC35
:100DF000401B642801D90320E3E66B48006800F437
:100E000000300028F2D010E0FFF7ACFC054606E009
:100E1000FFF7A8FC401B642801D90320D1E66248F3
:100E2000006800F400300028F2D1207800F00200C1
:100E3000022852D1042E03D00C2E14D1022F12D12D
:100E40005948006800F4806018B1E06808B90120D2
:100E5000B7E65548406820F0F850217C40EA016030
:100E60005149486039E0E06800B34F48006840F4F9
:100E700080704D490860FFF775FC054606E0FFF7F6
:100E800071FC401B022801D903209AE646480068FD
:100E900000F480600028F2D04348406820F0F85009
:100EA000217C40EA01604049486016E03E48006805
:100EB00020F480703C490860FFF754FC054606E0CA
:100EC000FFF750FC401B022801D9032079E6364881
:100ED000006800F480600028F2D1207800F008005B
:100EE000082836D16069D0B12F489430006840F0AE
:100EF00001002D49C1F89400FFF734FC054606E0D7
:100F0000FFF730FC401B022801D9032059E6264890
:100F10009430006800F002000028F1D019E0224867
:100F20009430006820F001001F49C1F89400FFF7D9
:100F300019FC054606E0FFF715FC401B022801D905
:100F400003203EE618489430006800F002000028B4
:100F5000F1D1207800F00400042870D14FF000098E
:100F60001148806D00F0805078B900BF0E48806D48
:100F700040F080500C4988650846806D00F0805034
:100F8000009000BF00BF4FF001090A48006800F45C
:100F90008070F0B90748006840F480700549086027
:100FA000FFF7E0FB05460EE0001002409C2C000815
:100FB0000000002000700040FFF7D4FB401B022817
:100FC00001D90320FDE57C48006800F4807000280A
:100FD000F2D000BFA068012808D17848006840F02E
:100FE000010076499039C1F8900021E0A0680528F9
:100FF0000FD17248006840F0040070499039C1F880
:1010000090000846D0F8900040F00100C1F8900030
:101010000EE06A48006820F0010068499039C1F884
:1010200090000846D0F8900020F00400C1F890002D
:1010300000BFA068A0B1FFF795FB054609E02EE0D0
:10104000FFF790FB401B41F28831884201D9032011
:10105000B7E55A48006800F002000028F0D012E01E
:10106000FFF780FB054608E0FFF77CFB401B41F2E1
:101070008831884201D90320A3E55048006800F078
:1010800002000028F0D1B9F1010F07D14B48903888
:10109000806D20F0805049499039886500BFA06A72
:1010A000F0B30C2E74D0A06A022853D14348903874
:1010B000006820F08070414990390860FFF752FBCA
:1010C000054606E0FFF74EFB401B022801D903202E
:1010D00077E53A489038006800F000700028F1D1B8
:1010E000206B401E0101606B41EA0021A06B0009EA
:1010F00041EA4040E16A0843A18F0122C2EB51015D
:1011000040EA41514020005DC2EB500041EA40609E
:101110002A499039C8600846006840F0807000E0B5
:1011200048E008600846C06840F08070C860FFF77B
:1011300019FB054606E0FFF715FB401B022801D905
:1011400003203EE51D489038006800F0007000283C
:10115000F1D02FE019489038006820F080701749CE
:10116000903908600846006800F0205020B9084611
:10117000C06820F00300C86010489038C06810496B
:1011800008400E499039C860FFF7ECFA054607E0C1
:101190000EE0FFF7E7FA401B022801D9032010E513
:1011A00006489038006800F000700028F1D101E096
:1011B000012006E5002004E5007000409010024088
:1011C000FFFFEEFE042808D14FF0E021096941F04D
:1011D00004014FF0E022116107E04FF0E0210969BE
:1011E00021F004014FF0E02211617047704770B5A3
:1011F00004462546681EB0F1807F01D301200FE030
:10120000681E4FF0E02148610F214FF0FF3000F0E1
:1012100071FD00204FF0E021886107200861002067
:1012200070BD10B5FFF7E2FF10BD00BFFEE72DE96E
:10123000F04104460D4616461F462A2000F0E2FC07
:10124000A01C00F0CFFCB01C00F0CCFC2B2000F068
:10125000D9FC681C00F0C6FC781C00F0C3FC2C20F4
:1012600000F0D0FCBDE8F08170B504460D4616468E
:101270002B46224629462046FFF7D9FF304600F08C
:10128000B1FC70BD2DE9F04706460F4614461D46D9
:10129000DDF820A06B1E621E39463046FFF7C7FFFF
:1012A000B8460AE0B14604E0504600F09BFC09F164
:1012B0000109A145F8D308F10108A845F2D3BDE81A
:1012C000F087000000B587B000BF2D48C06C40F02B
:1012D00001002B49C8640846C06C00F00100019071
:1012E00000BF00BF00BF0846C06C40F00800C864E3
:1012F0000846C06C00F00800019000BF00BF00BFAE
:101300000846C06C40F00200C8640846C06C00F09B
:101310000200019000BF00BFB020029001200390A6
:1013200004900220059002A94FF09040FFF712F9B7
:101330000122B0214FF09040FFF70EFA04200290F6
:101340000120039004900220059002A90D48FFF7A8
:1013500001F9012204210B48FFF7FEF960200290F9
:101360000120039004900220059002A90648FFF78F
:10137000F1F8012260210448FFF7EEF907B000BD43
:1013800000100240000C00480004004810B5FFF7B0
:1013900099FF002204217C48FFF7DEF9642000F069
:1013A00084FD012204217848FFF7D6F9642000F07B
:1013B0007CFD012240217548FFF7CEF9642000F042
:1013C00074FD112000F01EFC782000F06EFDB120AD
:1013D00000F018FC052000F00FFC3C2000F00CFC95
:1013E0003C2000F009FCB22000F00CFC052000F0CD
:1013F00003FC3C2000F000FC3C2000F0FDFBB3208F
:1014000000F000FC052000F0F7FB3C2000F0F4FBAE
:101410003C2000F0F1FB052000F0EEFB3C2000F04A
:10142000EBFB3C2000F0E8FBB42000F0EBFB0320DA
:1014300000F0E2FBC02000F0E5FB282000F0DCFB20
:10144000082000F0D9FB042000F0D6FBC12000F0FA
:10145000D9FBC02000F0D0FBC22000F0D3FB0D2050
:1014600000F0CAFB002000F0C7FBC32000F0CAFB5D
:101470008D2000F0C1FB2A2000F0BEFBC42000F04C
:10148000C1FB8D2000F0B8FBEE2000F0B5FBC520BD
:1014900000F0B8FB1A2000F0AFFB362000F0B2FBE2
:1014A000C02000F0A9FBE02000F0ACFB042000F01D
:1014B000A3FB222000F0A0FB072000F09DFB0A20E8
:1014C00000F09AFB2E2000F097FB302000F094FBF8
:1014D000252000F091FB2A2000F08EFB282000F050
:1014E0008BFB262000F088FB2E2000F085FB3A20A5
:1014F00000F082FB002000F07FFB012000F07CFB6D
:10150000032000F079FB132000F076FBE12000F0CF
:1015100079FB042000F070FB162000F06DFB062024
:1015200000F06AFB0D2000F067FB2D2000F064FB4B
:10153000262000F061FB232000F05EFB272000F056
:101540005BFB272000F058FB252000F055FB2D20E9
:1015500000F052FB3B2000F04FFB002000F04CFB62
:10156000012000F049FB042000F046FB132000F0AE
:1015700043FB3A2000F046FB052000F03DFB29200C
:1015800000F040FB10BD0000000C004800040048C3
:101590002DE9FF4F83B005468A461746119CAB469E
:1015A000204604EBD071C1F347063046F11706EB35
:1015B0005171C91061430191A7F12000C7B20AEB34
:1015C0000400431EA819421E51462846FFF72FFE6D
:1015D0004FF0000945E0102C06D1244800EB07101D
:1015E00010F8090002900BE0202C06D1204800EBF7
:1015F000871010F80900029002E007B000F03AB836
:101600004FF0000827E0129868B9012000FA08F0AE
:101610000299084018B1069800F0E4FA17E0109813
:1016200000F0E0FA13E0012000FA08F00299084007
:1016300020B151462846069AFFF716FE6D1CA5EB11
:101640000B00B04203D15D460AF1010A06E008F141
:10165000010000F0FF08B8F1080FD4DB00BF09F16A
:10166000010901988145B6D300BFC6E7E42C000804
:10167000D432000830BCBDE8C08F2DE9FE4F804653
:10168000894615469A46DDE90D470C9E27E0102C49
:1016900009D153462A4649464046CDE901470096BE
:1016A00000F026F819E0182C09D153462A4649467D
:1016B0004046CDE90147009600F098F80DE0202C57
:1016C00009D153462A4649464046CDE9014700968E
:1016D00000F012F901E000F007B8AD1CA044287832
:1016E0000028D4D100BFF6E71EBCBDE8E08F0000A3
:1016F0002DE9FE4F0646894692469B460D9C009674
:101700002046E11704EB5171C91061430191052096
:10171000029000255FE005EB0510314911F810003B
:101720009AF80010884254D105EB05102C4901EBC2
:10173000400040789AF8011088424AD109EB040031
:10174000431E3019421E49463046FFF770FD002700
:101750003CE04FF0000833E00E9898B905EB051017
:101760001F4901EB4000801CC05D012101FA08F116
:10177000084018B1584600F035FA1DE00C9800F00A
:1017800031FA19E005EB0510154901EB4000801C0A
:10179000C05D012101FA08F1084020B15A464946CE
:1017A0003046FFF761FD761C0098301AA04203D145
:1017B000009E09F1010906E008F1010000F0FF08B0
:1017C000B8F1080FC8DB00BF781CC7B20198874288
:1017D000BFD300BF6D1C029885429CD300F002B8B5
:1017E000944A00081EBCBDE8E08F00002DE9FE4FC2
:1017F0000646894692469B460D9C00962046E11778
:1018000004EB5171C910614301910520029000253C
:1018100067E005EB850000EB4510344911F8100036
:101820009AF8001088425AD105EB850000EB45106C
:101830002E4901EB400040789AF8011088424ED1C1
:1018400009EB0400431E3019421E49463046FFF79B
:10185000EEFC002740E04FF0000837E00E98A8B9F2
:1018600005EB850000EB4510204901EB4000801C92
:10187000C05D012101FA08F1084018B1584600F096
:10188000B1F91FE00C9800F0ADF91BE005EB850005
:1018900000EB4510154901EB4000801CC05D0121A3
:1018A00001FA08F1084020B15A4649463046FFF790
:1018B000DBFC761C0098301AA04203D1009E09F18F
:1018C000010906E008F1010000F0FF08B8F1080F77
:1018D000C4DB00BF781CC7B201988742BBD300BFEE
:1018E0006D1C0298854294D300F002B83E4B00086C
:1018F0001EBCBDE8E08F00002DE9FE4F064689467C
:1019000092469B460D9C00962046E11704EB5171D0
:10191000C910614301910520029000255FE005EBAD
:101920008510314911F810009AF80010884254D1FE
:1019300005EB85102C4901EB400040789AF8011026
:1019400088424AD109EB0400431E3019421E494621
:101950003046FFF76CFC00273CE04FF0000833E016
:101960000E9898B905EB85101F4901EB4000801CCB
:10197000C05D012101FA08F1084018B1584600F095
:1019800031F91DE00C9800F02DF919E005EB8510F8
:10199000154901EB4000801CC05D012101FA08F1EE
:1019A000084020B15A4649463046FFF75DFC761C98
:1019B0000098301AA04203D1009E09F1010906E007
:1019C00008F1010000F0FF08B8F1080FC8DB00BF04
:1019D000781CC7B201988742BFD300BF6D1C029824
:1019E00085429CD300F002B8B04C00081EBCBDE894
:1019F000E08F00002DE9FF4F2DED020B2DED028B46
:101A000083B00746B0EE408A1446DDE914863046BE
:101A100006EBD071C1F3470A9FED200A28EE000AB9
:101A2000BCEEC00A10EE10BA00252EE0601B401E6E
:101A3000C1B20A2000F0E6FABBFBF0F00A21B0FBCD
:101A4000F1F201FB1209A01EA8420FD10020A11E35
:101A5000CDE90086029001FB0A702E220A9B0899AC
:101A6000FFF796FD681CC5B2601CC4B2002009F1E6
:101A70003001CAB2CDE90086029005FB0A700A9BCC
:101A80000899FFF785FD681CC5B2A542CEDB03B0FF
:101A9000BDEC028B06B000F003B800000000C842A5
:101AA00030BCBDE8C08F2DE9FF4F85B00746914699
:101AB0001D46DDE913A600200490304606EBD071E8
:101AC000C1F3470B002432E0281B401EC1B20A209C
:101AD00000F098FAB9FBF0F00A21B0FBF1F201FB3B
:101AE0001208049898B9681EA04210DDB8F1000FE2
:101AF0000BD10020CDE900A6029004FB0B70202240
:101B0000129B0699FFF744FD0FE00120049000208E
:101B100008F13001CAB2CDE900A6029004FB0B70B7
:101B2000129B0699FFF734FD00BF601CC4B2AC42A3
:101B3000CADB09B000F000B830BCBDE8C08F2DE9A9
:101B4000F05F0746884615461E46DDF828900024BB
:101B500008EB0600431E7819421E41463846FFF73F
:101B600066FBA24614E04FF0000B0DE019F81400DC
:101B700000F042F8012101EB440119F8010000F0E6
:101B80003BF8641C0BF1010BB345EFD30AF1010ADA
:101B9000AA45E8D300F000B830BCBDE8C09F2DE9ED
:101BA000FE4F06460F4614469846DDE90D5ADDF80D
:101BB00030900FE0CDE9015ACDF8009022784346ED
:101BC00039463046FFF7E4FC284605EBD07106EBBA
:101BD0006106641C20780028ECD100F000B81EBC1F
:101BE000BDE8E08F10B50446C4F3072000F01CF8F0
:101BF000E0B200F019F810BD10B50446204600F020
:101C000013F810BD10B50446002220210548FEF748
:101C1000A3FD204600F008F8012220210148FEF72C
:101C20009BFD10BD0004004870B504460022102141
:101C30004FF09040FEF790FD00251FE0002220218C
:101C40004FF09040FEF788FD04F0800030B1012293
:101C500080214FF09040FEF77FFD05E000228021BB
:101C60004FF09040FEF778FD012220214FF0904088
:101C7000FEF772FD6006040E681CC5B2082DDDDBA0
:101C8000012210214FF09040FEF766FD70BD00006C
:101C900000B587B000BF0F48C06C40F004000D498C
:101CA000C8640846C06C00F00400019000BF00BF8B
:101CB000881402900120039004900320059002A94B
:101CC0000548FEF747FC012211030348FEF744FDD7
:101CD00007B000BD001002400008004800BFFEE74A
:101CE0007047000002480068C0F3022070470000FF
:101CF0000CED00E010B5002807DA0A07140E054ABB
:101D000000F00F031B1FD45403E00A07130E024A0E
:101D1000135410BD18ED00E000E400E0704700002F
:101D2000F8B5044600262348806D00F0805018B1B5
:101D3000FEF7EAFD054616E000BF1E48806D40F044
:101D400080501C4988650846806D00F080500090E6
:101D500000BF00BFFEF7D8FD05461648806D20F095
:101D6000805014498865B5F5007F07D1802C10D9C3
:101D7000A02C01D902260CE001260AE0802C01D912
:101D8000032606E0802C01D1022602E0702C00D14F
:101D900001260948006820F0070030430649086022
:101DA0000846006800F00700B04201D00120F8BDED
:101DB0000020FCE70010024000200240704710B5F0
:101DC000FEF7D6FCFFF72DFA10BD10B596B0012036
:101DD00005900004069002200F900321109101212C
:101DE00011911421129102211491159105A8FEF769
:101DF000E3FE0F200090032001900020029003904A
:101E0000049004216846FEF787FD4FF40070FEF74A
:101E100035FDFEF73DFE4FF47A71B0FBF1F420463C
:101E2000FFF7E5F90420FFF7CDF900221146501E17
:101E3000FEF7CFFC16B010BD1048006840F47000EB
:101E40000E4908600E48006840F001000C49086027
:101E500000208860084600680A4908400849086070
:101E60008814C8600846006820F4802008600020BC
:101E70008861C803014980390860704788ED00E037
:101E800000100240FFFFF6EA00BFFEE702E008C8CC
:101E9000121F08C1002AFAD170477047002001E0E4
:101EA00001C1121F002AFBD1704710B5044620461D
:101EB000FEF73FFB10BD00002DED068B84B09FEDBB
:101EC000450AB0EE408AFEF75BFCFFF77EFFFFF7A6
:101ED000DFFEFFF75BFA4FF6FF70A02380220021A0
:101EE00000900846FFF7CEF900224FF480513A489F
:101EF000FEF732FC6CE0002018214FF6FF724FF421
:101F00007843CDE90021029034A20146FFF7B5FBEA
:101F1000002010214FF6FF724FF47843CDE90021E5
:101F2000029031A21E211820FFF739FE10204FF633
:101F3000FF714FF478420323CDE900210290802203
:101F40001E214820FFF7AFFD002010214FF6FF7241
:101F50004FF47843CDE90021029025A232211820C8
:101F6000FFF71DFE10204FF6FF714FF47842032358
:101F7000CDE900210290A02232214820FFF793FDF5
:101F800010204FF6FF714FF478430422B0EE480A58
:101F9000CDE9001050211420FFF72CFD18EE100A97
:101FA000FEF7BDF941EC1A0B9FED130B53EC102B10
:101FB000FEF706F941EC190BFEF7C4F908EE100A1A
:101FC0000F4828231A46502100904120FFF7B7FD03
:101FD00091E700000000000000080048D6D0BEB025
:101FE000D4B0B5E7D7D300004C43445F573A000064
:101FF0004C43445F483A0000295C8FC2F528BC3F3F
:102000001A20000810B50246012000E050430B1EC4
:10201000A1F10104E1B2F9D110BDFFFFFFFFFFFF05
:10202000FFFFFFFFFFFFFFFFFFFFFFFFFFFFFFFFC0
:10203000FFFFFFFFFFFFFFFFF7BEFFFFFFDEC6381A
:102040008C926B8E6B6E7C10AD96E73CFFFFFFFFB2
:10205000FFFFFFFFFFFFFFFFFFFFFFFFFFFFFFFF90
:10206000FFFFFFFFFFFFFFFFFFFFFFFFFFFFFFFF80
:10207000FFFFFFFFFFFFFFFFFFFFFFFFFFFFFFFF70
:10208000FFFFFFFFFFFFFFFFEF5D9D15634F426CFA
:10209000320A298819461925214531E86B8EC63840
:1020A000FFFFFFFFFFFFFFFFFFFFFFFFFFFFFFFF40
:1020B000FFFFFFFFFFFFFFFFFFFFFFFFFFFFFFFF30
:1020C000FFFFFFFFFFFFFFFFFFFFFFFFFFFFFFFF20
:1020D000FFFFFFFFFFFFA53653104B1053514B0F6F
:1020E0003A6C31E92167192510E408A300620883DE
:1020F00052CBD69AFFFFFFFFFFFFFFFFFFFFFFFF5F
:10210000FFFFFFFFFFFFFFFFFFFFFFFFFFFFFFFFDF
:10211000FFFFFFFFFFFFFFFFFFFFFFFFFFFFFFFFCF
:10212000FFFFE73C637063B37CB863F54311324D46
:1021300029EA21881926190519051104110410E44A
:10214000008308A38C72FFFFFFFFFFFFFFFFFFFF6D
:10215000FFFFFFFFFFFFFFFFFFFFFFFFFFFFFFFF8F
:10216000FFFFFFFFFFFFFFFFFFFFFFFFFFFFFFFF7F
:10217000DEDB3A4B42F06C354B5432B12A2E21EB68
:1021800021A919671905110411041104110411047E
:10219000190510E4004273AFFFFFFFFFFFFFFFFFD1
:1021A000FFFFFFFFFFFFFFFFFFFFFFFFFFFFFFFF3F
:1021B000FFFFFFFFFFFFFFFFFFFFFFFFFFFFEF5DE1
:1021C0003209324C4B10328F2A4F2A2E19CC1989E2
:1021D0002189194719051104110410C410C41104F0
:1021E0001104110410E400428431FFFFFFFFFFFFE0
:1021F000FFFFFFFFFFFFFFFFFFFFFFFFFFFFFFFFEF
:10220000FFFFFFFFFFFFFFFFFFFFFFFFFFFF52EC9E
:102210001947324C2A0B21EC21EC220C5B914AEE3F
:1022200011061926190410E410E429A7216608A351
:1022300019051104110410E40082BDF7FFFFFFFF30
:10224000FFFFFFFFFFFFFFFFFFFFFFFFFFFFFFFF9E
:10225000FFFFFFFFFFFFFFFFFFFFFFFFA535088325
:1022600021882188218921AA218A426B8C71FFFF54
:102270008C720883110408C44229DEFBEF5D5AEC1E
:102280000883110411041104088331E8FFDFFFFF04
:10229000FFFFFFFFFFFFFFFFFFFFFFFFFFFFFFFF4E
:1022A000FFFFFFFFFFFFFFFFFFFFF7BE31C710C4B7
:1022B000192519261947194729A8528A4A28AD55C0
:1022C000FFFF31E808A319056B4D6B4DFFFFEF7D54
:1022D000214510C41104110411040062AD76FFFF02
:1022E000FFFFFFFFFFFFFFFFFFFFFFFFFFFFFFFFFE
:1022F000FFFFFFFFFFFFFFFFFFFFB5960062110426
:1023000019041105190508C44A8BB5B6EF5DBDF770
:10231000FFFF6B8E006242295AAA4208FFFFFFFFAF
:1023200052CC088311041104110408A352ADFFFF1D
:10233000FFFFFFFFFFFFFFFFFFFFFFFFFFFFFFFFAD
:10234000E71CFFFFFFFFFFFFFFFF634E006211046A
:102350001104110410E40062638EFFFFFFFFFFFF12
:10236000FFFF73CF00019CF3632CB596FFFFFFFFC7
:102370005B2D008311041104110410E42167EF3D6B
:10238000FFFFFFFFFFFFFFFFFFFFBDF8B5B7EF9EA9
:1023900052CB94B3FFFFFFFFFFDF31E808A3110426
:1023A00011041104110408A34249F7FFF7FFFFFFCE
:1023B000FFFF4A6A00018472FFFFFFFFF7FFEFDFB4
:1023C0003A0908A311041104110411041105BE18DF
:1023D000FFFFFFFFFFFFFFFFFFFF7BF0006231E821
:1023E00031C70041A535FFFFEF5D214610C4110440
:1023F00011041104110410E408A39D76F7FFFFFFF8
:10240000ADB708A308A331C7E79EF7FFF7FFA5768E
:1024100008A310E411041104110411051105A535D8
:10242000FFFFFFFFFFFFFFFFFFFFDEDB29A70083AA
:1024300010C410C410C4E71CEF9E110510E4110471
:10244000110411041104190408C410E56BD16BD1F7
:1024500008C5006408A50043322B9D7784B3192575
:1024600010C41104110411041104192509269D3505
:10247000FFFFFFFFFFFFFFFFFFFFFFFF73AF0062E4
:102480001904190500825B0D9B8E10621105110461
:102490001104190410E40085110539C45A817B40E8
:1024A0009C22AC43A4039B837282498218C200A47D
:1024B00000C510E4190411041905194711675AECF5
:1024C000FFBEFFFFFFFFFFFFFFFFFFDFDEDB10C4EC
:1024D00010E41104110518A4C001888300E4190553
:1024E000190408C521448343D523FE42FEE4FF2797
:1024F000FF07FEA4FE64FE03FDA3FCE2EC42B383EF
:10250000622410E508C41904192619A8218790002F
:10251000BCD3FFFFFFFFFFFFFFFFFFDFFFFF7C10CC
:102520000042190511052883D001F84448A300E4AE
:1025300008C55A44ED02FDE2FE02FE66FF74FFB8D4
:10254000FF73F6E7F6A6F645F5A4FCC3FC62FCC2F1
:10255000FCC2CBE349C411061988018790A4F80195
:102560009AECFFFFFFFFFFFFFFFFFFFFFFFFF7BE3C
:1025700031E8008309054082C001F823F08548A3B3
:1025800000A45A44FD02CC23DCC2FE04FE28F64817
:10259000F646F624F5E4FD64FCE3FC62FCC2E402CA
:1025A000DC02FCE27AA40148016778C4F824F8024E
:1025B000B084E77DFFFFFFFFFFFFFFFFFFFFFFFF8F
:1025C000DEDB192500A338C4E002D822F844F8A6BF
:1025D00078A400632143728339839B82F521FD61D6
:1025E000FD22FCE2FCA2FC42FC42FC42AB22418305
:1025F00092C352040126192598A4F844F823F8023E
:10260000D0A4EF9EFFFFFFFFFFFFFFFFFFFFFFFFD5
:10261000FFFFD69A298700A5B843F822E023F86582
:10262000F8E8C9074883004200A3008429637AA21E
:10263000B362CBA2D362BB028A82398300A400E5D5
:1026400000E508E560C4D864F844F824F823F802EB
:102650008883C6DBFFFFFFFFFFFFFFFFFFFFFFFFDA
:10266000FFFFFFFFE73D5B503108E823F843F044EC
:10267000F865F909F9ABD189890648A31842000227
:1026800000420061008200620062008320A350C407
:1026900088A5D885F865F844F844F823F823D003D2
:1026A000108229C7EF5DFFFFFFFFFFFFFFFFFFFF66
:1026B000FFFFFFFFFFFFFFFF326C38A5D802F823B2
:1026C000F865F866F8A7F94AFA0CFA4DEA4CD20B0D
:1026D000B9A9B168A947B127B907D107E8E7F8C791
:1026E000F8A7F865F865F844F823F803D00228A3A2
:1026F000090508C45AECFFFFFFFFFFFFFFFFFFFFC4
:10270000FFFFFFFFFFFFDEFB190500C441A7C0E686
:10271000F803F886F8A7F887F886F8C7F929F98A40
:10272000F9ABF9ABF98BF96AF929F908F8C7F8A6FA
:10273000F886F865F864F823F002B106292500E46C
:1027400010E4192519259D14FFFFFFFFFFFFFFFF70
:10275000FFFFFFFFFFFFAD96006208829535CEBAFE
:10276000A28BD044F825F887F8A7F8C7F8A7F88710
:10277000F886F886F886F887F8A7F8A7F8A6F88507
:10278000F865F864F024B864930DB6BB63CF088392
:10279000110410E421663A49EF5DFFFFFFFFFFFFE0
:1027A000FFFFFFFFFFFF94D3004210E4CEBBFFFF0B
:1027B000E7BEB576AACCC107E045F845F846F8660D
:1027C000F886F886F886F886F865F845F865E865CD
:1027D000D044A84388019082D73CEFFF95550883E9
:1027E000110411041905194694B3FFFFFFFFFFFF01
:1027F000FFFFFFFFFFFF94B300412186DF5DFFFF76
:10280000FFFFFFFFE7DFC67AB4D3B34EC22AD16819
:10281000E0E6E8A6E8A5E8A5D8E6C988A906A822C2
:10282000A802A000C800D800E5F7E7FFADF810C483
:1028300010E4110410E411054A8BFFFFFFFFFFFFB6
:10284000FFFFFFFFFFFFA555004129A7DF5DF7FF51
:10285000FFFFFFFFFFFFFFFFFFFFEFFFDF7DCEDB8F
:10286000CE59CDF8CDD7C5F7CE79BEFBA2ABF003DC
:10287000F845D042E843F000D472DFFFAE3910E4EF
:1028800010E4110410E411052987FFFFFFFFFFFF8B
:10289000FFFFFFFFFFFFCE5908832146D71CF7FF3C
:1028A000FFFFFFFFFFFFFFFFFFFFFFFFFFFFFFFF38
:1028B000FFFFFFFFFFFFFFFFFFFFEFFFBA8BF804F3
:1028C000F845E062F044F800DB8EDFFFA5F810C4A5
:1028D00010E410E4110410E41925FFFFFFFFFFFFCF
:1028E000FFFFFFFFFFFFF7BE29870883B639F7FF19
:1028F000F7DFFFFFFFFFFFFFFFFFFFFFFFFFFFFF10
:10290000FFFFFFFFFFFFFFFFFFFFE7BEBA4AF8032D
:10291000F845F864F844F800E36ED7FF8CF40883B8
:10292000110410E410E410E41905FFFFFFFFFFFF9E
:10293000FFFFFFFFFFFFFFFF73EF00008472EFFF59
:10294000EFBEFFDFFFFFFFFFFFFFFFFFFFFFFFFF08
:10295000FFFFFFFFFFFFFFFFFFFFE7DFBA8BF8037B
:10296000F845F845F823F800D4D3D7FF5B4E002193
:102970003A29A555088310C41925FFFFFFFFFFFF63
:10298000FFFFFFFFFFFFFFFFDEFB08A331E8DF9E35
:10299000E79EEFBFFFFFFFFFFFFFFFFFFFFFFFFF10
:1029A000FFFFFFFFFFFFFFFFFFFFF7FFBC51E0024C
:1029B000F803F003E043C2ECCF7EBEFC21460021C9
:1029C00094D3FFFF845100002987FFFFFFFFFFFF23
:1029D000FFFFFFFFFFFFFFFFFFFF845100008CF4AC
:1029E000EFFFE79EEFBFFFDFFFFFFFFFFFFFFFFFF0
:1029F000FFFFFFFFFFFFFFFFFFFFFFFFDF3DBD55B5
:102A0000BC52BC72B5B7C75DDFFF6BF000003A097E
:102A1000F7BFFFFFFFFF9D14A555FFFFFFFFFFFF5F
:102A2000FFFFFFFFFFFFFFFFFFFFFFFF4AAC08A410
:102A3000BEBBE7DFE77EEFBEF7DFFFDFFFFFFFFF95
:102A4000FFFFFFFFFFFFFFFFFFFFFFDFF7DFEFFFEE
:102A5000DFDFD7BFD79EDFDFA5D808831126D6DBFF
:102A6000FFFFFFFFFFFFFFFFFFFFFFFFFFFFFFFF76
:102A7000FFFFFFFFFFFFFFFFFFFFEE79DC8B312140
:102A800021A9CF3DDFBFDF7EE79EEFBEEFBFF7DFBF
:102A9000F7DFF7DFF7DFF7DFEFBFEFBEE79EDF7EA1
:102AA000D75ED75EDFDFB69A19260842A3EDFFBFD7
:102AB000FFFFFFFFFFFFFFFFFFFFFFFFFFFFFFFF26
:102AC000FFFFFFFFFFFFFFFFDD74DBC0FE00EE42F4
:102AD00042022189B67BDFDFD77EDF7EDF7EE79E85
:102AE000E79EE79EE79EE79EDF7EDF7ED75DD75DB0
:102AF000DF9EE7FFA5F8110718E3C502FD60D3E6E6
:102B0000EEDBFFFFFFFFFFFFFFFFFFFFFFFFFFFF0A
:102B1000FFFFFFFFFFFFF79EBA84FCC1FE42FE826B
:102B2000FEA2838121457474C75EDFDFD77ED75E46
:102B3000D75DD75ED75ED75DD75DD75EDF9EE7FFF7
:102B4000C73D63F108845242E626FF29FE86F3E082
:102B5000C36AFFFFFFFFFFFFFFFFFFFFFFFFFFFF56
:102B6000FFFFFFFFFFFFDE18D2C1FDA2FE22FE42E3
:102B7000FE42FE62D4E26A4142497453A63BC73E1C
:102B8000D7BFD7BFD7BFDFBFD7BFC73EA61A63F235
:102B900029A74182B422FE62FE83FEAAFF0FFD67D1
:102BA000BA63EF3CFFFFFFFFFFFFFFFFFFFFFFFFE9
:102BB000FFFFFFFFFFFFE69AD280FD21FDC2F5E295
:102BC000F5C2F582FD82FD62DC619B216A846AE9BF
:102BD000632C63AF7411636E632C5A8952047A813B
:102BE000CBC2FCE2FD62FD82FDC2FDC2FDE4FD241C
:102BF000CA62E71CFFFFFFFFFFFFFFFFFFFFFFFFB2
:102C0000FFFFFFFFFFFFFFFFCCB1D281F3C0FCC18C
:102C1000FD02FD02FCE2FCC2FCC2FC81FB80C9C0DB
:102C200081A4AD35CE599C718121DA00FBA1FC82D3
:102C3000FCA2FC82FCA2FD02FD22FCE2FC00DA60A8
:102C4000CC90FFFFFFFFFFFFFFFFFFFFFFFFFFFF36
:102C5000FFFFFFFFFFFFFFFFFFFFDE59C40DCB06A5
:102C6000D2E4DB03DB03DAE3D2C3C2A4B309BCD2F0
:102C7000F79EFFFFFFFFFFFFE6FBB40EBAA6D2836D
:102C8000E2E3EB02EB22E322DB03D2E4C36AD5B634
:102C9000FFFFFFFFFFFFFFFFFFFF0000000000003E
:102CA00000000000010203040607080900000000FC
:102CB00001020304A0860100400D0300801A0600F3
:102CC00000350C0040420F0080841E0000093D00CA
:102CD00000127A000024F40000366E010048E8017A
:102CE000006CDC020000000000000000000000009A
:102CF000000000000000000808080808080800009C
:102D00001818000000486C241200000000000000A9
:102D1000000000000000002424247F1212127F1201
:102D2000121200000000081C2A2A0A0C1828282A5F
:102D30002A1C080800000022251515152A5854548D
:102D4000542200000000000C1212120A76252911EC
:102D5000916E000000060604030000000000000061
:102D600000000000004020101008080808080810A3
:102D70001020400000020408081010101010100865
:102D8000080402000000000008086B1C1C6B080807
:102D90000000000000000000080808087F0808087C
:102DA000080000000000000000000000000000001B
:102DB000060604030000000000000000FE00000002
:102DC0000000000000000000000000000000000003
:102DD0000606000000008040402020101008080473
:102DE00004020200000000182442424242424242D1
:102DF00024180000000000080E0808080808080849
:102E0000083E00000000003C42424220201008041E
:102E1000427E00000000003C424220182040404218
:102E2000221C0000000000203028242422227E20C2
:102E3000207800000000007E0202021A2640404274
:102E4000221C0000000000382402021A26424242DE
:102E5000241800000000007E222210100808080834
:102E6000080800000000003C42424224182442426C
:102E7000423C000000000018244242426458404096
:102E8000241C0000000000000000181800000000D2
:102E900018180000000000000000000800000000FA
:102EA0000008080400000040201008040204081074
:102EB000204000000000000000007F0000007F00B4
:102EC000000000000000000204081020402010084C
:102ED000040200000000003C424246402010100066
:102EE000181800000000001C225A555555552D4257
:102EF000221C00000000000808181414243C224280
:102F000042E700000000001F2222221E224242420D
:102F1000221F00000000007C424201010101014229
:102F2000221C00000000001F224242424242424254
:102F3000221F00000000003F4212121E1212024225
:102F4000423F00000000003F4212121E1212020215
:102F5000020700000000003C222201010171212231
:102F6000221C0000000000E7424242427E424242F0
:102F700042E700000000003E0808080808080808AA
:102F8000083E00000000007C1010101010101010FF
:102F90001010110F0000007722120A0E0A121222DE
:102FA0002277000000000007020202020202020271
:102FB000427F000000000077363636362A2A2A2A59
:102FC0002A6B0000000000E346464A4A5252526211
:102FD000624700000000001C224141414141414143
:102FE000221C00000000003F424242423E02020218
:102FF000020700000000001C2241414141414D53A5
:10300000321C60000000003F4242423E1212222267
:1030100042C700000000007C4242020418204042E7
:10302000423E00000000007F490808080808080820
:10303000081C0000000000E7424242424242424275
:10304000423C0000000000E74242222424141418ED
:10305000080800000000006B4949494955553622CF
:1030600022220000000000E742242418181824241B
:1030700042E7000000000077222214140808080824
:10308000081C00000000007E2120101008040442EB
:10309000423F0000007808080808080808080808E7
:1030A0000808780000000202040408080810102034
:1030B00020204040001E1010101010101010101092
:1030C00010101E0000384400000000000000000046
:1030D00000000000000000000000000000000000F0
:1030E000000000FF000608000000000000000000D3
:1030F00000000000000000000000003C4278444254
:1031000042FC0000000000030202021A2642424272
:10311000261A0000000000000000003844020202ED
:103120004438000000000060404040784442424281
:1031300064D80000000000000000003C427E020253
:10314000423C0000000000F08808087E08080808DB
:10315000083E0000000000000000007C22221C024B
:103160003C42423C000000030202023A4642424214
:1031700042E700000000000C0C00000E08080808E0
:10318000083E0000000000303000003820202020E1
:103190002020221E0000000302020272120A1612F0
:1031A000227700000000000E080808080808080838
:1031B000083E0000000000000000007F9292929202
:1031C00092B70000000000000000003B464242426F
:1031D00042E70000000000000000003C4242424282
:1031E000423C0000000000000000001B264242425A
:1031F000221E020700000000000000784442424204
:10320000447840E000000000000000774C04040413
:10321000041F0000000000000000007C42023C404F
:10322000423E0000000000000008083E08080808B0
:1032300008300000000000000000006342424242EB
:1032400062DC000000000000000000E742242414BB
:103250000808000000000000000000EB4949555537
:103260002222000000000000000000762418181838
:10327000246E000000000000000000E74224241437
:1032800018080807000000000000007E221008084F
:10329000447E000000C0202020202010202020207C
:1032A0002020C0001010101010101010101010105E
:1032B0001010101000060808080808100808080870
:1032C000080806000C32C2000000000000000000E8
:1032D00000000000000000000000000000000000EE
:1032E00000000000000000000000000000000000DE
:1032F00000000000000000000000000000000000CE
:1033000000000000000000000000000000000000BD
:103310000000000000000000000000000000C001EC
:10332000C001C001C001C001C001C0018000800017
:10333000800080008000800080000000000000000D
:1033400000008001C003C0038001000000000000F5
:1033500000000000000000000000E01CE01CF01E67
:10336000700E3807180308018400000000000000F8
:10337000000000000000000000000000000000004D
:10338000000000000000000000000000000000003D
:10339000000000000000000000000000000000002D
:1033A00020102010201020102010FE7FFE7F10081B
:1033B000100810081008100810081008FE7FFE7F83
:1033C00008040804080408040804000000000000C1
:1033D00000000000000000000000000000010001EB
:1033E000C0076019103118311839183938017001C7
:1033F000E001C0038007000F001D003900311C31BF
:103400001C310C310C11180DE00700010001000106
:1034100000000000000000000000000000000000AC
:103420001C1036186308630C6304630463026302B0
:103430006301361D9C3780228063406340632063B4
:103440002063306310221836081C000000000000C2
:10345000000000000000000000000000000000006C
:10346000F00098018C018C018C018C018C00CC0047
:103470007800183E1C083608320863046304C3044D
:10348000C303834306438E26781C0000000000001F
:10349000000000000000000000001C003C003C0098
:1034A0003000300010000C0006000000000000009A
:1034B000000000000000000000000000000000000C
:1034C00000000000000000000000000000000000FC
:1034D000000000000000000000000040002000107C
:1034E0000008000C00040006000300030003800134
:1034F0008001800180018001800180018001000342
:103500000003000300060006000C00080010002065
:10351000004000000000000000000200040008005D
:103520001000300020006000C000C000C00080011A
:103530008001800180018001800180018001C00044
:10354000C000C000600060003000100008000400EF
:103550000200000000000000000000000000000069
:103560000000000000018003800300011C713C7911
:10357000783DC0070001C007783D3C791C7100010F
:1035800080038003800100000000000000000000B4
:10359000000000000000000000000000000000002B
:1035A0000000000000000001000100010001000116
:1035B00000010001FC7F0001000100010001000189
:1035C00000010001000000000000000000000000F9
:1035D00000000000000000000000000000000000EB
:1035E00000000000000000000000000000000000DB
:1035F00000000000000000000000000000000000CB
:10360000000000001C003C003C00300030001000B6
:103610000C00060000000000000000000000000098
:10362000000000000000000000000000000000009A
:1036300000000000FE7F000000000000000000000D
:10364000000000000000000000000000000000007A
:10365000000000000000000000000000000000006A
:10366000000000000000000000000000000000005A
:10367000000000000000000000000000000000004A
:10368000000018003C003C00180000000000000092
:10369000000000000000000000000040006000206A
:1036A0000030001000180008000C000400060002A2
:1036B0000003000180018000C00040006000200085
:1036C00030001000180008000C0004000600020082
:1036D00000000000000000000000000000000000EA
:1036E000C007600C30181830183018200C600C60BF
:1036F0000C600C600C600C600C600C600C6018209E
:10370000183018303018600CC007000000000000AE
:1037100000000000000000000000000000000000A9
:1037200000018001F8018001800180018001800199
:103730008001800180018001800180018001800181
:10374000800180018001C003F81F0000000000001C
:103750000000000000000000000000000000000069
:10376000E007101C0818043004300C300C30003016
:103770000018000800040002000180004000202022
:10378000102008200430FC1FFC1F00000000000077
:103790000000000000000000000000000000000029
:1037A000E003180E0C0C0C180C180C180018000C68
:1037B0000006C003000E00180010003000300C306E
:1037C0000C300C100C18180CE00300000000000076
:1037D00000000000000000000000000000000000E9
:1037E000000C000E000E000F800E800E400E600ECA
:1037F000200E100E100E080E040E040EFE7F000E9A
:10380000000E000E000E000E000EC07F0000000033
:1038100000000000000000000000000000000000A8
:10382000F03FF03F10001000100008000800C8072B
:10383000280C1818081000300030003000300C3010
:103840000C3004180418080CF003000000000000FD
:103850000000000000000000000000000000000068
:10386000800FC010203010301800180008000C0025
:103870008C0F6C183C301C600C600C600C600C6091
:103880001860182030306018C007000000000000E9
:103890000000000000000000000000000000000028
:1038A000F83FF83F1C100C08040804040004000250
:1038B0000002000100010001800080008000C000C3
:1038C000C000C000C000C000C00000000000000038
:1038D00000000000000000000000000000000000E8
:1038E000E007300C18180C300C300C301C30381835
:1038F0007008E007B007180E0C1C063806300630BA
:10390000063006300C18180CE00300000000000020
:1039100000000000000000000000000000000000A7
:10392000E00318040C080C180610063006300630A8
:10393000063006380C3C1836F031003000180018FC
:1039400000180C0C0C060C03F00100000000000035
:103950000000000000000000000000000000000067
:1039600000000000000000000000000000008001D6
:10397000C003C00380010000000000000000000040
:1039800000008001C003C0038001000000000000AF
:103990000000000000000000000000000000000027
:1039A0000000000000000000000000000000C00057
:1039B000C000000000000000000000000000000047
:1039C000000000000000C000C00080008000400037
:1039D0004000000000000000000000000000002087
:1039E000001000080004000600038001C000600011
:1039F000300018000C00180030006000C00080018A
:103A00000003000600040008001000200000000071
:103A100000000000000000000000000000000000A6
:103A20000000000000000000000000000000FE7F19
:103A300000000000000000000000FE7F0000000009
:103A40000000000000000000000000000000000076
:103A50000000000000000000000000000000040062
:103A60000800100020006000C00080010003000674
:103A7000000C001800300018000C00060003800144
:103A8000C0006000200010000800040000000000DA
:103A90000000000000000000000000000000C0075F
:103AA0003018083008600C601C601C601C6000301E
:103AB000001C0006000180008000800080000000E3
:103AC00000008001C003C00380010000000000006E
:103AD00000000000000000000000000000000000E6
:103AE000C0076018103018200C2F8C4D864CC64C27
:103AF000C64C664C66446644662666266615CC1C33
:103B00000C40082018303018C007000000000000EA
:103B100000000000000000000000000000000001A4
:103B2000C001C001C0014001600320032003200345
:103B30003006100610061006F80F080C080C080CCA
:103B40000C0C0418041806181F7C0000000000006C
:103B50000000000000000000000000000000000065
:103B6000FE07181C1838183018301830183018187C
:103B7000180CF8071818183018201860186018600A
:103B80001860186018301818FE0F000000000000C0
:103B90000000000000000000000000000000000025
:103BA000C0276038103018200C400C40040006007C
:103BB00006000600060006000600060006000C408F
:103BC0000C400C2018303018C00700000000000026
:103BD00000000000000000000000000000000000E5
:103BE000FE03180E181818301830183018601860B6
:103BF0001860186018601860186018601860183035
:103C0000183018101818180EFE03000000000000ED
:103C100000000000000000000000000000000000A4
:103C2000FE3F1830182018601840180018081808AF
:103C3000180CF80F180C18081808180018001800AD
:103C40001840184018201830FE3F00000000000007
:103C50000000000000000000000000000000000064
:103C6000FE7F1870184018C018801800181018101F
:103C70001818F81F18181810181018001800180035
:103C800018001800180018007E0000000000000056
:103C90000000000000000000000000000000000024
:103CA000C013701C101018100C200C20040006000B
:103CB000060006000600060006FC063006300C3042
:103CC0000C30183018303008C00700000000000029
:103CD00000000000000000000000000000000000E4
:103CE0003F7E0C180C180C180C180C180C180C181B
:103CF0000C180C18FC1F0C180C180C180C180C18AD
:103D00000C180C180C180C183F7E00000000000066
:103D100000000000000000000000000000000000A3
:103D2000F81F8001800180018001800180018001F5
:103D3000800180018001800180018001800180017B
:103D40008001800180018001F81F00000000000058
:103D50000000000000000000000000000000000063
:103D6000E07F0006000600060006000600060006CA
:103D70000006000600060006000600060006000613
:103D80000006000600060006000600060E060E03EA
:103D90008E01FC0000000000000000000000000098
:103DA0007E7C1818180818041806180218019801C3
:103DB0009801D801B803380318071806180E180C14
:103DC000181C1818183018307EFC00000000000085
:103DD00000000000000000000000000000000000E3
:103DE0007E001800180018001800180018001800AD
:103DF0001800180018001800180018001800180003
:103E00001840184018201830FE3F00000000000045
:103E100000000000000000000000000000000000A2
:103E20001FF81C381C381C381C3C343434343434EF
:103E3000343674326432643264326431C431C43131
:103E4000C431C430C43084309FFC00000000000046
:103E50000000000000000000000000000000000062
:103E60001F7C1C103C103410341074106410E410CB
:103E7000C410C41184118413041304170416041EFF
:103E8000041C041C041C04181F180000000000007F
:103E90000000000000000000000000000000000022
:103EA000C003300C181808100C300C300660066087
:103EB00006600660066006600660066006600C200C
:103EC0000C3008101818300CC0030000000000006F
:103ED00000000000000000000000000000000000E2
:103EE000FE0F1818183018601860186018601860F5
:103EF00018301818F80F18001800180018001800CB
:103F000018001800180018007E00000000000000D3
:103F100000000000000000000000000000000000A1
:103F2000C003300C18180C100C300C200660066012
:103F30000660066006600660066006600660E46172
:103F40002C331C321816300EC007004C007C003891
:103F50000000000000000000000000000000000061
:103F6000FE07181C18381830183018301830181878
:103F7000180CF80798031803180718061806180EE7
:103F8000180C180C181C18187E780000000000008F
:103F90000000000000000000000000000000000021
:103FA000E027303818300C200C200C000C001800D2
:103FB0007800E003800F001E00380070006004608D
:103FC0000460086018303818C80F000000000000B6
:103FD00000000000000000000000000000000000E1
:103FE000FC3F8C21846182418241800180018001FB
:103FF00080018001800180018001800180018001B9
:104000008001800180018001E007000000000000C5
:1040100000000000000000000000000000000000A0
:104020003F7C0C100C100C100C100C100C100C1011
:104030000C100C100C100C100C100C100C100C10A0
:104040000C100C1008083804E00300000000000009
:104050000000000000000000000000000000000060
:104060003EF8182018201820301030103010301072
:10407000600860086008E00CC004C004C00480034D
:1040800080038003800300010001000000000000A5
:104090000000000000000000000000000000000020
:1040A000DFF38661862186218C210C218C238C13E1
:1040B0008C138C134C1358125816580E380E380E99
:1040C000380E300C10041004100400000000000032
:1040D00000000000000000000000000000000000E0
:1040E0007E3E180838083004300470026002E00197
:1040F000C001C00180018003400340072006200664
:10410000100C100C081808183E7C0000000000007D
:10411000000000000000000000000000000000009F
:104120007E7C1C10181018083008300C70046004D5
:104130006002C002C002C0018001800180018001D4
:104140008001800180018001E00700000000000084
:10415000000000000000000000000000000000005F
:10416000F83F18180818040C040E00060007000396
:1041700080038001C001C000E000600070003000DA
:10418000382018201C100C18FE1F00000000000032
:1041900000000000000000000000C03F40004000A0
:1041A000400040004000400040004000400040000F
:1041B00040004000400040004000400040004000FF
:1041C0004000400040004000400040004000C03F30
:1041D00000000000000000000000000000000800D7
:1041E000180018001000300020006000600040003F
:1041F000C000800080018001000100030002000671
:1042000000060004000C0008001800180010003020
:1042100000200000000000000000FC03000200027B
:10422000000200020002000200020002000200027E
:10423000000200020002000200020002000200026E
:104240000002000200020002000200020002FC0361
:10425000000000000000000000008007C0062008E9
:10426000101000000000000000000000000000002E
:10427000000000000000000000000000000000003E
:10428000000000000000000000000000000000002E
:10429000000000000000000000000000000000001E
:1042A000000000000000000000000000000000000E
:1042B00000000000000000000000000000000000FE
:1042C00000000000000000000000000000000000EE
:1042D0000000FFFF0000000000007800C0000001A7
:1042E00000000000000000000000000000000000CE
:1042F00000000000000000000000000000000000BE
:1043000000000000000000000000000000000000AD
:10431000000000000000000000000000000000009D
:104320000000000000000000000000000000F0039A
:1043300018060C0C0C0C000C800F700C1C0C0C0CD8
:10434000060C060C064C0C4FF8380000000000006C
:10435000000000000000000000000000000010004D
:104360001E00180018001800180018001800180F78
:10437000D8183830386018601860186018601860F5
:104380001860182038307818C807000000000000B6
:10439000000000000000000000000000000000001D
:1043A0000000000000000000000000000000C00746
:1043B000700C181818180C180C000C000C000C00CD
:1043C0000C20182018103008C00700000000000062
:1043D00000000000000000000000000000000010CD
:1043E000001E001800180018001800180018E01B24
:1043F000301C181818180C180C180C180C180C185D
:104400000C180818181C307AE009000000000000A1
:10441000000000000000000000000000000000009C
:104420000000000000000000000000000000C007C5
:10443000300C181808100C300C30FC3F0C000C002D
:104440000C00182018107018C007000000000000B1
:10445000000000000000000000000000000000005C
:10446000003E80C380C0C0C0C000C000C000FC1FB0
:10447000C000C000C000C000C000C000C000C0003C
:10448000C000C000C000C000F80F00000000000025
:10449000000000000000000000000000000000001C
:1044A0000000000000000000000000000000C077D5
:1044B000306C10181818181818181018300CF0074D
:1044C00018001800F00FF03F08700C600C600C60D2
:1044D0003838E00F0000000000000000000010006D
:1044E0001E00180018001800180018001800980F77
:1044F000D8183830183018301830183018301830B4
:1045000018301830183018307EFC00000000000011
:10451000000000000000000000000000000000009B
:104520008003800380030000000000000001F80108
:104530008001800180018001800180018001800173
:104540008001800180018001F81F00000000000050
:10455000000000000000000000000000000000005B
:104560000038003800380000000000000010801FF4
:10457000001800180018001800180018001800187B
:104580000018001800180018001800180018180C5F
:104590001806F003000000000000000000001000FA
:1045A0001E00180018001800180018001800183E07
:1045B000180C1806180318019801D80138031807B9
:1045C0001806180C181C18187E7C0000000000004B
:1045D00000000000000000000000000000000001DA
:1045E000F80180018001800180018001800180014B
:1045F00080018001800180018001800180018001B3
:104600008001800180018001F81F0000000000008F
:10461000000000000000000000000000000000009A
:104620000000000000000000000000000800EE1C78
:104630009C338C318C318C318C318C318C318C3180
:104640008C318C318C318C31DE7B0000000000001D
:10465000000000000000000000000000000000005A
:1046600000000000000000000000000010001E0F0D
:10467000D818383018301830183018301830183032
:1046800018301830183018307EFC00000000000090
:10469000000000000000000000000000000000001A
:1046A0000000000000000000000000000000C00743
:1046B000701C103018300C600C600C600C600C60CA
:1046C0000C60183018303018C007000000000000DF
:1046D00000000000000000000000000000000000DA
:1046E00000000000000000000000000010009E0F0D
:1046F0005818383018201860186018601860186052
:10470000186018303830781898071800180018000A
:1047100018007E0000000000000000000000000003
:104720000000000000000000000000000000C023A6
:10473000303C183818300C300C300C300C300C3049
:104740000C3008301838303CE03300300030003096
:10475000003000FC0000000000000000000000002D
:1047600000000000000000000000000060007E3C2F
:1047700060666061E000E000600060006000600072
:104780006000600060006000FE07000000000000A4
:104790000000000000000000000000000000000019
:1047A0000000000000000000000000000000E02702
:1047B00030381830182018007000E003800F001CFB
:1047C000043004300C301C18EC0F00000000000016
:1047D00000000000000000000000000000000000D9
:1047E00000000000800080008000C000E000FC1F8E
:1047F000C000C000C000C000C000C000C000C000B9
:10480000C000C020C0208011000F00000000000088
:104810000000000000000000000000000000000098
:1048200000000000000000000000000010201E3CFE
:104830001830183018301830183018301830183038
:1048400018301830183830F4E01300000000000071
:104850000000000000000000000000000000000058
:1048600000000000000000000000000000007E3C8E
:10487000181818083808300430047002600260020A
:10488000E001C001C001C000800000000000000085
:104890000000000000000000000000000000000018
:1048A0000000000000000000000000000000DFF732
:1048B0008E630C238C238C23981398135816581648
:1048C000700E700E700E2004200400000000000026
:1048D00000000000000000000000000000000000D8
:1048E0000000000000000000000000000000FC3E8E
:1048F00070087004E004C002C00180038003400718
:104900006006200C100C18183E7E0000000000000D
:104910000000000000000000000000000000000097
:1049200000000000000000000000000000007E7C8D
:104930001818180830083008300460046004C002F9
:10494000C002C002800180018001800080008000E0
:104950004C003C00000000000000000000000000CF
:104960000000000000000000000000000000FC1F2C
:104970000C0C040E0406000380038001C000E0005C
:104980007020302038301C18FC1F00000000000090
:1049900000000000000000000000003000080004DB
:1049A00000040004000400040004000400040004E7
:1049B000000400028001000200040004000400045E
:1049C00000040004000400040004000400040008C3
:1049D00000300000000100010001000100010001A1
:1049E00000010001000100010001000100010001BF
:1049F00000010001000100010001000100010001AF
:104A0000000100010001000100010001000100019E
:104A1000000100010000000000000C001000200058
:104A20002000200020002000200020002000200086
:104A300020004000800140002000200020002000D5
:104A40002000200020002000200020002000100076
:104A50000C00000000003800C40086400261002203
:104A6000001C00000000000000000000000000002A
:104A70000000000000000000000000000000000036
:104A80000000000000000000000000000000000026
:104A900000000000D6D08000800080008000FC1F55
:104AA00084108410841084108410FC1F84108000F3
:104AB000800080008000BEB0F80F0808F80F0808DA
:104AC000F80F8000FF7F0000F80F08080808F80FB3
:104AD00080008410A2204000D4B00000FE3F0220DD
:104AE000F22702200220FA2F22212221222112293C
:104AF00012290A2E0220FE3F0220B5E78000800026
:104B00008000FC1F841084108410FC1F841084100B
:104B10008410FC1F845080408040007FD7D3000069
:104B2000FE1F00080004000280018000FF7F80005B
:104B300080008000800080008000A0004000D6D06F
:104B4000000000000000001800000800000800003D
:104B50000800080818F8FF1F18081818081818087F
:104B600018180818180818180818F8FF1F08080857
:104B700000080000080000080000080000180000FD
:104B80001800001800000000BEB000000000000087
:104B9000400006C0FF07400006C0FF07400006C0F7
:104BA000FF07400802003000FEFF3F000000C0FF8A
:104BB00007C00002C00002C00002C0FF0380100056
:104BC00080110160100E3010180C1E30001C000007
:104BD0000000D4B0000000000000080030F8FF1F03
:104BE00008001008C010083F100800100800100846
:104BF0000013C8FF100822100822100822100822F3
:104C00001008211208211488601648C013280010CB
:104C1000080010F8FF1F080010000000B5E70000B2
:104C20000000000000180000080000080000080054
:104C3000F0FF0F100804100804100804100804F016
:104C4000FF07100804100804100804100804F0FFFF
:104C50000710080000081000081000082000183095
:104C600000F01F000000D7D300000000000000008B
:104C700004F0FF0F00000600000100C00000280043
:104C8000001800001800001830FEFF7F0018000018
:104C90001800001800001800001800001800001884
:104CA00000001800001800001F00000C00000000A9
:104CB000D6D000000000000000000080000000804E
:104CC00001000080010000800100008001000080E0
:104CD00001001080010CF0FFFF0F308001043080D4
:104CE00001043080010430800104308001043080F0
:104CF00001043080010430800104F0FFFF073080A0
:104D00000104308001040080010000800100008067
:104D1000010000800100008001000080010000808F
:104D20000100008001000080010000800000000000
:104D30000000BEB000000000000000000000000005
:104D40000001800100FFFF010003800100038001DA
:104D500000FFFF01000380010003800100FFFF014D
:104D600000818100000003000000031CFCFFFF3FE6
:104D7000000040000003C00100FFFF010003C0006D
:104D80000003C0000003C00000FFFF00000141005D
:104D900000040100000E710000078101800101077D
:104DA0006000010E1898011C04E0011800C000000A
:104DB00000000000D4B0000000000000000000006F
:104DC0000008F0FFFF1F3000000C3000000C300026
:104DD000100C30FE3F0C3004000C3000000C300092
:104DE000000C3000000C3000C00CF0FFFF0D303024
:104DF000060E3030060C3010060C3010060C301049
:104E0000060C3018860C3018860C3008060D300C55
:104E1000860D3006EE0F3002FC0D3001000CF00064
:104E2000000C3000000CF0FFFF0F3000000C1000F1
:104E3000000400000000B5E70000000000000000D2
:104E400000C0000000C0010000C0000000C0000061
:104E500000C0000000C00000E0FFFF0360C00003CE
:104E600060C0000360C0000360C0000360C00003B6
:104E700060C00003E0FFFF0360C0000360C00003E8
:104E800060C0000360C0000360C00003E0FFFF03D8
:104E900060C0000160C0000000C0000800C0001039
:104EA00000C0001000C0001800C001380080FF1FC3
:104EB0000000000000000000D7D300000000000048
:104EC00000000000000000000003C0FFFF0700001A
:104ED00080070000C0000000600000001800000013
:104EE0000C000080030000800300008001000080AF
:104EF00001080080011CFCFFFF3F008001000080D2
:104F0000010000800100008001000080010000809D
:104F1000010000800100008001000080010000808D
:104F20000100008001000080010000FC010000E0A1
:104F30000000004000000000000000005C4F00087E
:104F400000000020080000008C1E0008644F0008CC
:104F500008000020000400009C1E000800093D001D
:044F6000000000004D
:040000050800018965
:00000001FF
