Component: Arm Compiler for Embedded 6.19 Tool: armlink [5e73cb00]

==============================================================================

Section Cross References

    gd32e23x_it.o(.ARM.exidx.text.NMI_Handler) refers to gd32e23x_it.o(.text.NMI_Handler) for [Anonymous Symbol]
    gd32e23x_it.o(.ARM.exidx.text.HardFault_Handler) refers to gd32e23x_it.o(.text.HardFault_Handler) for [Anonymous Symbol]
    gd32e23x_it.o(.ARM.exidx.text.SVC_Handler) refers to gd32e23x_it.o(.text.SVC_Handler) for [Anonymous Symbol]
    gd32e23x_it.o(.ARM.exidx.text.PendSV_Handler) refers to gd32e23x_it.o(.text.PendSV_Handler) for [Anonymous Symbol]
    gd32e23x_it.o(.ARM.exidx.text.SysTick_Handler) refers to gd32e23x_it.o(.text.SysTick_Handler) for [Anonymous Symbol]
    main.o(.text.main) refers to systick.o(.text.systick_config) for systick_config
    main.o(.text.main) refers to led.o(.text.Init_LED_GPIO) for Init_LED_GPIO
    main.o(.text.main) refers to key.o(.text.Init_Key_GPIO) for Init_Key_GPIO
    main.o(.text.main) refers to usart.o(.text.Init_USART) for Init_USART
    main.o(.text.main) refers to usart.o(.text.Init_USART0RecDMA) for Init_USART0RecDMA
    main.o(.text.main) refers to usart.o(.text.USART0_SendData) for USART0_SendData
    main.o(.text.main) refers to usart.o(.text.USART0_RecHandle) for USART0_RecHandle
    main.o(.text.main) refers to main.o(.rodata.str1.1) for [Anonymous Symbol]
    main.o(.ARM.exidx.text.main) refers to main.o(.text.main) for [Anonymous Symbol]
    systick.o(.text.systick_config) refers to gd32e23x_misc.o(.text.systick_clksource_set) for systick_clksource_set
    systick.o(.text.systick_config) refers to ffltui.o(.text) for __aeabi_ui2f
    systick.o(.text.systick_config) refers to fdiv.o(.text) for __aeabi_fdiv
    systick.o(.text.systick_config) refers to fmul.o(.text) for __aeabi_fmul
==============================================================================

Removing Unused input sections from the image.

    Removing gd32e23x_it.o(.text), (0 bytes).
    Removing gd32e23x_it.o(.ARM.exidx.text.NMI_Handler), (8 bytes).
    Removing gd32e23x_it.o(.ARM.exidx.text.HardFault_Handler), (8 bytes).
    Removing gd32e23x_it.o(.ARM.exidx.text.SVC_Handler), (8 bytes).
    Removing gd32e23x_it.o(.ARM.exidx.text.PendSV_Handler), (8 bytes).
    Removing gd32e23x_it.o(.ARM.exidx.text.SysTick_Handler), (8 bytes).
    Removing main.o(.text), (0 bytes).
    Removing main.o(.ARM.exidx.text.main), (8 bytes).
    Removing main.o(.ARM.use_no_argv), (4 bytes).
    Removing systick.o(.text), (0 bytes).
    Removing systick.o(.ARM.exidx.text.systick_config), (8 bytes).
    Removing systick.o(.text.delay_1us), (128 bytes).
    Removing systick.o(.ARM.exidx.text.delay_1us), (8 bytes).
    Removing systick.o(.text.delay_us), (128 bytes).
    Removing systick.o(.ARM.exidx.text.delay_us), (8 bytes).
    Removing systick.o(.text.delay_1ms), (128 bytes).
    Removing systick.o(.ARM.exidx.text.delay_1ms), (8 bytes).
    Removing systick.o(.text.delay_ms), (128 bytes).
==============================================================================

Image Symbol Table

    Local Symbols

    Symbol Name                              Value     Ov Type        Size  Object(Section)

    ../Firmware/CMSIS/GD/GD32E23x/Source/ARM/startup_gd32e23x.s 0x00000000   Number         0  startup_gd32e23x.o ABSOLUTE
    ../clib/division.s                       0x00000000   Number         0  aeabi_sdiv.o ABSOLUTE
    ../clib/division.s                       0x00000000   Number         0  aeabi_sdiv_div0.o ABSOLUTE
    ../clib/microlib/division.c              0x00000000   Number         0  uidiv.o ABSOLUTE
    ../clib/microlib/division.c              0x00000000   Number         0  uldiv.o ABSOLUTE
    ../clib/microlib/division.c              0x00000000   Number         0  uidiv_div0.o ABSOLUTE
    ../clib/microlib/division.c              0x00000000   Number         0  idiv_div0.o ABSOLUTE
    ../clib/microlib/division.c              0x00000000   Number         0  idiv0.o ABSOLUTE
    ../clib/microlib/init/entry.s            0x00000000   Number         0  entry.o ABSOLUTE
    ../clib/microlib/init/entry.s            0x00000000   Number         0  entry2.o ABSOLUTE
    ../clib/microlib/init/entry.s            0x00000000   Number         0  entry5.o ABSOLUTE
    ../clib/microlib/init/entry.s            0x00000000   Number         0  entry7a.o ABSOLUTE
    ../clib/microlib/init/entry.s            0x00000000   Number         0  entry7b.o ABSOLUTE
    ../clib/microlib/init/entry.s            0x00000000   Number         0  entry8a.o ABSOLUTE
    ../clib/microlib/init/entry.s            0x00000000   Number         0  entry8b.o ABSOLUTE
    ../clib/microlib/init/entry.s            0x00000000   Number         0  entry9a.o ABSOLUTE
    ../clib/microlib/init/entry.s            0x00000000   Number         0  entry9b.o ABSOLUTE
    ../clib/microlib/init/entry.s            0x00000000   Number         0  entry10a.o ABSOLUTE
    ../clib/microlib/init/entry.s            0x00000000   Number         0  entry10b.o ABSOLUTE
    ../clib/microlib/init/entry.s            0x00000000   Number         0  entry11a.o ABSOLUTE
    ../clib/microlib/init/entry.s            0x00000000   Number         0  entry11b.o ABSOLUTE
    ../clib/microlib/longlong.c              0x00000000   Number         0  llshl.o ABSOLUTE
    ../clib/microlib/longlong.c              0x00000000   Number         0  llushr.o ABSOLUTE
    ../clib/microlib/longlong.c              0x00000000   Number         0  llsshr.o ABSOLUTE
    ../clib/microlib/printf/printf.c         0x00000000   Number         0  printfa.o ABSOLUTE
    ../clib/microlib/stdio/streams.c         0x00000000   Number         0  stdout.o ABSOLUTE
    ../clib/microlib/string/memset.c         0x00000000   Number         0  memseta.o ABSOLUTE
    ../clib/microlib/stubs.s                 0x00000000   Number         0  iusefp.o ABSOLUTE
    ../fplib/microlib/fpadd.c                0x00000000   Number         0  dadd.o ABSOLUTE
    ../fplib/microlib/fpdiv.c                0x00000000   Number         0  fdiv.o ABSOLUTE
    ../fplib/microlib/fpdiv.c                0x00000000   Number         0  ddiv.o ABSOLUTE
    ../fplib/microlib/fpepilogue.c           0x00000000   Number         0  fepilogue.o ABSOLUTE
    ../fplib/microlib/fpepilogue.c           0x00000000   Number         0  depilogue.o ABSOLUTE
    ../fplib/microlib/fpfix.c                0x00000000   Number         0  ffixui.o ABSOLUTE
    ../fplib/microlib/fpfix.c                0x00000000   Number         0  dfixul.o ABSOLUTE
    ../fplib/microlib/fpflt.c                0x00000000   Number         0  ffltui.o ABSOLUTE
    ../fplib/microlib/fpmul.c                0x00000000   Number         0  fmul.o ABSOLUTE
    ../fplib/microlib/fpmul.c                0x00000000   Number         0  dmul.o ABSOLUTE
    cdrcmple.s                               0x00000000   Number         0  cdrcmple.o ABSOLUTE
    dc.s                                     0x00000000   Number         0  dc.o ABSOLUTE
    gd32e23x_adc.c                           0x00000000   Number         0  gd32e23x_adc.o ABSOLUTE
    gd32e23x_cmp.c                           0x00000000   Number         0  gd32e23x_cmp.o ABSOLUTE
    gd32e23x_crc.c                           0x00000000   Number         0  gd32e23x_crc.o ABSOLUTE
    gd32e23x_dbg.c                           0x00000000   Number         0  gd32e23x_dbg.o ABSOLUTE
    gd32e23x_dma.c                           0x00000000   Number         0  gd32e23x_dma.o ABSOLUTE
    gd32e23x_exti.c                          0x00000000   Number         0  gd32e23x_exti.o ABSOLUTE
    gd32e23x_fmc.c                           0x00000000   Number         0  gd32e23x_fmc.o ABSOLUTE
    gd32e23x_fwdgt.c                         0x00000000   Number         0  gd32e23x_fwdgt.o ABSOLUTE
    gd32e23x_gpio.c                          0x00000000   Number         0  gd32e23x_gpio.o ABSOLUTE
    gd32e23x_i2c.c                           0x00000000   Number         0  gd32e23x_i2c.o ABSOLUTE
    gd32e23x_it.c                            0x00000000   Number         0  gd32e23x_it.o ABSOLUTE
    gd32e23x_misc.c                          0x00000000   Number         0  gd32e23x_misc.o ABSOLUTE
    gd32e23x_pmu.c                           0x00000000   Number         0  gd32e23x_pmu.o ABSOLUTE
    gd32e23x_rcu.c                           0x00000000   Number         0  gd32e23x_rcu.o ABSOLUTE
    gd32e23x_rtc.c                           0x00000000   Number         0  gd32e23x_rtc.o ABSOLUTE
    gd32e23x_spi.c                           0x00000000   Number         0  gd32e23x_spi.o ABSOLUTE
    gd32e23x_syscfg.c                        0x00000000   Number         0  gd32e23x_syscfg.o ABSOLUTE
    gd32e23x_timer.c                         0x00000000   Number         0  gd32e23x_timer.o ABSOLUTE
    gd32e23x_usart.c                         0x00000000   Number         0  gd32e23x_usart.o ABSOLUTE
    gd32e23x_wwdgt.c                         0x00000000   Number         0  gd32e23x_wwdgt.o ABSOLUTE
    handlers.s                               0x00000000   Number         0  handlers.o ABSOLUTE
    init.s                                   0x00000000   Number         0  init.o ABSOLUTE
    key.c                                    0x00000000   Number         0  key.o ABSOLUTE
    led.c                                    0x00000000   Number         0  led.o ABSOLUTE
    main.c                                   0x00000000   Number         0  main.o ABSOLUTE
    system_gd32e23x.c                        0x00000000   Number         0  system_gd32e23x.o ABSOLUTE
    systick.c                                0x00000000   Number         0  systick.o ABSOLUTE
    usart.c                                  0x00000000   Number         0  usart.o ABSOLUTE
    RESET                                    0x08000000   Section      204  startup_gd32e23x.o(RESET)
    .ARM.Collect$$$$00000000                 0x080000cc   Section        0  entry.o(.ARM.Collect$$$$00000000)
    .ARM.Collect$$$$00000001                 0x080000cc   Section        4  entry2.o(.ARM.Collect$$$$00000001)
    .ARM.Collect$$$$00000004                 0x080000d0   Section        4  entry5.o(.ARM.Collect$$$$00000004)
    .ARM.Collect$$$$00000008                 0x080000d4   Section        0  entry7b.o(.ARM.Collect$$$$00000008)
    .ARM.Collect$$$$0000000A                 0x080000d4   Section        0  entry8b.o(.ARM.Collect$$$$0000000A)
    .ARM.Collect$$$$0000000B                 0x080000d4   Section        8  entry9a.o(.ARM.Collect$$$$0000000B)
    __lit__00000000                          0x080000dc   Data           4  entry2.o(.ARM.Collect$$$$00002712)
    .ARM.Collect$$$$0000000D                 0x080000dc   Section        0  entry10a.o(.ARM.Collect$$$$0000000D)
    .ARM.Collect$$$$0000000F                 0x080000dc   Section        0  entry11a.o(.ARM.Collect$$$$0000000F)
    .ARM.Collect$$$$00002712                 0x080000dc   Section        4  entry2.o(.ARM.Collect$$$$00002712)
    .text                                    0x080000e0   Section       28  startup_gd32e23x.o(.text)
    .text                                    0x080000fc   Section        0  memseta.o(.text)
    .text                                    0x08000120   Section        0  fmul.o(.text)
    .text                                    0x0800019a   Section        0  fdiv.o(.text)
    .text                                    0x08000216   Section        0  ffltui.o(.text)
    .text                                    0x08000224   Section        0  uldiv.o(.text)
    .text                                    0x08000284   Section        0  iusefp.o(.text)
    .text                                    0x08000284   Section        0  fepilogue.o(.text)
    .text                                    0x08000308   Section        0  dadd.o(.text)
    .text                                    0x0800046c   Section        0  dmul.o(.text)
    .text                                    0x0800053c   Section        0  ddiv.o(.text)
    .text                                    0x0800062c   Section        0  dfixul.o(.text)
    .text                                    0x0800066c   Section       40  cdrcmple.o(.text)
    .text                                    0x08000694   Section       36  init.o(.text)
    .text                                    0x080006b8   Section        0  uidiv_div0.o(.text)
    .text                                    0x080006f6   Section        0  llshl.o(.text)
    .text                                    0x08000716   Section        0  llushr.o(.text)
    .text                                    0x08000738   Section        0  llsshr.o(.text)
    .text                                    0x0800075e   Section        0  depilogue.o(.text)
    [Anonymous Symbol]                       0x0800081c   Section        0  led.o(.text.CLose_LED)
    [Anonymous Symbol]                       0x08000858   Section        0  gd32e23x_it.o(.text.HardFault_Handler)
    [Anonymous Symbol]                       0x0800085c   Section        0  key.o(.text.Init_Key_GPIO)
    __arm_cp.0_0                             0x08000874   Number         4  key.o(.text.Init_Key_GPIO)
    __arm_cp.0_1                             0x08000878   Number         4  key.o(.text.Init_Key_GPIO)
    [Anonymous Symbol]                       0x0800087c   Section        0  led.o(.text.Init_LED_GPIO)
    __arm_cp.0_0                             0x080008d8   Number         4  led.o(.text.Init_LED_GPIO)
    __arm_cp.0_1                             0x080008dc   Number         4  led.o(.text.Init_LED_GPIO)
    [Anonymous Symbol]                       0x080008e0   Section        0  usart.o(.text.Init_USART)
    __arm_cp.0_0                             0x080009b4   Number         4  usart.o(.text.Init_USART)
    __arm_cp.0_1                             0x080009b8   Number         4  usart.o(.text.Init_USART)
    __arm_cp.0_3                             0x080009bc   Number         4  usart.o(.text.Init_USART)
    [Anonymous Symbol]                       0x080009c0   Section        0  usart.o(.text.Init_USART0RecDMA)
    __arm_cp.1_1                             0x08000a18   Number         4  usart.o(.text.Init_USART0RecDMA)
    [Anonymous Symbol]                       0x08000a1c   Section        0  gd32e23x_it.o(.text.NMI_Handler)
    [Anonymous Symbol]                       0x08000a1e   Section        0  gd32e23x_it.o(.text.PendSV_Handler)
    [Anonymous Symbol]                       0x08000a20   Section        0  gd32e23x_it.o(.text.SVC_Handler)
    [Anonymous Symbol]                       0x08000a22   Section        0  gd32e23x_it.o(.text.SysTick_Handler)
    [Anonymous Symbol]                       0x08000a24   Section        0  system_gd32e23x.o(.text.SystemInit)
    __arm_cp.0_0                             0x08000afc   Number         4  system_gd32e23x.o(.text.SystemInit)
    __arm_cp.0_1                             0x08000b00   Number         4  system_gd32e23x.o(.text.SystemInit)
    __arm_cp.0_2                             0x08000b04   Number         4  system_gd32e23x.o(.text.SystemInit)
    __arm_cp.0_3                             0x08000b08   Number         4  system_gd32e23x.o(.text.SystemInit)
    __arm_cp.0_4                             0x08000b0c   Number         4  system_gd32e23x.o(.text.SystemInit)
    __arm_cp.0_5                             0x08000b10   Number         4  system_gd32e23x.o(.text.SystemInit)
    __arm_cp.0_6                             0x08000b14   Number         4  system_gd32e23x.o(.text.SystemInit)
    __arm_cp.0_7                             0x08000b18   Number         4  system_gd32e23x.o(.text.SystemInit)
    __arm_cp.0_8                             0x08000b1c   Number         4  system_gd32e23x.o(.text.SystemInit)
    [Anonymous Symbol]                       0x08000b20   Section        0  usart.o(.text.USART0_IRQHandler)
    __arm_cp.4_1                             0x08000b70   Number         4  usart.o(.text.USART0_IRQHandler)
    [Anonymous Symbol]                       0x08000b74   Section        0  usart.o(.text.USART0_RecHandle)
    __arm_cp.5_0                             0x08000ba8   Number         4  usart.o(.text.USART0_RecHandle)
    __arm_cp.5_1                             0x08000bac   Number         4  usart.o(.text.USART0_RecHandle)
    __arm_cp.5_2                             0x08000bb0   Number         4  usart.o(.text.USART0_RecHandle)
    __arm_cp.5_3                             0x08000bb4   Number         4  usart.o(.text.USART0_RecHandle)
    [Anonymous Symbol]                       0x08000bb8   Section        0  usart.o(.text.USART0_SendData)
    __arm_cp.2_0                             0x08000c00   Number         4  usart.o(.text.USART0_SendData)
    __arm_cp.2_1                             0x08000c04   Number         4  usart.o(.text.USART0_SendData)
    __NVIC_EnableIRQ                         0x08000c09   Thumb Code    48  gd32e23x_misc.o(.text.__NVIC_EnableIRQ)
    [Anonymous Symbol]                       0x08000c08   Section        0  gd32e23x_misc.o(.text.__NVIC_EnableIRQ)
    __arm_cp.2_0                             0x08000c38   Number         4  gd32e23x_misc.o(.text.__NVIC_EnableIRQ)
    __NVIC_SetPriority                       0x08000c3d   Thumb Code   124  gd32e23x_misc.o(.text.__NVIC_SetPriority)
    [Anonymous Symbol]                       0x08000c3c   Section        0  gd32e23x_misc.o(.text.__NVIC_SetPriority)
    __arm_cp.1_0                             0x08000cb8   Number         4  gd32e23x_misc.o(.text.__NVIC_SetPriority)
    __arm_cp.1_1                             0x08000cbc   Number         4  gd32e23x_misc.o(.text.__NVIC_SetPriority)
    [Anonymous Symbol]                       0x08000cc0   Section        0  gd32e23x_dma.o(.text.dma_channel_disable)
    [Anonymous Symbol]                       0x08000cdc   Section        0  gd32e23x_dma.o(.text.dma_channel_enable)
    [Anonymous Symbol]                       0x08000cf8   Section        0  gd32e23x_dma.o(.text.dma_circulation_disable)
    [Anonymous Symbol]                       0x08000d14   Section        0  gd32e23x_dma.o(.text.dma_deinit)
    __arm_cp.0_4                             0x08000d6c   Number         4  gd32e23x_dma.o(.text.dma_deinit)
    [Anonymous Symbol]                       0x08000d70   Section        0  gd32e23x_dma.o(.text.dma_init)
    __arm_cp.2_0                             0x08000e7c   Number         4  gd32e23x_dma.o(.text.dma_init)
    __arm_cp.2_1                             0x08000e80   Number         4  gd32e23x_dma.o(.text.dma_init)
    __arm_cp.2_3                             0x08000e84   Number         4  gd32e23x_dma.o(.text.dma_init)
    [Anonymous Symbol]                       0x08000e88   Section        0  gd32e23x_dma.o(.text.dma_transfer_number_config)
    [Anonymous Symbol]                       0x08000ea8   Section        0  gd32e23x_dma.o(.text.dma_transfer_number_get)
    __arm_cp.12_0                            0x08000ec0   Number         4  gd32e23x_dma.o(.text.dma_transfer_number_get)
    [Anonymous Symbol]                       0x08000ec4   Section        0  usart.o(.text.fputc)
    __arm_cp.3_0                             0x08000eec   Number         4  usart.o(.text.fputc)
    __arm_cp.3_1                             0x08000ef0   Number         4  usart.o(.text.fputc)
    [Anonymous Symbol]                       0x08000ef4   Section        0  gd32e23x_gpio.o(.text.gpio_af_set)
    [Anonymous Symbol]                       0x08000fb4   Section        0  gd32e23x_gpio.o(.text.gpio_bit_set)
    [Anonymous Symbol]                       0x08000fc4   Section        0  gd32e23x_gpio.o(.text.gpio_mode_set)
    [Anonymous Symbol]                       0x08001052   Section        0  gd32e23x_gpio.o(.text.gpio_output_options_set)
    [Anonymous Symbol]                       0x080010dc   Section        0  main.o(.text.main)
    __arm_cp.0_0                             0x08001110   Number         4  main.o(.text.main)
    [Anonymous Symbol]                       0x08001114   Section        0  gd32e23x_misc.o(.text.nvic_irq_enable)
    [Anonymous Symbol]                       0x08001140   Section        0  gd32e23x_misc.o(.text.nvic_vector_table_set)
    __arm_cp.7_0                             0x0800115c   Number         4  gd32e23x_misc.o(.text.nvic_vector_table_set)
    __arm_cp.7_1                             0x08001160   Number         4  gd32e23x_misc.o(.text.nvic_vector_table_set)
    [Anonymous Symbol]                       0x08001164   Section        0  gd32e23x_rcu.o(.text.rcu_clock_freq_get)
    __arm_cp.33_0                            0x08001438   Number         4  gd32e23x_rcu.o(.text.rcu_clock_freq_get)
    __arm_cp.33_1                            0x0800143c   Number         4  gd32e23x_rcu.o(.text.rcu_clock_freq_get)
    __arm_cp.33_2                            0x08001440   Number         4  gd32e23x_rcu.o(.text.rcu_clock_freq_get)
    __arm_cp.33_3                            0x08001444   Number         4  gd32e23x_rcu.o(.text.rcu_clock_freq_get)
    __arm_cp.33_4                            0x08001448   Number         4  gd32e23x_rcu.o(.text.rcu_clock_freq_get)
    __arm_cp.33_5                            0x0800144c   Number         4  gd32e23x_rcu.o(.text.rcu_clock_freq_get)
    __arm_cp.33_6                            0x08001450   Number         4  gd32e23x_rcu.o(.text.rcu_clock_freq_get)
    __arm_cp.33_7                            0x08001454   Number         4  gd32e23x_rcu.o(.text.rcu_clock_freq_get)
    __arm_cp.33_8                            0x08001458   Number         4  gd32e23x_rcu.o(.text.rcu_clock_freq_get)
    [Anonymous Symbol]                       0x0800145c   Section        0  gd32e23x_rcu.o(.text.rcu_periph_clock_enable)
    [Anonymous Symbol]                       0x08001480   Section        0  gd32e23x_rcu.o(.text.rcu_periph_reset_disable)
    [Anonymous Symbol]                       0x080014a4   Section        0  gd32e23x_rcu.o(.text.rcu_periph_reset_enable)
    system_clock_72m_hxtal                   0x080014c9   Thumb Code   208  system_gd32e23x.o(.text.system_clock_72m_hxtal)
    [Anonymous Symbol]                       0x080014c8   Section        0  system_gd32e23x.o(.text.system_clock_72m_hxtal)
    __arm_cp.3_0                             0x08001598   Number         4  system_gd32e23x.o(.text.system_clock_72m_hxtal)
    __arm_cp.3_1                             0x0800159c   Number         4  system_gd32e23x.o(.text.system_clock_72m_hxtal)
    __arm_cp.3_2                             0x080015a0   Number         4  system_gd32e23x.o(.text.system_clock_72m_hxtal)
    __arm_cp.3_3                             0x080015a4   Number         4  system_gd32e23x.o(.text.system_clock_72m_hxtal)
    __arm_cp.3_4                             0x080015a8   Number         4  system_gd32e23x.o(.text.system_clock_72m_hxtal)
    system_clock_config                      0x080015ad   Thumb Code     8  system_gd32e23x.o(.text.system_clock_config)
    [Anonymous Symbol]                       0x080015ac   Section        0  system_gd32e23x.o(.text.system_clock_config)
    [Anonymous Symbol]                       0x080015b4   Section        0  gd32e23x_misc.o(.text.systick_clksource_set)
    __arm_cp.10_0                            0x080015dc   Number         4  gd32e23x_misc.o(.text.systick_clksource_set)
    [Anonymous Symbol]                       0x080015e0   Section        0  systick.o(.text.systick_config)
    __arm_cp.0_0                             0x0800160c   Number         4  systick.o(.text.systick_config)
    __arm_cp.0_1                             0x08001610   Number         4  systick.o(.text.systick_config)
    __arm_cp.0_2                             0x08001614   Number         4  systick.o(.text.systick_config)
    __arm_cp.0_3                             0x08001618   Number         4  systick.o(.text.systick_config)
    __arm_cp.0_4                             0x0800161c   Number         4  systick.o(.text.systick_config)
    [Anonymous Symbol]                       0x08001620   Section        0  gd32e23x_usart.o(.text.usart_baudrate_set)
    __arm_cp.1_2                             0x080016cc   Number         4  gd32e23x_usart.o(.text.usart_baudrate_set)
    [Anonymous Symbol]                       0x080016d0   Section        0  gd32e23x_usart.o(.text.usart_data_transmit)
    __arm_cp.18_0                            0x080016e4   Number         4  gd32e23x_usart.o(.text.usart_data_transmit)
    [Anonymous Symbol]                       0x080016e8   Section        0  gd32e23x_usart.o(.text.usart_deinit)
    __arm_cp.0_0                             0x0800172c   Number         4  gd32e23x_usart.o(.text.usart_deinit)
    __arm_cp.0_1                             0x08001730   Number         4  gd32e23x_usart.o(.text.usart_deinit)
    __arm_cp.0_2                             0x08001734   Number         4  gd32e23x_usart.o(.text.usart_deinit)
    __arm_cp.0_3                             0x08001738   Number         4  gd32e23x_usart.o(.text.usart_deinit)
    [Anonymous Symbol]                       0x0800173c   Section        0  gd32e23x_usart.o(.text.usart_dma_receive_config)
    [Anonymous Symbol]                       0x0800175a   Section        0  gd32e23x_usart.o(.text.usart_enable)
    [Anonymous Symbol]                       0x0800176c   Section        0  gd32e23x_usart.o(.text.usart_flag_clear)
    [Anonymous Symbol]                       0x0800178a   Section        0  gd32e23x_usart.o(.text.usart_flag_get)
    [Anonymous Symbol]                       0x080017c6   Section        0  gd32e23x_usart.o(.text.usart_interrupt_enable)
    [Anonymous Symbol]                       0x080017e8   Section        0  gd32e23x_usart.o(.text.usart_interrupt_flag_clear)
    __arm_cp.70_0                            0x08001824   Number         4  gd32e23x_usart.o(.text.usart_interrupt_flag_clear)
    [Anonymous Symbol]                       0x08001828   Section        0  gd32e23x_usart.o(.text.usart_interrupt_flag_get)
    [Anonymous Symbol]                       0x0800188a   Section        0  gd32e23x_usart.o(.text.usart_parity_config)
    [Anonymous Symbol]                       0x080018b4   Section        0  gd32e23x_usart.o(.text.usart_receive_config)
    [Anonymous Symbol]                       0x080018d2   Section        0  gd32e23x_usart.o(.text.usart_stop_bit_set)
    [Anonymous Symbol]                       0x080018fc   Section        0  gd32e23x_usart.o(.text.usart_transmit_config)
    [Anonymous Symbol]                       0x0800191a   Section        0  gd32e23x_usart.o(.text.usart_word_length_set)
    i.__0printf                              0x08001944   Section        0  printfa.o(i.__0printf)
    i.__ARM_clz                              0x08001964   Section        0  depilogue.o(i.__ARM_clz)
    i.__scatterload_copy                     0x08001992   Section       14  handlers.o(i.__scatterload_copy)
    i.__scatterload_null                     0x080019a0   Section        2  handlers.o(i.__scatterload_null)
    i.__scatterload_zeroinit                 0x080019a2   Section       14  handlers.o(i.__scatterload_zeroinit)
    _fp_digits                               0x080019b1   Thumb Code   344  printfa.o(i._fp_digits)
    i._fp_digits                             0x080019b0   Section        0  printfa.o(i._fp_digits)
    _printf_core                             0x08001b25   Thumb Code  1754  printfa.o(i._printf_core)
    i._printf_core                           0x08001b24   Section        0  printfa.o(i._printf_core)
    _printf_post_padding                     0x08002211   Thumb Code    32  printfa.o(i._printf_post_padding)
    i._printf_post_padding                   0x08002210   Section        0  printfa.o(i._printf_post_padding)
    _printf_pre_padding                      0x08002231   Thumb Code    44  printfa.o(i._printf_pre_padding)
    i._printf_pre_padding                    0x08002230   Section        0  printfa.o(i._printf_pre_padding)
    [Anonymous Symbol]                       0x0800225c   Section        0  main.o(.rodata.str1.1)
    [Anonymous Symbol]                       0x0800226a   Section        0  usart.o(.rodata.str1.1)
    .data                                    0x20000000   Section        4  stdout.o(.data)
    count_1ms                                0x20000008   Data           4  systick.o(.bss.count_1ms)
    [Anonymous Symbol]                       0x20000008   Section        0  systick.o(.bss.count_1ms)
    count_1us                                0x2000000c   Data           4  systick.o(.bss.count_1us)
    [Anonymous Symbol]                       0x2000000c   Section        0  systick.o(.bss.count_1us)
    receive_flag                             0x20000010   Data           1  usart.o(.bss.receive_flag)
    [Anonymous Symbol]                       0x20000010   Section        0  usart.o(.bss.receive_flag)
    rx_count                                 0x20000011   Data           1  usart.o(.bss.rx_count)
    [Anonymous Symbol]                       0x20000011   Section        0  usart.o(.bss.rx_count)
    rxbuffer                                 0x20000012   Data         256  usart.o(.bss.rxbuffer)
    [Anonymous Symbol]                       0x20000012   Section        0  usart.o(.bss.rxbuffer)
    STACK                                    0x20000118   Section     1024  startup_gd32e23x.o(STACK)

    Global Symbols

    Symbol Name                              Value     Ov Type        Size  Object(Section)

    BuildAttributes$$THM_ISAv3M$S$8M$PE$A:L22$X:L11$S22$IEEE1$IW$~IW$USESV6$~STKCKD$USESV7$~SHL$OTIME$ROPI$EBA8$MICROLIB$REQ8$PRES8$EABIv2 0x00000000   Number         0  anon$$obj.o ABSOLUTE
    __cpp_initialize__aeabi_                  - Undefined Weak Reference
    __cxa_finalize                            - Undefined Weak Reference
    __decompress                              - Undefined Weak Reference
    _clock_init                               - Undefined Weak Reference
    _microlib_exit                            - Undefined Weak Reference
    __Vectors_Size                           0x000000cc   Number         0  startup_gd32e23x.o ABSOLUTE
    __Vectors                                0x08000000   Data           4  startup_gd32e23x.o(RESET)
    __Vectors_End                            0x080000cc   Data           0  startup_gd32e23x.o(RESET)
    __main                                   0x080000cd   Thumb Code     0  entry.o(.ARM.Collect$$$$00000000)
    _main_stk                                0x080000cd   Thumb Code     0  entry2.o(.ARM.Collect$$$$00000001)
    _main_scatterload                        0x080000d1   Thumb Code     0  entry5.o(.ARM.Collect$$$$00000004)
    __main_after_scatterload                 0x080000d5   Thumb Code     0  entry5.o(.ARM.Collect$$$$00000004)
    _main_clock                              0x080000d5   Thumb Code     0  entry7b.o(.ARM.Collect$$$$00000008)
    _main_cpp_init                           0x080000d5   Thumb Code     0  entry8b.o(.ARM.Collect$$$$0000000A)
    _main_init                               0x080000d5   Thumb Code     0  entry9a.o(.ARM.Collect$$$$0000000B)
    __rt_final_cpp                           0x080000dd   Thumb Code     0  entry10a.o(.ARM.Collect$$$$0000000D)
    __rt_final_exit                          0x080000dd   Thumb Code     0  entry11a.o(.ARM.Collect$$$$0000000F)
    Reset_Handler                            0x080000e1   Thumb Code     8  startup_gd32e23x.o(.text)
    ADC_CMP_IRQHandler                       0x080000f3   Thumb Code     0  startup_gd32e23x.o(.text)
    DMA_Channel0_IRQHandler                  0x080000f3   Thumb Code     0  startup_gd32e23x.o(.text)
    DMA_Channel1_2_IRQHandler                0x080000f3   Thumb Code     0  startup_gd32e23x.o(.text)
    DMA_Channel3_4_IRQHandler                0x080000f3   Thumb Code     0  startup_gd32e23x.o(.text)
    EXTI0_1_IRQHandler                       0x080000f3   Thumb Code     0  startup_gd32e23x.o(.text)
    EXTI2_3_IRQHandler                       0x080000f3   Thumb Code     0  startup_gd32e23x.o(.text)
    EXTI4_15_IRQHandler                      0x080000f3   Thumb Code     0  startup_gd32e23x.o(.text)
    FMC_IRQHandler                           0x080000f3   Thumb Code     0  startup_gd32e23x.o(.text)
    I2C0_ER_IRQHandler                       0x080000f3   Thumb Code     0  startup_gd32e23x.o(.text)
    I2C0_EV_IRQHandler                       0x080000f3   Thumb Code     0  startup_gd32e23x.o(.text)
    I2C1_ER_IRQHandler                       0x080000f3   Thumb Code     0  startup_gd32e23x.o(.text)
    I2C1_EV_IRQHandler                       0x080000f3   Thumb Code     0  startup_gd32e23x.o(.text)
    LVD_IRQHandler                           0x080000f3   Thumb Code     0  startup_gd32e23x.o(.text)
    RCU_IRQHandler                           0x080000f3   Thumb Code     0  startup_gd32e23x.o(.text)
    RTC_IRQHandler                           0x080000f3   Thumb Code     0  startup_gd32e23x.o(.text)
    SPI0_IRQHandler                          0x080000f3   Thumb Code     0  startup_gd32e23x.o(.text)
    SPI1_IRQHandler                          0x080000f3   Thumb Code     0  startup_gd32e23x.o(.text)
    TIMER0_BRK_UP_TRG_COM_IRQHandler         0x080000f3   Thumb Code     0  startup_gd32e23x.o(.text)
    TIMER0_Channel_IRQHandler                0x080000f3   Thumb Code     0  startup_gd32e23x.o(.text)
    TIMER13_IRQHandler                       0x080000f3   Thumb Code     0  startup_gd32e23x.o(.text)
    TIMER14_IRQHandler                       0x080000f3   Thumb Code     0  startup_gd32e23x.o(.text)
    TIMER15_IRQHandler                       0x080000f3   Thumb Code     0  startup_gd32e23x.o(.text)
    TIMER16_IRQHandler                       0x080000f3   Thumb Code     0  startup_gd32e23x.o(.text)
    TIMER2_IRQHandler                        0x080000f3   Thumb Code     0  startup_gd32e23x.o(.text)
    TIMER5_IRQHandler                        0x080000f3   Thumb Code     0  startup_gd32e23x.o(.text)
    USART1_IRQHandler                        0x080000f3   Thumb Code     0  startup_gd32e23x.o(.text)
    WWDGT_IRQHandler                         0x080000f3   Thumb Code     0  startup_gd32e23x.o(.text)
    __aeabi_memset                           0x080000fd   Thumb Code    14  memseta.o(.text)
    __aeabi_memset4                          0x080000fd   Thumb Code     0  memseta.o(.text)
    __aeabi_memset8                          0x080000fd   Thumb Code     0  memseta.o(.text)
    __aeabi_memclr                           0x0800010b   Thumb Code     4  memseta.o(.text)
    __aeabi_memclr4                          0x0800010b   Thumb Code     0  memseta.o(.text)
    __aeabi_memclr8                          0x0800010b   Thumb Code     0  memseta.o(.text)
    _memset$wrapper                          0x0800010f   Thumb Code    18  memseta.o(.text)
    __aeabi_fmul                             0x08000121   Thumb Code   122  fmul.o(.text)
    __aeabi_fdiv                             0x0800019b   Thumb Code   124  fdiv.o(.text)
    __aeabi_ui2f                             0x08000217   Thumb Code    14  ffltui.o(.text)
    __aeabi_uldivmod                         0x08000225   Thumb Code    96  uldiv.o(.text)
    __I$use$fp                               0x08000285   Thumb Code     0  iusefp.o(.text)
    _float_round                             0x08000285   Thumb Code    16  fepilogue.o(.text)
    _float_epilogue                          0x08000295   Thumb Code   114  fepilogue.o(.text)
    __aeabi_dadd                             0x08000309   Thumb Code   328  dadd.o(.text)
    __aeabi_dsub                             0x08000451   Thumb Code    12  dadd.o(.text)
    __aeabi_drsub                            0x0800045d   Thumb Code    12  dadd.o(.text)
    __aeabi_dmul                             0x0800046d   Thumb Code   202  dmul.o(.text)
    __aeabi_ddiv                             0x0800053d   Thumb Code   234  ddiv.o(.text)
    __aeabi_d2ulz                            0x0800062d   Thumb Code    54  dfixul.o(.text)
    __aeabi_cdrcmple                         0x0800066d   Thumb Code    38  cdrcmple.o(.text)
    __scatterload                            0x08000695   Thumb Code    28  init.o(.text)
    __scatterload_rt2                        0x08000695   Thumb Code     0  init.o(.text)
    __aeabi_uidiv$div0                       0x080006b9   Thumb Code     0  uidiv_div0.o(.text)
    __aeabi_uidivmod                         0x080006b9   Thumb Code    62  uidiv_div0.o(.text)
    __aeabi_llsl                             0x080006f7   Thumb Code    32  llshl.o(.text)
    _ll_shift_l                              0x080006f7   Thumb Code     0  llshl.o(.text)
    __aeabi_llsr                             0x08000717   Thumb Code    34  llushr.o(.text)
    _ll_ushift_r                             0x08000717   Thumb Code     0  llushr.o(.text)
    __aeabi_lasr                             0x08000739   Thumb Code    38  llsshr.o(.text)
    _ll_sshift_r                             0x08000739   Thumb Code     0  llsshr.o(.text)
    _double_round                            0x0800075f   Thumb Code    26  depilogue.o(.text)
    _double_epilogue                         0x08000779   Thumb Code   164  depilogue.o(.text)
    CLose_LED                                0x0800081d   Thumb Code    60  led.o(.text.CLose_LED)
    HardFault_Handler                        0x08000859   Thumb Code     4  gd32e23x_it.o(.text.HardFault_Handler)
    Init_Key_GPIO                            0x0800085d   Thumb Code    24  key.o(.text.Init_Key_GPIO)
    Init_LED_GPIO                            0x0800087d   Thumb Code    92  led.o(.text.Init_LED_GPIO)
    Init_USART                               0x080008e1   Thumb Code   212  usart.o(.text.Init_USART)
    Init_USART0RecDMA                        0x080009c1   Thumb Code    88  usart.o(.text.Init_USART0RecDMA)
    NMI_Handler                              0x08000a1d   Thumb Code     2  gd32e23x_it.o(.text.NMI_Handler)
    PendSV_Handler                           0x08000a1f   Thumb Code     2  gd32e23x_it.o(.text.PendSV_Handler)
    SVC_Handler                              0x08000a21   Thumb Code     2  gd32e23x_it.o(.text.SVC_Handler)
    SysTick_Handler                          0x08000a23   Thumb Code     2  gd32e23x_it.o(.text.SysTick_Handler)
    SystemInit                               0x08000a25   Thumb Code   216  system_gd32e23x.o(.text.SystemInit)
    USART0_IRQHandler                        0x08000b21   Thumb Code    80  usart.o(.text.USART0_IRQHandler)
    USART0_RecHandle                         0x08000b75   Thumb Code    52  usart.o(.text.USART0_RecHandle)
    USART0_SendData                          0x08000bb9   Thumb Code    72  usart.o(.text.USART0_SendData)
    dma_channel_disable                      0x08000cc1   Thumb Code    28  gd32e23x_dma.o(.text.dma_channel_disable)
    dma_channel_enable                       0x08000cdd   Thumb Code    28  gd32e23x_dma.o(.text.dma_channel_enable)
    dma_circulation_disable                  0x08000cf9   Thumb Code    28  gd32e23x_dma.o(.text.dma_circulation_disable)
    dma_deinit                               0x08000d15   Thumb Code    88  gd32e23x_dma.o(.text.dma_deinit)
    dma_init                                 0x08000d71   Thumb Code   268  gd32e23x_dma.o(.text.dma_init)
    dma_transfer_number_config               0x08000e89   Thumb Code    32  gd32e23x_dma.o(.text.dma_transfer_number_config)
    dma_transfer_number_get                  0x08000ea9   Thumb Code    24  gd32e23x_dma.o(.text.dma_transfer_number_get)
    fputc                                    0x08000ec5   Thumb Code    40  usart.o(.text.fputc)
    gpio_af_set                              0x08000ef5   Thumb Code   192  gd32e23x_gpio.o(.text.gpio_af_set)
    gpio_bit_set                             0x08000fb5   Thumb Code    16  gd32e23x_gpio.o(.text.gpio_bit_set)
    gpio_mode_set                            0x08000fc5   Thumb Code   142  gd32e23x_gpio.o(.text.gpio_mode_set)
    gpio_output_options_set                  0x08001053   Thumb Code   138  gd32e23x_gpio.o(.text.gpio_output_options_set)
    main                                     0x080010dd   Thumb Code    52  main.o(.text.main)
    nvic_irq_enable                          0x08001115   Thumb Code    44  gd32e23x_misc.o(.text.nvic_irq_enable)
    nvic_vector_table_set                    0x08001141   Thumb Code    28  gd32e23x_misc.o(.text.nvic_vector_table_set)
    rcu_clock_freq_get                       0x08001165   Thumb Code   724  gd32e23x_rcu.o(.text.rcu_clock_freq_get)
    rcu_periph_clock_enable                  0x0800145d   Thumb Code    36  gd32e23x_rcu.o(.text.rcu_periph_clock_enable)
    rcu_periph_reset_disable                 0x08001481   Thumb Code    36  gd32e23x_rcu.o(.text.rcu_periph_reset_disable)
    rcu_periph_reset_enable                  0x080014a5   Thumb Code    36  gd32e23x_rcu.o(.text.rcu_periph_reset_enable)
    systick_clksource_set                    0x080015b5   Thumb Code    40  gd32e23x_misc.o(.text.systick_clksource_set)
    systick_config                           0x080015e1   Thumb Code    44  systick.o(.text.systick_config)
    usart_baudrate_set                       0x08001621   Thumb Code   172  gd32e23x_usart.o(.text.usart_baudrate_set)
    usart_data_transmit                      0x080016d1   Thumb Code    20  gd32e23x_usart.o(.text.usart_data_transmit)
    usart_deinit                             0x080016e9   Thumb Code    68  gd32e23x_usart.o(.text.usart_deinit)
    usart_dma_receive_config                 0x0800173d   Thumb Code    30  gd32e23x_usart.o(.text.usart_dma_receive_config)
    usart_enable                             0x0800175b   Thumb Code    18  gd32e23x_usart.o(.text.usart_enable)
    usart_flag_clear                         0x0800176d   Thumb Code    30  gd32e23x_usart.o(.text.usart_flag_clear)
    usart_flag_get                           0x0800178b   Thumb Code    60  gd32e23x_usart.o(.text.usart_flag_get)
    usart_interrupt_enable                   0x080017c7   Thumb Code    34  gd32e23x_usart.o(.text.usart_interrupt_enable)
    usart_interrupt_flag_clear               0x080017e9   Thumb Code    60  gd32e23x_usart.o(.text.usart_interrupt_flag_clear)
    usart_interrupt_flag_get                 0x08001829   Thumb Code    98  gd32e23x_usart.o(.text.usart_interrupt_flag_get)
    usart_parity_config                      0x0800188b   Thumb Code    42  gd32e23x_usart.o(.text.usart_parity_config)
    usart_receive_config                     0x080018b5   Thumb Code    30  gd32e23x_usart.o(.text.usart_receive_config)
    usart_stop_bit_set                       0x080018d3   Thumb Code    42  gd32e23x_usart.o(.text.usart_stop_bit_set)
    usart_transmit_config                    0x080018fd   Thumb Code    30  gd32e23x_usart.o(.text.usart_transmit_config)
    usart_word_length_set                    0x0800191b   Thumb Code    42  gd32e23x_usart.o(.text.usart_word_length_set)
    __0printf                                0x08001945   Thumb Code    24  printfa.o(i.__0printf)
    __1printf                                0x08001945   Thumb Code     0  printfa.o(i.__0printf)
    __2printf                                0x08001945   Thumb Code     0  printfa.o(i.__0printf)
    __c89printf                              0x08001945   Thumb Code     0  printfa.o(i.__0printf)
    printf                                   0x08001945   Thumb Code     0  printfa.o(i.__0printf)
    __ARM_clz                                0x08001965   Thumb Code    46  depilogue.o(i.__ARM_clz)
    __scatterload_copy                       0x08001993   Thumb Code    14  handlers.o(i.__scatterload_copy)
    __scatterload_null                       0x080019a1   Thumb Code     2  handlers.o(i.__scatterload_null)
    __scatterload_zeroinit                   0x080019a3   Thumb Code    14  handlers.o(i.__scatterload_zeroinit)
    Region$$Table$$Base                      0x08002270   Number         0  anon$$obj.o(Region$$Table)
    Region$$Table$$Limit                     0x08002290   Number         0  anon$$obj.o(Region$$Table)
    __stdout                                 0x20000000   Data           4  stdout.o(.data)
    SystemCoreClock                          0x20000004   Data           4  system_gd32e23x.o(.data.SystemCoreClock)
    __initial_sp                             0x20000518   Data           0  startup_gd32e23x.o(STACK)



==============================================================================

Memory Map of the image

  Image Entry point : 0x080000cd

  Load Region LR_IROM1 (Base: 0x08000000, Size: 0x00002298, Max: 0x00010000, ABSOLUTE)

    Execution Region ER_IROM1 (Exec base: 0x08000000, Load base: 0x08000000, Size: 0x00002290, Max: 0x00010000, ABSOLUTE)

    Exec Addr    Load Addr    Size         Type   Attr      Idx    E Section Name        Object

    0x08000000   0x08000000   0x000000cc   Data   RO         1181    RESET               startup_gd32e23x.o
    0x080000cc   0x080000cc   0x00000000   Code   RO         1237  * .ARM.Collect$$$$00000000  mc_p.l(entry.o)
    0x080000cc   0x080000cc   0x00000004   Code   RO         1278    .ARM.Collect$$$$00000001  mc_p.l(entry2.o)
    0x080000d0   0x080000d0   0x00000004   Code   RO         1281    .ARM.Collect$$$$00000004  mc_p.l(entry5.o)
    0x080000d4   0x080000d4   0x00000000   Code   RO         1283    .ARM.Collect$$$$00000008  mc_p.l(entry7b.o)
    0x080000d4   0x080000d4   0x00000000   Code   RO         1285    .ARM.Collect$$$$0000000A  mc_p.l(entry8b.o)
    0x080000d4   0x080000d4   0x00000008   Code   RO         1286    .ARM.Collect$$$$0000000B  mc_p.l(entry9a.o)
    0x080000dc   0x080000dc   0x00000000   Code   RO         1288    .ARM.Collect$$$$0000000D  mc_p.l(entry10a.o)
    0x080000dc   0x080000dc   0x00000000   Code   RO         1290    .ARM.Collect$$$$0000000F  mc_p.l(entry11a.o)
    0x080000dc   0x080000dc   0x00000004   Code   RO         1279    .ARM.Collect$$$$00002712  mc_p.l(entry2.o)
    0x080000e0   0x080000e0   0x0000001c   Code   RO         1182    .text               startup_gd32e23x.o
    0x080000fc   0x080000fc   0x00000024   Code   RO         1240    .text               mc_p.l(memseta.o)
    0x08000120   0x08000120   0x0000007a   Code   RO         1270    .text               mf_p.l(fmul.o)
    0x0800019a   0x0800019a   0x0000007c   Code   RO         1272    .text               mf_p.l(fdiv.o)
    0x08000216   0x08000216   0x0000000e   Code   RO         1274    .text               mf_p.l(ffltui.o)
    0x08000224   0x08000224   0x00000060   Code   RO         1297    .text               mc_p.l(uldiv.o)
    0x08000284   0x08000284   0x00000000   Code   RO         1299    .text               mc_p.l(iusefp.o)
    0x08000284   0x08000284   0x00000082   Code   RO         1300    .text               mf_p.l(fepilogue.o)
    0x08000306   0x08000306   0x00000002   PAD
    0x08000308   0x08000308   0x00000164   Code   RO         1302    .text               mf_p.l(dadd.o)
    0x0800046c   0x0800046c   0x000000d0   Code   RO         1304    .text               mf_p.l(dmul.o)
    0x0800053c   0x0800053c   0x000000f0   Code   RO         1306    .text               mf_p.l(ddiv.o)
    0x0800062c   0x0800062c   0x00000040   Code   RO         1308    .text               mf_p.l(dfixul.o)
    0x0800066c   0x0800066c   0x00000028   Code   RO         1310    .text               mf_p.l(cdrcmple.o)
    0x08000694   0x08000694   0x00000024   Code   RO         1312    .text               mc_p.l(init.o)
    0x080006b8   0x080006b8   0x0000003e   Code   RO         1316    .text               mc_p.l(uidiv_div0.o)
    0x080006f6   0x080006f6   0x00000020   Code   RO         1322    .text               mc_p.l(llshl.o)
    0x08000716   0x08000716   0x00000022   Code   RO         1324    .text               mc_p.l(llushr.o)
    0x08000738   0x08000738   0x00000026   Code   RO         1326    .text               mc_p.l(llsshr.o)
    0x0800075e   0x0800075e   0x000000be   Code   RO         1328    .text               mf_p.l(depilogue.o)
    0x0800081c   0x0800081c   0x0000003c   Code   RO         1191    .text.CLose_LED     led.o
    0x08000858   0x08000858   0x00000004   Code   RO            4    .text.HardFault_Handler  gd32e23x_it.o
    0x0800085c   0x0800085c   0x00000020   Code   RO         1202    .text.Init_Key_GPIO  key.o
    0x0800087c   0x0800087c   0x00000064   Code   RO         1189    .text.Init_LED_GPIO  led.o
    0x080008e0   0x080008e0   0x000000e0   Code   RO         1215    .text.Init_USART    usart.o
    0x080009c0   0x080009c0   0x0000005c   Code   RO         1217    .text.Init_USART0RecDMA  usart.o
    0x08000a1c   0x08000a1c   0x00000002   Code   RO            2    .text.NMI_Handler   gd32e23x_it.o
    0x08000a1e   0x08000a1e   0x00000002   Code   RO            8    .text.PendSV_Handler  gd32e23x_it.o
    0x08000a20   0x08000a20   0x00000002   Code   RO            6    .text.SVC_Handler   gd32e23x_it.o
    0x08000a22   0x08000a22   0x00000002   Code   RO           10    .text.SysTick_Handler  gd32e23x_it.o
    0x08000a24   0x08000a24   0x000000fc   Code   RO         1163    .text.SystemInit    system_gd32e23x.o
    0x08000b20   0x08000b20   0x00000054   Code   RO         1223    .text.USART0_IRQHandler  usart.o
    0x08000b74   0x08000b74   0x00000044   Code   RO         1225    .text.USART0_RecHandle  usart.o
    0x08000bb8   0x08000bb8   0x00000050   Code   RO         1219    .text.USART0_SendData  usart.o
    0x08000c08   0x08000c08   0x00000034   Code   RO          502    .text.__NVIC_EnableIRQ  gd32e23x_misc.o
    0x08000c3c   0x08000c3c   0x00000084   Code   RO          500    .text.__NVIC_SetPriority  gd32e23x_misc.o
    0x08000cc0   0x08000cc0   0x0000001c   Code   RO          206    .text.dma_channel_disable  gd32e23x_dma.o
    0x08000cdc   0x08000cdc   0x0000001c   Code   RO          216    .text.dma_channel_enable  gd32e23x_dma.o
    0x08000cf8   0x08000cf8   0x0000001c   Code   RO          210    .text.dma_circulation_disable  gd32e23x_dma.o
    0x08000d14   0x08000d14   0x0000005c   Code   RO          200    .text.dma_deinit    gd32e23x_dma.o
    0x08000d70   0x08000d70   0x00000118   Code   RO          204    .text.dma_init      gd32e23x_dma.o
    0x08000e88   0x08000e88   0x00000020   Code   RO          222    .text.dma_transfer_number_config  gd32e23x_dma.o
    0x08000ea8   0x08000ea8   0x0000001c   Code   RO          224    .text.dma_transfer_number_get  gd32e23x_dma.o
    0x08000ec4   0x08000ec4   0x00000030   Code   RO         1221    .text.fputc         usart.o
    0x08000ef4   0x08000ef4   0x000000c0   Code   RO          406    .text.gpio_af_set   gd32e23x_gpio.o
    0x08000fb4   0x08000fb4   0x00000010   Code   RO          390    .text.gpio_bit_set  gd32e23x_gpio.o
    0x08000fc4   0x08000fc4   0x0000008e   Code   RO          386    .text.gpio_mode_set  gd32e23x_gpio.o
    0x08001052   0x08001052   0x0000008a   Code   RO          388    .text.gpio_output_options_set  gd32e23x_gpio.o
    0x080010dc   0x080010dc   0x00000038   Code   RO           19    .text.main          main.o
    0x08001114   0x08001114   0x0000002c   Code   RO          498    .text.nvic_irq_enable  gd32e23x_misc.o
    0x08001140   0x08001140   0x00000024   Code   RO          512    .text.nvic_vector_table_set  gd32e23x_misc.o
    0x08001164   0x08001164   0x000002f8   Code   RO          626    .text.rcu_clock_freq_get  gd32e23x_rcu.o
    0x0800145c   0x0800145c   0x00000024   Code   RO          562    .text.rcu_periph_clock_enable  gd32e23x_rcu.o
    0x08001480   0x08001480   0x00000024   Code   RO          572    .text.rcu_periph_reset_disable  gd32e23x_rcu.o
    0x080014a4   0x080014a4   0x00000024   Code   RO          570    .text.rcu_periph_reset_enable  gd32e23x_rcu.o
    0x080014c8   0x080014c8   0x000000e4   Code   RO         1169    .text.system_clock_72m_hxtal  system_gd32e23x.o
    0x080015ac   0x080015ac   0x00000008   Code   RO         1165    .text.system_clock_config  system_gd32e23x.o
    0x080015b4   0x080015b4   0x0000002c   Code   RO          518    .text.systick_clksource_set  gd32e23x_misc.o
    0x080015e0   0x080015e0   0x00000040   Code   RO           29    .text.systick_config  systick.o
    0x08001620   0x08001620   0x000000b0   Code   RO          995    .text.usart_baudrate_set  gd32e23x_usart.o
    0x080016d0   0x080016d0   0x00000018   Code   RO         1029    .text.usart_data_transmit  gd32e23x_usart.o
    0x080016e8   0x080016e8   0x00000054   Code   RO          993    .text.usart_deinit  gd32e23x_usart.o
    0x0800173c   0x0800173c   0x0000001e   Code   RO         1101    .text.usart_dma_receive_config  gd32e23x_usart.o
    0x0800175a   0x0800175a   0x00000012   Code   RO         1003    .text.usart_enable  gd32e23x_usart.o
    0x0800176c   0x0800176c   0x0000001e   Code   RO         1123    .text.usart_flag_clear  gd32e23x_usart.o
    0x0800178a   0x0800178a   0x0000003c   Code   RO         1121    .text.usart_flag_get  gd32e23x_usart.o
    0x080017c6   0x080017c6   0x00000022   Code   RO         1125    .text.usart_interrupt_enable  gd32e23x_usart.o
    0x080017e8   0x080017e8   0x00000040   Code   RO         1133    .text.usart_interrupt_flag_clear  gd32e23x_usart.o
    0x08001828   0x08001828   0x00000062   Code   RO         1131    .text.usart_interrupt_flag_get  gd32e23x_usart.o
    0x0800188a   0x0800188a   0x0000002a   Code   RO          997    .text.usart_parity_config  gd32e23x_usart.o
    0x080018b4   0x080018b4   0x0000001e   Code   RO         1009    .text.usart_receive_config  gd32e23x_usart.o
    0x080018d2   0x080018d2   0x0000002a   Code   RO         1001    .text.usart_stop_bit_set  gd32e23x_usart.o
    0x080018fc   0x080018fc   0x0000001e   Code   RO         1007    .text.usart_transmit_config  gd32e23x_usart.o
    0x0800191a   0x0800191a   0x0000002a   Code   RO          999    .text.usart_word_length_set  gd32e23x_usart.o
    0x08001944   0x08001944   0x00000020   Code   RO         1243    i.__0printf         mc_p.l(printfa.o)
    0x08001964   0x08001964   0x0000002e   Code   RO         1330    i.__ARM_clz         mf_p.l(depilogue.o)
    0x08001992   0x08001992   0x0000000e   Code   RO         1334    i.__scatterload_copy  mc_p.l(handlers.o)
    0x080019a0   0x080019a0   0x00000002   Code   RO         1335    i.__scatterload_null  mc_p.l(handlers.o)
    0x080019a2   0x080019a2   0x0000000e   Code   RO         1336    i.__scatterload_zeroinit  mc_p.l(handlers.o)
    0x080019b0   0x080019b0   0x00000174   Code   RO         1250    i._fp_digits        mc_p.l(printfa.o)
    0x08001b24   0x08001b24   0x000006ec   Code   RO         1251    i._printf_core      mc_p.l(printfa.o)
    0x08002210   0x08002210   0x00000020   Code   RO         1252    i._printf_post_padding  mc_p.l(printfa.o)
    0x08002230   0x08002230   0x0000002c   Code   RO         1253    i._printf_pre_padding  mc_p.l(printfa.o)
    0x0800225c   0x0800225c   0x0000000e   Data   RO           21    .rodata.str1.1      main.o
    0x0800226a   0x0800226a   0x00000005   Data   RO         1230    .rodata.str1.1      usart.o
    0x0800226f   0x0800226f   0x00000001   PAD
    0x08002270   0x08002270   0x00000020   Data   RO         1333    Region$$Table       anon$$obj.o


    Execution Region RW_IRAM1 (Exec base: 0x20000000, Load base: 0x08002290, Size: 0x00000518, Max: 0x00002000, ABSOLUTE)

    Exec Addr    Load Addr    Size         Type   Attr      Idx    E Section Name        Object

    0x20000000   0x08002290   0x00000004   Data   RW         1292    .data               mc_p.l(stdout.o)
    0x20000004   0x08002294   0x00000004   Data   RW         1171    .data.SystemCoreClock  system_gd32e23x.o
    0x20000008        -       0x00000004   Zero   RW           40    .bss.count_1ms      systick.o
    0x2000000c        -       0x00000004   Zero   RW           39    .bss.count_1us      systick.o
    0x20000010        -       0x00000001   Zero   RW         1229    .bss.receive_flag   usart.o
    0x20000011        -       0x00000001   Zero   RW         1228    .bss.rx_count       usart.o
    0x20000012        -       0x00000100   Zero   RW         1227    .bss.rxbuffer       usart.o
    0x20000112   0x08002298   0x00000006   PAD
    0x20000118        -       0x00000400   Zero   RW         1179    STACK               startup_gd32e23x.o


==============================================================================

Image component sizes


      Code (inc. data)   RO Data    RW Data    ZI Data      Debug   Object Name

       516         20          0          0          0       5515   gd32e23x_dma.o
       488          0          0          0          0       4230   gd32e23x_gpio.o
        12          0          0          0          0        703   gd32e23x_it.o
       308         24          0          0          0       3888   gd32e23x_misc.o
       868         36          0          0          0      11255   gd32e23x_rcu.o
       804         28          0          0          0      13636   gd32e23x_usart.o
        32          8          0          0          0       1776   key.o
       160          8          0          0          0       1461   led.o
        56          4         14          0          0        668   main.o
        28          8        204          0       1024        708   startup_gd32e23x.o
       488         56          0          4          0       1916   system_gd32e23x.o
        64         20          0          0          8       1755   systick.o
       596         52          5          0        258       4902   usart.o

    ----------------------------------------------------------------------
      4420        264        256          4       1296      52413   Object Totals
         0          0         32          0          0          0   (incl. Generated)
         0          0          1          0          6          0   (incl. Padding)

    ----------------------------------------------------------------------

      Code (inc. data)   RO Data    RW Data    ZI Data      Debug   Library Member Name

         0          0          0          0          0          0   entry.o
         0          0          0          0          0          0   entry10a.o
         0          0          0          0          0          0   entry11a.o
         8          4          0          0          0          0   entry2.o
         4          0          0          0          0          0   entry5.o
         0          0          0          0          0          0   entry7b.o
         0          0          0          0          0          0   entry8b.o
         8          4          0          0          0          0   entry9a.o
        30          0          0          0          0          0   handlers.o
        36          8          0          0          0         68   init.o
         0          0          0          0          0          0   iusefp.o
        32          0          0          0          0         68   llshl.o
        38          0          0          0          0         68   llsshr.o
        34          0          0          0          0         68   llushr.o
        36          0          0          0          0        100   memseta.o
      2252         98          0          0          0        412   printfa.o
         0          0          0          4          0          0   stdout.o
        62          0          0          0          0         72   uidiv_div0.o
        96          0          0          0          0         84   uldiv.o
        40          2          0          0          0         68   cdrcmple.o
       356          4          0          0          0        140   dadd.o
       240          6          0          0          0         84   ddiv.o
       236          0          0          0          0        216   depilogue.o
        64         10          0          0          0         68   dfixul.o
       208          6          0          0          0         88   dmul.o
       124          0          0          0          0         72   fdiv.o
       130          0          0          0          0        144   fepilogue.o
        14          0          0          0          0         68   ffltui.o
       122          0          0          0          0         72   fmul.o

    ----------------------------------------------------------------------
      4172        142          0          4          0       1960   Library Totals
         2          0          0          0          0          0   (incl. Padding)

    ----------------------------------------------------------------------

      Code (inc. data)   RO Data    RW Data    ZI Data      Debug   Library Name

      2636        114          0          4          0        940   mc_p.l
      1534         28          0          0          0       1020   mf_p.l

    ----------------------------------------------------------------------
      4172        142          0          4          0       1960   Library Totals

    ----------------------------------------------------------------------

==============================================================================


      Code (inc. data)   RO Data    RW Data    ZI Data      Debug   

      8592        406        256          8       1296      53373   Grand Totals
      8592        406        256          8       1296      53373   ELF Image Totals
      8592        406        256          8          0          0   ROM Totals

==============================================================================

    Total RO  Size (Code + RO Data)                 8848 (   8.64kB)
    Total RW  Size (RW Data + ZI Data)              1304 (   1.27kB)
    Total ROM Size (Code + RO Data + RW Data)       8856 (   8.65kB)

==============================================================================

